{
  "address": "0xACbDab377F458b9c29216c41d81036254af72Fe1",
  "abi": [
    {
      "inputs": [
        {
          "internalType": "contract IGlobalCore",
          "name": "globalCore_",
          "type": "address"
        }
      ],
      "stateMutability": "nonpayable",
      "type": "constructor"
    },
    {
      "inputs": [
        {
          "internalType": "address",
          "name": "owner",
          "type": "address"
        }
      ],
      "name": "OwnableInvalidOwner",
      "type": "error"
    },
    {
      "inputs": [
        {
          "internalType": "address",
          "name": "account",
          "type": "address"
        }
      ],
      "name": "OwnableUnauthorizedAccount",
      "type": "error"
    },
    {
      "anonymous": false,
      "inputs": [
        {
          "components": [
            {
              "internalType": "bytes4",
              "name": "prefixes",
              "type": "bytes4"
            },
            {
              "internalType": "bytes32",
              "name": "hash",
              "type": "bytes32"
            }
          ],
          "indexed": false,
          "internalType": "struct CIDV1",
          "name": "newAppCID",
          "type": "tuple"
        }
      ],
      "name": "AppCIDChanged",
      "type": "event"
    },
    {
      "anonymous": false,
      "inputs": [
        {
          "indexed": false,
          "internalType": "address",
          "name": "owner",
          "type": "address"
        },
        {
          "indexed": false,
          "internalType": "uint256",
          "name": "amount",
          "type": "uint256"
        }
      ],
      "name": "CollateralWithdrawn",
      "type": "event"
    },
    {
      "anonymous": false,
      "inputs": [
        {
          "indexed": false,
          "internalType": "bytes32",
          "name": "id",
          "type": "bytes32"
        },
        {
          "indexed": false,
          "internalType": "address",
          "name": "owner",
          "type": "address"
        }
      ],
      "name": "ComputeUnitCreated",
      "type": "event"
    },
    {
      "anonymous": false,
      "inputs": [
        {
          "indexed": false,
          "internalType": "bytes32",
          "name": "id",
          "type": "bytes32"
        }
      ],
      "name": "ComputeUnitRemoved",
      "type": "event"
    },
    {
      "anonymous": false,
      "inputs": [
        {
          "indexed": false,
          "internalType": "uint256",
          "name": "amount",
          "type": "uint256"
        }
      ],
      "name": "Deposited",
      "type": "event"
    },
    {
      "anonymous": false,
      "inputs": [
        {
          "indexed": false,
          "internalType": "uint8",
          "name": "version",
          "type": "uint8"
        }
      ],
      "name": "Initialized",
      "type": "event"
    },
    {
      "anonymous": false,
      "inputs": [
        {
          "indexed": true,
          "internalType": "address",
          "name": "previousOwner",
          "type": "address"
        },
        {
          "indexed": true,
          "internalType": "address",
          "name": "newOwner",
          "type": "address"
        }
      ],
      "name": "OwnershipTransferred",
      "type": "event"
    },
    {
      "anonymous": false,
      "inputs": [
        {
          "indexed": false,
          "internalType": "bytes32",
          "name": "computeUnitId",
          "type": "bytes32"
        },
        {
          "indexed": false,
          "internalType": "uint256",
          "name": "reward",
          "type": "uint256"
        }
      ],
      "name": "RewardWithdrawn",
      "type": "event"
    },
    {
      "anonymous": false,
      "inputs": [
        {
          "indexed": false,
          "internalType": "uint256",
          "name": "amount",
          "type": "uint256"
        }
      ],
      "name": "Withdrawn",
      "type": "event"
    },
    {
      "anonymous": false,
      "inputs": [
        {
          "indexed": false,
          "internalType": "bytes32",
          "name": "computeUnitId",
          "type": "bytes32"
        },
        {
          "indexed": false,
          "internalType": "bytes32",
          "name": "workerId",
          "type": "bytes32"
        }
      ],
      "name": "WorkerIdUpdated",
      "type": "event"
    },
    {
      "anonymous": false,
      "inputs": [
        {
          "indexed": false,
          "internalType": "bytes32",
          "name": "computeUnitId",
          "type": "bytes32"
        }
      ],
      "name": "WorkerRemoved",
      "type": "event"
    },
    {
      "inputs": [
        {
          "internalType": "bytes32",
          "name": "computeUnitId",
          "type": "bytes32"
        },
        {
          "internalType": "uint256",
          "name": "lastWorkedEpoch",
          "type": "uint256"
        }
      ],
      "name": "_removeComputeUnit",
      "outputs": [
        {
          "internalType": "uint256",
          "name": "computeUnitCount",
          "type": "uint256"
        }
      ],
      "stateMutability": "nonpayable",
      "type": "function"
    },
    {
      "inputs": [],
      "name": "accessType",
      "outputs": [
        {
          "internalType": "enum IConfig.AccessType",
          "name": "",
          "type": "uint8"
        }
      ],
      "stateMutability": "view",
      "type": "function"
    },
    {
      "inputs": [],
      "name": "appCID",
      "outputs": [
        {
          "components": [
            {
              "internalType": "bytes4",
              "name": "prefixes",
              "type": "bytes4"
            },
            {
              "internalType": "bytes32",
              "name": "hash",
              "type": "bytes32"
            }
          ],
          "internalType": "struct CIDV1",
          "name": "",
          "type": "tuple"
        }
      ],
      "stateMutability": "view",
      "type": "function"
    },
    {
      "inputs": [
        {
          "internalType": "enum IConfig.AccessType",
          "name": "accessType_",
          "type": "uint8"
        }
      ],
      "name": "changeAccessType",
      "outputs": [],
      "stateMutability": "nonpayable",
      "type": "function"
    },
    {
      "inputs": [],
      "name": "collateralPerWorker",
      "outputs": [
        {
          "internalType": "uint256",
          "name": "",
          "type": "uint256"
        }
      ],
      "stateMutability": "view",
      "type": "function"
    },
    {
      "inputs": [
        {
          "internalType": "address",
          "name": "computeProvider",
          "type": "address"
        },
        {
          "internalType": "bytes32",
          "name": "peerId",
          "type": "bytes32"
        }
      ],
      "name": "createComputeUnit",
      "outputs": [
        {
          "internalType": "bytes32",
          "name": "",
          "type": "bytes32"
        }
      ],
      "stateMutability": "nonpayable",
      "type": "function"
    },
    {
      "inputs": [],
      "name": "creationBlock",
      "outputs": [
        {
          "internalType": "uint256",
          "name": "",
          "type": "uint256"
        }
      ],
      "stateMutability": "view",
      "type": "function"
    },
    {
      "inputs": [
        {
          "internalType": "uint256",
          "name": "amount",
          "type": "uint256"
        }
      ],
      "name": "deposit",
      "outputs": [],
      "stateMutability": "nonpayable",
      "type": "function"
    },
    {
      "inputs": [],
      "name": "effectors",
      "outputs": [
        {
          "components": [
            {
              "internalType": "bytes4",
              "name": "prefixes",
              "type": "bytes4"
            },
            {
              "internalType": "bytes32",
              "name": "hash",
              "type": "bytes32"
            }
          ],
          "internalType": "struct CIDV1[]",
          "name": "",
          "type": "tuple[]"
        }
      ],
      "stateMutability": "view",
      "type": "function"
    },
    {
      "inputs": [],
      "name": "fluenceToken",
      "outputs": [
        {
          "internalType": "contract IERC20",
          "name": "",
          "type": "address"
        }
      ],
      "stateMutability": "view",
      "type": "function"
    },
    {
      "inputs": [],
      "name": "getAccessList",
      "outputs": [
        {
          "internalType": "address[]",
          "name": "",
          "type": "address[]"
        }
      ],
      "stateMutability": "view",
      "type": "function"
    },
    {
      "inputs": [
        {
          "internalType": "bytes32",
          "name": "id",
          "type": "bytes32"
        }
      ],
      "name": "getComputeUnit",
      "outputs": [
        {
          "components": [
            {
              "internalType": "bytes32",
              "name": "id",
              "type": "bytes32"
            },
            {
              "internalType": "bytes32",
              "name": "peerId",
              "type": "bytes32"
            },
            {
              "internalType": "bytes32",
              "name": "workerId",
              "type": "bytes32"
            },
            {
              "internalType": "address",
              "name": "owner",
              "type": "address"
            },
            {
              "internalType": "uint256",
              "name": "collateral",
              "type": "uint256"
            },
            {
              "internalType": "uint256",
              "name": "created",
              "type": "uint256"
            }
          ],
          "internalType": "struct IWorkerManager.ComputeUnit",
          "name": "",
          "type": "tuple"
        }
      ],
      "stateMutability": "view",
      "type": "function"
    },
    {
      "inputs": [],
      "name": "getComputeUnitCount",
      "outputs": [
        {
          "internalType": "uint256",
          "name": "",
          "type": "uint256"
        }
      ],
      "stateMutability": "view",
      "type": "function"
    },
    {
      "inputs": [],
      "name": "getComputeUnits",
      "outputs": [
        {
          "components": [
            {
              "internalType": "bytes32",
              "name": "id",
              "type": "bytes32"
            },
            {
              "internalType": "bytes32",
              "name": "peerId",
              "type": "bytes32"
            },
            {
              "internalType": "bytes32",
              "name": "workerId",
              "type": "bytes32"
            },
            {
              "internalType": "address",
              "name": "owner",
              "type": "address"
            },
            {
              "internalType": "uint256",
              "name": "collateral",
              "type": "uint256"
            },
            {
              "internalType": "uint256",
              "name": "created",
              "type": "uint256"
            }
          ],
          "internalType": "struct IWorkerManager.ComputeUnit[]",
          "name": "",
          "type": "tuple[]"
        }
      ],
      "stateMutability": "view",
      "type": "function"
    },
    {
      "inputs": [],
      "name": "getFreeBalance",
      "outputs": [
        {
          "internalType": "uint256",
          "name": "",
          "type": "uint256"
        }
      ],
      "stateMutability": "view",
      "type": "function"
    },
    {
      "inputs": [],
      "name": "getMaxPaidEpoch",
      "outputs": [
        {
          "internalType": "uint256",
          "name": "",
          "type": "uint256"
        }
      ],
      "stateMutability": "view",
      "type": "function"
    },
    {
      "inputs": [
        {
          "internalType": "bytes32",
          "name": "computeUnitId",
          "type": "bytes32"
        }
      ],
      "name": "getRewardAmount",
      "outputs": [
        {
          "internalType": "uint256",
          "name": "",
          "type": "uint256"
        }
      ],
      "stateMutability": "view",
      "type": "function"
    },
    {
      "inputs": [],
      "name": "getStatus",
      "outputs": [
        {
          "internalType": "enum IDeal.Status",
          "name": "",
          "type": "uint8"
        }
      ],
      "stateMutability": "view",
      "type": "function"
    },
    {
      "inputs": [
        {
          "internalType": "bytes32",
          "name": "computeUnitId",
          "type": "bytes32"
        }
      ],
      "name": "getUnlockCollateralEpoch",
      "outputs": [
        {
          "internalType": "uint256",
          "name": "",
          "type": "uint256"
        }
      ],
      "stateMutability": "view",
      "type": "function"
    },
    {
      "inputs": [
        {
          "components": [
            {
              "internalType": "bytes4",
              "name": "prefixes",
              "type": "bytes4"
            },
            {
              "internalType": "bytes32",
              "name": "hash",
              "type": "bytes32"
            }
          ],
          "internalType": "struct CIDV1",
          "name": "appCID_",
          "type": "tuple"
        },
        {
          "internalType": "contract IERC20",
          "name": "paymentToken_",
          "type": "address"
        },
        {
          "internalType": "uint256",
          "name": "collateralPerWorker_",
          "type": "uint256"
        },
        {
          "internalType": "uint256",
          "name": "minWorkers_",
          "type": "uint256"
        },
        {
          "internalType": "uint256",
          "name": "targetWorkers_",
          "type": "uint256"
        },
        {
          "internalType": "uint256",
          "name": "maxWorkersPerProvider_",
          "type": "uint256"
        },
        {
          "internalType": "uint256",
          "name": "pricePerWorkerEpoch_",
          "type": "uint256"
        },
        {
          "components": [
            {
              "internalType": "bytes4",
              "name": "prefixes",
              "type": "bytes4"
            },
            {
              "internalType": "bytes32",
              "name": "hash",
              "type": "bytes32"
            }
          ],
          "internalType": "struct CIDV1[]",
          "name": "effectors_",
          "type": "tuple[]"
        },
        {
          "internalType": "enum IConfig.AccessType",
          "name": "accessType_",
          "type": "uint8"
        },
        {
          "internalType": "address[]",
          "name": "accessList_",
          "type": "address[]"
        },
        {
          "internalType": "address",
          "name": "owner_",
          "type": "address"
        }
      ],
      "name": "initialize",
      "outputs": [],
      "stateMutability": "nonpayable",
      "type": "function"
    },
    {
      "inputs": [
        {
          "internalType": "address",
          "name": "addr",
          "type": "address"
        }
      ],
      "name": "isInAccessList",
      "outputs": [
        {
          "internalType": "bool",
          "name": "",
          "type": "bool"
        }
      ],
      "stateMutability": "view",
      "type": "function"
    },
    {
      "inputs": [],
      "name": "maxWorkersPerProvider",
      "outputs": [
        {
          "internalType": "uint256",
          "name": "",
          "type": "uint256"
        }
      ],
      "stateMutability": "view",
      "type": "function"
    },
    {
      "inputs": [],
      "name": "minWorkers",
      "outputs": [
        {
          "internalType": "uint256",
          "name": "",
          "type": "uint256"
        }
      ],
      "stateMutability": "view",
      "type": "function"
    },
    {
      "inputs": [],
      "name": "owner",
      "outputs": [
        {
          "internalType": "address",
          "name": "",
          "type": "address"
        }
      ],
      "stateMutability": "view",
      "type": "function"
    },
    {
      "inputs": [],
      "name": "paymentToken",
      "outputs": [
        {
          "internalType": "contract IERC20",
          "name": "",
          "type": "address"
        }
      ],
      "stateMutability": "view",
      "type": "function"
    },
    {
      "inputs": [],
      "name": "pricePerWorkerEpoch",
      "outputs": [
        {
          "internalType": "uint256",
          "name": "",
          "type": "uint256"
        }
      ],
      "stateMutability": "view",
      "type": "function"
    },
    {
      "inputs": [
        {
          "internalType": "bytes32",
          "name": "computeUnitId",
          "type": "bytes32"
        }
      ],
      "name": "removeComputeUnit",
      "outputs": [],
      "stateMutability": "nonpayable",
      "type": "function"
    },
    {
      "inputs": [
        {
          "internalType": "address",
          "name": "addr",
          "type": "address"
        }
      ],
      "name": "removeFromAccessList",
      "outputs": [],
      "stateMutability": "nonpayable",
      "type": "function"
    },
    {
      "inputs": [],
      "name": "renounceOwnership",
      "outputs": [],
      "stateMutability": "nonpayable",
      "type": "function"
    },
    {
      "inputs": [
        {
          "components": [
            {
              "internalType": "bytes4",
              "name": "prefixes",
              "type": "bytes4"
            },
            {
              "internalType": "bytes32",
              "name": "hash",
              "type": "bytes32"
            }
          ],
          "internalType": "struct CIDV1",
          "name": "appCID_",
          "type": "tuple"
        }
      ],
      "name": "setAppCID",
      "outputs": [],
      "stateMutability": "nonpayable",
      "type": "function"
    },
    {
      "inputs": [
        {
          "internalType": "bytes32",
          "name": "computeUnitId",
          "type": "bytes32"
        },
        {
          "internalType": "bytes32",
          "name": "workerId",
          "type": "bytes32"
        }
      ],
      "name": "setWorker",
      "outputs": [],
      "stateMutability": "nonpayable",
      "type": "function"
    },
    {
      "inputs": [],
      "name": "stop",
      "outputs": [],
      "stateMutability": "nonpayable",
      "type": "function"
    },
    {
      "inputs": [],
      "name": "targetWorkers",
      "outputs": [
        {
          "internalType": "uint256",
          "name": "",
          "type": "uint256"
        }
      ],
      "stateMutability": "view",
      "type": "function"
    },
    {
      "inputs": [
        {
          "internalType": "address",
          "name": "newOwner",
          "type": "address"
        }
      ],
      "name": "transferOwnership",
      "outputs": [],
      "stateMutability": "nonpayable",
      "type": "function"
    },
    {
      "inputs": [
        {
          "internalType": "uint256",
          "name": "amount",
          "type": "uint256"
        }
      ],
      "name": "withdraw",
      "outputs": [],
      "stateMutability": "nonpayable",
      "type": "function"
    },
    {
      "inputs": [
        {
          "internalType": "bytes32",
          "name": "computeUnitId",
          "type": "bytes32"
        }
      ],
      "name": "withdrawCollateral",
      "outputs": [],
      "stateMutability": "nonpayable",
      "type": "function"
    },
    {
      "inputs": [
        {
          "internalType": "bytes32",
          "name": "computeUnitId",
          "type": "bytes32"
        }
      ],
      "name": "withdrawRewards",
      "outputs": [],
      "stateMutability": "nonpayable",
      "type": "function"
    }
  ],
  "transactionHash": "0xddc076d24f0c57a4f0d3338c364f4f4eff79edddf720fff204904c8d55fec893",
  "args": [
    "0x8773355509c9a534A43Ce439E49EBFba928D048E"
  ],
  "numDeployments": 1,
  "solcInputHash": "5888c99064a7bc8bd95da4c81fe2a78b",
  "bytecode": "0x60c060409080825234620001e15780620043e78038038091620000238285620001e6565b8339602092839181010312620001e157516001600160a01b039081811690818103620001e15760a052835163ac027f9760e01b8152908390829060049082905afa908115620001d65760009162000192575b5090506080526000549060ff8260081c166200013f5760ff8083160362000105575b82516141c6908162000221823960805181818161063a01528181610b8a0152610efc015260a05181818161039301528181610ae601528181610d04015281816112a401528181611f53015281816121d40152818161267a01528181612a680152818161303901526131800152f35b60ff7f7f26b83ff96e1f2b6a682f133852f6798a09c465da95921460cefb38474024989281191617600055825160ff8152a1388062000097565b60849083519062461bcd60e51b82526004820152602760248201527f496e697469616c697a61626c653a20636f6e747261637420697320696e697469604482015266616c697a696e6760c81b6064820152fd5b8381813d8311620001ce575b620001aa8183620001e6565b81010312620001ca57519182168203620001c75750803862000075565b80fd5b5080fd5b503d6200019e565b84513d6000823e3d90fd5b600080fd5b601f909101601f19168101906001600160401b038211908210176200020a57604052565b634e487b7160e01b600052604160045260246000fdfe608080604052600436101561001357600080fd5b60003560e01c908163055236f414612beb5750806307da68f514612a04578063108d2f52146129c757806314d3b7671461280057806317634514146127c3578063176474cf146127a25780631af57b96146125f75780632943dcab146125ba5780632b9f5b321461256f5780632db31193146125325780632e1a7d4d146121715780633013ce291461211e5780633591187c14611eff578063378b22e414611ec257806344228b12146118e45780634b66a309146116ca5780634e69d560146116a25780636cd1344814611665578063715018a6146115c5578063745e920b146114cd5780637878e81b1461149f5780637dfb66261461121f5780638a0c725b146111e25780638d5ddbb31461102b5780638da5cb5b14610fd85780639bc6686814610f20578063ac027f9714610ecf578063b55ec18a14610e86578063b6b55f2514610ca2578063cffe224414610c81578063d3cde34414610a5e578063d5053ab014610997578063e93c4f1514610974578063edd0d73414610937578063eebe998f1461032f578063f2fde38b146103045763fc1e5e2a146101b657600080fd5b346102ff5760006003193601126102ff577f8953f5482bc1a621075e75537625fa3bd2025e7df7baf6ba1dbfbf2212912d0d80546101f381612dd9565b6102006040519182612d98565b81815260209182820180946000527fcfcab6f3bf9ee9c2484fd18eeb2a9bd794cfdeb4ec98cce66c941e6633f8e0956000915b8383106102ae5760408051878152865181890181905289928201908960005b82811061025f5784840385f35b9091928260408261029f6001948a51602080917fffffffff0000000000000000000000000000000000000000000000000000000081511684520151910152565b01960191019492919094610252565b6002866001926040516102c081612d60565b7fffffffff00000000000000000000000000000000000000000000000000000000865460e01b1681528486015483820152815201920192019190610233565b600080fd5b346102ff5760206003193601126102ff5761032d610320612cf7565b610328614120565b61405d565b005b346102ff5760406003193601126102ff57610348612cf7565b602435604051917f7667180800000000000000000000000000000000000000000000000000000000835260209273ffffffffffffffffffffffffffffffffffffffff918482600481867f0000000000000000000000000000000000000000000000000000000000000000165afa91821561092b576000926108fc575b507fec986952a0671e4b2e5ec4461085fb880bc7a7b88668240f8d55173039155d20928354947f8953f5482bc1a621075e75537625fa3bd2025e7df7baf6ba1dbfbf2212912d0a548610156108b85760405191878301967f0e21d2e2d5be9ded2ebc4e15f49071921d3423c94178bed2c85195b579511f7088527fffffffffffffffffffffffffffffffffffffffff0000000000000000000000008286169560601b16604085015282605485015260548452608084019784891067ffffffffffffffff8a111761088957886040528451902097886000527fec986952a0671e4b2e5ec4461085fb880bc7a7b88668240f8d55173039155d2294858b528360036040600020015416610848575050846000527fec986952a0671e4b2e5ec4461085fb880bc7a7b88668240f8d55173039155d21808a526040600020547f8953f5482bc1a621075e75537625fa3bd2025e7df7baf6ba1dbfbf2212912d0b548110156107de57877f865afb485bc19debe6b3005a955507b9380643890b997437eac163d3345167ba958b6040966105778f9a969761065e9c98610566600598612df1565b908a6000528d528a60002055612df1565b809d557f8953f5482bc1a621075e75537625fa3bd2025e7df7baf6ba1dbfbf2212912d0854998a938951976105ab89612d7c565b8489528289019182528a8901926000845260608a01958b875260808b0197885260a08b01988952600052528960002097518855516001880155516002870155600386019151167fffffffffffffffffffffffff00000000000000000000000000000000000000008254161790555160048401555191015561062b88613f64565b81519088825289820152a130337f00000000000000000000000000000000000000000000000000000000000000006133bb565b7f8953f5482bc1a621075e75537625fa3bd2025e7df7baf6ba1dbfbf2212912d0c5491836000527fc576653ddc86d50a6e4d0122949ce4f03ce67b12fb750e4fa8bed8f88ff5f4f385526040600020927fc576653ddc86d50a6e4d0122949ce4f03ce67b12fb750e4fa8bed8f88ff5f4f1928354936106db613878565b927fc576653ddc86d50a6e4d0122949ce4f03ce67b12fb750e4fa8bed8f88ff5f4f254947fffffffffffffffffffffffffffffffffffffffffffffffffffffffffffffffff8101968188116107af5761073c8360019960a09984898b6132c9565b847f8953f5482bc1a621075e75537625fa3bd2025e7df7baf6ba1dbfbf2212912d095483101591826107a5575b505061078c575b50505061077d818361370d565b84550151910155604051908152f35b61079b916060860151856136c1565b9055878080610770565b119050848c610769565b7f4e487b7100000000000000000000000000000000000000000000000000000000600052601160045260246000fd5b60848b6040519062461bcd60e51b82526004820152602860248201527f4d617820776f726b6572732070657220636f6d707574652070726f766964657260448201527f20726561636865640000000000000000000000000000000000000000000000006064820152fd5b907f496420616c72656164792075736564000000000000000000000000000000000060c46064938d62461bcd60e51b85526084820152600f60a48201520152fd5b7f4e487b7100000000000000000000000000000000000000000000000000000000600052604160045260246000fd5b6064876040519062461bcd60e51b82526004820152601660248201527f54617267657420776f726b6572732072656163686564000000000000000000006044820152fd5b9091508481813d8311610924575b6109148183612d98565b810103126102ff575190856103c4565b503d61090a565b6040513d6000823e3d90fd5b346102ff5760006003193601126102ff5760207f8953f5482bc1a621075e75537625fa3bd2025e7df7baf6ba1dbfbf2212912d0854604051908152f35b346102ff5760006003193601126102ff57602061098f61313d565b604051908152f35b346102ff5760406003193601126102ff5760043560243590806000527fec986952a0671e4b2e5ec4461085fb880bc7a7b88668240f8d55173039155d226020526040600020908215610a1a57827fcf79e0e27c8c35d39bd9b727f35e6f79573597f660c88baf483fc1511c49203c936002604094015582519182526020820152a1005b606460405162461bcd60e51b815260206004820152601760248201527f576f726b657249642063616e277420626520656d7074790000000000000000006044820152fd5b346102ff576020806003193601126102ff57600435806000527fec986952a0671e4b2e5ec4461085fb880bc7a7b88668240f8d55173039155d27808352604060002054916040517f7667180800000000000000000000000000000000000000000000000000000000815273ffffffffffffffffffffffffffffffffffffffff938582600481887f0000000000000000000000000000000000000000000000000000000000000000165afa91821561092b57600092610c52575b5011610c0e577fc30fcfbcaac9e0deffa719714eaa82396ff506a0d0d0eebe170830177288715d93816000527fec986952a0671e4b2e5ec4461085fb880bc7a7b88668240f8d55173039155d2291828252604060002094600360048701549601541693825260006040812055610bae85857f00000000000000000000000000000000000000000000000000000000000000006137df565b6000525260006005604082208281558260018201558260028201558260038201558260048201550155610c09604051928392836020909392919373ffffffffffffffffffffffffffffffffffffffff60408201951681520152565b0390a1005b6064846040519062461bcd60e51b82526004820152601860248201527f436f6c6c61746572616c206e6f7420617661696c61626c6500000000000000006044820152fd5b9091508581813d8311610c7a575b610c6a8183612d98565b810103126102ff57519086610b17565b503d610c60565b346102ff5760406003193601126102ff57602061098f602435600435613941565b346102ff576020806003193601126102ff5760043590610cc0614120565b604051917f7667180800000000000000000000000000000000000000000000000000000000835273ffffffffffffffffffffffffffffffffffffffff8284600481847f0000000000000000000000000000000000000000000000000000000000000000165afa93841561092b57600094610e57575b5081610e4e91610e227f2a89b2e3d580398d6dc2db5e0f336b52602bbaa51afa9bb5cdf59239cf0d2bea967fec986952a0671e4b2e5ec4461085fb880bc7a7b88668240f8d55173039155d20547f8953f5482bc1a621075e75537625fa3bd2025e7df7baf6ba1dbfbf2212912d0c54610e1b610daf613878565b927fc576653ddc86d50a6e4d0122949ce4f03ce67b12fb750e4fa8bed8f88ff5f4f192610e03818386547fc576653ddc86d50a6e4d0122949ce4f03ce67b12fb750e4fa8bed8f88ff5f4f254908a8a6132c9565b60608501610e128a82516132bc565b809152866136c1565b905561370d565b7f8953f5482bc1a621075e75537625fa3bd2025e7df7baf6ba1dbfbf2212912d075416309033906133bb565b604051908152a1005b93508284813d8311610e7f575b610e6e8183612d98565b810103126102ff5792519281610d35565b503d610e64565b346102ff5760006003193601126102ff57602060ff7f8953f5482bc1a621075e75537625fa3bd2025e7df7baf6ba1dbfbf2212912d0e541660405190610ecb81612d1a565b8152f35b346102ff5760006003193601126102ff57602060405173ffffffffffffffffffffffffffffffffffffffff7f0000000000000000000000000000000000000000000000000000000000000000168152f35b346102ff5760006003193601126102ff5760006020604051610f4181612d60565b828152015260408051610f5381612d60565b7f8953f5482bc1a621075e75537625fa3bd2025e7df7baf6ba1dbfbf2212912d055460e01b7fffffffff00000000000000000000000000000000000000000000000000000000168082527f8953f5482bc1a621075e75537625fa3bd2025e7df7baf6ba1dbfbf2212912d0654602092830190815283519182525191810191909152f35bf35b346102ff5760006003193601126102ff57602073ffffffffffffffffffffffffffffffffffffffff7f612e56b0fc389e6dab6fa70e140af078f831069f9c4d9558e645bdefbbc811235416604051908152f35b346102ff5760006003193601126102ff577f8953f5482bc1a621075e75537625fa3bd2025e7df7baf6ba1dbfbf2212912d115461106781612dd9565b906110756040519283612d98565b8082527fffffffffffffffffffffffffffffffffffffffffffffffffffffffffffffffe090816110a482612dd9565b019060209136838601377f8953f5482bc1a621075e75537625fa3bd2025e7df7baf6ba1dbfbf2212912d0f546000905b828210611198575050508251906111036110ed83612dd9565b926110fb6040519485612d98565b808452612dd9565b828201930136843760005b845181101561113e57806111256111399287612e1e565b5160601c6111338286612e1e565b52612df1565b61110e565b50925090604051928392818401908285525180915260408401929160005b82811061116b57505050500390f35b835173ffffffffffffffffffffffffffffffffffffffff168552869550938101939281019260010161115c565b806111a38388612e1e565b526000527f8953f5482bc1a621075e75537625fa3bd2025e7df7baf6ba1dbfbf2212912d1283526111dc60016040600020015491612df1565b906110d4565b346102ff5760006003193601126102ff5760207f8953f5482bc1a621075e75537625fa3bd2025e7df7baf6ba1dbfbf2212912d0b54604051908152f35b346102ff576020806003193601126102ff57600435806000527fc576653ddc86d50a6e4d0122949ce4f03ce67b12fb750e4fa8bed8f88ff5f4f3825260406000206040517f7667180800000000000000000000000000000000000000000000000000000000815273ffffffffffffffffffffffffffffffffffffffff908481600481857f0000000000000000000000000000000000000000000000000000000000000000165afa90811561092b57600091611472575b507fec986952a0671e4b2e5ec4461085fb880bc7a7b88668240f8d55173039155d20547f8953f5482bc1a621075e75537625fa3bd2025e7df7baf6ba1dbfbf2212912d0c5461137381611326613878565b937fc576653ddc86d50a6e4d0122949ce4f03ce67b12fb750e4fa8bed8f88ff5f4f1547fc576653ddc86d50a6e4d0122949ce4f03ce67b12fb750e4fa8bed8f88ff5f4f2549087876132c9565b60a0820151906113a6611387875486612d53565b916113a1600189019361139b855487612d53565b90612d53565b61312a565b95861561142e57956040956113f98683968c96611423968d9a7f9b5336625f529f36cb0543297bdf5075b7f6b830bb892ff97c09fbfeae6255d59d5555608081016113f2868251612d53565b905261370d565b7f8953f5482bc1a621075e75537625fa3bd2025e7df7baf6ba1dbfbf2212912d07541633906137df565b8351928352820152a1005b6064896040519062461bcd60e51b82526004820152600a60248201527f4e6f2072657761726473000000000000000000000000000000000000000000006044820152fd5b90508481813d8311611498575b6114898183612d98565b810103126102ff5751856112d5565b503d61147f565b346102ff5760206003193601126102ff5760043560038110156102ff5761032d906114c8614120565b612f04565b346102ff5760206003193601126102ff576114e6613846565b506004356000527fec986952a0671e4b2e5ec4461085fb880bc7a7b88668240f8d55173039155d2260205260c0604060002060056040519161152783612d7c565b80548352600181015460208401526002810154604084015273ffffffffffffffffffffffffffffffffffffffff600382015416606084015260048101546080840152015460a0820152610fd6604051809260a0809180518452602081015160208501526040810151604085015273ffffffffffffffffffffffffffffffffffffffff6060820151166060850152608081015160808501520151910152565b346102ff5760006003193601126102ff576115de614120565b600073ffffffffffffffffffffffffffffffffffffffff7f612e56b0fc389e6dab6fa70e140af078f831069f9c4d9558e645bdefbbc811238054907fffffffffffffffffffffffff000000000000000000000000000000000000000082169055167f8be0079c531659141344cd1fd0a4f28419497f9722a3daafe3b4186f6b6457e08280a3005b346102ff5760006003193601126102ff5760207f8953f5482bc1a621075e75537625fa3bd2025e7df7baf6ba1dbfbf2212912d0c54604051908152f35b346102ff5760006003193601126102ff5760206116bd612fcd565b60405190610ecb81612d1a565b346102ff5760006003193601126102ff577fec986952a0671e4b2e5ec4461085fb880bc7a7b88668240f8d55173039155d20547fffffffffffffffffffffffffffffffffffffffffffffffffffffffffffffffe061172a6110ed83612dd9565b0160005b8181106118cd578260007fec986952a0671e4b2e5ec4461085fb880bc7a7b88668240f8d55173039155d235490815b6117f45760408051602080825285518183018190528187019383019160005b8281106117895784840385f35b9091928260c0826117e56001948a5160a0809180518452602081015160208501526040810151604085015273ffffffffffffffffffffffffffffffffffffffff6060820151166060850152608081015160808501520151910152565b0196019101949291909461177c565b816000527fec986952a0671e4b2e5ec4461085fb880bc7a7b88668240f8d55173039155d2660207fec986952a0671e4b2e5ec4461085fb880bc7a7b88668240f8d55173039155d2281526118ba60406000209360405161185381612d7c565b85548152600560019687810154868401526002810154604084015273ffffffffffffffffffffffffffffffffffffffff600382015416606084015260048101546080840152015460a08201526118a98289612e1e565b526118b48188612e1e565b50612df1565b936000525260406000200154908161175d565b6020906118d8613846565b8282860101520161172e565b346102ff57600319360161018081126102ff576040136102ff5760443573ffffffffffffffffffffffffffffffffffffffff811681036102ff5767ffffffffffffffff8061010435116102ff57366023610104350112156102ff57806101043560040135116102ff57366024610104356004013560061b610104350101116102ff5760036101243510156102ff578061014435116102ff57366023610144350112156102ff576101443560040135116102ff57366024610144356004013560051b610144350101116102ff5773ffffffffffffffffffffffffffffffffffffffff610164351661016435036102ff576000549060ff8260081c161591828093611eb5575b8015611e9e575b15611e34578260017fffffffffffffffffffffffffffffffffffffffffffffffffffffffffffffff00831617600055611e05575b50611a3e60ff60005460081c16611a3981612f5c565b612f5c565b611a4a6101643561405d565b611a5b60ff60005460081c16612f5c565b437f8953f5482bc1a621075e75537625fa3bd2025e7df7baf6ba1dbfbf2212912d045573ffffffffffffffffffffffffffffffffffffffff7f8953f5482bc1a621075e75537625fa3bd2025e7df7baf6ba1dbfbf2212912d0791167fffffffffffffffffffffffff00000000000000000000000000000000000000008254161790556064357f8953f5482bc1a621075e75537625fa3bd2025e7df7baf6ba1dbfbf2212912d08556084357f8953f5482bc1a621075e75537625fa3bd2025e7df7baf6ba1dbfbf2212912d095560a4357f8953f5482bc1a621075e75537625fa3bd2025e7df7baf6ba1dbfbf2212912d0a5560c4357f8953f5482bc1a621075e75537625fa3bd2025e7df7baf6ba1dbfbf2212912d0b5560e4357f8953f5482bc1a621075e75537625fa3bd2025e7df7baf6ba1dbfbf2212912d0c5560005b61010435600401358110611c8f5750611bb461012435612f04565b60005b61014435600401358110611c295750611bce612e32565b611bd457005b7fffffffffffffffffffffffffffffffffffffffffffffffffffffffffffff00ff600054166000557f7f26b83ff96e1f2b6a682f133852f6798a09c465da95921460cefb3847402498602060405160018152a1005b60248160051b610144350101359073ffffffffffffffffffffffffffffffffffffffff821682036102ff57611c857fffffffffffffffffffffffffffffffffffffffff000000000000000000000000611c8a9360601b16613de3565b612df1565b611bb7565b7f8953f5482bc1a621075e75537625fa3bd2025e7df7baf6ba1dbfbf2212912d0d54680100000000000000008110156108895760018101807f8953f5482bc1a621075e75537625fa3bd2025e7df7baf6ba1dbfbf2212912d0d55811015611dd6577f8953f5482bc1a621075e75537625fa3bd2025e7df7baf6ba1dbfbf2212912d0d60005260011b90817fcfcab6f3bf9ee9c2484fd18eeb2a9bd794cfdeb4ec98cce66c941e6633f8e09501918160061b61010435019260248401357fffffffff00000000000000000000000000000000000000000000000000000000811681036102ff57611dd1947fcfcab6f3bf9ee9c2484fd18eeb2a9bd794cfdeb4ec98cce66c941e6633f8e0969260449260e01c7fffffffffffffffffffffffffffffffffffffffffffffffffffffffff000000008254161790550135910155612df1565b611b99565b7f4e487b7100000000000000000000000000000000000000000000000000000000600052603260045260246000fd5b7fffffffffffffffffffffffffffffffffffffffffffffffffffffffffffff0000166101011760005582611a23565b608460405162461bcd60e51b815260206004820152602e60248201527f496e697469616c697a61626c653a20636f6e747261637420697320616c72656160448201527f647920696e697469616c697a65640000000000000000000000000000000000006064820152fd5b50303b1580156119ef5750600160ff8216146119ef565b50600160ff8216106119e8565b346102ff5760006003193601126102ff5760207fc576653ddc86d50a6e4d0122949ce4f03ce67b12fb750e4fa8bed8f88ff5f4f154604051908152f35b346102ff5760206003193601126102ff576040517f7667180800000000000000000000000000000000000000000000000000000000815260208160048173ffffffffffffffffffffffffffffffffffffffff7f0000000000000000000000000000000000000000000000000000000000000000165afa90811561092b576000916120ed575b507fc576653ddc86d50a6e4d0122949ce4f03ce67b12fb750e4fa8bed8f88ff5f4f45460ff16156120e457611fdd7fc576653ddc86d50a6e4d0122949ce4f03ce67b12fb750e4fa8bed8f88ff5f4f5545b600435613941565b907f8953f5482bc1a621075e75537625fa3bd2025e7df7baf6ba1dbfbf2212912d0c547fc576653ddc86d50a6e4d0122949ce4f03ce67b12fb750e4fa8bed8f88ff5f4f19283549361202d613878565b927fc576653ddc86d50a6e4d0122949ce4f03ce67b12fb750e4fa8bed8f88ff5f4f2549260018101938482116107af5787612071848997889461032d9c868c6132c9565b7f8953f5482bc1a621075e75537625fa3bd2025e7df7baf6ba1dbfbf2212912d09548310918291826120da575b5050156120ae575050505561370d565b9091929350156120c1575b50505061370d565b6120d0916060850151866136c1565b90558380806120b9565b119050858a61209e565b611fdd81611fd5565b90506020813d8211612116575b8161210760209383612d98565b810103126102ff575181611f84565b3d91506120fa565b346102ff5760006003193601126102ff57602073ffffffffffffffffffffffffffffffffffffffff7f8953f5482bc1a621075e75537625fa3bd2025e7df7baf6ba1dbfbf2212912d075416604051908152f35b346102ff576020806003193601126102ff576004359061218f614120565b604051917f7667180800000000000000000000000000000000000000000000000000000000835273ffffffffffffffffffffffffffffffffffffffff928281600481877f0000000000000000000000000000000000000000000000000000000000000000165afa90811561092b57600091612505575b507fec986952a0671e4b2e5ec4461085fb880bc7a7b88668240f8d55173039155d20547f8953f5482bc1a621075e75537625fa3bd2025e7df7baf6ba1dbfbf2212912d0c547fc576653ddc86d50a6e4d0122949ce4f03ce67b12fb750e4fa8bed8f88ff5f4f45460ff16156123925750507fc576653ddc86d50a6e4d0122949ce4f03ce67b12fb750e4fa8bed8f88ff5f4f55490600282018092116107af57111561232857610e4e817f430648de173157e069201c943adb2d4e340e7cf5b27b1b09c9cb852f03d63b56947fc576653ddc86d50a6e4d0122949ce4f03ce67b12fb750e4fa8bed8f88ff5f4ee6122fc838254612d53565b90557f8953f5482bc1a621075e75537625fa3bd2025e7df7baf6ba1dbfbf2212912d07541633906137df565b6084826040519062461bcd60e51b82526004820152602d60248201527f43616e2774207769746864726177206265666f726520322065706f636873206160448201527f66746572206465616c20656e64000000000000000000000000000000000000006064820152fd5b61239a613878565b917fc576653ddc86d50a6e4d0122949ce4f03ce67b12fb750e4fa8bed8f88ff5f4f1916123ee818385547fc576653ddc86d50a6e4d0122949ce4f03ce67b12fb750e4fa8bed8f88ff5f4f2549089896132c9565b606084016123fd878251612d53565b81527f7fffffffffffffffffffffffffffffffffffffffffffffffffffffffffffffff821682036107af576124567f8953f5482bc1a621075e75537625fa3bd2025e7df7baf6ba1dbfbf2212912d0a548360011b61312a565b81511061249b57937f430648de173157e069201c943adb2d4e340e7cf5b27b1b09c9cb852f03d63b569893610e1b61249694610e4e98948a9851866136c1565b6113f9565b6084886040519062461bcd60e51b82526004820152602c60248201527f467265652062616c616e6365206e6565647320746f20636f766572206d696e6960448201527f6d756d20322065706f63687300000000000000000000000000000000000000006064820152fd5b90508281813d831161252b575b61251c8183612d98565b810103126102ff575184612205565b503d612512565b346102ff5760006003193601126102ff5760207f8953f5482bc1a621075e75537625fa3bd2025e7df7baf6ba1dbfbf2212912d0954604051908152f35b346102ff5760206003193601126102ff576004356000527fec986952a0671e4b2e5ec4461085fb880bc7a7b88668240f8d55173039155d276020526020604060002054604051908152f35b346102ff5760006003193601126102ff5760207f8953f5482bc1a621075e75537625fa3bd2025e7df7baf6ba1dbfbf2212912d0a54604051908152f35b346102ff576020806003193601126102ff576004356000527fc576653ddc86d50a6e4d0122949ce4f03ce67b12fb750e4fa8bed8f88ff5f4f381526040600020604051907f76671808000000000000000000000000000000000000000000000000000000008252828260048173ffffffffffffffffffffffffffffffffffffffff7f0000000000000000000000000000000000000000000000000000000000000000165afa91821561092b57600092612771575b50906113a161098f9261139b7fec986952a0671e4b2e5ec4461085fb880bc7a7b88668240f8d55173039155d205491600160a06127657f8953f5482bc1a621075e75537625fa3bd2025e7df7baf6ba1dbfbf2212912d0c549761275d89612710613878565b987fc576653ddc86d50a6e4d0122949ce4f03ce67b12fb750e4fa8bed8f88ff5f4f1547fc576653ddc86d50a6e4d0122949ce4f03ce67b12fb750e4fa8bed8f88ff5f4f25490858c6132c9565b845490612d53565b94015191015490612d53565b91508282813d831161279b575b6127888183612d98565b810103126102ff579051906113a16126ab565b503d61277e565b346102ff5760406003193601126102ff576127bb614120565b61032d612e32565b346102ff5760006003193601126102ff5760207f8953f5482bc1a621075e75537625fa3bd2025e7df7baf6ba1dbfbf2212912d0454604051908152f35b346102ff576020806003193601126102ff577fffffffffffffffffffffffffffffffffffffffff00000000000000000000000061283b612cf7565b612843614120565b60601b1690816000527f8953f5482bc1a621075e75537625fa3bd2025e7df7baf6ba1dbfbf2212912d1291828252604060002060016040519161288583612d60565b80548352015483820190815261289b8383613ce3565b156129835781518015908161295a575b8251918215612932575b1561291c575b5050519081612907575b505060005252600060016040822082815501557f8953f5482bc1a621075e75537625fa3bd2025e7df7baf6ba1dbfbf2212912d116129038154613916565b9055005b519060005283835260406000205583806128c5565b60005285855260016040600020015585806128bb565b817f8953f5482bc1a621075e75537625fa3bd2025e7df7baf6ba1dbfbf2212912d10556128b5565b82517f8953f5482bc1a621075e75537625fa3bd2025e7df7baf6ba1dbfbf2212912d0f556128ab565b6064846040519062461bcd60e51b82526004820152601260248201527f4b657920646f6573206e6f7420657869737400000000000000000000000000006044820152fd5b346102ff5760006003193601126102ff5760207fec986952a0671e4b2e5ec4461085fb880bc7a7b88668240f8d55173039155d2054604051908152f35b346102ff5760006003193601126102ff57612a1d614120565b612a25613878565b6040517f7667180800000000000000000000000000000000000000000000000000000000815260208160048173ffffffffffffffffffffffffffffffffffffffff7f0000000000000000000000000000000000000000000000000000000000000000165afa90811561092b57600091612bba575b508091817fc576653ddc86d50a6e4d0122949ce4f03ce67b12fb750e4fa8bed8f88ff5f4f191612b3d82845492612b387fc576653ddc86d50a6e4d0122949ce4f03ce67b12fb750e4fa8bed8f88ff5f4f2547fec986952a0671e4b2e5ec4461085fb880bc7a7b88668240f8d55173039155d20547f8953f5482bc1a621075e75537625fa3bd2025e7df7baf6ba1dbfbf2212912d0c54918786866132c9565b61370d565b11612bb2575b507fc576653ddc86d50a6e4d0122949ce4f03ce67b12fb750e4fa8bed8f88ff5f4f480547fffffffffffffffffffffffffffffffffffffffffffffffffffffffffffffff001660011790557fc576653ddc86d50a6e4d0122949ce4f03ce67b12fb750e4fa8bed8f88ff5f4f555005b558082612b43565b90506020813d8211612be3575b81612bd460209383612d98565b810103126102ff575182612a99565b3d9150612bc7565b346102ff5760206003193601126102ff57602080917fffffffffffffffffffffffffffffffffffffffff000000000000000000000000612c29612cf7565b60601b1690816000527f8953f5482bc1a621075e75537625fa3bd2025e7df7baf6ba1dbfbf2212912d128352604060002090612c6481612d60565b6001825492838352015493849101521591821592612ced575b508115612cc2575b8115612c97575b506040519015158152f35b90507f8953f5482bc1a621075e75537625fa3bd2025e7df7baf6ba1dbfbf2212912d10541482612c8c565b7f8953f5482bc1a621075e75537625fa3bd2025e7df7baf6ba1dbfbf2212912d0f5481149150612c85565b1515915083612c7d565b6004359073ffffffffffffffffffffffffffffffffffffffff821682036102ff57565b60031115612d2457565b7f4e487b7100000000000000000000000000000000000000000000000000000000600052602160045260246000fd5b919082039182116107af57565b6040810190811067ffffffffffffffff82111761088957604052565b60c0810190811067ffffffffffffffff82111761088957604052565b90601f7fffffffffffffffffffffffffffffffffffffffffffffffffffffffffffffffe0910116810190811067ffffffffffffffff82111761088957604052565b67ffffffffffffffff81116108895760051b60200190565b7fffffffffffffffffffffffffffffffffffffffffffffffffffffffffffffffff81146107af5760010190565b8051821015611dd65760209160051b010190565b6004357fffffffff000000000000000000000000000000000000000000000000000000008116908181036102ff577fc820a66d3bdd50a45cf12cda6dc8ec9e94fb5123edd7da736eea18316f8523a0916040917f8953f5482bc1a621075e75537625fa3bd2025e7df7baf6ba1dbfbf2212912d059060e01c7fffffffffffffffffffffffffffffffffffffffffffffffffffffffff00000000825416179055602435807f8953f5482bc1a621075e75537625fa3bd2025e7df7baf6ba1dbfbf2212912d065582519182526020820152a1565b612f0d81612d1a565b7f8953f5482bc1a621075e75537625fa3bd2025e7df7baf6ba1dbfbf2212912d0e9060ff7fffffffffffffffffffffffffffffffffffffffffffffffffffffffffffffff008354169116179055565b15612f6357565b608460405162461bcd60e51b815260206004820152602b60248201527f496e697469616c697a61626c653a20636f6e7472616374206973206e6f74206960448201527f6e697469616c697a696e670000000000000000000000000000000000000000006064820152fd5b60ff7fc576653ddc86d50a6e4d0122949ce4f03ce67b12fb750e4fa8bed8f88ff5f4f45416613125576040517f7667180800000000000000000000000000000000000000000000000000000000815260208160048173ffffffffffffffffffffffffffffffffffffffff7f0000000000000000000000000000000000000000000000000000000000000000165afa90811561092b576000916130f1575b507fc576653ddc86d50a6e4d0122949ce4f03ce67b12fb750e4fa8bed8f88ff5f4f154907fec986952a0671e4b2e5ec4461085fb880bc7a7b88668240f8d55173039155d20547f8953f5482bc1a621075e75537625fa3bd2025e7df7baf6ba1dbfbf2212912d0954116000146130e1575050600090565b11156130ec57600090565b600190565b906020823d821161311d575b8161310a60209383612d98565b8101031261311a5750513861306a565b80fd5b3d91506130fd565b600290565b818102929181159184041417156107af57565b6040517f7667180800000000000000000000000000000000000000000000000000000000815260208160048173ffffffffffffffffffffffffffffffffffffffff7f0000000000000000000000000000000000000000000000000000000000000000165afa90811561092b5760009161328b575b507fc576653ddc86d50a6e4d0122949ce4f03ce67b12fb750e4fa8bed8f88ff5f4f1548111613285576132829061139b61325a6132327fc576653ddc86d50a6e4d0122949ce4f03ce67b12fb750e4fa8bed8f88ff5f4ee54937fc576653ddc86d50a6e4d0122949ce4f03ce67b12fb750e4fa8bed8f88ff5f4f25490612d53565b7f8953f5482bc1a621075e75537625fa3bd2025e7df7baf6ba1dbfbf2212912d0c549061312a565b7fec986952a0671e4b2e5ec4461085fb880bc7a7b88668240f8d55173039155d20549061312a565b90565b50600090565b906020823d82116132b4575b816132a460209383612d98565b8101031261311a575051386131b1565b3d9150613297565b919082018092116107af57565b91939092948484118080916133b2575b156133325750916132fb60a0926113a1613327956113a1899a61332d9a612d53565b6060820161330a828251612d53565b905261331b608083019182516132bc565b90520193845192612d53565b906132bc565b90525b565b8091939695816133a7575b501561335a5750505061332760a061332d93940193845192612d53565b9291921561336a575b5050505050565b6113a16080936113a161339b9661338095612d53565b9260608101613390858251612d53565b9052019182516132bc565b90523880808080613363565b90508510153861333d565b508686116132d9565b9290604051927f23b872dd00000000000000000000000000000000000000000000000000000000602085015273ffffffffffffffffffffffffffffffffffffffff809216602485015216604483015260648201526064815260a081019181831067ffffffffffffffff84111761088957613330926040525b73ffffffffffffffffffffffffffffffffffffffff169060405161345681612d60565b6020928382527f5361666545524332303a206c6f772d6c6576656c2063616c6c206661696c6564848301526000808486829651910182855af13d156135c9573d9167ffffffffffffffff831161359c57906134ef939291604051926134e2887fffffffffffffffffffffffffffffffffffffffffffffffffffffffffffffffe0601f8401160185612d98565b83523d868885013e6135d3565b805191821591848315613574575b50505090501561350a5750565b6084906040519062461bcd60e51b82526004820152602a60248201527f5361666545524332303a204552433230206f7065726174696f6e20646964206e60448201527f6f742073756363656564000000000000000000000000000000000000000000006064820152fd5b9193818094500103126135985782015190811515820361311a5750803880846134fd565b5080fd5b6024857f4e487b710000000000000000000000000000000000000000000000000000000081526041600452fd5b906134ef92916060915b9192901561363457508151156135e7575090565b3b156135f05790565b606460405162461bcd60e51b815260206004820152601d60248201527f416464726573733a2063616c6c20746f206e6f6e2d636f6e74726163740000006044820152fd5b8251909150156136475750805190602001fd5b6040519062461bcd60e51b825281602080600483015282519283602484015260005b8481106136aa575050507fffffffffffffffffffffffffffffffffffffffffffffffffffffffffffffffe0601f836000604480968601015201168101030190fd5b818101830151868201604401528593508201613669565b91926136cd919361312a565b80156136de576132829204906132bc565b7f4e487b7100000000000000000000000000000000000000000000000000000000600052601260045260246000fd5b805160608201518091036137b7575b506020810151608082015180910361378f575b5060a06040820151910151809103613767575b507fc576653ddc86d50a6e4d0122949ce4f03ce67b12fb750e4fa8bed8f88ff5f4f255565b7fc576653ddc86d50a6e4d0122949ce4f03ce67b12fb750e4fa8bed8f88ff5f4f05538613742565b7fc576653ddc86d50a6e4d0122949ce4f03ce67b12fb750e4fa8bed8f88ff5f4ef553861372f565b7fc576653ddc86d50a6e4d0122949ce4f03ce67b12fb750e4fa8bed8f88ff5f4ee553861371c565b6040517fa9059cbb00000000000000000000000000000000000000000000000000000000602082015273ffffffffffffffffffffffffffffffffffffffff92909216602483015260448083019390935291815261333091613841606483612d98565b613433565b6040519061385382612d7c565b8160a06000918281528260208201528260408201528260608201528260808201520152565b613880613846565b507fc576653ddc86d50a6e4d0122949ce4f03ce67b12fb750e4fa8bed8f88ff5f4ee547fc576653ddc86d50a6e4d0122949ce4f03ce67b12fb750e4fa8bed8f88ff5f4ef547fc576653ddc86d50a6e4d0122949ce4f03ce67b12fb750e4fa8bed8f88ff5f4f05490604051926138f584612d7c565b8084528160208501528260408501526060840152608083015260a082015290565b80156107af577fffffffffffffffffffffffffffffffffffffffffffffffffffffffffffffffff0190565b91906000928084526020907fec986952a0671e4b2e5ec4461085fb880bc7a7b88668240f8d55173039155d22825273ffffffffffffffffffffffffffffffffffffffff92604090846003838920015416948515613ca057338614908115613c73575b5015613c0a57613a0a7fec986952a0671e4b2e5ec4461085fb880bc7a7b88668240f8d55173039155d209586549089527fec986952a0671e4b2e5ec4461085fb880bc7a7b88668240f8d55173039155d218652838920613a038154613916565b9055613916565b80955560028101809111613bdd578287527fec986952a0671e4b2e5ec4461085fb880bc7a7b88668240f8d55173039155d278452818720557fec986952a0671e4b2e5ec4461085fb880bc7a7b88668240f8d55173039155d2695868452818120966001835198613a798a612d60565b80548a52015497858101988952613a908582613d63565b15613b9a577f319861d91651b1d776940afecf33ec848245a2b1fb1854613bbe2a367b54f792969798815180159081613b71575b8251918215613b49575b15613b36575b5050519081613b24575b50508382528452600182822082815501557fec986952a0671e4b2e5ec4461085fb880bc7a7b88668240f8d55173039155d25613b1a8154613916565b905551908152a190565b51908352818652838320553880613ade565b8552838852600186862001553880613ad4565b817fec986952a0671e4b2e5ec4461085fb880bc7a7b88668240f8d55173039155d2455613ace565b82517fec986952a0671e4b2e5ec4461085fb880bc7a7b88668240f8d55173039155d2355613ac4565b60648685519062461bcd60e51b82526004820152601260248201527f4b657920646f6573206e6f7420657869737400000000000000000000000000006044820152fd5b6024877f4e487b710000000000000000000000000000000000000000000000000000000081526011600452fd5b60848483519062461bcd60e51b82526004820152602d60248201527f4f6e6c792070726f7669646572206f72206465616c206f776e65722063616e2060448201527f72656d6f766520776f726b6572000000000000000000000000000000000000006064820152fd5b90507f612e56b0fc389e6dab6fa70e140af078f831069f9c4d9558e645bdefbbc8112354163314386139a3565b60648584519062461bcd60e51b82526004820152601560248201527f436f6d70757465556e6974206e6f7420666f756e6400000000000000000000006044820152fd5b9081511591821592613d55575b508115613d2a575b8115613d02575090565b90507f8953f5482bc1a621075e75537625fa3bd2025e7df7baf6ba1dbfbf2212912d10541490565b7f8953f5482bc1a621075e75537625fa3bd2025e7df7baf6ba1dbfbf2212912d0f5481149150613cf8565b602001511515915038613cf0565b9081511591821592613dd5575b508115613daa575b8115613d82575090565b90507fec986952a0671e4b2e5ec4461085fb880bc7a7b88668240f8d55173039155d24541490565b7fec986952a0671e4b2e5ec4461085fb880bc7a7b88668240f8d55173039155d235481149150613d78565b602001511515915038613d70565b8015613f205760008181527f8953f5482bc1a621075e75537625fa3bd2025e7df7baf6ba1dbfbf2212912d129081602052613e3b8360408320600160405191613e2b83612d60565b8054835201546020820152613ce3565b613edc577f8953f5482bc1a621075e75537625fa3bd2025e7df7baf6ba1dbfbf2212912d10918254907f8953f5482bc1a621075e75537625fa3bd2025e7df7baf6ba1dbfbf2212912d11613e8f8154612df1565b9055848215613eb4579060409392916001955585835260205280838320558152200155565b7f8953f5482bc1a621075e75537625fa3bd2025e7df7baf6ba1dbfbf2212912d0f5550505055565b606460405162461bcd60e51b815260206004820152601260248201527f4b657920616c72656164792065786973747300000000000000000000000000006044820152fd5b606460405162461bcd60e51b815260206004820152601260248201527f4b65792063616e6e6f74206265205a45524f00000000000000000000000000006044820152fd5b8015613f205760008181527fec986952a0671e4b2e5ec4461085fb880bc7a7b88668240f8d55173039155d269081602052613fbc8360408320600160405191613fac83612d60565b8054835201546020820152613d63565b613edc577fec986952a0671e4b2e5ec4461085fb880bc7a7b88668240f8d55173039155d24918254907fec986952a0671e4b2e5ec4461085fb880bc7a7b88668240f8d55173039155d256140108154612df1565b9055848215614035579060409392916001955585835260205280838320558152200155565b7fec986952a0671e4b2e5ec4461085fb880bc7a7b88668240f8d55173039155d235550505055565b73ffffffffffffffffffffffffffffffffffffffff8091169081156140ef577f612e56b0fc389e6dab6fa70e140af078f831069f9c4d9558e645bdefbbc81123805490837fffffffffffffffffffffffff00000000000000000000000000000000000000008316179055167f8be0079c531659141344cd1fd0a4f28419497f9722a3daafe3b4186f6b6457e0600080a3565b60246040517f1e4fbdf700000000000000000000000000000000000000000000000000000000815260006004820152fd5b73ffffffffffffffffffffffffffffffffffffffff7f612e56b0fc389e6dab6fa70e140af078f831069f9c4d9558e645bdefbbc811235416330361416057565b60246040517f118cdaa7000000000000000000000000000000000000000000000000000000008152336004820152fdfea2646970667358221220a314e767c6ba4fcdec33a5dabaa71f02e8763f122afb394b663a9316686247c264736f6c63430008130033",
  "devdoc": {
    "errors": {
      "OwnableInvalidOwner(address)": [
        {
          "details": "The owner is not a valid owner account. (eg. `address(0)`)"
        }
      ],
      "OwnableUnauthorizedAccount(address)": [
        {
          "details": "The caller account is not authorized to perform an operation."
        }
      ]
    },
    "events": {
      "Initialized(uint8)": {
        "details": "Triggered when the contract has been initialized or reinitialized."
      }
    },
    "kind": "dev",
    "methods": {
      "owner()": {
        "details": "Returns the address of the current owner."
      },
      "renounceOwnership()": {
        "details": "Leaves the contract without owner. It will not be possible to call `onlyOwner` functions. Can only be called by the current owner. NOTE: Renouncing ownership will leave the contract without an owner, thereby disabling any functionality that is only available to the owner."
      },
      "transferOwnership(address)": {
        "details": "Transfers ownership of the contract to a new account (`newOwner`). Can only be called by the current owner."
      }
    },
    "version": 1
  },
  "userdoc": {
    "kind": "user",
    "methods": {},
    "version": 1
  },
  "storageLayout": {
    "storage": [
      {
        "astId": 371,
        "contract": "contracts/deal/Deal.sol:Deal",
        "label": "_initialized",
        "offset": 0,
        "slot": "0",
        "type": "t_uint8"
      },
      {
        "astId": 374,
        "contract": "contracts/deal/Deal.sol:Deal",
        "label": "_initializing",
        "offset": 1,
        "slot": "0",
        "type": "t_bool"
      },
      {
        "astId": 9328,
        "contract": "contracts/deal/Deal.sol:Deal",
        "label": "_storage",
        "offset": 0,
        "slot": "1",
        "type": "t_struct(OwnableStorage)9325_storage"
      },
      {
        "astId": 3476,
        "contract": "contracts/deal/Deal.sol:Deal",
        "label": "_storage",
        "offset": 0,
        "slot": "2",
        "type": "t_struct(ConfigStorage)3473_storage"
      },
      {
        "astId": 5377,
        "contract": "contracts/deal/Deal.sol:Deal",
        "label": "_storage",
        "offset": 0,
        "slot": "17",
        "type": "t_struct(WorkerManagerStorage)5374_storage"
      },
      {
        "astId": 4043,
        "contract": "contracts/deal/Deal.sol:Deal",
        "label": "_storage",
        "offset": 0,
        "slot": "25",
        "type": "t_struct(DealStorage)4040_storage"
      }
    ],
    "types": {
      "t_address": {
        "encoding": "inplace",
        "label": "address",
        "numberOfBytes": "20"
      },
      "t_array(t_struct(CIDV1)5857_storage)dyn_storage": {
        "base": "t_struct(CIDV1)5857_storage",
        "encoding": "dynamic_array",
        "label": "struct CIDV1[]",
        "numberOfBytes": "32"
      },
      "t_bool": {
        "encoding": "inplace",
        "label": "bool",
        "numberOfBytes": "1"
      },
      "t_bytes32": {
        "encoding": "inplace",
        "label": "bytes32",
        "numberOfBytes": "32"
      },
      "t_bytes4": {
        "encoding": "inplace",
        "label": "bytes4",
        "numberOfBytes": "4"
      },
      "t_contract(IERC20)2321": {
        "encoding": "inplace",
        "label": "contract IERC20",
        "numberOfBytes": "20"
      },
      "t_enum(AccessType)5865": {
        "encoding": "inplace",
        "label": "enum IConfig.AccessType",
        "numberOfBytes": "1"
      },
      "t_mapping(t_address,t_struct(ComputeProviderInfo)5341_storage)": {
        "encoding": "mapping",
        "key": "t_address",
        "label": "mapping(address => struct WorkerManager.ComputeProviderInfo)",
        "numberOfBytes": "32",
        "value": "t_struct(ComputeProviderInfo)5341_storage"
      },
      "t_mapping(t_bytes32,t_struct(ComputeUnit)6075_storage)": {
        "encoding": "mapping",
        "key": "t_bytes32",
        "label": "mapping(bytes32 => struct IWorkerManager.ComputeUnit)",
        "numberOfBytes": "32",
        "value": "t_struct(ComputeUnit)6075_storage"
      },
      "t_mapping(t_bytes32,t_struct(ComputeUnitPaymentInfo)4007_storage)": {
        "encoding": "mapping",
        "key": "t_bytes32",
        "label": "mapping(bytes32 => struct Deal.ComputeUnitPaymentInfo)",
        "numberOfBytes": "32",
        "value": "t_struct(ComputeUnitPaymentInfo)4007_storage"
      },
      "t_mapping(t_bytes32,t_struct(Element)8913_storage)": {
        "encoding": "mapping",
        "key": "t_bytes32",
        "label": "mapping(bytes32 => struct LinkedListWithUniqueKeys.Element)",
        "numberOfBytes": "32",
        "value": "t_struct(Element)8913_storage"
      },
      "t_mapping(t_bytes32,t_uint256)": {
        "encoding": "mapping",
        "key": "t_bytes32",
        "label": "mapping(bytes32 => uint256)",
        "numberOfBytes": "32",
        "value": "t_uint256"
      },
      "t_struct(Bytes32List)8925_storage": {
        "encoding": "inplace",
        "label": "struct LinkedListWithUniqueKeys.Bytes32List",
        "members": [
          {
            "astId": 8915,
            "contract": "contracts/deal/Deal.sol:Deal",
            "label": "_first",
            "offset": 0,
            "slot": "0",
            "type": "t_bytes32"
          },
          {
            "astId": 8917,
            "contract": "contracts/deal/Deal.sol:Deal",
            "label": "_last",
            "offset": 0,
            "slot": "1",
            "type": "t_bytes32"
          },
          {
            "astId": 8919,
            "contract": "contracts/deal/Deal.sol:Deal",
            "label": "_length",
            "offset": 0,
            "slot": "2",
            "type": "t_uint256"
          },
          {
            "astId": 8924,
            "contract": "contracts/deal/Deal.sol:Deal",
            "label": "_elements",
            "offset": 0,
            "slot": "3",
            "type": "t_mapping(t_bytes32,t_struct(Element)8913_storage)"
          }
        ],
        "numberOfBytes": "128"
      },
      "t_struct(CIDV1)5857_storage": {
        "encoding": "inplace",
        "label": "struct CIDV1",
        "members": [
          {
            "astId": 5854,
            "contract": "contracts/deal/Deal.sol:Deal",
            "label": "prefixes",
            "offset": 0,
            "slot": "0",
            "type": "t_bytes4"
          },
          {
            "astId": 5856,
            "contract": "contracts/deal/Deal.sol:Deal",
            "label": "hash",
            "offset": 0,
            "slot": "1",
            "type": "t_bytes32"
          }
        ],
        "numberOfBytes": "64"
      },
      "t_struct(ComputeProviderInfo)5341_storage": {
        "encoding": "inplace",
        "label": "struct WorkerManager.ComputeProviderInfo",
        "members": [
          {
            "astId": 5337,
            "contract": "contracts/deal/Deal.sol:Deal",
            "label": "computeUnitCount",
            "offset": 0,
            "slot": "0",
            "type": "t_uint256"
          },
          {
            "astId": 5340,
            "contract": "contracts/deal/Deal.sol:Deal",
            "label": "computeUnitsIds",
            "offset": 0,
            "slot": "1",
            "type": "t_struct(Bytes32List)8925_storage"
          }
        ],
        "numberOfBytes": "160"
      },
      "t_struct(ComputeUnit)6075_storage": {
        "encoding": "inplace",
        "label": "struct IWorkerManager.ComputeUnit",
        "members": [
          {
            "astId": 6064,
            "contract": "contracts/deal/Deal.sol:Deal",
            "label": "id",
            "offset": 0,
            "slot": "0",
            "type": "t_bytes32"
          },
          {
            "astId": 6066,
            "contract": "contracts/deal/Deal.sol:Deal",
            "label": "peerId",
            "offset": 0,
            "slot": "1",
            "type": "t_bytes32"
          },
          {
            "astId": 6068,
            "contract": "contracts/deal/Deal.sol:Deal",
            "label": "workerId",
            "offset": 0,
            "slot": "2",
            "type": "t_bytes32"
          },
          {
            "astId": 6070,
            "contract": "contracts/deal/Deal.sol:Deal",
            "label": "owner",
            "offset": 0,
            "slot": "3",
            "type": "t_address"
          },
          {
            "astId": 6072,
            "contract": "contracts/deal/Deal.sol:Deal",
            "label": "collateral",
            "offset": 0,
            "slot": "4",
            "type": "t_uint256"
          },
          {
            "astId": 6074,
            "contract": "contracts/deal/Deal.sol:Deal",
            "label": "created",
            "offset": 0,
            "slot": "5",
            "type": "t_uint256"
          }
        ],
        "numberOfBytes": "192"
      },
      "t_struct(ComputeUnitPaymentInfo)4007_storage": {
        "encoding": "inplace",
        "label": "struct Deal.ComputeUnitPaymentInfo",
        "members": [
          {
            "astId": 4004,
            "contract": "contracts/deal/Deal.sol:Deal",
            "label": "startedEpoch",
            "offset": 0,
            "slot": "0",
            "type": "t_uint256"
          },
          {
            "astId": 4006,
            "contract": "contracts/deal/Deal.sol:Deal",
            "label": "gapsDelta",
            "offset": 0,
            "slot": "1",
            "type": "t_uint256"
          }
        ],
        "numberOfBytes": "64"
      },
      "t_struct(ConfigStorage)3473_storage": {
        "encoding": "inplace",
        "label": "struct Config.ConfigStorage",
        "members": [
          {
            "astId": 3446,
            "contract": "contracts/deal/Deal.sol:Deal",
            "label": "creationBlock",
            "offset": 0,
            "slot": "0",
            "type": "t_uint256"
          },
          {
            "astId": 3449,
            "contract": "contracts/deal/Deal.sol:Deal",
            "label": "appCID",
            "offset": 0,
            "slot": "1",
            "type": "t_struct(CIDV1)5857_storage"
          },
          {
            "astId": 3452,
            "contract": "contracts/deal/Deal.sol:Deal",
            "label": "paymentToken",
            "offset": 0,
            "slot": "3",
            "type": "t_contract(IERC20)2321"
          },
          {
            "astId": 3454,
            "contract": "contracts/deal/Deal.sol:Deal",
            "label": "collateralPerWorker",
            "offset": 0,
            "slot": "4",
            "type": "t_uint256"
          },
          {
            "astId": 3456,
            "contract": "contracts/deal/Deal.sol:Deal",
            "label": "minWorkers",
            "offset": 0,
            "slot": "5",
            "type": "t_uint256"
          },
          {
            "astId": 3458,
            "contract": "contracts/deal/Deal.sol:Deal",
            "label": "targetWorkers",
            "offset": 0,
            "slot": "6",
            "type": "t_uint256"
          },
          {
            "astId": 3460,
            "contract": "contracts/deal/Deal.sol:Deal",
            "label": "maxWorkersPerProvider",
            "offset": 0,
            "slot": "7",
            "type": "t_uint256"
          },
          {
            "astId": 3462,
            "contract": "contracts/deal/Deal.sol:Deal",
            "label": "pricePerWorkerEpoch",
            "offset": 0,
            "slot": "8",
            "type": "t_uint256"
          },
          {
            "astId": 3466,
            "contract": "contracts/deal/Deal.sol:Deal",
            "label": "effectors",
            "offset": 0,
            "slot": "9",
            "type": "t_array(t_struct(CIDV1)5857_storage)dyn_storage"
          },
          {
            "astId": 3469,
            "contract": "contracts/deal/Deal.sol:Deal",
            "label": "accessType",
            "offset": 0,
            "slot": "10",
            "type": "t_enum(AccessType)5865"
          },
          {
            "astId": 3472,
            "contract": "contracts/deal/Deal.sol:Deal",
            "label": "accessList",
            "offset": 0,
            "slot": "11",
            "type": "t_struct(Bytes32List)8925_storage"
          }
        ],
        "numberOfBytes": "480"
      },
      "t_struct(DealStorage)4040_storage": {
        "encoding": "inplace",
        "label": "struct Deal.DealStorage",
        "members": [
          {
            "astId": 4022,
            "contract": "contracts/deal/Deal.sol:Deal",
            "label": "totalBalance",
            "offset": 0,
            "slot": "0",
            "type": "t_uint256"
          },
          {
            "astId": 4024,
            "contract": "contracts/deal/Deal.sol:Deal",
            "label": "lockedBalance",
            "offset": 0,
            "slot": "1",
            "type": "t_uint256"
          },
          {
            "astId": 4026,
            "contract": "contracts/deal/Deal.sol:Deal",
            "label": "gapsEpochCount",
            "offset": 0,
            "slot": "2",
            "type": "t_uint256"
          },
          {
            "astId": 4028,
            "contract": "contracts/deal/Deal.sol:Deal",
            "label": "maxPaidEpoch",
            "offset": 0,
            "slot": "3",
            "type": "t_uint256"
          },
          {
            "astId": 4030,
            "contract": "contracts/deal/Deal.sol:Deal",
            "label": "lastCommitedEpoch",
            "offset": 0,
            "slot": "4",
            "type": "t_uint256"
          },
          {
            "astId": 4035,
            "contract": "contracts/deal/Deal.sol:Deal",
            "label": "cUnitPaymentInfo",
            "offset": 0,
            "slot": "5",
            "type": "t_mapping(t_bytes32,t_struct(ComputeUnitPaymentInfo)4007_storage)"
          },
          {
            "astId": 4037,
            "contract": "contracts/deal/Deal.sol:Deal",
            "label": "isEnded",
            "offset": 0,
            "slot": "6",
            "type": "t_bool"
          },
          {
            "astId": 4039,
            "contract": "contracts/deal/Deal.sol:Deal",
            "label": "endedEpoch",
            "offset": 0,
            "slot": "7",
            "type": "t_uint256"
          }
        ],
        "numberOfBytes": "256"
      },
      "t_struct(Element)8913_storage": {
        "encoding": "inplace",
        "label": "struct LinkedListWithUniqueKeys.Element",
        "members": [
          {
            "astId": 8910,
            "contract": "contracts/deal/Deal.sol:Deal",
            "label": "prev",
            "offset": 0,
            "slot": "0",
            "type": "t_bytes32"
          },
          {
            "astId": 8912,
            "contract": "contracts/deal/Deal.sol:Deal",
            "label": "next",
            "offset": 0,
            "slot": "1",
            "type": "t_bytes32"
          }
        ],
        "numberOfBytes": "64"
      },
      "t_struct(OwnableStorage)9325_storage": {
        "encoding": "inplace",
        "label": "struct Ownable.OwnableStorage",
        "members": [
          {
            "astId": 9324,
            "contract": "contracts/deal/Deal.sol:Deal",
            "label": "owner",
            "offset": 0,
            "slot": "0",
            "type": "t_address"
          }
        ],
        "numberOfBytes": "32"
      },
      "t_struct(WorkerManagerStorage)5374_storage": {
        "encoding": "inplace",
        "label": "struct WorkerManager.WorkerManagerStorage",
        "members": [
          {
            "astId": 5356,
            "contract": "contracts/deal/Deal.sol:Deal",
            "label": "computeUnitCount",
            "offset": 0,
            "slot": "0",
            "type": "t_uint256"
          },
          {
            "astId": 5361,
            "contract": "contracts/deal/Deal.sol:Deal",
            "label": "computeProviderInfo",
            "offset": 0,
            "slot": "1",
            "type": "t_mapping(t_address,t_struct(ComputeProviderInfo)5341_storage)"
          },
          {
            "astId": 5366,
            "contract": "contracts/deal/Deal.sol:Deal",
            "label": "computeUnitById",
            "offset": 0,
            "slot": "2",
            "type": "t_mapping(t_bytes32,t_struct(ComputeUnit)6075_storage)"
          },
          {
            "astId": 5369,
            "contract": "contracts/deal/Deal.sol:Deal",
            "label": "computeUnitsIdsList",
            "offset": 0,
            "slot": "3",
            "type": "t_struct(Bytes32List)8925_storage"
          },
          {
            "astId": 5373,
            "contract": "contracts/deal/Deal.sol:Deal",
            "label": "collateralWithdrawEpochByComputeUnitId",
            "offset": 0,
            "slot": "7",
            "type": "t_mapping(t_bytes32,t_uint256)"
          }
        ],
        "numberOfBytes": "256"
      },
      "t_uint256": {
        "encoding": "inplace",
        "label": "uint256",
        "numberOfBytes": "32"
      },
      "t_uint8": {
        "encoding": "inplace",
        "label": "uint8",
        "numberOfBytes": "1"
      }
    }
  }
}