{
  "address": "0x1511e3c4E3fA66Fd89731061FF7f62FB35AdACdF",
  "abi": [
    {
      "inputs": [
        {
          "internalType": "contract IGlobalCore",
          "name": "globalCore_",
          "type": "address"
        }
      ],
      "stateMutability": "nonpayable",
      "type": "constructor"
    },
    {
      "inputs": [
        {
          "internalType": "address",
          "name": "owner",
          "type": "address"
        }
      ],
      "name": "OwnableInvalidOwner",
      "type": "error"
    },
    {
      "inputs": [
        {
          "internalType": "address",
          "name": "account",
          "type": "address"
        }
      ],
      "name": "OwnableUnauthorizedAccount",
      "type": "error"
    },
    {
      "anonymous": false,
      "inputs": [
        {
          "components": [
            {
              "internalType": "bytes4",
              "name": "prefixes",
              "type": "bytes4"
            },
            {
              "internalType": "bytes32",
              "name": "hash",
              "type": "bytes32"
            }
          ],
          "indexed": false,
          "internalType": "struct CIDV1",
          "name": "newAppCID",
          "type": "tuple"
        }
      ],
      "name": "AppCIDChanged",
      "type": "event"
    },
    {
      "anonymous": false,
      "inputs": [
        {
          "indexed": false,
          "internalType": "address",
          "name": "owner",
          "type": "address"
        },
        {
          "indexed": false,
          "internalType": "uint256",
          "name": "amount",
          "type": "uint256"
        }
      ],
      "name": "CollateralWithdrawn",
      "type": "event"
    },
    {
      "anonymous": false,
      "inputs": [
        {
          "indexed": false,
          "internalType": "bytes32",
          "name": "id",
          "type": "bytes32"
        },
        {
          "indexed": false,
          "internalType": "address",
          "name": "owner",
          "type": "address"
        }
      ],
      "name": "ComputeUnitCreated",
      "type": "event"
    },
    {
      "anonymous": false,
      "inputs": [
        {
          "indexed": false,
          "internalType": "bytes32",
          "name": "id",
          "type": "bytes32"
        }
      ],
      "name": "ComputeUnitRemoved",
      "type": "event"
    },
    {
      "anonymous": false,
      "inputs": [
        {
          "indexed": false,
          "internalType": "uint256",
          "name": "endedEpoch",
          "type": "uint256"
        }
      ],
      "name": "DealEnded",
      "type": "event"
    },
    {
      "anonymous": false,
      "inputs": [
        {
          "indexed": false,
          "internalType": "uint256",
          "name": "amount",
          "type": "uint256"
        }
      ],
      "name": "Deposited",
      "type": "event"
    },
    {
      "anonymous": false,
      "inputs": [
        {
          "indexed": false,
          "internalType": "uint8",
          "name": "version",
          "type": "uint8"
        }
      ],
      "name": "Initialized",
      "type": "event"
    },
    {
      "anonymous": false,
      "inputs": [
        {
          "indexed": false,
          "internalType": "uint256",
          "name": "maxPaidEpoch",
          "type": "uint256"
        }
      ],
      "name": "MaxPaidEpochUpdated",
      "type": "event"
    },
    {
      "anonymous": false,
      "inputs": [
        {
          "indexed": true,
          "internalType": "address",
          "name": "previousOwner",
          "type": "address"
        },
        {
          "indexed": true,
          "internalType": "address",
          "name": "newOwner",
          "type": "address"
        }
      ],
      "name": "OwnershipTransferred",
      "type": "event"
    },
    {
      "anonymous": false,
      "inputs": [
        {
          "indexed": false,
          "internalType": "bytes32",
          "name": "computeUnitId",
          "type": "bytes32"
        },
        {
          "indexed": false,
          "internalType": "uint256",
          "name": "reward",
          "type": "uint256"
        }
      ],
      "name": "RewardWithdrawn",
      "type": "event"
    },
    {
      "anonymous": false,
      "inputs": [
        {
          "indexed": false,
          "internalType": "uint256",
          "name": "amount",
          "type": "uint256"
        }
      ],
      "name": "Withdrawn",
      "type": "event"
    },
    {
      "anonymous": false,
      "inputs": [
        {
          "indexed": false,
          "internalType": "bytes32",
          "name": "computeUnitId",
          "type": "bytes32"
        },
        {
          "indexed": false,
          "internalType": "bytes32",
          "name": "workerId",
          "type": "bytes32"
        }
      ],
      "name": "WorkerIdUpdated",
      "type": "event"
    },
    {
      "inputs": [
        {
          "internalType": "bytes32",
          "name": "computeUnitId",
          "type": "bytes32"
        },
        {
          "internalType": "uint256",
          "name": "lastWorkedEpoch",
          "type": "uint256"
        }
      ],
      "name": "_removeComputeUnit",
      "outputs": [
        {
          "internalType": "uint256",
          "name": "computeUnitCount",
          "type": "uint256"
        }
      ],
      "stateMutability": "nonpayable",
      "type": "function"
    },
    {
      "inputs": [],
      "name": "accessType",
      "outputs": [
        {
          "internalType": "enum IConfig.AccessType",
          "name": "",
          "type": "uint8"
        }
      ],
      "stateMutability": "view",
      "type": "function"
    },
    {
      "inputs": [],
      "name": "appCID",
      "outputs": [
        {
          "components": [
            {
              "internalType": "bytes4",
              "name": "prefixes",
              "type": "bytes4"
            },
            {
              "internalType": "bytes32",
              "name": "hash",
              "type": "bytes32"
            }
          ],
          "internalType": "struct CIDV1",
          "name": "",
          "type": "tuple"
        }
      ],
      "stateMutability": "view",
      "type": "function"
    },
    {
      "inputs": [
        {
          "internalType": "enum IConfig.AccessType",
          "name": "accessType_",
          "type": "uint8"
        }
      ],
      "name": "changeAccessType",
      "outputs": [],
      "stateMutability": "nonpayable",
      "type": "function"
    },
    {
      "inputs": [],
      "name": "collateralPerWorker",
      "outputs": [
        {
          "internalType": "uint256",
          "name": "",
          "type": "uint256"
        }
      ],
      "stateMutability": "view",
      "type": "function"
    },
    {
      "inputs": [
        {
          "internalType": "address",
          "name": "computeProvider",
          "type": "address"
        },
        {
          "internalType": "bytes32",
          "name": "peerId",
          "type": "bytes32"
        }
      ],
      "name": "createComputeUnit",
      "outputs": [
        {
          "internalType": "bytes32",
          "name": "",
          "type": "bytes32"
        }
      ],
      "stateMutability": "nonpayable",
      "type": "function"
    },
    {
      "inputs": [],
      "name": "creationBlock",
      "outputs": [
        {
          "internalType": "uint256",
          "name": "",
          "type": "uint256"
        }
      ],
      "stateMutability": "view",
      "type": "function"
    },
    {
      "inputs": [
        {
          "internalType": "uint256",
          "name": "amount",
          "type": "uint256"
        }
      ],
      "name": "deposit",
      "outputs": [],
      "stateMutability": "nonpayable",
      "type": "function"
    },
    {
      "inputs": [],
      "name": "effectors",
      "outputs": [
        {
          "components": [
            {
              "internalType": "bytes4",
              "name": "prefixes",
              "type": "bytes4"
            },
            {
              "internalType": "bytes32",
              "name": "hash",
              "type": "bytes32"
            }
          ],
          "internalType": "struct CIDV1[]",
          "name": "",
          "type": "tuple[]"
        }
      ],
      "stateMutability": "view",
      "type": "function"
    },
    {
      "inputs": [],
      "name": "fluenceToken",
      "outputs": [
        {
          "internalType": "contract IERC20",
          "name": "",
          "type": "address"
        }
      ],
      "stateMutability": "view",
      "type": "function"
    },
    {
      "inputs": [],
      "name": "getAccessList",
      "outputs": [
        {
          "internalType": "address[]",
          "name": "",
          "type": "address[]"
        }
      ],
      "stateMutability": "view",
      "type": "function"
    },
    {
      "inputs": [
        {
          "internalType": "bytes32",
          "name": "id",
          "type": "bytes32"
        }
      ],
      "name": "getComputeUnit",
      "outputs": [
        {
          "components": [
            {
              "internalType": "bytes32",
              "name": "id",
              "type": "bytes32"
            },
            {
              "internalType": "bytes32",
              "name": "peerId",
              "type": "bytes32"
            },
            {
              "internalType": "bytes32",
              "name": "workerId",
              "type": "bytes32"
            },
            {
              "internalType": "address",
              "name": "owner",
              "type": "address"
            },
            {
              "internalType": "uint256",
              "name": "collateral",
              "type": "uint256"
            },
            {
              "internalType": "uint256",
              "name": "created",
              "type": "uint256"
            }
          ],
          "internalType": "struct IWorkerManager.ComputeUnit",
          "name": "",
          "type": "tuple"
        }
      ],
      "stateMutability": "view",
      "type": "function"
    },
    {
      "inputs": [],
      "name": "getComputeUnitCount",
      "outputs": [
        {
          "internalType": "uint256",
          "name": "",
          "type": "uint256"
        }
      ],
      "stateMutability": "view",
      "type": "function"
    },
    {
      "inputs": [],
      "name": "getComputeUnits",
      "outputs": [
        {
          "components": [
            {
              "internalType": "bytes32",
              "name": "id",
              "type": "bytes32"
            },
            {
              "internalType": "bytes32",
              "name": "peerId",
              "type": "bytes32"
            },
            {
              "internalType": "bytes32",
              "name": "workerId",
              "type": "bytes32"
            },
            {
              "internalType": "address",
              "name": "owner",
              "type": "address"
            },
            {
              "internalType": "uint256",
              "name": "collateral",
              "type": "uint256"
            },
            {
              "internalType": "uint256",
              "name": "created",
              "type": "uint256"
            }
          ],
          "internalType": "struct IWorkerManager.ComputeUnit[]",
          "name": "",
          "type": "tuple[]"
        }
      ],
      "stateMutability": "view",
      "type": "function"
    },
    {
      "inputs": [],
      "name": "getFreeBalance",
      "outputs": [
        {
          "internalType": "uint256",
          "name": "",
          "type": "uint256"
        }
      ],
      "stateMutability": "view",
      "type": "function"
    },
    {
      "inputs": [],
      "name": "getMaxPaidEpoch",
      "outputs": [
        {
          "internalType": "uint256",
          "name": "",
          "type": "uint256"
        }
      ],
      "stateMutability": "view",
      "type": "function"
    },
    {
      "inputs": [
        {
          "internalType": "bytes32",
          "name": "computeUnitId",
          "type": "bytes32"
        }
      ],
      "name": "getRewardAmount",
      "outputs": [
        {
          "internalType": "uint256",
          "name": "",
          "type": "uint256"
        }
      ],
      "stateMutability": "view",
      "type": "function"
    },
    {
      "inputs": [],
      "name": "getStatus",
      "outputs": [
        {
          "internalType": "enum IDeal.Status",
          "name": "",
          "type": "uint8"
        }
      ],
      "stateMutability": "view",
      "type": "function"
    },
    {
      "inputs": [
        {
          "internalType": "bytes32",
          "name": "computeUnitId",
          "type": "bytes32"
        }
      ],
      "name": "getUnlockCollateralEpoch",
      "outputs": [
        {
          "internalType": "uint256",
          "name": "",
          "type": "uint256"
        }
      ],
      "stateMutability": "view",
      "type": "function"
    },
    {
      "inputs": [
        {
          "components": [
            {
              "internalType": "bytes4",
              "name": "prefixes",
              "type": "bytes4"
            },
            {
              "internalType": "bytes32",
              "name": "hash",
              "type": "bytes32"
            }
          ],
          "internalType": "struct CIDV1",
          "name": "appCID_",
          "type": "tuple"
        },
        {
          "internalType": "contract IERC20",
          "name": "paymentToken_",
          "type": "address"
        },
        {
          "internalType": "uint256",
          "name": "collateralPerWorker_",
          "type": "uint256"
        },
        {
          "internalType": "uint256",
          "name": "minWorkers_",
          "type": "uint256"
        },
        {
          "internalType": "uint256",
          "name": "targetWorkers_",
          "type": "uint256"
        },
        {
          "internalType": "uint256",
          "name": "maxWorkersPerProvider_",
          "type": "uint256"
        },
        {
          "internalType": "uint256",
          "name": "pricePerWorkerEpoch_",
          "type": "uint256"
        },
        {
          "components": [
            {
              "internalType": "bytes4",
              "name": "prefixes",
              "type": "bytes4"
            },
            {
              "internalType": "bytes32",
              "name": "hash",
              "type": "bytes32"
            }
          ],
          "internalType": "struct CIDV1[]",
          "name": "effectors_",
          "type": "tuple[]"
        },
        {
          "internalType": "enum IConfig.AccessType",
          "name": "accessType_",
          "type": "uint8"
        },
        {
          "internalType": "address[]",
          "name": "accessList_",
          "type": "address[]"
        },
        {
          "internalType": "address",
          "name": "owner_",
          "type": "address"
        }
      ],
      "name": "initialize",
      "outputs": [],
      "stateMutability": "nonpayable",
      "type": "function"
    },
    {
      "inputs": [
        {
          "internalType": "address",
          "name": "addr",
          "type": "address"
        }
      ],
      "name": "isInAccessList",
      "outputs": [
        {
          "internalType": "bool",
          "name": "",
          "type": "bool"
        }
      ],
      "stateMutability": "view",
      "type": "function"
    },
    {
      "inputs": [],
      "name": "maxWorkersPerProvider",
      "outputs": [
        {
          "internalType": "uint256",
          "name": "",
          "type": "uint256"
        }
      ],
      "stateMutability": "view",
      "type": "function"
    },
    {
      "inputs": [],
      "name": "minWorkers",
      "outputs": [
        {
          "internalType": "uint256",
          "name": "",
          "type": "uint256"
        }
      ],
      "stateMutability": "view",
      "type": "function"
    },
    {
      "inputs": [],
      "name": "owner",
      "outputs": [
        {
          "internalType": "address",
          "name": "",
          "type": "address"
        }
      ],
      "stateMutability": "view",
      "type": "function"
    },
    {
      "inputs": [],
      "name": "paymentToken",
      "outputs": [
        {
          "internalType": "contract IERC20",
          "name": "",
          "type": "address"
        }
      ],
      "stateMutability": "view",
      "type": "function"
    },
    {
      "inputs": [],
      "name": "pricePerWorkerEpoch",
      "outputs": [
        {
          "internalType": "uint256",
          "name": "",
          "type": "uint256"
        }
      ],
      "stateMutability": "view",
      "type": "function"
    },
    {
      "inputs": [
        {
          "internalType": "bytes32",
          "name": "computeUnitId",
          "type": "bytes32"
        }
      ],
      "name": "removeComputeUnit",
      "outputs": [],
      "stateMutability": "nonpayable",
      "type": "function"
    },
    {
      "inputs": [
        {
          "internalType": "address",
          "name": "addr",
          "type": "address"
        }
      ],
      "name": "removeFromAccessList",
      "outputs": [],
      "stateMutability": "nonpayable",
      "type": "function"
    },
    {
      "inputs": [],
      "name": "renounceOwnership",
      "outputs": [],
      "stateMutability": "nonpayable",
      "type": "function"
    },
    {
      "inputs": [
        {
          "components": [
            {
              "internalType": "bytes4",
              "name": "prefixes",
              "type": "bytes4"
            },
            {
              "internalType": "bytes32",
              "name": "hash",
              "type": "bytes32"
            }
          ],
          "internalType": "struct CIDV1",
          "name": "appCID_",
          "type": "tuple"
        }
      ],
      "name": "setAppCID",
      "outputs": [],
      "stateMutability": "nonpayable",
      "type": "function"
    },
    {
      "inputs": [
        {
          "internalType": "bytes32",
          "name": "computeUnitId",
          "type": "bytes32"
        },
        {
          "internalType": "bytes32",
          "name": "workerId",
          "type": "bytes32"
        }
      ],
      "name": "setWorker",
      "outputs": [],
      "stateMutability": "nonpayable",
      "type": "function"
    },
    {
      "inputs": [],
      "name": "stop",
      "outputs": [],
      "stateMutability": "nonpayable",
      "type": "function"
    },
    {
      "inputs": [],
      "name": "targetWorkers",
      "outputs": [
        {
          "internalType": "uint256",
          "name": "",
          "type": "uint256"
        }
      ],
      "stateMutability": "view",
      "type": "function"
    },
    {
      "inputs": [
        {
          "internalType": "address",
          "name": "newOwner",
          "type": "address"
        }
      ],
      "name": "transferOwnership",
      "outputs": [],
      "stateMutability": "nonpayable",
      "type": "function"
    },
    {
      "inputs": [
        {
          "internalType": "uint256",
          "name": "amount",
          "type": "uint256"
        }
      ],
      "name": "withdraw",
      "outputs": [],
      "stateMutability": "nonpayable",
      "type": "function"
    },
    {
      "inputs": [
        {
          "internalType": "bytes32",
          "name": "computeUnitId",
          "type": "bytes32"
        }
      ],
      "name": "withdrawCollateral",
      "outputs": [],
      "stateMutability": "nonpayable",
      "type": "function"
    },
    {
      "inputs": [
        {
          "internalType": "bytes32",
          "name": "computeUnitId",
          "type": "bytes32"
        }
      ],
      "name": "withdrawRewards",
      "outputs": [],
      "stateMutability": "nonpayable",
      "type": "function"
    }
  ],
  "transactionHash": "0x89656debd8c380f0baa7d1af982ee3282b2aa837d72bfe585ffb0fb9fe23445c",
  "args": [
    "0xE46F9Af317252666555b90bdaF1Fa92459d986c9"
  ],
  "numDeployments": 1,
  "solcInputHash": "d08f7232c420615bc537ccfad20222dc",
  "bytecode": "0x60c060409080825234620001e15780620045428038038091620000238285620001e6565b8339602092839181010312620001e157516001600160a01b039081811690818103620001e15760a052835163ac027f9760e01b8152908390829060049082905afa908115620001d65760009162000192575b5090506080526000549060ff8260081c166200013f5760ff8083160362000105575b8251614321908162000221823960805181818161063901528181610bb60152610f54015260a05181818161039201528181610b1201528181610d30015281816112fc01528181611fab0152818161227d0152818161276001528181612b510152818161319401526132db0152f35b60ff7f7f26b83ff96e1f2b6a682f133852f6798a09c465da95921460cefb38474024989281191617600055825160ff8152a1388062000097565b60849083519062461bcd60e51b82526004820152602760248201527f496e697469616c697a61626c653a20636f6e747261637420697320696e697469604482015266616c697a696e6760c81b6064820152fd5b8381813d8311620001ce575b620001aa8183620001e6565b81010312620001ca57519182168203620001c75750803862000075565b80fd5b5080fd5b503d6200019e565b84513d6000823e3d90fd5b600080fd5b601f909101601f19168101906001600160401b038211908210176200020a57604052565b634e487b7160e01b600052604160045260246000fdfe608080604052600436101561001357600080fd5b60003560e01c908163055236f414612d465750806307da68f514612aea578063108d2f5214612aad57806314d3b767146128e657806317634514146128a9578063176474cf146128885780631af57b96146126dd5780632943dcab146126a05780632b9f5b32146126555780632db31193146126185780632e1a7d4d1461221a5780633013ce29146121c75780633591187c14611f57578063378b22e414611f1a57806344228b121461193c5780634b66a309146117225780634e69d560146116fa5780636cd13448146116bd578063715018a61461161d578063745e920b146115255780637878e81b146114f75780637dfb6626146112775780638a0c725b1461123a5780638d5ddbb3146110835780638da5cb5b146110305780639bc6686814610f78578063ac027f9714610f27578063b55ec18a14610ede578063b6b55f2514610cce578063cffe224414610cad578063d3cde34414610a8a578063d5053ab0146109c3578063e93c4f15146109a0578063edd0d73414610963578063eebe998f1461032f578063f2fde38b146103045763fc1e5e2a146101b657600080fd5b346102ff5760006003193601126102ff577f8953f5482bc1a621075e75537625fa3bd2025e7df7baf6ba1dbfbf2212912d0d80546101f381612f34565b6102006040519182612ef3565b81815260209182820180946000527fcfcab6f3bf9ee9c2484fd18eeb2a9bd794cfdeb4ec98cce66c941e6633f8e0956000915b8383106102ae5760408051878152865181890181905289928201908960005b82811061025f5784840385f35b9091928260408261029f6001948a51602080917fffffffff0000000000000000000000000000000000000000000000000000000081511684520151910152565b01960191019492919094610252565b6002866001926040516102c081612ebb565b7fffffffff00000000000000000000000000000000000000000000000000000000865460e01b1681528486015483820152815201920192019190610233565b600080fd5b346102ff5760206003193601126102ff5761032d610320612e52565b61032861427b565b6141b8565b005b346102ff5760406003193601126102ff57610348612e52565b6024356040517f7667180800000000000000000000000000000000000000000000000000000000815260209273ffffffffffffffffffffffffffffffffffffffff908483600481857f0000000000000000000000000000000000000000000000000000000000000000165afa92831561095757600093610928575b507fec986952a0671e4b2e5ec4461085fb880bc7a7b88668240f8d55173039155d20918254947f8953f5482bc1a621075e75537625fa3bd2025e7df7baf6ba1dbfbf2212912d0a548610156108e45760405191878301967f0e21d2e2d5be9ded2ebc4e15f49071921d3423c94178bed2c85195b579511f7088527fffffffffffffffffffffffffffffffffffffffff0000000000000000000000008286169560601b16604085015282605485015260548452608084019784891067ffffffffffffffff8a11176108b557886040528451902097886000527fec986952a0671e4b2e5ec4461085fb880bc7a7b88668240f8d55173039155d2294858b528360036040600020015416610874575050846000527fec986952a0671e4b2e5ec4461085fb880bc7a7b88668240f8d55173039155d21808a526040600020547f8953f5482bc1a621075e75537625fa3bd2025e7df7baf6ba1dbfbf2212912d0b5481101561080a57887f865afb485bc19debe6b3005a955507b9380643890b997437eac163d3345167ba958b6040966105768f9a969761065d9c98610565600598612f4c565b908a6000528d528a60002055612f4c565b809c557f8953f5482bc1a621075e75537625fa3bd2025e7df7baf6ba1dbfbf2212912d0854998a938951976105aa89612ed7565b8489528289019182528a8901926000845260608a01958b875260808b0197885260a08b01988952600052528960002097518855516001880155516002870155600386019151167fffffffffffffffffffffffff00000000000000000000000000000000000000008254161790555160048401555191015561062a886140bf565b81519088825289820152a130337f0000000000000000000000000000000000000000000000000000000000000000613516565b7f8953f5482bc1a621075e75537625fa3bd2025e7df7baf6ba1dbfbf2212912d0c54836000527fc576653ddc86d50a6e4d0122949ce4f03ce67b12fb750e4fa8bed8f88ff5f4f385526040600020927fc576653ddc86d50a6e4d0122949ce4f03ce67b12fb750e4fa8bed8f88ff5f4f1908154936106d96139d3565b927fc576653ddc86d50a6e4d0122949ce4f03ce67b12fb750e4fa8bed8f88ff5f4f254907fffffffffffffffffffffffffffffffffffffffffffffffffffffffffffffffff8301958387116107db578761073c8260a0998e9660019c8a8c613424565b857f8953f5482bc1a621075e75537625fa3bd2025e7df7baf6ba1dbfbf2212912d095486101591826107d1575b505061078d575b5050505061077e8183613868565b84550151910155604051908152f35b7fcecd349d986645e1758ec135f91f1ad20564a8bcc6c2b5a5eaca9b09841495c5936107be9160608801518761381c565b809155604051908152a187878180610770565b119050858d610769565b7f4e487b7100000000000000000000000000000000000000000000000000000000600052601160045260246000fd5b60848b6040519062461bcd60e51b82526004820152602860248201527f4d617820776f726b6572732070657220636f6d707574652070726f766964657260448201527f20726561636865640000000000000000000000000000000000000000000000006064820152fd5b907f496420616c72656164792075736564000000000000000000000000000000000060c46064938d62461bcd60e51b85526084820152600f60a48201520152fd5b7f4e487b7100000000000000000000000000000000000000000000000000000000600052604160045260246000fd5b6064876040519062461bcd60e51b82526004820152601660248201527f54617267657420776f726b6572732072656163686564000000000000000000006044820152fd5b9092508481813d8311610950575b6109408183612ef3565b810103126102ff575191856103c3565b503d610936565b6040513d6000823e3d90fd5b346102ff5760006003193601126102ff5760207f8953f5482bc1a621075e75537625fa3bd2025e7df7baf6ba1dbfbf2212912d0854604051908152f35b346102ff5760006003193601126102ff5760206109bb613298565b604051908152f35b346102ff5760406003193601126102ff5760043560243590806000527fec986952a0671e4b2e5ec4461085fb880bc7a7b88668240f8d55173039155d226020526040600020908215610a4657827fcf79e0e27c8c35d39bd9b727f35e6f79573597f660c88baf483fc1511c49203c936002604094015582519182526020820152a1005b606460405162461bcd60e51b815260206004820152601760248201527f576f726b657249642063616e277420626520656d7074790000000000000000006044820152fd5b346102ff576020806003193601126102ff57600435806000527fec986952a0671e4b2e5ec4461085fb880bc7a7b88668240f8d55173039155d27808352604060002054916040517f7667180800000000000000000000000000000000000000000000000000000000815273ffffffffffffffffffffffffffffffffffffffff938582600481887f0000000000000000000000000000000000000000000000000000000000000000165afa91821561095757600092610c7e575b5011610c3a577fc30fcfbcaac9e0deffa719714eaa82396ff506a0d0d0eebe170830177288715d93816000527fec986952a0671e4b2e5ec4461085fb880bc7a7b88668240f8d55173039155d2291828252604060002094600360048701549601541693825260006040812055610bda85857f000000000000000000000000000000000000000000000000000000000000000061393a565b6000525260006005604082208281558260018201558260028201558260038201558260048201550155610c35604051928392836020909392919373ffffffffffffffffffffffffffffffffffffffff60408201951681520152565b0390a1005b6064846040519062461bcd60e51b82526004820152601860248201527f436f6c6c61746572616c206e6f7420617661696c61626c6500000000000000006044820152fd5b9091508581813d8311610ca6575b610c968183612ef3565b810103126102ff57519086610b43565b503d610c8c565b346102ff5760406003193601126102ff5760206109bb602435600435613a9c565b346102ff576020806003193601126102ff5760043590610cec61427b565b604051917f7667180800000000000000000000000000000000000000000000000000000000835273ffffffffffffffffffffffffffffffffffffffff8284600481847f0000000000000000000000000000000000000000000000000000000000000000165afa93841561095757600094610eaf575b50827f2a89b2e3d580398d6dc2db5e0f336b52602bbaa51afa9bb5cdf59239cf0d2bea94610e9f847fcecd349d986645e1758ec135f91f1ad20564a8bcc6c2b5a5eaca9b09841495c594610e737fec986952a0671e4b2e5ec4461085fb880bc7a7b88668240f8d55173039155d2054947f8953f5482bc1a621075e75537625fa3bd2025e7df7baf6ba1dbfbf2212912d0c5495610e6b610dff6139d3565b917fc576653ddc86d50a6e4d0122949ce4f03ce67b12fb750e4fa8bed8f88ff5f4f198610e5381838c547fc576653ddc86d50a6e4d0122949ce4f03ce67b12fb750e4fa8bed8f88ff5f4f254908989613424565b60608401610e62898251613417565b8091528561381c565b809755613868565b7f8953f5482bc1a621075e75537625fa3bd2025e7df7baf6ba1dbfbf2212912d07541630903390613516565b604051908152a1604051908152a1005b93508284813d8311610ed7575b610ec68183612ef3565b810103126102ff5792519282610d61565b503d610ebc565b346102ff5760006003193601126102ff57602060ff7f8953f5482bc1a621075e75537625fa3bd2025e7df7baf6ba1dbfbf2212912d0e541660405190610f2381612e75565b8152f35b346102ff5760006003193601126102ff57602060405173ffffffffffffffffffffffffffffffffffffffff7f0000000000000000000000000000000000000000000000000000000000000000168152f35b346102ff5760006003193601126102ff5760006020604051610f9981612ebb565b828152015260408051610fab81612ebb565b7f8953f5482bc1a621075e75537625fa3bd2025e7df7baf6ba1dbfbf2212912d055460e01b7fffffffff00000000000000000000000000000000000000000000000000000000168082527f8953f5482bc1a621075e75537625fa3bd2025e7df7baf6ba1dbfbf2212912d0654602092830190815283519182525191810191909152f35bf35b346102ff5760006003193601126102ff57602073ffffffffffffffffffffffffffffffffffffffff7f612e56b0fc389e6dab6fa70e140af078f831069f9c4d9558e645bdefbbc811235416604051908152f35b346102ff5760006003193601126102ff577f8953f5482bc1a621075e75537625fa3bd2025e7df7baf6ba1dbfbf2212912d11546110bf81612f34565b906110cd6040519283612ef3565b8082527fffffffffffffffffffffffffffffffffffffffffffffffffffffffffffffffe090816110fc82612f34565b019060209136838601377f8953f5482bc1a621075e75537625fa3bd2025e7df7baf6ba1dbfbf2212912d0f546000905b8282106111f05750505082519061115b61114583612f34565b926111536040519485612ef3565b808452612f34565b828201930136843760005b8451811015611196578061117d6111919287612f79565b5160601c61118b8286612f79565b52612f4c565b611166565b50925090604051928392818401908285525180915260408401929160005b8281106111c357505050500390f35b835173ffffffffffffffffffffffffffffffffffffffff16855286955093810193928101926001016111b4565b806111fb8388612f79565b526000527f8953f5482bc1a621075e75537625fa3bd2025e7df7baf6ba1dbfbf2212912d12835261123460016040600020015491612f4c565b9061112c565b346102ff5760006003193601126102ff5760207f8953f5482bc1a621075e75537625fa3bd2025e7df7baf6ba1dbfbf2212912d0b54604051908152f35b346102ff576020806003193601126102ff57600435806000527fc576653ddc86d50a6e4d0122949ce4f03ce67b12fb750e4fa8bed8f88ff5f4f3825260406000206040517f7667180800000000000000000000000000000000000000000000000000000000815273ffffffffffffffffffffffffffffffffffffffff908481600481857f0000000000000000000000000000000000000000000000000000000000000000165afa908115610957576000916114ca575b507fec986952a0671e4b2e5ec4461085fb880bc7a7b88668240f8d55173039155d20547f8953f5482bc1a621075e75537625fa3bd2025e7df7baf6ba1dbfbf2212912d0c546113cb8161137e6139d3565b937fc576653ddc86d50a6e4d0122949ce4f03ce67b12fb750e4fa8bed8f88ff5f4f1547fc576653ddc86d50a6e4d0122949ce4f03ce67b12fb750e4fa8bed8f88ff5f4f254908787613424565b60a0820151906113fe6113df875486612eae565b916113f960018901936113f3855487612eae565b90612eae565b613285565b95861561148657956040956114518683968c9661147b968d9a7f9b5336625f529f36cb0543297bdf5075b7f6b830bb892ff97c09fbfeae6255d59d55556080810161144a868251612eae565b9052613868565b7f8953f5482bc1a621075e75537625fa3bd2025e7df7baf6ba1dbfbf2212912d075416339061393a565b8351928352820152a1005b6064896040519062461bcd60e51b82526004820152600a60248201527f4e6f2072657761726473000000000000000000000000000000000000000000006044820152fd5b90508481813d83116114f0575b6114e18183612ef3565b810103126102ff57518561132d565b503d6114d7565b346102ff5760206003193601126102ff5760043560038110156102ff5761032d9061152061427b565b61305f565b346102ff5760206003193601126102ff5761153e6139a1565b506004356000527fec986952a0671e4b2e5ec4461085fb880bc7a7b88668240f8d55173039155d2260205260c0604060002060056040519161157f83612ed7565b80548352600181015460208401526002810154604084015273ffffffffffffffffffffffffffffffffffffffff600382015416606084015260048101546080840152015460a082015261102e604051809260a0809180518452602081015160208501526040810151604085015273ffffffffffffffffffffffffffffffffffffffff6060820151166060850152608081015160808501520151910152565b346102ff5760006003193601126102ff5761163661427b565b600073ffffffffffffffffffffffffffffffffffffffff7f612e56b0fc389e6dab6fa70e140af078f831069f9c4d9558e645bdefbbc811238054907fffffffffffffffffffffffff000000000000000000000000000000000000000082169055167f8be0079c531659141344cd1fd0a4f28419497f9722a3daafe3b4186f6b6457e08280a3005b346102ff5760006003193601126102ff5760207f8953f5482bc1a621075e75537625fa3bd2025e7df7baf6ba1dbfbf2212912d0c54604051908152f35b346102ff5760006003193601126102ff576020611715613128565b60405190610f2381612e75565b346102ff5760006003193601126102ff577fec986952a0671e4b2e5ec4461085fb880bc7a7b88668240f8d55173039155d20547fffffffffffffffffffffffffffffffffffffffffffffffffffffffffffffffe061178261114583612f34565b0160005b818110611925578260007fec986952a0671e4b2e5ec4461085fb880bc7a7b88668240f8d55173039155d235490815b61184c5760408051602080825285518183018190528187019383019160005b8281106117e15784840385f35b9091928260c08261183d6001948a5160a0809180518452602081015160208501526040810151604085015273ffffffffffffffffffffffffffffffffffffffff6060820151166060850152608081015160808501520151910152565b019601910194929190946117d4565b816000527fec986952a0671e4b2e5ec4461085fb880bc7a7b88668240f8d55173039155d2660207fec986952a0671e4b2e5ec4461085fb880bc7a7b88668240f8d55173039155d2281526119126040600020936040516118ab81612ed7565b85548152600560019687810154868401526002810154604084015273ffffffffffffffffffffffffffffffffffffffff600382015416606084015260048101546080840152015460a08201526119018289612f79565b5261190c8188612f79565b50612f4c565b93600052526040600020015490816117b5565b6020906119306139a1565b82828601015201611786565b346102ff57600319360161018081126102ff576040136102ff5760443573ffffffffffffffffffffffffffffffffffffffff811681036102ff5767ffffffffffffffff8061010435116102ff57366023610104350112156102ff57806101043560040135116102ff57366024610104356004013560061b610104350101116102ff5760036101243510156102ff578061014435116102ff57366023610144350112156102ff576101443560040135116102ff57366024610144356004013560051b610144350101116102ff5773ffffffffffffffffffffffffffffffffffffffff610164351661016435036102ff576000549060ff8260081c161591828093611f0d575b8015611ef6575b15611e8c578260017fffffffffffffffffffffffffffffffffffffffffffffffffffffffffffffff00831617600055611e5d575b50611a9660ff60005460081c16611a91816130b7565b6130b7565b611aa2610164356141b8565b611ab360ff60005460081c166130b7565b437f8953f5482bc1a621075e75537625fa3bd2025e7df7baf6ba1dbfbf2212912d045573ffffffffffffffffffffffffffffffffffffffff7f8953f5482bc1a621075e75537625fa3bd2025e7df7baf6ba1dbfbf2212912d0791167fffffffffffffffffffffffff00000000000000000000000000000000000000008254161790556064357f8953f5482bc1a621075e75537625fa3bd2025e7df7baf6ba1dbfbf2212912d08556084357f8953f5482bc1a621075e75537625fa3bd2025e7df7baf6ba1dbfbf2212912d095560a4357f8953f5482bc1a621075e75537625fa3bd2025e7df7baf6ba1dbfbf2212912d0a5560c4357f8953f5482bc1a621075e75537625fa3bd2025e7df7baf6ba1dbfbf2212912d0b5560e4357f8953f5482bc1a621075e75537625fa3bd2025e7df7baf6ba1dbfbf2212912d0c5560005b61010435600401358110611ce75750611c0c6101243561305f565b60005b61014435600401358110611c815750611c26612f8d565b611c2c57005b7fffffffffffffffffffffffffffffffffffffffffffffffffffffffffffff00ff600054166000557f7f26b83ff96e1f2b6a682f133852f6798a09c465da95921460cefb3847402498602060405160018152a1005b60248160051b610144350101359073ffffffffffffffffffffffffffffffffffffffff821682036102ff57611cdd7fffffffffffffffffffffffffffffffffffffffff000000000000000000000000611ce29360601b16613f3e565b612f4c565b611c0f565b7f8953f5482bc1a621075e75537625fa3bd2025e7df7baf6ba1dbfbf2212912d0d54680100000000000000008110156108b55760018101807f8953f5482bc1a621075e75537625fa3bd2025e7df7baf6ba1dbfbf2212912d0d55811015611e2e577f8953f5482bc1a621075e75537625fa3bd2025e7df7baf6ba1dbfbf2212912d0d60005260011b90817fcfcab6f3bf9ee9c2484fd18eeb2a9bd794cfdeb4ec98cce66c941e6633f8e09501918160061b61010435019260248401357fffffffff00000000000000000000000000000000000000000000000000000000811681036102ff57611e29947fcfcab6f3bf9ee9c2484fd18eeb2a9bd794cfdeb4ec98cce66c941e6633f8e0969260449260e01c7fffffffffffffffffffffffffffffffffffffffffffffffffffffffff000000008254161790550135910155612f4c565b611bf1565b7f4e487b7100000000000000000000000000000000000000000000000000000000600052603260045260246000fd5b7fffffffffffffffffffffffffffffffffffffffffffffffffffffffffffff0000166101011760005582611a7b565b608460405162461bcd60e51b815260206004820152602e60248201527f496e697469616c697a61626c653a20636f6e747261637420697320616c72656160448201527f647920696e697469616c697a65640000000000000000000000000000000000006064820152fd5b50303b158015611a475750600160ff821614611a47565b50600160ff821610611a40565b346102ff5760006003193601126102ff5760207fc576653ddc86d50a6e4d0122949ce4f03ce67b12fb750e4fa8bed8f88ff5f4f154604051908152f35b346102ff576020806003193601126102ff576040517f76671808000000000000000000000000000000000000000000000000000000008152818160048173ffffffffffffffffffffffffffffffffffffffff7f0000000000000000000000000000000000000000000000000000000000000000165afa9081156109575760009161219a575b507fc576653ddc86d50a6e4d0122949ce4f03ce67b12fb750e4fa8bed8f88ff5f4f45460ff1615612191576120357fc576653ddc86d50a6e4d0122949ce4f03ce67b12fb750e4fa8bed8f88ff5f4f5545b600435613a9c565b917f8953f5482bc1a621075e75537625fa3bd2025e7df7baf6ba1dbfbf2212912d0c54927fc576653ddc86d50a6e4d0122949ce4f03ce67b12fb750e4fa8bed8f88ff5f4f1918254946120866139d3565b937fc576653ddc86d50a6e4d0122949ce4f03ce67b12fb750e4fa8bed8f88ff5f4f2549160018501928386116107db57886120ca838a96879461032d9d868d613424565b7f8953f5482bc1a621075e75537625fa3bd2025e7df7baf6ba1dbfbf2212912d0954871091829182612187575b5050156121305750507fcecd349d986645e1758ec135f91f1ad20564a8bcc6c2b5a5eaca9b09841495c5935055604051848152a1613868565b9091925015612143575b50505050613868565b7fcecd349d986645e1758ec135f91f1ad20564a8bcc6c2b5a5eaca9b09841495c5936121749160608701518861381c565b809155604051908152a18380808061213a565b119050848b6120f7565b6120358161202d565b90508181813d83116121c0575b6121b18183612ef3565b810103126102ff575182611fdc565b503d6121a7565b346102ff5760006003193601126102ff57602073ffffffffffffffffffffffffffffffffffffffff7f8953f5482bc1a621075e75537625fa3bd2025e7df7baf6ba1dbfbf2212912d075416604051908152f35b346102ff576020806003193601126102ff576004359061223861427b565b604051917f7667180800000000000000000000000000000000000000000000000000000000835273ffffffffffffffffffffffffffffffffffffffff928281600481877f0000000000000000000000000000000000000000000000000000000000000000165afa908115610957576000916125eb575b507fec986952a0671e4b2e5ec4461085fb880bc7a7b88668240f8d55173039155d2054907f8953f5482bc1a621075e75537625fa3bd2025e7df7baf6ba1dbfbf2212912d0c549160ff7fc576653ddc86d50a6e4d0122949ce4f03ce67b12fb750e4fa8bed8f88ff5f4f4541660001461244757507fc576653ddc86d50a6e4d0122949ce4f03ce67b12fb750e4fa8bed8f88ff5f4f55460028101925082106107db5711156123dd576123d4817f430648de173157e069201c943adb2d4e340e7cf5b27b1b09c9cb852f03d63b56947fc576653ddc86d50a6e4d0122949ce4f03ce67b12fb750e4fa8bed8f88ff5f4ee6123a8838254612eae565b90557f8953f5482bc1a621075e75537625fa3bd2025e7df7baf6ba1dbfbf2212912d075416339061393a565b604051908152a1005b6084826040519062461bcd60e51b82526004820152602d60248201527f43616e2774207769746864726177206265666f726520322065706f636873206160448201527f66746572206465616c20656e64000000000000000000000000000000000000006064820152fd5b61244f6139d3565b907fc576653ddc86d50a6e4d0122949ce4f03ce67b12fb750e4fa8bed8f88ff5f4f1936124a3818387547fc576653ddc86d50a6e4d0122949ce4f03ce67b12fb750e4fa8bed8f88ff5f4f254908888613424565b606083016124b2878251612eae565b81527f7fffffffffffffffffffffffffffffffffffffffffffffffffffffffffffffff821682036107db5761250b7f8953f5482bc1a621075e75537625fa3bd2025e7df7baf6ba1dbfbf2212912d0a548360011b613285565b815110612581579461257587957f430648de173157e069201c943adb2d4e340e7cf5b27b1b09c9cb852f03d63b569a9561256d7fcecd349d986645e1758ec135f91f1ad20564a8bcc6c2b5a5eaca9b09841495c5968c966123d49b518561381c565b809455613868565b604051908152a1611451565b6084886040519062461bcd60e51b82526004820152602c60248201527f467265652062616c616e6365206e6565647320746f20636f766572206d696e6960448201527f6d756d20322065706f63687300000000000000000000000000000000000000006064820152fd5b90508281813d8311612611575b6126028183612ef3565b810103126102ff5751846122ae565b503d6125f8565b346102ff5760006003193601126102ff5760207f8953f5482bc1a621075e75537625fa3bd2025e7df7baf6ba1dbfbf2212912d0954604051908152f35b346102ff5760206003193601126102ff576004356000527fec986952a0671e4b2e5ec4461085fb880bc7a7b88668240f8d55173039155d276020526020604060002054604051908152f35b346102ff5760006003193601126102ff5760207f8953f5482bc1a621075e75537625fa3bd2025e7df7baf6ba1dbfbf2212912d0a54604051908152f35b346102ff576020806003193601126102ff576004356000527fc576653ddc86d50a6e4d0122949ce4f03ce67b12fb750e4fa8bed8f88ff5f4f381526040600020604051907f76671808000000000000000000000000000000000000000000000000000000008252828260048173ffffffffffffffffffffffffffffffffffffffff7f0000000000000000000000000000000000000000000000000000000000000000165afa91821561095757600092612857575b50906113f96109bb926113f37fec986952a0671e4b2e5ec4461085fb880bc7a7b88668240f8d55173039155d205491600160a061284b7f8953f5482bc1a621075e75537625fa3bd2025e7df7baf6ba1dbfbf2212912d0c5497612843896127f66139d3565b987fc576653ddc86d50a6e4d0122949ce4f03ce67b12fb750e4fa8bed8f88ff5f4f1547fc576653ddc86d50a6e4d0122949ce4f03ce67b12fb750e4fa8bed8f88ff5f4f25490858c613424565b845490612eae565b94015191015490612eae565b91508282813d8311612881575b61286e8183612ef3565b810103126102ff579051906113f9612791565b503d612864565b346102ff5760406003193601126102ff576128a161427b565b61032d612f8d565b346102ff5760006003193601126102ff5760207f8953f5482bc1a621075e75537625fa3bd2025e7df7baf6ba1dbfbf2212912d0454604051908152f35b346102ff576020806003193601126102ff577fffffffffffffffffffffffffffffffffffffffff000000000000000000000000612921612e52565b61292961427b565b60601b1690816000527f8953f5482bc1a621075e75537625fa3bd2025e7df7baf6ba1dbfbf2212912d1291828252604060002060016040519161296b83612ebb565b8054835201548382019081526129818383613e3e565b15612a6957815180159081612a40575b8251918215612a18575b15612a02575b50505190816129ed575b505060005252600060016040822082815501557f8953f5482bc1a621075e75537625fa3bd2025e7df7baf6ba1dbfbf2212912d116129e98154613a71565b9055005b519060005283835260406000205583806129ab565b60005285855260016040600020015585806129a1565b817f8953f5482bc1a621075e75537625fa3bd2025e7df7baf6ba1dbfbf2212912d105561299b565b82517f8953f5482bc1a621075e75537625fa3bd2025e7df7baf6ba1dbfbf2212912d0f55612991565b6064846040519062461bcd60e51b82526004820152601260248201527f4b657920646f6573206e6f7420657869737400000000000000000000000000006044820152fd5b346102ff5760006003193601126102ff5760207fec986952a0671e4b2e5ec4461085fb880bc7a7b88668240f8d55173039155d2054604051908152f35b346102ff5760006003193601126102ff57612b0361427b565b612b0b6139d3565b604051907f76671808000000000000000000000000000000000000000000000000000000008252602090818360048173ffffffffffffffffffffffffffffffffffffffff7f0000000000000000000000000000000000000000000000000000000000000000165afa92831561095757600093612cf7575b5091807f3ad16bb58712aa329948d76146b096a4f4b85e024d99473dc50bcd358811b86c93817fc576653ddc86d50a6e4d0122949ce4f03ce67b12fb750e4fa8bed8f88ff5f4f191612c4882845492612c437fc576653ddc86d50a6e4d0122949ce4f03ce67b12fb750e4fa8bed8f88ff5f4f2547fec986952a0671e4b2e5ec4461085fb880bc7a7b88668240f8d55173039155d20547f8953f5482bc1a621075e75537625fa3bd2025e7df7baf6ba1dbfbf2212912d0c5491878686613424565b613868565b11612cc6575b50507fc576653ddc86d50a6e4d0122949ce4f03ce67b12fb750e4fa8bed8f88ff5f4f460017fffffffffffffffffffffffffffffffffffffffffffffffffffffffffffffff00825416179055807fc576653ddc86d50a6e4d0122949ce4f03ce67b12fb750e4fa8bed8f88ff5f4f555604051908152a1005b557fcecd349d986645e1758ec135f91f1ad20564a8bcc6c2b5a5eaca9b09841495c582604051838152a18084612c4e565b92508183813d8311612d3f575b612d0e8183612ef3565b810103126102ff577f3ad16bb58712aa329948d76146b096a4f4b85e024d99473dc50bcd358811b86c925192612b82565b503d612d04565b346102ff5760206003193601126102ff57602080917fffffffffffffffffffffffffffffffffffffffff000000000000000000000000612d84612e52565b60601b1690816000527f8953f5482bc1a621075e75537625fa3bd2025e7df7baf6ba1dbfbf2212912d128352604060002090612dbf81612ebb565b6001825492838352015493849101521591821592612e48575b508115612e1d575b8115612df2575b506040519015158152f35b90507f8953f5482bc1a621075e75537625fa3bd2025e7df7baf6ba1dbfbf2212912d10541482612de7565b7f8953f5482bc1a621075e75537625fa3bd2025e7df7baf6ba1dbfbf2212912d0f5481149150612de0565b1515915083612dd8565b6004359073ffffffffffffffffffffffffffffffffffffffff821682036102ff57565b60031115612e7f57565b7f4e487b7100000000000000000000000000000000000000000000000000000000600052602160045260246000fd5b919082039182116107db57565b6040810190811067ffffffffffffffff8211176108b557604052565b60c0810190811067ffffffffffffffff8211176108b557604052565b90601f7fffffffffffffffffffffffffffffffffffffffffffffffffffffffffffffffe0910116810190811067ffffffffffffffff8211176108b557604052565b67ffffffffffffffff81116108b55760051b60200190565b7fffffffffffffffffffffffffffffffffffffffffffffffffffffffffffffffff81146107db5760010190565b8051821015611e2e5760209160051b010190565b6004357fffffffff000000000000000000000000000000000000000000000000000000008116908181036102ff577fc820a66d3bdd50a45cf12cda6dc8ec9e94fb5123edd7da736eea18316f8523a0916040917f8953f5482bc1a621075e75537625fa3bd2025e7df7baf6ba1dbfbf2212912d059060e01c7fffffffffffffffffffffffffffffffffffffffffffffffffffffffff00000000825416179055602435807f8953f5482bc1a621075e75537625fa3bd2025e7df7baf6ba1dbfbf2212912d065582519182526020820152a1565b61306881612e75565b7f8953f5482bc1a621075e75537625fa3bd2025e7df7baf6ba1dbfbf2212912d0e9060ff7fffffffffffffffffffffffffffffffffffffffffffffffffffffffffffffff008354169116179055565b156130be57565b608460405162461bcd60e51b815260206004820152602b60248201527f496e697469616c697a61626c653a20636f6e7472616374206973206e6f74206960448201527f6e697469616c697a696e670000000000000000000000000000000000000000006064820152fd5b60ff7fc576653ddc86d50a6e4d0122949ce4f03ce67b12fb750e4fa8bed8f88ff5f4f45416613280576040517f7667180800000000000000000000000000000000000000000000000000000000815260208160048173ffffffffffffffffffffffffffffffffffffffff7f0000000000000000000000000000000000000000000000000000000000000000165afa9081156109575760009161324c575b507fc576653ddc86d50a6e4d0122949ce4f03ce67b12fb750e4fa8bed8f88ff5f4f154907fec986952a0671e4b2e5ec4461085fb880bc7a7b88668240f8d55173039155d20547f8953f5482bc1a621075e75537625fa3bd2025e7df7baf6ba1dbfbf2212912d09541160001461323c575050600090565b111561324757600090565b600190565b906020823d8211613278575b8161326560209383612ef3565b81010312613275575051386131c5565b80fd5b3d9150613258565b600290565b818102929181159184041417156107db57565b6040517f7667180800000000000000000000000000000000000000000000000000000000815260208160048173ffffffffffffffffffffffffffffffffffffffff7f0000000000000000000000000000000000000000000000000000000000000000165afa908115610957576000916133e6575b507fc576653ddc86d50a6e4d0122949ce4f03ce67b12fb750e4fa8bed8f88ff5f4f15481116133e0576133dd906113f36133b561338d7fc576653ddc86d50a6e4d0122949ce4f03ce67b12fb750e4fa8bed8f88ff5f4ee54937fc576653ddc86d50a6e4d0122949ce4f03ce67b12fb750e4fa8bed8f88ff5f4f25490612eae565b7f8953f5482bc1a621075e75537625fa3bd2025e7df7baf6ba1dbfbf2212912d0c5490613285565b7fec986952a0671e4b2e5ec4461085fb880bc7a7b88668240f8d55173039155d205490613285565b90565b50600090565b906020823d821161340f575b816133ff60209383612ef3565b810103126132755750513861330c565b3d91506133f2565b919082018092116107db57565b919390929484841180809161350d575b1561348d57509161345660a0926113f9613482956113f9899a6134889a612eae565b60608201613465828251612eae565b905261347660808301918251613417565b90520193845192612eae565b90613417565b90525b565b809193969581613502575b50156134b55750505061348260a061348893940193845192612eae565b929192156134c5575b5050505050565b6113f96080936113f96134f6966134db95612eae565b92606081016134eb858251612eae565b905201918251613417565b905238808080806134be565b905085101538613498565b50868611613434565b9290604051927f23b872dd00000000000000000000000000000000000000000000000000000000602085015273ffffffffffffffffffffffffffffffffffffffff809216602485015216604483015260648201526064815260a081019181831067ffffffffffffffff8411176108b55761348b926040525b73ffffffffffffffffffffffffffffffffffffffff16906040516135b181612ebb565b6020928382527f5361666545524332303a206c6f772d6c6576656c2063616c6c206661696c6564848301526000808486829651910182855af13d15613724573d9167ffffffffffffffff83116136f7579061364a9392916040519261363d887fffffffffffffffffffffffffffffffffffffffffffffffffffffffffffffffe0601f8401160185612ef3565b83523d868885013e61372e565b8051918215918483156136cf575b5050509050156136655750565b6084906040519062461bcd60e51b82526004820152602a60248201527f5361666545524332303a204552433230206f7065726174696f6e20646964206e60448201527f6f742073756363656564000000000000000000000000000000000000000000006064820152fd5b9193818094500103126136f357820151908115158203613275575080388084613658565b5080fd5b6024857f4e487b710000000000000000000000000000000000000000000000000000000081526041600452fd5b9061364a92916060915b9192901561378f5750815115613742575090565b3b1561374b5790565b606460405162461bcd60e51b815260206004820152601d60248201527f416464726573733a2063616c6c20746f206e6f6e2d636f6e74726163740000006044820152fd5b8251909150156137a25750805190602001fd5b6040519062461bcd60e51b825281602080600483015282519283602484015260005b848110613805575050507fffffffffffffffffffffffffffffffffffffffffffffffffffffffffffffffe0601f836000604480968601015201168101030190fd5b8181018301518682016044015285935082016137c4565b91926138289193613285565b8015613839576133dd920490613417565b7f4e487b7100000000000000000000000000000000000000000000000000000000600052601260045260246000fd5b80516060820151809103613912575b50602081015160808201518091036138ea575b5060a060408201519101518091036138c2575b507fc576653ddc86d50a6e4d0122949ce4f03ce67b12fb750e4fa8bed8f88ff5f4f255565b7fc576653ddc86d50a6e4d0122949ce4f03ce67b12fb750e4fa8bed8f88ff5f4f0553861389d565b7fc576653ddc86d50a6e4d0122949ce4f03ce67b12fb750e4fa8bed8f88ff5f4ef553861388a565b7fc576653ddc86d50a6e4d0122949ce4f03ce67b12fb750e4fa8bed8f88ff5f4ee5538613877565b6040517fa9059cbb00000000000000000000000000000000000000000000000000000000602082015273ffffffffffffffffffffffffffffffffffffffff92909216602483015260448083019390935291815261348b9161399c606483612ef3565b61358e565b604051906139ae82612ed7565b8160a06000918281528260208201528260408201528260608201528260808201520152565b6139db6139a1565b507fc576653ddc86d50a6e4d0122949ce4f03ce67b12fb750e4fa8bed8f88ff5f4ee547fc576653ddc86d50a6e4d0122949ce4f03ce67b12fb750e4fa8bed8f88ff5f4ef547fc576653ddc86d50a6e4d0122949ce4f03ce67b12fb750e4fa8bed8f88ff5f4f0549060405192613a5084612ed7565b8084528160208501528260408501526060840152608083015260a082015290565b80156107db577fffffffffffffffffffffffffffffffffffffffffffffffffffffffffffffffff0190565b91906000928084526020907fec986952a0671e4b2e5ec4461085fb880bc7a7b88668240f8d55173039155d22825273ffffffffffffffffffffffffffffffffffffffff92604090846003838920015416948515613dfb57338614908115613dce575b5015613d6557613b657fec986952a0671e4b2e5ec4461085fb880bc7a7b88668240f8d55173039155d209586549089527fec986952a0671e4b2e5ec4461085fb880bc7a7b88668240f8d55173039155d218652838920613b5e8154613a71565b9055613a71565b80955560028101809111613d38578287527fec986952a0671e4b2e5ec4461085fb880bc7a7b88668240f8d55173039155d278452818720557fec986952a0671e4b2e5ec4461085fb880bc7a7b88668240f8d55173039155d2695868452818120966001835198613bd48a612ebb565b80548a52015497858101988952613beb8582613ebe565b15613cf5577f319861d91651b1d776940afecf33ec848245a2b1fb1854613bbe2a367b54f792969798815180159081613ccc575b8251918215613ca4575b15613c91575b5050519081613c7f575b50508382528452600182822082815501557fec986952a0671e4b2e5ec4461085fb880bc7a7b88668240f8d55173039155d25613c758154613a71565b905551908152a190565b51908352818652838320553880613c39565b8552838852600186862001553880613c2f565b817fec986952a0671e4b2e5ec4461085fb880bc7a7b88668240f8d55173039155d2455613c29565b82517fec986952a0671e4b2e5ec4461085fb880bc7a7b88668240f8d55173039155d2355613c1f565b60648685519062461bcd60e51b82526004820152601260248201527f4b657920646f6573206e6f7420657869737400000000000000000000000000006044820152fd5b6024877f4e487b710000000000000000000000000000000000000000000000000000000081526011600452fd5b60848483519062461bcd60e51b82526004820152602d60248201527f4f6e6c792070726f7669646572206f72206465616c206f776e65722063616e2060448201527f72656d6f766520776f726b6572000000000000000000000000000000000000006064820152fd5b90507f612e56b0fc389e6dab6fa70e140af078f831069f9c4d9558e645bdefbbc811235416331438613afe565b60648584519062461bcd60e51b82526004820152601560248201527f436f6d70757465556e6974206e6f7420666f756e6400000000000000000000006044820152fd5b9081511591821592613eb0575b508115613e85575b8115613e5d575090565b90507f8953f5482bc1a621075e75537625fa3bd2025e7df7baf6ba1dbfbf2212912d10541490565b7f8953f5482bc1a621075e75537625fa3bd2025e7df7baf6ba1dbfbf2212912d0f5481149150613e53565b602001511515915038613e4b565b9081511591821592613f30575b508115613f05575b8115613edd575090565b90507fec986952a0671e4b2e5ec4461085fb880bc7a7b88668240f8d55173039155d24541490565b7fec986952a0671e4b2e5ec4461085fb880bc7a7b88668240f8d55173039155d235481149150613ed3565b602001511515915038613ecb565b801561407b5760008181527f8953f5482bc1a621075e75537625fa3bd2025e7df7baf6ba1dbfbf2212912d129081602052613f968360408320600160405191613f8683612ebb565b8054835201546020820152613e3e565b614037577f8953f5482bc1a621075e75537625fa3bd2025e7df7baf6ba1dbfbf2212912d10918254907f8953f5482bc1a621075e75537625fa3bd2025e7df7baf6ba1dbfbf2212912d11613fea8154612f4c565b905584821561400f579060409392916001955585835260205280838320558152200155565b7f8953f5482bc1a621075e75537625fa3bd2025e7df7baf6ba1dbfbf2212912d0f5550505055565b606460405162461bcd60e51b815260206004820152601260248201527f4b657920616c72656164792065786973747300000000000000000000000000006044820152fd5b606460405162461bcd60e51b815260206004820152601260248201527f4b65792063616e6e6f74206265205a45524f00000000000000000000000000006044820152fd5b801561407b5760008181527fec986952a0671e4b2e5ec4461085fb880bc7a7b88668240f8d55173039155d269081602052614117836040832060016040519161410783612ebb565b8054835201546020820152613ebe565b614037577fec986952a0671e4b2e5ec4461085fb880bc7a7b88668240f8d55173039155d24918254907fec986952a0671e4b2e5ec4461085fb880bc7a7b88668240f8d55173039155d2561416b8154612f4c565b9055848215614190579060409392916001955585835260205280838320558152200155565b7fec986952a0671e4b2e5ec4461085fb880bc7a7b88668240f8d55173039155d235550505055565b73ffffffffffffffffffffffffffffffffffffffff80911690811561424a577f612e56b0fc389e6dab6fa70e140af078f831069f9c4d9558e645bdefbbc81123805490837fffffffffffffffffffffffff00000000000000000000000000000000000000008316179055167f8be0079c531659141344cd1fd0a4f28419497f9722a3daafe3b4186f6b6457e0600080a3565b60246040517f1e4fbdf700000000000000000000000000000000000000000000000000000000815260006004820152fd5b73ffffffffffffffffffffffffffffffffffffffff7f612e56b0fc389e6dab6fa70e140af078f831069f9c4d9558e645bdefbbc81123541633036142bb57565b60246040517f118cdaa7000000000000000000000000000000000000000000000000000000008152336004820152fdfea26469706673582212208b4e4f8e30d1293018cf96da13212d7097faedb736cd33c9b54afe12e0fcfbda64736f6c63430008130033",
  "devdoc": {
    "errors": {
      "OwnableInvalidOwner(address)": [
        {
          "details": "The owner is not a valid owner account. (eg. `address(0)`)"
        }
      ],
      "OwnableUnauthorizedAccount(address)": [
        {
          "details": "The caller account is not authorized to perform an operation."
        }
      ]
    },
    "events": {
      "Initialized(uint8)": {
        "details": "Triggered when the contract has been initialized or reinitialized."
      }
    },
    "kind": "dev",
    "methods": {
      "owner()": {
        "details": "Returns the address of the current owner."
      },
      "renounceOwnership()": {
        "details": "Leaves the contract without owner. It will not be possible to call `onlyOwner` functions. Can only be called by the current owner. NOTE: Renouncing ownership will leave the contract without an owner, thereby disabling any functionality that is only available to the owner."
      },
      "transferOwnership(address)": {
        "details": "Transfers ownership of the contract to a new account (`newOwner`). Can only be called by the current owner."
      }
    },
    "version": 1
  },
  "userdoc": {
    "kind": "user",
    "methods": {},
    "version": 1
  },
  "storageLayout": {
    "storage": [
      {
        "astId": 371,
        "contract": "contracts/deal/Deal.sol:Deal",
        "label": "_initialized",
        "offset": 0,
        "slot": "0",
        "type": "t_uint8"
      },
      {
        "astId": 374,
        "contract": "contracts/deal/Deal.sol:Deal",
        "label": "_initializing",
        "offset": 1,
        "slot": "0",
        "type": "t_bool"
      },
      {
        "astId": 8473,
        "contract": "contracts/deal/Deal.sol:Deal",
        "label": "_storage",
        "offset": 0,
        "slot": "1",
        "type": "t_struct(OwnableStorage)8470_storage"
      },
      {
        "astId": 2674,
        "contract": "contracts/deal/Deal.sol:Deal",
        "label": "_storage",
        "offset": 0,
        "slot": "2",
        "type": "t_struct(ConfigStorage)2671_storage"
      },
      {
        "astId": 4619,
        "contract": "contracts/deal/Deal.sol:Deal",
        "label": "_storage",
        "offset": 0,
        "slot": "17",
        "type": "t_struct(WorkerManagerStorage)4616_storage"
      },
      {
        "astId": 3241,
        "contract": "contracts/deal/Deal.sol:Deal",
        "label": "_storage",
        "offset": 0,
        "slot": "25",
        "type": "t_struct(DealStorage)3238_storage"
      }
    ],
    "types": {
      "t_address": {
        "encoding": "inplace",
        "label": "address",
        "numberOfBytes": "20"
      },
      "t_array(t_struct(CIDV1)5099_storage)dyn_storage": {
        "base": "t_struct(CIDV1)5099_storage",
        "encoding": "dynamic_array",
        "label": "struct CIDV1[]",
        "numberOfBytes": "32"
      },
      "t_bool": {
        "encoding": "inplace",
        "label": "bool",
        "numberOfBytes": "1"
      },
      "t_bytes32": {
        "encoding": "inplace",
        "label": "bytes32",
        "numberOfBytes": "32"
      },
      "t_bytes4": {
        "encoding": "inplace",
        "label": "bytes4",
        "numberOfBytes": "4"
      },
      "t_contract(IERC20)1621": {
        "encoding": "inplace",
        "label": "contract IERC20",
        "numberOfBytes": "20"
      },
      "t_enum(AccessType)5107": {
        "encoding": "inplace",
        "label": "enum IConfig.AccessType",
        "numberOfBytes": "1"
      },
      "t_mapping(t_address,t_struct(ComputeProviderInfo)4583_storage)": {
        "encoding": "mapping",
        "key": "t_address",
        "label": "mapping(address => struct WorkerManager.ComputeProviderInfo)",
        "numberOfBytes": "32",
        "value": "t_struct(ComputeProviderInfo)4583_storage"
      },
      "t_mapping(t_bytes32,t_struct(ComputeUnit)5325_storage)": {
        "encoding": "mapping",
        "key": "t_bytes32",
        "label": "mapping(bytes32 => struct IWorkerManager.ComputeUnit)",
        "numberOfBytes": "32",
        "value": "t_struct(ComputeUnit)5325_storage"
      },
      "t_mapping(t_bytes32,t_struct(ComputeUnitPaymentInfo)3205_storage)": {
        "encoding": "mapping",
        "key": "t_bytes32",
        "label": "mapping(bytes32 => struct Deal.ComputeUnitPaymentInfo)",
        "numberOfBytes": "32",
        "value": "t_struct(ComputeUnitPaymentInfo)3205_storage"
      },
      "t_mapping(t_bytes32,t_struct(Element)8058_storage)": {
        "encoding": "mapping",
        "key": "t_bytes32",
        "label": "mapping(bytes32 => struct LinkedListWithUniqueKeys.Element)",
        "numberOfBytes": "32",
        "value": "t_struct(Element)8058_storage"
      },
      "t_mapping(t_bytes32,t_uint256)": {
        "encoding": "mapping",
        "key": "t_bytes32",
        "label": "mapping(bytes32 => uint256)",
        "numberOfBytes": "32",
        "value": "t_uint256"
      },
      "t_struct(Bytes32List)8070_storage": {
        "encoding": "inplace",
        "label": "struct LinkedListWithUniqueKeys.Bytes32List",
        "members": [
          {
            "astId": 8060,
            "contract": "contracts/deal/Deal.sol:Deal",
            "label": "_first",
            "offset": 0,
            "slot": "0",
            "type": "t_bytes32"
          },
          {
            "astId": 8062,
            "contract": "contracts/deal/Deal.sol:Deal",
            "label": "_last",
            "offset": 0,
            "slot": "1",
            "type": "t_bytes32"
          },
          {
            "astId": 8064,
            "contract": "contracts/deal/Deal.sol:Deal",
            "label": "_length",
            "offset": 0,
            "slot": "2",
            "type": "t_uint256"
          },
          {
            "astId": 8069,
            "contract": "contracts/deal/Deal.sol:Deal",
            "label": "_elements",
            "offset": 0,
            "slot": "3",
            "type": "t_mapping(t_bytes32,t_struct(Element)8058_storage)"
          }
        ],
        "numberOfBytes": "128"
      },
      "t_struct(CIDV1)5099_storage": {
        "encoding": "inplace",
        "label": "struct CIDV1",
        "members": [
          {
            "astId": 5096,
            "contract": "contracts/deal/Deal.sol:Deal",
            "label": "prefixes",
            "offset": 0,
            "slot": "0",
            "type": "t_bytes4"
          },
          {
            "astId": 5098,
            "contract": "contracts/deal/Deal.sol:Deal",
            "label": "hash",
            "offset": 0,
            "slot": "1",
            "type": "t_bytes32"
          }
        ],
        "numberOfBytes": "64"
      },
      "t_struct(ComputeProviderInfo)4583_storage": {
        "encoding": "inplace",
        "label": "struct WorkerManager.ComputeProviderInfo",
        "members": [
          {
            "astId": 4579,
            "contract": "contracts/deal/Deal.sol:Deal",
            "label": "computeUnitCount",
            "offset": 0,
            "slot": "0",
            "type": "t_uint256"
          },
          {
            "astId": 4582,
            "contract": "contracts/deal/Deal.sol:Deal",
            "label": "computeUnitsIds",
            "offset": 0,
            "slot": "1",
            "type": "t_struct(Bytes32List)8070_storage"
          }
        ],
        "numberOfBytes": "160"
      },
      "t_struct(ComputeUnit)5325_storage": {
        "encoding": "inplace",
        "label": "struct IWorkerManager.ComputeUnit",
        "members": [
          {
            "astId": 5314,
            "contract": "contracts/deal/Deal.sol:Deal",
            "label": "id",
            "offset": 0,
            "slot": "0",
            "type": "t_bytes32"
          },
          {
            "astId": 5316,
            "contract": "contracts/deal/Deal.sol:Deal",
            "label": "peerId",
            "offset": 0,
            "slot": "1",
            "type": "t_bytes32"
          },
          {
            "astId": 5318,
            "contract": "contracts/deal/Deal.sol:Deal",
            "label": "workerId",
            "offset": 0,
            "slot": "2",
            "type": "t_bytes32"
          },
          {
            "astId": 5320,
            "contract": "contracts/deal/Deal.sol:Deal",
            "label": "owner",
            "offset": 0,
            "slot": "3",
            "type": "t_address"
          },
          {
            "astId": 5322,
            "contract": "contracts/deal/Deal.sol:Deal",
            "label": "collateral",
            "offset": 0,
            "slot": "4",
            "type": "t_uint256"
          },
          {
            "astId": 5324,
            "contract": "contracts/deal/Deal.sol:Deal",
            "label": "created",
            "offset": 0,
            "slot": "5",
            "type": "t_uint256"
          }
        ],
        "numberOfBytes": "192"
      },
      "t_struct(ComputeUnitPaymentInfo)3205_storage": {
        "encoding": "inplace",
        "label": "struct Deal.ComputeUnitPaymentInfo",
        "members": [
          {
            "astId": 3202,
            "contract": "contracts/deal/Deal.sol:Deal",
            "label": "startedEpoch",
            "offset": 0,
            "slot": "0",
            "type": "t_uint256"
          },
          {
            "astId": 3204,
            "contract": "contracts/deal/Deal.sol:Deal",
            "label": "gapsDelta",
            "offset": 0,
            "slot": "1",
            "type": "t_uint256"
          }
        ],
        "numberOfBytes": "64"
      },
      "t_struct(ConfigStorage)2671_storage": {
        "encoding": "inplace",
        "label": "struct Config.ConfigStorage",
        "members": [
          {
            "astId": 2644,
            "contract": "contracts/deal/Deal.sol:Deal",
            "label": "creationBlock",
            "offset": 0,
            "slot": "0",
            "type": "t_uint256"
          },
          {
            "astId": 2647,
            "contract": "contracts/deal/Deal.sol:Deal",
            "label": "appCID",
            "offset": 0,
            "slot": "1",
            "type": "t_struct(CIDV1)5099_storage"
          },
          {
            "astId": 2650,
            "contract": "contracts/deal/Deal.sol:Deal",
            "label": "paymentToken",
            "offset": 0,
            "slot": "3",
            "type": "t_contract(IERC20)1621"
          },
          {
            "astId": 2652,
            "contract": "contracts/deal/Deal.sol:Deal",
            "label": "collateralPerWorker",
            "offset": 0,
            "slot": "4",
            "type": "t_uint256"
          },
          {
            "astId": 2654,
            "contract": "contracts/deal/Deal.sol:Deal",
            "label": "minWorkers",
            "offset": 0,
            "slot": "5",
            "type": "t_uint256"
          },
          {
            "astId": 2656,
            "contract": "contracts/deal/Deal.sol:Deal",
            "label": "targetWorkers",
            "offset": 0,
            "slot": "6",
            "type": "t_uint256"
          },
          {
            "astId": 2658,
            "contract": "contracts/deal/Deal.sol:Deal",
            "label": "maxWorkersPerProvider",
            "offset": 0,
            "slot": "7",
            "type": "t_uint256"
          },
          {
            "astId": 2660,
            "contract": "contracts/deal/Deal.sol:Deal",
            "label": "pricePerWorkerEpoch",
            "offset": 0,
            "slot": "8",
            "type": "t_uint256"
          },
          {
            "astId": 2664,
            "contract": "contracts/deal/Deal.sol:Deal",
            "label": "effectors",
            "offset": 0,
            "slot": "9",
            "type": "t_array(t_struct(CIDV1)5099_storage)dyn_storage"
          },
          {
            "astId": 2667,
            "contract": "contracts/deal/Deal.sol:Deal",
            "label": "accessType",
            "offset": 0,
            "slot": "10",
            "type": "t_enum(AccessType)5107"
          },
          {
            "astId": 2670,
            "contract": "contracts/deal/Deal.sol:Deal",
            "label": "accessList",
            "offset": 0,
            "slot": "11",
            "type": "t_struct(Bytes32List)8070_storage"
          }
        ],
        "numberOfBytes": "480"
      },
      "t_struct(DealStorage)3238_storage": {
        "encoding": "inplace",
        "label": "struct Deal.DealStorage",
        "members": [
          {
            "astId": 3220,
            "contract": "contracts/deal/Deal.sol:Deal",
            "label": "totalBalance",
            "offset": 0,
            "slot": "0",
            "type": "t_uint256"
          },
          {
            "astId": 3222,
            "contract": "contracts/deal/Deal.sol:Deal",
            "label": "lockedBalance",
            "offset": 0,
            "slot": "1",
            "type": "t_uint256"
          },
          {
            "astId": 3224,
            "contract": "contracts/deal/Deal.sol:Deal",
            "label": "gapsEpochCount",
            "offset": 0,
            "slot": "2",
            "type": "t_uint256"
          },
          {
            "astId": 3226,
            "contract": "contracts/deal/Deal.sol:Deal",
            "label": "maxPaidEpoch",
            "offset": 0,
            "slot": "3",
            "type": "t_uint256"
          },
          {
            "astId": 3228,
            "contract": "contracts/deal/Deal.sol:Deal",
            "label": "lastCommitedEpoch",
            "offset": 0,
            "slot": "4",
            "type": "t_uint256"
          },
          {
            "astId": 3233,
            "contract": "contracts/deal/Deal.sol:Deal",
            "label": "cUnitPaymentInfo",
            "offset": 0,
            "slot": "5",
            "type": "t_mapping(t_bytes32,t_struct(ComputeUnitPaymentInfo)3205_storage)"
          },
          {
            "astId": 3235,
            "contract": "contracts/deal/Deal.sol:Deal",
            "label": "isEnded",
            "offset": 0,
            "slot": "6",
            "type": "t_bool"
          },
          {
            "astId": 3237,
            "contract": "contracts/deal/Deal.sol:Deal",
            "label": "endedEpoch",
            "offset": 0,
            "slot": "7",
            "type": "t_uint256"
          }
        ],
        "numberOfBytes": "256"
      },
      "t_struct(Element)8058_storage": {
        "encoding": "inplace",
        "label": "struct LinkedListWithUniqueKeys.Element",
        "members": [
          {
            "astId": 8055,
            "contract": "contracts/deal/Deal.sol:Deal",
            "label": "prev",
            "offset": 0,
            "slot": "0",
            "type": "t_bytes32"
          },
          {
            "astId": 8057,
            "contract": "contracts/deal/Deal.sol:Deal",
            "label": "next",
            "offset": 0,
            "slot": "1",
            "type": "t_bytes32"
          }
        ],
        "numberOfBytes": "64"
      },
      "t_struct(OwnableStorage)8470_storage": {
        "encoding": "inplace",
        "label": "struct Ownable.OwnableStorage",
        "members": [
          {
            "astId": 8469,
            "contract": "contracts/deal/Deal.sol:Deal",
            "label": "owner",
            "offset": 0,
            "slot": "0",
            "type": "t_address"
          }
        ],
        "numberOfBytes": "32"
      },
      "t_struct(WorkerManagerStorage)4616_storage": {
        "encoding": "inplace",
        "label": "struct WorkerManager.WorkerManagerStorage",
        "members": [
          {
            "astId": 4598,
            "contract": "contracts/deal/Deal.sol:Deal",
            "label": "computeUnitCount",
            "offset": 0,
            "slot": "0",
            "type": "t_uint256"
          },
          {
            "astId": 4603,
            "contract": "contracts/deal/Deal.sol:Deal",
            "label": "computeProviderInfo",
            "offset": 0,
            "slot": "1",
            "type": "t_mapping(t_address,t_struct(ComputeProviderInfo)4583_storage)"
          },
          {
            "astId": 4608,
            "contract": "contracts/deal/Deal.sol:Deal",
            "label": "computeUnitById",
            "offset": 0,
            "slot": "2",
            "type": "t_mapping(t_bytes32,t_struct(ComputeUnit)5325_storage)"
          },
          {
            "astId": 4611,
            "contract": "contracts/deal/Deal.sol:Deal",
            "label": "computeUnitsIdsList",
            "offset": 0,
            "slot": "3",
            "type": "t_struct(Bytes32List)8070_storage"
          },
          {
            "astId": 4615,
            "contract": "contracts/deal/Deal.sol:Deal",
            "label": "collateralWithdrawEpochByComputeUnitId",
            "offset": 0,
            "slot": "7",
            "type": "t_mapping(t_bytes32,t_uint256)"
          }
        ],
        "numberOfBytes": "256"
      },
      "t_uint256": {
        "encoding": "inplace",
        "label": "uint256",
        "numberOfBytes": "32"
      },
      "t_uint8": {
        "encoding": "inplace",
        "label": "uint8",
        "numberOfBytes": "1"
      }
    }
  }
}