{
  "address": "0xab66BeC0f68fF103eE705be55E59778CfA273479",
  "abi": [
    {
      "inputs": [
        {
          "internalType": "contract IGlobalCore",
          "name": "globalCore_",
          "type": "address"
        },
        {
          "internalType": "contract IDeal",
          "name": "dealImpl_",
          "type": "address"
        }
      ],
      "stateMutability": "nonpayable",
      "type": "constructor"
    },
    {
      "inputs": [
        {
          "internalType": "address",
          "name": "owner",
          "type": "address"
        }
      ],
      "name": "OwnableInvalidOwner",
      "type": "error"
    },
    {
      "inputs": [
        {
          "internalType": "address",
          "name": "account",
          "type": "address"
        }
      ],
      "name": "OwnableUnauthorizedAccount",
      "type": "error"
    },
    {
      "anonymous": false,
      "inputs": [
        {
          "indexed": false,
          "internalType": "address",
          "name": "previousAdmin",
          "type": "address"
        },
        {
          "indexed": false,
          "internalType": "address",
          "name": "newAdmin",
          "type": "address"
        }
      ],
      "name": "AdminChanged",
      "type": "event"
    },
    {
      "anonymous": false,
      "inputs": [
        {
          "indexed": true,
          "internalType": "address",
          "name": "beacon",
          "type": "address"
        }
      ],
      "name": "BeaconUpgraded",
      "type": "event"
    },
    {
      "anonymous": false,
      "inputs": [
        {
          "indexed": true,
          "internalType": "address",
          "name": "owner",
          "type": "address"
        },
        {
          "indexed": false,
          "internalType": "contract IDeal",
          "name": "deal",
          "type": "address"
        },
        {
          "indexed": false,
          "internalType": "uint256",
          "name": "createdAtEpoch",
          "type": "uint256"
        }
      ],
      "name": "DealCreated",
      "type": "event"
    },
    {
      "anonymous": false,
      "inputs": [
        {
          "indexed": false,
          "internalType": "uint8",
          "name": "version",
          "type": "uint8"
        }
      ],
      "name": "Initialized",
      "type": "event"
    },
    {
      "anonymous": false,
      "inputs": [
        {
          "indexed": true,
          "internalType": "address",
          "name": "previousOwner",
          "type": "address"
        },
        {
          "indexed": true,
          "internalType": "address",
          "name": "newOwner",
          "type": "address"
        }
      ],
      "name": "OwnershipTransferred",
      "type": "event"
    },
    {
      "anonymous": false,
      "inputs": [
        {
          "indexed": true,
          "internalType": "address",
          "name": "implementation",
          "type": "address"
        }
      ],
      "name": "Upgraded",
      "type": "event"
    },
    {
      "inputs": [],
      "name": "dealImpl",
      "outputs": [
        {
          "internalType": "contract IDeal",
          "name": "",
          "type": "address"
        }
      ],
      "stateMutability": "view",
      "type": "function"
    },
    {
      "inputs": [
        {
          "components": [
            {
              "internalType": "bytes4",
              "name": "prefixes",
              "type": "bytes4"
            },
            {
              "internalType": "bytes32",
              "name": "hash",
              "type": "bytes32"
            }
          ],
          "internalType": "struct CIDV1",
          "name": "appCID_",
          "type": "tuple"
        },
        {
          "internalType": "contract IERC20",
          "name": "paymentToken_",
          "type": "address"
        },
        {
          "internalType": "uint256",
          "name": "collateralPerWorker_",
          "type": "uint256"
        },
        {
          "internalType": "uint256",
          "name": "minWorkers_",
          "type": "uint256"
        },
        {
          "internalType": "uint256",
          "name": "targetWorkers_",
          "type": "uint256"
        },
        {
          "internalType": "uint256",
          "name": "maxWorkersPerProvider_",
          "type": "uint256"
        },
        {
          "internalType": "uint256",
          "name": "pricePerWorkerEpoch_",
          "type": "uint256"
        },
        {
          "components": [
            {
              "internalType": "bytes4",
              "name": "prefixes",
              "type": "bytes4"
            },
            {
              "internalType": "bytes32",
              "name": "hash",
              "type": "bytes32"
            }
          ],
          "internalType": "struct CIDV1[]",
          "name": "effectors_",
          "type": "tuple[]"
        },
        {
          "internalType": "enum IConfig.AccessType",
          "name": "accessType_",
          "type": "uint8"
        },
        {
          "internalType": "address[]",
          "name": "accessList_",
          "type": "address[]"
        }
      ],
      "name": "deployDeal",
      "outputs": [
        {
          "internalType": "contract IDeal",
          "name": "",
          "type": "address"
        }
      ],
      "stateMutability": "nonpayable",
      "type": "function"
    },
    {
      "inputs": [],
      "name": "globalCore",
      "outputs": [
        {
          "internalType": "contract IGlobalCore",
          "name": "",
          "type": "address"
        }
      ],
      "stateMutability": "view",
      "type": "function"
    },
    {
      "inputs": [
        {
          "internalType": "contract IDeal",
          "name": "deal",
          "type": "address"
        }
      ],
      "name": "hasDeal",
      "outputs": [
        {
          "internalType": "bool",
          "name": "",
          "type": "bool"
        }
      ],
      "stateMutability": "view",
      "type": "function"
    },
    {
      "inputs": [],
      "name": "initialize",
      "outputs": [],
      "stateMutability": "nonpayable",
      "type": "function"
    },
    {
      "inputs": [],
      "name": "owner",
      "outputs": [
        {
          "internalType": "address",
          "name": "",
          "type": "address"
        }
      ],
      "stateMutability": "view",
      "type": "function"
    },
    {
      "inputs": [],
      "name": "proxiableUUID",
      "outputs": [
        {
          "internalType": "bytes32",
          "name": "",
          "type": "bytes32"
        }
      ],
      "stateMutability": "view",
      "type": "function"
    },
    {
      "inputs": [],
      "name": "renounceOwnership",
      "outputs": [],
      "stateMutability": "nonpayable",
      "type": "function"
    },
    {
      "inputs": [
        {
          "internalType": "address",
          "name": "newOwner",
          "type": "address"
        }
      ],
      "name": "transferOwnership",
      "outputs": [],
      "stateMutability": "nonpayable",
      "type": "function"
    },
    {
      "inputs": [
        {
          "internalType": "address",
          "name": "newImplementation",
          "type": "address"
        }
      ],
      "name": "upgradeTo",
      "outputs": [],
      "stateMutability": "nonpayable",
      "type": "function"
    },
    {
      "inputs": [
        {
          "internalType": "address",
          "name": "newImplementation",
          "type": "address"
        },
        {
          "internalType": "bytes",
          "name": "data",
          "type": "bytes"
        }
      ],
      "name": "upgradeToAndCall",
      "outputs": [],
      "stateMutability": "payable",
      "type": "function"
    }
  ],
  "transactionHash": "0x7868cf2d341dcd48ed1ec98d95218297a12d2d45d677049519071a534fd4298c",
  "args": [
    "0x373eE29948CD4b73b5f7dE88B0E2AD6E3424f580",
    "0x8bD69B42022001C14294A53c0F07fecb3443276B"
  ],
  "numDeployments": 1,
  "solcInputHash": "b515736a5cbcd5173b0e1e2ce796a27d",
  "bytecode": "0x60e0346100ae57601f611f0b38819003918201601f19168301916001600160401b038311848410176100b35780849260409485528339810103126100ae5780516001600160a01b039182821682036100ae576020015191821682036100ae573060805260a05260c052604051611e4190816100ca8239608051818181610bdf01528181610d4701526110b6015260a0518181816106d50152611331015260c05181818161010c01526104580152f35b600080fd5b634e487b7160e01b600052604160045260246000fdfe60808060405260043610156200001457600080fd5b600090813560e01c908163210530531462001355575080632aa74c6814620013025780633659cfe6146200107f5780634f1ef2861462000cb457806352d1902d1462000bb5578063715018a61462000b115780638129fc1c146200093b578063856f19c514620001855780638da5cb5b1462000130578063d6a5a04b14620000dd5763f2fde38b14620000a657600080fd5b34620000da576020600319360112620000da57620000d7620000c7620013c2565b620000d16200196e565b620018aa565b80f35b80fd5b5034620000da5780600319360112620000da57602060405173ffffffffffffffffffffffffffffffffffffffff7f0000000000000000000000000000000000000000000000000000000000000000168152f35b5034620000da5780600319360112620000da57602073ffffffffffffffffffffffffffffffffffffffff7fc43ef91433cf7d0ab2ca98c18785d28d6a5685461d30e867805d7a83cc8deb805416604051908152f35b5034620000da5760031936016101608112620007a757604013620000da576044359073ffffffffffffffffffffffffffffffffffffffff82168203620000da5767ffffffffffffffff6101043511620000da5736602361010435011215620000da5767ffffffffffffffff610104356004013511620000da57366024610104356004013560061b61010435010111620000da576003610124351015620000da5767ffffffffffffffff6101443511620000da5736602361014435011215620000da5767ffffffffffffffff610144356004013511620000da57366024610144356004013560051b61014435010111620000da576040517f206bb6e80000000000000000000000000000000000000000000000000000000060208201526004357fffffffff000000000000000000000000000000000000000000000000000000008116810362000777577fffffffff00000000000000000000000000000000000000000000000000000000166024820152602435604482015273ffffffffffffffffffffffffffffffffffffffff83166064820152606435608482015260843560a482015260a43560c482015260c43560e482015260e4356101048201526101806101248201526101a48101610104356004013590526101c481016024610104350190835b61010435600401358110620008cf575060209150610124356101448401527fffffffffffffffffffffffffffffffffffffffffffffffffffffffffffffffdc838203016101648401526101443560040135815201816024610144350191845b6101443560040135811062000892575062000412925033610184830152037fffffffffffffffffffffffffffffffffffffffffffffffffffffffffffffffe081018352826200144c565b6040519061042c8083019083821067ffffffffffffffff831117620008655791604062000488928594620019e0863973ffffffffffffffffffffffffffffffffffffffff7f00000000000000000000000000000000000000000000000000000000000000001681528160208201520190620017a4565b039082f08015620008585773ffffffffffffffffffffffffffffffffffffffff16918282527fed7c04f0edbd3c3a1a0abef5e79682baa534f9aebaae64bdb87f63c8f3f26e216020526040822060017fffffffffffffffffffffffffffffffffffffffffffffffffffffffffffffff0082541617905560a43560e435029060e435820460a4351460e4351517156200082b578160011b91808304600214901517156200082b576040517f23b872dd0000000000000000000000000000000000000000000000000000000081523360048201523060248201528260448201526020816064818773ffffffffffffffffffffffffffffffffffffffff87165af1801562000820576044859360209373ffffffffffffffffffffffffffffffffffffffff93620007fe575b5060405194859384927f095ea7b30000000000000000000000000000000000000000000000000000000084528a6004850152886024850152165af180156200078457620007c8575b50823b15620007a757604051907fb6b55f250000000000000000000000000000000000000000000000000000000082526004820152818160248183875af18015620007ab57620007b6575b5090803b15620007a757816040517ff2fde38b000000000000000000000000000000000000000000000000000000008152336004820152818160248183875af18015620007ab576200078f575b50506040517f7667180800000000000000000000000000000000000000000000000000000000815260208160048173ffffffffffffffffffffffffffffffffffffffff7f0000000000000000000000000000000000000000000000000000000000000000165afa9081156200078457839162000744575b6020838360405190828252838201527f5d7193b85584b797ec2ad4b4652dbe3503bda615592828b3109879d19d9178d660403392a2604051908152f35b90506020813d6020116200077b575b8162000762602093836200144c565b81010312620007775760209250513862000707565b8280fd5b3d915062000753565b6040513d85823e3d90fd5b6200079a90620013eb565b620007a757813862000690565b5080fd5b6040513d84823e3d90fd5b620007c190620013eb565b3862000643565b620007ee9060203d602011620007f6575b620007e581836200144c565b81019062001890565b5038620005f8565b503d620007d9565b6200081890853d8711620007f657620007e581836200144c565b5038620005b0565b6040513d86823e3d90fd5b6024837f4e487b710000000000000000000000000000000000000000000000000000000081526011600452fd5b50604051903d90823e3d90fd5b6024857f4e487b710000000000000000000000000000000000000000000000000000000081526041600452fd5b9150823573ffffffffffffffffffffffffffffffffffffffff8116809103620008cb5781526020928301928492910190600101620003c8565b8580fd5b9082357fffffffff0000000000000000000000000000000000000000000000000000000081168103620008cb577fffffffff0000000000000000000000000000000000000000000000000000000016815260208381013590820152604092830192019060010162000369565b5034620000da5780600319360112620000da57805460ff8160081c16159081809262000b03575b801562000aea575b1562000a66578160017fffffffffffffffffffffffffffffffffffffffffffffffffffffffffffffff00831617845562000a37575b50620009bd60ff835460081c16620009b78162001804565b62001804565b620009c833620018aa565b815490620009dc60ff8360081c1662001804565b620009e5575080f35b7fffffffffffffffffffffffffffffffffffffffffffffffffffffffffffff00ff1681557f7f26b83ff96e1f2b6a682f133852f6798a09c465da95921460cefb3847402498602060405160018152a180f35b7fffffffffffffffffffffffffffffffffffffffffffffffffffffffffffff000016610101178255386200099f565b60846040517f08c379a000000000000000000000000000000000000000000000000000000000815260206004820152602e60248201527f496e697469616c697a61626c653a20636f6e747261637420697320616c72656160448201527f647920696e697469616c697a65640000000000000000000000000000000000006064820152fd5b50303b1580156200096a5750600160ff8216146200096a565b50600160ff82161062000962565b5034620000da5780600319360112620000da5762000b2e6200196e565b8073ffffffffffffffffffffffffffffffffffffffff7fc43ef91433cf7d0ab2ca98c18785d28d6a5685461d30e867805d7a83cc8deb808054907fffffffffffffffffffffffff000000000000000000000000000000000000000082169055167f8be0079c531659141344cd1fd0a4f28419497f9722a3daafe3b4186f6b6457e08280a380f35b5034620000da5780600319360112620000da5773ffffffffffffffffffffffffffffffffffffffff7f000000000000000000000000000000000000000000000000000000000000000016300362000c305760206040517f360894a13ba1a3210667c828492db98dca3e2076cc3735a920a3ca505d382bbc8152f35b60846040517f08c379a000000000000000000000000000000000000000000000000000000000815260206004820152603860248201527f555550535570677261646561626c653a206d757374206e6f742062652063616c60448201527f6c6564207468726f7567682064656c656761746563616c6c00000000000000006064820152fd5b506040600319360112620000da5762000ccc620013c2565b6024359067ffffffffffffffff82116200077757366023830112156200077757816004013562000cfc816200148e565b62000d0b60405191826200144c565b81815284602094858301933660248284010111620007775780602488930186378301015273ffffffffffffffffffffffffffffffffffffffff807f0000000000000000000000000000000000000000000000000000000000000000169062000d7682301415620014c9565b62000da77f360894a13ba1a3210667c828492db98dca3e2076cc3735a920a3ca505d382bbc92828454161462001555565b62000db16200196e565b7f4910fdfa16fed3260ed0e7147f7cc6da11a60208b5b9406d12a635614ffd91435460ff161562000dec5750505050620000d79150620015e1565b8492939416906040517f52d1902d0000000000000000000000000000000000000000000000000000000081528681600481865afa88918162001046575b5062000eb357608487604051907f08c379a00000000000000000000000000000000000000000000000000000000082526004820152602e60248201527f45524331393637557067726164653a206e657720696d706c656d656e7461746960448201527f6f6e206973206e6f7420555550530000000000000000000000000000000000006064820152fd5b959394950362000fc25762000ec882620015e1565b7fbc7cd75a20ee27fd9adebab32041f755214dbc6bffa90cc0225b39da2e5c2d3b8680a28483511580159062000fb9575b62000f07575b505050505080f35b8062000fa3956040519562000f1c876200142f565b602787527f416464726573733a206c6f772d6c6576656c2064656c65676174652063616c6c868801527f206661696c65640000000000000000000000000000000000000000000000000060408801525190845af4903d1562000faf573d62000f84816200148e565b9062000f9460405192836200144c565b81528681943d92013e620016ce565b50388080808462000eff565b60609250620016ce565b50600162000ef9565b608483604051907f08c379a00000000000000000000000000000000000000000000000000000000082526004820152602960248201527f45524331393637557067726164653a20756e737570706f727465642070726f7860448201527f6961626c655555494400000000000000000000000000000000000000000000006064820152fd5b9091508781813d831162001077575b6200106181836200144c565b81010312620010735751903862000e29565b8880fd5b503d62001055565b5034620000da57602080600319360112620007a7576200109e620013c2565b73ffffffffffffffffffffffffffffffffffffffff807f000000000000000000000000000000000000000000000000000000000000000016620010e481301415620014c9565b620011157f360894a13ba1a3210667c828492db98dca3e2076cc3735a920a3ca505d382bbc91838354161462001555565b6200111f6200196e565b604051908482019282841067ffffffffffffffff851117620012d5578360405286835260ff7f4910fdfa16fed3260ed0e7147f7cc6da11a60208b5b9406d12a635614ffd914354166000146200117f5750505050620000d79150620015e1565b8492939416906040517f52d1902d0000000000000000000000000000000000000000000000000000000081528681600481865afa889181620012a0575b506200124657608487604051907f08c379a00000000000000000000000000000000000000000000000000000000082526004820152602e60248201527f45524331393637557067726164653a206e657720696d706c656d656e7461746960448201527f6f6e206973206e6f7420555550530000000000000000000000000000000000006064820152fd5b959394950362000fc2576200125b82620015e1565b7fbc7cd75a20ee27fd9adebab32041f755214dbc6bffa90cc0225b39da2e5c2d3b8680a284835115801590620012985762000f0757505050505080f35b508062000ef9565b9091508781813d8311620012cd575b620012bb81836200144c565b810103126200107357519038620011bc565b503d620012af565b6024877f4e487b710000000000000000000000000000000000000000000000000000000081526041600452fd5b5034620000da5780600319360112620000da57602060405173ffffffffffffffffffffffffffffffffffffffff7f0000000000000000000000000000000000000000000000000000000000000000168152f35b905034620007a7576020600319360112620007a75760043573ffffffffffffffffffffffffffffffffffffffff8116809103620007775760408360ff92602095527fed7c04f0edbd3c3a1a0abef5e79682baa534f9aebaae64bdb87f63c8f3f26e21855220541615158152f35b6004359073ffffffffffffffffffffffffffffffffffffffff82168203620013e657565b600080fd5b67ffffffffffffffff81116200140057604052565b7f4e487b7100000000000000000000000000000000000000000000000000000000600052604160045260246000fd5b6060810190811067ffffffffffffffff8211176200140057604052565b90601f7fffffffffffffffffffffffffffffffffffffffffffffffffffffffffffffffe0910116810190811067ffffffffffffffff8211176200140057604052565b67ffffffffffffffff81116200140057601f017fffffffffffffffffffffffffffffffffffffffffffffffffffffffffffffffe01660200190565b15620014d157565b60846040517f08c379a000000000000000000000000000000000000000000000000000000000815260206004820152602c60248201527f46756e6374696f6e206d7573742062652063616c6c6564207468726f7567682060448201527f64656c656761746563616c6c00000000000000000000000000000000000000006064820152fd5b156200155d57565b60846040517f08c379a000000000000000000000000000000000000000000000000000000000815260206004820152602c60248201527f46756e6374696f6e206d7573742062652063616c6c6564207468726f7567682060448201527f6163746976652070726f787900000000000000000000000000000000000000006064820152fd5b803b156200164a5773ffffffffffffffffffffffffffffffffffffffff7f360894a13ba1a3210667c828492db98dca3e2076cc3735a920a3ca505d382bbc91167fffffffffffffffffffffffff0000000000000000000000000000000000000000825416179055565b60846040517f08c379a000000000000000000000000000000000000000000000000000000000815260206004820152602d60248201527f455243313936373a206e657720696d706c656d656e746174696f6e206973206e60448201527f6f74206120636f6e7472616374000000000000000000000000000000000000006064820152fd5b919290156200174c5750815115620016e4575090565b3b15620016ee5790565b60646040517f08c379a000000000000000000000000000000000000000000000000000000000815260206004820152601d60248201527f416464726573733a2063616c6c20746f206e6f6e2d636f6e74726163740000006044820152fd5b825190915015620017605750805190602001fd5b620017a0906040519182917f08c379a0000000000000000000000000000000000000000000000000000000008352602060048401526024830190620017a4565b0390fd5b919082519283825260005b848110620017ef5750507fffffffffffffffffffffffffffffffffffffffffffffffffffffffffffffffe0601f8460006020809697860101520116010190565b602081830181015184830182015201620017af565b156200180c57565b60846040517f08c379a000000000000000000000000000000000000000000000000000000000815260206004820152602b60248201527f496e697469616c697a61626c653a20636f6e7472616374206973206e6f74206960448201527f6e697469616c697a696e670000000000000000000000000000000000000000006064820152fd5b90816020910312620013e657518015158103620013e65790565b73ffffffffffffffffffffffffffffffffffffffff8091169081156200193d577fc43ef91433cf7d0ab2ca98c18785d28d6a5685461d30e867805d7a83cc8deb80805490837fffffffffffffffffffffffff00000000000000000000000000000000000000008316179055167f8be0079c531659141344cd1fd0a4f28419497f9722a3daafe3b4186f6b6457e0600080a3565b60246040517f1e4fbdf700000000000000000000000000000000000000000000000000000000815260006004820152fd5b73ffffffffffffffffffffffffffffffffffffffff7fc43ef91433cf7d0ab2ca98c18785d28d6a5685461d30e867805d7a83cc8deb8054163303620019af57565b60246040517f118cdaa7000000000000000000000000000000000000000000000000000000008152336004820152fdfe60406080815261042c908138038061001681610218565b93843982019181818403126102135780516001600160a01b038116808203610213576020838101516001600160401b0394919391858211610213570186601f820112156102135780519061007161006c83610253565b610218565b918083528583019886828401011161021357888661008f930161026e565b813b156101b9577f360894a13ba1a3210667c828492db98dca3e2076cc3735a920a3ca505d382bbc80546001600160a01b031916841790556000927fbc7cd75a20ee27fd9adebab32041f755214dbc6bffa90cc0225b39da2e5c2d3b8480a28051158015906101b2575b61010b575b855160e790816103458239f35b855194606086019081118682101761019e578697849283926101889952602788527f416464726573733a206c6f772d6c6576656c2064656c65676174652063616c6c87890152660819985a5b195960ca1b8a8901525190845af4913d15610194573d9061017a61006c83610253565b91825281943d92013e610291565b508038808080806100fe565b5060609250610291565b634e487b7160e01b84526041600452602484fd5b50826100f9565b855162461bcd60e51b815260048101859052602d60248201527f455243313936373a206e657720696d706c656d656e746174696f6e206973206e60448201526c1bdd08184818dbdb9d1c9858dd609a1b6064820152608490fd5b600080fd5b6040519190601f01601f191682016001600160401b0381118382101761023d57604052565b634e487b7160e01b600052604160045260246000fd5b6001600160401b03811161023d57601f01601f191660200190565b60005b8381106102815750506000910152565b8181015183820152602001610271565b919290156102f357508151156102a5575090565b3b156102ae5790565b60405162461bcd60e51b815260206004820152601d60248201527f416464726573733a2063616c6c20746f206e6f6e2d636f6e74726163740000006044820152606490fd5b8251909150156103065750805190602001fd5b6044604051809262461bcd60e51b825260206004830152610336815180928160248601526020868601910161026e565b601f01601f19168101030190fdfe60806040523615605f5773ffffffffffffffffffffffffffffffffffffffff7f360894a13ba1a3210667c828492db98dca3e2076cc3735a920a3ca505d382bbc54166000808092368280378136915af43d82803e15605b573d90f35b3d90fd5b73ffffffffffffffffffffffffffffffffffffffff7f360894a13ba1a3210667c828492db98dca3e2076cc3735a920a3ca505d382bbc54166000808092368280378136915af43d82803e15605b573d90f3fea26469706673582212204d30ee5bb6a432e4c4c2072803c39dfa70960d4343c1ed7cbcb8a1674595f2b964736f6c63430008130033a2646970667358221220f78e26d9066e107777602c34732c24d8db8f503e01713574fdf8627d0331861764736f6c63430008130033",
  "devdoc": {
    "errors": {
      "OwnableInvalidOwner(address)": [
        {
          "details": "The owner is not a valid owner account. (eg. `address(0)`)"
        }
      ],
      "OwnableUnauthorizedAccount(address)": [
        {
          "details": "The caller account is not authorized to perform an operation."
        }
      ]
    },
    "events": {
      "AdminChanged(address,address)": {
        "details": "Emitted when the admin account has changed."
      },
      "BeaconUpgraded(address)": {
        "details": "Emitted when the beacon is changed."
      },
      "Initialized(uint8)": {
        "details": "Triggered when the contract has been initialized or reinitialized."
      },
      "Upgraded(address)": {
        "details": "Emitted when the implementation is upgraded."
      }
    },
    "kind": "dev",
    "methods": {
      "owner()": {
        "details": "Returns the address of the current owner."
      },
      "proxiableUUID()": {
        "details": "Implementation of the ERC1822 {proxiableUUID} function. This returns the storage slot used by the implementation. It is used to validate the implementation's compatibility when performing an upgrade. IMPORTANT: A proxy pointing at a proxiable contract should not be considered proxiable itself, because this risks bricking a proxy that upgrades to it, by delegating to itself until out of gas. Thus it is critical that this function revert if invoked through a proxy. This is guaranteed by the `notDelegated` modifier."
      },
      "renounceOwnership()": {
        "details": "Leaves the contract without owner. It will not be possible to call `onlyOwner` functions. Can only be called by the current owner. NOTE: Renouncing ownership will leave the contract without an owner, thereby disabling any functionality that is only available to the owner."
      },
      "transferOwnership(address)": {
        "details": "Transfers ownership of the contract to a new account (`newOwner`). Can only be called by the current owner."
      },
      "upgradeTo(address)": {
        "custom:oz-upgrades-unsafe-allow-reachable": "delegatecall",
        "details": "Upgrade the implementation of the proxy to `newImplementation`. Calls {_authorizeUpgrade}. Emits an {Upgraded} event."
      },
      "upgradeToAndCall(address,bytes)": {
        "custom:oz-upgrades-unsafe-allow-reachable": "delegatecall",
        "details": "Upgrade the implementation of the proxy to `newImplementation`, and subsequently execute the function call encoded in `data`. Calls {_authorizeUpgrade}. Emits an {Upgraded} event."
      }
    },
    "version": 1
  },
  "userdoc": {
    "kind": "user",
    "methods": {},
    "version": 1
  },
  "storageLayout": {
    "storage": [
      {
        "astId": 371,
        "contract": "contracts/global/DealFactory.sol:DealFactory",
        "label": "_initialized",
        "offset": 0,
        "slot": "0",
        "type": "t_uint8"
      },
      {
        "astId": 374,
        "contract": "contracts/global/DealFactory.sol:DealFactory",
        "label": "_initializing",
        "offset": 1,
        "slot": "0",
        "type": "t_bool"
      },
      {
        "astId": 353,
        "contract": "contracts/global/DealFactory.sol:DealFactory",
        "label": "__gap",
        "offset": 0,
        "slot": "1",
        "type": "t_array(t_uint256)50_storage"
      },
      {
        "astId": 668,
        "contract": "contracts/global/DealFactory.sol:DealFactory",
        "label": "__gap",
        "offset": 0,
        "slot": "51",
        "type": "t_array(t_uint256)50_storage"
      },
      {
        "astId": 9542,
        "contract": "contracts/global/DealFactory.sol:DealFactory",
        "label": "_storage",
        "offset": 0,
        "slot": "101",
        "type": "t_struct(OwnableStorage)9539_storage"
      },
      {
        "astId": 6448,
        "contract": "contracts/global/DealFactory.sol:DealFactory",
        "label": "_storage",
        "offset": 0,
        "slot": "102",
        "type": "t_struct(DealFactoryStorage)6445_storage"
      }
    ],
    "types": {
      "t_address": {
        "encoding": "inplace",
        "label": "address",
        "numberOfBytes": "20"
      },
      "t_array(t_uint256)50_storage": {
        "base": "t_uint256",
        "encoding": "inplace",
        "label": "uint256[50]",
        "numberOfBytes": "1600"
      },
      "t_bool": {
        "encoding": "inplace",
        "label": "bool",
        "numberOfBytes": "1"
      },
      "t_contract(IDeal)6194": {
        "encoding": "inplace",
        "label": "contract IDeal",
        "numberOfBytes": "20"
      },
      "t_mapping(t_contract(IDeal)6194,t_bool)": {
        "encoding": "mapping",
        "key": "t_contract(IDeal)6194",
        "label": "mapping(contract IDeal => bool)",
        "numberOfBytes": "32",
        "value": "t_bool"
      },
      "t_struct(DealFactoryStorage)6445_storage": {
        "encoding": "inplace",
        "label": "struct DealFactory.DealFactoryStorage",
        "members": [
          {
            "astId": 6444,
            "contract": "contracts/global/DealFactory.sol:DealFactory",
            "label": "hasDeal",
            "offset": 0,
            "slot": "0",
            "type": "t_mapping(t_contract(IDeal)6194,t_bool)"
          }
        ],
        "numberOfBytes": "32"
      },
      "t_struct(OwnableStorage)9539_storage": {
        "encoding": "inplace",
        "label": "struct OwnableUpgradableDiamond.OwnableStorage",
        "members": [
          {
            "astId": 9538,
            "contract": "contracts/global/DealFactory.sol:DealFactory",
            "label": "owner",
            "offset": 0,
            "slot": "0",
            "type": "t_address"
          }
        ],
        "numberOfBytes": "32"
      },
      "t_uint256": {
        "encoding": "inplace",
        "label": "uint256",
        "numberOfBytes": "32"
      },
      "t_uint8": {
        "encoding": "inplace",
        "label": "uint8",
        "numberOfBytes": "1"
      }
    }
  }
}