{
  "address": "0x239eAEA00510C0C20d16B0aeB9CB8d9C97d6ff3f",
  "abi": [
    {
      "inputs": [],
      "stateMutability": "nonpayable",
      "type": "constructor"
    },
    {
      "inputs": [
        {
          "internalType": "address",
          "name": "owner",
          "type": "address"
        }
      ],
      "name": "OwnableInvalidOwner",
      "type": "error"
    },
    {
      "inputs": [
        {
          "internalType": "address",
          "name": "account",
          "type": "address"
        }
      ],
      "name": "OwnableUnauthorizedAccount",
      "type": "error"
    },
    {
      "anonymous": false,
      "inputs": [
        {
          "indexed": false,
          "internalType": "address",
          "name": "previousAdmin",
          "type": "address"
        },
        {
          "indexed": false,
          "internalType": "address",
          "name": "newAdmin",
          "type": "address"
        }
      ],
      "name": "AdminChanged",
      "type": "event"
    },
    {
      "anonymous": false,
      "inputs": [
        {
          "indexed": true,
          "internalType": "address",
          "name": "beacon",
          "type": "address"
        }
      ],
      "name": "BeaconUpgraded",
      "type": "event"
    },
    {
      "anonymous": false,
      "inputs": [
        {
          "indexed": false,
          "internalType": "address",
          "name": "factory",
          "type": "address"
        }
      ],
      "name": "FactorySet",
      "type": "event"
    },
    {
      "anonymous": false,
      "inputs": [
        {
          "indexed": false,
          "internalType": "uint8",
          "name": "version",
          "type": "uint8"
        }
      ],
      "name": "Initialized",
      "type": "event"
    },
    {
      "anonymous": false,
      "inputs": [
        {
          "indexed": false,
          "internalType": "address",
          "name": "matcher",
          "type": "address"
        }
      ],
      "name": "MatcherSet",
      "type": "event"
    },
    {
      "anonymous": false,
      "inputs": [
        {
          "indexed": true,
          "internalType": "address",
          "name": "previousOwner",
          "type": "address"
        },
        {
          "indexed": true,
          "internalType": "address",
          "name": "newOwner",
          "type": "address"
        }
      ],
      "name": "OwnershipTransferred",
      "type": "event"
    },
    {
      "anonymous": false,
      "inputs": [
        {
          "indexed": true,
          "internalType": "address",
          "name": "implementation",
          "type": "address"
        }
      ],
      "name": "Upgraded",
      "type": "event"
    },
    {
      "inputs": [],
      "name": "currentEpoch",
      "outputs": [
        {
          "internalType": "uint256",
          "name": "",
          "type": "uint256"
        }
      ],
      "stateMutability": "view",
      "type": "function"
    },
    {
      "inputs": [],
      "name": "epochDuration",
      "outputs": [
        {
          "internalType": "uint256",
          "name": "",
          "type": "uint256"
        }
      ],
      "stateMutability": "view",
      "type": "function"
    },
    {
      "inputs": [],
      "name": "factory",
      "outputs": [
        {
          "internalType": "contract IDealFactory",
          "name": "",
          "type": "address"
        }
      ],
      "stateMutability": "view",
      "type": "function"
    },
    {
      "inputs": [],
      "name": "fluenceToken",
      "outputs": [
        {
          "internalType": "contract IERC20",
          "name": "",
          "type": "address"
        }
      ],
      "stateMutability": "view",
      "type": "function"
    },
    {
      "inputs": [
        {
          "internalType": "contract IERC20",
          "name": "fluenceToken_",
          "type": "address"
        },
        {
          "internalType": "uint256",
          "name": "epochDuration_",
          "type": "uint256"
        }
      ],
      "name": "initialize",
      "outputs": [],
      "stateMutability": "nonpayable",
      "type": "function"
    },
    {
      "inputs": [],
      "name": "matcher",
      "outputs": [
        {
          "internalType": "contract IMatcher",
          "name": "",
          "type": "address"
        }
      ],
      "stateMutability": "view",
      "type": "function"
    },
    {
      "inputs": [],
      "name": "owner",
      "outputs": [
        {
          "internalType": "address",
          "name": "",
          "type": "address"
        }
      ],
      "stateMutability": "view",
      "type": "function"
    },
    {
      "inputs": [],
      "name": "proxiableUUID",
      "outputs": [
        {
          "internalType": "bytes32",
          "name": "",
          "type": "bytes32"
        }
      ],
      "stateMutability": "view",
      "type": "function"
    },
    {
      "inputs": [],
      "name": "renounceOwnership",
      "outputs": [],
      "stateMutability": "nonpayable",
      "type": "function"
    },
    {
      "inputs": [
        {
          "internalType": "contract IDealFactory",
          "name": "factory_",
          "type": "address"
        }
      ],
      "name": "setFactory",
      "outputs": [],
      "stateMutability": "nonpayable",
      "type": "function"
    },
    {
      "inputs": [
        {
          "internalType": "contract IMatcher",
          "name": "matcher_",
          "type": "address"
        }
      ],
      "name": "setMatcher",
      "outputs": [],
      "stateMutability": "nonpayable",
      "type": "function"
    },
    {
      "inputs": [
        {
          "internalType": "address",
          "name": "newOwner",
          "type": "address"
        }
      ],
      "name": "transferOwnership",
      "outputs": [],
      "stateMutability": "nonpayable",
      "type": "function"
    },
    {
      "inputs": [
        {
          "internalType": "address",
          "name": "newImplementation",
          "type": "address"
        }
      ],
      "name": "upgradeTo",
      "outputs": [],
      "stateMutability": "nonpayable",
      "type": "function"
    },
    {
      "inputs": [
        {
          "internalType": "address",
          "name": "newImplementation",
          "type": "address"
        },
        {
          "internalType": "bytes",
          "name": "data",
          "type": "bytes"
        }
      ],
      "name": "upgradeToAndCall",
      "outputs": [],
      "stateMutability": "payable",
      "type": "function"
    }
  ],
  "transactionHash": "0xce5cebec12ed76158b12f6f20b92db68414855571cec29fc5927e4fff96a4030",
  "args": [],
  "numDeployments": 2,
  "solcInputHash": "b515736a5cbcd5173b0e1e2ce796a27d",
  "bytecode": "0x60a08060405234610137573060805260005460ff8160081c16159182809361012a575b8015610113575b156100ba575060ff198116600117600055816100a8575b5061006d575b60405161140990816200013d82396080518181816106e60152818161087d0152610bce0152f35b61ff0019600054166000557f7f26b83ff96e1f2b6a682f133852f6798a09c465da95921460cefb3847402498602060405160018152a1610046565b61ffff19166101011760005538610040565b62461bcd60e51b815260206004820152602e60248201527f496e697469616c697a61626c653a20636f6e747261637420697320616c72656160448201526d191e481a5b9a5d1a585b1a5e995960921b6064820152608490fd5b50303b1580156100295750600160ff831614610029565b50600160ff831610610022565b600080fdfe60406080815260048036101561001457600080fd5b600091823560e01c9182633659cfe614610b995782634f1ef286146107f55782634ff0876a146107b757826352d1902d146106bd5782635bb4780814610637578263715018a61461059757826376671808146105245782637e7e66b2146104d05782638da5cb5b1461047c578263963ddbe9146103f6578263ac027f97146103a2578263c45a01551461034a578263cd6dc687146100ec57505063f2fde38b146100bd57600080fd5b346100e95760206003193601126100e9576100e66100d9610e03565b6100e1611363565b6112a0565b80f35b80fd5b90915034610346578160031936011261034657803573ffffffffffffffffffffffffffffffffffffffff811680910361034257835460ff8160081c161592838094610335575b801561031e575b1561029b57508260017fffffffffffffffffffffffffffffffffffffffffffffffffffffffffffffff00831617865561026d575b507f349bb20181bc89dd74c27832cde97f0a0f3315693e59fe3e6395c7aca80b2d98907fffffffffffffffffffffffff00000000000000000000000000000000000000008254161790556024357f349bb20181bc89dd74c27832cde97f0a0f3315693e59fe3e6395c7aca80b2d99556101f560ff845460081c166101f081611215565b611215565b6101fe336112a0565b82549061021060ff8360081c16611215565b610218578280f35b7f7f26b83ff96e1f2b6a682f133852f6798a09c465da95921460cefb3847402498917fffffffffffffffffffffffffffffffffffffffffffffffffffffffffffff00ff6020921684555160018152a138808280f35b7fffffffffffffffffffffffffffffffffffffffffffffffffffffffffffff0000166101011784553861016d565b60849060208651917f08c379a0000000000000000000000000000000000000000000000000000000008352820152602e60248201527f496e697469616c697a61626c653a20636f6e747261637420697320616c72656160448201527f647920696e697469616c697a65640000000000000000000000000000000000006064820152fd5b50303b1580156101395750600160ff831614610139565b50600160ff831610610132565b8380fd5b8280fd5b83823461039e578160031936011261039e5760209073ffffffffffffffffffffffffffffffffffffffff7f349bb20181bc89dd74c27832cde97f0a0f3315693e59fe3e6395c7aca80b2d9b54169051908152f35b5080fd5b83823461039e578160031936011261039e5760209073ffffffffffffffffffffffffffffffffffffffff7f349bb20181bc89dd74c27832cde97f0a0f3315693e59fe3e6395c7aca80b2d9854169051908152f35b83903461039e57602060031936011261039e573573ffffffffffffffffffffffffffffffffffffffff811680910361039e57610430611363565b7f349bb20181bc89dd74c27832cde97f0a0f3315693e59fe3e6395c7aca80b2d9a907fffffffffffffffffffffffff000000000000000000000000000000000000000082541617905580f35b83823461039e578160031936011261039e5760209073ffffffffffffffffffffffffffffffffffffffff7fc43ef91433cf7d0ab2ca98c18785d28d6a5685461d30e867805d7a83cc8deb8054169051908152f35b83823461039e578160031936011261039e5760209073ffffffffffffffffffffffffffffffffffffffff7f349bb20181bc89dd74c27832cde97f0a0f3315693e59fe3e6395c7aca80b2d9a54169051908152f35b83823461039e578160031936011261039e577f349bb20181bc89dd74c27832cde97f0a0f3315693e59fe3e6395c7aca80b2d995491821561056b5760208383519042048152f35b806012857f4e487b71000000000000000000000000000000000000000000000000000000006024945252fd5b83346100e957806003193601126100e9576105b0611363565b8073ffffffffffffffffffffffffffffffffffffffff7fc43ef91433cf7d0ab2ca98c18785d28d6a5685461d30e867805d7a83cc8deb808054907fffffffffffffffffffffffff000000000000000000000000000000000000000082169055167f8be0079c531659141344cd1fd0a4f28419497f9722a3daafe3b4186f6b6457e08280a380f35b83903461039e57602060031936011261039e573573ffffffffffffffffffffffffffffffffffffffff811680910361039e57610671611363565b7f349bb20181bc89dd74c27832cde97f0a0f3315693e59fe3e6395c7aca80b2d9b907fffffffffffffffffffffffff000000000000000000000000000000000000000082541617905580f35b83346100e957806003193601126100e9575073ffffffffffffffffffffffffffffffffffffffff7f000000000000000000000000000000000000000000000000000000000000000016300361073557602082517f360894a13ba1a3210667c828492db98dca3e2076cc3735a920a3ca505d382bbc8152f35b602060849251917f08c379a0000000000000000000000000000000000000000000000000000000008352820152603860248201527f555550535570677261646561626c653a206d757374206e6f742062652063616c60448201527f6c6564207468726f7567682064656c656761746563616c6c00000000000000006064820152fd5b83823461039e578160031936011261039e576020907f349bb20181bc89dd74c27832cde97f0a0f3315693e59fe3e6395c7aca80b2d99549051908152f35b9150806003193601126103465761080a610e03565b906024359067ffffffffffffffff8211610b955736602383011215610b95578184013561083681610eb7565b61084283519182610e76565b818152866020948583019336602482840101116103465780602488930186378301015273ffffffffffffffffffffffffffffffffffffffff807f000000000000000000000000000000000000000000000000000000000000000016906108aa82301415610ef1565b6108d97f360894a13ba1a3210667c828492db98dca3e2076cc3735a920a3ca505d382bbc928284541614610f7c565b6108e1611363565b7f4910fdfa16fed3260ed0e7147f7cc6da11a60208b5b9406d12a635614ffd91435460ff161561091b575050505050506100e69150611007565b869293949596169085517f52d1902d00000000000000000000000000000000000000000000000000000000815287818a81865afa8a9181610b62575b506109de57608489898951917f08c379a0000000000000000000000000000000000000000000000000000000008352820152602e60248201527f45524331393637557067726164653a206e657720696d706c656d656e7461746960448201527f6f6e206973206e6f7420555550530000000000000000000000000000000000006064820152fd5b979192939695949703610ae057506109f582611007565b7fbc7cd75a20ee27fd9adebab32041f755214dbc6bffa90cc0225b39da2e5c2d3b8780a285845115801590610ad8575b610a33575b50505050505080f35b80610ac296845196610a4488610e2b565b602788527f416464726573733a206c6f772d6c6576656c2064656c65676174652063616c6c878901527f206661696c656400000000000000000000000000000000000000000000000000868901525190845af4913d15610ace573d610ab4610aab82610eb7565b92519283610e76565b81528681943d92013e6110f3565b50388080808085610a2a565b50606092506110f3565b506001610a25565b608490858551917f08c379a0000000000000000000000000000000000000000000000000000000008352820152602960248201527f45524331393637557067726164653a20756e737570706f727465642070726f7860448201527f6961626c655555494400000000000000000000000000000000000000000000006064820152fd5b9091508881813d8311610b8e575b610b7a8183610e76565b81010312610b8a57519038610957565b8a80fd5b503d610b70565b8480fd5b9150346103465760208060031936011261034257610bb5610e03565b9173ffffffffffffffffffffffffffffffffffffffff807f000000000000000000000000000000000000000000000000000000000000000016610bfa81301415610ef1565b610c297f360894a13ba1a3210667c828492db98dca3e2076cc3735a920a3ca505d382bbc918383541614610f7c565b610c31611363565b8251908482019282841067ffffffffffffffff851117610dd7578385528883527f4910fdfa16fed3260ed0e7147f7cc6da11a60208b5b9406d12a635614ffd91435460ff1615610c8b575050505050506100e69150611007565b869293949596169085517f52d1902d00000000000000000000000000000000000000000000000000000000815287818a81865afa8a9181610da8575b50610d4e57608489898951917f08c379a0000000000000000000000000000000000000000000000000000000008352820152602e60248201527f45524331393637557067726164653a206e657720696d706c656d656e7461746960448201527f6f6e206973206e6f7420555550530000000000000000000000000000000000006064820152fd5b979192939695949703610ae05750610d6582611007565b7fbc7cd75a20ee27fd9adebab32041f755214dbc6bffa90cc0225b39da2e5c2d3b8780a285845115801590610da157610a335750505050505080f35b5080610a25565b9091508881813d8311610dd0575b610dc08183610e76565b81010312610b8a57519038610cc7565b503d610db6565b60248960418a7f4e487b7100000000000000000000000000000000000000000000000000000000835252fd5b6004359073ffffffffffffffffffffffffffffffffffffffff82168203610e2657565b600080fd5b6060810190811067ffffffffffffffff821117610e4757604052565b7f4e487b7100000000000000000000000000000000000000000000000000000000600052604160045260246000fd5b90601f7fffffffffffffffffffffffffffffffffffffffffffffffffffffffffffffffe0910116810190811067ffffffffffffffff821117610e4757604052565b67ffffffffffffffff8111610e4757601f017fffffffffffffffffffffffffffffffffffffffffffffffffffffffffffffffe01660200190565b15610ef857565b60846040517f08c379a000000000000000000000000000000000000000000000000000000000815260206004820152602c60248201527f46756e6374696f6e206d7573742062652063616c6c6564207468726f7567682060448201527f64656c656761746563616c6c00000000000000000000000000000000000000006064820152fd5b15610f8357565b60846040517f08c379a000000000000000000000000000000000000000000000000000000000815260206004820152602c60248201527f46756e6374696f6e206d7573742062652063616c6c6564207468726f7567682060448201527f6163746976652070726f787900000000000000000000000000000000000000006064820152fd5b803b1561106f5773ffffffffffffffffffffffffffffffffffffffff7f360894a13ba1a3210667c828492db98dca3e2076cc3735a920a3ca505d382bbc91167fffffffffffffffffffffffff0000000000000000000000000000000000000000825416179055565b60846040517f08c379a000000000000000000000000000000000000000000000000000000000815260206004820152602d60248201527f455243313936373a206e657720696d706c656d656e746174696f6e206973206e60448201527f6f74206120636f6e7472616374000000000000000000000000000000000000006064820152fd5b9192901561116e5750815115611107575090565b3b156111105790565b60646040517f08c379a000000000000000000000000000000000000000000000000000000000815260206004820152601d60248201527f416464726573733a2063616c6c20746f206e6f6e2d636f6e74726163740000006044820152fd5b8251909150156111815750805190602001fd5b604051907f08c379a000000000000000000000000000000000000000000000000000000000825281602080600483015282519283602484015260005b8481106111fe575050507fffffffffffffffffffffffffffffffffffffffffffffffffffffffffffffffe0601f836000604480968601015201168101030190fd5b8181018301518682016044015285935082016111bd565b1561121c57565b60846040517f08c379a000000000000000000000000000000000000000000000000000000000815260206004820152602b60248201527f496e697469616c697a61626c653a20636f6e7472616374206973206e6f74206960448201527f6e697469616c697a696e670000000000000000000000000000000000000000006064820152fd5b73ffffffffffffffffffffffffffffffffffffffff809116908115611332577fc43ef91433cf7d0ab2ca98c18785d28d6a5685461d30e867805d7a83cc8deb80805490837fffffffffffffffffffffffff00000000000000000000000000000000000000008316179055167f8be0079c531659141344cd1fd0a4f28419497f9722a3daafe3b4186f6b6457e0600080a3565b60246040517f1e4fbdf700000000000000000000000000000000000000000000000000000000815260006004820152fd5b73ffffffffffffffffffffffffffffffffffffffff7fc43ef91433cf7d0ab2ca98c18785d28d6a5685461d30e867805d7a83cc8deb80541633036113a357565b60246040517f118cdaa7000000000000000000000000000000000000000000000000000000008152336004820152fdfea26469706673582212205934328f1e356724d760d2bb154226b2a613dd13d388431ee4823f9cc71cc3cd64736f6c63430008130033",
  "devdoc": {
    "errors": {
      "OwnableInvalidOwner(address)": [
        {
          "details": "The owner is not a valid owner account. (eg. `address(0)`)"
        }
      ],
      "OwnableUnauthorizedAccount(address)": [
        {
          "details": "The caller account is not authorized to perform an operation."
        }
      ]
    },
    "events": {
      "AdminChanged(address,address)": {
        "details": "Emitted when the admin account has changed."
      },
      "BeaconUpgraded(address)": {
        "details": "Emitted when the beacon is changed."
      },
      "Initialized(uint8)": {
        "details": "Triggered when the contract has been initialized or reinitialized."
      },
      "Upgraded(address)": {
        "details": "Emitted when the implementation is upgraded."
      }
    },
    "kind": "dev",
    "methods": {
      "owner()": {
        "details": "Returns the address of the current owner."
      },
      "proxiableUUID()": {
        "details": "Implementation of the ERC1822 {proxiableUUID} function. This returns the storage slot used by the implementation. It is used to validate the implementation's compatibility when performing an upgrade. IMPORTANT: A proxy pointing at a proxiable contract should not be considered proxiable itself, because this risks bricking a proxy that upgrades to it, by delegating to itself until out of gas. Thus it is critical that this function revert if invoked through a proxy. This is guaranteed by the `notDelegated` modifier."
      },
      "renounceOwnership()": {
        "details": "Leaves the contract without owner. It will not be possible to call `onlyOwner` functions. Can only be called by the current owner. NOTE: Renouncing ownership will leave the contract without an owner, thereby disabling any functionality that is only available to the owner."
      },
      "transferOwnership(address)": {
        "details": "Transfers ownership of the contract to a new account (`newOwner`). Can only be called by the current owner."
      },
      "upgradeTo(address)": {
        "custom:oz-upgrades-unsafe-allow-reachable": "delegatecall",
        "details": "Upgrade the implementation of the proxy to `newImplementation`. Calls {_authorizeUpgrade}. Emits an {Upgraded} event."
      },
      "upgradeToAndCall(address,bytes)": {
        "custom:oz-upgrades-unsafe-allow-reachable": "delegatecall",
        "details": "Upgrade the implementation of the proxy to `newImplementation`, and subsequently execute the function call encoded in `data`. Calls {_authorizeUpgrade}. Emits an {Upgraded} event."
      }
    },
    "version": 1
  },
  "userdoc": {
    "kind": "user",
    "methods": {},
    "version": 1
  },
  "storageLayout": {
    "storage": [
      {
        "astId": 371,
        "contract": "contracts/global/GlobalCore.sol:GlobalCore",
        "label": "_initialized",
        "offset": 0,
        "slot": "0",
        "type": "t_uint8"
      },
      {
        "astId": 374,
        "contract": "contracts/global/GlobalCore.sol:GlobalCore",
        "label": "_initializing",
        "offset": 1,
        "slot": "0",
        "type": "t_bool"
      },
      {
        "astId": 353,
        "contract": "contracts/global/GlobalCore.sol:GlobalCore",
        "label": "__gap",
        "offset": 0,
        "slot": "1",
        "type": "t_array(t_uint256)50_storage"
      },
      {
        "astId": 668,
        "contract": "contracts/global/GlobalCore.sol:GlobalCore",
        "label": "__gap",
        "offset": 0,
        "slot": "51",
        "type": "t_array(t_uint256)50_storage"
      },
      {
        "astId": 9542,
        "contract": "contracts/global/GlobalCore.sol:GlobalCore",
        "label": "_storage",
        "offset": 0,
        "slot": "101",
        "type": "t_struct(OwnableStorage)9539_storage"
      },
      {
        "astId": 6698,
        "contract": "contracts/global/GlobalCore.sol:GlobalCore",
        "label": "_storage",
        "offset": 0,
        "slot": "102",
        "type": "t_struct(GlobalCoreStorage)6695_storage"
      }
    ],
    "types": {
      "t_address": {
        "encoding": "inplace",
        "label": "address",
        "numberOfBytes": "20"
      },
      "t_array(t_uint256)50_storage": {
        "base": "t_uint256",
        "encoding": "inplace",
        "label": "uint256[50]",
        "numberOfBytes": "1600"
      },
      "t_bool": {
        "encoding": "inplace",
        "label": "bool",
        "numberOfBytes": "1"
      },
      "t_contract(IDealFactory)6903": {
        "encoding": "inplace",
        "label": "contract IDealFactory",
        "numberOfBytes": "20"
      },
      "t_contract(IERC20)2321": {
        "encoding": "inplace",
        "label": "contract IERC20",
        "numberOfBytes": "20"
      },
      "t_contract(IMatcher)8720": {
        "encoding": "inplace",
        "label": "contract IMatcher",
        "numberOfBytes": "20"
      },
      "t_struct(GlobalCoreStorage)6695_storage": {
        "encoding": "inplace",
        "label": "struct GlobalCore.GlobalCoreStorage",
        "members": [
          {
            "astId": 6686,
            "contract": "contracts/global/GlobalCore.sol:GlobalCore",
            "label": "fluenceToken",
            "offset": 0,
            "slot": "0",
            "type": "t_contract(IERC20)2321"
          },
          {
            "astId": 6688,
            "contract": "contracts/global/GlobalCore.sol:GlobalCore",
            "label": "epochDuration",
            "offset": 0,
            "slot": "1",
            "type": "t_uint256"
          },
          {
            "astId": 6691,
            "contract": "contracts/global/GlobalCore.sol:GlobalCore",
            "label": "matcher",
            "offset": 0,
            "slot": "2",
            "type": "t_contract(IMatcher)8720"
          },
          {
            "astId": 6694,
            "contract": "contracts/global/GlobalCore.sol:GlobalCore",
            "label": "factory",
            "offset": 0,
            "slot": "3",
            "type": "t_contract(IDealFactory)6903"
          }
        ],
        "numberOfBytes": "128"
      },
      "t_struct(OwnableStorage)9539_storage": {
        "encoding": "inplace",
        "label": "struct OwnableUpgradableDiamond.OwnableStorage",
        "members": [
          {
            "astId": 9538,
            "contract": "contracts/global/GlobalCore.sol:GlobalCore",
            "label": "owner",
            "offset": 0,
            "slot": "0",
            "type": "t_address"
          }
        ],
        "numberOfBytes": "32"
      },
      "t_uint256": {
        "encoding": "inplace",
        "label": "uint256",
        "numberOfBytes": "32"
      },
      "t_uint8": {
        "encoding": "inplace",
        "label": "uint8",
        "numberOfBytes": "1"
      }
    }
  }
}