{"abi":[{"type":"constructor","inputs":[{"name":"usdToken_","type":"address","internalType":"contract IERC20"}],"stateMutability":"nonpayable"},{"type":"receive","stateMutability":"payable"},{"type":"function","name":"multicall","inputs":[{"name":"data","type":"bytes[]","internalType":"bytes[]"}],"outputs":[{"name":"results","type":"bytes[]","internalType":"bytes[]"}],"stateMutability":"nonpayable"},{"type":"function","name":"owner","inputs":[],"outputs":[{"name":"","type":"address","internalType":"address"}],"stateMutability":"view"},{"type":"function","name":"renounceOwnership","inputs":[],"outputs":[],"stateMutability":"nonpayable"},{"type":"function","name":"sendFLT","inputs":[{"name":"addr","type":"address","internalType":"address"},{"name":"value","type":"uint256","internalType":"uint256"}],"outputs":[],"stateMutability":"nonpayable"},{"type":"function","name":"sendUSD","inputs":[{"name":"addr","type":"address","internalType":"address"},{"name":"value","type":"uint256","internalType":"uint256"}],"outputs":[],"stateMutability":"nonpayable"},{"type":"function","name":"transferOwnership","inputs":[{"name":"newOwner","type":"address","internalType":"address"}],"outputs":[],"stateMutability":"nonpayable"},{"type":"function","name":"usdToken","inputs":[],"outputs":[{"name":"","type":"address","internalType":"contract IERC20"}],"stateMutability":"view"},{"type":"event","name":"OwnershipTransferred","inputs":[{"name":"previousOwner","type":"address","indexed":true,"internalType":"address"},{"name":"newOwner","type":"address","indexed":true,"internalType":"address"}],"anonymous":false}],"bytecode":{"object":"0x60a06040523480156200001157600080fd5b5060405162001506380380620015068339818101604052810190620000379190620001dc565b620000576200004b6200009260201b60201c565b6200009a60201b60201c565b8073ffffffffffffffffffffffffffffffffffffffff1660808173ffffffffffffffffffffffffffffffffffffffff1681525050506200020e565b600033905090565b60008060009054906101000a900473ffffffffffffffffffffffffffffffffffffffff169050816000806101000a81548173ffffffffffffffffffffffffffffffffffffffff021916908373ffffffffffffffffffffffffffffffffffffffff1602179055508173ffffffffffffffffffffffffffffffffffffffff168173ffffffffffffffffffffffffffffffffffffffff167f8be0079c531659141344cd1fd0a4f28419497f9722a3daafe3b4186f6b6457e060405160405180910390a35050565b600080fd5b600073ffffffffffffffffffffffffffffffffffffffff82169050919050565b6000620001908262000163565b9050919050565b6000620001a48262000183565b9050919050565b620001b68162000197565b8114620001c257600080fd5b50565b600081519050620001d681620001ab565b92915050565b600060208284031215620001f557620001f46200015e565b5b60006200020584828501620001c5565b91505092915050565b6080516112d5620002316000396000818161029a01526105e101526112d56000f3fe6080604052600436106100645760003560e01c80630af76b8f146100705780633922f54214610099578063715018a6146100c25780638da5cb5b146100d9578063ac9650d814610104578063f2fde38b14610141578063f897a22b1461016a5761006b565b3661006b57005b600080fd5b34801561007c57600080fd5b506100976004803603810190610092919061098b565b610195565b005b3480156100a557600080fd5b506100c060048036038101906100bb919061098b565b610290565b005b3480156100ce57600080fd5b506100d761033b565b005b3480156100e557600080fd5b506100ee61034f565b6040516100fb91906109da565b60405180910390f35b34801561011057600080fd5b5061012b60048036038101906101269190610a5a565b610378565b6040516101389190610bf9565b60405180910390f35b34801561014d57600080fd5b5061016860048036038101906101639190610c1b565b61055c565b005b34801561017657600080fd5b5061017f6105df565b60405161018c9190610ca7565b60405180910390f35b61019d610603565b8047116101df576040517f08c379a00000000000000000000000000000000000000000000000000000000081526004016101d690610d1f565b60405180910390fd5b60008273ffffffffffffffffffffffffffffffffffffffff168260405161020590610d70565b60006040518083038185875af1925050503d8060008114610242576040519150601f19603f3d011682016040523d82523d6000602084013e610247565b606091505b505090508061028b576040517f08c379a000000000000000000000000000000000000000000000000000000000815260040161028290610dd1565b60405180910390fd5b505050565b610298610603565b7f000000000000000000000000000000000000000000000000000000000000000073ffffffffffffffffffffffffffffffffffffffff1663a9059cbb83836040518363ffffffff1660e01b81526004016102f3929190610e00565b6020604051808303816000875af1158015610312573d6000803e3d6000fd5b505050506040513d601f19601f820116820180604052508101906103369190610e61565b505050565b610343610603565b61034d6000610681565b565b60008060009054906101000a900473ffffffffffffffffffffffffffffffffffffffff16905090565b60606000610384610745565b73ffffffffffffffffffffffffffffffffffffffff163373ffffffffffffffffffffffffffffffffffffffff1614610427576000366103c161074d565b60003690506103d09190610ebd565b9080926103df93929190610efb565b8080601f016020809104026020016040519081016040528093929190818152602001838380828437600081840152601f19601f82011690508083019250505050505050610476565b600067ffffffffffffffff81111561044257610441610f36565b5b6040519080825280601f01601f1916602001820160405280156104745781602001600182028036833780820191505090505b505b90508383905067ffffffffffffffff81111561049557610494610f36565b5b6040519080825280602002602001820160405280156104c857816020015b60608152602001906001900390816104b35790505b50915060005b8484905081101561055457610529308686848181106104f0576104ef610f65565b5b90506020028101906105029190610fa3565b856040516020016105159392919061106b565b604051602081830303815290604052610752565b83828151811061053c5761053b610f65565b5b602002602001018190525080806001019150506104ce565b505092915050565b610564610603565b600073ffffffffffffffffffffffffffffffffffffffff168173ffffffffffffffffffffffffffffffffffffffff16036105d3576040517f08c379a00000000000000000000000000000000000000000000000000000000081526004016105ca90611103565b60405180910390fd5b6105dc81610681565b50565b7f000000000000000000000000000000000000000000000000000000000000000081565b61060b610745565b73ffffffffffffffffffffffffffffffffffffffff1661062961034f565b73ffffffffffffffffffffffffffffffffffffffff161461067f576040517f08c379a00000000000000000000000000000000000000000000000000000000081526004016106769061116f565b60405180910390fd5b565b60008060009054906101000a900473ffffffffffffffffffffffffffffffffffffffff169050816000806101000a81548173ffffffffffffffffffffffffffffffffffffffff021916908373ffffffffffffffffffffffffffffffffffffffff1602179055508173ffffffffffffffffffffffffffffffffffffffff168173ffffffffffffffffffffffffffffffffffffffff167f8be0079c531659141344cd1fd0a4f28419497f9722a3daafe3b4186f6b6457e060405160405180910390a35050565b600033905090565b600090565b606061077783836040518060600160405280602781526020016112796027913961077f565b905092915050565b60606000808573ffffffffffffffffffffffffffffffffffffffff16856040516107a9919061118f565b600060405180830381855af49150503d80600081146107e4576040519150601f19603f3d011682016040523d82523d6000602084013e6107e9565b606091505b50915091506107fa86838387610805565b925050509392505050565b6060831561086757600083510361085f5761081f8561087a565b61085e576040517f08c379a0000000000000000000000000000000000000000000000000000000008152600401610855906111f2565b60405180910390fd5b5b829050610872565b610871838361089d565b5b949350505050565b6000808273ffffffffffffffffffffffffffffffffffffffff163b119050919050565b6000825111156108b05781518083602001fd5b806040517f08c379a00000000000000000000000000000000000000000000000000000000081526004016108e49190611256565b60405180910390fd5b600080fd5b600080fd5b600073ffffffffffffffffffffffffffffffffffffffff82169050919050565b6000610922826108f7565b9050919050565b61093281610917565b811461093d57600080fd5b50565b60008135905061094f81610929565b92915050565b6000819050919050565b61096881610955565b811461097357600080fd5b50565b6000813590506109858161095f565b92915050565b600080604083850312156109a2576109a16108ed565b5b60006109b085828601610940565b92505060206109c185828601610976565b9150509250929050565b6109d481610917565b82525050565b60006020820190506109ef60008301846109cb565b92915050565b600080fd5b600080fd5b600080fd5b60008083601f840112610a1a57610a196109f5565b5b8235905067ffffffffffffffff811115610a3757610a366109fa565b5b602083019150836020820283011115610a5357610a526109ff565b5b9250929050565b60008060208385031215610a7157610a706108ed565b5b600083013567ffffffffffffffff811115610a8f57610a8e6108f2565b5b610a9b85828601610a04565b92509250509250929050565b600081519050919050565b600082825260208201905092915050565b6000819050602082019050919050565b600081519050919050565b600082825260208201905092915050565b60005b83811015610b0d578082015181840152602081019050610af2565b60008484015250505050565b6000601f19601f8301169050919050565b6000610b3582610ad3565b610b3f8185610ade565b9350610b4f818560208601610aef565b610b5881610b19565b840191505092915050565b6000610b6f8383610b2a565b905092915050565b6000602082019050919050565b6000610b8f82610aa7565b610b998185610ab2565b935083602082028501610bab85610ac3565b8060005b85811015610be75784840389528151610bc88582610b63565b9450610bd383610b77565b925060208a01995050600181019050610baf565b50829750879550505050505092915050565b60006020820190508181036000830152610c138184610b84565b905092915050565b600060208284031215610c3157610c306108ed565b5b6000610c3f84828501610940565b91505092915050565b6000819050919050565b6000610c6d610c68610c63846108f7565b610c48565b6108f7565b9050919050565b6000610c7f82610c52565b9050919050565b6000610c9182610c74565b9050919050565b610ca181610c86565b82525050565b6000602082019050610cbc6000830184610c98565b92915050565b600082825260208201905092915050565b7f4e6f7420656e6f75676820657468657200000000000000000000000000000000600082015250565b6000610d09601083610cc2565b9150610d1482610cd3565b602082019050919050565b60006020820190508181036000830152610d3881610cfc565b9050919050565b600081905092915050565b50565b6000610d5a600083610d3f565b9150610d6582610d4a565b600082019050919050565b6000610d7b82610d4d565b9150819050919050565b7f43616e6e6f742073656e64206574686572000000000000000000000000000000600082015250565b6000610dbb601183610cc2565b9150610dc682610d85565b602082019050919050565b60006020820190508181036000830152610dea81610dae565b9050919050565b610dfa81610955565b82525050565b6000604082019050610e1560008301856109cb565b610e226020830184610df1565b9392505050565b60008115159050919050565b610e3e81610e29565b8114610e4957600080fd5b50565b600081519050610e5b81610e35565b92915050565b600060208284031215610e7757610e766108ed565b5b6000610e8584828501610e4c565b91505092915050565b7f4e487b7100000000000000000000000000000000000000000000000000000000600052601160045260246000fd5b6000610ec882610955565b9150610ed383610955565b9250828203905081811115610eeb57610eea610e8e565b5b92915050565b600080fd5b600080fd5b60008085851115610f0f57610f0e610ef1565b5b83861115610f2057610f1f610ef6565b5b6001850283019150848603905094509492505050565b7f4e487b7100000000000000000000000000000000000000000000000000000000600052604160045260246000fd5b7f4e487b7100000000000000000000000000000000000000000000000000000000600052603260045260246000fd5b600080fd5b600080fd5b600080fd5b60008083356001602003843603038112610fc057610fbf610f94565b5b80840192508235915067ffffffffffffffff821115610fe257610fe1610f99565b5b602083019250600182023603831315610ffe57610ffd610f9e565b5b509250929050565b82818337600083830152505050565b60006110218385610d3f565b935061102e838584611006565b82840190509392505050565b600061104582610ad3565b61104f8185610d3f565b935061105f818560208601610aef565b80840191505092915050565b6000611078828587611015565b9150611084828461103a565b9150819050949350505050565b7f4f776e61626c653a206e6577206f776e657220697320746865207a65726f206160008201527f6464726573730000000000000000000000000000000000000000000000000000602082015250565b60006110ed602683610cc2565b91506110f882611091565b604082019050919050565b6000602082019050818103600083015261111c816110e0565b9050919050565b7f4f776e61626c653a2063616c6c6572206973206e6f7420746865206f776e6572600082015250565b6000611159602083610cc2565b915061116482611123565b602082019050919050565b600060208201905081810360008301526111888161114c565b9050919050565b600061119b828461103a565b915081905092915050565b7f416464726573733a2063616c6c20746f206e6f6e2d636f6e7472616374000000600082015250565b60006111dc601d83610cc2565b91506111e7826111a6565b602082019050919050565b6000602082019050818103600083015261120b816111cf565b9050919050565b600081519050919050565b600061122882611212565b6112328185610cc2565b9350611242818560208601610aef565b61124b81610b19565b840191505092915050565b60006020820190508181036000830152611270818461121d565b90509291505056fe416464726573733a206c6f772d6c6576656c2064656c65676174652063616c6c206661696c6564a264697066735822122068c548d64f0a30893b5d0e9fd0f32c21c7a0bf2944f1a78363390c0ea9aeccba64736f6c63430008180033","linkReferences":{}},"methodIdentifiers":{"multicall(bytes[])":"ac9650d8","owner()":"8da5cb5b","renounceOwnership()":"715018a6","sendFLT(address,uint256)":"0af76b8f","sendUSD(address,uint256)":"3922f542","transferOwnership(address)":"f2fde38b","usdToken()":"f897a22b"},"devdoc":{"version":1,"kind":"dev","methods":{"multicall(bytes[])":{"details":"Receives and executes a batch of function calls on this contract."},"owner()":{"details":"Returns the address of the current owner."},"renounceOwnership()":{"details":"Leaves the contract without owner. It will not be possible to call `onlyOwner` functions. Can only be called by the current owner. NOTE: Renouncing ownership will leave the contract without an owner, thereby disabling any functionality that is only available to the owner."},"transferOwnership(address)":{"details":"Transfers ownership of the contract to a new account (`newOwner`). Can only be called by the current owner."}}},"id":62}