{
  "address": "0xD8da3d8714ba1aF9fD0f5f1B0E7A574770F71A20",
  "abi": [
    {
      "inputs": [
        {
          "internalType": "contract IGlobalConfig",
          "name": "globalConfig_",
          "type": "address"
        }
      ],
      "stateMutability": "nonpayable",
      "type": "constructor"
    },
    {
      "anonymous": false,
      "inputs": [
        {
          "indexed": false,
          "internalType": "address",
          "name": "previousAdmin",
          "type": "address"
        },
        {
          "indexed": false,
          "internalType": "address",
          "name": "newAdmin",
          "type": "address"
        }
      ],
      "name": "AdminChanged",
      "type": "event"
    },
    {
      "anonymous": false,
      "inputs": [
        {
          "components": [
            {
              "internalType": "bytes4",
              "name": "prefixes",
              "type": "bytes4"
            },
            {
              "internalType": "bytes32",
              "name": "hash",
              "type": "bytes32"
            }
          ],
          "indexed": false,
          "internalType": "struct CIDV1",
          "name": "newAppCID",
          "type": "tuple"
        }
      ],
      "name": "AppCIDChanged",
      "type": "event"
    },
    {
      "anonymous": false,
      "inputs": [
        {
          "indexed": true,
          "internalType": "address",
          "name": "beacon",
          "type": "address"
        }
      ],
      "name": "BeaconUpgraded",
      "type": "event"
    },
    {
      "anonymous": false,
      "inputs": [
        {
          "indexed": false,
          "internalType": "uint8",
          "name": "version",
          "type": "uint8"
        }
      ],
      "name": "Initialized",
      "type": "event"
    },
    {
      "anonymous": false,
      "inputs": [
        {
          "indexed": true,
          "internalType": "address",
          "name": "implementation",
          "type": "address"
        }
      ],
      "name": "Upgraded",
      "type": "event"
    },
    {
      "inputs": [],
      "name": "appCID",
      "outputs": [
        {
          "components": [
            {
              "internalType": "bytes4",
              "name": "prefixes",
              "type": "bytes4"
            },
            {
              "internalType": "bytes32",
              "name": "hash",
              "type": "bytes32"
            }
          ],
          "internalType": "struct CIDV1",
          "name": "",
          "type": "tuple"
        }
      ],
      "stateMutability": "view",
      "type": "function"
    },
    {
      "inputs": [],
      "name": "creationBlock",
      "outputs": [
        {
          "internalType": "uint256",
          "name": "",
          "type": "uint256"
        }
      ],
      "stateMutability": "view",
      "type": "function"
    },
    {
      "inputs": [],
      "name": "effectors",
      "outputs": [
        {
          "components": [
            {
              "internalType": "bytes4",
              "name": "prefixes",
              "type": "bytes4"
            },
            {
              "internalType": "bytes32",
              "name": "hash",
              "type": "bytes32"
            }
          ],
          "internalType": "struct CIDV1[]",
          "name": "",
          "type": "tuple[]"
        }
      ],
      "stateMutability": "view",
      "type": "function"
    },
    {
      "inputs": [],
      "name": "fluenceToken",
      "outputs": [
        {
          "internalType": "contract IERC20",
          "name": "",
          "type": "address"
        }
      ],
      "stateMutability": "view",
      "type": "function"
    },
    {
      "inputs": [],
      "name": "globalConfig",
      "outputs": [
        {
          "internalType": "contract IGlobalConfig",
          "name": "",
          "type": "address"
        }
      ],
      "stateMutability": "view",
      "type": "function"
    },
    {
      "inputs": [
        {
          "internalType": "contract IERC20",
          "name": "paymentToken_",
          "type": "address"
        },
        {
          "internalType": "uint256",
          "name": "pricePerEpoch_",
          "type": "uint256"
        },
        {
          "internalType": "uint256",
          "name": "requiredCollateral_",
          "type": "uint256"
        },
        {
          "components": [
            {
              "internalType": "bytes4",
              "name": "prefixes",
              "type": "bytes4"
            },
            {
              "internalType": "bytes32",
              "name": "hash",
              "type": "bytes32"
            }
          ],
          "internalType": "struct CIDV1",
          "name": "appCID_",
          "type": "tuple"
        },
        {
          "internalType": "uint256",
          "name": "minWorkers_",
          "type": "uint256"
        },
        {
          "internalType": "uint256",
          "name": "targetWorkers_",
          "type": "uint256"
        },
        {
          "components": [
            {
              "internalType": "bytes4",
              "name": "prefixes",
              "type": "bytes4"
            },
            {
              "internalType": "bytes32",
              "name": "hash",
              "type": "bytes32"
            }
          ],
          "internalType": "struct CIDV1[]",
          "name": "effectors_",
          "type": "tuple[]"
        }
      ],
      "name": "initialize",
      "outputs": [],
      "stateMutability": "nonpayable",
      "type": "function"
    },
    {
      "inputs": [],
      "name": "minWorkers",
      "outputs": [
        {
          "internalType": "uint256",
          "name": "",
          "type": "uint256"
        }
      ],
      "stateMutability": "view",
      "type": "function"
    },
    {
      "inputs": [],
      "name": "paymentToken",
      "outputs": [
        {
          "internalType": "contract IERC20",
          "name": "",
          "type": "address"
        }
      ],
      "stateMutability": "view",
      "type": "function"
    },
    {
      "inputs": [],
      "name": "pricePerEpoch",
      "outputs": [
        {
          "internalType": "uint256",
          "name": "",
          "type": "uint256"
        }
      ],
      "stateMutability": "view",
      "type": "function"
    },
    {
      "inputs": [],
      "name": "proxiableUUID",
      "outputs": [
        {
          "internalType": "bytes32",
          "name": "",
          "type": "bytes32"
        }
      ],
      "stateMutability": "view",
      "type": "function"
    },
    {
      "inputs": [],
      "name": "requiredCollateral",
      "outputs": [
        {
          "internalType": "uint256",
          "name": "",
          "type": "uint256"
        }
      ],
      "stateMutability": "view",
      "type": "function"
    },
    {
      "inputs": [
        {
          "components": [
            {
              "internalType": "bytes4",
              "name": "prefixes",
              "type": "bytes4"
            },
            {
              "internalType": "bytes32",
              "name": "hash",
              "type": "bytes32"
            }
          ],
          "internalType": "struct CIDV1",
          "name": "appCID_",
          "type": "tuple"
        }
      ],
      "name": "setAppCID",
      "outputs": [],
      "stateMutability": "nonpayable",
      "type": "function"
    },
    {
      "inputs": [],
      "name": "targetWorkers",
      "outputs": [
        {
          "internalType": "uint256",
          "name": "",
          "type": "uint256"
        }
      ],
      "stateMutability": "view",
      "type": "function"
    },
    {
      "inputs": [
        {
          "internalType": "address",
          "name": "newImplementation",
          "type": "address"
        }
      ],
      "name": "upgradeTo",
      "outputs": [],
      "stateMutability": "nonpayable",
      "type": "function"
    },
    {
      "inputs": [
        {
          "internalType": "address",
          "name": "newImplementation",
          "type": "address"
        },
        {
          "internalType": "bytes",
          "name": "data",
          "type": "bytes"
        }
      ],
      "name": "upgradeToAndCall",
      "outputs": [],
      "stateMutability": "payable",
      "type": "function"
    }
  ],
  "transactionHash": "0xc69db280309a7c9adbf8d6249709a65dca87c02b03bfb38f53dc90ea10fbb9f1",
  "args": [
    "0xf9dBb53Ac78BdA179c78dE1296080185Eb1CF59E"
  ],
  "numDeployments": 1,
  "solcInputHash": "53476418df2bb22a396052f3428406cd",
  "bytecode": "0x60e080604052346200010757602081620017b480380380916200002382856200010c565b8339810103126200010757516001600160a01b039081811690818103620001075760805260405163ac027f9760e01b815290602090829060049082905afa908115620000fb57600091620000b3575b5060a0523060c05260405161166d9081620001478239608051816102ac015260a0518161025b015260c0518181816103b4015281816109ce0152610d530152f35b6020813d8211620000f2575b81620000ce602093836200010c565b81010312620000ee57519182168203620000eb5750803862000072565b80fd5b5080fd5b3d9150620000bf565b6040513d6000823e3d90fd5b600080fd5b601f909101601f19168101906001600160401b038211908210176200013057604052565b634e487b7160e01b600052604160045260246000fdfe60806040908082526004908136101561001757600080fd5b60009060e0928235841c918263176345141461125757508163176474cf146110ab5781632943dcab1461108c5781632db311931461106d5781633013ce291461103a5781633659cfe614610d1d5781634f1ef286146109455781634f681b4c1461046b57816352d1902d14610389575080635fc8f59c1461036a5780639bc66868146102d0578063a7c1abe01461027f578063ac027f971461022e578063b53105a31461020b5763fc1e5e2a146100cd57600080fd5b346102085780600319360112610208579190600854926100ec8461137d565b6100f884519182611302565b8481526020948582018094600885527ff3f7a9fe364faab93b216da50a3214154f22a0a2b415b23a84c8169e8b636ee39085925b8484106101ae575050505050835194859481860192828752518093528086019493905b83821061015c5786860387f35b91849650828661019e6001949698849851602080917fffffffff0000000000000000000000000000000000000000000000000000000081511684520151910152565b019601920186959492939161014f565b60028a6001928b9c99989a9b516101c48161129b565b7fffffffff000000000000000000000000000000000000000000000000000000008754871b168152848701548382015281520193019301929198979694959861012c565b80fd5b50823461022a578160031936011261022a576020906002549051908152f35b5080fd5b50823461022a578160031936011261022a576020905173ffffffffffffffffffffffffffffffffffffffff7f0000000000000000000000000000000000000000000000000000000000000000168152f35b50823461022a578160031936011261022a576020905173ffffffffffffffffffffffffffffffffffffffff7f0000000000000000000000000000000000000000000000000000000000000000168152f35b5034610208578060031936011261020857602083516102ee8161129b565b82815201527fffffffff000000000000000000000000000000000000000000000000000000008251916103208361129b565b600654901b168152600754602082015261036882518092602080917fffffffff0000000000000000000000000000000000000000000000000000000081511684520151910152565bf35b50823461022a578160031936011261022a576020906001549051908152f35b925050346102085780600319360112610208575073ffffffffffffffffffffffffffffffffffffffff7f000000000000000000000000000000000000000000000000000000000000000016300361040357602082517f360894a13ba1a3210667c828492db98dca3e2076cc3735a920a3ca505d382bbc8152f35b6020608492519162461bcd60e51b8352820152603860248201527f555550535570677261646561626c653a206d757374206e6f742062652063616c60448201527f6c6564207468726f7567682064656c656761746563616c6c00000000000000006064820152fd5b84915083346109415761010060031936011261094157813573ffffffffffffffffffffffffffffffffffffffff811680910361093d57837fffffffffffffffffffffffffffffffffffffffffffffffffffffffffffffff9c36011261093d5760e4359267ffffffffffffffff8411610939573660238501121561093957838101356104f58161137d565b9161050287519384611302565b8183526020958684016024809460061b8301019136831161081d578401905b8282106108db57505050603b5494600860ff87821c1615958680976108ce575b80156108b7575b156108505760019787897fffffffffffffffffffffffffffffffffffffffffffffffffffffffffffffff00831617603b55610821575b507fffffffffffffffffffffffff00000000000000000000000000000000000000008b5416178a55833587556044356002556064357fffffffff000000000000000000000000000000000000000000000000000000008116810361081d5761060e9060e01c7fffffffffffffffffffffffffffffffffffffffffffffffffffffffff000000006006541617600655565b60843560075560a43560035560c43583558451948a5b86811061069457505050505050504360055561063e578380f35b7f7f26b83ff96e1f2b6a682f133852f6798a09c465da95921460cefb3847402498927fffffffffffffffffffffffffffffffffffffffffffffffffffffffffffff00ff603b5416603b5551908152a18180808380f35b81518110156107f257898160051b830101518354680100000000000000008110156107c7578a810180865581101561079c578b7ff3f7a9fe364faab93b216da50a3214154f22a0a2b415b23a84c8169e8b636ee4918f8790528c1b92837ff3f7a9fe364faab93b216da50a3214154f22a0a2b415b23a84c8169e8b636ee3018151891c7fffffffffffffffffffffffffffffffffffffffffffffffffffffffff0000000082541617905501519101557fffffffffffffffffffffffffffffffffffffffffffffffffffffffffffffffff8114610771578801610624565b858c6011877f4e487b7100000000000000000000000000000000000000000000000000000000835252fd5b878e6032897f4e487b7100000000000000000000000000000000000000000000000000000000835252fd5b878e6041897f4e487b7100000000000000000000000000000000000000000000000000000000835252fd5b858c6032877f4e487b7100000000000000000000000000000000000000000000000000000000835252fd5b8a80fd5b7fffffffffffffffffffffffffffffffffffffffffffffffffffffffffffff00001661010117603b558b61057e565b608484602e878c8e519362461bcd60e51b85528401528201527f496e697469616c697a61626c653a20636f6e747261637420697320616c72656160448201527f647920696e697469616c697a65640000000000000000000000000000000000006064820152fd5b50303b1580156105485750600160ff891614610548565b50600160ff891610610541565b898236031261081d578951906108f08261129b565b8235907fffffffff000000000000000000000000000000000000000000000000000000008216820361093557828b928d94528285013583820152815201910190610521565b8c80fd5b8580fd5b8480fd5b8380fd5b90508380600319360112610d195761095b611273565b9060249081359067ffffffffffffffff82116109395736602383011215610939578185013561098981611343565b61099583519182611302565b818152876020948583019336888284010111610d1957808888930186378301015273ffffffffffffffffffffffffffffffffffffffff807f000000000000000000000000000000000000000000000000000000000000000016906109fb82301415611395565b610a2a7f360894a13ba1a3210667c828492db98dca3e2076cc3735a920a3ca505d382bbc928284541614611406565b807fe0c154d538f20c8d1aadcd299210daa7f0a434a5bf4a39795668b28b61ec6e9654163303610cd8577f4910fdfa16fed3260ed0e7147f7cc6da11a60208b5b9406d12a635614ffd91435460ff1615610a925750505050505050610a8f9150611477565b80f35b87929394959697169085517f52d1902d00000000000000000000000000000000000000000000000000000000815287818b81865afa8b9181610ca5575b50610b3b5760848a602e8b8b8b519362461bcd60e51b85528401528201527f45524331393637557067726164653a206e657720696d706c656d656e7461746960448201527f6f6e206973206e6f7420555550530000000000000000000000000000000000006064820152fd5b989294989791939703610c3e575050610b5382611477565b7fbc7cd75a20ee27fd9adebab32041f755214dbc6bffa90cc0225b39da2e5c2d3b8780a285845115801590610c36575b610b91575b50505050505080f35b80610c2096845196610ba2886112e6565b602788527f416464726573733a206c6f772d6c6576656c2064656c65676174652063616c6c878901527f206661696c656400000000000000000000000000000000000000000000000000868901525190845af4913d15610c2c573d610c12610c0982611343565b92519283611302565b81528681943d92013e611549565b50818080808085610b88565b5060609250611549565b506001610b83565b9060296084928787519362461bcd60e51b85528401528201527f45524331393637557067726164653a20756e737570706f727465642070726f7860448201527f6961626c655555494400000000000000000000000000000000000000000000006064820152fd5b9091508881813d8311610cd1575b610cbd8183611302565b81010312610ccd5751908c610acf565b8b80fd5b503d610cb3565b606489601e898989519362461bcd60e51b85528401528201527f4d6f64756c65426173653a2063616c6c6572206973206e6f7420636f726500006044820152fd5b8280fd5b90508334610d195760208060031936011261094157610d3a611273565b9173ffffffffffffffffffffffffffffffffffffffff807f000000000000000000000000000000000000000000000000000000000000000016610d7f81301415611395565b610dae7f360894a13ba1a3210667c828492db98dca3e2076cc3735a920a3ca505d382bbc918383541614611406565b817fe0c154d538f20c8d1aadcd299210daa7f0a434a5bf4a39795668b28b61ec6e9654163303610ff8578251908482019282841067ffffffffffffffff851117610fcc578385528883527f4910fdfa16fed3260ed0e7147f7cc6da11a60208b5b9406d12a635614ffd91435460ff1615610e3257505050505050610a8f9150611477565b869293949596169085517f52d1902d00000000000000000000000000000000000000000000000000000000815287818a81865afa8a9181610f9d575b50610edb576084898989519162461bcd60e51b8352820152602e60248201527f45524331393637557067726164653a206e657720696d706c656d656e7461746960448201527f6f6e206973206e6f7420555550530000000000000000000000000000000000006064820152fd5b979192939695949703610f355750610ef282611477565b7fbc7cd75a20ee27fd9adebab32041f755214dbc6bffa90cc0225b39da2e5c2d3b8780a285845115801590610f2e57610b915750505050505080f35b5080610b83565b6084908585519162461bcd60e51b8352820152602960248201527f45524331393637557067726164653a20756e737570706f727465642070726f7860448201527f6961626c655555494400000000000000000000000000000000000000000000006064820152fd5b9091508881813d8311610fc5575b610fb58183611302565b8101031261081d5751908b610e6e565b503d610fab565b60248960418a7f4e487b7100000000000000000000000000000000000000000000000000000000835252fd5b6064868585519162461bcd60e51b8352820152601e60248201527f4d6f64756c65426173653a2063616c6c6572206973206e6f7420636f726500006044820152fd5b82853461022a578160031936011261022a5773ffffffffffffffffffffffffffffffffffffffff60209254169051908152f35b82853461022a578160031936011261022a576020906003549051908152f35b84915034610d195782600319360112610d195760209250549051908152f35b90508334610d195780600319360112610d195773ffffffffffffffffffffffffffffffffffffffff91827fe0c154d538f20c8d1aadcd299210daa7f0a434a5bf4a39795668b28b61ec6e96541682519384917f8da5cb5b000000000000000000000000000000000000000000000000000000008352828460209788935afa91821561124d578692611215575b50339116036111d45735917fffffffff0000000000000000000000000000000000000000000000000000000083169081840361093d576111c07fc820a66d3bdd50a45cf12cda6dc8ec9e94fb5123edd7da736eea18316f8523a09460e01c7fffffffffffffffffffffffffffffffffffffffffffffffffffffffff000000006006541617600655565b60243590816007558351928352820152a180f35b82606492519162461bcd60e51b8352820152601f60248201527f4d6f64756c65426173653a2063616c6c6572206973206e6f74206f776e6572006044820152fd5b9091508481813d8311611246575b61122d8183611302565b8101031261093957518181168103610939579086611137565b503d611223565b84513d88823e3d90fd5b83903461022a578160031936011261022a576020906005548152f35b6004359073ffffffffffffffffffffffffffffffffffffffff8216820361129657565b600080fd5b6040810190811067ffffffffffffffff8211176112b757604052565b7f4e487b7100000000000000000000000000000000000000000000000000000000600052604160045260246000fd5b6060810190811067ffffffffffffffff8211176112b757604052565b90601f7fffffffffffffffffffffffffffffffffffffffffffffffffffffffffffffffe0910116810190811067ffffffffffffffff8211176112b757604052565b67ffffffffffffffff81116112b757601f017fffffffffffffffffffffffffffffffffffffffffffffffffffffffffffffffe01660200190565b67ffffffffffffffff81116112b75760051b60200190565b1561139c57565b608460405162461bcd60e51b815260206004820152602c60248201527f46756e6374696f6e206d7573742062652063616c6c6564207468726f7567682060448201527f64656c656761746563616c6c00000000000000000000000000000000000000006064820152fd5b1561140d57565b608460405162461bcd60e51b815260206004820152602c60248201527f46756e6374696f6e206d7573742062652063616c6c6564207468726f7567682060448201527f6163746976652070726f787900000000000000000000000000000000000000006064820152fd5b803b156114df5773ffffffffffffffffffffffffffffffffffffffff7f360894a13ba1a3210667c828492db98dca3e2076cc3735a920a3ca505d382bbc91167fffffffffffffffffffffffff0000000000000000000000000000000000000000825416179055565b608460405162461bcd60e51b815260206004820152602d60248201527f455243313936373a206e657720696d706c656d656e746174696f6e206973206e60448201527f6f74206120636f6e7472616374000000000000000000000000000000000000006064820152fd5b919290156115aa575081511561155d575090565b3b156115665790565b606460405162461bcd60e51b815260206004820152601d60248201527f416464726573733a2063616c6c20746f206e6f6e2d636f6e74726163740000006044820152fd5b8251909150156115bd5750805190602001fd5b6040519062461bcd60e51b825281602080600483015282519283602484015260005b848110611620575050507fffffffffffffffffffffffffffffffffffffffffffffffffffffffffffffffe0601f836000604480968601015201168101030190fd5b8181018301518682016044015285935082016115df56fea26469706673582212204d3c11271a33e51587006ca7e3ca7db341f5b0f8e032a0659da7ecb99bf4cca264736f6c63430008130033",
  "devdoc": {
    "events": {
      "AdminChanged(address,address)": {
        "details": "Emitted when the admin account has changed."
      },
      "BeaconUpgraded(address)": {
        "details": "Emitted when the beacon is changed."
      },
      "Initialized(uint8)": {
        "details": "Triggered when the contract has been initialized or reinitialized."
      },
      "Upgraded(address)": {
        "details": "Emitted when the implementation is upgraded."
      }
    },
    "kind": "dev",
    "methods": {
      "proxiableUUID()": {
        "details": "Implementation of the ERC1822 {proxiableUUID} function. This returns the storage slot used by the implementation. It is used to validate the implementation's compatibility when performing an upgrade. IMPORTANT: A proxy pointing at a proxiable contract should not be considered proxiable itself, because this risks bricking a proxy that upgrades to it, by delegating to itself until out of gas. Thus it is critical that this function revert if invoked through a proxy. This is guaranteed by the `notDelegated` modifier."
      },
      "upgradeTo(address)": {
        "custom:oz-upgrades-unsafe-allow-reachable": "delegatecall",
        "details": "Upgrade the implementation of the proxy to `newImplementation`. Calls {_authorizeUpgrade}. Emits an {Upgraded} event."
      },
      "upgradeToAndCall(address,bytes)": {
        "custom:oz-upgrades-unsafe-allow-reachable": "delegatecall",
        "details": "Upgrade the implementation of the proxy to `newImplementation`, and subsequently execute the function call encoded in `data`. Calls {_authorizeUpgrade}. Emits an {Upgraded} event."
      }
    },
    "version": 1
  },
  "userdoc": {
    "kind": "user",
    "methods": {},
    "version": 1
  },
  "storageLayout": {
    "storage": [
      {
        "astId": 2937,
        "contract": "contracts/deal/ConfigModule.sol:ConfigModule",
        "label": "paymentToken",
        "offset": 0,
        "slot": "0",
        "type": "t_contract(IERC20)1911"
      },
      {
        "astId": 2939,
        "contract": "contracts/deal/ConfigModule.sol:ConfigModule",
        "label": "pricePerEpoch",
        "offset": 0,
        "slot": "1",
        "type": "t_uint256"
      },
      {
        "astId": 2941,
        "contract": "contracts/deal/ConfigModule.sol:ConfigModule",
        "label": "requiredCollateral",
        "offset": 0,
        "slot": "2",
        "type": "t_uint256"
      },
      {
        "astId": 2943,
        "contract": "contracts/deal/ConfigModule.sol:ConfigModule",
        "label": "minWorkers",
        "offset": 0,
        "slot": "3",
        "type": "t_uint256"
      },
      {
        "astId": 2945,
        "contract": "contracts/deal/ConfigModule.sol:ConfigModule",
        "label": "targetWorkers",
        "offset": 0,
        "slot": "4",
        "type": "t_uint256"
      },
      {
        "astId": 2947,
        "contract": "contracts/deal/ConfigModule.sol:ConfigModule",
        "label": "creationBlock",
        "offset": 0,
        "slot": "5",
        "type": "t_uint256"
      },
      {
        "astId": 2950,
        "contract": "contracts/deal/ConfigModule.sol:ConfigModule",
        "label": "_appCID",
        "offset": 0,
        "slot": "6",
        "type": "t_struct(CIDV1)4898_storage"
      },
      {
        "astId": 2954,
        "contract": "contracts/deal/ConfigModule.sol:ConfigModule",
        "label": "_effectors",
        "offset": 0,
        "slot": "8",
        "type": "t_array(t_struct(CIDV1)4898_storage)dyn_storage"
      },
      {
        "astId": 4831,
        "contract": "contracts/deal/ConfigModule.sol:ConfigModule",
        "label": "__gap",
        "offset": 0,
        "slot": "9",
        "type": "t_array(t_uint256)50_storage"
      },
      {
        "astId": 503,
        "contract": "contracts/deal/ConfigModule.sol:ConfigModule",
        "label": "_initialized",
        "offset": 0,
        "slot": "59",
        "type": "t_uint8"
      },
      {
        "astId": 506,
        "contract": "contracts/deal/ConfigModule.sol:ConfigModule",
        "label": "_initializing",
        "offset": 1,
        "slot": "59",
        "type": "t_bool"
      }
    ],
    "types": {
      "t_array(t_struct(CIDV1)4898_storage)dyn_storage": {
        "base": "t_struct(CIDV1)4898_storage",
        "encoding": "dynamic_array",
        "label": "struct CIDV1[]",
        "numberOfBytes": "32"
      },
      "t_array(t_uint256)50_storage": {
        "base": "t_uint256",
        "encoding": "inplace",
        "label": "uint256[50]",
        "numberOfBytes": "1600"
      },
      "t_bool": {
        "encoding": "inplace",
        "label": "bool",
        "numberOfBytes": "1"
      },
      "t_bytes32": {
        "encoding": "inplace",
        "label": "bytes32",
        "numberOfBytes": "32"
      },
      "t_bytes4": {
        "encoding": "inplace",
        "label": "bytes4",
        "numberOfBytes": "4"
      },
      "t_contract(IERC20)1911": {
        "encoding": "inplace",
        "label": "contract IERC20",
        "numberOfBytes": "20"
      },
      "t_struct(CIDV1)4898_storage": {
        "encoding": "inplace",
        "label": "struct CIDV1",
        "members": [
          {
            "astId": 4895,
            "contract": "contracts/deal/ConfigModule.sol:ConfigModule",
            "label": "prefixes",
            "offset": 0,
            "slot": "0",
            "type": "t_bytes4"
          },
          {
            "astId": 4897,
            "contract": "contracts/deal/ConfigModule.sol:ConfigModule",
            "label": "hash",
            "offset": 0,
            "slot": "1",
            "type": "t_bytes32"
          }
        ],
        "numberOfBytes": "64"
      },
      "t_uint256": {
        "encoding": "inplace",
        "label": "uint256",
        "numberOfBytes": "32"
      },
      "t_uint8": {
        "encoding": "inplace",
        "label": "uint8",
        "numberOfBytes": "1"
      }
    }
  }
}