{
  "address": "0xE36cE4EE2895ce0db676cFacA6fF1AA886ab0DeA",
  "abi": [
    {
      "inputs": [
        {
          "internalType": "contract IGlobalConfig",
          "name": "globalConfig_",
          "type": "address"
        },
        {
          "internalType": "contract IERC20",
          "name": "defaultPaymentToken_",
          "type": "address"
        },
        {
          "internalType": "contract ICore",
          "name": "coreImpl_",
          "type": "address"
        },
        {
          "internalType": "contract IConfigModule",
          "name": "configImpl_",
          "type": "address"
        },
        {
          "internalType": "contract IPaymentModule",
          "name": "paymentImpl_",
          "type": "address"
        },
        {
          "internalType": "contract IStatusModule",
          "name": "statusImpl_",
          "type": "address"
        },
        {
          "internalType": "contract IWorkersModule",
          "name": "workersImpl_",
          "type": "address"
        }
      ],
      "stateMutability": "nonpayable",
      "type": "constructor"
    },
    {
      "anonymous": false,
      "inputs": [
        {
          "indexed": false,
          "internalType": "address",
          "name": "previousAdmin",
          "type": "address"
        },
        {
          "indexed": false,
          "internalType": "address",
          "name": "newAdmin",
          "type": "address"
        }
      ],
      "name": "AdminChanged",
      "type": "event"
    },
    {
      "anonymous": false,
      "inputs": [
        {
          "indexed": true,
          "internalType": "address",
          "name": "beacon",
          "type": "address"
        }
      ],
      "name": "BeaconUpgraded",
      "type": "event"
    },
    {
      "anonymous": false,
      "inputs": [
        {
          "components": [
            {
              "internalType": "contract ICore",
              "name": "core",
              "type": "address"
            },
            {
              "internalType": "contract IConfigModule",
              "name": "configModule",
              "type": "address"
            },
            {
              "internalType": "contract IPaymentModule",
              "name": "paymentModule",
              "type": "address"
            },
            {
              "internalType": "contract IStatusModule",
              "name": "statusModule",
              "type": "address"
            },
            {
              "internalType": "contract IWorkersModule",
              "name": "workersModule",
              "type": "address"
            }
          ],
          "indexed": false,
          "internalType": "struct DealFactoryState.Deal",
          "name": "deal",
          "type": "tuple"
        },
        {
          "indexed": false,
          "internalType": "address",
          "name": "paymentToken",
          "type": "address"
        },
        {
          "indexed": false,
          "internalType": "uint256",
          "name": "pricePerEpoch",
          "type": "uint256"
        },
        {
          "indexed": false,
          "internalType": "uint256",
          "name": "requiredCollateral",
          "type": "uint256"
        },
        {
          "indexed": false,
          "internalType": "uint256",
          "name": "minWorkers",
          "type": "uint256"
        },
        {
          "indexed": false,
          "internalType": "uint256",
          "name": "maxWorkersPerProvider",
          "type": "uint256"
        },
        {
          "indexed": false,
          "internalType": "uint256",
          "name": "targetWorkers",
          "type": "uint256"
        },
        {
          "components": [
            {
              "internalType": "bytes4",
              "name": "prefixes",
              "type": "bytes4"
            },
            {
              "internalType": "bytes32",
              "name": "hash",
              "type": "bytes32"
            }
          ],
          "indexed": false,
          "internalType": "struct CIDV1",
          "name": "appCID",
          "type": "tuple"
        },
        {
          "components": [
            {
              "internalType": "bytes4",
              "name": "prefixes",
              "type": "bytes4"
            },
            {
              "internalType": "bytes32",
              "name": "hash",
              "type": "bytes32"
            }
          ],
          "indexed": false,
          "internalType": "struct CIDV1[]",
          "name": "effectorWasmsCids",
          "type": "tuple[]"
        },
        {
          "indexed": false,
          "internalType": "uint256",
          "name": "epoch",
          "type": "uint256"
        }
      ],
      "name": "DealCreated",
      "type": "event"
    },
    {
      "anonymous": false,
      "inputs": [
        {
          "indexed": false,
          "internalType": "uint8",
          "name": "version",
          "type": "uint8"
        }
      ],
      "name": "Initialized",
      "type": "event"
    },
    {
      "anonymous": false,
      "inputs": [
        {
          "indexed": true,
          "internalType": "address",
          "name": "implementation",
          "type": "address"
        }
      ],
      "name": "Upgraded",
      "type": "event"
    },
    {
      "inputs": [],
      "name": "MAX_WORKERS_PER_PROVIDER",
      "outputs": [
        {
          "internalType": "uint256",
          "name": "",
          "type": "uint256"
        }
      ],
      "stateMutability": "view",
      "type": "function"
    },
    {
      "inputs": [],
      "name": "PRICE_PER_EPOCH",
      "outputs": [
        {
          "internalType": "uint256",
          "name": "",
          "type": "uint256"
        }
      ],
      "stateMutability": "view",
      "type": "function"
    },
    {
      "inputs": [],
      "name": "REQUIRED_COLLATERAL",
      "outputs": [
        {
          "internalType": "uint256",
          "name": "",
          "type": "uint256"
        }
      ],
      "stateMutability": "view",
      "type": "function"
    },
    {
      "inputs": [],
      "name": "configImpl",
      "outputs": [
        {
          "internalType": "contract IConfigModule",
          "name": "",
          "type": "address"
        }
      ],
      "stateMutability": "view",
      "type": "function"
    },
    {
      "inputs": [],
      "name": "coreImpl",
      "outputs": [
        {
          "internalType": "contract ICore",
          "name": "",
          "type": "address"
        }
      ],
      "stateMutability": "view",
      "type": "function"
    },
    {
      "inputs": [
        {
          "internalType": "uint256",
          "name": "minWorkers_",
          "type": "uint256"
        },
        {
          "internalType": "uint256",
          "name": "targetWorkers_",
          "type": "uint256"
        },
        {
          "components": [
            {
              "internalType": "bytes4",
              "name": "prefixes",
              "type": "bytes4"
            },
            {
              "internalType": "bytes32",
              "name": "hash",
              "type": "bytes32"
            }
          ],
          "internalType": "struct CIDV1",
          "name": "appCID_",
          "type": "tuple"
        },
        {
          "components": [
            {
              "internalType": "bytes4",
              "name": "prefixes",
              "type": "bytes4"
            },
            {
              "internalType": "bytes32",
              "name": "hash",
              "type": "bytes32"
            }
          ],
          "internalType": "struct CIDV1[]",
          "name": "effectors",
          "type": "tuple[]"
        }
      ],
      "name": "createDeal",
      "outputs": [
        {
          "internalType": "address",
          "name": "",
          "type": "address"
        }
      ],
      "stateMutability": "nonpayable",
      "type": "function"
    },
    {
      "inputs": [],
      "name": "defaultPaymentToken",
      "outputs": [
        {
          "internalType": "contract IERC20",
          "name": "",
          "type": "address"
        }
      ],
      "stateMutability": "view",
      "type": "function"
    },
    {
      "inputs": [],
      "name": "globalConfig",
      "outputs": [
        {
          "internalType": "contract IGlobalConfig",
          "name": "",
          "type": "address"
        }
      ],
      "stateMutability": "view",
      "type": "function"
    },
    {
      "inputs": [
        {
          "internalType": "address",
          "name": "",
          "type": "address"
        }
      ],
      "name": "isDeal",
      "outputs": [
        {
          "internalType": "bool",
          "name": "",
          "type": "bool"
        }
      ],
      "stateMutability": "view",
      "type": "function"
    },
    {
      "inputs": [],
      "name": "paymentImpl",
      "outputs": [
        {
          "internalType": "contract IPaymentModule",
          "name": "",
          "type": "address"
        }
      ],
      "stateMutability": "view",
      "type": "function"
    },
    {
      "inputs": [],
      "name": "proxiableUUID",
      "outputs": [
        {
          "internalType": "bytes32",
          "name": "",
          "type": "bytes32"
        }
      ],
      "stateMutability": "view",
      "type": "function"
    },
    {
      "inputs": [],
      "name": "statusImpl",
      "outputs": [
        {
          "internalType": "contract IStatusModule",
          "name": "",
          "type": "address"
        }
      ],
      "stateMutability": "view",
      "type": "function"
    },
    {
      "inputs": [
        {
          "internalType": "address",
          "name": "newImplementation",
          "type": "address"
        }
      ],
      "name": "upgradeTo",
      "outputs": [],
      "stateMutability": "nonpayable",
      "type": "function"
    },
    {
      "inputs": [
        {
          "internalType": "address",
          "name": "newImplementation",
          "type": "address"
        },
        {
          "internalType": "bytes",
          "name": "data",
          "type": "bytes"
        }
      ],
      "name": "upgradeToAndCall",
      "outputs": [],
      "stateMutability": "payable",
      "type": "function"
    },
    {
      "inputs": [],
      "name": "workersImpl",
      "outputs": [
        {
          "internalType": "contract IWorkersModule",
          "name": "",
          "type": "address"
        }
      ],
      "stateMutability": "view",
      "type": "function"
    }
  ],
  "transactionHash": "0x9865499b67869039ff30b0f6255613a8746ebe6e1698ddaead31ab9b9d91ca1b",
  "args": [
    "0x2c13B7030efDD11882FfB7016C2d4e09dCcF946e",
    "0xBe51bc34CF054C4Cd32F0112EeBC9038fe62c40e",
    "0x5B5f4124801815D209e9af24a6ab0cFE6Aa87b1d",
    "0xd9d35C1b6fcdB937c955FBA40932a443E58247f0",
    "0x5D602285B1f13aF140280029B562694b726576B0",
    "0xB30679b98091a56828A1FE77F7932a87e6A68Fb7",
    "0x1F0e0ECC6D20504C3De48A0CCd3679aD85A7DaA0"
  ],
  "numDeployments": 1,
  "solcInputHash": "9aa805292f646e79c2fd4915f738aa67",
  "bytecode": "0x610180346200022457601f6200359838819003918201601f19168301916001600160401b03831184841017620002295780849260e09460405283398101031262000224578051906001600160a01b0380831683036200022457602082015181811681036200022457604083015182811681036200022457606084015191838316830362000224576080850151958487168703620002245760a0860151958587168703620002245760c001519485168503620002245760805260a05260c05260e0526101009283526101209182526101409081526101609030825260015460ff8160081c16620001cf5760ff8082160362000193575b506040519261335894856200024086396080518581816101a4015281816104ca01526113a2015260a05185818161029d01528181610a7f0152610ff8015260c05185818161024a01526109be015260e051858181610b5201526117c40152518481816101f70152610c100152518381816101040152610ca1015251828181610d3301526118160152518181816102eb0152818161043c01526113150152f35b60ff90811916176001557f7f26b83ff96e1f2b6a682f133852f6798a09c465da95921460cefb3847402498602060405160ff8152a138620000f4565b60405162461bcd60e51b815260206004820152602760248201527f496e697469616c697a61626c653a20636f6e747261637420697320696e697469604482015266616c697a696e6760c81b6064820152608490fd5b600080fd5b634e487b7160e01b600052604160045260246000fdfe60808060405260043610156200001457600080fd5b600090813560e01c908163050bb6e814620017e8575080630850562814620017955780633190391614620017755780633659cfe614620012de578063401a352914620008b85780634db44e64146200086b5780634f1ef28614620003a657806352d1902d14620002c15780636412173e146200026e5780636f64bf2a146200021b57806395b767d414620001c8578063a7c1abe01462000175578063ae2447691462000150578063c1f58698146200012b5763d885bee114620000d657600080fd5b346200012857806003193601126200012857602060405173ffffffffffffffffffffffffffffffffffffffff7f0000000000000000000000000000000000000000000000000000000000000000168152f35b80fd5b503462000128578060031936011262000128576020604051670de0b6b3a76400008152f35b503462000128578060031936011262000128576020604051670126e00f6c5b80008152f35b50346200012857806003193601126200012857602060405173ffffffffffffffffffffffffffffffffffffffff7f0000000000000000000000000000000000000000000000000000000000000000168152f35b50346200012857806003193601126200012857602060405173ffffffffffffffffffffffffffffffffffffffff7f0000000000000000000000000000000000000000000000000000000000000000168152f35b50346200012857806003193601126200012857602060405173ffffffffffffffffffffffffffffffffffffffff7f0000000000000000000000000000000000000000000000000000000000000000168152f35b50346200012857806003193601126200012857602060405173ffffffffffffffffffffffffffffffffffffffff7f0000000000000000000000000000000000000000000000000000000000000000168152f35b5034620001285780600319360112620001285773ffffffffffffffffffffffffffffffffffffffff7f00000000000000000000000000000000000000000000000000000000000000001630036200033c5760206040517f360894a13ba1a3210667c828492db98dca3e2076cc3735a920a3ca505d382bbc8152f35b608460405162461bcd60e51b815260206004820152603860248201527f555550535570677261646561626c653a206d757374206e6f742062652063616c60448201527f6c6564207468726f7567682064656c656761746563616c6c00000000000000006064820152fd5b5060406003193601126200012857620003be6200183a565b9060249182359267ffffffffffffffff84116200086757366023850112156200086757836004013593620003f285620018e8565b620004016040519182620018c4565b85815260209586820192368583830101116200086357818792868a930186378301015273ffffffffffffffffffffffffffffffffffffffff807f000000000000000000000000000000000000000000000000000000000000000016906200046b8230141562001905565b6200049c7f360894a13ba1a3210667c828492db98dca3e2076cc3735a920a3ca505d382bbc92828454161462001977565b6040517f8da5cb5b0000000000000000000000000000000000000000000000000000000081528881600481857f0000000000000000000000000000000000000000000000000000000000000000165afa9081156200085857908291899162000813575b50163303620007aa577f4910fdfa16fed3260ed0e7147f7cc6da11a60208b5b9406d12a635614ffd91435460ff16156200054857505050505062000545919250620019e9565b80f35b85929394969516906040517f52d1902d0000000000000000000000000000000000000000000000000000000081528881600481865afa6000918162000775575b50620005f757608489602e8a6040519262461bcd60e51b845260048401528201527f45524331393637557067726164653a206e657720696d706c656d656e7461746960448201527f6f6e206973206e6f7420555550530000000000000000000000000000000000006064820152fd5b9794969192939597036200070c57506200061182620019e9565b7fbc7cd75a20ee27fd9adebab32041f755214dbc6bffa90cc0225b39da2e5c2d3b600080a282511580159062000703575b6200064f575b5050505080f35b600080620006ee95604051956200066687620018a7565b602787527f416464726573733a206c6f772d6c6576656c2064656c65676174652063616c6c868801527f206661696c65640000000000000000000000000000000000000000000000000060408801525190845af4903d15620006f9573d620006ce81620018e8565b90620006de6040519283620018c4565b8152600081943d92013e62001abc565b503880808062000648565b6060925062001abc565b50600162000642565b8360296084926040519262461bcd60e51b845260048401528201527f45524331393637557067726164653a20756e737570706f727465642070726f7860448201527f6961626c655555494400000000000000000000000000000000000000000000006064820152fd5b90918a82813d8311620007a2575b6200078f8183620018c4565b8101031262000128575051903862000588565b503d62000783565b6084886021876040519262461bcd60e51b845260048401528201527f4f6e6c79206f776e65722063616e2063616c6c20746869732066756e6374696f60448201527f6e000000000000000000000000000000000000000000000000000000000000006064820152fd5b8092508a8092503d831162000850575b6200082f8183620018c4565b810103126200084c575181811681036200084c57819038620004ff565b8780fd5b503d62000823565b6040513d8a823e3d90fd5b8680fd5b8280fd5b503462000128576020600319360112620001285760ff604060209273ffffffffffffffffffffffffffffffffffffffff620008a56200183a565b1681528084522054166040519015158152f35b5034620001285760a0600319360112620001285760407fffffffffffffffffffffffffffffffffffffffffffffffffffffffffffffffbc360112620001285767ffffffffffffffff608435116200012857366023608435011215620001285767ffffffffffffffff608435600401351162000128573660246084356004013560061b60843501011162000128576040519060a0820182811067ffffffffffffffff821117620012b1576040528082528060208301528060408301528060608301528060808301526040518061042c81011067ffffffffffffffff61042c83011117620012b15761042c62001cc3823973ffffffffffffffffffffffffffffffffffffffff7f00000000000000000000000000000000000000000000000000000000000000001661042c8201526040602061042c83010152606081601f19601f835180604061042c8601015262000a15818661042c87010162001b5e565b011661042c82010103019082f08015620012a45773ffffffffffffffffffffffffffffffffffffffff166040517fb817045900000000000000000000000000000000000000000000000000000000602082015273ffffffffffffffffffffffffffffffffffffffff7f0000000000000000000000000000000000000000000000000000000000000000166024820152670126e00f6c5b80006044820152670de0b6b3a7640000606482015262000ace6084820162001bc5565b60043560c48201526298968060e482015260243561010482015261012061012482015262000b218162000b1261014482016084356004013560246084350162001bff565b03601f198101835282620018c4565b604051908161048d81011067ffffffffffffffff61048d84011117620012775762000ba0829161048d620020ef84397f000000000000000000000000000000000000000000000000000000000000000073ffffffffffffffffffffffffffffffffffffffff1661048d8401908152606060208201819052019062001b83565b83604061048d84010152039083f080156200115d5773ffffffffffffffffffffffffffffffffffffffff166040518061048d81011067ffffffffffffffff61048d83011117620012775761048d6200257c82398062000c3b8473ffffffffffffffffffffffffffffffffffffffff7f00000000000000000000000000000000000000000000000000000000000000001661048d840162001c70565b039084f080156200126c5773ffffffffffffffffffffffffffffffffffffffff166040518061048d81011067ffffffffffffffff61048d830111176200123f5761048d62002a0982398062000ccc8573ffffffffffffffffffffffffffffffffffffffff7f00000000000000000000000000000000000000000000000000000000000000001661048d840162001c70565b039085f08015620012345773ffffffffffffffffffffffffffffffffffffffff16906040518061048d81011067ffffffffffffffff61048d83011117620012075761048d62002e9682398062000d5e8673ffffffffffffffffffffffffffffffffffffffff7f00000000000000000000000000000000000000000000000000000000000000001661048d840162001c70565b039086f0928315620011fc57843b15620011d75773ffffffffffffffffffffffffffffffffffffffff604051947ff8c8765e00000000000000000000000000000000000000000000000000000000865282600487015283602487015284604487015216938460648201528681608481838a5af18015620011db57620011e6575b50843b15620011d7576040517ff2fde38b0000000000000000000000000000000000000000000000000000000081523360048201528681602481838a5af18015620011db57908791620011bf575b505084875260208701526040860152606085015260808401528152806020526040812060017fffffffffffffffffffffffffffffffffffffffffffffffffffffffffffffff008254161790556004602073ffffffffffffffffffffffffffffffffffffffff8185015116604051928380927fa7c1abe00000000000000000000000000000000000000000000000000000000082525afa9081156200115d57829162001168575b50602073ffffffffffffffffffffffffffffffffffffffff916004604051809481937fe2d2bfe3000000000000000000000000000000000000000000000000000000008352165afa9081156200115d57829162001102575b50602073ffffffffffffffffffffffffffffffffffffffff916004604051809481937f76671808000000000000000000000000000000000000000000000000000000008352165afa918215620010f65780926200109b575b602073ffffffffffffffffffffffffffffffffffffffff857f9f3a943e54f4cf2d610cf7ead8694dfb80943e519278869e3a7a4b2bc0d2c7f286604051809185855116825285878601511687830152856040860151166040830152856060860151166060830152856080860151166080830152857f00000000000000000000000000000000000000000000000000000000000000001660a0830152670126e00f6c5b800060c0830152670de0b6b3a764000060e08301526004356101008301526298968061012083015260243561014083015262001064610160830162001bc5565b620010876101e0806101a085015283016084356004013560246084350162001bff565b906101c08301520390a15116604051908152f35b9091506020823d602011620010ed575b81620010ba60209383620018c4565b8101031262000128575051817f9f3a943e54f4cf2d610cf7ead8694dfb80943e519278869e3a7a4b2bc0d2c7f262000f82565b3d9150620010ab565b604051903d90823e3d90fd5b90506020813d60201162001154575b816200112060209383620018c4565b8101031262001150575173ffffffffffffffffffffffffffffffffffffffff811681036200115057602062000f2a565b5080fd5b3d915062001111565b6040513d84823e3d90fd5b90506020813d602011620011b6575b816200118660209383620018c4565b8101031262001150575173ffffffffffffffffffffffffffffffffffffffff811681036200115057602062000ed2565b3d915062001177565b620011ca9062001863565b620011d757853862000e2c565b8580fd5b6040513d89823e3d90fd5b620011f49096919662001863565b943862000dde565b6040513d87823e3d90fd5b6024867f4e487b710000000000000000000000000000000000000000000000000000000081526041600452fd5b6040513d86823e3d90fd5b6024857f4e487b710000000000000000000000000000000000000000000000000000000081526041600452fd5b6040513d85823e3d90fd5b6024847f4e487b710000000000000000000000000000000000000000000000000000000081526041600452fd5b50604051903d90823e3d90fd5b6024827f4e487b710000000000000000000000000000000000000000000000000000000081526041600452fd5b503462000128576020806003193601126200115057620012fd6200183a565b73ffffffffffffffffffffffffffffffffffffffff807f000000000000000000000000000000000000000000000000000000000000000016620013438130141562001905565b620013747f360894a13ba1a3210667c828492db98dca3e2076cc3735a920a3ca505d382bbc91838354161462001977565b6040517f8da5cb5b0000000000000000000000000000000000000000000000000000000081528481600481867f0000000000000000000000000000000000000000000000000000000000000000165afa80156200176a578391879162001729575b50163303620016bf57604051908482019282841067ffffffffffffffff85111762001692578360405286835260ff7f4910fdfa16fed3260ed0e7147f7cc6da11a60208b5b9406d12a635614ffd914354166000146200143e5750505050620005459150620019e9565b8492939416906040517f52d1902d0000000000000000000000000000000000000000000000000000000081528681600481865afa88918162001659575b50620014eb576084876040519062461bcd60e51b82526004820152602e60248201527f45524331393637557067726164653a206e657720696d706c656d656e7461746960448201527f6f6e206973206e6f7420555550530000000000000000000000000000000000006064820152fd5b9593949503620015ef576200150082620019e9565b7fbc7cd75a20ee27fd9adebab32041f755214dbc6bffa90cc0225b39da2e5c2d3b8680a284835115801590620015e7575b6200153f575b505050505080f35b80620015db95604051956200155487620018a7565b602787527f416464726573733a206c6f772d6c6576656c2064656c65676174652063616c6c868801527f206661696c65640000000000000000000000000000000000000000000000000060408801525190845af4903d15620006f9573d620015bc81620018e8565b90620015cc6040519283620018c4565b81528681943d92013e62001abc565b50388080808462001537565b508062001531565b6084836040519062461bcd60e51b82526004820152602960248201527f45524331393637557067726164653a20756e737570706f727465642070726f7860448201527f6961626c655555494400000000000000000000000000000000000000000000006064820152fd5b9091508781813d83116200168a575b620016748183620018c4565b8101031262001686575190386200147b565b8880fd5b503d62001668565b6024877f4e487b710000000000000000000000000000000000000000000000000000000081526041600452fd5b6084846040519062461bcd60e51b82526004820152602160248201527f4f6e6c79206f776e65722063616e2063616c6c20746869732066756e6374696f60448201527f6e000000000000000000000000000000000000000000000000000000000000006064820152fd5b809250868092503d831162001762575b620017458183620018c4565b81010312620011d757518281168103620011d757829038620013d5565b503d62001739565b6040513d88823e3d90fd5b503462000128578060031936011262000128576020604051629896808152f35b50346200012857806003193601126200012857602060405173ffffffffffffffffffffffffffffffffffffffff7f0000000000000000000000000000000000000000000000000000000000000000168152f35b905034620011505781600319360112620011505760209073ffffffffffffffffffffffffffffffffffffffff7f0000000000000000000000000000000000000000000000000000000000000000168152f35b6004359073ffffffffffffffffffffffffffffffffffffffff821682036200185e57565b600080fd5b67ffffffffffffffff81116200187857604052565b7f4e487b7100000000000000000000000000000000000000000000000000000000600052604160045260246000fd5b6060810190811067ffffffffffffffff8211176200187857604052565b90601f601f19910116810190811067ffffffffffffffff8211176200187857604052565b67ffffffffffffffff81116200187857601f01601f191660200190565b156200190d57565b608460405162461bcd60e51b815260206004820152602c60248201527f46756e6374696f6e206d7573742062652063616c6c6564207468726f7567682060448201527f64656c656761746563616c6c00000000000000000000000000000000000000006064820152fd5b156200197f57565b608460405162461bcd60e51b815260206004820152602c60248201527f46756e6374696f6e206d7573742062652063616c6c6564207468726f7567682060448201527f6163746976652070726f787900000000000000000000000000000000000000006064820152fd5b803b1562001a525773ffffffffffffffffffffffffffffffffffffffff7f360894a13ba1a3210667c828492db98dca3e2076cc3735a920a3ca505d382bbc91167fffffffffffffffffffffffff0000000000000000000000000000000000000000825416179055565b608460405162461bcd60e51b815260206004820152602d60248201527f455243313936373a206e657720696d706c656d656e746174696f6e206973206e60448201527f6f74206120636f6e7472616374000000000000000000000000000000000000006064820152fd5b9192901562001b20575081511562001ad2575090565b3b1562001adc5790565b606460405162461bcd60e51b815260206004820152601d60248201527f416464726573733a2063616c6c20746f206e6f6e2d636f6e74726163740000006044820152fd5b82519091501562001b345750805190602001fd5b62001b5a9060405191829162461bcd60e51b835260206004840152602483019062001b83565b0390fd5b60005b82811062001b7157506000910152565b60808101518282015260200162001b61565b919082519283825260005b84811062001bb0575050601f19601f8460006020809697860101520116010190565b60208183018101518483018201520162001b8e565b6044357fffffffff0000000000000000000000000000000000000000000000000000000081168091036200185e5781526020606435910152565b918181526020809101929160009182905b82821062001c2057505050505090565b909192939485357fffffffff000000000000000000000000000000000000000000000000000000008116809103620011d75781528582013582820152604090810195019392916001019062001c10565b9060409093929373ffffffffffffffffffffffffffffffffffffffff8091168352606060208401526080601f19601f60605180606088015262001cb68185890162001b5e565b0116840101941691015256fe60406080815261042c908138038061001681610218565b93843982019181818403126102135780516001600160a01b038116808203610213576020838101516001600160401b0394919391858211610213570186601f820112156102135780519061007161006c83610253565b610218565b918083528583019886828401011161021357888661008f930161026e565b813b156101b9577f360894a13ba1a3210667c828492db98dca3e2076cc3735a920a3ca505d382bbc80546001600160a01b031916841790556000927fbc7cd75a20ee27fd9adebab32041f755214dbc6bffa90cc0225b39da2e5c2d3b8480a28051158015906101b2575b61010b575b855160e790816103458239f35b855194606086019081118682101761019e578697849283926101889952602788527f416464726573733a206c6f772d6c6576656c2064656c65676174652063616c6c87890152660819985a5b195960ca1b8a8901525190845af4913d15610194573d9061017a61006c83610253565b91825281943d92013e610291565b508038808080806100fe565b5060609250610291565b634e487b7160e01b84526041600452602484fd5b50826100f9565b855162461bcd60e51b815260048101859052602d60248201527f455243313936373a206e657720696d706c656d656e746174696f6e206973206e60448201526c1bdd08184818dbdb9d1c9858dd609a1b6064820152608490fd5b600080fd5b6040519190601f01601f191682016001600160401b0381118382101761023d57604052565b634e487b7160e01b600052604160045260246000fd5b6001600160401b03811161023d57601f01601f191660200190565b60005b8381106102815750506000910152565b8181015183820152602001610271565b919290156102f357508151156102a5575090565b3b156102ae5790565b60405162461bcd60e51b815260206004820152601d60248201527f416464726573733a2063616c6c20746f206e6f6e2d636f6e74726163740000006044820152606490fd5b8251909150156103065750805190602001fd5b6044604051809262461bcd60e51b825260206004830152610336815180928160248601526020868601910161026e565b601f01601f19168101030190fdfe60806040523615605f5773ffffffffffffffffffffffffffffffffffffffff7f360894a13ba1a3210667c828492db98dca3e2076cc3735a920a3ca505d382bbc54166000808092368280378136915af43d82803e15605b573d90f35b3d90fd5b73ffffffffffffffffffffffffffffffffffffffff7f360894a13ba1a3210667c828492db98dca3e2076cc3735a920a3ca505d382bbc54166000808092368280378136915af43d82803e15605b573d90f3fea264697066735822122011d50ffd6a92f831e1e524d29a77ed828f2b1965f288c95f50ea948b7eefbce864736f6c63430008110033604060808152346102605761048d8038038061001a81610265565b92833981019060608183031261026057610033816102a0565b6020828101516001600160401b03919082811161026057840185601f8201121561026057805161006a610065826102b4565b610265565b95818752838701978483850101116102605761008d8992898661009396016102cf565b016102a0565b94833b15610206577f360894a13ba1a3210667c828492db98dca3e2076cc3735a920a3ca505d382bbc80546001600160a01b03199081166001600160a01b0387811691821790935590969195600093909290917fbc7cd75a20ee27fd9adebab32041f755214dbc6bffa90cc0225b39da2e5c2d3b8580a28051158015906101ff575b610156575b5050505050507fe0c154d538f20c8d1aadcd299210daa7f0a434a5bf4a39795668b28b61ec6e969216908254161790555160e790816103a68239f35b89519560608701908111878210176101eb578a52602786527f416464726573733a206c6f772d6c6576656c2064656c65676174652063616c6c85870152660819985a5b195960ca1b8a870152516101d5959493929183918291845af4913d156101e1573d906101c7610065836102b4565b91825281943d92013e6102f2565b5038808080808061011a565b50606092506102f2565b634e487b7160e01b85526041600452602485fd5b5083610115565b865162461bcd60e51b815260048101839052602d60248201527f455243313936373a206e657720696d706c656d656e746174696f6e206973206e60448201526c1bdd08184818dbdb9d1c9858dd609a1b6064820152608490fd5b600080fd5b6040519190601f01601f191682016001600160401b0381118382101761028a57604052565b634e487b7160e01b600052604160045260246000fd5b51906001600160a01b038216820361026057565b6001600160401b03811161028a57601f01601f191660200190565b60005b8381106102e25750506000910152565b81810151838201526020016102d2565b919290156103545750815115610306575090565b3b1561030f5790565b60405162461bcd60e51b815260206004820152601d60248201527f416464726573733a2063616c6c20746f206e6f6e2d636f6e74726163740000006044820152606490fd5b8251909150156103675750805190602001fd5b6044604051809262461bcd60e51b82526020600483015261039781518092816024860152602086860191016102cf565b601f01601f19168101030190fdfe60806040523615605f5773ffffffffffffffffffffffffffffffffffffffff7f360894a13ba1a3210667c828492db98dca3e2076cc3735a920a3ca505d382bbc54166000808092368280378136915af43d82803e15605b573d90f35b3d90fd5b73ffffffffffffffffffffffffffffffffffffffff7f360894a13ba1a3210667c828492db98dca3e2076cc3735a920a3ca505d382bbc54166000808092368280378136915af43d82803e15605b573d90f3fea26469706673582212208072de2204da3c606b230974fbfd465975b9f20c711704018a06aceed5b3437f64736f6c63430008110033604060808152346102605761048d8038038061001a81610265565b92833981019060608183031261026057610033816102a0565b6020828101516001600160401b03919082811161026057840185601f8201121561026057805161006a610065826102b4565b610265565b95818752838701978483850101116102605761008d8992898661009396016102cf565b016102a0565b94833b15610206577f360894a13ba1a3210667c828492db98dca3e2076cc3735a920a3ca505d382bbc80546001600160a01b03199081166001600160a01b0387811691821790935590969195600093909290917fbc7cd75a20ee27fd9adebab32041f755214dbc6bffa90cc0225b39da2e5c2d3b8580a28051158015906101ff575b610156575b5050505050507fe0c154d538f20c8d1aadcd299210daa7f0a434a5bf4a39795668b28b61ec6e969216908254161790555160e790816103a68239f35b89519560608701908111878210176101eb578a52602786527f416464726573733a206c6f772d6c6576656c2064656c65676174652063616c6c85870152660819985a5b195960ca1b8a870152516101d5959493929183918291845af4913d156101e1573d906101c7610065836102b4565b91825281943d92013e6102f2565b5038808080808061011a565b50606092506102f2565b634e487b7160e01b85526041600452602485fd5b5083610115565b865162461bcd60e51b815260048101839052602d60248201527f455243313936373a206e657720696d706c656d656e746174696f6e206973206e60448201526c1bdd08184818dbdb9d1c9858dd609a1b6064820152608490fd5b600080fd5b6040519190601f01601f191682016001600160401b0381118382101761028a57604052565b634e487b7160e01b600052604160045260246000fd5b51906001600160a01b038216820361026057565b6001600160401b03811161028a57601f01601f191660200190565b60005b8381106102e25750506000910152565b81810151838201526020016102d2565b919290156103545750815115610306575090565b3b1561030f5790565b60405162461bcd60e51b815260206004820152601d60248201527f416464726573733a2063616c6c20746f206e6f6e2d636f6e74726163740000006044820152606490fd5b8251909150156103675750805190602001fd5b6044604051809262461bcd60e51b82526020600483015261039781518092816024860152602086860191016102cf565b601f01601f19168101030190fdfe60806040523615605f5773ffffffffffffffffffffffffffffffffffffffff7f360894a13ba1a3210667c828492db98dca3e2076cc3735a920a3ca505d382bbc54166000808092368280378136915af43d82803e15605b573d90f35b3d90fd5b73ffffffffffffffffffffffffffffffffffffffff7f360894a13ba1a3210667c828492db98dca3e2076cc3735a920a3ca505d382bbc54166000808092368280378136915af43d82803e15605b573d90f3fea26469706673582212208072de2204da3c606b230974fbfd465975b9f20c711704018a06aceed5b3437f64736f6c63430008110033604060808152346102605761048d8038038061001a81610265565b92833981019060608183031261026057610033816102a0565b6020828101516001600160401b03919082811161026057840185601f8201121561026057805161006a610065826102b4565b610265565b95818752838701978483850101116102605761008d8992898661009396016102cf565b016102a0565b94833b15610206577f360894a13ba1a3210667c828492db98dca3e2076cc3735a920a3ca505d382bbc80546001600160a01b03199081166001600160a01b0387811691821790935590969195600093909290917fbc7cd75a20ee27fd9adebab32041f755214dbc6bffa90cc0225b39da2e5c2d3b8580a28051158015906101ff575b610156575b5050505050507fe0c154d538f20c8d1aadcd299210daa7f0a434a5bf4a39795668b28b61ec6e969216908254161790555160e790816103a68239f35b89519560608701908111878210176101eb578a52602786527f416464726573733a206c6f772d6c6576656c2064656c65676174652063616c6c85870152660819985a5b195960ca1b8a870152516101d5959493929183918291845af4913d156101e1573d906101c7610065836102b4565b91825281943d92013e6102f2565b5038808080808061011a565b50606092506102f2565b634e487b7160e01b85526041600452602485fd5b5083610115565b865162461bcd60e51b815260048101839052602d60248201527f455243313936373a206e657720696d706c656d656e746174696f6e206973206e60448201526c1bdd08184818dbdb9d1c9858dd609a1b6064820152608490fd5b600080fd5b6040519190601f01601f191682016001600160401b0381118382101761028a57604052565b634e487b7160e01b600052604160045260246000fd5b51906001600160a01b038216820361026057565b6001600160401b03811161028a57601f01601f191660200190565b60005b8381106102e25750506000910152565b81810151838201526020016102d2565b919290156103545750815115610306575090565b3b1561030f5790565b60405162461bcd60e51b815260206004820152601d60248201527f416464726573733a2063616c6c20746f206e6f6e2d636f6e74726163740000006044820152606490fd5b8251909150156103675750805190602001fd5b6044604051809262461bcd60e51b82526020600483015261039781518092816024860152602086860191016102cf565b601f01601f19168101030190fdfe60806040523615605f5773ffffffffffffffffffffffffffffffffffffffff7f360894a13ba1a3210667c828492db98dca3e2076cc3735a920a3ca505d382bbc54166000808092368280378136915af43d82803e15605b573d90f35b3d90fd5b73ffffffffffffffffffffffffffffffffffffffff7f360894a13ba1a3210667c828492db98dca3e2076cc3735a920a3ca505d382bbc54166000808092368280378136915af43d82803e15605b573d90f3fea26469706673582212208072de2204da3c606b230974fbfd465975b9f20c711704018a06aceed5b3437f64736f6c63430008110033604060808152346102605761048d8038038061001a81610265565b92833981019060608183031261026057610033816102a0565b6020828101516001600160401b03919082811161026057840185601f8201121561026057805161006a610065826102b4565b610265565b95818752838701978483850101116102605761008d8992898661009396016102cf565b016102a0565b94833b15610206577f360894a13ba1a3210667c828492db98dca3e2076cc3735a920a3ca505d382bbc80546001600160a01b03199081166001600160a01b0387811691821790935590969195600093909290917fbc7cd75a20ee27fd9adebab32041f755214dbc6bffa90cc0225b39da2e5c2d3b8580a28051158015906101ff575b610156575b5050505050507fe0c154d538f20c8d1aadcd299210daa7f0a434a5bf4a39795668b28b61ec6e969216908254161790555160e790816103a68239f35b89519560608701908111878210176101eb578a52602786527f416464726573733a206c6f772d6c6576656c2064656c65676174652063616c6c85870152660819985a5b195960ca1b8a870152516101d5959493929183918291845af4913d156101e1573d906101c7610065836102b4565b91825281943d92013e6102f2565b5038808080808061011a565b50606092506102f2565b634e487b7160e01b85526041600452602485fd5b5083610115565b865162461bcd60e51b815260048101839052602d60248201527f455243313936373a206e657720696d706c656d656e746174696f6e206973206e60448201526c1bdd08184818dbdb9d1c9858dd609a1b6064820152608490fd5b600080fd5b6040519190601f01601f191682016001600160401b0381118382101761028a57604052565b634e487b7160e01b600052604160045260246000fd5b51906001600160a01b038216820361026057565b6001600160401b03811161028a57601f01601f191660200190565b60005b8381106102e25750506000910152565b81810151838201526020016102d2565b919290156103545750815115610306575090565b3b1561030f5790565b60405162461bcd60e51b815260206004820152601d60248201527f416464726573733a2063616c6c20746f206e6f6e2d636f6e74726163740000006044820152606490fd5b8251909150156103675750805190602001fd5b6044604051809262461bcd60e51b82526020600483015261039781518092816024860152602086860191016102cf565b601f01601f19168101030190fdfe60806040523615605f5773ffffffffffffffffffffffffffffffffffffffff7f360894a13ba1a3210667c828492db98dca3e2076cc3735a920a3ca505d382bbc54166000808092368280378136915af43d82803e15605b573d90f35b3d90fd5b73ffffffffffffffffffffffffffffffffffffffff7f360894a13ba1a3210667c828492db98dca3e2076cc3735a920a3ca505d382bbc54166000808092368280378136915af43d82803e15605b573d90f3fea26469706673582212208072de2204da3c606b230974fbfd465975b9f20c711704018a06aceed5b3437f64736f6c63430008110033a2646970667358221220bbf6f44728da9d12193ce03d195ad4d2e0f1713afb9808eb7524dd633721852764736f6c63430008110033",
  "devdoc": {
    "kind": "dev",
    "methods": {
      "proxiableUUID()": {
        "details": "Implementation of the ERC1822 {proxiableUUID} function. This returns the storage slot used by the implementation. It is used to validate the implementation's compatibility when performing an upgrade. IMPORTANT: A proxy pointing at a proxiable contract should not be considered proxiable itself, because this risks bricking a proxy that upgrades to it, by delegating to itself until out of gas. Thus it is critical that this function revert if invoked through a proxy. This is guaranteed by the `notDelegated` modifier."
      },
      "upgradeTo(address)": {
        "custom:oz-upgrades-unsafe-allow-reachable": "delegatecall",
        "details": "Upgrade the implementation of the proxy to `newImplementation`. Calls {_authorizeUpgrade}. Emits an {Upgraded} event."
      },
      "upgradeToAndCall(address,bytes)": {
        "custom:oz-upgrades-unsafe-allow-reachable": "delegatecall",
        "details": "Upgrade the implementation of the proxy to `newImplementation`, and subsequently execute the function call encoded in `data`. Calls {_authorizeUpgrade}. Emits an {Upgraded} event."
      }
    },
    "version": 1
  },
  "userdoc": {
    "kind": "user",
    "methods": {},
    "version": 1
  },
  "storageLayout": {
    "storage": [
      {
        "astId": 6249,
        "contract": "contracts/global/DealFactory.sol:DealFactory",
        "label": "isDeal",
        "offset": 0,
        "slot": "0",
        "type": "t_mapping(t_address,t_bool)"
      },
      {
        "astId": 503,
        "contract": "contracts/global/DealFactory.sol:DealFactory",
        "label": "_initialized",
        "offset": 0,
        "slot": "1",
        "type": "t_uint8"
      },
      {
        "astId": 506,
        "contract": "contracts/global/DealFactory.sol:DealFactory",
        "label": "_initializing",
        "offset": 1,
        "slot": "1",
        "type": "t_bool"
      },
      {
        "astId": 485,
        "contract": "contracts/global/DealFactory.sol:DealFactory",
        "label": "__gap",
        "offset": 0,
        "slot": "2",
        "type": "t_array(t_uint256)50_storage"
      },
      {
        "astId": 800,
        "contract": "contracts/global/DealFactory.sol:DealFactory",
        "label": "__gap",
        "offset": 0,
        "slot": "52",
        "type": "t_array(t_uint256)50_storage"
      }
    ],
    "types": {
      "t_address": {
        "encoding": "inplace",
        "label": "address",
        "numberOfBytes": "20"
      },
      "t_array(t_uint256)50_storage": {
        "base": "t_uint256",
        "encoding": "inplace",
        "label": "uint256[50]",
        "numberOfBytes": "1600"
      },
      "t_bool": {
        "encoding": "inplace",
        "label": "bool",
        "numberOfBytes": "1"
      },
      "t_mapping(t_address,t_bool)": {
        "encoding": "mapping",
        "key": "t_address",
        "label": "mapping(address => bool)",
        "numberOfBytes": "32",
        "value": "t_bool"
      },
      "t_uint256": {
        "encoding": "inplace",
        "label": "uint256",
        "numberOfBytes": "32"
      },
      "t_uint8": {
        "encoding": "inplace",
        "label": "uint8",
        "numberOfBytes": "1"
      }
    }
  }
}