{
  "address": "0xEBeb9961F2f734e3D979db3B7D8633C409d03580",
  "abi": [
    {
      "inputs": [
        {
          "internalType": "contract IERC20",
          "name": "fluenceToken_",
          "type": "address"
        },
        {
          "internalType": "contract IERC20",
          "name": "usdToken_",
          "type": "address"
        }
      ],
      "stateMutability": "nonpayable",
      "type": "constructor"
    },
    {
      "anonymous": false,
      "inputs": [
        {
          "indexed": true,
          "internalType": "address",
          "name": "previousOwner",
          "type": "address"
        },
        {
          "indexed": true,
          "internalType": "address",
          "name": "newOwner",
          "type": "address"
        }
      ],
      "name": "OwnershipTransferred",
      "type": "event"
    },
    {
      "inputs": [],
      "name": "fluenceToken",
      "outputs": [
        {
          "internalType": "contract IERC20",
          "name": "",
          "type": "address"
        }
      ],
      "stateMutability": "view",
      "type": "function"
    },
    {
      "inputs": [
        {
          "internalType": "bytes[]",
          "name": "data",
          "type": "bytes[]"
        }
      ],
      "name": "multicall",
      "outputs": [
        {
          "internalType": "bytes[]",
          "name": "results",
          "type": "bytes[]"
        }
      ],
      "stateMutability": "nonpayable",
      "type": "function"
    },
    {
      "inputs": [],
      "name": "owner",
      "outputs": [
        {
          "internalType": "address",
          "name": "",
          "type": "address"
        }
      ],
      "stateMutability": "view",
      "type": "function"
    },
    {
      "inputs": [],
      "name": "renounceOwnership",
      "outputs": [],
      "stateMutability": "nonpayable",
      "type": "function"
    },
    {
      "inputs": [
        {
          "internalType": "address",
          "name": "addr",
          "type": "address"
        },
        {
          "internalType": "uint256",
          "name": "value",
          "type": "uint256"
        }
      ],
      "name": "sendFLT",
      "outputs": [],
      "stateMutability": "nonpayable",
      "type": "function"
    },
    {
      "inputs": [
        {
          "internalType": "address",
          "name": "addr",
          "type": "address"
        },
        {
          "internalType": "uint256",
          "name": "value",
          "type": "uint256"
        }
      ],
      "name": "sendUSD",
      "outputs": [],
      "stateMutability": "nonpayable",
      "type": "function"
    },
    {
      "inputs": [
        {
          "internalType": "address",
          "name": "newOwner",
          "type": "address"
        }
      ],
      "name": "transferOwnership",
      "outputs": [],
      "stateMutability": "nonpayable",
      "type": "function"
    },
    {
      "inputs": [],
      "name": "usdToken",
      "outputs": [
        {
          "internalType": "contract IERC20",
          "name": "",
          "type": "address"
        }
      ],
      "stateMutability": "view",
      "type": "function"
    }
  ],
  "transactionHash": "0xe00b24d18020fe087ab47eac84248d0b8edc91e7055f9a5d6df3b2eb5957027e",
  "args": [
    "0x5AdE2a8817399C9790dC03B08bC057128b673Eb1",
    "0x5B8fE06D83d99A3Da7A8D484F85aEaAA1aE3acd3"
  ],
  "numDeployments": 1,
  "solcInputHash": "9aa805292f646e79c2fd4915f738aa67",
  "bytecode": "0x60c0346100cc57601f610baf38819003918201601f19168301916001600160401b038311848410176100d15780849260409485528339810103126100cc57610052602061004b836100e7565b92016100e7565b60008054336001600160a01b0319821681178355604051949290916001600160a01b0316907f8be0079c531659141344cd1fd0a4f28419497f9722a3daafe3b4186f6b6457e09080a360805260a052610ab390816100fc82396080518181816105450152610759015260a05181818160a601526106b80152f35b600080fd5b634e487b7160e01b600052604160045260246000fd5b51906001600160a01b03821682036100cc5756fe6040608081526004908136101561001557600080fd5b600091823560e01c9081630af76b8f1461071e5781633922f5421461061d578163715018a61461059c5781638da5cb5b14610569578163ac027f9714610518578163ac9650d8146101eb578163f2fde38b146100ce575063f897a22b1461007b57600080fd5b346100ca57816003193601126100ca576020905173ffffffffffffffffffffffffffffffffffffffff7f0000000000000000000000000000000000000000000000000000000000000000168152f35b5080fd5b9050346101e75760206003193601126101e7576100e961078b565b906100f2610811565b73ffffffffffffffffffffffffffffffffffffffff8092169283156101645750508254827fffffffffffffffffffffffff00000000000000000000000000000000000000008216178455167f8be0079c531659141344cd1fd0a4f28419497f9722a3daafe3b4186f6b6457e08380a380f35b90602060849251917f08c379a0000000000000000000000000000000000000000000000000000000008352820152602660248201527f4f776e61626c653a206e6577206f776e657220697320746865207a65726f206160448201527f64647265737300000000000000000000000000000000000000000000000000006064820152fd5b8280fd5b8383346100ca57602090816003193601126101e75783359167ffffffffffffffff948584116105145736602385011215610514578381013593868511610510576024916005973684888b1b8501011161050c5761024d87939798969598610900565b9661025a86519889610890565b8388527fffffffffffffffffffffffffffffffffffffffffffffffffffffffffffffffe061028785610900565b01875b8181106104fd57505086907fffffffffffffffffffffffffffffffffffffffffffffffffffffffffffffffbd81360301915b85811061033f57505050505050508051938080860192818752855180945283818801981b870101940192955b8287106102f55785850386f35b90919293828061032f837fffffffffffffffffffffffffffffffffffffffffffffffffffffffffffffffc08a6001960301865288516107b3565b96019201960195929190926102e8565b86818d9c999a9c1b83010135838112156104f9578201878101358581116104f5576044918281019082360382136104f1579082916103896103808f95610918565b94519485610890565b8284528c8401948336920101116104f157818f928d928637830101528a5191606091828401848110898211176104c5578f80938f938f857f416464726573733a206c6f772d6c6576656c2064656c65676174652063616c6c7f206661696c65640000000000000000000000000000000000000000000000000092869761044a9c9b995260278b528a01528801525190305af4903d156104be57508c3d61043a61043182610918565b92519283610890565b815280928d3d92013e5b30610995565b610454828c610952565b5261045f818b610952565b507fffffffffffffffffffffffffffffffffffffffffffffffffffffffffffffffff811461049357600101999796996102bc565b868b6011877f4e487b7100000000000000000000000000000000000000000000000000000000835252fd5b9150610444565b508a8f60418b7f4e487b7100000000000000000000000000000000000000000000000000000000835252fd5b8e80fd5b8c80fd5b8b80fd5b60608a82018c01528a0161028a565b8780fd5b8580fd5b8480fd5b5050346100ca57816003193601126100ca576020905173ffffffffffffffffffffffffffffffffffffffff7f0000000000000000000000000000000000000000000000000000000000000000168152f35b5050346100ca57816003193601126100ca5773ffffffffffffffffffffffffffffffffffffffff60209254169051908152f35b833461061a578060031936011261061a576105b5610811565b8073ffffffffffffffffffffffffffffffffffffffff81547fffffffffffffffffffffffff000000000000000000000000000000000000000081168355167f8be0079c531659141344cd1fd0a4f28419497f9722a3daafe3b4186f6b6457e08280a380f35b80fd5b919050346101e757806003193601126101e757602061069e9261063e61078b565b610646610811565b835194859283927fa9059cbb0000000000000000000000000000000000000000000000000000000084526024359184016020909392919373ffffffffffffffffffffffffffffffffffffffff60408201951681520152565b03818673ffffffffffffffffffffffffffffffffffffffff7f0000000000000000000000000000000000000000000000000000000000000000165af190811561071557506106ea575080f35b61070a9060203d811161070e575b6107028183610890565b810190610a65565b5080f35b503d6106f8565b513d84823e3d90fd5b919050346101e757806003193601126101e757602061073f9261063e61078b565b03818673ffffffffffffffffffffffffffffffffffffffff7f0000000000000000000000000000000000000000000000000000000000000000165af190811561071557506106ea575080f35b6004359073ffffffffffffffffffffffffffffffffffffffff821682036107ae57565b600080fd5b919082519283825260005b8481106107fd5750507fffffffffffffffffffffffffffffffffffffffffffffffffffffffffffffffe0601f8460006020809697860101520116010190565b6020818301810151848301820152016107be565b73ffffffffffffffffffffffffffffffffffffffff60005416330361083257565b60646040517f08c379a000000000000000000000000000000000000000000000000000000000815260206004820152602060248201527f4f776e61626c653a2063616c6c6572206973206e6f7420746865206f776e65726044820152fd5b90601f7fffffffffffffffffffffffffffffffffffffffffffffffffffffffffffffffe0910116810190811067ffffffffffffffff8211176108d157604052565b7f4e487b7100000000000000000000000000000000000000000000000000000000600052604160045260246000fd5b67ffffffffffffffff81116108d15760051b60200190565b67ffffffffffffffff81116108d157601f017fffffffffffffffffffffffffffffffffffffffffffffffffffffffffffffffe01660200190565b80518210156109665760209160051b010190565b7f4e487b7100000000000000000000000000000000000000000000000000000000600052603260045260246000fd5b91929015610a1057508151156109a9575090565b3b156109b25790565b60646040517f08c379a000000000000000000000000000000000000000000000000000000000815260206004820152601d60248201527f416464726573733a2063616c6c20746f206e6f6e2d636f6e74726163740000006044820152fd5b825190915015610a235750805190602001fd5b610a61906040519182917f08c379a00000000000000000000000000000000000000000000000000000000083526020600484015260248301906107b3565b0390fd5b908160209103126107ae575180151581036107ae579056fea26469706673582212207b2110aba45b0878f1aa0fd78a928a9995a1d9645583e0f62ec289c06e1a803164736f6c63430008110033",
  "devdoc": {
    "kind": "dev",
    "methods": {
      "multicall(bytes[])": {
        "custom:oz-upgrades-unsafe-allow-reachable": "delegatecall",
        "details": "Receives and executes a batch of function calls on this contract."
      },
      "owner()": {
        "details": "Returns the address of the current owner."
      },
      "renounceOwnership()": {
        "details": "Leaves the contract without owner. It will not be possible to call `onlyOwner` functions. Can only be called by the current owner. NOTE: Renouncing ownership will leave the contract without an owner, thereby disabling any functionality that is only available to the owner."
      },
      "transferOwnership(address)": {
        "details": "Transfers ownership of the contract to a new account (`newOwner`). Can only be called by the current owner."
      }
    },
    "version": 1
  },
  "userdoc": {
    "kind": "user",
    "methods": {},
    "version": 1
  },
  "storageLayout": {
    "storage": [
      {
        "astId": 1291,
        "contract": "contracts/dev/OwnableFaucet.sol:OwnableFaucet",
        "label": "_owner",
        "offset": 0,
        "slot": "0",
        "type": "t_address"
      }
    ],
    "types": {
      "t_address": {
        "encoding": "inplace",
        "label": "address",
        "numberOfBytes": "20"
      }
    }
  }
}