{
  "address": "0x30C79ca7d9434521FA69dc50A0f81F4fEbF825ED",
  "abi": [
    {
      "inputs": [
        {
          "internalType": "contract IGlobalConfig",
          "name": "globalConfig_",
          "type": "address"
        }
      ],
      "stateMutability": "nonpayable",
      "type": "constructor"
    },
    {
      "anonymous": false,
      "inputs": [
        {
          "indexed": false,
          "internalType": "address",
          "name": "previousAdmin",
          "type": "address"
        },
        {
          "indexed": false,
          "internalType": "address",
          "name": "newAdmin",
          "type": "address"
        }
      ],
      "name": "AdminChanged",
      "type": "event"
    },
    {
      "anonymous": false,
      "inputs": [
        {
          "indexed": true,
          "internalType": "address",
          "name": "beacon",
          "type": "address"
        }
      ],
      "name": "BeaconUpgraded",
      "type": "event"
    },
    {
      "anonymous": false,
      "inputs": [
        {
          "indexed": true,
          "internalType": "bytes32",
          "name": "peerId",
          "type": "bytes32"
        },
        {
          "indexed": false,
          "internalType": "address",
          "name": "deal",
          "type": "address"
        },
        {
          "indexed": false,
          "internalType": "bytes32[]",
          "name": "patIds",
          "type": "bytes32[]"
        },
        {
          "indexed": false,
          "internalType": "uint256",
          "name": "dealCreationBlock",
          "type": "uint256"
        },
        {
          "components": [
            {
              "internalType": "bytes4",
              "name": "prefixes",
              "type": "bytes4"
            },
            {
              "internalType": "bytes32",
              "name": "hash",
              "type": "bytes32"
            }
          ],
          "indexed": false,
          "internalType": "struct CIDV1",
          "name": "appCID",
          "type": "tuple"
        }
      ],
      "name": "ComputePeerMatched",
      "type": "event"
    },
    {
      "anonymous": false,
      "inputs": [
        {
          "indexed": true,
          "internalType": "address",
          "name": "computeProvider",
          "type": "address"
        },
        {
          "indexed": false,
          "internalType": "address",
          "name": "deal",
          "type": "address"
        },
        {
          "indexed": false,
          "internalType": "uint256",
          "name": "dealCreationBlock",
          "type": "uint256"
        },
        {
          "components": [
            {
              "internalType": "bytes4",
              "name": "prefixes",
              "type": "bytes4"
            },
            {
              "internalType": "bytes32",
              "name": "hash",
              "type": "bytes32"
            }
          ],
          "indexed": false,
          "internalType": "struct CIDV1",
          "name": "appCID",
          "type": "tuple"
        }
      ],
      "name": "ComputeProviderMatched",
      "type": "event"
    },
    {
      "anonymous": false,
      "inputs": [
        {
          "indexed": false,
          "internalType": "address",
          "name": "computeProvider",
          "type": "address"
        },
        {
          "indexed": false,
          "internalType": "uint256",
          "name": "minPricePerEpoch",
          "type": "uint256"
        },
        {
          "indexed": false,
          "internalType": "uint256",
          "name": "maxCollateral",
          "type": "uint256"
        },
        {
          "indexed": false,
          "internalType": "contract IERC20",
          "name": "paymentToken",
          "type": "address"
        },
        {
          "components": [
            {
              "internalType": "bytes4",
              "name": "prefixes",
              "type": "bytes4"
            },
            {
              "internalType": "bytes32",
              "name": "hash",
              "type": "bytes32"
            }
          ],
          "indexed": false,
          "internalType": "struct CIDV1[]",
          "name": "effectors",
          "type": "tuple[]"
        }
      ],
      "name": "ComputeProviderRegistered",
      "type": "event"
    },
    {
      "anonymous": false,
      "inputs": [
        {
          "indexed": false,
          "internalType": "uint8",
          "name": "version",
          "type": "uint8"
        }
      ],
      "name": "Initialized",
      "type": "event"
    },
    {
      "anonymous": false,
      "inputs": [
        {
          "indexed": true,
          "internalType": "address",
          "name": "implementation",
          "type": "address"
        }
      ],
      "name": "Upgraded",
      "type": "event"
    },
    {
      "anonymous": false,
      "inputs": [
        {
          "indexed": false,
          "internalType": "bytes32",
          "name": "peerId",
          "type": "bytes32"
        },
        {
          "indexed": false,
          "internalType": "uint256",
          "name": "newWorkerSlots",
          "type": "uint256"
        }
      ],
      "name": "WorkersSlotsChanged",
      "type": "event"
    },
    {
      "inputs": [
        {
          "components": [
            {
              "internalType": "bytes4",
              "name": "prefixes",
              "type": "bytes4"
            },
            {
              "internalType": "bytes32",
              "name": "hash",
              "type": "bytes32"
            }
          ],
          "internalType": "struct CIDV1",
          "name": "effector",
          "type": "tuple"
        }
      ],
      "name": "addEffector",
      "outputs": [],
      "stateMutability": "nonpayable",
      "type": "function"
    },
    {
      "inputs": [
        {
          "internalType": "bytes32",
          "name": "peerId",
          "type": "bytes32"
        },
        {
          "internalType": "uint256",
          "name": "workerSlots",
          "type": "uint256"
        }
      ],
      "name": "addWorkersSlots",
      "outputs": [],
      "stateMutability": "nonpayable",
      "type": "function"
    },
    {
      "inputs": [
        {
          "internalType": "uint256",
          "name": "newMaxCollateral",
          "type": "uint256"
        }
      ],
      "name": "changeMaxCollateral",
      "outputs": [],
      "stateMutability": "nonpayable",
      "type": "function"
    },
    {
      "inputs": [
        {
          "internalType": "uint256",
          "name": "newMinPricePerEpoch",
          "type": "uint256"
        }
      ],
      "name": "changeMinPricePerEpoch",
      "outputs": [],
      "stateMutability": "nonpayable",
      "type": "function"
    },
    {
      "inputs": [
        {
          "internalType": "contract IERC20",
          "name": "newPaymentToken",
          "type": "address"
        },
        {
          "internalType": "uint256",
          "name": "newMaxCollateral",
          "type": "uint256"
        }
      ],
      "name": "changePaymentToken",
      "outputs": [],
      "stateMutability": "nonpayable",
      "type": "function"
    },
    {
      "inputs": [
        {
          "internalType": "bytes32",
          "name": "",
          "type": "bytes32"
        }
      ],
      "name": "computePeerByPeerId",
      "outputs": [
        {
          "internalType": "uint256",
          "name": "freeWorkerSlots",
          "type": "uint256"
        }
      ],
      "stateMutability": "view",
      "type": "function"
    },
    {
      "inputs": [
        {
          "internalType": "address",
          "name": "",
          "type": "address"
        }
      ],
      "name": "computeProviderByOwner",
      "outputs": [
        {
          "internalType": "uint256",
          "name": "minPricePerEpoch",
          "type": "uint256"
        },
        {
          "internalType": "uint256",
          "name": "maxCollateral",
          "type": "uint256"
        },
        {
          "internalType": "contract IERC20",
          "name": "paymentToken",
          "type": "address"
        },
        {
          "internalType": "uint256",
          "name": "totalFreeWorkerSlots",
          "type": "uint256"
        }
      ],
      "stateMutability": "view",
      "type": "function"
    },
    {
      "inputs": [
        {
          "internalType": "address",
          "name": "computeProvider",
          "type": "address"
        },
        {
          "internalType": "bytes32",
          "name": "peerId",
          "type": "bytes32"
        }
      ],
      "name": "getFreeWorkersSolts",
      "outputs": [
        {
          "internalType": "uint256",
          "name": "",
          "type": "uint256"
        }
      ],
      "stateMutability": "view",
      "type": "function"
    },
    {
      "inputs": [],
      "name": "globalConfig",
      "outputs": [
        {
          "internalType": "contract IGlobalConfig",
          "name": "",
          "type": "address"
        }
      ],
      "stateMutability": "view",
      "type": "function"
    },
    {
      "inputs": [
        {
          "internalType": "contract ICore",
          "name": "deal",
          "type": "address"
        }
      ],
      "name": "matchWithDeal",
      "outputs": [],
      "stateMutability": "nonpayable",
      "type": "function"
    },
    {
      "inputs": [],
      "name": "proxiableUUID",
      "outputs": [
        {
          "internalType": "bytes32",
          "name": "",
          "type": "bytes32"
        }
      ],
      "stateMutability": "view",
      "type": "function"
    },
    {
      "inputs": [
        {
          "internalType": "uint256",
          "name": "minPricePerEpoch",
          "type": "uint256"
        },
        {
          "internalType": "uint256",
          "name": "maxCollateral",
          "type": "uint256"
        },
        {
          "internalType": "contract IERC20",
          "name": "paymentToken",
          "type": "address"
        },
        {
          "components": [
            {
              "internalType": "bytes4",
              "name": "prefixes",
              "type": "bytes4"
            },
            {
              "internalType": "bytes32",
              "name": "hash",
              "type": "bytes32"
            }
          ],
          "internalType": "struct CIDV1[]",
          "name": "effectors",
          "type": "tuple[]"
        }
      ],
      "name": "registerComputeProvider",
      "outputs": [],
      "stateMutability": "nonpayable",
      "type": "function"
    },
    {
      "inputs": [],
      "name": "removeComputeProvider",
      "outputs": [],
      "stateMutability": "nonpayable",
      "type": "function"
    },
    {
      "inputs": [
        {
          "components": [
            {
              "internalType": "bytes4",
              "name": "prefixes",
              "type": "bytes4"
            },
            {
              "internalType": "bytes32",
              "name": "hash",
              "type": "bytes32"
            }
          ],
          "internalType": "struct CIDV1",
          "name": "effector",
          "type": "tuple"
        }
      ],
      "name": "removeEffector",
      "outputs": [],
      "stateMutability": "nonpayable",
      "type": "function"
    },
    {
      "inputs": [
        {
          "internalType": "address",
          "name": "owner",
          "type": "address"
        },
        {
          "internalType": "bool",
          "name": "hasAccess",
          "type": "bool"
        }
      ],
      "name": "setWhiteList",
      "outputs": [],
      "stateMutability": "nonpayable",
      "type": "function"
    },
    {
      "inputs": [
        {
          "internalType": "bytes32",
          "name": "peerId",
          "type": "bytes32"
        },
        {
          "internalType": "uint256",
          "name": "workerSlots",
          "type": "uint256"
        }
      ],
      "name": "subWorkersSlots",
      "outputs": [],
      "stateMutability": "nonpayable",
      "type": "function"
    },
    {
      "inputs": [
        {
          "internalType": "address",
          "name": "newImplementation",
          "type": "address"
        }
      ],
      "name": "upgradeTo",
      "outputs": [],
      "stateMutability": "nonpayable",
      "type": "function"
    },
    {
      "inputs": [
        {
          "internalType": "address",
          "name": "newImplementation",
          "type": "address"
        },
        {
          "internalType": "bytes",
          "name": "data",
          "type": "bytes"
        }
      ],
      "name": "upgradeToAndCall",
      "outputs": [],
      "stateMutability": "payable",
      "type": "function"
    },
    {
      "inputs": [
        {
          "internalType": "address",
          "name": "",
          "type": "address"
        }
      ],
      "name": "whitelist",
      "outputs": [
        {
          "internalType": "bool",
          "name": "",
          "type": "bool"
        }
      ],
      "stateMutability": "view",
      "type": "function"
    }
  ],
  "transactionHash": "0x90fa56f0a8c7ea60163e9034cdf273f0cc6b0ea5e44bd33001b884c1f3c2da0a",
  "args": [
    "0xE50d43B584B23ab8db175595F9BC945675a806a7"
  ],
  "numDeployments": 2,
  "solcInputHash": "ac5150b616ec95444a82017a1567d5ba",
  "bytecode": "0x60c0346100b157601f620033e738819003918201601f19168301916001600160401b038311848410176100b6578084926020946040528339810103126100b157516001600160a01b03811681036100b1576080523060a05260405161331a9081620000cd8239608051818181610234015281816106f701528181610b450152818161120c015281816112e901528181611e9b015261220d015260a051818181611ccc01528181611e1101526121830152f35b600080fd5b634e487b7160e01b600052604160045260246000fdfe6080604052600436101561001257600080fd5b60003560e01c80633659cfe6146121505780634f1ef28614611d8657806352d1902d14611ca457806355eb409a146119a0578063571458481461188a57806359a6bf5f146117295780635a733e9b146116bd5780635c7689971461152c5780636868bda3146115105780636b50b7a7146114db57806373e8f7e9146113ce5780637f178450146113a35780638d14e1271461127c5780639b19251a14611230578063a7c1abe0146111df578063b63af4b1146110ac578063bd032f0d14611080578063c6c44ed1146101c05763f6ee7139146100ed57600080fd5b346101bb577f1eaffb28f02e49aa8dce586ac73116a047f91a8116d887ed4e72496a2f10283f604061011e366124dc565b8160005260206001815261019661016761013c848760002054612bd9565b93856000526001845284876000205584156101a1575b33600052600084526001876000200154612a1e565b336000526000835273ffffffffffffffffffffffffffffffffffffffff60028760002001541633903090612a31565b8351928352820152a1005b33600052600584526101b68688600020613186565b610152565b600080fd5b346101bb5760206003193601126101bb5760043573ffffffffffffffffffffffffffffffffffffffff811681036101bb576040517fc45a015500000000000000000000000000000000000000000000000000000000815260208160048173ffffffffffffffffffffffffffffffffffffffff7f0000000000000000000000000000000000000000000000000000000000000000165afa908115610af657600091611030575b50602073ffffffffffffffffffffffffffffffffffffffff916024604051809481937f4db44e640000000000000000000000000000000000000000000000000000000083528188166004840152165afa908115610af657600091611011575b5015610fcd576040517f68f1e99a00000000000000000000000000000000000000000000000000000000815260208160048173ffffffffffffffffffffffffffffffffffffffff86165afa908115610af657600091610f7e575b5073ffffffffffffffffffffffffffffffffffffffff8116916040517fb53105a3000000000000000000000000000000000000000000000000000000008152602081600481875afa908115610af657600091610f4c575b506040517f5fc8f59c000000000000000000000000000000000000000000000000000000008152602081600481885afa908115610af657600091610f1a575b506040517f8a0c725b000000000000000000000000000000000000000000000000000000008152602081600481895afa908115610af657600091610ee8575b50604051927f176345140000000000000000000000000000000000000000000000000000000084526020846004818a5afa938415610af657600094610eb4575b50604051967f9bc66868000000000000000000000000000000000000000000000000000000008852604088600481845afa978815610af657600098610e79575b50604051907f2ed52a7700000000000000000000000000000000000000000000000000000000825260208260048173ffffffffffffffffffffffffffffffffffffffff8b165afa918215610af657600092610e27575b506020600491604051928380927f2943dcab0000000000000000000000000000000000000000000000000000000082525afa908115610af657600091610df5575b50604051907f6ad0c85400000000000000000000000000000000000000000000000000000000825260208260048173ffffffffffffffffffffffffffffffffffffffff87165afa908115610af657600091610dbf575b61056a9250612bd9565b91600254945b85151580610db6575b15610db457858a9660601c9081600052600060205260406000208360018201549154118015610dab575b8015610d9a575b610d7e5782600052600560205260406000205490815b61065d57505060005260046020527f75b7752ab93f69b3f56f714070d5d77bb1be0aa312e598f06a83430230705e1a60808a6106576001604060002001549a73ffffffffffffffffffffffffffffffffffffffff604051931683528c60208401526040830190602080917fffffffff0000000000000000000000000000000000000000000000000000000081511684520151910152565ba2610570565b908099506000526001602052604060002054808911600014610d7757805b888211610d6f575b81818103610d52575050896000526001602052600060408120558360005260056020526106b48a6040600020613186565b6040517fac027f9700000000000000000000000000000000000000000000000000000000815260208160048173ffffffffffffffffffffffffffffffffffffffff7f0000000000000000000000000000000000000000000000000000000000000000165afa908115610af65761079891602091600091610d35575b5061073a848a612a1e565b6040517f095ea7b300000000000000000000000000000000000000000000000000000000815273ffffffffffffffffffffffffffffffffffffffff8c8116600483015260248201929092529384929183916000919083906044820190565b0393165af18015610af657610d16575b5060005b818110610c6f57506107be8683612bd9565b9081610b02575b5050604051987ff3b6a45d000000000000000000000000000000000000000000000000000000008a5260008a60048173ffffffffffffffffffffffffffffffffffffffff8b165afa8015610af6578e9a6000916109aa575b50818d8c8e8451947fffffffffffffffffffffffffffffffffffffffffffffffffffffffffffffffe061086861085288612de5565b97610860604051998a612461565b808952612de5565b0136602088013780519060005b828110610974575050506040519260a073ffffffffffffffffffffffffffffffffffffffff8186019216855260208501528551809152602060c085019601906000905b80821061094c57505050604083015280517fffffffff0000000000000000000000000000000000000000000000000000000016606083015260200151608082015290917f55e61a24ecdae954582245e5e611fb06905d6af967334fff4db72793bebc72a9919081900390a28360005260056020526002604060002001906000526020526001604060002001548091906105c0565b935093958195506001925060209190829151815201940192018f90928f9293879596946108b8565b92509350935061099b91506109898184612dfd565b51516109958287612dfd565b52612983565b8f918f90938f92948795610875565b9a50509b9a9b3d998a6000823e6109c18b82612461565b6020818c810103126101bb57805167ffffffffffffffff81116101bb578b8201601f8284010112156101bb578f9b81830151906109fd82612de5565b93610a0b6040519586612461565b82855260208501828201602060c086028785010101116101bb57602085830101905b602060c0860287850101018210610a4d575050505050509c9b9c8f61081d565b60c08285850103126101bb576040518060c081011067ffffffffffffffff60c083011117610ac75760c09181836020930160405284518152828501518382015260408501516040820152610aa3606086016127c4565b60608201526080808601519082015260a08086015190820152815201910190610a2d565b7f4e487b7100000000000000000000000000000000000000000000000000000000600052604160045260246000fd5b6040513d6000823e3d90fd5b6040517fac027f9700000000000000000000000000000000000000000000000000000000815260208160048173ffffffffffffffffffffffffffffffffffffffff7f0000000000000000000000000000000000000000000000000000000000000000165afa928315610af65773ffffffffffffffffffffffffffffffffffffffff93602093610bf993600092610c3e575b50610b9e9192612a1e565b60006040519586809581947fa9059cbb0000000000000000000000000000000000000000000000000000000083528c600484016020909392919373ffffffffffffffffffffffffffffffffffffffff60408201951681520152565b0393165af18015610af657610c0f575b806107c5565b610c309060203d602011610c37575b610c288183612461565b810190612aaf565b508d610c09565b503d610c1e565b610b9e9250610c6290863d8811610c68575b610c5a8183612461565b810190612ff1565b91610b93565b503d610c50565b73ffffffffffffffffffffffffffffffffffffffff88163b156101bb576040517fc44a916d00000000000000000000000000000000000000000000000000000000815260048101869052602481018c9052906000826044818373ffffffffffffffffffffffffffffffffffffffff8e165af18015610af657610cfb575b610cf69150612983565b6107ac565b67ffffffffffffffff8211610ac757610cf691604052610cec565b610d2e9060203d602011610c3757610c288183612461565b508e6107a8565b610d4c9150823d8411610c6857610c5a8183612461565b3861072f565b610d5b91612bd9565b8a60005260016020526040600020556106b4565b889150610683565b889061067b565b5091965050600052600460205260016040600020015494610570565b50610da5838d612e11565b156105aa565b508481106105a3565b005b50831515610579565b90506020823d602011610ded575b81610dda60209383612461565b810103126101bb5761056a915190610560565b3d9150610dcd565b90506020813d602011610e1f575b81610e1060209383612461565b810103126101bb57518961050a565b3d9150610e03565b9091506020813d602011610e71575b81610e4360209383612461565b810103126101bb575173ffffffffffffffffffffffffffffffffffffffff811681036101bb579060206104c9565b3d9150610e36565b90975060403d604011610ead575b610e918183612461565b81016040828203126101bb57610ea691612d93565b9688610473565b503d610e87565b9093506020813d602011610ee0575b81610ed060209383612461565b810103126101bb57519287610433565b3d9150610ec3565b90506020813d602011610f12575b81610f0360209383612461565b810103126101bb5751866103f3565b3d9150610ef6565b90506020813d602011610f44575b81610f3560209383612461565b810103126101bb5751856103b4565b3d9150610f28565b90506020813d602011610f76575b81610f6760209383612461565b810103126101bb575184610375565b3d9150610f5a565b90506020813d602011610fc5575b81610f9960209383612461565b810103126101bb575173ffffffffffffffffffffffffffffffffffffffff811681036101bb578261031e565b3d9150610f8c565b606460405162461bcd60e51b815260206004820152601860248201527f4465616c206973206e6f742066726f6d20666163746f727900000000000000006044820152fd5b61102a915060203d602011610c3757610c288183612461565b826102c4565b90506020813d602011611078575b8161104b60209383612461565b810103126101bb575173ffffffffffffffffffffffffffffffffffffffff811681036101bb576020610265565b3d915061103e565b346101bb5760206003193601126101bb5760043560005260016020526020604060002054604051908152f35b346101bb5760406003193601126101bb576110c56129ef565b6040517fffffffff00000000000000000000000000000000000000000000000000000000909116602080830191825260248035908401529161113281604481015b037fffffffffffffffffffffffffffffffffffffffffffffffffffffffffffffffe08101835282612461565b519020903360005260068152604060002082600052815260ff6040600020541661119b57336000526006815260406000209160005252604060002060017fffffffffffffffffffffffffffffffffffffffffffffffffffffffffffffff00825416179055600080f35b6064906040519062461bcd60e51b82526004820152601760248201527f4566666563746f7220616c7265616479206578697374730000000000000000006044820152fd5b346101bb5760006003193601126101bb57602060405173ffffffffffffffffffffffffffffffffffffffff7f0000000000000000000000000000000000000000000000000000000000000000168152f35b346101bb5760206003193601126101bb5773ffffffffffffffffffffffffffffffffffffffff61125e612406565b166000526007602052602060ff604060002054166040519015158152f35b346101bb5760406003193601126101bb57611295612406565b602435908115158092036101bb57604051907f8da5cb5b00000000000000000000000000000000000000000000000000000000825273ffffffffffffffffffffffffffffffffffffffff91602081600481867f0000000000000000000000000000000000000000000000000000000000000000165afa8015610af6578390600090611367575b61132892501633146127e5565b16600052600760205260406000209060ff7fffffffffffffffffffffffffffffffffffffffffffffffffffffffffffffff008354169116179055600080f35b50506020813d821161139b575b8161138160209383612461565b810103126101bb5782611396611328926127c4565b61131b565b3d9150611374565b346101bb5760206003193601126101bb576004356113c2811515612856565b6113cb33612c31565b55005b346101bb5760406003193601126101bb576113e76129ef565b6040517fffffffff00000000000000000000000000000000000000000000000000000000909116602080830191825260248035908401529161142c8160448101611106565b5190209033600052600681526040600020826000528152600160ff604060002054161515036114975733600052600681526040600020916000525260406000207fffffffffffffffffffffffffffffffffffffffffffffffffffffffffffffff008154169055600080f35b6064906040519062461bcd60e51b82526004820152601660248201527f4566666563746f7220646f65736e2774206578697374000000000000000000006044820152fd5b346101bb5760406003193601126101bb576114f4612406565b5060243560005260016020526020604060002054604051908152f35b346101bb5760206003193601126101bb57610db4600435612c6a565b346101bb5760006003193601126101bb576115bd61154933612c31565b600281016000815473ffffffffffffffffffffffffffffffffffffffff811692611574841515612be6565b7fffffffffffffffffffffffff0000000000000000000000000000000000000000600186019284845494816115af60038b0197885490612a1e565b995555169055553390612d2c565b7fffffffffffffffffffffffffffffffffffffffff0000000000000000000000003360601b1680600052600460205260406000209060016040519261160184612429565b8054845201549060208301918252611619818461325f565b15611679576000908152600460205260408120818155600101558151801561166e578151906000526001604060002001555b519081156116685751906000526004602052604060002055600080f35b51600355005b50805160025561164b565b606460405162461bcd60e51b815260206004820152601260248201527f4b657920646f6573206e6f7420657869737400000000000000000000000000006044820152fd5b346101bb5760206003193601126101bb57608073ffffffffffffffffffffffffffffffffffffffff806116ee612406565b166000526000602052604060002090815491600360018201549260028301541691015491604051938452602084015260408301526060820152f35b346101bb57611737366124dc565b80156118205781600052602091600183526040600020548281018091116117f1577f1eaffb28f02e49aa8dce586ac73116a047f91a8116d887ed4e72496a2f10283f936101966117ad60409585600052600184528487600020558085146117dc5733600052600084526001876000200154612a1e565b336000526000835273ffffffffffffffffffffffffffffffffffffffff60028760002001541630903390612a31565b33600052600584526101b68688600020613113565b7f4e487b7100000000000000000000000000000000000000000000000000000000600052601160045260246000fd5b608460405162461bcd60e51b815260206004820152602560248201527f576f726b657220736c6f74732073686f756c642062652067726561746572207460448201527f68616e20300000000000000000000000000000000000000000000000000000006064820152fd5b346101bb5760406003193601126101bb576118a3612406565b73ffffffffffffffffffffffffffffffffffffffff9081811691821561193657610db49261192361192c926118d733612c31565b92600284018054917fffffffffffffffffffffffff0000000000000000000000000000000000000000831617905561191a60036001860154950194855490612a1e565b91339116612d2c565b54602435612a1e565b9030903390612a31565b608460405162461bcd60e51b815260206004820152602860248201527f5061796d656e7420746f6b656e2073686f756c64206265206e6f74207a65726f60448201527f20616464726573730000000000000000000000000000000000000000000000006064820152fd5b346101bb5760806003193601126101bb5760043560243560443573ffffffffffffffffffffffffffffffffffffffff908181168091036101bb576064359367ffffffffffffffff908186116101bb57366023870112156101bb578560040135928284116101bb5760248701966006906024369187841b0101116101bb57611a28831515612856565b611a338715156128c7565b611a3e821515612938565b3360005260209360008552611a5d876002604060002001541615612938565b604051906080820190811182821017610ac757604097969597528381526003878201898152604083018581526060840191600083523360005260008b5260406000209451855551986001998a860155600285019151167fffffffffffffffffffffffff00000000000000000000000000000000000000008254161790555191015560005b848110611bc4575050908291611b1b7fffffffffffffffffffffffffffffffffffffffff0000000000000000000000003360601b1661301d565b6040519660a0880192338952878901526040880152606087015260a060808701525260c08401949260005b828110611b75577f658bee377ff55ceae5c8883fc1d0ec604e9179fba1a50f0f094091cefa2eef0486880387a1005b90919293958635907fffffffff0000000000000000000000000000000000000000000000000000000082168092036101bb57908152868301358382015260409081019601939291908301611b46565b611bd381868b999798996129b0565b35907fffffffff00000000000000000000000000000000000000000000000000000000821682036101bb57611c9b91611106611c5488611c15858f8d906129b0565b01356040519283918b8301958690917fffffffff0000000000000000000000000000000000000000000000000000000060249316825260048201520190565b5190203360005283875260406000209060005286526040600020887fffffffffffffffffffffffffffffffffffffffffffffffffffffffffffffff00825416179055612983565b95949395611ae1565b346101bb5760006003193601126101bb5773ffffffffffffffffffffffffffffffffffffffff7f0000000000000000000000000000000000000000000000000000000000000000163003611d1c5760206040517f360894a13ba1a3210667c828492db98dca3e2076cc3735a920a3ca505d382bbc8152f35b608460405162461bcd60e51b815260206004820152603860248201527f555550535570677261646561626c653a206d757374206e6f742062652063616c60448201527f6c6564207468726f7567682064656c656761746563616c6c00000000000000006064820152fd5b60406003193601126101bb57611d9a612406565b6024359067ffffffffffffffff82116101bb57366023830112156101bb578160040135611dc6816124a2565b92611dd46040519485612461565b8184526020918285019136602483830101116101bb5781600092602486930185378601015273ffffffffffffffffffffffffffffffffffffffff807f00000000000000000000000000000000000000000000000000000000000000001690611e3e823014156124f2565b611e6d7f360894a13ba1a3210667c828492db98dca3e2076cc3735a920a3ca505d382bbc928284541614612563565b6040517f8da5cb5b0000000000000000000000000000000000000000000000000000000081528481600481857f0000000000000000000000000000000000000000000000000000000000000000165afa8015610af6578290600090612118575b611eda92501633146127e5565b7f4910fdfa16fed3260ed0e7147f7cc6da11a60208b5b9406d12a635614ffd91435460ff1615611f125750505050610db491506125d4565b84939416906040517f52d1902d0000000000000000000000000000000000000000000000000000000081528581600481865afa600091816120e9575b50611fbd576084866040519062461bcd60e51b82526004820152602e60248201527f45524331393637557067726164653a206e657720696d706c656d656e7461746960448201527f6f6e206973206e6f7420555550530000000000000000000000000000000000006064820152fd5b0361207f57611fcb836125d4565b7fbc7cd75a20ee27fd9adebab32041f755214dbc6bffa90cc0225b39da2e5c2d3b600080a2835115801590612077575b61200157005b60008091610db4957f416464726573733a206c6f772d6c6576656c2064656c65676174652063616c6c6040519661203788612445565b602788528701527f206661696c65640000000000000000000000000000000000000000000000000060408701525190845af46120716126a6565b916126d6565b506001611ffb565b6084846040519062461bcd60e51b82526004820152602960248201527f45524331393637557067726164653a20756e737570706f727465642070726f7860448201527f6961626c655555494400000000000000000000000000000000000000000000006064820152fd5b9091508681813d8311612111575b6121018183612461565b810103126101bb57519088611f4e565b503d6120f7565b50508481813d8311612149575b61212f8183612461565b810103126101bb5781612144611eda926127c4565b611ecd565b503d612125565b346101bb576020806003193601126101bb5761216a612406565b73ffffffffffffffffffffffffffffffffffffffff91827f000000000000000000000000000000000000000000000000000000000000000016926121b0843014156124f2565b6121df7f360894a13ba1a3210667c828492db98dca3e2076cc3735a920a3ca505d382bbc948286541614612563565b6040517f8da5cb5b0000000000000000000000000000000000000000000000000000000081528281600481857f0000000000000000000000000000000000000000000000000000000000000000165afa8015610af65782906000906123ce575b61224c92501633146127e5565b604051938285019185831067ffffffffffffffff841117610ac757826040526000865260ff7f4910fdfa16fed3260ed0e7147f7cc6da11a60208b5b9406d12a635614ffd914354166000146122a95750505050610db491506125d4565b84939416906040517f52d1902d0000000000000000000000000000000000000000000000000000000081528581600481865afa6000918161239f575b50612354576084866040519062461bcd60e51b82526004820152602e60248201527f45524331393637557067726164653a206e657720696d706c656d656e7461746960448201527f6f6e206973206e6f7420555550530000000000000000000000000000000000006064820152fd5b0361207f57612362836125d4565b7fbc7cd75a20ee27fd9adebab32041f755214dbc6bffa90cc0225b39da2e5c2d3b600080a28351158015906123975761200157005b506000611ffb565b9091508681813d83116123c7575b6123b78183612461565b810103126101bb575190886122e5565b503d6123ad565b50508281813d83116123ff575b6123e58183612461565b810103126101bb57816123fa61224c926127c4565b61223f565b503d6123db565b6004359073ffffffffffffffffffffffffffffffffffffffff821682036101bb57565b6040810190811067ffffffffffffffff821117610ac757604052565b6060810190811067ffffffffffffffff821117610ac757604052565b90601f7fffffffffffffffffffffffffffffffffffffffffffffffffffffffffffffffe0910116810190811067ffffffffffffffff821117610ac757604052565b67ffffffffffffffff8111610ac757601f017fffffffffffffffffffffffffffffffffffffffffffffffffffffffffffffffe01660200190565b60031960409101126101bb576004359060243590565b156124f957565b608460405162461bcd60e51b815260206004820152602c60248201527f46756e6374696f6e206d7573742062652063616c6c6564207468726f7567682060448201527f64656c656761746563616c6c00000000000000000000000000000000000000006064820152fd5b1561256a57565b608460405162461bcd60e51b815260206004820152602c60248201527f46756e6374696f6e206d7573742062652063616c6c6564207468726f7567682060448201527f6163746976652070726f787900000000000000000000000000000000000000006064820152fd5b803b1561263c5773ffffffffffffffffffffffffffffffffffffffff7f360894a13ba1a3210667c828492db98dca3e2076cc3735a920a3ca505d382bbc91167fffffffffffffffffffffffff0000000000000000000000000000000000000000825416179055565b608460405162461bcd60e51b815260206004820152602d60248201527f455243313936373a206e657720696d706c656d656e746174696f6e206973206e60448201527f6f74206120636f6e7472616374000000000000000000000000000000000000006064820152fd5b3d156126d1573d906126b7826124a2565b916126c56040519384612461565b82523d6000602084013e565b606090565b9192901561273757508151156126ea575090565b3b156126f35790565b606460405162461bcd60e51b815260206004820152601d60248201527f416464726573733a2063616c6c20746f206e6f6e2d636f6e74726163740000006044820152fd5b82519091501561274a5750805190602001fd5b6040519062461bcd60e51b825281602080600483015282519283602484015260005b8481106127ad575050507fffffffffffffffffffffffffffffffffffffffffffffffffffffffffffffffe0601f836000604480968601015201168101030190fd5b81810183015186820160440152859350820161276c565b519073ffffffffffffffffffffffffffffffffffffffff821682036101bb57565b156127ec57565b608460405162461bcd60e51b815260206004820152602160248201527f4f6e6c79206f776e65722063616e2063616c6c20746869732066756e6374696f60448201527f6e000000000000000000000000000000000000000000000000000000000000006064820152fd5b1561285d57565b608460405162461bcd60e51b815260206004820152602c60248201527f4d696e207072696365207065722065706f63682073686f756c6420626520677260448201527f6561746572207468616e203000000000000000000000000000000000000000006064820152fd5b156128ce57565b608460405162461bcd60e51b815260206004820152602760248201527f4d617820636f6c6c61746572616c2073686f756c64206265206772656174657260448201527f207468616e2030000000000000000000000000000000000000000000000000006064820152fd5b1561293f57565b606460405162461bcd60e51b815260206004820152601860248201527f436f6d707574652070726f766964657220616c726561647900000000000000006044820152fd5b7fffffffffffffffffffffffffffffffffffffffffffffffffffffffffffffffff81146117f15760010190565b91908110156129c05760061b0190565b7f4e487b7100000000000000000000000000000000000000000000000000000000600052603260045260246000fd5b6004357fffffffff00000000000000000000000000000000000000000000000000000000811681036101bb5790565b818102929181159184041417156117f157565b9290604051927f23b872dd00000000000000000000000000000000000000000000000000000000602085015273ffffffffffffffffffffffffffffffffffffffff809216602485015216604483015260648201526064815260a081019181831067ffffffffffffffff841117610ac757612aad92604052612ac7565b565b908160209103126101bb575180151581036101bb5790565b73ffffffffffffffffffffffffffffffffffffffff16604051604081019181831067ffffffffffffffff841117610ac757612b3e926040526000806020958685527f5361666545524332303a206c6f772d6c6576656c2063616c6c206661696c656487860152868151910182855af16120716126a6565b805190828215928315612bc1575b50505015612b575750565b6084906040519062461bcd60e51b82526004820152602a60248201527f5361666545524332303a204552433230206f7065726174696f6e20646964206e60448201527f6f742073756363656564000000000000000000000000000000000000000000006064820152fd5b612bd19350820181019101612aaf565b388281612b4c565b919082039182116117f157565b15612bed57565b606460405162461bcd60e51b815260206004820152601e60248201527f436f6d707574652070726f766964657220646f65736e277420657869737400006044820152fd5b73ffffffffffffffffffffffffffffffffffffffff8091166000526000602052612c676040600020916002830154161515612be6565b90565b612c758115156128c7565b612c7e33612c31565b600181019180835493556003820192835480158015612d23575b612d1c5782821115612ce0575092612cb6612cbe92612aad95612bd9565b905490612a1e565b9073ffffffffffffffffffffffffffffffffffffffff60023392015416612d2c565b612aad9450612d0f90612d0a60029373ffffffffffffffffffffffffffffffffffffffff95612bd9565b612a1e565b9201541630903390612a31565b5050505050565b50828214612c98565b6040517fa9059cbb00000000000000000000000000000000000000000000000000000000602082015273ffffffffffffffffffffffffffffffffffffffff929092166024830152604480830193909352918152612aad91612d8e606483612461565b612ac7565b91908260409103126101bb57604051612dab81612429565b809280517fffffffff00000000000000000000000000000000000000000000000000000000811681036101bb578252602090810151910152565b67ffffffffffffffff8111610ac75760051b60200190565b80518210156129c05760209160051b010190565b906040918251927ffc1e5e2a000000000000000000000000000000000000000000000000000000008452600092838560048173ffffffffffffffffffffffffffffffffffffffff8097165afa948515612fe7578495612f3a575b50835b8551811015612f2f577fffffffff00000000000000000000000000000000000000000000000000000000612ea28288612dfd565b515116602090611106612ef883612eb9868c612dfd565b5101518751928391868301958690917fffffffff0000000000000000000000000000000000000000000000000000000060249316825260048201520190565b519020908584168752600681528487209187525260ff838620541615612f2657612f2190612983565b612e6e565b50505050905090565b505050505050600190565b9094503d8085833e612f4c8183612461565b8101906020908181840312612fdf5780519067ffffffffffffffff8211612fe357019082601f83011215612fdf578151612f8581612de5565b93612f9286519586612461565b818552828086019260061b85010193818511612fdb5783879101925b858410612fc2575050505050509338612e6b565b8490612fce8486612d93565b8152019201918690612fae565b8880fd5b8580fd5b8680fd5b82513d86823e3d90fd5b908160209103126101bb575173ffffffffffffffffffffffffffffffffffffffff811681036101bb5790565b60035481156130cf576000908282526004602052613058836040842060016040519161304883612429565b805483520154602082015261325f565b61308b5780156130805760019160409184600355848252600460205280838320558152200155565b505080600255600355565b606460405162461bcd60e51b815260206004820152601260248201527f4b657920616c72656164792065786973747300000000000000000000000000006044820152fd5b606460405162461bcd60e51b815260206004820152601260248201527f4b65792063616e6e6f74206265205a45524f00000000000000000000000000006044820152fd5b6001810190815483156130cf576002820160009285845281602052613156866040862060016040519161314583612429565b8054835201546020820152836132a1565b61308b578590831561317f57509060409392916001955585835260205280838320558152200155565b5550505055565b9060028201600090828252806020526040928383209060018551926131aa84612429565b80548452015490602083019182526131c38184896132a1565b1561321c578452602083905284842084815560010184905581518015613212578151908552600186862001555b519485156132045750519382526020522055565b905160019091015550505050565b50805186556131f0565b6064865162461bcd60e51b815260206004820152601260248201527f4b657920646f6573206e6f7420657869737400000000000000000000000000006044820152fd5b9081511591821592613293575b508115613287575b811561327e575090565b90506003541490565b60025481149150613274565b60200151151591503861326c565b81511580159392906132d6575b5082156132cb575b82156132c157505090565b6001015414919050565b8054821492506132b6565b6020015115159250386132ae56fea2646970667358221220a059c0b6797d3431aa57bebc113fd2dec7d7a34d207669e1e097d1075d0ed0a164736f6c63430008110033",
  "devdoc": {
    "kind": "dev",
    "methods": {
      "proxiableUUID()": {
        "details": "Implementation of the ERC1822 {proxiableUUID} function. This returns the storage slot used by the implementation. It is used to validate the implementation's compatibility when performing an upgrade. IMPORTANT: A proxy pointing at a proxiable contract should not be considered proxiable itself, because this risks bricking a proxy that upgrades to it, by delegating to itself until out of gas. Thus it is critical that this function revert if invoked through a proxy. This is guaranteed by the `notDelegated` modifier."
      },
      "upgradeTo(address)": {
        "custom:oz-upgrades-unsafe-allow-reachable": "delegatecall",
        "details": "Upgrade the implementation of the proxy to `newImplementation`. Calls {_authorizeUpgrade}. Emits an {Upgraded} event."
      },
      "upgradeToAndCall(address,bytes)": {
        "custom:oz-upgrades-unsafe-allow-reachable": "delegatecall",
        "details": "Upgrade the implementation of the proxy to `newImplementation`, and subsequently execute the function call encoded in `data`. Calls {_authorizeUpgrade}. Emits an {Upgraded} event."
      }
    },
    "version": 1
  },
  "userdoc": {
    "kind": "user",
    "methods": {},
    "version": 1
  },
  "storageLayout": {
    "storage": [
      {
        "astId": 2486,
        "contract": "contracts/global/Matcher.sol:Matcher",
        "label": "computeProviderByOwner",
        "offset": 0,
        "slot": "0",
        "type": "t_mapping(t_address,t_struct(ComputeProvider)2429_storage)"
      },
      {
        "astId": 2491,
        "contract": "contracts/global/Matcher.sol:Matcher",
        "label": "computePeerByPeerId",
        "offset": 0,
        "slot": "1",
        "type": "t_mapping(t_bytes32,t_struct(ComputePeer)2432_storage)"
      },
      {
        "astId": 2494,
        "contract": "contracts/global/Matcher.sol:Matcher",
        "label": "_computeProvidersList",
        "offset": 0,
        "slot": "2",
        "type": "t_struct(Bytes32List)3869_storage"
      },
      {
        "astId": 2499,
        "contract": "contracts/global/Matcher.sol:Matcher",
        "label": "_computePeersListByProvider",
        "offset": 0,
        "slot": "5",
        "type": "t_mapping(t_address,t_struct(Bytes32List)3869_storage)"
      },
      {
        "astId": 2505,
        "contract": "contracts/global/Matcher.sol:Matcher",
        "label": "_effectorsByComputePeerOwner",
        "offset": 0,
        "slot": "6",
        "type": "t_mapping(t_address,t_mapping(t_bytes32,t_bool))"
      },
      {
        "astId": 2509,
        "contract": "contracts/global/Matcher.sol:Matcher",
        "label": "whitelist",
        "offset": 0,
        "slot": "7",
        "type": "t_mapping(t_address,t_bool)"
      },
      {
        "astId": 371,
        "contract": "contracts/global/Matcher.sol:Matcher",
        "label": "_initialized",
        "offset": 0,
        "slot": "8",
        "type": "t_uint8"
      },
      {
        "astId": 374,
        "contract": "contracts/global/Matcher.sol:Matcher",
        "label": "_initializing",
        "offset": 1,
        "slot": "8",
        "type": "t_bool"
      },
      {
        "astId": 353,
        "contract": "contracts/global/Matcher.sol:Matcher",
        "label": "__gap",
        "offset": 0,
        "slot": "9",
        "type": "t_array(t_uint256)50_storage"
      },
      {
        "astId": 668,
        "contract": "contracts/global/Matcher.sol:Matcher",
        "label": "__gap",
        "offset": 0,
        "slot": "59",
        "type": "t_array(t_uint256)50_storage"
      }
    ],
    "types": {
      "t_address": {
        "encoding": "inplace",
        "label": "address",
        "numberOfBytes": "20"
      },
      "t_array(t_uint256)50_storage": {
        "base": "t_uint256",
        "encoding": "inplace",
        "label": "uint256[50]",
        "numberOfBytes": "1600"
      },
      "t_bool": {
        "encoding": "inplace",
        "label": "bool",
        "numberOfBytes": "1"
      },
      "t_bytes32": {
        "encoding": "inplace",
        "label": "bytes32",
        "numberOfBytes": "32"
      },
      "t_contract(IERC20)1187": {
        "encoding": "inplace",
        "label": "contract IERC20",
        "numberOfBytes": "20"
      },
      "t_mapping(t_address,t_bool)": {
        "encoding": "mapping",
        "key": "t_address",
        "label": "mapping(address => bool)",
        "numberOfBytes": "32",
        "value": "t_bool"
      },
      "t_mapping(t_address,t_mapping(t_bytes32,t_bool))": {
        "encoding": "mapping",
        "key": "t_address",
        "label": "mapping(address => mapping(bytes32 => bool))",
        "numberOfBytes": "32",
        "value": "t_mapping(t_bytes32,t_bool)"
      },
      "t_mapping(t_address,t_struct(Bytes32List)3869_storage)": {
        "encoding": "mapping",
        "key": "t_address",
        "label": "mapping(address => struct LinkedList.Bytes32List)",
        "numberOfBytes": "32",
        "value": "t_struct(Bytes32List)3869_storage"
      },
      "t_mapping(t_address,t_struct(ComputeProvider)2429_storage)": {
        "encoding": "mapping",
        "key": "t_address",
        "label": "mapping(address => struct MatcherState.ComputeProvider)",
        "numberOfBytes": "32",
        "value": "t_struct(ComputeProvider)2429_storage"
      },
      "t_mapping(t_bytes32,t_bool)": {
        "encoding": "mapping",
        "key": "t_bytes32",
        "label": "mapping(bytes32 => bool)",
        "numberOfBytes": "32",
        "value": "t_bool"
      },
      "t_mapping(t_bytes32,t_struct(ComputePeer)2432_storage)": {
        "encoding": "mapping",
        "key": "t_bytes32",
        "label": "mapping(bytes32 => struct MatcherState.ComputePeer)",
        "numberOfBytes": "32",
        "value": "t_struct(ComputePeer)2432_storage"
      },
      "t_mapping(t_bytes32,t_struct(Element)3859_storage)": {
        "encoding": "mapping",
        "key": "t_bytes32",
        "label": "mapping(bytes32 => struct LinkedList.Element)",
        "numberOfBytes": "32",
        "value": "t_struct(Element)3859_storage"
      },
      "t_struct(Bytes32List)3869_storage": {
        "encoding": "inplace",
        "label": "struct LinkedList.Bytes32List",
        "members": [
          {
            "astId": 3861,
            "contract": "contracts/global/Matcher.sol:Matcher",
            "label": "_first",
            "offset": 0,
            "slot": "0",
            "type": "t_bytes32"
          },
          {
            "astId": 3863,
            "contract": "contracts/global/Matcher.sol:Matcher",
            "label": "_last",
            "offset": 0,
            "slot": "1",
            "type": "t_bytes32"
          },
          {
            "astId": 3868,
            "contract": "contracts/global/Matcher.sol:Matcher",
            "label": "_elements",
            "offset": 0,
            "slot": "2",
            "type": "t_mapping(t_bytes32,t_struct(Element)3859_storage)"
          }
        ],
        "numberOfBytes": "96"
      },
      "t_struct(ComputePeer)2432_storage": {
        "encoding": "inplace",
        "label": "struct MatcherState.ComputePeer",
        "members": [
          {
            "astId": 2431,
            "contract": "contracts/global/Matcher.sol:Matcher",
            "label": "freeWorkerSlots",
            "offset": 0,
            "slot": "0",
            "type": "t_uint256"
          }
        ],
        "numberOfBytes": "32"
      },
      "t_struct(ComputeProvider)2429_storage": {
        "encoding": "inplace",
        "label": "struct MatcherState.ComputeProvider",
        "members": [
          {
            "astId": 2421,
            "contract": "contracts/global/Matcher.sol:Matcher",
            "label": "minPricePerEpoch",
            "offset": 0,
            "slot": "0",
            "type": "t_uint256"
          },
          {
            "astId": 2423,
            "contract": "contracts/global/Matcher.sol:Matcher",
            "label": "maxCollateral",
            "offset": 0,
            "slot": "1",
            "type": "t_uint256"
          },
          {
            "astId": 2426,
            "contract": "contracts/global/Matcher.sol:Matcher",
            "label": "paymentToken",
            "offset": 0,
            "slot": "2",
            "type": "t_contract(IERC20)1187"
          },
          {
            "astId": 2428,
            "contract": "contracts/global/Matcher.sol:Matcher",
            "label": "totalFreeWorkerSlots",
            "offset": 0,
            "slot": "3",
            "type": "t_uint256"
          }
        ],
        "numberOfBytes": "128"
      },
      "t_struct(Element)3859_storage": {
        "encoding": "inplace",
        "label": "struct LinkedList.Element",
        "members": [
          {
            "astId": 3856,
            "contract": "contracts/global/Matcher.sol:Matcher",
            "label": "prev",
            "offset": 0,
            "slot": "0",
            "type": "t_bytes32"
          },
          {
            "astId": 3858,
            "contract": "contracts/global/Matcher.sol:Matcher",
            "label": "next",
            "offset": 0,
            "slot": "1",
            "type": "t_bytes32"
          }
        ],
        "numberOfBytes": "64"
      },
      "t_uint256": {
        "encoding": "inplace",
        "label": "uint256",
        "numberOfBytes": "32"
      },
      "t_uint8": {
        "encoding": "inplace",
        "label": "uint8",
        "numberOfBytes": "1"
      }
    }
  }
}