{
  "address": "0xC0081CFa604111cd57027D8D6A5aB27078670436",
  "abi": [
    {
      "inputs": [
        {
          "internalType": "contract IGlobalCore",
          "name": "globalCore_",
          "type": "address"
        }
      ],
      "stateMutability": "nonpayable",
      "type": "constructor"
    },
    {
      "anonymous": false,
      "inputs": [
        {
          "indexed": true,
          "internalType": "bytes32",
          "name": "peerId",
          "type": "bytes32"
        },
        {
          "indexed": false,
          "internalType": "contract IDeal",
          "name": "deal",
          "type": "address"
        },
        {
          "indexed": false,
          "internalType": "bytes32",
          "name": "computeUnitId",
          "type": "bytes32"
        },
        {
          "indexed": false,
          "internalType": "uint256",
          "name": "dealCreationBlock",
          "type": "uint256"
        },
        {
          "components": [
            {
              "internalType": "bytes4",
              "name": "prefixes",
              "type": "bytes4"
            },
            {
              "internalType": "bytes32",
              "name": "hash",
              "type": "bytes32"
            }
          ],
          "indexed": false,
          "internalType": "struct CIDV1",
          "name": "appCID",
          "type": "tuple"
        }
      ],
      "name": "ComputePeerMatched",
      "type": "event"
    },
    {
      "anonymous": false,
      "inputs": [
        {
          "indexed": false,
          "internalType": "address",
          "name": "computeProvider",
          "type": "address"
        },
        {
          "indexed": false,
          "internalType": "uint256",
          "name": "minPricePerEpoch",
          "type": "uint256"
        },
        {
          "indexed": false,
          "internalType": "uint256",
          "name": "maxCollateral",
          "type": "uint256"
        },
        {
          "indexed": false,
          "internalType": "contract IERC20",
          "name": "paymentToken",
          "type": "address"
        },
        {
          "components": [
            {
              "internalType": "bytes4",
              "name": "prefixes",
              "type": "bytes4"
            },
            {
              "internalType": "bytes32",
              "name": "hash",
              "type": "bytes32"
            }
          ],
          "indexed": false,
          "internalType": "struct CIDV1[]",
          "name": "effectors",
          "type": "tuple[]"
        }
      ],
      "name": "ComputeProviderRegistered",
      "type": "event"
    },
    {
      "anonymous": false,
      "inputs": [
        {
          "indexed": false,
          "internalType": "address",
          "name": "computeProvider",
          "type": "address"
        }
      ],
      "name": "ComputeProviderRemoved",
      "type": "event"
    },
    {
      "anonymous": false,
      "inputs": [
        {
          "indexed": false,
          "internalType": "address",
          "name": "computeProvider",
          "type": "address"
        },
        {
          "components": [
            {
              "internalType": "bytes4",
              "name": "prefixes",
              "type": "bytes4"
            },
            {
              "internalType": "bytes32",
              "name": "hash",
              "type": "bytes32"
            }
          ],
          "indexed": false,
          "internalType": "struct CIDV1",
          "name": "effector",
          "type": "tuple"
        }
      ],
      "name": "EffectorAdded",
      "type": "event"
    },
    {
      "anonymous": false,
      "inputs": [
        {
          "indexed": false,
          "internalType": "address",
          "name": "computeProvider",
          "type": "address"
        },
        {
          "components": [
            {
              "internalType": "bytes4",
              "name": "prefixes",
              "type": "bytes4"
            },
            {
              "internalType": "bytes32",
              "name": "hash",
              "type": "bytes32"
            }
          ],
          "indexed": false,
          "internalType": "struct CIDV1",
          "name": "effector",
          "type": "tuple"
        }
      ],
      "name": "EffectorRemoved",
      "type": "event"
    },
    {
      "anonymous": false,
      "inputs": [
        {
          "indexed": false,
          "internalType": "address",
          "name": "computeProvider",
          "type": "address"
        },
        {
          "indexed": false,
          "internalType": "uint256",
          "name": "newMaxCollateral",
          "type": "uint256"
        }
      ],
      "name": "MaxCollateralChanged",
      "type": "event"
    },
    {
      "anonymous": false,
      "inputs": [
        {
          "indexed": false,
          "internalType": "address",
          "name": "computeProvider",
          "type": "address"
        },
        {
          "indexed": false,
          "internalType": "uint256",
          "name": "newMinPricePerEpoch",
          "type": "uint256"
        }
      ],
      "name": "MinPricePerEpochChanged",
      "type": "event"
    },
    {
      "anonymous": false,
      "inputs": [
        {
          "indexed": false,
          "internalType": "address",
          "name": "computeProvider",
          "type": "address"
        },
        {
          "indexed": false,
          "internalType": "contract IERC20",
          "name": "newPaymentToken",
          "type": "address"
        }
      ],
      "name": "PaymentTokenChanged",
      "type": "event"
    },
    {
      "anonymous": false,
      "inputs": [
        {
          "indexed": false,
          "internalType": "bytes32",
          "name": "peerId",
          "type": "bytes32"
        },
        {
          "indexed": false,
          "internalType": "uint256",
          "name": "newWorkerSlots",
          "type": "uint256"
        }
      ],
      "name": "WorkersSlotsChanged",
      "type": "event"
    },
    {
      "inputs": [],
      "name": "_globalCore",
      "outputs": [
        {
          "internalType": "contract IGlobalCore",
          "name": "",
          "type": "address"
        }
      ],
      "stateMutability": "view",
      "type": "function"
    },
    {
      "inputs": [
        {
          "components": [
            {
              "internalType": "bytes4",
              "name": "prefixes",
              "type": "bytes4"
            },
            {
              "internalType": "bytes32",
              "name": "hash",
              "type": "bytes32"
            }
          ],
          "internalType": "struct CIDV1",
          "name": "effector",
          "type": "tuple"
        }
      ],
      "name": "addEffector",
      "outputs": [],
      "stateMutability": "nonpayable",
      "type": "function"
    },
    {
      "inputs": [
        {
          "internalType": "bytes32",
          "name": "peerId",
          "type": "bytes32"
        },
        {
          "internalType": "uint256",
          "name": "workerSlots",
          "type": "uint256"
        }
      ],
      "name": "addWorkersSlots",
      "outputs": [],
      "stateMutability": "nonpayable",
      "type": "function"
    },
    {
      "inputs": [
        {
          "internalType": "uint256",
          "name": "newMaxCollateral",
          "type": "uint256"
        }
      ],
      "name": "changeMaxCollateral",
      "outputs": [],
      "stateMutability": "nonpayable",
      "type": "function"
    },
    {
      "inputs": [
        {
          "internalType": "uint256",
          "name": "newMinPricePerEpoch",
          "type": "uint256"
        }
      ],
      "name": "changeMinPricePerEpoch",
      "outputs": [],
      "stateMutability": "nonpayable",
      "type": "function"
    },
    {
      "inputs": [
        {
          "internalType": "contract IERC20",
          "name": "newPaymentToken",
          "type": "address"
        },
        {
          "internalType": "uint256",
          "name": "newMaxCollateral",
          "type": "uint256"
        }
      ],
      "name": "changePaymentToken",
      "outputs": [],
      "stateMutability": "nonpayable",
      "type": "function"
    },
    {
      "inputs": [
        {
          "internalType": "contract IDeal",
          "name": "deal",
          "type": "address"
        }
      ],
      "name": "findComputePeers",
      "outputs": [
        {
          "internalType": "address[]",
          "name": "computeProviders",
          "type": "address[]"
        },
        {
          "internalType": "bytes32[][]",
          "name": "computePeers",
          "type": "bytes32[][]"
        }
      ],
      "stateMutability": "view",
      "type": "function"
    },
    {
      "inputs": [
        {
          "internalType": "bytes32",
          "name": "peerId",
          "type": "bytes32"
        }
      ],
      "name": "getFreeWorkersSolts",
      "outputs": [
        {
          "internalType": "uint256",
          "name": "",
          "type": "uint256"
        }
      ],
      "stateMutability": "view",
      "type": "function"
    },
    {
      "inputs": [
        {
          "internalType": "contract IDeal",
          "name": "deal",
          "type": "address"
        },
        {
          "internalType": "address[]",
          "name": "providers",
          "type": "address[]"
        },
        {
          "internalType": "bytes32[][]",
          "name": "peers",
          "type": "bytes32[][]"
        }
      ],
      "name": "matchDeal",
      "outputs": [],
      "stateMutability": "nonpayable",
      "type": "function"
    },
    {
      "inputs": [
        {
          "internalType": "uint256",
          "name": "minPricePerEpoch",
          "type": "uint256"
        },
        {
          "internalType": "uint256",
          "name": "maxCollateral",
          "type": "uint256"
        },
        {
          "internalType": "contract IERC20",
          "name": "paymentToken",
          "type": "address"
        },
        {
          "components": [
            {
              "internalType": "bytes4",
              "name": "prefixes",
              "type": "bytes4"
            },
            {
              "internalType": "bytes32",
              "name": "hash",
              "type": "bytes32"
            }
          ],
          "internalType": "struct CIDV1[]",
          "name": "effectors",
          "type": "tuple[]"
        }
      ],
      "name": "registerComputeProvider",
      "outputs": [],
      "stateMutability": "nonpayable",
      "type": "function"
    },
    {
      "inputs": [],
      "name": "removeComputeProvider",
      "outputs": [],
      "stateMutability": "nonpayable",
      "type": "function"
    },
    {
      "inputs": [
        {
          "components": [
            {
              "internalType": "bytes4",
              "name": "prefixes",
              "type": "bytes4"
            },
            {
              "internalType": "bytes32",
              "name": "hash",
              "type": "bytes32"
            }
          ],
          "internalType": "struct CIDV1",
          "name": "effector",
          "type": "tuple"
        }
      ],
      "name": "removeEffector",
      "outputs": [],
      "stateMutability": "nonpayable",
      "type": "function"
    },
    {
      "inputs": [
        {
          "internalType": "bytes32",
          "name": "peerId",
          "type": "bytes32"
        },
        {
          "internalType": "uint256",
          "name": "workerSlots",
          "type": "uint256"
        }
      ],
      "name": "subWorkersSlots",
      "outputs": [],
      "stateMutability": "nonpayable",
      "type": "function"
    }
  ],
  "transactionHash": "0x1fad0ab9135f2b42dcb91944c7f402e44ce28d3b8cb677d231a9944af290ef81",
  "args": [
    "0xea6777e8c011E7968605fd012A9Dd49401ec386C"
  ],
  "numDeployments": 1,
  "solcInputHash": "a7bbee205c1829787e2ecc0342dbecf9",
  "bytecode": "0x60a0346200007757601f6200370038819003918201601f19168301916001600160401b038311848410176200007c578084926020946040528339810103126200007757516001600160a01b0381168103620000775760805260405161366d90816200009382396080518181816117a00152611b1d0152f35b600080fd5b634e487b7160e01b600052604160045260246000fdfe6101e080604052600436101561001457600080fd5b60003560e01c90816301b40500146117755750806355eb409a1461140657806357145848146112bf57806359a6bf5f146110fa5780635c76899714610e965780636868bda314610e7a5780636afd603114610e1757806373e8f7e914610cc25780637f17845014610c5c578063b63af4b114610adc578063bb785b5514610a91578063be9fe691146101e15763f6ee7139146100af57600080fd5b346101dc577f1eaffb28f02e49aa8dce586ac73116a047f91a8116d887ed4e72496a2f10283f60406100e0366117e7565b816000527f7440c3b83c734284c6dbaabc56e2aab447401ce649d182f2600464c1292f369a9061019860209183835261011d81876000205461188b565b9385600052835283866000205583156101a3575b3360005261016a7f7440c3b83c734284c6dbaabc56e2aab447401ce649d182f2600464c1292f3698918285526001886000200154612c6c565b9033600052835273ffffffffffffffffffffffffffffffffffffffff60028760002001541633903090612c7f565b8351928352820152a1005b336000527f7440c3b83c734284c6dbaabc56e2aab447401ce649d182f2600464c1292f369983526101d78587600020613530565b610131565b600080fd5b346101dc5760206003193601126101dc5773ffffffffffffffffffffffffffffffffffffffff61020f6117c4565b16604051907f6cd13448000000000000000000000000000000000000000000000000000000008252602082600481845afa91821561065d57600092610a5d575b50604051907fedd0d734000000000000000000000000000000000000000000000000000000008252602082600481845afa91821561065d57600092610a29575b506040517f2943dcab000000000000000000000000000000000000000000000000000000008152602081600481855afa90811561065d576000916109f7575b50604051907f108d2f52000000000000000000000000000000000000000000000000000000008252602082600481865afa90811561065d576000916109c1575b610318925061188b565b92604051917ffc1e5e2a000000000000000000000000000000000000000000000000000000008352600083600481845afa92831561065d5760009361099c575b506040517fb55ec18a000000000000000000000000000000000000000000000000000000008152602081600481855afa90811561065d5760009161096d575b5093929490917f7440c3b83c734284c6dbaabc56e2aab447401ce649d182f2600464c1292f369454936103c86119a3565b915b85948580151580610964575b156107055760038910156106d6576002891480610669575b80156105d4575b801561059b575b801561055f575b801561054b575b61050a576104346104196119a3565b976104226119a3565b9060601c81528860408201528661322f565b60601c6000527f7440c3b83c734284c6dbaabc56e2aab447401ce649d182f2600464c1292f36996020526040600020978854955b86151580610501575b156104b85761049e906104996040516104898161182e565b898152600060208201528a61322f565b6119eb565b956000526003890160205260016040600020015495610468565b99939792965093975093506000527f7440c3b83c734284c6dbaabc56e2aab447401ce649d182f2600464c1292f3697602052600160406000200154945b909692939591956103ca565b50801515610471565b50939791959094506000969296527f7440c3b83c734284c6dbaabc56e2aab447401ce649d182f2600464c1292f3697602052600160406000200154946104f5565b506105598a8960601c6129fb565b1561040a565b508760601c6000527f7440c3b83c734284c6dbaabc56e2aab447401ce649d182f2600464c1292f36986020528360016040600020015410610403565b508760601c6000527f7440c3b83c734284c6dbaabc56e2aab447401ce649d182f2600464c1292f369860205282604060002054116103fc565b506001891480156103f557506040517f055236f40000000000000000000000000000000000000000000000000000000081528860601c6004820152602081602481865afa90811561065d5760009161062e575b50156103f5565b610650915060203d602011610656575b610648818361184a565b8101906119d3565b8b610627565b503d61063e565b6040513d6000823e3d90fd5b506040517f055236f40000000000000000000000000000000000000000000000000000000081528860601c6004820152602081602481865afa90811561065d576000916106b7575b506103ee565b6106d0915060203d60201161065657610648818361184a565b8b6106b1565b7f4e487b7100000000000000000000000000000000000000000000000000000000600052602160045260246000fd5b846040516107128161182e565b6060908181526020810190828252604084015161072e81611898565b9461073c604051968761184a565b8186527fffffffffffffffffffffffffffffffffffffffffffffffffffffffffffffffe0958661076b84611898565b01366020830137835261077d82611898565b61078a604051918261184a565b8281528661079784611898565b0160005b81811061095457505084525160005b82811061089157505050519051906040519260206040850191604086528351809352850192019060005b818110610865575050508281036020840152815190818152602081016020808460051b8401019401956000925b84841061080e5786860387f35b909192939482828203018452875190602080835192838152019201906000905b80821061084d5750505060209788019790959460010193019190610801565b9091926020806001928651815201940192019061082e565b825173ffffffffffffffffffffffffffffffffffffffff168452602093840193909201916001016107d4565b815191602060408201519101519273ffffffffffffffffffffffffffffffffffffffff6108bf8488516129e7565b91169052604081519101519061090c836108d884611898565b6108e5604051918261184a565b8481528b6108f286611898565b0136602083013789519061090683836129e7565b526129e7565b5060005b8281106109285750505061092390611a16565b6107aa565b61094f90602083519301519261094982610943888d516129e7565b516129e7565b52611a16565b610910565b808860208093860101520161079b565b508515156103d6565b61098f915060203d602011610995575b610987818361184a565b81019061198b565b86610397565b503d61097d565b6109ba9193503d806000833e6109b2818361184a565b810190611902565b9185610358565b90506020823d6020116109ef575b816109dc6020938361184a565b810103126101dc5761031891519061030e565b3d91506109cf565b90506020813d602011610a21575b81610a126020938361184a565b810103126101dc5751846102ce565b3d9150610a05565b9091506020813d602011610a55575b81610a456020938361184a565b810103126101dc5751908361028f565b3d9150610a38565b9091506020813d602011610a89575b81610a796020938361184a565b810103126101dc5751908261024f565b3d9150610a6c565b346101dc5760206003193601126101dc576004356000527f7440c3b83c734284c6dbaabc56e2aab447401ce649d182f2600464c1292f369a6020526020604060002054604051908152f35b346101dc5760406003193601126101dc57610af5612c3d565b6040517fffffffff000000000000000000000000000000000000000000000000000000009091166020808301918252602480359084015291610b6281604481015b037fffffffffffffffffffffffffffffffffffffffffffffffffffffffffffffffe0810183528261184a565b51902090336000527f7440c3b83c734284c6dbaabc56e2aab447401ce649d182f2600464c1292f369b808252604060002083600052825260ff60406000205416610c185733600052815260406000209160005252604060002060017fffffffffffffffffffffffffffffffffffffffffffffffffffffffffffffff008254161790557f745c8d0f0a46a84d996b0f143854bf38e5c21b3a180895fca9d6c17654c3538960405180610c1333826131d3565b0390a1005b6064826040519062461bcd60e51b82526004820152601760248201527f4566666563746f7220616c7265616479206578697374730000000000000000006044820152fd5b346101dc5760206003193601126101dc577fa55f70960fade7ac9823693b7234ce8261649fa77567ca96b5a0bc76eea00c3c610c13600435610c9f811515612b00565b80610ca933612fca565b5560408051338152602081019290925290918291820190565b346101dc5760406003193601126101dc57610cdb612c3d565b6040517fffffffff000000000000000000000000000000000000000000000000000000009091166020808301918252602480359084015291610d208160448101610b36565b51902090336000527f7440c3b83c734284c6dbaabc56e2aab447401ce649d182f2600464c1292f369b8082526040600020836000528252600160ff60406000205416151503610dd3573360005281526040600020916000525260406000207fffffffffffffffffffffffffffffffffffffffffffffffffffffffffffffff0081541690557f6e9663aceecefa351da298ff43f1b4ee80da411530c55352ba1d5c787118bd2160405180610c1333826131d3565b6064826040519062461bcd60e51b82526004820152601660248201527f4566666563746f7220646f65736e2774206578697374000000000000000000006044820152fd5b346101dc5760606003193601126101dc57610e306117c4565b67ffffffffffffffff906024358281116101dc57610e529036906004016117fd565b6044929192359384116101dc57610e70610e789436906004016117fd565b939092611ae5565b005b346101dc5760206003193601126101dc57610e78600435613022565b346101dc5760006003193601126101dc57610f27610eb333612fca565b600281016000815473ffffffffffffffffffffffffffffffffffffffff811692610ede841515612f7f565b7fffffffffffffffffffffffff000000000000000000000000000000000000000060018601928484549481610f1960038b0197885490612c6c565b99555516905555339061316c565b7fffffffffffffffffffffffffffffffffffffffff0000000000000000000000003360601b16806000527f7440c3b83c734284c6dbaabc56e2aab447401ce649d182f2600464c1292f3697602090808252604060002092600160405194610f8d8661182e565b80548652015493838101948552610fa4828261346d565b156110b6577f1a9d4a5597d6ea11c9f37af1e8c69914b216e3b22aa6ca6e6387f24d7657647d9481518015908161108d575b8251918215611065575b1561104f575b505051908161103a575b50506000528152600060016040822082815501557f7440c3b83c734284c6dbaabc56e2aab447401ce649d182f2600464c1292f369661102f81546119eb565b9055604051338152a1005b51906000528284526040600020558480610ff0565b6000528486526001604060002001558680610fe6565b817f7440c3b83c734284c6dbaabc56e2aab447401ce649d182f2600464c1292f369555610fe0565b82517f7440c3b83c734284c6dbaabc56e2aab447401ce649d182f2600464c1292f369455610fd6565b6064846040519062461bcd60e51b82526004820152601260248201527f4b657920646f6573206e6f7420657869737400000000000000000000000000006044820152fd5b346101dc57611108366117e7565b801561125557816000527f7440c3b83c734284c6dbaabc56e2aab447401ce649d182f2600464c1292f369a91602083815260406000205490811561121b575b8382018092116111ec576101986040947f1eaffb28f02e49aa8dce586ac73116a047f91a8116d887ed4e72496a2f10283f96856000528352838660002055336000526111be7f7440c3b83c734284c6dbaabc56e2aab447401ce649d182f2600464c1292f3698918285526001886000200154612c6c565b9033600052835273ffffffffffffffffffffffffffffffffffffffff60028760002001541630903390612c7f565b7f4e487b7100000000000000000000000000000000000000000000000000000000600052601160045260246000fd5b336000527f7440c3b83c734284c6dbaabc56e2aab447401ce649d182f2600464c1292f369981526112508360406000206133e9565b611147565b608460405162461bcd60e51b815260206004820152602560248201527f576f726b657220736c6f74732073686f756c642062652067726561746572207460448201527f68616e20300000000000000000000000000000000000000000000000000000006064820152fd5b346101dc5760406003193601126101dc576112d86117c4565b73ffffffffffffffffffffffffffffffffffffffff90818116801561139c5761138e6040926113847f2bd8c5354233e1142193df7977bd89f7ad57b724087278bad86db1e15fc3033b9561137b61132e33612fca565b9160028301805490887fffffffffffffffffffffffff0000000000000000000000000000000000000000831617905561137260036001860154950194855490612c6c565b9133911661316c565b54602435612c6c565b9030903390612c7f565b8151903382526020820152a1005b608460405162461bcd60e51b815260206004820152602860248201527f5061796d656e7420746f6b656e2073686f756c64206265206e6f74207a65726f60448201527f20616464726573730000000000000000000000000000000000000000000000006064820152fd5b346101dc5760806003193601126101dc5760043560243560443573ffffffffffffffffffffffffffffffffffffffff908181168091036101dc576064359367ffffffffffffffff908186116101dc57366023870112156101dc578560040135928284116101dc576024870196602436918660061b0101116101dc5761148c821515612b00565b611497861515612b71565b6114a2811515612be2565b336000527f7440c3b83c734284c6dbaabc56e2aab447401ce649d182f2600464c1292f36986020938185526114e1876002604060002001541615612be2565b60405191608083019182118383101761174657600391604098979698528483528783018981526040840190858252606085019260008452336000528a52604060002094518555519760019889860155600285019151167fffffffffffffffffffffffff0000000000000000000000000000000000000000825416179055519101556115907fffffffffffffffffffffffffffffffffffffffff0000000000000000000000003360601b16613268565b60005b83811061164757509082916040519660a0880192338952878901526040880152606087015260a060808701525260c08401949260005b8281106115f8577f658bee377ff55ceae5c8883fc1d0ec604e9179fba1a50f0f094091cefa2eef0486880387a1005b90919293958635907fffffffff0000000000000000000000000000000000000000000000000000000082168092036101dc579081528683013583820152604090810196019392919083016115c9565b61165681858a98969798612c2d565b35907fffffffff00000000000000000000000000000000000000000000000000000000821682036101dc5761173d91610b366116d687611697858b8f612c2d565b01356040519283918a8301958690917fffffffff0000000000000000000000000000000000000000000000000000000060249316825260048201520190565b519020336000527f7440c3b83c734284c6dbaabc56e2aab447401ce649d182f2600464c1292f369b865260406000209060005285526040600020877fffffffffffffffffffffffffffffffffffffffffffffffffffffffffffffff00825416179055611a16565b94939294611593565b7f4e487b7100000000000000000000000000000000000000000000000000000000600052604160045260246000fd5b346101dc5760006003193601126101dc5760209073ffffffffffffffffffffffffffffffffffffffff7f0000000000000000000000000000000000000000000000000000000000000000168152f35b6004359073ffffffffffffffffffffffffffffffffffffffff821682036101dc57565b60031960409101126101dc576004359060243590565b9181601f840112156101dc5782359167ffffffffffffffff83116101dc576020808501948460051b0101116101dc57565b6040810190811067ffffffffffffffff82111761174657604052565b90601f7fffffffffffffffffffffffffffffffffffffffffffffffffffffffffffffffe0910116810190811067ffffffffffffffff82111761174657604052565b919082039182116111ec57565b67ffffffffffffffff81116117465760051b60200190565b91908260409103126101dc576040516118c88161182e565b809280517fffffffff00000000000000000000000000000000000000000000000000000000811681036101dc578252602090810151910152565b9060209182818303126101dc5780519067ffffffffffffffff82116101dc570181601f820112156101dc5780519261193984611898565b936040936119498551968761184a565b818652828087019260061b850101938185116101dc578301915b8483106119735750505050505090565b83869161198084866118b0565b815201920191611963565b908160209103126101dc575160038110156101dc5790565b604051906060820182811067ffffffffffffffff8211176117465760405260006040838281528260208201520152565b908160209103126101dc575180151581036101dc5790565b80156111ec577fffffffffffffffffffffffffffffffffffffffffffffffffffffffffffffffff0190565b7fffffffffffffffffffffffffffffffffffffffffffffffffffffffffffffffff81146111ec5760010190565b9190811015611a535760051b0190565b7f4e487b7100000000000000000000000000000000000000000000000000000000600052603260045260246000fd5b9190811015611a535760051b810135907fffffffffffffffffffffffffffffffffffffffffffffffffffffffffffffffe1813603018212156101dc57019081359167ffffffffffffffff83116101dc576020018260051b360381136101dc579190565b60e05261014052610120919091526040517f7667180800000000000000000000000000000000000000000000000000000000815291907f000000000000000000000000000000000000000000000000000000000000000073ffffffffffffffffffffffffffffffffffffffff16602084600481845afa93841561065d576000946129b3575b5073ffffffffffffffffffffffffffffffffffffffff60e051166000527f7440c3b83c734284c6dbaabc56e2aab447401ce649d182f2600464c1292f369c60205260406000205484111561296f576040517fc45a0155000000000000000000000000000000000000000000000000000000008152602081600481855afa90811561065d5760009161291b575b50602073ffffffffffffffffffffffffffffffffffffffff916024604051809481937f210530530000000000000000000000000000000000000000000000000000000083528160e051166004840152165afa90811561065d576000916128fc575b50156128b8576020600491604051928380927fac027f970000000000000000000000000000000000000000000000000000000082525afa801561065d57600061018052612860575b50604051917ffc1e5e2a00000000000000000000000000000000000000000000000000000000835260008360048173ffffffffffffffffffffffffffffffffffffffff60e051165afa92831561065d57600093612845575b506040517fedd0d73400000000000000000000000000000000000000000000000000000000815260208160048173ffffffffffffffffffffffffffffffffffffffff60e051165afa801561065d57600060a05261280c575b506040517f6cd1344800000000000000000000000000000000000000000000000000000000815260208160048173ffffffffffffffffffffffffffffffffffffffff60e051165afa90811561065d576000916127da575b506040517f2943dcab00000000000000000000000000000000000000000000000000000000815260208160048173ffffffffffffffffffffffffffffffffffffffff60e051165afa90811561065d576000916127a8575b506040517f108d2f5200000000000000000000000000000000000000000000000000000000815260208160048173ffffffffffffffffffffffffffffffffffffffff60e051165afa90811561065d57600091612774575b50611e5e9161188b565b926040517fb55ec18a00000000000000000000000000000000000000000000000000000000815260208160048173ffffffffffffffffffffffffffffffffffffffff60e051165afa801561065d576000608052612753575b50604051927f9bc6686800000000000000000000000000000000000000000000000000000000845260408460048173ffffffffffffffffffffffffffffffffffffffff60e051165afa93841561065d57600094612712575b50604051957f1763451400000000000000000000000000000000000000000000000000000000875260208760048173ffffffffffffffffffffffffffffffffffffffff60e051165afa96871561065d576000976126db575b50600061010081905292935b848410611fdf57505050505050505061010051611f8c5750565b600281018091116111ec5773ffffffffffffffffffffffffffffffffffffffff60e051166000527f7440c3b83c734284c6dbaabc56e2aab447401ce649d182f2600464c1292f369c602052604060002055565b611ff684866101409b9495969798999a9b51611a43565b356101605273ffffffffffffffffffffffffffffffffffffffff610160511661016051036101dc5760805160038110156106d657600181036125f657506040517f055236f400000000000000000000000000000000000000000000000000000000815273ffffffffffffffffffffffffffffffffffffffff6101605116600482015260208160248173ffffffffffffffffffffffffffffffffffffffff60e051165afa90811561065d576000916125d7575b501561256e575b73ffffffffffffffffffffffffffffffffffffffff61016051166000527f7440c3b83c734284c6dbaabc56e2aab447401ce649d182f2600464c1292f36986020526040600020958160018801549754118015612563575b801561254f575b61253d5761212386866101209d9c9b9d51611a82565b949050600060c0525b8460c051101561252357612150612147888861012051611a82565b60c05191611a43565b6040517f095ea7b300000000000000000000000000000000000000000000000000000000815260a05160e05173ffffffffffffffffffffffffffffffffffffffff166004830152602482015290359060208180604481010381600073ffffffffffffffffffffffffffffffffffffffff61018051165af1801561065d57612504575b506040516101c0527feebe998f000000000000000000000000000000000000000000000000000000006101c0515273ffffffffffffffffffffffffffffffffffffffff610160511660046101c05101528060246101c051015260206101c05160446101c051600073ffffffffffffffffffffffffffffffffffffffff60e051165af16101a0526101a0511561065d5760009c6101a0516124c5575b9c8b9c9d61227d60a0518c61188b565b806123ec575b507f1c13422d2375fe8a96ddbe3f6e2efc794f2befbfe247217479ef4b68030d42c3916122b160a0926119eb565b9d846000527f7440c3b83c734284c6dbaabc56e2aab447401ce649d182f2600464c1292f369a806020526122e96040600020546119eb565b806123d95750856000526020526000604081205573ffffffffffffffffffffffffffffffffffffffff61016051166000527f7440c3b83c734284c6dbaabc56e2aab447401ce649d182f2600464c1292f369960205261234c856040600020613530565b6040519173ffffffffffffffffffffffffffffffffffffffff60e051168352602083015260408201527fffffffff000000000000000000000000000000000000000000000000000000008d5116606082015260208d01516080820152a260016101005289156123cc576123c060c051611a16565b60c0529a99989a61212c565b5050505050505050505050565b908660005260205260406000205561234c565b6040517fa9059cbb0000000000000000000000000000000000000000000000000000000081526101605173ffffffffffffffffffffffffffffffffffffffff1660048201526024810191909152919c509060208180604481010381600073ffffffffffffffffffffffffffffffffffffffff61018051165af19c8d1561065d576122b18f9e9360a0937f1c13422d2375fe8a96ddbe3f6e2efc794f2befbfe247217479ef4b68030d42c3956124a6575b5092505091612283565b6124be9060203d60201161065657610648818361184a565b503861249c565b60203d6020116124fd575b806124e06020926101c05161184a565b6101c05190810103126124f9576101c051519d5061226d565b8d80fd5b503d6124d0565b61251c9060203d60201161065657610648818361184a565b50386121d2565b92999a9796509392509361253690611a16565b9293611f72565b93929198979695509361253690611a16565b5061255d84610160516129fb565b1561210d565b5060a0518710612106565b608460405162461bcd60e51b8152602060048201526024808201527f436f6d707574652070726f7669646572206973206e6f7420696e20776869746560448201527f6c697374000000000000000000000000000000000000000000000000000000006064820152fd5b6125f0915060203d60201161065657610648818361184a565b386120a8565b6002036120af576040517f055236f400000000000000000000000000000000000000000000000000000000815273ffffffffffffffffffffffffffffffffffffffff6101605116600482015260208160248173ffffffffffffffffffffffffffffffffffffffff60e051165afa90811561065d576000916126bc575b50156120af57606460405162461bcd60e51b815260206004820152602060248201527f436f6d707574652070726f766964657220697320696e20626c61636b6c6973746044820152fd5b6126d5915060203d60201161065657610648818361184a565b38612672565b90966020823d60201161270a575b816126f66020938361184a565b810103126127075750519538611f66565b80fd5b3d91506126e9565b90936040903d60401161274b575b61272a828461184a565b6040838381010312612707575090612744918101906118b0565b9238611f0e565b3d9150612720565b61276b9060203d60201161099557610987818361184a565b60805238611eb6565b906020823d6020116127a0575b8161278e6020938361184a565b81010312612707575051611e5e611e54565b3d9150612781565b906020823d6020116127d2575b816127c26020938361184a565b8101031261270757505138611dfd565b3d91506127b5565b906020823d602011612804575b816127f46020938361184a565b8101031261270757505138611da6565b3d91506127e7565b6020813d60201161283d575b816128256020938361184a565b81010312612837575160a05238611d4f565b60a05180fd5b3d9150612818565b61285991933d8091833e6109b2818361184a565b9138611cf7565b6020813d6020116128b0575b816128796020938361184a565b810103126128a9575173ffffffffffffffffffffffffffffffffffffffff811681036128a9576101805238611c9f565b6101805180fd5b3d915061286c565b606460405162461bcd60e51b815260206004820152601860248201527f4465616c206973206e6f742066726f6d20666163746f727900000000000000006044820152fd5b612915915060203d60201161065657610648818361184a565b38611c57565b6020813d602011612967575b816129346020938361184a565b8101031261296357519073ffffffffffffffffffffffffffffffffffffffff8216820361270757506020611bf6565b5080fd5b3d9150612927565b606460405162461bcd60e51b815260206004820152601e60248201527f4465616c206973206e6f7420726561647920666f72206d61746368696e6700006044820152fd5b90936020823d6020116129df575b816129ce6020938361184a565b810103126127075750519238611b6a565b3d91506129c1565b8051821015611a535760209160051b010190565b81519160005b838110612a115750505050600190565b60ff7fffffffff00000000000000000000000000000000000000000000000000000000612a3e83856129e7565b515116602080612a4e85876129e7565b510151604080517fffffffff00000000000000000000000000000000000000000000000000000000909416838501908152600481019290925292612a958160248401610b36565b5190209073ffffffffffffffffffffffffffffffffffffffff87166000527f7440c3b83c734284c6dbaabc56e2aab447401ce649d182f2600464c1292f369b8152826000209160005252600020541615612af757612af290611a16565b612a01565b50505050600090565b15612b0757565b608460405162461bcd60e51b815260206004820152602c60248201527f4d696e207072696365207065722065706f63682073686f756c6420626520677260448201527f6561746572207468616e203000000000000000000000000000000000000000006064820152fd5b15612b7857565b608460405162461bcd60e51b815260206004820152602760248201527f4d617820636f6c6c61746572616c2073686f756c64206265206772656174657260448201527f207468616e2030000000000000000000000000000000000000000000000000006064820152fd5b15612be957565b606460405162461bcd60e51b815260206004820152601860248201527f436f6d707574652070726f766964657220616c726561647900000000000000006044820152fd5b9190811015611a535760061b0190565b6004357fffffffff00000000000000000000000000000000000000000000000000000000811681036101dc5790565b818102929181159184041417156111ec57565b9290604051927f23b872dd00000000000000000000000000000000000000000000000000000000602085015273ffffffffffffffffffffffffffffffffffffffff809216602485015216604483015260648201526064815260a081019181831067ffffffffffffffff84111761174657612cfb92604052612cfd565b565b73ffffffffffffffffffffffffffffffffffffffff909291921691604051612d248161182e565b6020918282527f5361666545524332303a206c6f772d6c6576656c2063616c6c206661696c6564838301526000808285829451910182895af13d15612e85573d9567ffffffffffffffff8711612e5857612dbd94959660405190612daf887fffffffffffffffffffffffffffffffffffffffffffffffffffffffffffffffe0601f840116018361184a565b81528093873d92013e612e91565b805190828215928315612e40575b50505015612dd65750565b6084906040519062461bcd60e51b82526004820152602a60248201527f5361666545524332303a204552433230206f7065726174696f6e20646964206e60448201527f6f742073756363656564000000000000000000000000000000000000000000006064820152fd5b612e5093508201810191016119d3565b388281612dcb565b6024837f4e487b710000000000000000000000000000000000000000000000000000000081526041600452fd5b612dbd93949591506060915b91929015612ef25750815115612ea5575090565b3b15612eae5790565b606460405162461bcd60e51b815260206004820152601d60248201527f416464726573733a2063616c6c20746f206e6f6e2d636f6e74726163740000006044820152fd5b825190915015612f055750805190602001fd5b6040519062461bcd60e51b825281602080600483015282519283602484015260005b848110612f68575050507fffffffffffffffffffffffffffffffffffffffffffffffffffffffffffffffe0601f836000604480968601015201168101030190fd5b818101830151868201604401528593508201612f27565b15612f8657565b606460405162461bcd60e51b815260206004820152601e60248201527f436f6d707574652070726f766964657220646f65736e277420657869737400006044820152fd5b73ffffffffffffffffffffffffffffffffffffffff8091166000527f7440c3b83c734284c6dbaabc56e2aab447401ce649d182f2600464c1292f369860205261301f6040600020916002830154161515612f7f565b90565b61302d811515612b71565b61303633612fca565b906001820190815491818314613128578190556003830180549384156131215782847fa8c62389b31fc6dfc3c0ec83e30a55441144e480af1c0721cf27c7c88f29952596826130db97116000146130e05750926130996130a1926130c39561188b565b905490612c6c565b9073ffffffffffffffffffffffffffffffffffffffff6002339201541661316c565b60408051338152602081019290925290918291820190565b0390a1565b61311c945061310f9061310a60029373ffffffffffffffffffffffffffffffffffffffff9561188b565b612c6c565b9201541630903390612c7f565b6130c3565b5050505050565b606460405162461bcd60e51b815260206004820152601a60248201527f4d617820636f6c6c61746572616c206973207468652073616d650000000000006044820152fd5b6040517fa9059cbb00000000000000000000000000000000000000000000000000000000602082015273ffffffffffffffffffffffffffffffffffffffff929092166024830152604480830193909352918152612cfb916131ce60648361184a565b612cfd565b91909173ffffffffffffffffffffffffffffffffffffffff60608201931681526004357fffffffff0000000000000000000000000000000000000000000000000000000081168091036101dc5760208201526040602435910152565b6020810190604081018151906001845194868351915201905215908160011461326257501561325c575050565b60200152565b91505052565b80156133a55760008181527f7440c3b83c734284c6dbaabc56e2aab447401ce649d182f2600464c1292f369790816020526132c083604083206001604051916132b08361182e565b805483520154602082015261346d565b613361577f7440c3b83c734284c6dbaabc56e2aab447401ce649d182f2600464c1292f3695918254907f7440c3b83c734284c6dbaabc56e2aab447401ce649d182f2600464c1292f36966133148154611a16565b9055848215613339579060409392916001955585835260205280838320558152200155565b7f7440c3b83c734284c6dbaabc56e2aab447401ce649d182f2600464c1292f36945550505055565b606460405162461bcd60e51b815260206004820152601260248201527f4b657920616c72656164792065786973747300000000000000000000000000006044820152fd5b606460405162461bcd60e51b815260206004820152601260248201527f4b65792063616e6e6f74206265205a45524f00000000000000000000000000006044820152fd5b81156133a55760038101906000908382528260205261342684604084206001604051916134158361182e565b8054835201546020820152836134ed565b61336157600181019284845492600281016134418154611a16565b9055831561346657509060409392916001955585835260205280838320558152200155565b5550505055565b90815115918215926134df575b5081156134b4575b811561348c575090565b90507f7440c3b83c734284c6dbaabc56e2aab447401ce649d182f2600464c1292f3695541490565b7f7440c3b83c734284c6dbaabc56e2aab447401ce649d182f2600464c1292f36945481149150613482565b60200151151591503861347a565b8151158015939290613522575b508215613517575b821561350d57505090565b6001015414919050565b805482149250613502565b6020015115159250386134fa565b91909160038101600090848252602081815260409586842060018851916135568361182e565b80548352015483820190815261356d8383896134ed565b156135f4579181600195936002999a959351801590816135eb575b82519182156135e1575b156135cf575b50505190816135bd575b505085525282208281550155016135b981546119eb565b9055565b519087528383528487205538806135a2565b895285855287878a2001553880613598565b818a8d0155613592565b82518b55613588565b6064848a519062461bcd60e51b82526004820152601260248201527f4b657920646f6573206e6f7420657869737400000000000000000000000000006044820152fdfea264697066735822122054d4851f4e39a69d5a23580d5bd97cdb22b5fef2eaf350e19c6051affe38c58d64736f6c63430008130033",
  "devdoc": {
    "kind": "dev",
    "methods": {},
    "version": 1
  },
  "userdoc": {
    "kind": "user",
    "methods": {},
    "version": 1
  },
  "storageLayout": {
    "storage": [
      {
        "astId": 7769,
        "contract": "contracts/global/matcher/Matcher.sol:Matcher",
        "label": "_storage",
        "offset": 0,
        "slot": "0",
        "type": "t_struct(ConfigStorage)7766_storage"
      }
    ],
    "types": {
      "t_address": {
        "encoding": "inplace",
        "label": "address",
        "numberOfBytes": "20"
      },
      "t_bool": {
        "encoding": "inplace",
        "label": "bool",
        "numberOfBytes": "1"
      },
      "t_bytes32": {
        "encoding": "inplace",
        "label": "bytes32",
        "numberOfBytes": "32"
      },
      "t_contract(IDeal)6355": {
        "encoding": "inplace",
        "label": "contract IDeal",
        "numberOfBytes": "20"
      },
      "t_contract(IERC20)2321": {
        "encoding": "inplace",
        "label": "contract IERC20",
        "numberOfBytes": "20"
      },
      "t_mapping(t_address,t_mapping(t_bytes32,t_bool))": {
        "encoding": "mapping",
        "key": "t_address",
        "label": "mapping(address => mapping(bytes32 => bool))",
        "numberOfBytes": "32",
        "value": "t_mapping(t_bytes32,t_bool)"
      },
      "t_mapping(t_address,t_struct(Bytes32List)9079_storage)": {
        "encoding": "mapping",
        "key": "t_address",
        "label": "mapping(address => struct LinkedListWithUniqueKeys.Bytes32List)",
        "numberOfBytes": "32",
        "value": "t_struct(Bytes32List)9079_storage"
      },
      "t_mapping(t_address,t_struct(ComputeProvider)7717_storage)": {
        "encoding": "mapping",
        "key": "t_address",
        "label": "mapping(address => struct MatcherConfig.ComputeProvider)",
        "numberOfBytes": "32",
        "value": "t_struct(ComputeProvider)7717_storage"
      },
      "t_mapping(t_bytes32,t_bool)": {
        "encoding": "mapping",
        "key": "t_bytes32",
        "label": "mapping(bytes32 => bool)",
        "numberOfBytes": "32",
        "value": "t_bool"
      },
      "t_mapping(t_bytes32,t_struct(ComputePeer)7720_storage)": {
        "encoding": "mapping",
        "key": "t_bytes32",
        "label": "mapping(bytes32 => struct MatcherConfig.ComputePeer)",
        "numberOfBytes": "32",
        "value": "t_struct(ComputePeer)7720_storage"
      },
      "t_mapping(t_bytes32,t_struct(Element)9067_storage)": {
        "encoding": "mapping",
        "key": "t_bytes32",
        "label": "mapping(bytes32 => struct LinkedListWithUniqueKeys.Element)",
        "numberOfBytes": "32",
        "value": "t_struct(Element)9067_storage"
      },
      "t_mapping(t_contract(IDeal)6355,t_uint256)": {
        "encoding": "mapping",
        "key": "t_contract(IDeal)6355",
        "label": "mapping(contract IDeal => uint256)",
        "numberOfBytes": "32",
        "value": "t_uint256"
      },
      "t_struct(Bytes32List)9079_storage": {
        "encoding": "inplace",
        "label": "struct LinkedListWithUniqueKeys.Bytes32List",
        "members": [
          {
            "astId": 9069,
            "contract": "contracts/global/matcher/Matcher.sol:Matcher",
            "label": "_first",
            "offset": 0,
            "slot": "0",
            "type": "t_bytes32"
          },
          {
            "astId": 9071,
            "contract": "contracts/global/matcher/Matcher.sol:Matcher",
            "label": "_last",
            "offset": 0,
            "slot": "1",
            "type": "t_bytes32"
          },
          {
            "astId": 9073,
            "contract": "contracts/global/matcher/Matcher.sol:Matcher",
            "label": "_length",
            "offset": 0,
            "slot": "2",
            "type": "t_uint256"
          },
          {
            "astId": 9078,
            "contract": "contracts/global/matcher/Matcher.sol:Matcher",
            "label": "_elements",
            "offset": 0,
            "slot": "3",
            "type": "t_mapping(t_bytes32,t_struct(Element)9067_storage)"
          }
        ],
        "numberOfBytes": "128"
      },
      "t_struct(ComputePeer)7720_storage": {
        "encoding": "inplace",
        "label": "struct MatcherConfig.ComputePeer",
        "members": [
          {
            "astId": 7719,
            "contract": "contracts/global/matcher/Matcher.sol:Matcher",
            "label": "freeWorkerSlots",
            "offset": 0,
            "slot": "0",
            "type": "t_uint256"
          }
        ],
        "numberOfBytes": "32"
      },
      "t_struct(ComputeProvider)7717_storage": {
        "encoding": "inplace",
        "label": "struct MatcherConfig.ComputeProvider",
        "members": [
          {
            "astId": 7709,
            "contract": "contracts/global/matcher/Matcher.sol:Matcher",
            "label": "minPricePerEpoch",
            "offset": 0,
            "slot": "0",
            "type": "t_uint256"
          },
          {
            "astId": 7711,
            "contract": "contracts/global/matcher/Matcher.sol:Matcher",
            "label": "maxCollateral",
            "offset": 0,
            "slot": "1",
            "type": "t_uint256"
          },
          {
            "astId": 7714,
            "contract": "contracts/global/matcher/Matcher.sol:Matcher",
            "label": "paymentToken",
            "offset": 0,
            "slot": "2",
            "type": "t_contract(IERC20)2321"
          },
          {
            "astId": 7716,
            "contract": "contracts/global/matcher/Matcher.sol:Matcher",
            "label": "totalFreeWorkerSlots",
            "offset": 0,
            "slot": "3",
            "type": "t_uint256"
          }
        ],
        "numberOfBytes": "128"
      },
      "t_struct(ConfigStorage)7766_storage": {
        "encoding": "inplace",
        "label": "struct MatcherConfig.ConfigStorage",
        "members": [
          {
            "astId": 7739,
            "contract": "contracts/global/matcher/Matcher.sol:Matcher",
            "label": "computeProvidersList",
            "offset": 0,
            "slot": "0",
            "type": "t_struct(Bytes32List)9079_storage"
          },
          {
            "astId": 7744,
            "contract": "contracts/global/matcher/Matcher.sol:Matcher",
            "label": "computeProviderByOwner",
            "offset": 0,
            "slot": "4",
            "type": "t_mapping(t_address,t_struct(ComputeProvider)7717_storage)"
          },
          {
            "astId": 7749,
            "contract": "contracts/global/matcher/Matcher.sol:Matcher",
            "label": "computePeersListByProvider",
            "offset": 0,
            "slot": "5",
            "type": "t_mapping(t_address,t_struct(Bytes32List)9079_storage)"
          },
          {
            "astId": 7754,
            "contract": "contracts/global/matcher/Matcher.sol:Matcher",
            "label": "computePeerByPeerId",
            "offset": 0,
            "slot": "6",
            "type": "t_mapping(t_bytes32,t_struct(ComputePeer)7720_storage)"
          },
          {
            "astId": 7760,
            "contract": "contracts/global/matcher/Matcher.sol:Matcher",
            "label": "effectorsByComputeProvider",
            "offset": 0,
            "slot": "7",
            "type": "t_mapping(t_address,t_mapping(t_bytes32,t_bool))"
          },
          {
            "astId": 7765,
            "contract": "contracts/global/matcher/Matcher.sol:Matcher",
            "label": "minMatchingEpochByDeal",
            "offset": 0,
            "slot": "8",
            "type": "t_mapping(t_contract(IDeal)6355,t_uint256)"
          }
        ],
        "numberOfBytes": "288"
      },
      "t_struct(Element)9067_storage": {
        "encoding": "inplace",
        "label": "struct LinkedListWithUniqueKeys.Element",
        "members": [
          {
            "astId": 9064,
            "contract": "contracts/global/matcher/Matcher.sol:Matcher",
            "label": "prev",
            "offset": 0,
            "slot": "0",
            "type": "t_bytes32"
          },
          {
            "astId": 9066,
            "contract": "contracts/global/matcher/Matcher.sol:Matcher",
            "label": "next",
            "offset": 0,
            "slot": "1",
            "type": "t_bytes32"
          }
        ],
        "numberOfBytes": "64"
      },
      "t_uint256": {
        "encoding": "inplace",
        "label": "uint256",
        "numberOfBytes": "32"
      }
    }
  }
}