{
  "address": "0x5D602285B1f13aF140280029B562694b726576B0",
  "abi": [
    {
      "anonymous": false,
      "inputs": [
        {
          "indexed": false,
          "internalType": "address",
          "name": "previousAdmin",
          "type": "address"
        },
        {
          "indexed": false,
          "internalType": "address",
          "name": "newAdmin",
          "type": "address"
        }
      ],
      "name": "AdminChanged",
      "type": "event"
    },
    {
      "anonymous": false,
      "inputs": [
        {
          "indexed": true,
          "internalType": "address",
          "name": "beacon",
          "type": "address"
        }
      ],
      "name": "BeaconUpgraded",
      "type": "event"
    },
    {
      "anonymous": false,
      "inputs": [
        {
          "indexed": false,
          "internalType": "uint256",
          "name": "amount",
          "type": "uint256"
        }
      ],
      "name": "DepositedToPaymentBalance",
      "type": "event"
    },
    {
      "anonymous": false,
      "inputs": [
        {
          "indexed": false,
          "internalType": "bytes32",
          "name": "particleHash",
          "type": "bytes32"
        },
        {
          "indexed": false,
          "internalType": "uint256",
          "name": "epoch",
          "type": "uint256"
        },
        {
          "indexed": false,
          "internalType": "uint256",
          "name": "workersCount",
          "type": "uint256"
        },
        {
          "indexed": false,
          "internalType": "uint256",
          "name": "reward",
          "type": "uint256"
        }
      ],
      "name": "ParticleCommitted",
      "type": "event"
    },
    {
      "anonymous": false,
      "inputs": [
        {
          "indexed": false,
          "internalType": "bytes32",
          "name": "patId",
          "type": "bytes32"
        },
        {
          "indexed": false,
          "internalType": "bytes32",
          "name": "particleHash",
          "type": "bytes32"
        },
        {
          "indexed": false,
          "internalType": "uint256",
          "name": "reward",
          "type": "uint256"
        }
      ],
      "name": "RewardWithdrawn",
      "type": "event"
    },
    {
      "anonymous": false,
      "inputs": [
        {
          "indexed": true,
          "internalType": "address",
          "name": "implementation",
          "type": "address"
        }
      ],
      "name": "Upgraded",
      "type": "event"
    },
    {
      "anonymous": false,
      "inputs": [
        {
          "indexed": false,
          "internalType": "uint256",
          "name": "amount",
          "type": "uint256"
        }
      ],
      "name": "WithdrawnFromPaymentBalance",
      "type": "event"
    },
    {
      "inputs": [
        {
          "components": [
            {
              "internalType": "string",
              "name": "air",
              "type": "string"
            },
            {
              "internalType": "string",
              "name": "prevData",
              "type": "string"
            },
            {
              "internalType": "string",
              "name": "params",
              "type": "string"
            },
            {
              "internalType": "string",
              "name": "callResults",
              "type": "string"
            }
          ],
          "internalType": "struct IPaymentModule.Particle",
          "name": "particle",
          "type": "tuple"
        },
        {
          "internalType": "bytes32[]",
          "name": "patIds",
          "type": "bytes32[]"
        }
      ],
      "name": "commitParticle",
      "outputs": [],
      "stateMutability": "nonpayable",
      "type": "function"
    },
    {
      "inputs": [
        {
          "internalType": "uint256",
          "name": "amount",
          "type": "uint256"
        }
      ],
      "name": "depositToPaymentBalance",
      "outputs": [],
      "stateMutability": "nonpayable",
      "type": "function"
    },
    {
      "inputs": [],
      "name": "getLockedBalance",
      "outputs": [
        {
          "internalType": "uint256",
          "name": "",
          "type": "uint256"
        }
      ],
      "stateMutability": "view",
      "type": "function"
    },
    {
      "inputs": [],
      "name": "getPaymentBalance",
      "outputs": [
        {
          "internalType": "uint256",
          "name": "",
          "type": "uint256"
        }
      ],
      "stateMutability": "view",
      "type": "function"
    },
    {
      "inputs": [
        {
          "internalType": "bytes32",
          "name": "particleHash",
          "type": "bytes32"
        },
        {
          "internalType": "bytes32",
          "name": "patId",
          "type": "bytes32"
        }
      ],
      "name": "getRewardAmount",
      "outputs": [
        {
          "internalType": "uint256",
          "name": "",
          "type": "uint256"
        }
      ],
      "stateMutability": "view",
      "type": "function"
    },
    {
      "inputs": [],
      "name": "proxiableUUID",
      "outputs": [
        {
          "internalType": "bytes32",
          "name": "",
          "type": "bytes32"
        }
      ],
      "stateMutability": "view",
      "type": "function"
    },
    {
      "inputs": [
        {
          "internalType": "address",
          "name": "newImplementation",
          "type": "address"
        }
      ],
      "name": "upgradeTo",
      "outputs": [],
      "stateMutability": "nonpayable",
      "type": "function"
    },
    {
      "inputs": [
        {
          "internalType": "address",
          "name": "newImplementation",
          "type": "address"
        },
        {
          "internalType": "bytes",
          "name": "data",
          "type": "bytes"
        }
      ],
      "name": "upgradeToAndCall",
      "outputs": [],
      "stateMutability": "payable",
      "type": "function"
    },
    {
      "inputs": [
        {
          "internalType": "uint256",
          "name": "amount",
          "type": "uint256"
        }
      ],
      "name": "withdrawFromPaymentBalance",
      "outputs": [],
      "stateMutability": "nonpayable",
      "type": "function"
    },
    {
      "inputs": [
        {
          "internalType": "bytes32",
          "name": "patId",
          "type": "bytes32"
        },
        {
          "internalType": "bytes32[]",
          "name": "particlesHashes",
          "type": "bytes32[]"
        }
      ],
      "name": "withdrawReward",
      "outputs": [],
      "stateMutability": "nonpayable",
      "type": "function"
    }
  ],
  "transactionHash": "0x5003d8b85f7e64357da1254ad2c9625e98bfc60c633f3a52c2adddb5953e41c0",
  "args": [],
  "numDeployments": 1,
  "solcInputHash": "9aa805292f646e79c2fd4915f738aa67",
  "bytecode": "0x60a08060405234610031573060805261246f908161003782396080518181816109be01528181610b0301526115650152f35b600080fdfe608080604052600436101561001357600080fd5b60003560e01c9081632549e0b11461181b575080633659cfe61461153257806343d427b8146115105780634cd3c91e14610e115780634f1ef28614610a7857806352d1902d1461099657806373d6cb631461056a5780639ab1ea6614610309578063a67fc3fa146102e05763ec614b2c1461008d57600080fd5b346102d4576020806003193601126102d4576004359073ffffffffffffffffffffffffffffffffffffffff91827fe0c154d538f20c8d1aadcd299210daa7f0a434a5bf4a39795668b28b61ec6e9654166040517f8da5cb5b0000000000000000000000000000000000000000000000000000000081528381600481855afa801561027457849160009161029d575b509161012d6004938733911614611be3565b604051928380927f68f1e99a0000000000000000000000000000000000000000000000000000000082525afa8015610274578391600091610280575b506004604051809681937f3013ce29000000000000000000000000000000000000000000000000000000008352165afa92831561027457600093610245575b50603254816101b960335483611d91565b1061020157817fa467ec14370032a1d588291531b3db0e519c7e6f91f3620ab5b9fe797802584a946101ee826101f894611d91565b6032553390611d9e565b604051908152a1005b6064836040519062461bcd60e51b82526004820152601760248201527f4e6f7420656e6f75676820667265652062616c616e63650000000000000000006044820152fd5b610266919350823d841161026d575b61025e8183611875565b810190611c2e565b91386101a8565b503d610254565b6040513d6000823e3d90fd5b6102979150823d841161026d5761025e8183611875565b38610169565b82819392503d83116102d9575b6102b48183611875565b810103126102d45760049161012d6102cc8693611bc2565b91935061011b565b600080fd5b503d6102aa565b346102d45760406003193601126102d4576020610301602435600435611e4c565b604051908152f35b346102d4576020806003193601126102d4576004359073ffffffffffffffffffffffffffffffffffffffff91827fe0c154d538f20c8d1aadcd299210daa7f0a434a5bf4a39795668b28b61ec6e9654166040517f8da5cb5b0000000000000000000000000000000000000000000000000000000081528381600481855afa801561027457849160009161052c575b50916103a96004938733911614611be3565b604051928380927f68f1e99a0000000000000000000000000000000000000000000000000000000082525afa801561027457839160009161050f575b506004604051809681937f3013ce29000000000000000000000000000000000000000000000000000000008352165afa928315610274576000936104f0575b506040517f23b872dd00000000000000000000000000000000000000000000000000000000838201523360248201523060448201528160648201526064815260a081019080821067ffffffffffffffff8311176104c1577f149ba108a32321eb79f1df2b06c7a39b8a12a21e19793ecf4f87bc659f834e6b946104a992604052611c67565b6104b581603254611c5a565b603255604051908152a1005b7f4e487b7100000000000000000000000000000000000000000000000000000000600052604160045260246000fd5b610508919350823d841161026d5761025e8183611875565b9183610424565b6105269150823d841161026d5761025e8183611875565b856103e5565b82819392503d8311610563575b6105438183611875565b810103126102d4576004916103a961055b8693611bc2565b919350610397565b503d610539565b346102d45760406003193601126102d45767ffffffffffffffff80602435116102d4573660236024350112156102d45760243560040135116102d45736602480356004013560051b81350101116102d45773ffffffffffffffffffffffffffffffffffffffff7fe0c154d538f20c8d1aadcd299210daa7f0a434a5bf4a39795668b28b61ec6e965416604051907f68f1e99a000000000000000000000000000000000000000000000000000000008252602082600481845afa91821561027457600092610971575b506020600491604051928380927f2ed52a770000000000000000000000000000000000000000000000000000000082525afa90811561027457600091610952575b506040517f6b0ea627000000000000000000000000000000000000000000000000000000008152600435600482015260e08160248173ffffffffffffffffffffffffffffffffffffffff86165afa801561027457602091600091610933575b500151906000916000905b60243560040135821061082b575050602073ffffffffffffffffffffffffffffffffffffffff9361071084603354611d91565b6033556004604051809681937f3013ce29000000000000000000000000000000000000000000000000000000008352165afa9081156102745773ffffffffffffffffffffffffffffffffffffffff93600092610807575b5060e0906024604051809681937f6b0ea6270000000000000000000000000000000000000000000000000000000083526004356004840152165afa801561027457608073ffffffffffffffffffffffffffffffffffffffff916107d6956000916107d8575b5001511690611d9e565b005b6107fa915060e03d60e011610800575b6107f28183611875565b8101906121b1565b866107cc565b503d6107e8565b60e09192506108249060203d60201161026d5761025e8183611875565b9190610767565b909260248460051b813501013560005260376020526040600020938260081c60005284602052600160ff84161b604060002054166108ef576108866108e99261088060043560248560051b8135010135611e4c565b90611c5a565b948360081c6000526020526040600020600160ff85161b81541790557f876678c4011019fc7feff6df73670dfd1d7bf98cc5816e9069868ec6a90e58e16060604051600435815260248460051b81350101356020820152876040820152a161240c565b906106dd565b606460405162461bcd60e51b815260206004820152600c60248201527f416c7265616479207061696400000000000000000000000000000000000000006044820152fd5b61094c915060e03d60e011610800576107f28183611875565b846106d2565b61096b915060203d60201161026d5761025e8183611875565b82610673565b600491925061098e602091823d841161026d5761025e8183611875565b929150610632565b346102d45760006003193601126102d45773ffffffffffffffffffffffffffffffffffffffff7f0000000000000000000000000000000000000000000000000000000000000000163003610a0e5760206040517f360894a13ba1a3210667c828492db98dca3e2076cc3735a920a3ca505d382bbc8152f35b608460405162461bcd60e51b815260206004820152603860248201527f555550535570677261646561626c653a206d757374206e6f742062652063616c60448201527f6c6564207468726f7567682064656c656761746563616c6c00000000000000006064820152fd5b60406003193601126102d457610a8c611836565b602490813567ffffffffffffffff81116102d457366023820112156102d457806004013590610aba826118b6565b90610ac86040519283611875565b82825260209283830191368783830101116102d457816000928887930185378401015273ffffffffffffffffffffffffffffffffffffffff807f00000000000000000000000000000000000000000000000000000000000000001690610b30823014156118f0565b610b5f7f360894a13ba1a3210667c828492db98dca3e2076cc3735a920a3ca505d382bbc928284541614611961565b807fe0c154d538f20c8d1aadcd299210daa7f0a434a5bf4a39795668b28b61ec6e9654163303610dce577f4910fdfa16fed3260ed0e7147f7cc6da11a60208b5b9406d12a635614ffd91435460ff1615610bc25750505050506107d691506119d2565b8593949516906040517f52d1902d0000000000000000000000000000000000000000000000000000000081528681600481865afa60009181610d9f575b50610c6d57608487602e8a6040519262461bcd60e51b845260048401528201527f45524331393637557067726164653a206e657720696d706c656d656e7461746960448201527f6f6e206973206e6f7420555550530000000000000000000000000000000000006064820152fd5b96919293949603610d365750610c82836119d2565b7fbc7cd75a20ee27fd9adebab32041f755214dbc6bffa90cc0225b39da2e5c2d3b600080a2835115801590610d2e575b610cb857005b600080916107d6957f416464726573733a206c6f772d6c6576656c2064656c65676174652063616c6c60405196610cee88611859565b602788528701527f206661696c65640000000000000000000000000000000000000000000000000060408701525190845af4610d28611aa4565b91611ad4565b506001610cb2565b8460296084926040519262461bcd60e51b845260048401528201527f45524331393637557067726164653a20756e737570706f727465642070726f7860448201527f6961626c655555494400000000000000000000000000000000000000000000006064820152fd5b9091508781813d8311610dc7575b610db78183611875565b810103126102d457519089610bff565b503d610dad565b606485601e896040519262461bcd60e51b845260048401528201527f4d6f64756c65426173653a2063616c6c6572206973206e6f7420636f726500006044820152fd5b346102d4576003196040813601126102d4576004359067ffffffffffffffff82116102d4576080826004019183360301126102d4576024359167ffffffffffffffff83116102d457366023840112156102d45782600401359267ffffffffffffffff84116104c1578360051b60405194610e8e6020830187611875565b855260246020860191830101913683116102d457602401905b82821061150057505050610ebb828061237c565b9290610eca602484018361237c565b92909360448101610edb908361237c565b929091606401610eea9161237c565b919092604051968795602087019960808b5260a0880190610f0a926123cd565b7fffffffffffffffffffffffffffffffffffffffffffffffffffffffffffffffe09788888303016040890152610f3f926123cd565b9086868303016060870152610f53926123cd565b9084848303016080850152610f67926123cd565b039081018252610f779082611875565b5190208060005260356020526040600020600101546114bc5773ffffffffffffffffffffffffffffffffffffffff7fe0c154d538f20c8d1aadcd299210daa7f0a434a5bf4a39795668b28b61ec6e965416604051907f68f1e99a000000000000000000000000000000000000000000000000000000008252602082600481845afa91821561027457600092611497575b506020600491604051928380927f2ed52a770000000000000000000000000000000000000000000000000000000082525afa90811561027457600091611478575b50604051917fa7c1abe000000000000000000000000000000000000000000000000000000000835260208360048173ffffffffffffffffffffffffffffffffffffffff85165afa9283156102745773ffffffffffffffffffffffffffffffffffffffff9360209160009161145b575b506004604051809681937fe2d2bfe3000000000000000000000000000000000000000000000000000000008352165afa9283156102745773ffffffffffffffffffffffffffffffffffffffff9360209160009161143e575b506004604051809681937f76671808000000000000000000000000000000000000000000000000000000008352165afa9283156102745760009361140a575b5060005b855181101561121c5760208160051b8701015190604051917f6b0ea627000000000000000000000000000000000000000000000000000000008352600483015260e08260248173ffffffffffffffffffffffffffffffffffffffff88165afa918215610274576111f8926020916000916111fd575b50015185600052603660205260406000208160081c600052602052600160ff604060002092161b815417905561240c565b611152565b611216915060e03d60e011610800576107f28183611875565b896111c7565b8582868680600052603460205273ffffffffffffffffffffffffffffffffffffffff6020604060002054946004604051809481937f5fc8f59c000000000000000000000000000000000000000000000000000000008352165afa908115610274576000916113d8575b5060018401908185116113a95760ff82116113a95760016112a7921b90611e13565b9084519460405195608087019587871067ffffffffffffffff8811176104c1577f079689285156896e57d9a399f740dd579c15affebecbe201795471884c9210f1976003611362936080996040526001835260208301908782526040840190815260608401918983528a600052603560205260406000209451151560ff7fffffffffffffffffffffffffffffffffffffffffffffffffffffffffffffff0087541691161785555160018501555160028401555191015561240c565b82600052603460205260406000205561137d83603254611d91565b60325561138c83603354611c5a565b6033555190604051938452602084015260408301526060820152a1005b7f4e487b7100000000000000000000000000000000000000000000000000000000600052601160045260246000fd5b90506020813d602011611402575b816113f360209383611875565b810103126102d4575185611285565b3d91506113e6565b9092506020813d602011611436575b8161142660209383611875565b810103126102d45751918561114e565b3d9150611419565b6114559150823d841161026d5761025e8183611875565b8761110f565b6114729150823d841161026d5761025e8183611875565b876110b7565b611491915060203d60201161026d5761025e8183611875565b84611048565b60049192506114b4602091823d841161026d5761025e8183611875565b929150611007565b606460405162461bcd60e51b815260206004820152601760248201527f5061727469636c6520616c7265616479206578697374730000000000000000006044820152fd5b8135815260209182019101610ea7565b346102d45760006003193601126102d457602061030160325460335490611d91565b346102d4576020806003193601126102d45761154c611836565b73ffffffffffffffffffffffffffffffffffffffff91827f00000000000000000000000000000000000000000000000000000000000000001692611592843014156118f0565b6115c17f360894a13ba1a3210667c828492db98dca3e2076cc3735a920a3ca505d382bbc948286541614611961565b807fe0c154d538f20c8d1aadcd299210daa7f0a434a5bf4a39795668b28b61ec6e96541633036117d757604051938285019185831067ffffffffffffffff8411176104c157826040526000865260ff7f4910fdfa16fed3260ed0e7147f7cc6da11a60208b5b9406d12a635614ffd9143541660001461164857505050506107d691506119d2565b84939416906040517f52d1902d0000000000000000000000000000000000000000000000000000000081528581600481865afa600091816117a8575b506116f3576084866040519062461bcd60e51b82526004820152602e60248201527f45524331393637557067726164653a206e657720696d706c656d656e7461746960448201527f6f6e206973206e6f7420555550530000000000000000000000000000000000006064820152fd5b0361173e57611701836119d2565b7fbc7cd75a20ee27fd9adebab32041f755214dbc6bffa90cc0225b39da2e5c2d3b600080a283511580159061173657610cb857005b506000610cb2565b6084846040519062461bcd60e51b82526004820152602960248201527f45524331393637557067726164653a20756e737570706f727465642070726f7860448201527f6961626c655555494400000000000000000000000000000000000000000000006064820152fd5b9091508681813d83116117d0575b6117c08183611875565b810103126102d457519088611684565b503d6117b6565b6064826040519062461bcd60e51b82526004820152601e60248201527f4d6f64756c65426173653a2063616c6c6572206973206e6f7420636f726500006044820152fd5b346102d45760006003193601126102d4576020906033548152f35b6004359073ffffffffffffffffffffffffffffffffffffffff821682036102d457565b6060810190811067ffffffffffffffff8211176104c157604052565b90601f7fffffffffffffffffffffffffffffffffffffffffffffffffffffffffffffffe0910116810190811067ffffffffffffffff8211176104c157604052565b67ffffffffffffffff81116104c157601f017fffffffffffffffffffffffffffffffffffffffffffffffffffffffffffffffe01660200190565b156118f757565b608460405162461bcd60e51b815260206004820152602c60248201527f46756e6374696f6e206d7573742062652063616c6c6564207468726f7567682060448201527f64656c656761746563616c6c00000000000000000000000000000000000000006064820152fd5b1561196857565b608460405162461bcd60e51b815260206004820152602c60248201527f46756e6374696f6e206d7573742062652063616c6c6564207468726f7567682060448201527f6163746976652070726f787900000000000000000000000000000000000000006064820152fd5b803b15611a3a5773ffffffffffffffffffffffffffffffffffffffff7f360894a13ba1a3210667c828492db98dca3e2076cc3735a920a3ca505d382bbc91167fffffffffffffffffffffffff0000000000000000000000000000000000000000825416179055565b608460405162461bcd60e51b815260206004820152602d60248201527f455243313936373a206e657720696d706c656d656e746174696f6e206973206e60448201527f6f74206120636f6e7472616374000000000000000000000000000000000000006064820152fd5b3d15611acf573d90611ab5826118b6565b91611ac36040519384611875565b82523d6000602084013e565b606090565b91929015611b355750815115611ae8575090565b3b15611af15790565b606460405162461bcd60e51b815260206004820152601d60248201527f416464726573733a2063616c6c20746f206e6f6e2d636f6e74726163740000006044820152fd5b825190915015611b485750805190602001fd5b6040519062461bcd60e51b825281602080600483015282519283602484015260005b848110611bab575050507fffffffffffffffffffffffffffffffffffffffffffffffffffffffffffffffe0601f836000604480968601015201168101030190fd5b818101830151868201604401528593508201611b6a565b519073ffffffffffffffffffffffffffffffffffffffff821682036102d457565b15611bea57565b606460405162461bcd60e51b815260206004820152601f60248201527f4d6f64756c65426173653a2063616c6c6572206973206e6f74206f776e6572006044820152fd5b908160209103126102d4575173ffffffffffffffffffffffffffffffffffffffff811681036102d45790565b919082018092116113a957565b73ffffffffffffffffffffffffffffffffffffffff1690604051604081019080821067ffffffffffffffff8311176104c157611ce1916040526020938482527f5361666545524332303a206c6f772d6c6576656c2063616c6c206661696c6564858301526000808587829751910182855af1610d28611aa4565b805191821591848315611d66575b505050905015611cfc5750565b6084906040519062461bcd60e51b82526004820152602a60248201527f5361666545524332303a204552433230206f7065726174696f6e20646964206e60448201527f6f742073756363656564000000000000000000000000000000000000000000006064820152fd5b919381809450010312611d8d57820151908115158203611d8a575080388084611cef565b80fd5b5080fd5b919082039182116113a957565b9173ffffffffffffffffffffffffffffffffffffffff604051927fa9059cbb000000000000000000000000000000000000000000000000000000006020850152166024830152604482015260448152608081019181831067ffffffffffffffff8411176104c157611e1192604052611c67565b565b8115611e1d570490565b7f4e487b7100000000000000000000000000000000000000000000000000000000600052601260045260246000fd5b9060009182526020603581526040918284209260ff8454161561216e5773ffffffffffffffffffffffffffffffffffffffff9280847fe0c154d538f20c8d1aadcd299210daa7f0a434a5bf4a39795668b28b61ec6e9654168351928380927f68f1e99a00000000000000000000000000000000000000000000000000000000825260049586915afa90811561212a57869183918a91612151575b50848651809481937fa7c1abe0000000000000000000000000000000000000000000000000000000008352165afa90811561212a57869183918a91612134575b50848651809481937fe2d2bfe3000000000000000000000000000000000000000000000000000000008352165afa90811561212a57908291899161210d575b50838551809881937f76671808000000000000000000000000000000000000000000000000000000008352165afa9485156121035787956120d0575b506001860154927fffffffffffffffffffffffffffffffffffffffffffffffffffffffffffffffff958681019081116120a457841015612063575050611fe78383612225565b15938415612014575b505050506120105761200d91506002600382015491015490611e13565b90565b5090565b9091809394500191821161203757509061202d91612225565b1538808080611ff0565b8460116024927f4e487b7100000000000000000000000000000000000000000000000000000000835252fd5b60649350519162461bcd60e51b8352820152601660248201527f5061727469636c65206e6f7420636f6e6669726d6564000000000000000000006044820152fd5b6024896011867f4e487b7100000000000000000000000000000000000000000000000000000000835252fd5b9080955081813d83116120fc575b6120e88183611875565b810103126120f857519338611fa1565b8680fd5b503d6120de565b83513d89823e3d90fd5b6121249150823d841161026d5761025e8183611875565b38611f65565b84513d8a823e3d90fd5b61214b9150823d841161026d5761025e8183611875565b38611f26565b6121689150823d841161026d5761025e8183611875565b38611ee6565b82606491519062461bcd60e51b82526004820152601260248201527f5061727469636c65206e6f742076616c696400000000000000000000000000006044820152fd5b908160e09103126102d4576040519060e082019082821067ffffffffffffffff8311176104c15760c0916040528051835260208101516020840152604081015160408401526060810151606084015261220c60808201611bc2565b608084015260a081015160a0840152015160c082015290565b73ffffffffffffffffffffffffffffffffffffffff91827fe0c154d538f20c8d1aadcd299210daa7f0a434a5bf4a39795668b28b61ec6e9654169260409384519283917f2ed52a7700000000000000000000000000000000000000000000000000000000835282600460209687935afa918215612371579060e0929160009261234f575b50602490875194859384927f6b0ea6270000000000000000000000000000000000000000000000000000000084526004840152165afa9081156123445791806001949260ff94600091612326575b500151916000526036815284600020908260081c60005252161b9060002054161561232157600190565b600090565b61233e915060e03d8111610800576107f28183611875565b386122f7565b84513d6000823e3d90fd5b602491925061236a90863d881161026d5761025e8183611875565b91906122a9565b86513d6000823e3d90fd5b9035907fffffffffffffffffffffffffffffffffffffffffffffffffffffffffffffffe1813603018212156102d4570180359067ffffffffffffffff82116102d4576020019181360383136102d457565b601f82602094937fffffffffffffffffffffffffffffffffffffffffffffffffffffffffffffffe0938186528686013760008582860101520116010190565b7fffffffffffffffffffffffffffffffffffffffffffffffffffffffffffffffff81146113a9576001019056fea2646970667358221220164af82d5a3f42b5a6a14f2cff4218770062943a708c7404e28eb7f5c1231c6064736f6c63430008110033",
  "devdoc": {
    "kind": "dev",
    "methods": {
      "proxiableUUID()": {
        "details": "Implementation of the ERC1822 {proxiableUUID} function. This returns the storage slot used by the implementation. It is used to validate the implementation's compatibility when performing an upgrade. IMPORTANT: A proxy pointing at a proxiable contract should not be considered proxiable itself, because this risks bricking a proxy that upgrades to it, by delegating to itself until out of gas. Thus it is critical that this function revert if invoked through a proxy. This is guaranteed by the `notDelegated` modifier."
      },
      "upgradeTo(address)": {
        "custom:oz-upgrades-unsafe-allow-reachable": "delegatecall",
        "details": "Upgrade the implementation of the proxy to `newImplementation`. Calls {_authorizeUpgrade}. Emits an {Upgraded} event."
      },
      "upgradeToAndCall(address,bytes)": {
        "custom:oz-upgrades-unsafe-allow-reachable": "delegatecall",
        "details": "Upgrade the implementation of the proxy to `newImplementation`, and subsequently execute the function call encoded in `data`. Calls {_authorizeUpgrade}. Emits an {Upgraded} event."
      }
    },
    "version": 1
  },
  "userdoc": {
    "kind": "user",
    "methods": {},
    "version": 1
  },
  "storageLayout": {
    "storage": [
      {
        "astId": 5643,
        "contract": "contracts/deal/PaymentModule.sol:PaymentModule",
        "label": "__gap",
        "offset": 0,
        "slot": "0",
        "type": "t_array(t_uint256)50_storage"
      },
      {
        "astId": 4206,
        "contract": "contracts/deal/PaymentModule.sol:PaymentModule",
        "label": "_totalBalance",
        "offset": 0,
        "slot": "50",
        "type": "t_uint256"
      },
      {
        "astId": 4208,
        "contract": "contracts/deal/PaymentModule.sol:PaymentModule",
        "label": "_lockedBalance",
        "offset": 0,
        "slot": "51",
        "type": "t_uint256"
      },
      {
        "astId": 4212,
        "contract": "contracts/deal/PaymentModule.sol:PaymentModule",
        "label": "_goldenParticleCountByEpoch",
        "offset": 0,
        "slot": "52",
        "type": "t_mapping(t_uint256,t_uint256)"
      },
      {
        "astId": 4217,
        "contract": "contracts/deal/PaymentModule.sol:PaymentModule",
        "label": "_particleResults",
        "offset": 0,
        "slot": "53",
        "type": "t_mapping(t_bytes32,t_struct(ParticleResult)4178_storage)"
      },
      {
        "astId": 4223,
        "contract": "contracts/deal/PaymentModule.sol:PaymentModule",
        "label": "_workersByEpoch",
        "offset": 0,
        "slot": "54",
        "type": "t_mapping(t_uint256,t_mapping(t_uint256,t_uint256))"
      },
      {
        "astId": 4228,
        "contract": "contracts/deal/PaymentModule.sol:PaymentModule",
        "label": "_paidWorkersByParticle",
        "offset": 0,
        "slot": "55",
        "type": "t_mapping(t_bytes32,t_struct(BitMap)3573_storage)"
      }
    ],
    "types": {
      "t_array(t_uint256)50_storage": {
        "base": "t_uint256",
        "encoding": "inplace",
        "label": "uint256[50]",
        "numberOfBytes": "1600"
      },
      "t_bool": {
        "encoding": "inplace",
        "label": "bool",
        "numberOfBytes": "1"
      },
      "t_bytes32": {
        "encoding": "inplace",
        "label": "bytes32",
        "numberOfBytes": "32"
      },
      "t_mapping(t_bytes32,t_struct(BitMap)3573_storage)": {
        "encoding": "mapping",
        "key": "t_bytes32",
        "label": "mapping(bytes32 => struct BitMaps.BitMap)",
        "numberOfBytes": "32",
        "value": "t_struct(BitMap)3573_storage"
      },
      "t_mapping(t_bytes32,t_struct(ParticleResult)4178_storage)": {
        "encoding": "mapping",
        "key": "t_bytes32",
        "label": "mapping(bytes32 => struct PaymentModuleState.ParticleResult)",
        "numberOfBytes": "32",
        "value": "t_struct(ParticleResult)4178_storage"
      },
      "t_mapping(t_uint256,t_mapping(t_uint256,t_uint256))": {
        "encoding": "mapping",
        "key": "t_uint256",
        "label": "mapping(uint256 => mapping(uint256 => uint256))",
        "numberOfBytes": "32",
        "value": "t_mapping(t_uint256,t_uint256)"
      },
      "t_mapping(t_uint256,t_uint256)": {
        "encoding": "mapping",
        "key": "t_uint256",
        "label": "mapping(uint256 => uint256)",
        "numberOfBytes": "32",
        "value": "t_uint256"
      },
      "t_struct(BitMap)3573_storage": {
        "encoding": "inplace",
        "label": "struct BitMaps.BitMap",
        "members": [
          {
            "astId": 3572,
            "contract": "contracts/deal/PaymentModule.sol:PaymentModule",
            "label": "_data",
            "offset": 0,
            "slot": "0",
            "type": "t_mapping(t_uint256,t_uint256)"
          }
        ],
        "numberOfBytes": "32"
      },
      "t_struct(ParticleResult)4178_storage": {
        "encoding": "inplace",
        "label": "struct PaymentModuleState.ParticleResult",
        "members": [
          {
            "astId": 4171,
            "contract": "contracts/deal/PaymentModule.sol:PaymentModule",
            "label": "isValid",
            "offset": 0,
            "slot": "0",
            "type": "t_bool"
          },
          {
            "astId": 4173,
            "contract": "contracts/deal/PaymentModule.sol:PaymentModule",
            "label": "epoch",
            "offset": 0,
            "slot": "1",
            "type": "t_uint256"
          },
          {
            "astId": 4175,
            "contract": "contracts/deal/PaymentModule.sol:PaymentModule",
            "label": "worketsCount",
            "offset": 0,
            "slot": "2",
            "type": "t_uint256"
          },
          {
            "astId": 4177,
            "contract": "contracts/deal/PaymentModule.sol:PaymentModule",
            "label": "reward",
            "offset": 0,
            "slot": "3",
            "type": "t_uint256"
          }
        ],
        "numberOfBytes": "128"
      },
      "t_uint256": {
        "encoding": "inplace",
        "label": "uint256",
        "numberOfBytes": "32"
      }
    }
  }
}