{
  "address": "0x238BAc18315F3C6ab9114461dcbbef20BF7EeE21",
  "abi": [
    {
      "anonymous": false,
      "inputs": [
        {
          "indexed": false,
          "internalType": "address",
          "name": "previousAdmin",
          "type": "address"
        },
        {
          "indexed": false,
          "internalType": "address",
          "name": "newAdmin",
          "type": "address"
        }
      ],
      "name": "AdminChanged",
      "type": "event"
    },
    {
      "anonymous": false,
      "inputs": [
        {
          "indexed": true,
          "internalType": "address",
          "name": "beacon",
          "type": "address"
        }
      ],
      "name": "BeaconUpgraded",
      "type": "event"
    },
    {
      "anonymous": false,
      "inputs": [
        {
          "indexed": true,
          "internalType": "address",
          "name": "implementation",
          "type": "address"
        }
      ],
      "name": "Upgraded",
      "type": "event"
    },
    {
      "inputs": [],
      "name": "balance",
      "outputs": [
        {
          "internalType": "uint256",
          "name": "",
          "type": "uint256"
        }
      ],
      "stateMutability": "view",
      "type": "function"
    },
    {
      "inputs": [
        {
          "components": [
            {
              "internalType": "string",
              "name": "air",
              "type": "string"
            },
            {
              "internalType": "string",
              "name": "prevData",
              "type": "string"
            },
            {
              "internalType": "string",
              "name": "params",
              "type": "string"
            },
            {
              "internalType": "string",
              "name": "callResults",
              "type": "string"
            }
          ],
          "internalType": "struct Particle",
          "name": "particle",
          "type": "tuple"
        }
      ],
      "name": "commitParticle",
      "outputs": [],
      "stateMutability": "nonpayable",
      "type": "function"
    },
    {
      "inputs": [
        {
          "internalType": "uint256",
          "name": "amount",
          "type": "uint256"
        }
      ],
      "name": "depositToPaymentBalance",
      "outputs": [],
      "stateMutability": "nonpayable",
      "type": "function"
    },
    {
      "inputs": [],
      "name": "proxiableUUID",
      "outputs": [
        {
          "internalType": "bytes32",
          "name": "",
          "type": "bytes32"
        }
      ],
      "stateMutability": "view",
      "type": "function"
    },
    {
      "inputs": [
        {
          "internalType": "bytes32",
          "name": "particleHash",
          "type": "bytes32"
        },
        {
          "internalType": "bytes32",
          "name": "patId",
          "type": "bytes32"
        }
      ],
      "name": "rewardAmount",
      "outputs": [
        {
          "internalType": "uint256",
          "name": "",
          "type": "uint256"
        }
      ],
      "stateMutability": "view",
      "type": "function"
    },
    {
      "inputs": [
        {
          "internalType": "address",
          "name": "newImplementation",
          "type": "address"
        }
      ],
      "name": "upgradeTo",
      "outputs": [],
      "stateMutability": "nonpayable",
      "type": "function"
    },
    {
      "inputs": [
        {
          "internalType": "address",
          "name": "newImplementation",
          "type": "address"
        },
        {
          "internalType": "bytes",
          "name": "data",
          "type": "bytes"
        }
      ],
      "name": "upgradeToAndCall",
      "outputs": [],
      "stateMutability": "payable",
      "type": "function"
    },
    {
      "inputs": [
        {
          "internalType": "uint256",
          "name": "amount",
          "type": "uint256"
        }
      ],
      "name": "withdrawFromPaymentBalance",
      "outputs": [],
      "stateMutability": "nonpayable",
      "type": "function"
    },
    {
      "inputs": [
        {
          "internalType": "bytes32",
          "name": "patId",
          "type": "bytes32"
        },
        {
          "internalType": "bytes32[]",
          "name": "particlesHashes",
          "type": "bytes32[]"
        }
      ],
      "name": "withdrawReward",
      "outputs": [],
      "stateMutability": "nonpayable",
      "type": "function"
    }
  ],
  "transactionHash": "0xf59b8fa155cc90d679751c124963c98d4c70122684aa8bee25cadf471e939e74",
  "args": [],
  "numDeployments": 1,
  "solcInputHash": "09b009adaa7c41f548683d650f79aaa9",
  "bytecode": "0x60a080604052346100315730608052612389908161003782396080518181816110de0152818161122301526115640152f35b600080fdfe6080604052600436101561001257600080fd5b60003560e01c80633659cfe6146115315780634f1ef2861461119857806352d1902d146110b657806373d6cb6314610d215780639ab1ea6614610b19578063b69ef8a814610afb578063dc79f159146102cc578063ec614b2c146100aa5763ff9268ac1461007f57600080fd5b346100a55760406003193601126100a557602061009d600435611e30565b604051908152f35b600080fd5b346100a5576020806003193601126100a55760043573ffffffffffffffffffffffffffffffffffffffff807fe0c154d538f20c8d1aadcd299210daa7f0a434a5bf4a39795668b28b61ec6e9654166040517f8da5cb5b0000000000000000000000000000000000000000000000000000000081528481600481855afa801561026557859160009161028e575b50916101486004938533911614611bc7565b604051928380927f68f1e99a0000000000000000000000000000000000000000000000000000000082525afa8015610265578491600091610271575b506004604051809481937f3013ce29000000000000000000000000000000000000000000000000000000008352165afa90811561026557600091610238575b5060325492826101d560335486611d75565b106101f457506101e8826101f294611d75565b6032553390611d82565b005b6064906040519062461bcd60e51b82526004820152601760248201527f4e6f7420656e6f75676820667265652062616c616e63650000000000000000006044820152fd5b6102589150833d851161025e575b6102508183611859565b810190611c12565b836101c3565b503d610246565b6040513d6000823e3d90fd5b6102889150823d841161025e576102508183611859565b85610184565b82819392503d83116102c5575b6102a58183611859565b810103126100a5576004916101486102bd8793611ba6565b919350610136565b503d61029b565b346100a5576003196020813601126100a5576004359067ffffffffffffffff82116100a55760809082360301126100a55761030a6004820180612246565b9061031b6024840160048501612246565b909161032d6044860160048701612246565b9061033e6064880160048901612246565b919092604051968795602087019960808b5260a088019061035e92612297565b7fffffffffffffffffffffffffffffffffffffffffffffffffffffffffffffffe0978888830301604089015261039392612297565b90868683030160608701526103a792612297565b90848483030160808501526103bb92612297565b0390810182526103cb9082611859565b51902090816000526035602052604060002060010154610ab75773ffffffffffffffffffffffffffffffffffffffff7fe0c154d538f20c8d1aadcd299210daa7f0a434a5bf4a39795668b28b61ec6e96541690604051917f68f1e99a000000000000000000000000000000000000000000000000000000008352602083600481845afa92831561026557600093610a92575b506020600491604051928380927f2ed52a770000000000000000000000000000000000000000000000000000000082525afa801561026557610a73575b50604051907fa7c1abe000000000000000000000000000000000000000000000000000000000825260208260048173ffffffffffffffffffffffffffffffffffffffff87165afa9182156102655773ffffffffffffffffffffffffffffffffffffffff92602091600091610a56575b506004604051809581937fe2d2bfe3000000000000000000000000000000000000000000000000000000008352165afa9182156102655773ffffffffffffffffffffffffffffffffffffffff92602091600091610a39575b506004604051809581937f76671808000000000000000000000000000000000000000000000000000000008352165afa91821561026557600092610a05575b506040517f1ef7e0a100000000000000000000000000000000000000000000000000000000815260208160048173ffffffffffffffffffffffffffffffffffffffff88165afa908115610265576000916109b2575b506106f260009173ffffffffffffffffffffffffffffffffffffffff93836040519586809581947fa689408c0000000000000000000000000000000000000000000000000000000083526020600484015261066a61065982600401836004016122d6565b6080602487015260a4860191612297565b6106e36106d56106b561068360248601866004016122d6565b7fffffffffffffffffffffffffffffffffffffffffffffffffffffffffffffffdc9591868a84030160448b0152612297565b6106c560448601866004016122d6565b90858984030160648a0152612297565b9260648101906004016122d6565b91858403016084860152612297565b0393165af190811561026557600091610915575b5060005b81518110156107425761073d90836000526036602052604060002060008052602052604060002060018154179055612326565b61070a565b50919080600052603460205273ffffffffffffffffffffffffffffffffffffffff6020604060002054936004604051809481937f5fc8f59c000000000000000000000000000000000000000000000000000000008352165afa908115610265576000916108e3575b50600183018093116108b45760ff83116108b4576107cc906001841b90611df7565b92519360405190608082019082821067ffffffffffffffff83111761088557610880966003926040526001845260208401858152604085019182526060850192888452600052603560205260406000209451151560ff7fffffffffffffffffffffffffffffffffffffffffffffffffffffffffffffff00875416911617855551600185015551600284015551910155600052603460205260406000205561087581603254611d75565b603255603354611c3e565b603355005b7f4e487b7100000000000000000000000000000000000000000000000000000000600052604160045260246000fd5b7f4e487b7100000000000000000000000000000000000000000000000000000000600052601160045260246000fd5b90506020813d60201161090d575b816108fe60209383611859565b810103126100a55751856107aa565b3d91506108f1565b90503d806000833e6109278183611859565b8101906020818303126100a55780519067ffffffffffffffff82116100a557019080601f830112156100a55781519167ffffffffffffffff8311610885578260051b906040519361097b6020840186611859565b84526020808501928201019283116100a557602001905b8282106109a25750505084610706565b8151815260209182019101610992565b90506020813d6020116109fd575b816109cd60209383611859565b810103126100a557519073ffffffffffffffffffffffffffffffffffffffff821682036100a557906106f26105f5565b3d91506109c0565b9091506020813d602011610a31575b81610a2160209383611859565b810103126100a5575190846105a0565b3d9150610a14565b610a509150823d841161025e576102508183611859565b86610561565b610a6d9150823d841161025e576102508183611859565b86610509565b610a8b9060203d60201161025e576102508183611859565b508361049a565b6004919350610aaf602091823d841161025e576102508183611859565b93915061045d565b606460405162461bcd60e51b815260206004820152601760248201527f5061727469636c6520616c7265616479206578697374730000000000000000006044820152fd5b346100a55760006003193601126100a5576020603254604051908152f35b346100a5576020806003193601126100a55760043573ffffffffffffffffffffffffffffffffffffffff91827fe0c154d538f20c8d1aadcd299210daa7f0a434a5bf4a39795668b28b61ec6e9654166040517f8da5cb5b0000000000000000000000000000000000000000000000000000000081528281600481855afa8015610265578391600091610ce3575b5091610bb86004938733911614611bc7565b604051928380927f68f1e99a0000000000000000000000000000000000000000000000000000000082525afa8015610265578291600091610cc6575b506004604051809681937f3013ce29000000000000000000000000000000000000000000000000000000008352165afa92831561026557600093610ca7575b507f23b872dd00000000000000000000000000000000000000000000000000000000604051918201523360248201523060448201528160648201526064815260a081019080821067ffffffffffffffff83111761088557610ca293610c9a92604052611c4b565b603254611c3e565b603255005b81610cbf9294503d851161025e576102508183611859565b9183610c33565b610cdd9150823d841161025e576102508183611859565b85610bf4565b82819392503d8311610d1a575b610cfa8183611859565b810103126100a557600491610bb8610d128593611ba6565b919350610ba6565b503d610cf0565b346100a55760406003193601126100a557602467ffffffffffffffff81358181116100a557366023820112156100a55780600401358281116100a557600593368183871b850101116100a55773ffffffffffffffffffffffffffffffffffffffff91827fe0c154d538f20c8d1aadcd299210daa7f0a434a5bf4a39795668b28b61ec6e9654166040517f68f1e99a0000000000000000000000000000000000000000000000000000000081526020928382600481865afa918215610265576004938591600094611097575b50604051948580927f2ed52a770000000000000000000000000000000000000000000000000000000082525afa92831561026557600093611078575b5060009660005b828110610fca57505050908285949392610e4b88603354611d75565b6033556004604051809881937f3013ce29000000000000000000000000000000000000000000000000000000008352165afa94851561026557600095610fa4575b509060c0849284604051809581937f6b0ea6270000000000000000000000000000000000000000000000000000000083526004356004840152165afa96871561026557600097610eea575b5050505060606101f29401511690611d82565b909192965060c0833d8211610f9c575b81610f0760c09383611859565b810103126100a5576040519660c0880191821188831017610f6f57506060926101f2979260a09260405281518452808201519084015260408101516040840152610f52848201611ba6565b8484015260808101516080840152015160a0820152948680610ed7565b7f4e487b710000000000000000000000000000000000000000000000000000000060005260416004526000fd5b3d9150610efa565b82919550610fc160c09186943d851161025e576102508183611859565b95919250610e8c565b86818c1b830101359889600052603780885260406000206000805288526001918260406000205416611035579061100f6110309493926110098e611e30565b90611c3e565b9b600052885260406000206000805288526040600020908154179055612326565b610e2f565b606489600c8c6040519262461bcd60e51b845260048401528201527f416c7265616479207061696400000000000000000000000000000000000000006044820152fd5b611090919350843d861161025e576102508183611859565b9189610e28565b6110af919450823d841161025e576102508183611859565b928b610dec565b346100a55760006003193601126100a55773ffffffffffffffffffffffffffffffffffffffff7f000000000000000000000000000000000000000000000000000000000000000016300361112e5760206040517f360894a13ba1a3210667c828492db98dca3e2076cc3735a920a3ca505d382bbc8152f35b608460405162461bcd60e51b815260206004820152603860248201527f555550535570677261646561626c653a206d757374206e6f742062652063616c60448201527f6c6564207468726f7567682064656c656761746563616c6c00000000000000006064820152fd5b60406003193601126100a5576111ac61181a565b602490813567ffffffffffffffff81116100a557366023820112156100a5578060040135906111da8261189a565b906111e86040519283611859565b82825260209283830191368783830101116100a557816000928887930185378401015273ffffffffffffffffffffffffffffffffffffffff807f00000000000000000000000000000000000000000000000000000000000000001690611250823014156118d4565b61127f7f360894a13ba1a3210667c828492db98dca3e2076cc3735a920a3ca505d382bbc928284541614611945565b807fe0c154d538f20c8d1aadcd299210daa7f0a434a5bf4a39795668b28b61ec6e96541633036114ee577f4910fdfa16fed3260ed0e7147f7cc6da11a60208b5b9406d12a635614ffd91435460ff16156112e25750505050506101f291506119b6565b8593949516906040517f52d1902d0000000000000000000000000000000000000000000000000000000081528681600481865afa600091816114bf575b5061138d57608487602e8a6040519262461bcd60e51b845260048401528201527f45524331393637557067726164653a206e657720696d706c656d656e7461746960448201527f6f6e206973206e6f7420555550530000000000000000000000000000000000006064820152fd5b9691929394960361145657506113a2836119b6565b7fbc7cd75a20ee27fd9adebab32041f755214dbc6bffa90cc0225b39da2e5c2d3b600080a283511580159061144e575b6113d857005b600080916101f2957f416464726573733a206c6f772d6c6576656c2064656c65676174652063616c6c6040519661140e8861183d565b602788528701527f206661696c65640000000000000000000000000000000000000000000000000060408701525190845af4611448611a88565b91611ab8565b5060016113d2565b8460296084926040519262461bcd60e51b845260048401528201527f45524331393637557067726164653a20756e737570706f727465642070726f7860448201527f6961626c655555494400000000000000000000000000000000000000000000006064820152fd5b9091508781813d83116114e7575b6114d78183611859565b810103126100a55751908961131f565b503d6114cd565b606485601e896040519262461bcd60e51b845260048401528201527f4d6f64756c65426173653a2063616c6c6572206973206e6f7420636f726500006044820152fd5b346100a5576020806003193601126100a55761154b61181a565b73ffffffffffffffffffffffffffffffffffffffff91827f00000000000000000000000000000000000000000000000000000000000000001692611591843014156118d4565b6115c07f360894a13ba1a3210667c828492db98dca3e2076cc3735a920a3ca505d382bbc948286541614611945565b807fe0c154d538f20c8d1aadcd299210daa7f0a434a5bf4a39795668b28b61ec6e96541633036117d657604051938285019185831067ffffffffffffffff84111761088557826040526000865260ff7f4910fdfa16fed3260ed0e7147f7cc6da11a60208b5b9406d12a635614ffd9143541660001461164757505050506101f291506119b6565b84939416906040517f52d1902d0000000000000000000000000000000000000000000000000000000081528581600481865afa600091816117a7575b506116f2576084866040519062461bcd60e51b82526004820152602e60248201527f45524331393637557067726164653a206e657720696d706c656d656e7461746960448201527f6f6e206973206e6f7420555550530000000000000000000000000000000000006064820152fd5b0361173d57611700836119b6565b7fbc7cd75a20ee27fd9adebab32041f755214dbc6bffa90cc0225b39da2e5c2d3b600080a2835115801590611735576113d857005b5060006113d2565b6084846040519062461bcd60e51b82526004820152602960248201527f45524331393637557067726164653a20756e737570706f727465642070726f7860448201527f6961626c655555494400000000000000000000000000000000000000000000006064820152fd5b9091508681813d83116117cf575b6117bf8183611859565b810103126100a557519088611683565b503d6117b5565b6064826040519062461bcd60e51b82526004820152601e60248201527f4d6f64756c65426173653a2063616c6c6572206973206e6f7420636f726500006044820152fd5b6004359073ffffffffffffffffffffffffffffffffffffffff821682036100a557565b6060810190811067ffffffffffffffff82111761088557604052565b90601f7fffffffffffffffffffffffffffffffffffffffffffffffffffffffffffffffe0910116810190811067ffffffffffffffff82111761088557604052565b67ffffffffffffffff811161088557601f017fffffffffffffffffffffffffffffffffffffffffffffffffffffffffffffffe01660200190565b156118db57565b608460405162461bcd60e51b815260206004820152602c60248201527f46756e6374696f6e206d7573742062652063616c6c6564207468726f7567682060448201527f64656c656761746563616c6c00000000000000000000000000000000000000006064820152fd5b1561194c57565b608460405162461bcd60e51b815260206004820152602c60248201527f46756e6374696f6e206d7573742062652063616c6c6564207468726f7567682060448201527f6163746976652070726f787900000000000000000000000000000000000000006064820152fd5b803b15611a1e5773ffffffffffffffffffffffffffffffffffffffff7f360894a13ba1a3210667c828492db98dca3e2076cc3735a920a3ca505d382bbc91167fffffffffffffffffffffffff0000000000000000000000000000000000000000825416179055565b608460405162461bcd60e51b815260206004820152602d60248201527f455243313936373a206e657720696d706c656d656e746174696f6e206973206e60448201527f6f74206120636f6e7472616374000000000000000000000000000000000000006064820152fd5b3d15611ab3573d90611a998261189a565b91611aa76040519384611859565b82523d6000602084013e565b606090565b91929015611b195750815115611acc575090565b3b15611ad55790565b606460405162461bcd60e51b815260206004820152601d60248201527f416464726573733a2063616c6c20746f206e6f6e2d636f6e74726163740000006044820152fd5b825190915015611b2c5750805190602001fd5b6040519062461bcd60e51b825281602080600483015282519283602484015260005b848110611b8f575050507fffffffffffffffffffffffffffffffffffffffffffffffffffffffffffffffe0601f836000604480968601015201168101030190fd5b818101830151868201604401528593508201611b4e565b519073ffffffffffffffffffffffffffffffffffffffff821682036100a557565b15611bce57565b606460405162461bcd60e51b815260206004820152601f60248201527f4d6f64756c65426173653a2063616c6c6572206973206e6f74206f776e6572006044820152fd5b908160209103126100a5575173ffffffffffffffffffffffffffffffffffffffff811681036100a55790565b919082018092116108b457565b73ffffffffffffffffffffffffffffffffffffffff1690604051604081019080821067ffffffffffffffff83111761088557611cc5916040526020938482527f5361666545524332303a206c6f772d6c6576656c2063616c6c206661696c6564858301526000808587829751910182855af1611448611a88565b805191821591848315611d4a575b505050905015611ce05750565b6084906040519062461bcd60e51b82526004820152602a60248201527f5361666545524332303a204552433230206f7065726174696f6e20646964206e60448201527f6f742073756363656564000000000000000000000000000000000000000000006064820152fd5b919381809450010312611d7157820151908115158203611d6e575080388084611cd3565b80fd5b5080fd5b919082039182116108b457565b9173ffffffffffffffffffffffffffffffffffffffff604051927fa9059cbb000000000000000000000000000000000000000000000000000000006020850152166024830152604482015260448152608081019181831067ffffffffffffffff84111761088557611df592604052611c4b565b565b8115611e01570490565b7f4e487b7100000000000000000000000000000000000000000000000000000000600052601260045260246000fd5b60009081526020603581526040908183209160ff8354161561214a5773ffffffffffffffffffffffffffffffffffffffff9180837fe0c154d538f20c8d1aadcd299210daa7f0a434a5bf4a39795668b28b61ec6e9654168351928380927f68f1e99a00000000000000000000000000000000000000000000000000000000825260049586915afa9081156121065785918391899161212d575b50848651809481937fa7c1abe0000000000000000000000000000000000000000000000000000000008352165afa90811561210657859183918991612110575b50848651809481937fe2d2bfe3000000000000000000000000000000000000000000000000000000008352165afa9081156121065790829188916120e9575b50838551809781937f76671808000000000000000000000000000000000000000000000000000000008352165afa9384156120df5786946120ac575b506001850154927fffffffffffffffffffffffffffffffffffffffffffffffffffffffffffffffff948581019081116120805784101561203f575050611fc98261218d565b15928315611ff5575b505050611ff157611fee91506002600382015491015490611df7565b90565b5090565b82019250908211612013575061200a9061218d565b15388080611fd2565b8360116024927f4e487b7100000000000000000000000000000000000000000000000000000000835252fd5b60649350519162461bcd60e51b8352820152601660248201527f5061727469636c65206e6f7420636f6e6669726d6564000000000000000000006044820152fd5b6024886011867f4e487b7100000000000000000000000000000000000000000000000000000000835252fd5b9080945081813d83116120d8575b6120c48183611859565b810103126120d457519238611f84565b8580fd5b503d6120ba565b83513d88823e3d90fd5b6121009150823d841161025e576102508183611859565b38611f48565b84513d89823e3d90fd5b6121279150823d841161025e576102508183611859565b38611f09565b6121449150823d841161025e576102508183611859565b38611ec9565b60649250519062461bcd60e51b82526004820152601260248201527f5061727469636c65206e6f742076616c696400000000000000000000000000006044820152fd5b6004602073ffffffffffffffffffffffffffffffffffffffff7fe0c154d538f20c8d1aadcd299210daa7f0a434a5bf4a39795668b28b61ec6e965416604051928380927f2ed52a770000000000000000000000000000000000000000000000000000000082525afa801561026557612228575b506000908152603660205260408120818052602052600160408220541615611fee5750600190565b61223f9060203d811161025e576102508183611859565b5038612200565b9035907fffffffffffffffffffffffffffffffffffffffffffffffffffffffffffffffe1813603018212156100a5570180359067ffffffffffffffff82116100a5576020019181360383136100a557565b601f82602094937fffffffffffffffffffffffffffffffffffffffffffffffffffffffffffffffe0938186528686013760008582860101520116010190565b90357fffffffffffffffffffffffffffffffffffffffffffffffffffffffffffffffe1823603018112156100a557016020813591019167ffffffffffffffff82116100a55781360383136100a557565b7fffffffffffffffffffffffffffffffffffffffffffffffffffffffffffffffff81146108b4576001019056fea264697066735822122017e19f3af10aa26577476cdc5326f1122230684320de5f5ab4d62bc0daa21a4764736f6c63430008110033",
  "devdoc": {
    "kind": "dev",
    "methods": {
      "proxiableUUID()": {
        "details": "Implementation of the ERC1822 {proxiableUUID} function. This returns the storage slot used by the implementation. It is used to validate the implementation's compatibility when performing an upgrade. IMPORTANT: A proxy pointing at a proxiable contract should not be considered proxiable itself, because this risks bricking a proxy that upgrades to it, by delegating to itself until out of gas. Thus it is critical that this function revert if invoked through a proxy. This is guaranteed by the `notDelegated` modifier."
      },
      "upgradeTo(address)": {
        "custom:oz-upgrades-unsafe-allow-reachable": "delegatecall",
        "details": "Upgrade the implementation of the proxy to `newImplementation`. Calls {_authorizeUpgrade}. Emits an {Upgraded} event."
      },
      "upgradeToAndCall(address,bytes)": {
        "custom:oz-upgrades-unsafe-allow-reachable": "delegatecall",
        "details": "Upgrade the implementation of the proxy to `newImplementation`, and subsequently execute the function call encoded in `data`. Calls {_authorizeUpgrade}. Emits an {Upgraded} event."
      }
    },
    "version": 1
  },
  "userdoc": {
    "kind": "user",
    "methods": {},
    "version": 1
  },
  "storageLayout": {
    "storage": [
      {
        "astId": 7392,
        "contract": "contracts/deal/PaymentModule.sol:PaymentModule",
        "label": "__gap",
        "offset": 0,
        "slot": "0",
        "type": "t_array(t_uint256)50_storage"
      },
      {
        "astId": 5970,
        "contract": "contracts/deal/PaymentModule.sol:PaymentModule",
        "label": "_balance",
        "offset": 0,
        "slot": "50",
        "type": "t_uint256"
      },
      {
        "astId": 5972,
        "contract": "contracts/deal/PaymentModule.sol:PaymentModule",
        "label": "_locked",
        "offset": 0,
        "slot": "51",
        "type": "t_uint256"
      },
      {
        "astId": 5976,
        "contract": "contracts/deal/PaymentModule.sol:PaymentModule",
        "label": "_goldenParticlesCountByEpoch",
        "offset": 0,
        "slot": "52",
        "type": "t_mapping(t_uint256,t_uint256)"
      },
      {
        "astId": 5981,
        "contract": "contracts/deal/PaymentModule.sol:PaymentModule",
        "label": "_particles",
        "offset": 0,
        "slot": "53",
        "type": "t_mapping(t_bytes32,t_struct(ParticleInfo)5968_storage)"
      },
      {
        "astId": 5987,
        "contract": "contracts/deal/PaymentModule.sol:PaymentModule",
        "label": "_workersByEpoch",
        "offset": 0,
        "slot": "54",
        "type": "t_mapping(t_uint256,t_mapping(t_uint256,t_uint256))"
      },
      {
        "astId": 5992,
        "contract": "contracts/deal/PaymentModule.sol:PaymentModule",
        "label": "_paidWorkersByParticle",
        "offset": 0,
        "slot": "55",
        "type": "t_mapping(t_bytes32,t_struct(BitMap)3573_storage)"
      }
    ],
    "types": {
      "t_array(t_uint256)50_storage": {
        "base": "t_uint256",
        "encoding": "inplace",
        "label": "uint256[50]",
        "numberOfBytes": "1600"
      },
      "t_bool": {
        "encoding": "inplace",
        "label": "bool",
        "numberOfBytes": "1"
      },
      "t_bytes32": {
        "encoding": "inplace",
        "label": "bytes32",
        "numberOfBytes": "32"
      },
      "t_mapping(t_bytes32,t_struct(BitMap)3573_storage)": {
        "encoding": "mapping",
        "key": "t_bytes32",
        "label": "mapping(bytes32 => struct BitMaps.BitMap)",
        "numberOfBytes": "32",
        "value": "t_struct(BitMap)3573_storage"
      },
      "t_mapping(t_bytes32,t_struct(ParticleInfo)5968_storage)": {
        "encoding": "mapping",
        "key": "t_bytes32",
        "label": "mapping(bytes32 => struct PaymentModuleState.ParticleInfo)",
        "numberOfBytes": "32",
        "value": "t_struct(ParticleInfo)5968_storage"
      },
      "t_mapping(t_uint256,t_mapping(t_uint256,t_uint256))": {
        "encoding": "mapping",
        "key": "t_uint256",
        "label": "mapping(uint256 => mapping(uint256 => uint256))",
        "numberOfBytes": "32",
        "value": "t_mapping(t_uint256,t_uint256)"
      },
      "t_mapping(t_uint256,t_uint256)": {
        "encoding": "mapping",
        "key": "t_uint256",
        "label": "mapping(uint256 => uint256)",
        "numberOfBytes": "32",
        "value": "t_uint256"
      },
      "t_struct(BitMap)3573_storage": {
        "encoding": "inplace",
        "label": "struct BitMaps.BitMap",
        "members": [
          {
            "astId": 3572,
            "contract": "contracts/deal/PaymentModule.sol:PaymentModule",
            "label": "_data",
            "offset": 0,
            "slot": "0",
            "type": "t_mapping(t_uint256,t_uint256)"
          }
        ],
        "numberOfBytes": "32"
      },
      "t_struct(ParticleInfo)5968_storage": {
        "encoding": "inplace",
        "label": "struct PaymentModuleState.ParticleInfo",
        "members": [
          {
            "astId": 5961,
            "contract": "contracts/deal/PaymentModule.sol:PaymentModule",
            "label": "isValid",
            "offset": 0,
            "slot": "0",
            "type": "t_bool"
          },
          {
            "astId": 5963,
            "contract": "contracts/deal/PaymentModule.sol:PaymentModule",
            "label": "epoch",
            "offset": 0,
            "slot": "1",
            "type": "t_uint256"
          },
          {
            "astId": 5965,
            "contract": "contracts/deal/PaymentModule.sol:PaymentModule",
            "label": "worketsCount",
            "offset": 0,
            "slot": "2",
            "type": "t_uint256"
          },
          {
            "astId": 5967,
            "contract": "contracts/deal/PaymentModule.sol:PaymentModule",
            "label": "reward",
            "offset": 0,
            "slot": "3",
            "type": "t_uint256"
          }
        ],
        "numberOfBytes": "128"
      },
      "t_uint256": {
        "encoding": "inplace",
        "label": "uint256",
        "numberOfBytes": "32"
      }
    }
  }
}