{
  "address": "0x4635F7a97e3FA31f4025BD80B8D9D6b37aB33635",
  "abi": [
    {
      "anonymous": false,
      "inputs": [
        {
          "indexed": false,
          "internalType": "address",
          "name": "previousAdmin",
          "type": "address"
        },
        {
          "indexed": false,
          "internalType": "address",
          "name": "newAdmin",
          "type": "address"
        }
      ],
      "name": "AdminChanged",
      "type": "event"
    },
    {
      "anonymous": false,
      "inputs": [
        {
          "indexed": true,
          "internalType": "address",
          "name": "beacon",
          "type": "address"
        }
      ],
      "name": "BeaconUpgraded",
      "type": "event"
    },
    {
      "anonymous": false,
      "inputs": [
        {
          "indexed": false,
          "internalType": "address",
          "name": "owner",
          "type": "address"
        },
        {
          "indexed": false,
          "internalType": "uint256",
          "name": "amount",
          "type": "uint256"
        }
      ],
      "name": "CollateralWithdrawn",
      "type": "event"
    },
    {
      "anonymous": false,
      "inputs": [
        {
          "indexed": false,
          "internalType": "bytes32",
          "name": "id",
          "type": "bytes32"
        },
        {
          "indexed": false,
          "internalType": "address",
          "name": "owner",
          "type": "address"
        }
      ],
      "name": "PATCreated",
      "type": "event"
    },
    {
      "anonymous": false,
      "inputs": [
        {
          "indexed": false,
          "internalType": "bytes32",
          "name": "id",
          "type": "bytes32"
        }
      ],
      "name": "PATRemoved",
      "type": "event"
    },
    {
      "anonymous": false,
      "inputs": [
        {
          "indexed": true,
          "internalType": "address",
          "name": "implementation",
          "type": "address"
        }
      ],
      "name": "Upgraded",
      "type": "event"
    },
    {
      "anonymous": false,
      "inputs": [
        {
          "indexed": false,
          "internalType": "bytes32",
          "name": "patId",
          "type": "bytes32"
        },
        {
          "indexed": false,
          "internalType": "bytes32",
          "name": "workerId",
          "type": "bytes32"
        }
      ],
      "name": "WorkerRegistred",
      "type": "event"
    },
    {
      "anonymous": false,
      "inputs": [
        {
          "indexed": false,
          "internalType": "bytes32",
          "name": "patId",
          "type": "bytes32"
        }
      ],
      "name": "WorkerUnregistred",
      "type": "event"
    },
    {
      "inputs": [
        {
          "internalType": "address",
          "name": "computeProvider",
          "type": "address"
        },
        {
          "internalType": "bytes32",
          "name": "peerId",
          "type": "bytes32"
        }
      ],
      "name": "createPAT",
      "outputs": [
        {
          "internalType": "bytes32",
          "name": "",
          "type": "bytes32"
        }
      ],
      "stateMutability": "nonpayable",
      "type": "function"
    },
    {
      "inputs": [
        {
          "internalType": "bytes32",
          "name": "patId",
          "type": "bytes32"
        }
      ],
      "name": "exit",
      "outputs": [],
      "stateMutability": "nonpayable",
      "type": "function"
    },
    {
      "inputs": [
        {
          "internalType": "bytes32",
          "name": "id",
          "type": "bytes32"
        }
      ],
      "name": "getPAT",
      "outputs": [
        {
          "components": [
            {
              "internalType": "bytes32",
              "name": "id",
              "type": "bytes32"
            },
            {
              "internalType": "uint256",
              "name": "index",
              "type": "uint256"
            },
            {
              "internalType": "bytes32",
              "name": "peerId",
              "type": "bytes32"
            },
            {
              "internalType": "bytes32",
              "name": "workerId",
              "type": "bytes32"
            },
            {
              "internalType": "address",
              "name": "owner",
              "type": "address"
            },
            {
              "internalType": "uint256",
              "name": "collateral",
              "type": "uint256"
            },
            {
              "internalType": "uint256",
              "name": "created",
              "type": "uint256"
            }
          ],
          "internalType": "struct PAT",
          "name": "",
          "type": "tuple"
        }
      ],
      "stateMutability": "view",
      "type": "function"
    },
    {
      "inputs": [],
      "name": "getPATCount",
      "outputs": [
        {
          "internalType": "uint256",
          "name": "",
          "type": "uint256"
        }
      ],
      "stateMutability": "view",
      "type": "function"
    },
    {
      "inputs": [],
      "name": "getPATs",
      "outputs": [
        {
          "components": [
            {
              "internalType": "bytes32",
              "name": "id",
              "type": "bytes32"
            },
            {
              "internalType": "uint256",
              "name": "index",
              "type": "uint256"
            },
            {
              "internalType": "bytes32",
              "name": "peerId",
              "type": "bytes32"
            },
            {
              "internalType": "bytes32",
              "name": "workerId",
              "type": "bytes32"
            },
            {
              "internalType": "address",
              "name": "owner",
              "type": "address"
            },
            {
              "internalType": "uint256",
              "name": "collateral",
              "type": "uint256"
            },
            {
              "internalType": "uint256",
              "name": "created",
              "type": "uint256"
            }
          ],
          "internalType": "struct PAT[]",
          "name": "",
          "type": "tuple[]"
        }
      ],
      "stateMutability": "view",
      "type": "function"
    },
    {
      "inputs": [
        {
          "internalType": "address",
          "name": "owner",
          "type": "address"
        },
        {
          "internalType": "uint256",
          "name": "timestamp",
          "type": "uint256"
        }
      ],
      "name": "getUnlockedAmountBy",
      "outputs": [
        {
          "internalType": "uint256",
          "name": "",
          "type": "uint256"
        }
      ],
      "stateMutability": "view",
      "type": "function"
    },
    {
      "inputs": [],
      "name": "proxiableUUID",
      "outputs": [
        {
          "internalType": "bytes32",
          "name": "",
          "type": "bytes32"
        }
      ],
      "stateMutability": "view",
      "type": "function"
    },
    {
      "inputs": [
        {
          "internalType": "bytes32",
          "name": "patId",
          "type": "bytes32"
        },
        {
          "internalType": "bytes32",
          "name": "workerId",
          "type": "bytes32"
        }
      ],
      "name": "setWorker",
      "outputs": [],
      "stateMutability": "nonpayable",
      "type": "function"
    },
    {
      "inputs": [
        {
          "internalType": "address",
          "name": "newImplementation",
          "type": "address"
        }
      ],
      "name": "upgradeTo",
      "outputs": [],
      "stateMutability": "nonpayable",
      "type": "function"
    },
    {
      "inputs": [
        {
          "internalType": "address",
          "name": "newImplementation",
          "type": "address"
        },
        {
          "internalType": "bytes",
          "name": "data",
          "type": "bytes"
        }
      ],
      "name": "upgradeToAndCall",
      "outputs": [],
      "stateMutability": "payable",
      "type": "function"
    },
    {
      "inputs": [
        {
          "internalType": "address",
          "name": "owner",
          "type": "address"
        }
      ],
      "name": "withdrawCollateral",
      "outputs": [],
      "stateMutability": "nonpayable",
      "type": "function"
    }
  ],
  "transactionHash": "0xa25a034f21c7ae6f57480ecbdd73c97a2d7a4a793c7e52320114a2ca0eb5bc5a",
  "args": [],
  "numDeployments": 2,
  "solcInputHash": "ef3096b4a71488797d5c1fb8a74540e1",
  "bytecode": "0x60a0806040523461003157306080526129b3908161003782396080518181816110020152818161114401526114c10152f35b600080fdfe608060408181526004908136101561001657600080fd5b60009260e0908435821c9081630ca362631461180d575080633659cfe61461148c5780634e75f6301461146f5780634f1ef286146110b957806352d1902d14610fd75780636b0ea62714610ef1578063928d300e14610be3578063c44a916d146104e1578063cb35a1951461030a578063d5053ab01461027b5763f3b6a45d1461009f57600080fd5b34610277578360031936011261027757835484847fffffffffffffffffffffffffffffffffffffffffffffffffffffffffffffffe06100f56100e085612113565b946100ed88519687611d8e565b808652612113565b01825b8181106102565750506006805483815b6101b157505050508351938493602090818087019381885286518095528701950193905b8382106101395786860387f35b9184965082866101a1600194969884985160c080918051845260208101516020850152604081015160408501526060810151606085015273ffffffffffffffffffffffffffffffffffffffff608082015116608085015260a081015160a08501520151910152565b019601920186959492939161012c565b818598969795526008600591610241602091848352898c20878b51916101d683611d56565b805483526001808201548785015260028201548e850152600382015460608501528b82015473ffffffffffffffffffffffffffffffffffffffff1660808501529781015460a0840152015460c0820152610230828d61212b565b5261023b818c61212b565b5061216e565b938a5252858820015490819794969597610108565b60209061026697959694976120db565b8282890101520195929493956100f8565b8380fd5b5050346103065780600319360112610306577f8d9d99306df0b03f2391cff2ff94674c032cc09f3cf089db54a8b021125a054d913560243581855260056020528060038487200180546102d8575b5582519182526020820152a180f35b7fa2f1ead3b1f30f052d979d7f19d3d3668f00f45a0a23ae4588cc918c5b738f9760208651868152a16102c9565b8280fd5b505082346104de57816003193601126104de57610325611cd4565b9273ffffffffffffffffffffffffffffffffffffffff807fe0c154d538f20c8d1aadcd299210daa7f0a434a5bf4a39795668b28b61ec6e96541694845180967f68f1e99a00000000000000000000000000000000000000000000000000000000825281856020998a935afa9081156104b757839291889187916104c1575b50858851809581937fa7c1abe0000000000000000000000000000000000000000000000000000000008352165afa9182156104b75787929184918793610488575b5016855260098252858520938651809481937f9c15d1a2000000000000000000000000000000000000000000000000000000008352165afa92831561047d5792610447575b5061043961043f926024356121f6565b906127b8565b915191825250f35b91508382813d8311610476575b61045e8183611d8e565b8101031261047157905190610439610429565b600080fd5b503d610454565b8451903d90823e3d90fd5b6104a9919350843d86116104b0575b6104a18183611d8e565b8101906121ca565b91896103e4565b503d610497565b86513d87823e3d90fd5b6104d89150823d84116104b0576104a18183611d8e565b896103a3565b80fd5b82858534610bdf5782600319360112610bdf576104fc611cd4565b9260249384359373ffffffffffffffffffffffffffffffffffffffff94857fe0c154d538f20c8d1aadcd299210daa7f0a434a5bf4a39795668b28b61ec6e965416968451957f68f1e99a000000000000000000000000000000000000000000000000000000008752602097888883818d5afa9788156109c9578598610bc0575b50808554981699828a8c8a51928380927f2943dcab0000000000000000000000000000000000000000000000000000000082525afa908115610b48578791610b93575b50891015610b525787517fb53105a30000000000000000000000000000000000000000000000000000000081528a8185818f5afa908115610b48578791610b1b575b50838b8d8b51928380927fac027f970000000000000000000000000000000000000000000000000000000082525afa908115610b11578891610af4575b5089517f23b872dd000000000000000000000000000000000000000000000000000000008d82015233878201523060448201528260648201526064815260a081019167ffffffffffffffff9282811084821117610ac7578c526106a1919061221b565b89518c8101917f8bab011e0edd6a03e41f22d7bebfacfbde93a6fbd86b71db78d8af308790c29583527fffffffffffffffffffffffffffffffffffffffff000000000000000000000000868c169b60601b168c83015288605483015260548252608082019082821090821117610a9a578b52519020998a885260058c5283858b8a20015416610a5957918960068c8e948c8c6107598b998383528a8a5261074a8884205461216e565b8484528b8b528884205561216e565b9c8d82556001548015610a52575b87519761077389611d56565b8689528a8901918252808901928352606089019380855260808a0195865260a08a0196875260c08a0197438952815260058c522097518855516001880155516002870155516003860155888886019151167fffffffffffffffffffffffff0000000000000000000000000000000000000000825416179055516005840155519101556107fe8b61247e565b8951928380927f9e4b35540000000000000000000000000000000000000000000000000000000082525afa908115610a2b578691610a35575b50169286517f200d2ed200000000000000000000000000000000000000000000000000000000815289818481885afa908115610a2b5786916109fe575b5060028110156109d35715998a610944575b5050859697989594956108cb575b505050507ff9afe7870c7ad4010cedbe87273d2282bcedb40f6734c102d53059c8da187bdf9181519085825286820152a151908152f35b9091809394503b1561027757839160019183885195869485937f95bc95380000000000000000000000000000000000000000000000000000000085528401525af1801561093a5790849291610922575b8080610894565b81925061092e90611cf7565b6104de5780839161091b565b84513d84823e3d90fd5b829a50899088519b8c80927f2db311930000000000000000000000000000000000000000000000000000000082525afa9081156109c9578798999a8698979892610997575b50101598979695948a610886565b965090508986813d81116109c2575b6109b08183611d8e565b8101031261047157879551908b610989565b503d6109a6565b87513d87823e3d90fd5b83866021857f4e487b7100000000000000000000000000000000000000000000000000000000835252fd5b610a1e91508a3d8c11610a24575b610a168183611d8e565b810190612203565b8b610874565b503d610a0c565b88513d88823e3d90fd5b610a4c91508a3d8c116104b0576104a18183611d8e565b8b610837565b508d610767565b606485600f888f8e519362461bcd60e51b85528401528201527f496420616c7265616479207573656400000000000000000000000000000000006044820152fd5b876041887f4e487b7100000000000000000000000000000000000000000000000000000000600052526000fd5b886041897f4e487b7100000000000000000000000000000000000000000000000000000000600052526000fd5b610b0b91508c8d3d106104b0576104a18183611d8e565b8d61063e565b8a513d8a823e3d90fd5b90508a81813d8311610b41575b610b328183611d8e565b8101031261047157518c610601565b503d610b28565b89513d89823e3d90fd5b6064836016868d8c519362461bcd60e51b85528401528201527f54617267657420776f726b6572732072656163686564000000000000000000006044820152fd5b90508a81813d8311610bb9575b610baa8183611d8e565b8101031261047157518c6105bf565b503d610ba0565b610bd8919850893d8b116104b0576104a18183611d8e565b968a61057c565b5080fd5b505090346103065760208060031936011261027757610c00611cd4565b9073ffffffffffffffffffffffffffffffffffffffff928082857fe0c154d538f20c8d1aadcd299210daa7f0a434a5bf4a39795668b28b61ec6e9654168751928380927f68f1e99a0000000000000000000000000000000000000000000000000000000082525afa908115610eca57859184918991610ed4575b50838851809881937fa7c1abe0000000000000000000000000000000000000000000000000000000008352165afa948515610eca578795610eab575b50808416875260098352858720941685517f9c15d1a200000000000000000000000000000000000000000000000000000000815283818481855afa908115610ea1578891610e72575b50610d0d610d1391426121f6565b866127b8565b9560018201809211610e465790600185939201558651928380927fac027f970000000000000000000000000000000000000000000000000000000082525afa908115610e3c57610e19927fc30fcfbcaac9e0deffa719714eaa82396ff506a0d0d0eebe170830177288715d9692610dec928991610e1f575b5083517fa9059cbb000000000000000000000000000000000000000000000000000000009281019290925273ffffffffffffffffffffffffffffffffffffffff8616602483015260448083018890528252610de7606483611d8e565b61221b565b51928392836020909392919373ffffffffffffffffffffffffffffffffffffffff60408201951681520152565b0390a180f35b610e369150823d84116104b0576104a18183611d8e565b38610d8b565b85513d88823e3d90fd5b6024896011867f4e487b7100000000000000000000000000000000000000000000000000000000835252fd5b90508381813d8311610e9a575b610e898183611d8e565b810103126104715751610d0d610cff565b503d610e7f565b87513d8a823e3d90fd5b610ec3919550833d85116104b0576104a18183611d8e565b9338610cb6565b86513d89823e3d90fd5b610eeb9150823d84116104b0576104a18183611d8e565b38610c7a565b5092346104de5760206003193601126104de5790600681610fd593610f146120db565b508535815260056020522073ffffffffffffffffffffffffffffffffffffffff835195610f4087611d56565b825487526001830154602088015260028301548588015260038301546060880152820154166080860152600581015460a0860152015460c084015251809260c080918051845260208101516020850152604081015160408501526060810151606085015273ffffffffffffffffffffffffffffffffffffffff608082015116608085015260a081015160a08501520151910152565bf35b505091346104de57806003193601126104de575073ffffffffffffffffffffffffffffffffffffffff7f000000000000000000000000000000000000000000000000000000000000000016300361105157602082517f360894a13ba1a3210667c828492db98dca3e2076cc3735a920a3ca505d382bbc8152f35b6020608492519162461bcd60e51b8352820152603860248201527f555550535570677261646561626c653a206d757374206e6f742062652063616c60448201527f6c6564207468726f7567682064656c656761746563616c6c00000000000000006064820152fd5b82858582600319360112610bdf576110cf611cd4565b9060249384359067ffffffffffffffff821161146b573660238301121561146b5781830135916110fe83611dcf565b61110a83519182611d8e565b83815260209384820192368a8383010111611467578189928b88930186378301015273ffffffffffffffffffffffffffffffffffffffff807f0000000000000000000000000000000000000000000000000000000000000000169061117182301415611e09565b6111a07f360894a13ba1a3210667c828492db98dca3e2076cc3735a920a3ca505d382bbc928284541614611e7a565b807fe0c154d538f20c8d1aadcd299210daa7f0a434a5bf4a39795668b28b61ec6e9654163303611426577f4910fdfa16fed3260ed0e7147f7cc6da11a60208b5b9406d12a635614ffd91435460ff16156112095750505050505050611206919250611eeb565b80f35b87939496989597169086517f52d1902d00000000000000000000000000000000000000000000000000000000815288818b81865afa600091816113f7575b506112b35760848a602e8d8c8c519362461bcd60e51b85528401528201527f45524331393637557067726164653a206e657720696d706c656d656e7461746960448201527f6f6e206973206e6f7420555550530000000000000000000000000000000000006064820152fd5b999193969498929599036113905750506112cc84611eeb565b7fbc7cd75a20ee27fd9adebab32041f755214dbc6bffa90cc0225b39da2e5c2d3b600080a2815115801590611388575b611309575b505050505080f35b61137d946000927f206661696c656400000000000000000000000000000000000000000000000000837f416464726573733a206c6f772d6c6576656c2064656c65676174652063616c6c869551986113608a611d72565b60278a528901528701525190845af4611377611fbd565b91611fed565b508180808080611301565b5060016112fc565b9060296084928886519362461bcd60e51b85528401528201527f45524331393637557067726164653a20756e737570706f727465642070726f7860448201527f6961626c655555494400000000000000000000000000000000000000000000006064820152fd5b90918a82813d831161141f575b61140e8183611d8e565b810103126104de575051908c611247565b503d611404565b606487601e8c8989519362461bcd60e51b85528401528201527f4d6f64756c65426173653a2063616c6c6572206973206e6f7420636f726500006044820152fd5b8880fd5b8480fd5b848334610bdf5781600319360112610bdf57602091549051908152f35b50503461030657602080600319360112610277576114a8611cd4565b9173ffffffffffffffffffffffffffffffffffffffff807f0000000000000000000000000000000000000000000000000000000000000000166114ed81301415611e09565b61151c7f360894a13ba1a3210667c828492db98dca3e2076cc3735a920a3ca505d382bbc918383541614611e7a565b817fe0c154d538f20c8d1aadcd299210daa7f0a434a5bf4a39795668b28b61ec6e96541633036117cb578251908482019282841067ffffffffffffffff85111761179d578385528883527f4910fdfa16fed3260ed0e7147f7cc6da11a60208b5b9406d12a635614ffd91435460ff16156115a0575050505050506112069150611eeb565b8693949596169085517f52d1902d00000000000000000000000000000000000000000000000000000000815287818a81865afa6000918161176e575b50611649576084898989519162461bcd60e51b8352820152602e60248201527f45524331393637557067726164653a206e657720696d706c656d656e7461746960448201527f6f6e206973206e6f7420555550530000000000000000000000000000000000006064820152fd5b979192949795939503611706575061166084611eeb565b7fbc7cd75a20ee27fd9adebab32041f755214dbc6bffa90cc0225b39da2e5c2d3b600080a28151158015906116fe575b61169c57505050505080f35b6116f3946000927f206661696c656400000000000000000000000000000000000000000000000000837f416464726573733a206c6f772d6c6576656c2064656c65676174652063616c6c869551986113608a611d72565b503880808080611301565b506000611690565b6084908684519162461bcd60e51b8352820152602960248201527f45524331393637557067726164653a20756e737570706f727465642070726f7860448201527f6961626c655555494400000000000000000000000000000000000000000000006064820152fd5b90918982813d8311611796575b6117858183611d8e565b810103126104de57505190386115dc565b503d61177b565b6041887f4e487b71000000000000000000000000000000000000000000000000000000006000525260246000fd5b6064868585519162461bcd60e51b8352820152601e60248201527f4d6f64756c65426173653a2063616c6c6572206973206e6f7420636f726500006044820152fd5b85849186346103065760209182600319360112610277578135918285526005845285852073ffffffffffffffffffffffffffffffffffffffff9283838301541690338203611c945750611875875482895284885289892061186e815461232b565b905561232b565b93848855807fe0c154d538f20c8d1aadcd299210daa7f0a434a5bf4a39795668b28b61ec6e9654168951907f68f1e99a00000000000000000000000000000000000000000000000000000000825288828781845afa918215611bf95786918a918c94611c75575b508c51928380927f9e4b35540000000000000000000000000000000000000000000000000000000082525afa908115611bf9579083918b91611c58575b5016918a51967f200d2ed200000000000000000000000000000000000000000000000000000000885289888881875afa978815611c4e578b98611c2f575b506002881015611c03578960018099149384611b7b575b50505050611b0f575b509061199d9161198985830154612356565b8752600986526005888820910154906125fb565b8285526005845260006006878720828155828582015582600282015582600382015587848201558260058201550155600884528585208651916119df83611d3a565b838254928385520154868401928184521590811591611b05575b508015611afa575b8015611aef575b15611aad575091817f444a3a44058938b8969bdac08b1dda569100d49a708e17765e90dafd7be093319697936000935180159081611aa3575b8251918215611a9a575b15611a87575b5050519081611a74575b505083875260088552828720828155015551908152a180f35b5190885260088652838820558780611a5b565b8a526008885283868b2001558980611a51565b81600755611a4b565b8251600655611a41565b6064908689519162461bcd60e51b8352820152601260248201527f4b657920646f6573206e6f7420657869737400000000000000000000000000006044820152fd5b506007548514611a08565b506006548514611a01565b90501515896119f9565b803b15611b775787809160248b51809481937f95bc9538000000000000000000000000000000000000000000000000000000008352818a8401525af18015611b6d57156119775796611b6561199d939298611cf7565b969091611977565b89513d8a823e3d90fd5b8780fd5b9091929350878d51809581937f2db31193000000000000000000000000000000000000000000000000000000008352165afa918215611bf9578a92611bc6575b50108a80898161196e565b9091508881813d8311611bf2575b611bde8183611d8e565b81010312611bee5751908b611bbb565b8980fd5b503d611bd4565b8b513d8c823e3d90fd5b60248b6021897f4e487b7100000000000000000000000000000000000000000000000000000000835252fd5b611c479198508a3d8c11610a2457610a168183611d8e565b968c611957565b8c513d8d823e3d90fd5b611c6f91508a3d8c116104b0576104a18183611d8e565b8c611919565b611c8d919450823d84116104b0576104a18183611d8e565b928d6118dc565b80878562461bcd60e51b60649452820152601160248201527f50415420646f65736e27742065786973740000000000000000000000000000006044820152fd5b6004359073ffffffffffffffffffffffffffffffffffffffff8216820361047157565b67ffffffffffffffff8111611d0b57604052565b7f4e487b7100000000000000000000000000000000000000000000000000000000600052604160045260246000fd5b6040810190811067ffffffffffffffff821117611d0b57604052565b60e0810190811067ffffffffffffffff821117611d0b57604052565b6060810190811067ffffffffffffffff821117611d0b57604052565b90601f7fffffffffffffffffffffffffffffffffffffffffffffffffffffffffffffffe0910116810190811067ffffffffffffffff821117611d0b57604052565b67ffffffffffffffff8111611d0b57601f017fffffffffffffffffffffffffffffffffffffffffffffffffffffffffffffffe01660200190565b15611e1057565b608460405162461bcd60e51b815260206004820152602c60248201527f46756e6374696f6e206d7573742062652063616c6c6564207468726f7567682060448201527f64656c656761746563616c6c00000000000000000000000000000000000000006064820152fd5b15611e8157565b608460405162461bcd60e51b815260206004820152602c60248201527f46756e6374696f6e206d7573742062652063616c6c6564207468726f7567682060448201527f6163746976652070726f787900000000000000000000000000000000000000006064820152fd5b803b15611f535773ffffffffffffffffffffffffffffffffffffffff7f360894a13ba1a3210667c828492db98dca3e2076cc3735a920a3ca505d382bbc91167fffffffffffffffffffffffff0000000000000000000000000000000000000000825416179055565b608460405162461bcd60e51b815260206004820152602d60248201527f455243313936373a206e657720696d706c656d656e746174696f6e206973206e60448201527f6f74206120636f6e7472616374000000000000000000000000000000000000006064820152fd5b3d15611fe8573d90611fce82611dcf565b91611fdc6040519384611d8e565b82523d6000602084013e565b606090565b9192901561204e5750815115612001575090565b3b1561200a5790565b606460405162461bcd60e51b815260206004820152601d60248201527f416464726573733a2063616c6c20746f206e6f6e2d636f6e74726163740000006044820152fd5b8251909150156120615750805190602001fd5b6040519062461bcd60e51b825281602080600483015282519283602484015260005b8481106120c4575050507fffffffffffffffffffffffffffffffffffffffffffffffffffffffffffffffe0601f836000604480968601015201168101030190fd5b818101830151868201604401528593508201612083565b604051906120e882611d56565b8160c06000918281528260208201528260408201528260608201528260808201528260a08201520152565b67ffffffffffffffff8111611d0b5760051b60200190565b805182101561213f5760209160051b010190565b7f4e487b7100000000000000000000000000000000000000000000000000000000600052603260045260246000fd5b7fffffffffffffffffffffffffffffffffffffffffffffffffffffffffffffffff811461219b5760010190565b7f4e487b7100000000000000000000000000000000000000000000000000000000600052601160045260246000fd5b90816020910312610471575173ffffffffffffffffffffffffffffffffffffffff811681036104715790565b9190820391821161219b57565b90816020910312610471575160028110156104715790565b73ffffffffffffffffffffffffffffffffffffffff169061228260405161224181611d3a565b6020938482527f5361666545524332303a206c6f772d6c6576656c2063616c6c206661696c6564858301526000808587829751910182855af1611377611fbd565b805191821591848315612307575b50505090501561229d5750565b6084906040519062461bcd60e51b82526004820152602a60248201527f5361666545524332303a204552433230206f7065726174696f6e20646964206e60448201527f6f742073756363656564000000000000000000000000000000000000000000006064820152fd5b919381809450010312610bdf578201519081151582036104de575080388084612290565b801561219b577fffffffffffffffffffffffffffffffffffffffffffffffffffffffffffffffff0190565b801561243a576000818152600360205260206040822060405161237881611d3a565b6001825492838352015492839101521590811591612430575b508015612425575b801561241a575b6123d65760025480156123cb5760019160409184600255848252600360205280838320558152200155565b505080600155600255565b606460405162461bcd60e51b815260206004820152601260248201527f4b657920616c72656164792065786973747300000000000000000000000000006044820152fd5b5060025482146123a0565b506001548214612399565b9050151538612391565b606460405162461bcd60e51b815260206004820152601260248201527f4b65792063616e6e6f74206265205a45524f00000000000000000000000000006044820152fd5b801561243a57600081815260086020526020604082206040516124a081611d3a565b6001825492838352015492839101521590811591612514575b508015612509575b80156124fe575b6123d65760075480156124f35760019160409184600755848252600860205280838320558152200155565b505080600655600755565b5060075482146124c8565b5060065482146124c1565b90501515386124b9565b805482101561213f5760005260206000200190600090565b805468010000000000000000811015611d0b576125589160018201815561251e565b61259c57815160209283015190921b7fffffffffffffffffffffffffffffffffffffffffffffffffffffffff000000001663ffffffff92909216919091179055565b565b7f4e487b7100000000000000000000000000000000000000000000000000000000600052600060045260246000fd5b9190917bffffffffffffffffffffffffffffffffffffffffffffffffffffffff8080941691160191821161219b57565b63ffffffff90814216908315612767577bffffffffffffffffffffffffffffffffffffffffffffffffffffffff938481116127235784169381546126436001840154826121f6565b15612701577fffffffffffffffffffffffffffffffffffffffffffffffffffffffffffffffff810190811161219b5761267c908361251e565b5080549094811684036126d2575050505061269e61259a92825460201c6125cb565b63ffffffff7fffffffffffffffffffffffffffffffffffffffffffffffffffffffff0000000083549260201b169116179055565b6126e791929394509461259a9560201c6125cb565b604051936126f485611d3a565b8452166020830152612536565b505090915061259a926040519261271784611d3a565b83526020830152612536565b606460405162461bcd60e51b815260206004820152601160248201527f416d6f756e7420697320746f6f206269670000000000000000000000000000006044820152fd5b606460405162461bcd60e51b815260206004820152601460248201527f416d6f756e742063616e2774206265207a65726f0000000000000000000000006044820152fd5b9190820180921161219b57565b91909180546001820154906127cd82826121f6565b1561284b577fffffffffffffffffffffffffffffffffffffffffffffffffffffffffffffffff9485820191821161219b5761280991838561288f565b9290925460201c948261281e575b5050509190565b829395920192831161219b57612842926128379161251e565b505460201c906121f6565b91388080612817565b606460405162461bcd60e51b815260206004820152601160248201527f526571756573747320697320656d7074790000000000000000000000000000006044820152fd5b909392909161289e81866127ab565b90600191821c936128af858261251e565b50965b8281036128c25750505050509190565b875463ffffffff168581036128db575050505050509190565b859850959294909193951060001461294a575083810180911161291c57925b61290483856127ab565b811c93612911858461251e565b5096939192906128b2565b602460007f4e487b710000000000000000000000000000000000000000000000000000000081526011600452fd5b9392507fffffffffffffffffffffffffffffffffffffffffffffffffffffffffffffffff810190811161291c57916128fa56fea2646970667358221220d3a586f502906fa39f615255a31a021a8a8b4d8b922569cc2df6e4cb6af6714864736f6c63430008130033",
  "devdoc": {
    "events": {
      "AdminChanged(address,address)": {
        "details": "Emitted when the admin account has changed."
      },
      "BeaconUpgraded(address)": {
        "details": "Emitted when the beacon is changed."
      },
      "Upgraded(address)": {
        "details": "Emitted when the implementation is upgraded."
      }
    },
    "kind": "dev",
    "methods": {
      "proxiableUUID()": {
        "details": "Implementation of the ERC1822 {proxiableUUID} function. This returns the storage slot used by the implementation. It is used to validate the implementation's compatibility when performing an upgrade. IMPORTANT: A proxy pointing at a proxiable contract should not be considered proxiable itself, because this risks bricking a proxy that upgrades to it, by delegating to itself until out of gas. Thus it is critical that this function revert if invoked through a proxy. This is guaranteed by the `notDelegated` modifier."
      },
      "upgradeTo(address)": {
        "custom:oz-upgrades-unsafe-allow-reachable": "delegatecall",
        "details": "Upgrade the implementation of the proxy to `newImplementation`. Calls {_authorizeUpgrade}. Emits an {Upgraded} event."
      },
      "upgradeToAndCall(address,bytes)": {
        "custom:oz-upgrades-unsafe-allow-reachable": "delegatecall",
        "details": "Upgrade the implementation of the proxy to `newImplementation`, and subsequently execute the function call encoded in `data`. Calls {_authorizeUpgrade}. Emits an {Upgraded} event."
      }
    },
    "version": 1
  },
  "userdoc": {
    "kind": "user",
    "methods": {},
    "version": 1
  },
  "storageLayout": {
    "storage": [
      {
        "astId": 4167,
        "contract": "contracts/deal/WorkersModule.sol:WorkersModule",
        "label": "_patCount",
        "offset": 0,
        "slot": "0",
        "type": "t_uint256"
      },
      {
        "astId": 4170,
        "contract": "contracts/deal/WorkersModule.sol:WorkersModule",
        "label": "_freeIndexes",
        "offset": 0,
        "slot": "1",
        "type": "t_struct(Bytes32List)7260_storage"
      },
      {
        "astId": 4175,
        "contract": "contracts/deal/WorkersModule.sol:WorkersModule",
        "label": "_ownersInfo",
        "offset": 0,
        "slot": "4",
        "type": "t_mapping(t_address,t_struct(OwnerInfo)4134_storage)"
      },
      {
        "astId": 4180,
        "contract": "contracts/deal/WorkersModule.sol:WorkersModule",
        "label": "_patById",
        "offset": 0,
        "slot": "5",
        "type": "t_mapping(t_bytes32,t_struct(PAT)5196_storage)"
      },
      {
        "astId": 4183,
        "contract": "contracts/deal/WorkersModule.sol:WorkersModule",
        "label": "_patsIdsList",
        "offset": 0,
        "slot": "6",
        "type": "t_struct(Bytes32List)7260_storage"
      },
      {
        "astId": 4188,
        "contract": "contracts/deal/WorkersModule.sol:WorkersModule",
        "label": "_withdrawRequests",
        "offset": 0,
        "slot": "9",
        "type": "t_mapping(t_address,t_struct(Requests)7567_storage)"
      },
      {
        "astId": 4846,
        "contract": "contracts/deal/WorkersModule.sol:WorkersModule",
        "label": "__gap",
        "offset": 0,
        "slot": "10",
        "type": "t_array(t_uint256)50_storage"
      }
    ],
    "types": {
      "t_address": {
        "encoding": "inplace",
        "label": "address",
        "numberOfBytes": "20"
      },
      "t_array(t_struct(Request)7572_storage)dyn_storage": {
        "base": "t_struct(Request)7572_storage",
        "encoding": "dynamic_array",
        "label": "struct WithdrawRequests.Request[]",
        "numberOfBytes": "32"
      },
      "t_array(t_uint256)50_storage": {
        "base": "t_uint256",
        "encoding": "inplace",
        "label": "uint256[50]",
        "numberOfBytes": "1600"
      },
      "t_bytes32": {
        "encoding": "inplace",
        "label": "bytes32",
        "numberOfBytes": "32"
      },
      "t_mapping(t_address,t_struct(OwnerInfo)4134_storage)": {
        "encoding": "mapping",
        "key": "t_address",
        "label": "mapping(address => struct WorkersModuleState.OwnerInfo)",
        "numberOfBytes": "32",
        "value": "t_struct(OwnerInfo)4134_storage"
      },
      "t_mapping(t_address,t_struct(Requests)7567_storage)": {
        "encoding": "mapping",
        "key": "t_address",
        "label": "mapping(address => struct WithdrawRequests.Requests)",
        "numberOfBytes": "32",
        "value": "t_struct(Requests)7567_storage"
      },
      "t_mapping(t_bytes32,t_struct(Element)7250_storage)": {
        "encoding": "mapping",
        "key": "t_bytes32",
        "label": "mapping(bytes32 => struct LinkedList.Element)",
        "numberOfBytes": "32",
        "value": "t_struct(Element)7250_storage"
      },
      "t_mapping(t_bytes32,t_struct(PAT)5196_storage)": {
        "encoding": "mapping",
        "key": "t_bytes32",
        "label": "mapping(bytes32 => struct PAT)",
        "numberOfBytes": "32",
        "value": "t_struct(PAT)5196_storage"
      },
      "t_struct(Bytes32List)7260_storage": {
        "encoding": "inplace",
        "label": "struct LinkedList.Bytes32List",
        "members": [
          {
            "astId": 7252,
            "contract": "contracts/deal/WorkersModule.sol:WorkersModule",
            "label": "_first",
            "offset": 0,
            "slot": "0",
            "type": "t_bytes32"
          },
          {
            "astId": 7254,
            "contract": "contracts/deal/WorkersModule.sol:WorkersModule",
            "label": "_last",
            "offset": 0,
            "slot": "1",
            "type": "t_bytes32"
          },
          {
            "astId": 7259,
            "contract": "contracts/deal/WorkersModule.sol:WorkersModule",
            "label": "_elements",
            "offset": 0,
            "slot": "2",
            "type": "t_mapping(t_bytes32,t_struct(Element)7250_storage)"
          }
        ],
        "numberOfBytes": "96"
      },
      "t_struct(Element)7250_storage": {
        "encoding": "inplace",
        "label": "struct LinkedList.Element",
        "members": [
          {
            "astId": 7247,
            "contract": "contracts/deal/WorkersModule.sol:WorkersModule",
            "label": "prev",
            "offset": 0,
            "slot": "0",
            "type": "t_bytes32"
          },
          {
            "astId": 7249,
            "contract": "contracts/deal/WorkersModule.sol:WorkersModule",
            "label": "next",
            "offset": 0,
            "slot": "1",
            "type": "t_bytes32"
          }
        ],
        "numberOfBytes": "64"
      },
      "t_struct(OwnerInfo)4134_storage": {
        "encoding": "inplace",
        "label": "struct WorkersModuleState.OwnerInfo",
        "members": [
          {
            "astId": 4130,
            "contract": "contracts/deal/WorkersModule.sol:WorkersModule",
            "label": "patCount",
            "offset": 0,
            "slot": "0",
            "type": "t_uint256"
          },
          {
            "astId": 4133,
            "contract": "contracts/deal/WorkersModule.sol:WorkersModule",
            "label": "patsIds",
            "offset": 0,
            "slot": "1",
            "type": "t_struct(Bytes32List)7260_storage"
          }
        ],
        "numberOfBytes": "128"
      },
      "t_struct(PAT)5196_storage": {
        "encoding": "inplace",
        "label": "struct PAT",
        "members": [
          {
            "astId": 5183,
            "contract": "contracts/deal/WorkersModule.sol:WorkersModule",
            "label": "id",
            "offset": 0,
            "slot": "0",
            "type": "t_bytes32"
          },
          {
            "astId": 5185,
            "contract": "contracts/deal/WorkersModule.sol:WorkersModule",
            "label": "index",
            "offset": 0,
            "slot": "1",
            "type": "t_uint256"
          },
          {
            "astId": 5187,
            "contract": "contracts/deal/WorkersModule.sol:WorkersModule",
            "label": "peerId",
            "offset": 0,
            "slot": "2",
            "type": "t_bytes32"
          },
          {
            "astId": 5189,
            "contract": "contracts/deal/WorkersModule.sol:WorkersModule",
            "label": "workerId",
            "offset": 0,
            "slot": "3",
            "type": "t_bytes32"
          },
          {
            "astId": 5191,
            "contract": "contracts/deal/WorkersModule.sol:WorkersModule",
            "label": "owner",
            "offset": 0,
            "slot": "4",
            "type": "t_address"
          },
          {
            "astId": 5193,
            "contract": "contracts/deal/WorkersModule.sol:WorkersModule",
            "label": "collateral",
            "offset": 0,
            "slot": "5",
            "type": "t_uint256"
          },
          {
            "astId": 5195,
            "contract": "contracts/deal/WorkersModule.sol:WorkersModule",
            "label": "created",
            "offset": 0,
            "slot": "6",
            "type": "t_uint256"
          }
        ],
        "numberOfBytes": "224"
      },
      "t_struct(Request)7572_storage": {
        "encoding": "inplace",
        "label": "struct WithdrawRequests.Request",
        "members": [
          {
            "astId": 7569,
            "contract": "contracts/deal/WorkersModule.sol:WorkersModule",
            "label": "_createTimestamp",
            "offset": 0,
            "slot": "0",
            "type": "t_uint32"
          },
          {
            "astId": 7571,
            "contract": "contracts/deal/WorkersModule.sol:WorkersModule",
            "label": "_cumulative",
            "offset": 4,
            "slot": "0",
            "type": "t_uint224"
          }
        ],
        "numberOfBytes": "32"
      },
      "t_struct(Requests)7567_storage": {
        "encoding": "inplace",
        "label": "struct WithdrawRequests.Requests",
        "members": [
          {
            "astId": 7564,
            "contract": "contracts/deal/WorkersModule.sol:WorkersModule",
            "label": "_requests",
            "offset": 0,
            "slot": "0",
            "type": "t_array(t_struct(Request)7572_storage)dyn_storage"
          },
          {
            "astId": 7566,
            "contract": "contracts/deal/WorkersModule.sol:WorkersModule",
            "label": "_indexOffset",
            "offset": 0,
            "slot": "1",
            "type": "t_uint256"
          }
        ],
        "numberOfBytes": "64"
      },
      "t_uint224": {
        "encoding": "inplace",
        "label": "uint224",
        "numberOfBytes": "28"
      },
      "t_uint256": {
        "encoding": "inplace",
        "label": "uint256",
        "numberOfBytes": "32"
      },
      "t_uint32": {
        "encoding": "inplace",
        "label": "uint32",
        "numberOfBytes": "4"
      }
    }
  }
}