{
    "address": "0x1F0e0ECC6D20504C3De48A0CCd3679aD85A7DaA0",
    "abi": [
        {
            "anonymous": false,
            "inputs": [
                {
                    "indexed": false,
                    "internalType": "address",
                    "name": "previousAdmin",
                    "type": "address"
                },
                {
                    "indexed": false,
                    "internalType": "address",
                    "name": "newAdmin",
                    "type": "address"
                }
            ],
            "name": "AdminChanged",
            "type": "event"
        },
        {
            "anonymous": false,
            "inputs": [
                {
                    "indexed": true,
                    "internalType": "address",
                    "name": "beacon",
                    "type": "address"
                }
            ],
            "name": "BeaconUpgraded",
            "type": "event"
        },
        {
            "anonymous": false,
            "inputs": [
                {
                    "indexed": false,
                    "internalType": "address",
                    "name": "owner",
                    "type": "address"
                },
                {
                    "indexed": false,
                    "internalType": "uint256",
                    "name": "amount",
                    "type": "uint256"
                }
            ],
            "name": "CollateralWithdrawn",
            "type": "event"
        },
        {
            "anonymous": false,
            "inputs": [
                {
                    "indexed": false,
                    "internalType": "bytes32",
                    "name": "id",
                    "type": "bytes32"
                },
                {
                    "indexed": false,
                    "internalType": "address",
                    "name": "owner",
                    "type": "address"
                }
            ],
            "name": "PATCreated",
            "type": "event"
        },
        {
            "anonymous": false,
            "inputs": [
                {
                    "indexed": false,
                    "internalType": "bytes32",
                    "name": "id",
                    "type": "bytes32"
                }
            ],
            "name": "PATRemoved",
            "type": "event"
        },
        {
            "anonymous": false,
            "inputs": [
                {
                    "indexed": true,
                    "internalType": "address",
                    "name": "implementation",
                    "type": "address"
                }
            ],
            "name": "Upgraded",
            "type": "event"
        },
        {
            "anonymous": false,
            "inputs": [
                {
                    "indexed": false,
                    "internalType": "bytes32",
                    "name": "patId",
                    "type": "bytes32"
                },
                {
                    "indexed": false,
                    "internalType": "bytes32",
                    "name": "workerId",
                    "type": "bytes32"
                }
            ],
            "name": "WorkerRegistred",
            "type": "event"
        },
        {
            "anonymous": false,
            "inputs": [
                {
                    "indexed": false,
                    "internalType": "bytes32",
                    "name": "patId",
                    "type": "bytes32"
                }
            ],
            "name": "WorkerUnregistred",
            "type": "event"
        },
        {
            "inputs": [
                {
                    "internalType": "address",
                    "name": "computeProvider",
                    "type": "address"
                },
                {
                    "internalType": "bytes32",
                    "name": "peerId",
                    "type": "bytes32"
                }
            ],
            "name": "createPAT",
            "outputs": [],
            "stateMutability": "nonpayable",
            "type": "function"
        },
        {
            "inputs": [
                {
                    "internalType": "bytes32",
                    "name": "patId",
                    "type": "bytes32"
                }
            ],
            "name": "exit",
            "outputs": [],
            "stateMutability": "nonpayable",
            "type": "function"
        },
        {
            "inputs": [
                {
                    "internalType": "bytes32",
                    "name": "id",
                    "type": "bytes32"
                }
            ],
            "name": "getPAT",
            "outputs": [
                {
                    "components": [
                        {
                            "internalType": "bytes32",
                            "name": "id",
                            "type": "bytes32"
                        },
                        {
                            "internalType": "uint256",
                            "name": "index",
                            "type": "uint256"
                        },
                        {
                            "internalType": "bytes32",
                            "name": "peerId",
                            "type": "bytes32"
                        },
                        {
                            "internalType": "bytes32",
                            "name": "workerId",
                            "type": "bytes32"
                        },
                        {
                            "internalType": "address",
                            "name": "owner",
                            "type": "address"
                        },
                        {
                            "internalType": "uint256",
                            "name": "collateral",
                            "type": "uint256"
                        },
                        {
                            "internalType": "uint256",
                            "name": "created",
                            "type": "uint256"
                        }
                    ],
                    "internalType": "struct PAT",
                    "name": "",
                    "type": "tuple"
                }
            ],
            "stateMutability": "view",
            "type": "function"
        },
        {
            "inputs": [],
            "name": "getPATCount",
            "outputs": [
                {
                    "internalType": "uint256",
                    "name": "",
                    "type": "uint256"
                }
            ],
            "stateMutability": "view",
            "type": "function"
        },
        {
            "inputs": [],
            "name": "getPATs",
            "outputs": [
                {
                    "components": [
                        {
                            "internalType": "bytes32",
                            "name": "id",
                            "type": "bytes32"
                        },
                        {
                            "internalType": "uint256",
                            "name": "index",
                            "type": "uint256"
                        },
                        {
                            "internalType": "bytes32",
                            "name": "peerId",
                            "type": "bytes32"
                        },
                        {
                            "internalType": "bytes32",
                            "name": "workerId",
                            "type": "bytes32"
                        },
                        {
                            "internalType": "address",
                            "name": "owner",
                            "type": "address"
                        },
                        {
                            "internalType": "uint256",
                            "name": "collateral",
                            "type": "uint256"
                        },
                        {
                            "internalType": "uint256",
                            "name": "created",
                            "type": "uint256"
                        }
                    ],
                    "internalType": "struct PAT[]",
                    "name": "",
                    "type": "tuple[]"
                }
            ],
            "stateMutability": "view",
            "type": "function"
        },
        {
            "inputs": [
                {
                    "internalType": "address",
                    "name": "owner",
                    "type": "address"
                },
                {
                    "internalType": "uint256",
                    "name": "timestamp",
                    "type": "uint256"
                }
            ],
            "name": "getUnlockedAmountBy",
            "outputs": [
                {
                    "internalType": "uint256",
                    "name": "",
                    "type": "uint256"
                }
            ],
            "stateMutability": "view",
            "type": "function"
        },
        {
            "inputs": [],
            "name": "proxiableUUID",
            "outputs": [
                {
                    "internalType": "bytes32",
                    "name": "",
                    "type": "bytes32"
                }
            ],
            "stateMutability": "view",
            "type": "function"
        },
        {
            "inputs": [
                {
                    "internalType": "bytes32",
                    "name": "patId",
                    "type": "bytes32"
                },
                {
                    "internalType": "bytes32",
                    "name": "workerId",
                    "type": "bytes32"
                }
            ],
            "name": "setWorker",
            "outputs": [],
            "stateMutability": "nonpayable",
            "type": "function"
        },
        {
            "inputs": [
                {
                    "internalType": "address",
                    "name": "newImplementation",
                    "type": "address"
                }
            ],
            "name": "upgradeTo",
            "outputs": [],
            "stateMutability": "nonpayable",
            "type": "function"
        },
        {
            "inputs": [
                {
                    "internalType": "address",
                    "name": "newImplementation",
                    "type": "address"
                },
                {
                    "internalType": "bytes",
                    "name": "data",
                    "type": "bytes"
                }
            ],
            "name": "upgradeToAndCall",
            "outputs": [],
            "stateMutability": "payable",
            "type": "function"
        },
        {
            "inputs": [
                {
                    "internalType": "address",
                    "name": "owner",
                    "type": "address"
                }
            ],
            "name": "withdrawCollateral",
            "outputs": [],
            "stateMutability": "nonpayable",
            "type": "function"
        }
    ],
    "transactionHash": "0xad71b1d38dd65445d087d7e6d1ba2c498c02f9bd03a6e1433ddd0e3816106044",
    "args": [],
    "numDeployments": 1,
    "solcInputHash": "9aa805292f646e79c2fd4915f738aa67",
    "bytecode": "0x60a080604052346100315730608052612a0590816100378239608051818181611060015281816111a2015261151b0152f35b600080fdfe608060408181526004908136101561001657600080fd5b60009260e0908435821c9081630ca3626314611867575080633659cfe6146114e65780634e75f630146114c95780634f1ef2861461111757806352d1902d146110355780636b0ea62714610f4f578063928d300e14610c41578063c44a916d146104e1578063cb35a1951461030a578063d5053ab01461027b5763f3b6a45d1461009f57600080fd5b34610277578360031936011261027757835484847fffffffffffffffffffffffffffffffffffffffffffffffffffffffffffffffe06100f56100e085612167565b946100ed88519687611de2565b808652612167565b01825b8181106102565750506006805483815b6101b157505050508351938493602090818087019381885286518095528701950193905b8382106101395786860387f35b9184965082866101a1600194969884985160c080918051845260208101516020850152604081015160408501526060810151606085015273ffffffffffffffffffffffffffffffffffffffff608082015116608085015260a081015160a08501520151910152565b019601920186959492939161012c565b818598969795526008600591610241602091848352898c20878b51916101d683611d8e565b805483526001808201548785015260028201548e850152600382015460608501528b82015473ffffffffffffffffffffffffffffffffffffffff1660808501529781015460a0840152015460c0820152610230828d61217f565b5261023b818c61217f565b506121c2565b938a5252858820015490819794969597610108565b602090610266979596949761212f565b8282890101520195929493956100f8565b8380fd5b5050346103065780600319360112610306577f8d9d99306df0b03f2391cff2ff94674c032cc09f3cf089db54a8b021125a054d913560243581855260056020528060038487200180546102d8575b5582519182526020820152a180f35b7fa2f1ead3b1f30f052d979d7f19d3d3668f00f45a0a23ae4588cc918c5b738f9760208651868152a16102c9565b8280fd5b505082346104de57816003193601126104de57610325611d0c565b9273ffffffffffffffffffffffffffffffffffffffff807fe0c154d538f20c8d1aadcd299210daa7f0a434a5bf4a39795668b28b61ec6e96541694845180967f68f1e99a00000000000000000000000000000000000000000000000000000000825281856020998a935afa9081156104b757839291889187916104c1575b50858851809581937fa7c1abe0000000000000000000000000000000000000000000000000000000008352165afa9182156104b75787929184918793610488575b5016855260098252858520938651809481937f9c15d1a2000000000000000000000000000000000000000000000000000000008352165afa92831561047d5792610447575b5061043961043f9260243561224a565b9061280a565b915191825250f35b91508382813d8311610476575b61045e8183611de2565b8101031261047157905190610439610429565b600080fd5b503d610454565b8451903d90823e3d90fd5b6104a9919350843d86116104b0575b6104a18183611de2565b81019061221e565b91896103e4565b503d610497565b86513d87823e3d90fd5b6104d89150823d84116104b0576104a18183611de2565b896103a3565b80fd5b83858434610c3d5780600319360112610c3d576104fc611d0c565b90602491823573ffffffffffffffffffffffffffffffffffffffff93847fe0c154d538f20c8d1aadcd299210daa7f0a434a5bf4a39795668b28b61ec6e965416968451977f68f1e99a000000000000000000000000000000000000000000000000000000008952602096878a8481855afa998a15610c3357899a610c14575b508089549a169187517f2943dcab00000000000000000000000000000000000000000000000000000000815289818681875afa908115610a55578b91610be7575b508b1015610ba65781871696878b52848a52888b20549b89517f8a0c725b0000000000000000000000000000000000000000000000000000000081528b818881895afa908115610b9c578d91610b6f575b508d1015610b2f578b9c8a51927fb53105a30000000000000000000000000000000000000000000000000000000084528c8489818a5afa938415610b23578e94610af1575b508b517fac027f970000000000000000000000000000000000000000000000000000000081528d818a818b5afa908115610ae5579c8e9f819f9e938f8e8d958f8d988692610ac6575b508651908482017f23b872dd00000000000000000000000000000000000000000000000000000000905233908201523060448201528b6064820152606481526106e381611dc6565b6106ec9161226f565b8451918201927f8bab011e0edd6a03e41f22d7bebfacfbde93a6fbd86b71db78d8af308790c295845260601b7fffffffffffffffffffffffffffffffffffffffff000000000000000000000000168583015260548201528660748201526074815261075681611dc6565b5190209e8f82526005905220015416610a845760068b8f948f958f94906107938f92976107848e9b996121c2565b8484528b8b52888420556121c2565b9d8e808355600154908115610a7c575b508751976107b089611d8e565b8689528a8901918252808901928352606089019380855260808a0195865260a08a0196875260c08a0197438952815260058c522097518855516001880155516002870155516003860155888886019151167fffffffffffffffffffffffff00000000000000000000000000000000000000008254161790555160058401555191015561083b8a6124d1565b8a51928380927f9e4b35540000000000000000000000000000000000000000000000000000000082525afa908115610a55578b91610a5f575b50169387517f200d2ed200000000000000000000000000000000000000000000000000000000815289818581895afa908115610a55578b91610a28575b5060028110156109fd57928092918a8c979695159384610977575b50505050610907575b505050507ff9afe7870c7ad4010cedbe87273d2282bcedb40f6734c102d53059c8da187bdf938351928352820152a180f35b823b1561027757839160019183895195869485937f95bc95380000000000000000000000000000000000000000000000000000000085528401525af1801561096d57610955575b80806108d5565b61095e90611d2f565b61096957848661094e565b8480fd5b85513d84823e3d90fd5b90919293508a51938480927f2db311930000000000000000000000000000000000000000000000000000000082525afa9182156109f35786926109c1575b501015818b8a816108cc565b955090508885813d81116109ec575b6109da8183611de2565b8101031261047157899451908b6109b5565b503d6109d0565b89513d88823e3d90fd5b848b6021867f4e487b7100000000000000000000000000000000000000000000000000000000835252fd5b610a4891508a3d8c11610a4e575b610a408183611de2565b810190612257565b8b6108b1565b503d610a36565b89513d8d823e3d90fd5b610a7691508a3d8c116104b0576104a18183611de2565b8b610874565b90508f6107a3565b50606486600f898f8f519362461bcd60e51b85528401528201527f496420616c7265616479207573656400000000000000000000000000000000006044820152fd5b610ade919250843d86116104b0576104a18183611de2565b903861069b565b8f8e51903d90823e3d90fd5b9d5092508b8d813d8111610b1c575b610b0a8183611de2565b81010312610471578d9c51928f610652565b503d610b00565b8e8d51903d90823e3d90fd5b6064868c89818e519362461bcd60e51b85528401528201527f4d617820776f726b657273207065722070726f766964657220726561636865646044820152fd5b90508b81813d8311610b95575b610b868183611de2565b8101031261047157518e61060d565b503d610b7c565b8b513d8f823e3d90fd5b6064846016878c8c519362461bcd60e51b85528401528201527f54617267657420776f726b6572732072656163686564000000000000000000006044820152fd5b90508981813d8311610c0d575b610bfe8183611de2565b8101031261047157518c6105bc565b503d610bf4565b610c2c919a50883d8a116104b0576104a18183611de2565b988a61057b565b87513d8b823e3d90fd5b5080fd5b505090346103065760208060031936011261027757610c5e611d0c565b9073ffffffffffffffffffffffffffffffffffffffff928082857fe0c154d538f20c8d1aadcd299210daa7f0a434a5bf4a39795668b28b61ec6e9654168751928380927f68f1e99a0000000000000000000000000000000000000000000000000000000082525afa908115610f2857859184918991610f32575b50838851809881937fa7c1abe0000000000000000000000000000000000000000000000000000000008352165afa948515610f28578795610f09575b50808416875260098352858720941685517f9c15d1a200000000000000000000000000000000000000000000000000000000815283818481855afa908115610eff578891610ed0575b50610d6b610d71914261224a565b8661280a565b9560018201809211610ea45790600185939201558651928380927fac027f970000000000000000000000000000000000000000000000000000000082525afa908115610e9a57610e77927fc30fcfbcaac9e0deffa719714eaa82396ff506a0d0d0eebe170830177288715d9692610e4a928991610e7d575b5083517fa9059cbb000000000000000000000000000000000000000000000000000000009281019290925273ffffffffffffffffffffffffffffffffffffffff8616602483015260448083018890528252610e45606483611de2565b61226f565b51928392836020909392919373ffffffffffffffffffffffffffffffffffffffff60408201951681520152565b0390a180f35b610e949150823d84116104b0576104a18183611de2565b38610de9565b85513d88823e3d90fd5b6024896011867f4e487b7100000000000000000000000000000000000000000000000000000000835252fd5b90508381813d8311610ef8575b610ee78183611de2565b810103126104715751610d6b610d5d565b503d610edd565b87513d8a823e3d90fd5b610f21919550833d85116104b0576104a18183611de2565b9338610d14565b86513d89823e3d90fd5b610f499150823d84116104b0576104a18183611de2565b38610cd8565b5092346104de5760206003193601126104de579060068161103393610f7261212f565b508535815260056020522073ffffffffffffffffffffffffffffffffffffffff835195610f9e87611d8e565b825487526001830154602088015260028301548588015260038301546060880152820154166080860152600581015460a0860152015460c084015251809260c080918051845260208101516020850152604081015160408501526060810151606085015273ffffffffffffffffffffffffffffffffffffffff608082015116608085015260a081015160a08501520151910152565bf35b505091346104de57806003193601126104de575073ffffffffffffffffffffffffffffffffffffffff7f00000000000000000000000000000000000000000000000000000000000000001630036110af57602082517f360894a13ba1a3210667c828492db98dca3e2076cc3735a920a3ca505d382bbc8152f35b6020608492519162461bcd60e51b8352820152603860248201527f555550535570677261646561626c653a206d757374206e6f742062652063616c60448201527f6c6564207468726f7567682064656c656761746563616c6c00000000000000006064820152fd5b82858582600319360112610c3d5761112d611d0c565b9060249384359067ffffffffffffffff8211610969573660238301121561096957818301359161115c83611e23565b61116883519182611de2565b83815260209384820192368a83830101116114c5578189928b88930186378301015273ffffffffffffffffffffffffffffffffffffffff807f000000000000000000000000000000000000000000000000000000000000000016906111cf82301415611e5d565b6111fe7f360894a13ba1a3210667c828492db98dca3e2076cc3735a920a3ca505d382bbc928284541614611ece565b807fe0c154d538f20c8d1aadcd299210daa7f0a434a5bf4a39795668b28b61ec6e9654163303611484577f4910fdfa16fed3260ed0e7147f7cc6da11a60208b5b9406d12a635614ffd91435460ff16156112675750505050505050611264919250611f3f565b80f35b87939496989597169086517f52d1902d00000000000000000000000000000000000000000000000000000000815288818b81865afa60009181611455575b506113115760848a602e8d8c8c519362461bcd60e51b85528401528201527f45524331393637557067726164653a206e657720696d706c656d656e7461746960448201527f6f6e206973206e6f7420555550530000000000000000000000000000000000006064820152fd5b999193969498929599036113ee57505061132a84611f3f565b7fbc7cd75a20ee27fd9adebab32041f755214dbc6bffa90cc0225b39da2e5c2d3b600080a28151158015906113e6575b611367575b505050505080f35b6113db946000927f206661696c656400000000000000000000000000000000000000000000000000837f416464726573733a206c6f772d6c6576656c2064656c65676174652063616c6c869551986113be8a611daa565b60278a528901528701525190845af46113d5612011565b91612041565b50818080808061135f565b50600161135a565b9060296084928886519362461bcd60e51b85528401528201527f45524331393637557067726164653a20756e737570706f727465642070726f7860448201527f6961626c655555494400000000000000000000000000000000000000000000006064820152fd5b90918a82813d831161147d575b61146c8183611de2565b810103126104de575051908c6112a5565b503d611462565b606487601e8c8989519362461bcd60e51b85528401528201527f4d6f64756c65426173653a2063616c6c6572206973206e6f7420636f726500006044820152fd5b8880fd5b848334610c3d5781600319360112610c3d57602091549051908152f35b5050346103065760208060031936011261027757611502611d0c565b9173ffffffffffffffffffffffffffffffffffffffff807f00000000000000000000000000000000000000000000000000000000000000001661154781301415611e5d565b6115767f360894a13ba1a3210667c828492db98dca3e2076cc3735a920a3ca505d382bbc918383541614611ece565b817fe0c154d538f20c8d1aadcd299210daa7f0a434a5bf4a39795668b28b61ec6e9654163303611825578251908482019282841067ffffffffffffffff8511176117f7578385528883527f4910fdfa16fed3260ed0e7147f7cc6da11a60208b5b9406d12a635614ffd91435460ff16156115fa575050505050506112649150611f3f565b8693949596169085517f52d1902d00000000000000000000000000000000000000000000000000000000815287818a81865afa600091816117c8575b506116a3576084898989519162461bcd60e51b8352820152602e60248201527f45524331393637557067726164653a206e657720696d706c656d656e7461746960448201527f6f6e206973206e6f7420555550530000000000000000000000000000000000006064820152fd5b97919294979593950361176057506116ba84611f3f565b7fbc7cd75a20ee27fd9adebab32041f755214dbc6bffa90cc0225b39da2e5c2d3b600080a2815115801590611758575b6116f657505050505080f35b61174d946000927f206661696c656400000000000000000000000000000000000000000000000000837f416464726573733a206c6f772d6c6576656c2064656c65676174652063616c6c869551986113be8a611daa565b50388080808061135f565b5060006116ea565b6084908684519162461bcd60e51b8352820152602960248201527f45524331393637557067726164653a20756e737570706f727465642070726f7860448201527f6961626c655555494400000000000000000000000000000000000000000000006064820152fd5b90918982813d83116117f0575b6117df8183611de2565b810103126104de5750519038611636565b503d6117d5565b6041887f4e487b71000000000000000000000000000000000000000000000000000000006000525260246000fd5b6064868585519162461bcd60e51b8352820152601e60248201527f4d6f64756c65426173653a2063616c6c6572206973206e6f7420636f726500006044820152fd5b858486346103065760209182600319360112610277578135918285526005845281852073ffffffffffffffffffffffffffffffffffffffff9687838301541690338203611ccc57506118ce87548289528488528589206118c7815461237f565b905561237f565b97888855807fe0c154d538f20c8d1aadcd299210daa7f0a434a5bf4a39795668b28b61ec6e9654168551907f68f1e99a00000000000000000000000000000000000000000000000000000000825288828781845afa918215611c315786918a918c94611cad575b508851928380927f9e4b35540000000000000000000000000000000000000000000000000000000082525afa908115611c31579083918b91611c90575b50169186519a7f200d2ed2000000000000000000000000000000000000000000000000000000008c52898c8881875afa9b8c15611c86578b9c611c67575b5060028c1015611c3b57896001809d149384611bb3575b50505050611b47575b50906119f6916119e2898301546123aa565b87526009865260058488209101549061264d565b828552600584526000600683872082815582898201558260028201558260038201558784820155826005820155015560088452818520825191611a3883611d72565b878254928385520154868401928184521590811591611b3d575b508015611b32575b8015611b27575b15611ae5575083865260088552828620600080825590880155815195967f444a3a44058938b8969bdac08b1dda569100d49a708e17765e90dafd7be0933196908115611ad957825191895284892001555b51908115611acf575190865260088452818620555b51908152a180f35b5160075550611ac7565b50508051600655611ab2565b6064908685519162461bcd60e51b8352820152601260248201527f4b657920646f6573206e6f7420657869737400000000000000000000000000006044820152fd5b506007548514611a61565b506006548514611a5a565b9050151589611a52565b803b15611baf5787809160248751809481937f95bc9538000000000000000000000000000000000000000000000000000000008352818a8401525af18015611ba557156119d05796611b9d6119f6939298611d2f565b9690916119d0565b85513d8a823e3d90fd5b8780fd5b9091929350878951809581937f2db31193000000000000000000000000000000000000000000000000000000008352165afa918215611c31578a92611bfe575b50108a8089816119c7565b9091508881813d8311611c2a575b611c168183611de2565b81010312611c265751908b611bf3565b8980fd5b503d611c0c565b87513d8c823e3d90fd5b60248b6021897f4e487b7100000000000000000000000000000000000000000000000000000000835252fd5b611c7f919c508a3d8c11610a4e57610a408183611de2565b9a8c6119b0565b88513d8d823e3d90fd5b611ca791508a3d8c116104b0576104a18183611de2565b8c611972565b611cc5919450823d84116104b0576104a18183611de2565b928d611935565b80878562461bcd60e51b60649452820152601160248201527f50415420646f65736e27742065786973740000000000000000000000000000006044820152fd5b6004359073ffffffffffffffffffffffffffffffffffffffff8216820361047157565b67ffffffffffffffff8111611d4357604052565b7f4e487b7100000000000000000000000000000000000000000000000000000000600052604160045260246000fd5b6040810190811067ffffffffffffffff821117611d4357604052565b60e0810190811067ffffffffffffffff821117611d4357604052565b6060810190811067ffffffffffffffff821117611d4357604052565b60a0810190811067ffffffffffffffff821117611d4357604052565b90601f7fffffffffffffffffffffffffffffffffffffffffffffffffffffffffffffffe0910116810190811067ffffffffffffffff821117611d4357604052565b67ffffffffffffffff8111611d4357601f017fffffffffffffffffffffffffffffffffffffffffffffffffffffffffffffffe01660200190565b15611e6457565b608460405162461bcd60e51b815260206004820152602c60248201527f46756e6374696f6e206d7573742062652063616c6c6564207468726f7567682060448201527f64656c656761746563616c6c00000000000000000000000000000000000000006064820152fd5b15611ed557565b608460405162461bcd60e51b815260206004820152602c60248201527f46756e6374696f6e206d7573742062652063616c6c6564207468726f7567682060448201527f6163746976652070726f787900000000000000000000000000000000000000006064820152fd5b803b15611fa75773ffffffffffffffffffffffffffffffffffffffff7f360894a13ba1a3210667c828492db98dca3e2076cc3735a920a3ca505d382bbc91167fffffffffffffffffffffffff0000000000000000000000000000000000000000825416179055565b608460405162461bcd60e51b815260206004820152602d60248201527f455243313936373a206e657720696d706c656d656e746174696f6e206973206e60448201527f6f74206120636f6e7472616374000000000000000000000000000000000000006064820152fd5b3d1561203c573d9061202282611e23565b916120306040519384611de2565b82523d6000602084013e565b606090565b919290156120a25750815115612055575090565b3b1561205e5790565b606460405162461bcd60e51b815260206004820152601d60248201527f416464726573733a2063616c6c20746f206e6f6e2d636f6e74726163740000006044820152fd5b8251909150156120b55750805190602001fd5b6040519062461bcd60e51b825281602080600483015282519283602484015260005b848110612118575050507fffffffffffffffffffffffffffffffffffffffffffffffffffffffffffffffe0601f836000604480968601015201168101030190fd5b8181018301518682016044015285935082016120d7565b6040519061213c82611d8e565b8160c06000918281528260208201528260408201528260608201528260808201528260a08201520152565b67ffffffffffffffff8111611d435760051b60200190565b80518210156121935760209160051b010190565b7f4e487b7100000000000000000000000000000000000000000000000000000000600052603260045260246000fd5b7fffffffffffffffffffffffffffffffffffffffffffffffffffffffffffffffff81146121ef5760010190565b7f4e487b7100000000000000000000000000000000000000000000000000000000600052601160045260246000fd5b90816020910312610471575173ffffffffffffffffffffffffffffffffffffffff811681036104715790565b919082039182116121ef57565b90816020910312610471575160028110156104715790565b73ffffffffffffffffffffffffffffffffffffffff16906122d660405161229581611d72565b6020938482527f5361666545524332303a206c6f772d6c6576656c2063616c6c206661696c6564858301526000808587829751910182855af16113d5612011565b80519182159184831561235b575b5050509050156122f15750565b6084906040519062461bcd60e51b82526004820152602a60248201527f5361666545524332303a204552433230206f7065726174696f6e20646964206e60448201527f6f742073756363656564000000000000000000000000000000000000000000006064820152fd5b919381809450010312610c3d578201519081151582036104de5750803880846122e4565b80156121ef577fffffffffffffffffffffffffffffffffffffffffffffffffffffffffffffffff0190565b600254811561248d5760009082825260036020526020604083206040516123d081611d72565b6001825492838352015492839101521590811591612483575b508015612478575b801561246f575b61242b5780156124205760019160409184600255848252600360205280838320558152200155565b505080600155600255565b606460405162461bcd60e51b815260206004820152601260248201527f4b657920616c72656164792065786973747300000000000000000000000000006044820152fd5b508083146123f8565b5060015483146123f1565b90501515386123e9565b606460405162461bcd60e51b815260206004820152601260248201527f4b65792063616e6e6f74206265205a45524f00000000000000000000000000006044820152fd5b600754811561248d5760009082825260086020526020604083206040516124f781611d72565b6001825492838352015492839101521590811591612566575b50801561255b575b8015612552575b61242b5780156125475760019160409184600755848252600860205280838320558152200155565b505080600655600755565b5080831461251f565b506006548314612518565b9050151538612510565b80548210156121935760005260206000200190600090565b805468010000000000000000811015611d43576125aa91600182018155612570565b6125ee57815160209283015190921b7fffffffffffffffffffffffffffffffffffffffffffffffffffffffff000000001663ffffffff92909216919091179055565b565b7f4e487b7100000000000000000000000000000000000000000000000000000000600052600060045260246000fd5b9190917bffffffffffffffffffffffffffffffffffffffffffffffffffffffff808094169116019182116121ef57565b63ffffffff908142169083156127b9577bffffffffffffffffffffffffffffffffffffffffffffffffffffffff9384811161277557841693815461269560018401548261224a565b15612753577fffffffffffffffffffffffffffffffffffffffffffffffffffffffffffffffff81019081116121ef576126ce9083612570565b50805490948116840361272457505050506126f06125ec92825460201c61261d565b63ffffffff7fffffffffffffffffffffffffffffffffffffffffffffffffffffffff0000000083549260201b169116179055565b6127399192939450946125ec9560201c61261d565b6040519361274685611d72565b8452166020830152612588565b50509091506125ec926040519261276984611d72565b83526020830152612588565b606460405162461bcd60e51b815260206004820152601160248201527f416d6f756e7420697320746f6f206269670000000000000000000000000000006044820152fd5b606460405162461bcd60e51b815260206004820152601460248201527f416d6f756e742063616e2774206265207a65726f0000000000000000000000006044820152fd5b919082018092116121ef57565b919091805460018201549061281f828261224a565b1561289d577fffffffffffffffffffffffffffffffffffffffffffffffffffffffffffffffff948582019182116121ef5761285b9183856128e1565b9290925460201c9482612870575b5050509190565b82939592019283116121ef576128949261288991612570565b505460201c9061224a565b91388080612869565b606460405162461bcd60e51b815260206004820152601160248201527f526571756573747320697320656d7074790000000000000000000000000000006044820152fd5b90939290916128f081866127fd565b90600191821c936129018582612570565b50965b8281036129145750505050509190565b875463ffffffff1685810361292d575050505050509190565b859850959294909193951060001461299c575083810180911161296e57925b61295683856127fd565b811c936129638584612570565b509693919290612904565b602460007f4e487b710000000000000000000000000000000000000000000000000000000081526011600452fd5b9392507fffffffffffffffffffffffffffffffffffffffffffffffffffffffffffffffff810190811161296e579161294c56fea264697066735822122064ecb0b9ab1235650eeb53f184b9f3e9db42da4c0896cc6c7c0764445ea1ceeb64736f6c63430008110033",
    "devdoc": {
        "kind": "dev",
        "methods": {
            "proxiableUUID()": {
                "details": "Implementation of the ERC1822 {proxiableUUID} function. This returns the storage slot used by the implementation. It is used to validate the implementation's compatibility when performing an upgrade. IMPORTANT: A proxy pointing at a proxiable contract should not be considered proxiable itself, because this risks bricking a proxy that upgrades to it, by delegating to itself until out of gas. Thus it is critical that this function revert if invoked through a proxy. This is guaranteed by the `notDelegated` modifier."
            },
            "upgradeTo(address)": {
                "custom:oz-upgrades-unsafe-allow-reachable": "delegatecall",
                "details": "Upgrade the implementation of the proxy to `newImplementation`. Calls {_authorizeUpgrade}. Emits an {Upgraded} event."
            },
            "upgradeToAndCall(address,bytes)": {
                "custom:oz-upgrades-unsafe-allow-reachable": "delegatecall",
                "details": "Upgrade the implementation of the proxy to `newImplementation`, and subsequently execute the function call encoded in `data`. Calls {_authorizeUpgrade}. Emits an {Upgraded} event."
            }
        },
        "version": 1
    },
    "userdoc": {
        "kind": "user",
        "methods": {},
        "version": 1
    },
    "storageLayout": {
        "storage": [
            {
                "astId": 4958,
                "contract": "contracts/deal/WorkersModule.sol:WorkersModule",
                "label": "_patCount",
                "offset": 0,
                "slot": "0",
                "type": "t_uint256"
            },
            {
                "astId": 4961,
                "contract": "contracts/deal/WorkersModule.sol:WorkersModule",
                "label": "_freeIndexes",
                "offset": 0,
                "slot": "1",
                "type": "t_struct(Bytes32List)8276_storage"
            },
            {
                "astId": 4966,
                "contract": "contracts/deal/WorkersModule.sol:WorkersModule",
                "label": "_ownersInfo",
                "offset": 0,
                "slot": "4",
                "type": "t_mapping(t_address,t_struct(OwnerInfo)4925_storage)"
            },
            {
                "astId": 4971,
                "contract": "contracts/deal/WorkersModule.sol:WorkersModule",
                "label": "_patById",
                "offset": 0,
                "slot": "5",
                "type": "t_mapping(t_bytes32,t_struct(PAT)5994_storage)"
            },
            {
                "astId": 4974,
                "contract": "contracts/deal/WorkersModule.sol:WorkersModule",
                "label": "_patsIdsList",
                "offset": 0,
                "slot": "6",
                "type": "t_struct(Bytes32List)8276_storage"
            },
            {
                "astId": 4979,
                "contract": "contracts/deal/WorkersModule.sol:WorkersModule",
                "label": "_withdrawRequests",
                "offset": 0,
                "slot": "9",
                "type": "t_mapping(t_address,t_struct(Requests)8581_storage)"
            },
            {
                "astId": 5643,
                "contract": "contracts/deal/WorkersModule.sol:WorkersModule",
                "label": "__gap",
                "offset": 0,
                "slot": "10",
                "type": "t_array(t_uint256)50_storage"
            }
        ],
        "types": {
            "t_address": {
                "encoding": "inplace",
                "label": "address",
                "numberOfBytes": "20"
            },
            "t_array(t_struct(Request)8586_storage)dyn_storage": {
                "base": "t_struct(Request)8586_storage",
                "encoding": "dynamic_array",
                "label": "struct WithdrawRequests.Request[]",
                "numberOfBytes": "32"
            },
            "t_array(t_uint256)50_storage": {
                "base": "t_uint256",
                "encoding": "inplace",
                "label": "uint256[50]",
                "numberOfBytes": "1600"
            },
            "t_bytes32": {
                "encoding": "inplace",
                "label": "bytes32",
                "numberOfBytes": "32"
            },
            "t_mapping(t_address,t_struct(OwnerInfo)4925_storage)": {
                "encoding": "mapping",
                "key": "t_address",
                "label": "mapping(address => struct WorkersModuleState.OwnerInfo)",
                "numberOfBytes": "32",
                "value": "t_struct(OwnerInfo)4925_storage"
            },
            "t_mapping(t_address,t_struct(Requests)8581_storage)": {
                "encoding": "mapping",
                "key": "t_address",
                "label": "mapping(address => struct WithdrawRequests.Requests)",
                "numberOfBytes": "32",
                "value": "t_struct(Requests)8581_storage"
            },
            "t_mapping(t_bytes32,t_struct(Element)8266_storage)": {
                "encoding": "mapping",
                "key": "t_bytes32",
                "label": "mapping(bytes32 => struct LinkedList.Element)",
                "numberOfBytes": "32",
                "value": "t_struct(Element)8266_storage"
            },
            "t_mapping(t_bytes32,t_struct(PAT)5994_storage)": {
                "encoding": "mapping",
                "key": "t_bytes32",
                "label": "mapping(bytes32 => struct PAT)",
                "numberOfBytes": "32",
                "value": "t_struct(PAT)5994_storage"
            },
            "t_struct(Bytes32List)8276_storage": {
                "encoding": "inplace",
                "label": "struct LinkedList.Bytes32List",
                "members": [
                    {
                        "astId": 8268,
                        "contract": "contracts/deal/WorkersModule.sol:WorkersModule",
                        "label": "_first",
                        "offset": 0,
                        "slot": "0",
                        "type": "t_bytes32"
                    },
                    {
                        "astId": 8270,
                        "contract": "contracts/deal/WorkersModule.sol:WorkersModule",
                        "label": "_last",
                        "offset": 0,
                        "slot": "1",
                        "type": "t_bytes32"
                    },
                    {
                        "astId": 8275,
                        "contract": "contracts/deal/WorkersModule.sol:WorkersModule",
                        "label": "_elements",
                        "offset": 0,
                        "slot": "2",
                        "type": "t_mapping(t_bytes32,t_struct(Element)8266_storage)"
                    }
                ],
                "numberOfBytes": "96"
            },
            "t_struct(Element)8266_storage": {
                "encoding": "inplace",
                "label": "struct LinkedList.Element",
                "members": [
                    {
                        "astId": 8263,
                        "contract": "contracts/deal/WorkersModule.sol:WorkersModule",
                        "label": "prev",
                        "offset": 0,
                        "slot": "0",
                        "type": "t_bytes32"
                    },
                    {
                        "astId": 8265,
                        "contract": "contracts/deal/WorkersModule.sol:WorkersModule",
                        "label": "next",
                        "offset": 0,
                        "slot": "1",
                        "type": "t_bytes32"
                    }
                ],
                "numberOfBytes": "64"
            },
            "t_struct(OwnerInfo)4925_storage": {
                "encoding": "inplace",
                "label": "struct WorkersModuleState.OwnerInfo",
                "members": [
                    {
                        "astId": 4921,
                        "contract": "contracts/deal/WorkersModule.sol:WorkersModule",
                        "label": "patCount",
                        "offset": 0,
                        "slot": "0",
                        "type": "t_uint256"
                    },
                    {
                        "astId": 4924,
                        "contract": "contracts/deal/WorkersModule.sol:WorkersModule",
                        "label": "patsIds",
                        "offset": 0,
                        "slot": "1",
                        "type": "t_struct(Bytes32List)8276_storage"
                    }
                ],
                "numberOfBytes": "128"
            },
            "t_struct(PAT)5994_storage": {
                "encoding": "inplace",
                "label": "struct PAT",
                "members": [
                    {
                        "astId": 5981,
                        "contract": "contracts/deal/WorkersModule.sol:WorkersModule",
                        "label": "id",
                        "offset": 0,
                        "slot": "0",
                        "type": "t_bytes32"
                    },
                    {
                        "astId": 5983,
                        "contract": "contracts/deal/WorkersModule.sol:WorkersModule",
                        "label": "index",
                        "offset": 0,
                        "slot": "1",
                        "type": "t_uint256"
                    },
                    {
                        "astId": 5985,
                        "contract": "contracts/deal/WorkersModule.sol:WorkersModule",
                        "label": "peerId",
                        "offset": 0,
                        "slot": "2",
                        "type": "t_bytes32"
                    },
                    {
                        "astId": 5987,
                        "contract": "contracts/deal/WorkersModule.sol:WorkersModule",
                        "label": "workerId",
                        "offset": 0,
                        "slot": "3",
                        "type": "t_bytes32"
                    },
                    {
                        "astId": 5989,
                        "contract": "contracts/deal/WorkersModule.sol:WorkersModule",
                        "label": "owner",
                        "offset": 0,
                        "slot": "4",
                        "type": "t_address"
                    },
                    {
                        "astId": 5991,
                        "contract": "contracts/deal/WorkersModule.sol:WorkersModule",
                        "label": "collateral",
                        "offset": 0,
                        "slot": "5",
                        "type": "t_uint256"
                    },
                    {
                        "astId": 5993,
                        "contract": "contracts/deal/WorkersModule.sol:WorkersModule",
                        "label": "created",
                        "offset": 0,
                        "slot": "6",
                        "type": "t_uint256"
                    }
                ],
                "numberOfBytes": "224"
            },
            "t_struct(Request)8586_storage": {
                "encoding": "inplace",
                "label": "struct WithdrawRequests.Request",
                "members": [
                    {
                        "astId": 8583,
                        "contract": "contracts/deal/WorkersModule.sol:WorkersModule",
                        "label": "_createTimestamp",
                        "offset": 0,
                        "slot": "0",
                        "type": "t_uint32"
                    },
                    {
                        "astId": 8585,
                        "contract": "contracts/deal/WorkersModule.sol:WorkersModule",
                        "label": "_cumulative",
                        "offset": 4,
                        "slot": "0",
                        "type": "t_uint224"
                    }
                ],
                "numberOfBytes": "32"
            },
            "t_struct(Requests)8581_storage": {
                "encoding": "inplace",
                "label": "struct WithdrawRequests.Requests",
                "members": [
                    {
                        "astId": 8578,
                        "contract": "contracts/deal/WorkersModule.sol:WorkersModule",
                        "label": "_requests",
                        "offset": 0,
                        "slot": "0",
                        "type": "t_array(t_struct(Request)8586_storage)dyn_storage"
                    },
                    {
                        "astId": 8580,
                        "contract": "contracts/deal/WorkersModule.sol:WorkersModule",
                        "label": "_indexOffset",
                        "offset": 0,
                        "slot": "1",
                        "type": "t_uint256"
                    }
                ],
                "numberOfBytes": "64"
            },
            "t_uint224": {
                "encoding": "inplace",
                "label": "uint224",
                "numberOfBytes": "28"
            },
            "t_uint256": {
                "encoding": "inplace",
                "label": "uint256",
                "numberOfBytes": "32"
            },
            "t_uint32": {
                "encoding": "inplace",
                "label": "uint32",
                "numberOfBytes": "4"
            }
        }
    }
}