{
  "address": "0x79EeA23C90e7D142D903833AB6F835aC06cCbAce",
  "abi": [
    {
      "inputs": [
        {
          "internalType": "contract IGlobalCore",
          "name": "globalCore_",
          "type": "address"
        }
      ],
      "stateMutability": "nonpayable",
      "type": "constructor"
    },
    {
      "inputs": [
        {
          "internalType": "address",
          "name": "owner",
          "type": "address"
        }
      ],
      "name": "OwnableInvalidOwner",
      "type": "error"
    },
    {
      "inputs": [
        {
          "internalType": "address",
          "name": "account",
          "type": "address"
        }
      ],
      "name": "OwnableUnauthorizedAccount",
      "type": "error"
    },
    {
      "anonymous": false,
      "inputs": [
        {
          "indexed": false,
          "internalType": "address",
          "name": "previousAdmin",
          "type": "address"
        },
        {
          "indexed": false,
          "internalType": "address",
          "name": "newAdmin",
          "type": "address"
        }
      ],
      "name": "AdminChanged",
      "type": "event"
    },
    {
      "anonymous": false,
      "inputs": [
        {
          "components": [
            {
              "internalType": "bytes4",
              "name": "prefixes",
              "type": "bytes4"
            },
            {
              "internalType": "bytes32",
              "name": "hash",
              "type": "bytes32"
            }
          ],
          "indexed": false,
          "internalType": "struct CIDV1",
          "name": "newAppCID",
          "type": "tuple"
        }
      ],
      "name": "AppCIDChanged",
      "type": "event"
    },
    {
      "anonymous": false,
      "inputs": [
        {
          "indexed": true,
          "internalType": "address",
          "name": "beacon",
          "type": "address"
        }
      ],
      "name": "BeaconUpgraded",
      "type": "event"
    },
    {
      "anonymous": false,
      "inputs": [
        {
          "indexed": false,
          "internalType": "address",
          "name": "owner",
          "type": "address"
        },
        {
          "indexed": false,
          "internalType": "uint256",
          "name": "amount",
          "type": "uint256"
        }
      ],
      "name": "CollateralWithdrawn",
      "type": "event"
    },
    {
      "anonymous": false,
      "inputs": [
        {
          "indexed": false,
          "internalType": "bytes32",
          "name": "id",
          "type": "bytes32"
        },
        {
          "indexed": false,
          "internalType": "address",
          "name": "owner",
          "type": "address"
        }
      ],
      "name": "ComputeUnitCreated",
      "type": "event"
    },
    {
      "anonymous": false,
      "inputs": [
        {
          "indexed": false,
          "internalType": "bytes32",
          "name": "id",
          "type": "bytes32"
        }
      ],
      "name": "ComputeUnitRemoved",
      "type": "event"
    },
    {
      "anonymous": false,
      "inputs": [
        {
          "indexed": false,
          "internalType": "uint256",
          "name": "endedEpoch",
          "type": "uint256"
        }
      ],
      "name": "DealEnded",
      "type": "event"
    },
    {
      "anonymous": false,
      "inputs": [
        {
          "indexed": false,
          "internalType": "uint256",
          "name": "amount",
          "type": "uint256"
        }
      ],
      "name": "Deposited",
      "type": "event"
    },
    {
      "anonymous": false,
      "inputs": [
        {
          "indexed": false,
          "internalType": "uint8",
          "name": "version",
          "type": "uint8"
        }
      ],
      "name": "Initialized",
      "type": "event"
    },
    {
      "anonymous": false,
      "inputs": [
        {
          "indexed": false,
          "internalType": "uint256",
          "name": "maxPaidEpoch",
          "type": "uint256"
        }
      ],
      "name": "MaxPaidEpochUpdated",
      "type": "event"
    },
    {
      "anonymous": false,
      "inputs": [
        {
          "indexed": true,
          "internalType": "address",
          "name": "previousOwner",
          "type": "address"
        },
        {
          "indexed": true,
          "internalType": "address",
          "name": "newOwner",
          "type": "address"
        }
      ],
      "name": "OwnershipTransferred",
      "type": "event"
    },
    {
      "anonymous": false,
      "inputs": [
        {
          "indexed": false,
          "internalType": "bytes32",
          "name": "computeUnitId",
          "type": "bytes32"
        },
        {
          "indexed": false,
          "internalType": "uint256",
          "name": "reward",
          "type": "uint256"
        }
      ],
      "name": "RewardWithdrawn",
      "type": "event"
    },
    {
      "anonymous": false,
      "inputs": [
        {
          "indexed": true,
          "internalType": "address",
          "name": "implementation",
          "type": "address"
        }
      ],
      "name": "Upgraded",
      "type": "event"
    },
    {
      "anonymous": false,
      "inputs": [
        {
          "indexed": false,
          "internalType": "uint256",
          "name": "amount",
          "type": "uint256"
        }
      ],
      "name": "Withdrawn",
      "type": "event"
    },
    {
      "anonymous": false,
      "inputs": [
        {
          "indexed": false,
          "internalType": "bytes32",
          "name": "computeUnitId",
          "type": "bytes32"
        },
        {
          "indexed": false,
          "internalType": "bytes32",
          "name": "workerId",
          "type": "bytes32"
        }
      ],
      "name": "WorkerIdUpdated",
      "type": "event"
    },
    {
      "inputs": [
        {
          "internalType": "bytes32",
          "name": "computeUnitId",
          "type": "bytes32"
        },
        {
          "internalType": "uint256",
          "name": "lastWorkedEpoch",
          "type": "uint256"
        }
      ],
      "name": "_removeComputeUnit",
      "outputs": [
        {
          "internalType": "uint256",
          "name": "workerCount",
          "type": "uint256"
        }
      ],
      "stateMutability": "nonpayable",
      "type": "function"
    },
    {
      "inputs": [],
      "name": "accessType",
      "outputs": [
        {
          "internalType": "enum IConfig.AccessType",
          "name": "",
          "type": "uint8"
        }
      ],
      "stateMutability": "view",
      "type": "function"
    },
    {
      "inputs": [],
      "name": "appCID",
      "outputs": [
        {
          "components": [
            {
              "internalType": "bytes4",
              "name": "prefixes",
              "type": "bytes4"
            },
            {
              "internalType": "bytes32",
              "name": "hash",
              "type": "bytes32"
            }
          ],
          "internalType": "struct CIDV1",
          "name": "",
          "type": "tuple"
        }
      ],
      "stateMutability": "view",
      "type": "function"
    },
    {
      "inputs": [
        {
          "internalType": "enum IConfig.AccessType",
          "name": "accessType_",
          "type": "uint8"
        }
      ],
      "name": "changeAccessType",
      "outputs": [],
      "stateMutability": "nonpayable",
      "type": "function"
    },
    {
      "inputs": [],
      "name": "collateralPerWorker",
      "outputs": [
        {
          "internalType": "uint256",
          "name": "",
          "type": "uint256"
        }
      ],
      "stateMutability": "view",
      "type": "function"
    },
    {
      "inputs": [
        {
          "internalType": "address",
          "name": "computeProvider",
          "type": "address"
        },
        {
          "internalType": "bytes32",
          "name": "peerId",
          "type": "bytes32"
        }
      ],
      "name": "createComputeUnit",
      "outputs": [
        {
          "internalType": "bytes32",
          "name": "",
          "type": "bytes32"
        }
      ],
      "stateMutability": "nonpayable",
      "type": "function"
    },
    {
      "inputs": [],
      "name": "creationBlock",
      "outputs": [
        {
          "internalType": "uint256",
          "name": "",
          "type": "uint256"
        }
      ],
      "stateMutability": "view",
      "type": "function"
    },
    {
      "inputs": [
        {
          "internalType": "uint256",
          "name": "amount",
          "type": "uint256"
        }
      ],
      "name": "deposit",
      "outputs": [],
      "stateMutability": "nonpayable",
      "type": "function"
    },
    {
      "inputs": [],
      "name": "effectors",
      "outputs": [
        {
          "components": [
            {
              "internalType": "bytes4",
              "name": "prefixes",
              "type": "bytes4"
            },
            {
              "internalType": "bytes32",
              "name": "hash",
              "type": "bytes32"
            }
          ],
          "internalType": "struct CIDV1[]",
          "name": "",
          "type": "tuple[]"
        }
      ],
      "stateMutability": "view",
      "type": "function"
    },
    {
      "inputs": [],
      "name": "fluenceToken",
      "outputs": [
        {
          "internalType": "contract IERC20",
          "name": "",
          "type": "address"
        }
      ],
      "stateMutability": "view",
      "type": "function"
    },
    {
      "inputs": [],
      "name": "getAccessList",
      "outputs": [
        {
          "internalType": "address[]",
          "name": "",
          "type": "address[]"
        }
      ],
      "stateMutability": "view",
      "type": "function"
    },
    {
      "inputs": [
        {
          "internalType": "bytes32",
          "name": "id",
          "type": "bytes32"
        }
      ],
      "name": "getComputeUnit",
      "outputs": [
        {
          "components": [
            {
              "internalType": "bytes32",
              "name": "id",
              "type": "bytes32"
            },
            {
              "internalType": "bytes32",
              "name": "peerId",
              "type": "bytes32"
            },
            {
              "internalType": "bytes32",
              "name": "workerId",
              "type": "bytes32"
            },
            {
              "internalType": "address",
              "name": "owner",
              "type": "address"
            },
            {
              "internalType": "uint256",
              "name": "collateral",
              "type": "uint256"
            },
            {
              "internalType": "uint256",
              "name": "created",
              "type": "uint256"
            }
          ],
          "internalType": "struct IWorkerManager.ComputeUnit",
          "name": "",
          "type": "tuple"
        }
      ],
      "stateMutability": "view",
      "type": "function"
    },
    {
      "inputs": [],
      "name": "getComputeUnitCount",
      "outputs": [
        {
          "internalType": "uint256",
          "name": "",
          "type": "uint256"
        }
      ],
      "stateMutability": "view",
      "type": "function"
    },
    {
      "inputs": [],
      "name": "getComputeUnits",
      "outputs": [
        {
          "components": [
            {
              "internalType": "bytes32",
              "name": "id",
              "type": "bytes32"
            },
            {
              "internalType": "bytes32",
              "name": "peerId",
              "type": "bytes32"
            },
            {
              "internalType": "bytes32",
              "name": "workerId",
              "type": "bytes32"
            },
            {
              "internalType": "address",
              "name": "owner",
              "type": "address"
            },
            {
              "internalType": "uint256",
              "name": "collateral",
              "type": "uint256"
            },
            {
              "internalType": "uint256",
              "name": "created",
              "type": "uint256"
            }
          ],
          "internalType": "struct IWorkerManager.ComputeUnit[]",
          "name": "",
          "type": "tuple[]"
        }
      ],
      "stateMutability": "view",
      "type": "function"
    },
    {
      "inputs": [],
      "name": "getFreeBalance",
      "outputs": [
        {
          "internalType": "uint256",
          "name": "",
          "type": "uint256"
        }
      ],
      "stateMutability": "view",
      "type": "function"
    },
    {
      "inputs": [],
      "name": "getMaxPaidEpoch",
      "outputs": [
        {
          "internalType": "uint256",
          "name": "",
          "type": "uint256"
        }
      ],
      "stateMutability": "view",
      "type": "function"
    },
    {
      "inputs": [
        {
          "internalType": "bytes32",
          "name": "computeUnitId",
          "type": "bytes32"
        }
      ],
      "name": "getRewardAmount",
      "outputs": [
        {
          "internalType": "uint256",
          "name": "",
          "type": "uint256"
        }
      ],
      "stateMutability": "view",
      "type": "function"
    },
    {
      "inputs": [],
      "name": "getStatus",
      "outputs": [
        {
          "internalType": "enum IDeal.Status",
          "name": "",
          "type": "uint8"
        }
      ],
      "stateMutability": "view",
      "type": "function"
    },
    {
      "inputs": [
        {
          "internalType": "bytes32",
          "name": "computeUnitId",
          "type": "bytes32"
        }
      ],
      "name": "getUnlockCollateralEpoch",
      "outputs": [
        {
          "internalType": "uint256",
          "name": "",
          "type": "uint256"
        }
      ],
      "stateMutability": "view",
      "type": "function"
    },
    {
      "inputs": [],
      "name": "getWorkerCount",
      "outputs": [
        {
          "internalType": "uint256",
          "name": "",
          "type": "uint256"
        }
      ],
      "stateMutability": "view",
      "type": "function"
    },
    {
      "inputs": [
        {
          "internalType": "address",
          "name": "computeProvider",
          "type": "address"
        },
        {
          "internalType": "bytes32",
          "name": "peerId",
          "type": "bytes32"
        }
      ],
      "name": "hasPeer",
      "outputs": [
        {
          "internalType": "bool",
          "name": "",
          "type": "bool"
        }
      ],
      "stateMutability": "view",
      "type": "function"
    },
    {
      "inputs": [
        {
          "components": [
            {
              "internalType": "bytes4",
              "name": "prefixes",
              "type": "bytes4"
            },
            {
              "internalType": "bytes32",
              "name": "hash",
              "type": "bytes32"
            }
          ],
          "internalType": "struct CIDV1",
          "name": "appCID_",
          "type": "tuple"
        },
        {
          "internalType": "contract IERC20",
          "name": "paymentToken_",
          "type": "address"
        },
        {
          "internalType": "uint256",
          "name": "collateralPerWorker_",
          "type": "uint256"
        },
        {
          "internalType": "uint256",
          "name": "minWorkers_",
          "type": "uint256"
        },
        {
          "internalType": "uint256",
          "name": "targetWorkers_",
          "type": "uint256"
        },
        {
          "internalType": "uint256",
          "name": "maxWorkersPerProvider_",
          "type": "uint256"
        },
        {
          "internalType": "uint256",
          "name": "pricePerWorkerEpoch_",
          "type": "uint256"
        },
        {
          "components": [
            {
              "internalType": "bytes4",
              "name": "prefixes",
              "type": "bytes4"
            },
            {
              "internalType": "bytes32",
              "name": "hash",
              "type": "bytes32"
            }
          ],
          "internalType": "struct CIDV1[]",
          "name": "effectors_",
          "type": "tuple[]"
        },
        {
          "internalType": "enum IConfig.AccessType",
          "name": "accessType_",
          "type": "uint8"
        },
        {
          "internalType": "address[]",
          "name": "accessList_",
          "type": "address[]"
        }
      ],
      "name": "initialize",
      "outputs": [],
      "stateMutability": "nonpayable",
      "type": "function"
    },
    {
      "inputs": [
        {
          "internalType": "address",
          "name": "addr",
          "type": "address"
        }
      ],
      "name": "isInAccessList",
      "outputs": [
        {
          "internalType": "bool",
          "name": "",
          "type": "bool"
        }
      ],
      "stateMutability": "view",
      "type": "function"
    },
    {
      "inputs": [],
      "name": "maxWorkersPerProvider",
      "outputs": [
        {
          "internalType": "uint256",
          "name": "",
          "type": "uint256"
        }
      ],
      "stateMutability": "view",
      "type": "function"
    },
    {
      "inputs": [],
      "name": "minWorkers",
      "outputs": [
        {
          "internalType": "uint256",
          "name": "",
          "type": "uint256"
        }
      ],
      "stateMutability": "view",
      "type": "function"
    },
    {
      "inputs": [],
      "name": "owner",
      "outputs": [
        {
          "internalType": "address",
          "name": "",
          "type": "address"
        }
      ],
      "stateMutability": "view",
      "type": "function"
    },
    {
      "inputs": [],
      "name": "paymentToken",
      "outputs": [
        {
          "internalType": "contract IERC20",
          "name": "",
          "type": "address"
        }
      ],
      "stateMutability": "view",
      "type": "function"
    },
    {
      "inputs": [],
      "name": "pricePerWorkerEpoch",
      "outputs": [
        {
          "internalType": "uint256",
          "name": "",
          "type": "uint256"
        }
      ],
      "stateMutability": "view",
      "type": "function"
    },
    {
      "inputs": [],
      "name": "proxiableUUID",
      "outputs": [
        {
          "internalType": "bytes32",
          "name": "",
          "type": "bytes32"
        }
      ],
      "stateMutability": "view",
      "type": "function"
    },
    {
      "inputs": [
        {
          "internalType": "bytes32",
          "name": "computeUnitId",
          "type": "bytes32"
        }
      ],
      "name": "removeComputeUnit",
      "outputs": [],
      "stateMutability": "nonpayable",
      "type": "function"
    },
    {
      "inputs": [
        {
          "internalType": "address",
          "name": "addr",
          "type": "address"
        }
      ],
      "name": "removeFromAccessList",
      "outputs": [],
      "stateMutability": "nonpayable",
      "type": "function"
    },
    {
      "inputs": [],
      "name": "renounceOwnership",
      "outputs": [],
      "stateMutability": "nonpayable",
      "type": "function"
    },
    {
      "inputs": [
        {
          "components": [
            {
              "internalType": "bytes4",
              "name": "prefixes",
              "type": "bytes4"
            },
            {
              "internalType": "bytes32",
              "name": "hash",
              "type": "bytes32"
            }
          ],
          "internalType": "struct CIDV1",
          "name": "appCID_",
          "type": "tuple"
        }
      ],
      "name": "setAppCID",
      "outputs": [],
      "stateMutability": "nonpayable",
      "type": "function"
    },
    {
      "inputs": [
        {
          "internalType": "bytes32",
          "name": "computeUnitId",
          "type": "bytes32"
        },
        {
          "internalType": "bytes32",
          "name": "workerId",
          "type": "bytes32"
        }
      ],
      "name": "setWorker",
      "outputs": [],
      "stateMutability": "nonpayable",
      "type": "function"
    },
    {
      "inputs": [],
      "name": "stop",
      "outputs": [],
      "stateMutability": "nonpayable",
      "type": "function"
    },
    {
      "inputs": [],
      "name": "targetWorkers",
      "outputs": [
        {
          "internalType": "uint256",
          "name": "",
          "type": "uint256"
        }
      ],
      "stateMutability": "view",
      "type": "function"
    },
    {
      "inputs": [
        {
          "internalType": "address",
          "name": "newOwner",
          "type": "address"
        }
      ],
      "name": "transferOwnership",
      "outputs": [],
      "stateMutability": "nonpayable",
      "type": "function"
    },
    {
      "inputs": [
        {
          "internalType": "address",
          "name": "newImplementation",
          "type": "address"
        }
      ],
      "name": "upgradeTo",
      "outputs": [],
      "stateMutability": "nonpayable",
      "type": "function"
    },
    {
      "inputs": [
        {
          "internalType": "address",
          "name": "newImplementation",
          "type": "address"
        },
        {
          "internalType": "bytes",
          "name": "data",
          "type": "bytes"
        }
      ],
      "name": "upgradeToAndCall",
      "outputs": [],
      "stateMutability": "payable",
      "type": "function"
    },
    {
      "inputs": [
        {
          "internalType": "uint256",
          "name": "amount",
          "type": "uint256"
        }
      ],
      "name": "withdraw",
      "outputs": [],
      "stateMutability": "nonpayable",
      "type": "function"
    },
    {
      "inputs": [
        {
          "internalType": "bytes32",
          "name": "computeUnitId",
          "type": "bytes32"
        }
      ],
      "name": "withdrawCollateral",
      "outputs": [],
      "stateMutability": "nonpayable",
      "type": "function"
    },
    {
      "inputs": [
        {
          "internalType": "bytes32",
          "name": "computeUnitId",
          "type": "bytes32"
        }
      ],
      "name": "withdrawRewards",
      "outputs": [],
      "stateMutability": "nonpayable",
      "type": "function"
    }
  ],
  "transactionHash": "0xdb48227306dfca92ab59169e04dbc8b2ec1bf1ff0cb36c0abb323b5218d10d75",
  "args": [
    "0xea6777e8c011E7968605fd012A9Dd49401ec386C"
  ],
  "numDeployments": 1,
  "solcInputHash": "b515736a5cbcd5173b0e1e2ce796a27d",
  "bytecode": "0x60e06040908082523462000203578062004ece803803809162000023828562000208565b83396020928391810103126200020357516001600160a01b03908181169081810362000203573060805260c052835163ac027f9760e01b8152908390829060049082905afa908115620001f857600091620001b4575b50905060a0526000549060ff8260081c16620001615760ff8083160362000127575b8251614c8b90816200024382396080518181816118aa015281816119ef0152611f80015260a0518181816105fa01528181610cf2015261107d015260c0518181816104f9015281816107f9015281816109f501528181610c4e01528181610e6c01528181611425015281816121e90152818161240801528181612ebc015281816132ad0152613c600152f35b60ff7f7f26b83ff96e1f2b6a682f133852f6798a09c465da95921460cefb38474024989281191617600055825160ff8152a138806200009b565b60849083519062461bcd60e51b82526004820152602760248201527f496e697469616c697a61626c653a20636f6e747261637420697320696e697469604482015266616c697a696e6760c81b6064820152fd5b8381813d8311620001f0575b620001cc818362000208565b81010312620001ec57519182168203620001e95750803862000079565b80fd5b5080fd5b503d620001c0565b84513d6000823e3d90fd5b600080fd5b601f909101601f19168101906001600160401b038211908210176200022c57604052565b634e487b7160e01b600052604160045260246000fdfe608080604052600436101561001357600080fd5b60003560e01c908163055236f41461349b5750806307da68f514613246578063108d2f521461320957806314d3b767146130425780631763451414613005578063176474cf14612fe45780631af57b9614612e39578063206bb6e8146128785780632943dcab1461283b5780632b9f5b32146127f05780632db31193146127b35780632e1a7d4d146123a55780633013ce29146123525780633591187c146121955780633659cfe614611f4d578063378b22e414611f105780634b66a30914611cf65780634d7599f114611cb95780634e69d56014611c915780634f1ef2861461196457806352d1902d1461188257806367c17a0b146118215780636cd13448146117e4578063715018a614611744578063745e920b1461164c5780637878e81b1461161e5780637dfb6626146113a05780638a0c725b146113635780638d5ddbb3146111ac5780638da5cb5b146111595780639bc66868146110a1578063ac027f9714611050578063b55ec18a14611007578063b6b55f2514610e0a578063cffe224414610de9578063d3cde34414610bc6578063d5053ab0146108ff578063e93c4f151461079d578063edd0d73414610760578063eebe998f14610366578063f2fde38b1461033b5763fc1e5e2a146101ed57600080fd5b34610336576000600319360112610336577f8953f5482bc1a621075e75537625fa3bd2025e7df7baf6ba1dbfbf2212912d0d805461022a816139b1565b6102376040519182613657565b81815260209182820180946000527fcfcab6f3bf9ee9c2484fd18eeb2a9bd794cfdeb4ec98cce66c941e6633f8e0956000915b8383106102e55760408051878152865181890181905289928201908960005b8281106102965784840385f35b909192826040826102d66001948a51602080917fffffffff0000000000000000000000000000000000000000000000000000000081511684520151910152565b01960191019492919094610289565b6002866001926040516102f781613603565b7fffffffff00000000000000000000000000000000000000000000000000000000865460e01b168152848601548382015281520192019201919061026a565b600080fd5b34610336576020600319360112610336576103646103576135a7565b61035f614be5565b614b22565b005b346103365760406003193601126103365761037f6135a7565b6024357fec986952a0671e4b2e5ec4461085fb880bc7a7b88668240f8d55173039155d20918254917f8953f5482bc1a621075e75537625fa3bd2025e7df7baf6ba1dbfbf2212912d0a5483101561071c576103da8183614728565b92836000527fec986952a0671e4b2e5ec4461085fb880bc7a7b88668240f8d55173039155d2360209581875273ffffffffffffffffffffffffffffffffffffffff9485600360406000200154166106d857851692836000527fec986952a0671e4b2e5ec4461085fb880bc7a7b88668240f8d55173039155d228089526040600020547f8953f5482bc1a621075e75537625fa3bd2025e7df7baf6ba1dbfbf2212912d0b5481101561066e57906104936104a593926139c9565b90866000528a526040600020556139c9565b90557f8953f5482bc1a621075e75537625fa3bd2025e7df7baf6ba1dbfbf2212912d085492604051947f766718080000000000000000000000000000000000000000000000000000000086528786600481847f0000000000000000000000000000000000000000000000000000000000000000165afa9586156106625787928991600098610626575b5096867f865afb485bc19debe6b3005a955507b9380643890b997437eac163d3345167ba96946040969460059461061e9b89519761056b8961361f565b8489528289019182528a8901926000845260608a01958b875260808b0197885260a08b01988952600052528960002097518855516001880155516002870155600386019151167fffffffffffffffffffffffff0000000000000000000000000000000000000000825416179055516004840155519101556105eb86614a29565b81519086825287820152a130337f0000000000000000000000000000000000000000000000000000000000000000613e3d565b604051908152f35b975094925086819492943d831161065b575b6106428183613657565b810103126103365794519490929091869188908661052e565b503d610638565b6040513d6000823e3d90fd5b60848a6040519062461bcd60e51b82526004820152602660248201527f4d617820756e6974732070657220636f6d707574652070726f7669646572207260448201527f65616368656400000000000000000000000000000000000000000000000000006064820152fd5b6064886040519062461bcd60e51b82526004820152600f60248201527f496420616c7265616479207573656400000000000000000000000000000000006044820152fd5b606460405162461bcd60e51b815260206004820152601460248201527f54617267657420756e69747320726561636865640000000000000000000000006044820152fd5b346103365760006003193601126103365760207f8953f5482bc1a621075e75537625fa3bd2025e7df7baf6ba1dbfbf2212912d0854604051908152f35b34610336576000600319360112610336576107b6614256565b6040517f7667180800000000000000000000000000000000000000000000000000000000815260208160048173ffffffffffffffffffffffffffffffffffffffff7f0000000000000000000000000000000000000000000000000000000000000000165afa908115610662576000916108cd575b60206060846108c3857fc576653ddc86d50a6e4d0122949ce4f03ce67b12fb750e4fa8bed8f88ff5f4f1547fc576653ddc86d50a6e4d0122949ce4f03ce67b12fb750e4fa8bed8f88ff5f4f2547fec986952a0671e4b2e5ec4461085fb880bc7a7b88668240f8d55173039155d2154917f8953f5482bc1a621075e75537625fa3bd2025e7df7baf6ba1dbfbf2212912d0c549386613d1d565b0151604051908152f35b90506020813d82116108f7575b816108e760209383613657565b810103126103365751602061082a565b3d91506108da565b34610336576040600319360112610336576004356024357fec986952a0671e4b2e5ec4461085fb880bc7a7b88668240f8d55173039155d2190815492806000526020917fec986952a0671e4b2e5ec4461085fb880bc7a7b88668240f8d55173039155d2383526040600020938115610b8257600286950190815415610b45575b50817fcf79e0e27c8c35d39bd9b727f35e6f79573597f660c88baf483fc1511c49203c926040925581519084825285820152a1604051917f76671808000000000000000000000000000000000000000000000000000000008352808360048173ffffffffffffffffffffffffffffffffffffffff7f0000000000000000000000000000000000000000000000000000000000000000165afa92831561066257600093610b0e575b5091610b05600194927fc576653ddc86d50a6e4d0122949ce4f03ce67b12fb750e4fa8bed8f88ff5f4f360a0957f8953f5482bc1a621075e75537625fa3bd2025e7df7baf6ba1dbfbf2212912d0c5492600052526040600020967fc576653ddc86d50a6e4d0122949ce4f03ce67b12fb750e4fa8bed8f88ff5f4f15494610adb8383610ab0614256565b987fc576653ddc86d50a6e4d0122949ce4f03ce67b12fb750e4fa8bed8f88ff5f4f25490898b613d1d565b7f8953f5482bc1a621075e75537625fa3bd2025e7df7baf6ba1dbfbf2212912d0954918587613fc9565b84550151910155005b939192508084813d8311610b3e575b610b278183613657565b810103126103365792519092909190610b05610a26565b503d610b1d565b9450817fcf79e0e27c8c35d39bd9b727f35e6f79573597f660c88baf483fc1511c49203c92604092610b76896139c9565b8098559250925061097f565b6064846040519062461bcd60e51b82526004820152601760248201527f576f726b657249642063616e277420626520656d7074790000000000000000006044820152fd5b346103365760208060031936011261033657600435806000527fec986952a0671e4b2e5ec4461085fb880bc7a7b88668240f8d55173039155d28808352604060002054916040517f7667180800000000000000000000000000000000000000000000000000000000815273ffffffffffffffffffffffffffffffffffffffff938582600481887f0000000000000000000000000000000000000000000000000000000000000000165afa91821561066257600092610dba575b5011610d76577fc30fcfbcaac9e0deffa719714eaa82396ff506a0d0d0eebe170830177288715d93816000527fec986952a0671e4b2e5ec4461085fb880bc7a7b88668240f8d55173039155d2391828252604060002094600360048701549601541693825260006040812055610d1685857f00000000000000000000000000000000000000000000000000000000000000006141bd565b6000525260006005604082208281558260018201558260028201558260038201558260048201550155610d71604051928392836020909392919373ffffffffffffffffffffffffffffffffffffffff60408201951681520152565b0390a1005b6064846040519062461bcd60e51b82526004820152601860248201527f436f6c6c61746572616c206e6f7420617661696c61626c6500000000000000006044820152fd5b9091508581813d8311610de2575b610dd28183613657565b8101031261033657519086610c7f565b503d610dc8565b3461033657604060031936011261033657602061061e60243560043561431f565b34610336576020806003193601126103365760043590610e28614be5565b604051917f7667180800000000000000000000000000000000000000000000000000000000835273ffffffffffffffffffffffffffffffffffffffff8284600481847f0000000000000000000000000000000000000000000000000000000000000000165afa93841561066257600094610fd8575b5081610fcf91610fa37f2a89b2e3d580398d6dc2db5e0f336b52602bbaa51afa9bb5cdf59239cf0d2bea967fec986952a0671e4b2e5ec4461085fb880bc7a7b88668240f8d55173039155d2154907f8953f5482bc1a621075e75537625fa3bd2025e7df7baf6ba1dbfbf2212912d0c5491807fc576653ddc86d50a6e4d0122949ce4f03ce67b12fb750e4fa8bed8f88ff5f4f15492610f6a8583610f3f614256565b967fc576653ddc86d50a6e4d0122949ce4f03ce67b12fb750e4fa8bed8f88ff5f4f254908589613d1d565b60608401610f79898251613d10565b90527f8953f5482bc1a621075e75537625fa3bd2025e7df7baf6ba1dbfbf2212912d095493613fc9565b7f8953f5482bc1a621075e75537625fa3bd2025e7df7baf6ba1dbfbf2212912d07541630903390613e3d565b604051908152a1005b93508284813d8311611000575b610fef8183613657565b810103126103365792519281610e9d565b503d610fe5565b3461033657600060031936011261033657602060ff7f8953f5482bc1a621075e75537625fa3bd2025e7df7baf6ba1dbfbf2212912d0e54166040519061104c816135ca565b8152f35b3461033657600060031936011261033657602060405173ffffffffffffffffffffffffffffffffffffffff7f0000000000000000000000000000000000000000000000000000000000000000168152f35b3461033657600060031936011261033657600060206040516110c281613603565b8281520152604080516110d481613603565b7f8953f5482bc1a621075e75537625fa3bd2025e7df7baf6ba1dbfbf2212912d055460e01b7fffffffff00000000000000000000000000000000000000000000000000000000168082527f8953f5482bc1a621075e75537625fa3bd2025e7df7baf6ba1dbfbf2212912d0654602092830190815283519182525191810191909152f35bf35b3461033657600060031936011261033657602073ffffffffffffffffffffffffffffffffffffffff7fc43ef91433cf7d0ab2ca98c18785d28d6a5685461d30e867805d7a83cc8deb805416604051908152f35b34610336576000600319360112610336577f8953f5482bc1a621075e75537625fa3bd2025e7df7baf6ba1dbfbf2212912d11546111e8816139b1565b906111f66040519283613657565b8082527fffffffffffffffffffffffffffffffffffffffffffffffffffffffffffffffe09081611225826139b1565b019060209136838601377f8953f5482bc1a621075e75537625fa3bd2025e7df7baf6ba1dbfbf2212912d0f546000905b8282106113195750505082519061128461126e836139b1565b9261127c6040519485613657565b8084526139b1565b828201930136843760005b84518110156112bf57806112a66112ba92876139f6565b5160601c6112b482866139f6565b526139c9565b61128f565b50925090604051928392818401908285525180915260408401929160005b8281106112ec57505050500390f35b835173ffffffffffffffffffffffffffffffffffffffff16855286955093810193928101926001016112dd565b8061132483886139f6565b526000527f8953f5482bc1a621075e75537625fa3bd2025e7df7baf6ba1dbfbf2212912d12835261135d600160406000200154916139c9565b90611255565b346103365760006003193601126103365760207f8953f5482bc1a621075e75537625fa3bd2025e7df7baf6ba1dbfbf2212912d0b54604051908152f35b346103365760208060031936011261033657600435806000527fc576653ddc86d50a6e4d0122949ce4f03ce67b12fb750e4fa8bed8f88ff5f4f3825260406000206040517f7667180800000000000000000000000000000000000000000000000000000000815273ffffffffffffffffffffffffffffffffffffffff908481600481857f0000000000000000000000000000000000000000000000000000000000000000165afa908115610662576000916115f1575b507fec986952a0671e4b2e5ec4461085fb880bc7a7b88668240f8d55173039155d2154907f8953f5482bc1a621075e75537625fa3bd2025e7df7baf6ba1dbfbf2212912d0c54916114a5614256565b916114f784837fc576653ddc86d50a6e4d0122949ce4f03ce67b12fb750e4fa8bed8f88ff5f4f1547fc576653ddc86d50a6e4d0122949ce4f03ce67b12fb750e4fa8bed8f88ff5f4f254908588613d1d565b60a08301516115078754836139a4565b6115298661152460018b019361151e8554876139a4565b906139a4565b613cfd565b9788156115ad5789968996868d97877f9b5336625f529f36cb0543297bdf5075b7f6b830bb892ff97c09fbfeae6255d59d9760409d976115a29a61157898555560808401610f798982516139a4565b7f8953f5482bc1a621075e75537625fa3bd2025e7df7baf6ba1dbfbf2212912d07541633906141bd565b8351928352820152a1005b60648b6040519062461bcd60e51b82526004820152600a60248201527f4e6f2072657761726473000000000000000000000000000000000000000000006044820152fd5b90508481813d8311611617575b6116088183613657565b81010312610336575185611456565b503d6115fe565b346103365760206003193601126103365760043560038110156103365761036490611647614be5565b613adc565b3461033657602060031936011261033657611665614224565b506004356000527fec986952a0671e4b2e5ec4461085fb880bc7a7b88668240f8d55173039155d2360205260c060406000206005604051916116a68361361f565b80548352600181015460208401526002810154604084015273ffffffffffffffffffffffffffffffffffffffff600382015416606084015260048101546080840152015460a0820152611157604051809260a0809180518452602081015160208501526040810151604085015273ffffffffffffffffffffffffffffffffffffffff6060820151166060850152608081015160808501520151910152565b346103365760006003193601126103365761175d614be5565b600073ffffffffffffffffffffffffffffffffffffffff7fc43ef91433cf7d0ab2ca98c18785d28d6a5685461d30e867805d7a83cc8deb808054907fffffffffffffffffffffffff000000000000000000000000000000000000000082169055167f8be0079c531659141344cd1fd0a4f28419497f9722a3daafe3b4186f6b6457e08280a3005b346103365760006003193601126103365760207f8953f5482bc1a621075e75537625fa3bd2025e7df7baf6ba1dbfbf2212912d0c54604051908152f35b346103365760406003193601126103365761184661183d6135a7565b60243590614728565b6000527fec986952a0671e4b2e5ec4461085fb880bc7a7b88668240f8d55173039155d2360205260206001604060002001541515604051908152f35b346103365760006003193601126103365773ffffffffffffffffffffffffffffffffffffffff7f00000000000000000000000000000000000000000000000000000000000000001630036118fa5760206040517f360894a13ba1a3210667c828492db98dca3e2076cc3735a920a3ca505d382bbc8152f35b608460405162461bcd60e51b815260206004820152603860248201527f555550535570677261646561626c653a206d757374206e6f742062652063616c60448201527f6c6564207468726f7567682064656c656761746563616c6c00000000000000006064820152fd5b6040600319360112610336576119786135a7565b6024359067ffffffffffffffff821161033657366023830112156103365781600401356119a481613698565b926119b26040519485613657565b8184526020918285019136602483830101116103365781600092602486930185378601015273ffffffffffffffffffffffffffffffffffffffff807f00000000000000000000000000000000000000000000000000000000000000001690611a1c823014156136d2565b611a4b7f360894a13ba1a3210667c828492db98dca3e2076cc3735a920a3ca505d382bbc928284541614613743565b611a53614be5565b7f4910fdfa16fed3260ed0e7147f7cc6da11a60208b5b9406d12a635614ffd91435460ff1615611a8b575050505061036491506137b4565b84939416906040517f52d1902d0000000000000000000000000000000000000000000000000000000081528581600481865afa60009181611c62575b50611b36576084866040519062461bcd60e51b82526004820152602e60248201527f45524331393637557067726164653a206e657720696d706c656d656e7461746960448201527f6f6e206973206e6f7420555550530000000000000000000000000000000000006064820152fd5b03611bf857611b44836137b4565b7fbc7cd75a20ee27fd9adebab32041f755214dbc6bffa90cc0225b39da2e5c2d3b600080a2835115801590611bf0575b611b7a57005b60008091610364957f416464726573733a206c6f772d6c6576656c2064656c65676174652063616c6c60405196611bb08861363b565b602788528701527f206661696c65640000000000000000000000000000000000000000000000000060408701525190845af4611bea613886565b916138b6565b506001611b74565b6084846040519062461bcd60e51b82526004820152602960248201527f45524331393637557067726164653a20756e737570706f727465642070726f7860448201527f6961626c655555494400000000000000000000000000000000000000000000006064820152fd5b9091508681813d8311611c8a575b611c7a8183613657565b8101031261033657519088611ac7565b503d611c70565b34610336576000600319360112610336576020611cac613ba5565b6040519061104c816135ca565b346103365760006003193601126103365760207fec986952a0671e4b2e5ec4461085fb880bc7a7b88668240f8d55173039155d2154604051908152f35b34610336576000600319360112610336577fec986952a0671e4b2e5ec4461085fb880bc7a7b88668240f8d55173039155d20547fffffffffffffffffffffffffffffffffffffffffffffffffffffffffffffffe0611d5661126e836139b1565b0160005b818110611ef9578260007fec986952a0671e4b2e5ec4461085fb880bc7a7b88668240f8d55173039155d245490815b611e205760408051602080825285518183018190528187019383019160005b828110611db55784840385f35b9091928260c082611e116001948a5160a0809180518452602081015160208501526040810151604085015273ffffffffffffffffffffffffffffffffffffffff6060820151166060850152608081015160808501520151910152565b01960191019492919094611da8565b816000527fec986952a0671e4b2e5ec4461085fb880bc7a7b88668240f8d55173039155d2760207fec986952a0671e4b2e5ec4461085fb880bc7a7b88668240f8d55173039155d238152611ee6604060002093604051611e7f8161361f565b85548152600560019687810154868401526002810154604084015273ffffffffffffffffffffffffffffffffffffffff600382015416606084015260048101546080840152015460a0820152611ed582896139f6565b52611ee081886139f6565b506139c9565b9360005252604060002001549081611d89565b602090611f04614224565b82828601015201611d5a565b346103365760006003193601126103365760207fc576653ddc86d50a6e4d0122949ce4f03ce67b12fb750e4fa8bed8f88ff5f4f154604051908152f35b346103365760208060031936011261033657611f676135a7565b73ffffffffffffffffffffffffffffffffffffffff91827f00000000000000000000000000000000000000000000000000000000000000001692611fad843014156136d2565b611fdc7f360894a13ba1a3210667c828492db98dca3e2076cc3735a920a3ca505d382bbc948286541614613743565b611fe4614be5565b604051938285019185831067ffffffffffffffff84111761216657826040526000865260ff7f4910fdfa16fed3260ed0e7147f7cc6da11a60208b5b9406d12a635614ffd91435416600014612041575050505061036491506137b4565b84939416906040517f52d1902d0000000000000000000000000000000000000000000000000000000081528581600481865afa60009181612137575b506120ec576084866040519062461bcd60e51b82526004820152602e60248201527f45524331393637557067726164653a206e657720696d706c656d656e7461746960448201527f6f6e206973206e6f7420555550530000000000000000000000000000000000006064820152fd5b03611bf8576120fa836137b4565b7fbc7cd75a20ee27fd9adebab32041f755214dbc6bffa90cc0225b39da2e5c2d3b600080a283511580159061212f57611b7a57005b506000611b74565b9091508681813d831161215f575b61214f8183613657565b810103126103365751908861207d565b503d612145565b7f4e487b7100000000000000000000000000000000000000000000000000000000600052604160045260246000fd5b34610336576020600319360112610336576040517f7667180800000000000000000000000000000000000000000000000000000000815260208160048173ffffffffffffffffffffffffffffffffffffffff7f0000000000000000000000000000000000000000000000000000000000000000165afa80156106625760009061231f575b61036491507fec986952a0671e4b2e5ec4461085fb880bc7a7b88668240f8d55173039155d21549060ff7fc576653ddc86d50a6e4d0122949ce4f03ce67b12fb750e4fa8bed8f88ff5f4f454166000146123165761229b7fc576653ddc86d50a6e4d0122949ce4f03ce67b12fb750e4fa8bed8f88ff5f4f5545b60043561431f565b7f8953f5482bc1a621075e75537625fa3bd2025e7df7baf6ba1dbfbf2212912d0c54927fc576653ddc86d50a6e4d0122949ce4f03ce67b12fb750e4fa8bed8f88ff5f4f154926122ee8583610f3f614256565b7f8953f5482bc1a621075e75537625fa3bd2025e7df7baf6ba1dbfbf2212912d095493613fc9565b61229b81612293565b506020813d821161234a575b8161233860209383613657565b81010312610336576103649051612219565b3d915061232b565b3461033657600060031936011261033657602073ffffffffffffffffffffffffffffffffffffffff7f8953f5482bc1a621075e75537625fa3bd2025e7df7baf6ba1dbfbf2212912d075416604051908152f35b346103365760208060031936011261033657600435906123c3614be5565b604051917f7667180800000000000000000000000000000000000000000000000000000000835273ffffffffffffffffffffffffffffffffffffffff928281600481877f0000000000000000000000000000000000000000000000000000000000000000165afa90811561066257600091612786575b507fec986952a0671e4b2e5ec4461085fb880bc7a7b88668240f8d55173039155d2154907f8953f5482bc1a621075e75537625fa3bd2025e7df7baf6ba1dbfbf2212912d0c549160ff7fc576653ddc86d50a6e4d0122949ce4f03ce67b12fb750e4fa8bed8f88ff5f4f454166000146125f857507fc576653ddc86d50a6e4d0122949ce4f03ce67b12fb750e4fa8bed8f88ff5f4f55460028101925082106125c957111561255f57610fcf817f430648de173157e069201c943adb2d4e340e7cf5b27b1b09c9cb852f03d63b56947fc576653ddc86d50a6e4d0122949ce4f03ce67b12fb750e4fa8bed8f88ff5f4ee6125338382546139a4565b90557f8953f5482bc1a621075e75537625fa3bd2025e7df7baf6ba1dbfbf2212912d07541633906141bd565b6084826040519062461bcd60e51b82526004820152602d60248201527f43616e2774207769746864726177206265666f726520322065706f636873206160448201527f66746572206465616c20656e64000000000000000000000000000000000000006064820152fd5b7f4e487b7100000000000000000000000000000000000000000000000000000000600052601160045260246000fd5b612600614256565b9161265284837fc576653ddc86d50a6e4d0122949ce4f03ce67b12fb750e4fa8bed8f88ff5f4f1547fc576653ddc86d50a6e4d0122949ce4f03ce67b12fb750e4fa8bed8f88ff5f4f254908588613d1d565b606083016126618682516139a4565b81527f7fffffffffffffffffffffffffffffffffffffffffffffffffffffffffffffff851685036125c9576126ba7f8953f5482bc1a621075e75537625fa3bd2025e7df7baf6ba1dbfbf2212912d0a548660011b613cfd565b90511061271c57610fcf938593837f430648de173157e069201c943adb2d4e340e7cf5b27b1b09c9cb852f03d63b569994612717947f8953f5482bc1a621075e75537625fa3bd2025e7df7baf6ba1dbfbf2212912d095493613fc9565b611578565b6084866040519062461bcd60e51b82526004820152602c60248201527f467265652062616c616e6365206e6565647320746f20636f766572206d696e6960448201527f6d756d20322065706f63687300000000000000000000000000000000000000006064820152fd5b90508281813d83116127ac575b61279d8183613657565b81010312610336575184612439565b503d612793565b346103365760006003193601126103365760207f8953f5482bc1a621075e75537625fa3bd2025e7df7baf6ba1dbfbf2212912d0954604051908152f35b34610336576020600319360112610336576004356000527fec986952a0671e4b2e5ec4461085fb880bc7a7b88668240f8d55173039155d286020526020604060002054604051908152f35b346103365760006003193601126103365760207f8953f5482bc1a621075e75537625fa3bd2025e7df7baf6ba1dbfbf2212912d0a54604051908152f35b346103365760031936016101608112610336576040136103365760443573ffffffffffffffffffffffffffffffffffffffff811681036103365767ffffffffffffffff8061010435116103365736602361010435011215610336578061010435600401351161033657366024610104356004013560061b610104350101116103365760036101243510156103365780610144351161033657366023610144350112156103365761014435600401351161033657366024610144356004013560051b61014435010111610336576000549060ff8260081c161591828093612e2c575b8015612e15575b15612dab578260017fffffffffffffffffffffffffffffffffffffffffffffffffffffffffffffff00831617600055612d7c575b506129b860ff60005460081c166129aa81613b34565b6129b381613b34565b613b34565b6129c133614b22565b6129d260ff60005460081c16613b34565b437f8953f5482bc1a621075e75537625fa3bd2025e7df7baf6ba1dbfbf2212912d045573ffffffffffffffffffffffffffffffffffffffff7f8953f5482bc1a621075e75537625fa3bd2025e7df7baf6ba1dbfbf2212912d0791167fffffffffffffffffffffffff00000000000000000000000000000000000000008254161790556064357f8953f5482bc1a621075e75537625fa3bd2025e7df7baf6ba1dbfbf2212912d08556084357f8953f5482bc1a621075e75537625fa3bd2025e7df7baf6ba1dbfbf2212912d095560a4357f8953f5482bc1a621075e75537625fa3bd2025e7df7baf6ba1dbfbf2212912d0a5560c4357f8953f5482bc1a621075e75537625fa3bd2025e7df7baf6ba1dbfbf2212912d0b5560e4357f8953f5482bc1a621075e75537625fa3bd2025e7df7baf6ba1dbfbf2212912d0c5560005b61010435600401358110612c065750612b2b61012435613adc565b60005b61014435600401358110612ba05750612b45613a0a565b612b4b57005b7fffffffffffffffffffffffffffffffffffffffffffffffffffffffffffff00ff600054166000557f7f26b83ff96e1f2b6a682f133852f6798a09c465da95921460cefb3847402498602060405160018152a1005b60248160051b610144350101359073ffffffffffffffffffffffffffffffffffffffff8216820361033657612bfc7fffffffffffffffffffffffffffffffffffffffff000000000000000000000000612c019360601b166148a8565b6139c9565b612b2e565b7f8953f5482bc1a621075e75537625fa3bd2025e7df7baf6ba1dbfbf2212912d0d54680100000000000000008110156121665760018101807f8953f5482bc1a621075e75537625fa3bd2025e7df7baf6ba1dbfbf2212912d0d55811015612d4d577f8953f5482bc1a621075e75537625fa3bd2025e7df7baf6ba1dbfbf2212912d0d60005260011b90817fcfcab6f3bf9ee9c2484fd18eeb2a9bd794cfdeb4ec98cce66c941e6633f8e09501918160061b61010435019260248401357fffffffff000000000000000000000000000000000000000000000000000000008116810361033657612d48947fcfcab6f3bf9ee9c2484fd18eeb2a9bd794cfdeb4ec98cce66c941e6633f8e0969260449260e01c7fffffffffffffffffffffffffffffffffffffffffffffffffffffffff0000000082541617905501359101556139c9565b612b10565b7f4e487b7100000000000000000000000000000000000000000000000000000000600052603260045260246000fd5b7fffffffffffffffffffffffffffffffffffffffffffffffffffffffffffff0000166101011760005582612994565b608460405162461bcd60e51b815260206004820152602e60248201527f496e697469616c697a61626c653a20636f6e747261637420697320616c72656160448201527f647920696e697469616c697a65640000000000000000000000000000000000006064820152fd5b50303b1580156129605750600160ff821614612960565b50600160ff821610612959565b3461033657602080600319360112610336576004356000527fc576653ddc86d50a6e4d0122949ce4f03ce67b12fb750e4fa8bed8f88ff5f4f381526040600020604051907f76671808000000000000000000000000000000000000000000000000000000008252828260048173ffffffffffffffffffffffffffffffffffffffff7f0000000000000000000000000000000000000000000000000000000000000000165afa91821561066257600092612fb3575b509061152461061e9261151e7fec986952a0671e4b2e5ec4461085fb880bc7a7b88668240f8d55173039155d215491600160a0612fa77f8953f5482bc1a621075e75537625fa3bd2025e7df7baf6ba1dbfbf2212912d0c5497612f9f89612f52614256565b987fc576653ddc86d50a6e4d0122949ce4f03ce67b12fb750e4fa8bed8f88ff5f4f1547fc576653ddc86d50a6e4d0122949ce4f03ce67b12fb750e4fa8bed8f88ff5f4f25490858c613d1d565b8454906139a4565b940151910154906139a4565b91508282813d8311612fdd575b612fca8183613657565b8101031261033657905190611524612eed565b503d612fc0565b3461033657604060031936011261033657612ffd614be5565b610364613a0a565b346103365760006003193601126103365760207f8953f5482bc1a621075e75537625fa3bd2025e7df7baf6ba1dbfbf2212912d0454604051908152f35b3461033657602080600319360112610336577fffffffffffffffffffffffffffffffffffffffff00000000000000000000000061307d6135a7565b613085614be5565b60601b1690816000527f8953f5482bc1a621075e75537625fa3bd2025e7df7baf6ba1dbfbf2212912d129182825260406000206001604051916130c783613603565b8054835201548382019081526130dd83836147a8565b156131c55781518015908161319c575b8251918215613174575b1561315e575b5050519081613149575b505060005252600060016040822082815501557f8953f5482bc1a621075e75537625fa3bd2025e7df7baf6ba1dbfbf2212912d1161314581546142f4565b9055005b51906000528383526040600020558380613107565b60005285855260016040600020015585806130fd565b817f8953f5482bc1a621075e75537625fa3bd2025e7df7baf6ba1dbfbf2212912d10556130f7565b82517f8953f5482bc1a621075e75537625fa3bd2025e7df7baf6ba1dbfbf2212912d0f556130ed565b6064846040519062461bcd60e51b82526004820152601260248201527f4b657920646f6573206e6f7420657869737400000000000000000000000000006044820152fd5b346103365760006003193601126103365760207fec986952a0671e4b2e5ec4461085fb880bc7a7b88668240f8d55173039155d2054604051908152f35b346103365760006003193601126103365761325f614be5565b613267614256565b604051907f76671808000000000000000000000000000000000000000000000000000000008252602090818360048173ffffffffffffffffffffffffffffffffffffffff7f0000000000000000000000000000000000000000000000000000000000000000165afa9283156106625760009361346b575b509160007f3ad16bb58712aa329948d76146b096a4f4b85e024d99473dc50bcd358811b86c936133cb7fc576653ddc86d50a6e4d0122949ce4f03ce67b12fb750e4fa8bed8f88ff5f4f1918254907fec986952a0671e4b2e5ec4461085fb880bc7a7b88668240f8d55173039155d21546133a17fc576653ddc86d50a6e4d0122949ce4f03ce67b12fb750e4fa8bed8f88ff5f4f25493827f8953f5482bc1a621075e75537625fa3bd2025e7df7baf6ba1dbfbf2212912d0c549586928b87613d1d565b80877f8953f5482bc1a621075e75537625fa3bd2025e7df7baf6ba1dbfbf2212912d095493613fc9565b557fcecd349d986645e1758ec135f91f1ad20564a8bcc6c2b5a5eaca9b09841495c582604051838152a17fc576653ddc86d50a6e4d0122949ce4f03ce67b12fb750e4fa8bed8f88ff5f4f460017fffffffffffffffffffffffffffffffffffffffffffffffffffffffffffffff00825416179055807fc576653ddc86d50a6e4d0122949ce4f03ce67b12fb750e4fa8bed8f88ff5f4f555604051908152a1005b92508183813d8311613494575b6134828183613657565b810103126103365791519160006132de565b503d613478565b3461033657602060031936011261033657602080917fffffffffffffffffffffffffffffffffffffffff0000000000000000000000006134d96135a7565b60601b1690816000527f8953f5482bc1a621075e75537625fa3bd2025e7df7baf6ba1dbfbf2212912d12835260406000209061351481613603565b600182549283835201549384910152159182159261359d575b508115613572575b8115613547575b506040519015158152f35b90507f8953f5482bc1a621075e75537625fa3bd2025e7df7baf6ba1dbfbf2212912d1054148261353c565b7f8953f5482bc1a621075e75537625fa3bd2025e7df7baf6ba1dbfbf2212912d0f5481149150613535565b151591508361352d565b6004359073ffffffffffffffffffffffffffffffffffffffff8216820361033657565b600311156135d457565b7f4e487b7100000000000000000000000000000000000000000000000000000000600052602160045260246000fd5b6040810190811067ffffffffffffffff82111761216657604052565b60c0810190811067ffffffffffffffff82111761216657604052565b6060810190811067ffffffffffffffff82111761216657604052565b90601f7fffffffffffffffffffffffffffffffffffffffffffffffffffffffffffffffe0910116810190811067ffffffffffffffff82111761216657604052565b67ffffffffffffffff811161216657601f017fffffffffffffffffffffffffffffffffffffffffffffffffffffffffffffffe01660200190565b156136d957565b608460405162461bcd60e51b815260206004820152602c60248201527f46756e6374696f6e206d7573742062652063616c6c6564207468726f7567682060448201527f64656c656761746563616c6c00000000000000000000000000000000000000006064820152fd5b1561374a57565b608460405162461bcd60e51b815260206004820152602c60248201527f46756e6374696f6e206d7573742062652063616c6c6564207468726f7567682060448201527f6163746976652070726f787900000000000000000000000000000000000000006064820152fd5b803b1561381c5773ffffffffffffffffffffffffffffffffffffffff7f360894a13ba1a3210667c828492db98dca3e2076cc3735a920a3ca505d382bbc91167fffffffffffffffffffffffff0000000000000000000000000000000000000000825416179055565b608460405162461bcd60e51b815260206004820152602d60248201527f455243313936373a206e657720696d706c656d656e746174696f6e206973206e60448201527f6f74206120636f6e7472616374000000000000000000000000000000000000006064820152fd5b3d156138b1573d9061389782613698565b916138a56040519384613657565b82523d6000602084013e565b606090565b9192901561391757508151156138ca575090565b3b156138d35790565b606460405162461bcd60e51b815260206004820152601d60248201527f416464726573733a2063616c6c20746f206e6f6e2d636f6e74726163740000006044820152fd5b82519091501561392a5750805190602001fd5b6040519062461bcd60e51b825281602080600483015282519283602484015260005b84811061398d575050507fffffffffffffffffffffffffffffffffffffffffffffffffffffffffffffffe0601f836000604480968601015201168101030190fd5b81810183015186820160440152859350820161394c565b919082039182116125c957565b67ffffffffffffffff81116121665760051b60200190565b7fffffffffffffffffffffffffffffffffffffffffffffffffffffffffffffffff81146125c95760010190565b8051821015612d4d5760209160051b010190565b6004357fffffffff00000000000000000000000000000000000000000000000000000000811690818103610336577fc820a66d3bdd50a45cf12cda6dc8ec9e94fb5123edd7da736eea18316f8523a0916040917f8953f5482bc1a621075e75537625fa3bd2025e7df7baf6ba1dbfbf2212912d059060e01c7fffffffffffffffffffffffffffffffffffffffffffffffffffffffff00000000825416179055602435807f8953f5482bc1a621075e75537625fa3bd2025e7df7baf6ba1dbfbf2212912d065582519182526020820152a1565b613ae5816135ca565b7f8953f5482bc1a621075e75537625fa3bd2025e7df7baf6ba1dbfbf2212912d0e9060ff7fffffffffffffffffffffffffffffffffffffffffffffffffffffffffffffff008354169116179055565b15613b3b57565b608460405162461bcd60e51b815260206004820152602b60248201527f496e697469616c697a61626c653a20636f6e7472616374206973206e6f74206960448201527f6e697469616c697a696e670000000000000000000000000000000000000000006064820152fd5b60ff7fc576653ddc86d50a6e4d0122949ce4f03ce67b12fb750e4fa8bed8f88ff5f4f45416613cf8577fec986952a0671e4b2e5ec4461085fb880bc7a7b88668240f8d55173039155d21547f8953f5482bc1a621075e75537625fa3bd2025e7df7baf6ba1dbfbf2212912d09541115613c1d57600090565b6040517f7667180800000000000000000000000000000000000000000000000000000000815260208160048173ffffffffffffffffffffffffffffffffffffffff7f0000000000000000000000000000000000000000000000000000000000000000165afa90811561066257600091613cc4575b507fc576653ddc86d50a6e4d0122949ce4f03ce67b12fb750e4fa8bed8f88ff5f4f1541015613cbf57600090565b600190565b906020823d8211613cf0575b81613cdd60209383613657565b81010312613ced57505138613c91565b80fd5b3d9150613cd0565b600290565b818102929181159184041417156125c957565b919082018092116125c957565b91939092948415801590818092613e34575b80613e2b575b15613d8f57505091613d5860a092611524613d8495611524899a613d8a9a6139a4565b60608201613d678282516139a4565b9052613d7860808301918251613d10565b905201938451926139a4565b90613d10565b90525b565b9080929497969190613e17575b15613db95750505050613d8460a0613d8a939401938451926139a4565b92939281613e0c575b50613dcf575b5050505050565b611524608093611524613e0096613de5956139a4565b9260608101613df58582516139a4565b905201918251613d10565b90523880808080613dc8565b905082111538613dc2565b508085118015613d9c575080861015613d9c565b50878711613d35565b50868611613d2f565b9290604051927f23b872dd00000000000000000000000000000000000000000000000000000000602085015273ffffffffffffffffffffffffffffffffffffffff809216602485015216604483015260648201526064815260a081019181831067ffffffffffffffff84111761216657613d8d926040525b73ffffffffffffffffffffffffffffffffffffffff1690613f1c604051613edb81613603565b6020938482527f5361666545524332303a206c6f772d6c6576656c2063616c6c206661696c6564858301526000808587829751910182855af1611bea613886565b805191821591848315613fa1575b505050905015613f375750565b6084906040519062461bcd60e51b82526004820152602a60248201527f5361666545524332303a204552433230206f7065726174696f6e20646964206e60448201527f6f742073756363656564000000000000000000000000000000000000000000006064820152fd5b919381809450010312613fc557820151908115158203613ced575080388084613f2a565b5080fd5b9380919593921015806141b4575b156141015750505060007fc576653ddc86d50a6e4d0122949ce4f03ce67b12fb750e4fa8bed8f88ff5f4f1557fcecd349d986645e1758ec135f91f1ad20564a8bcc6c2b5a5eaca9b09841495c5602060405160008152a15b805160608201518091036140d9575b50602081015160808201518091036140b1575b5060a06040820151910151809103614089575b507fc576653ddc86d50a6e4d0122949ce4f03ce67b12fb750e4fa8bed8f88ff5f4f255565b7fc576653ddc86d50a6e4d0122949ce4f03ce67b12fb750e4fa8bed8f88ff5f4f05538614064565b7fc576653ddc86d50a6e4d0122949ce4f03ce67b12fb750e4fa8bed8f88ff5f4ef5538614051565b7fc576653ddc86d50a6e4d0122949ce4f03ce67b12fb750e4fa8bed8f88ff5f4ee553861403e565b811015614110575b505061402f565b61411f90606084015192613cfd565b8015614185576141546020917fcecd349d986645e1758ec135f91f1ad20564a8bcc6c2b5a5eaca9b09841495c5930485613d10565b807fc576653ddc86d50a6e4d0122949ce4f03ce67b12fb750e4fa8bed8f88ff5f4f155604051908152a13880614109565b7f4e487b7100000000000000000000000000000000000000000000000000000000600052601260045260246000fd5b50808210613fd7565b6040517fa9059cbb00000000000000000000000000000000000000000000000000000000602082015273ffffffffffffffffffffffffffffffffffffffff929092166024830152604480830193909352918152613d8d9161421f606483613657565b613eb5565b604051906142318261361f565b8160a06000918281528260208201528260408201528260608201528260808201520152565b61425e614224565b507fc576653ddc86d50a6e4d0122949ce4f03ce67b12fb750e4fa8bed8f88ff5f4ee547fc576653ddc86d50a6e4d0122949ce4f03ce67b12fb750e4fa8bed8f88ff5f4ef547fc576653ddc86d50a6e4d0122949ce4f03ce67b12fb750e4fa8bed8f88ff5f4f05490604051926142d38461361f565b8084528160208501528260408501526060840152608083015260a082015290565b80156125c9577fffffffffffffffffffffffffffffffffffffffffffffffffffffffffffffffff0190565b6000918183527fec986952a0671e4b2e5ec4461085fb880bc7a7b88668240f8d55173039155d239160209183835273ffffffffffffffffffffffffffffffffffffffff906040918060038489200154169081156146e5573382149081156146b8575b501561464f576143e87fec986952a0671e4b2e5ec4461085fb880bc7a7b88668240f8d55173039155d209182549089527fec986952a0671e4b2e5ec4461085fb880bc7a7b88668240f8d55173039155d2287528489206143e181546142f4565b90556142f4565b905560028101809111614622578286527fec986952a0671e4b2e5ec4461085fb880bc7a7b88668240f8d55173039155d288452818620557fec986952a0671e4b2e5ec4461085fb880bc7a7b88668240f8d55173039155d27808452818620600183519161445483613603565b80548352015485820190815261446a8583614828565b156145df578151801590816145b6575b825191821561458e575b1561457b575b5050519081614569575b5050828652835284600182822082815501557fec986952a0671e4b2e5ec4461085fb880bc7a7b88668240f8d55173039155d266144d181546142f4565b90556002817fec986952a0671e4b2e5ec4461085fb880bc7a7b88668240f8d55173039155d21968754968582528652200154614534575b7f319861d91651b1d776940afecf33ec848245a2b1fb1854613bbe2a367b54f79293945051908152a190565b61455e7f319861d91651b1d776940afecf33ec848245a2b1fb1854613bbe2a367b54f792946142f4565b809555849350614508565b51908752818552828720553880614494565b89528387526001858a200155388061448a565b817fec986952a0671e4b2e5ec4461085fb880bc7a7b88668240f8d55173039155d2555614484565b82517fec986952a0671e4b2e5ec4461085fb880bc7a7b88668240f8d55173039155d245561447a565b60648685519062461bcd60e51b82526004820152601260248201527f4b657920646f6573206e6f7420657869737400000000000000000000000000006044820152fd5b6024867f4e487b710000000000000000000000000000000000000000000000000000000081526011600452fd5b60848584519062461bcd60e51b82526004820152602d60248201527f4f6e6c792070726f7669646572206f72206465616c206f776e65722063616e2060448201527f72656d6f766520776f726b6572000000000000000000000000000000000000006064820152fd5b90507fc43ef91433cf7d0ab2ca98c18785d28d6a5685461d30e867805d7a83cc8deb805416331438614381565b60648685519062461bcd60e51b82526004820152601560248201527f436f6d70757465556e6974206e6f7420666f756e6400000000000000000000006044820152fd5b90604051907fffffffffffffffffffffffffffffffffffffffff00000000000000000000000060208301937f0e21d2e2d5be9ded2ebc4e15f49071921d3423c94178bed2c85195b579511f70855260601b1660408301526054820152605481526080810181811067ffffffffffffffff8211176121665760405251902090565b908151159182159261481a575b5081156147ef575b81156147c7575090565b90507f8953f5482bc1a621075e75537625fa3bd2025e7df7baf6ba1dbfbf2212912d10541490565b7f8953f5482bc1a621075e75537625fa3bd2025e7df7baf6ba1dbfbf2212912d0f54811491506147bd565b6020015115159150386147b5565b908151159182159261489a575b50811561486f575b8115614847575090565b90507fec986952a0671e4b2e5ec4461085fb880bc7a7b88668240f8d55173039155d25541490565b7fec986952a0671e4b2e5ec4461085fb880bc7a7b88668240f8d55173039155d24548114915061483d565b602001511515915038614835565b80156149e55760008181527f8953f5482bc1a621075e75537625fa3bd2025e7df7baf6ba1dbfbf2212912d12908160205261490083604083206001604051916148f083613603565b80548352015460208201526147a8565b6149a1577f8953f5482bc1a621075e75537625fa3bd2025e7df7baf6ba1dbfbf2212912d10918254907f8953f5482bc1a621075e75537625fa3bd2025e7df7baf6ba1dbfbf2212912d1161495481546139c9565b9055848215614979579060409392916001955585835260205280838320558152200155565b7f8953f5482bc1a621075e75537625fa3bd2025e7df7baf6ba1dbfbf2212912d0f5550505055565b606460405162461bcd60e51b815260206004820152601260248201527f4b657920616c72656164792065786973747300000000000000000000000000006044820152fd5b606460405162461bcd60e51b815260206004820152601260248201527f4b65792063616e6e6f74206265205a45524f00000000000000000000000000006044820152fd5b80156149e55760008181527fec986952a0671e4b2e5ec4461085fb880bc7a7b88668240f8d55173039155d279081602052614a818360408320600160405191614a7183613603565b8054835201546020820152614828565b6149a1577fec986952a0671e4b2e5ec4461085fb880bc7a7b88668240f8d55173039155d25918254907fec986952a0671e4b2e5ec4461085fb880bc7a7b88668240f8d55173039155d26614ad581546139c9565b9055848215614afa579060409392916001955585835260205280838320558152200155565b7fec986952a0671e4b2e5ec4461085fb880bc7a7b88668240f8d55173039155d245550505055565b73ffffffffffffffffffffffffffffffffffffffff809116908115614bb4577fc43ef91433cf7d0ab2ca98c18785d28d6a5685461d30e867805d7a83cc8deb80805490837fffffffffffffffffffffffff00000000000000000000000000000000000000008316179055167f8be0079c531659141344cd1fd0a4f28419497f9722a3daafe3b4186f6b6457e0600080a3565b60246040517f1e4fbdf700000000000000000000000000000000000000000000000000000000815260006004820152fd5b73ffffffffffffffffffffffffffffffffffffffff7fc43ef91433cf7d0ab2ca98c18785d28d6a5685461d30e867805d7a83cc8deb8054163303614c2557565b60246040517f118cdaa7000000000000000000000000000000000000000000000000000000008152336004820152fdfea2646970667358221220420222d341a2d3dd8e113c1c03308fb70e02a17f2f1dc969bd95a2852bc078ba64736f6c63430008130033",
  "devdoc": {
    "errors": {
      "OwnableInvalidOwner(address)": [
        {
          "details": "The owner is not a valid owner account. (eg. `address(0)`)"
        }
      ],
      "OwnableUnauthorizedAccount(address)": [
        {
          "details": "The caller account is not authorized to perform an operation."
        }
      ]
    },
    "events": {
      "AdminChanged(address,address)": {
        "details": "Emitted when the admin account has changed."
      },
      "BeaconUpgraded(address)": {
        "details": "Emitted when the beacon is changed."
      },
      "Initialized(uint8)": {
        "details": "Triggered when the contract has been initialized or reinitialized."
      },
      "Upgraded(address)": {
        "details": "Emitted when the implementation is upgraded."
      }
    },
    "kind": "dev",
    "methods": {
      "owner()": {
        "details": "Returns the address of the current owner."
      },
      "proxiableUUID()": {
        "details": "Implementation of the ERC1822 {proxiableUUID} function. This returns the storage slot used by the implementation. It is used to validate the implementation's compatibility when performing an upgrade. IMPORTANT: A proxy pointing at a proxiable contract should not be considered proxiable itself, because this risks bricking a proxy that upgrades to it, by delegating to itself until out of gas. Thus it is critical that this function revert if invoked through a proxy. This is guaranteed by the `notDelegated` modifier."
      },
      "renounceOwnership()": {
        "details": "Leaves the contract without owner. It will not be possible to call `onlyOwner` functions. Can only be called by the current owner. NOTE: Renouncing ownership will leave the contract without an owner, thereby disabling any functionality that is only available to the owner."
      },
      "transferOwnership(address)": {
        "details": "Transfers ownership of the contract to a new account (`newOwner`). Can only be called by the current owner."
      },
      "upgradeTo(address)": {
        "custom:oz-upgrades-unsafe-allow-reachable": "delegatecall",
        "details": "Upgrade the implementation of the proxy to `newImplementation`. Calls {_authorizeUpgrade}. Emits an {Upgraded} event."
      },
      "upgradeToAndCall(address,bytes)": {
        "custom:oz-upgrades-unsafe-allow-reachable": "delegatecall",
        "details": "Upgrade the implementation of the proxy to `newImplementation`, and subsequently execute the function call encoded in `data`. Calls {_authorizeUpgrade}. Emits an {Upgraded} event."
      }
    },
    "version": 1
  },
  "userdoc": {
    "kind": "user",
    "methods": {},
    "version": 1
  },
  "storageLayout": {
    "storage": [
      {
        "astId": 371,
        "contract": "contracts/deal/Deal.sol:Deal",
        "label": "_initialized",
        "offset": 0,
        "slot": "0",
        "type": "t_uint8"
      },
      {
        "astId": 374,
        "contract": "contracts/deal/Deal.sol:Deal",
        "label": "_initializing",
        "offset": 1,
        "slot": "0",
        "type": "t_bool"
      },
      {
        "astId": 353,
        "contract": "contracts/deal/Deal.sol:Deal",
        "label": "__gap",
        "offset": 0,
        "slot": "1",
        "type": "t_array(t_uint256)50_storage"
      },
      {
        "astId": 668,
        "contract": "contracts/deal/Deal.sol:Deal",
        "label": "__gap",
        "offset": 0,
        "slot": "51",
        "type": "t_array(t_uint256)50_storage"
      },
      {
        "astId": 9542,
        "contract": "contracts/deal/Deal.sol:Deal",
        "label": "_storage",
        "offset": 0,
        "slot": "101",
        "type": "t_struct(OwnableStorage)9539_storage"
      },
      {
        "astId": 3476,
        "contract": "contracts/deal/Deal.sol:Deal",
        "label": "_storage",
        "offset": 0,
        "slot": "102",
        "type": "t_struct(ConfigStorage)3473_storage"
      },
      {
        "astId": 5402,
        "contract": "contracts/deal/Deal.sol:Deal",
        "label": "_storage",
        "offset": 0,
        "slot": "117",
        "type": "t_struct(WorkerManagerStorage)5399_storage"
      },
      {
        "astId": 4053,
        "contract": "contracts/deal/Deal.sol:Deal",
        "label": "_storage",
        "offset": 0,
        "slot": "126",
        "type": "t_struct(DealStorage)4050_storage"
      }
    ],
    "types": {
      "t_address": {
        "encoding": "inplace",
        "label": "address",
        "numberOfBytes": "20"
      },
      "t_array(t_struct(CIDV1)5986_storage)dyn_storage": {
        "base": "t_struct(CIDV1)5986_storage",
        "encoding": "dynamic_array",
        "label": "struct CIDV1[]",
        "numberOfBytes": "32"
      },
      "t_array(t_uint256)50_storage": {
        "base": "t_uint256",
        "encoding": "inplace",
        "label": "uint256[50]",
        "numberOfBytes": "1600"
      },
      "t_bool": {
        "encoding": "inplace",
        "label": "bool",
        "numberOfBytes": "1"
      },
      "t_bytes32": {
        "encoding": "inplace",
        "label": "bytes32",
        "numberOfBytes": "32"
      },
      "t_bytes4": {
        "encoding": "inplace",
        "label": "bytes4",
        "numberOfBytes": "4"
      },
      "t_contract(IERC20)2321": {
        "encoding": "inplace",
        "label": "contract IERC20",
        "numberOfBytes": "20"
      },
      "t_enum(AccessType)5994": {
        "encoding": "inplace",
        "label": "enum IConfig.AccessType",
        "numberOfBytes": "1"
      },
      "t_mapping(t_address,t_struct(ComputeProviderInfo)5364_storage)": {
        "encoding": "mapping",
        "key": "t_address",
        "label": "mapping(address => struct WorkerManager.ComputeProviderInfo)",
        "numberOfBytes": "32",
        "value": "t_struct(ComputeProviderInfo)5364_storage"
      },
      "t_mapping(t_bytes32,t_struct(ComputeUnit)6210_storage)": {
        "encoding": "mapping",
        "key": "t_bytes32",
        "label": "mapping(bytes32 => struct IWorkerManager.ComputeUnit)",
        "numberOfBytes": "32",
        "value": "t_struct(ComputeUnit)6210_storage"
      },
      "t_mapping(t_bytes32,t_struct(ComputeUnitPaymentInfo)4017_storage)": {
        "encoding": "mapping",
        "key": "t_bytes32",
        "label": "mapping(bytes32 => struct Deal.ComputeUnitPaymentInfo)",
        "numberOfBytes": "32",
        "value": "t_struct(ComputeUnitPaymentInfo)4017_storage"
      },
      "t_mapping(t_bytes32,t_struct(Element)9127_storage)": {
        "encoding": "mapping",
        "key": "t_bytes32",
        "label": "mapping(bytes32 => struct LinkedListWithUniqueKeys.Element)",
        "numberOfBytes": "32",
        "value": "t_struct(Element)9127_storage"
      },
      "t_mapping(t_bytes32,t_uint256)": {
        "encoding": "mapping",
        "key": "t_bytes32",
        "label": "mapping(bytes32 => uint256)",
        "numberOfBytes": "32",
        "value": "t_uint256"
      },
      "t_struct(Bytes32List)9139_storage": {
        "encoding": "inplace",
        "label": "struct LinkedListWithUniqueKeys.Bytes32List",
        "members": [
          {
            "astId": 9129,
            "contract": "contracts/deal/Deal.sol:Deal",
            "label": "_first",
            "offset": 0,
            "slot": "0",
            "type": "t_bytes32"
          },
          {
            "astId": 9131,
            "contract": "contracts/deal/Deal.sol:Deal",
            "label": "_last",
            "offset": 0,
            "slot": "1",
            "type": "t_bytes32"
          },
          {
            "astId": 9133,
            "contract": "contracts/deal/Deal.sol:Deal",
            "label": "_length",
            "offset": 0,
            "slot": "2",
            "type": "t_uint256"
          },
          {
            "astId": 9138,
            "contract": "contracts/deal/Deal.sol:Deal",
            "label": "_elements",
            "offset": 0,
            "slot": "3",
            "type": "t_mapping(t_bytes32,t_struct(Element)9127_storage)"
          }
        ],
        "numberOfBytes": "128"
      },
      "t_struct(CIDV1)5986_storage": {
        "encoding": "inplace",
        "label": "struct CIDV1",
        "members": [
          {
            "astId": 5983,
            "contract": "contracts/deal/Deal.sol:Deal",
            "label": "prefixes",
            "offset": 0,
            "slot": "0",
            "type": "t_bytes4"
          },
          {
            "astId": 5985,
            "contract": "contracts/deal/Deal.sol:Deal",
            "label": "hash",
            "offset": 0,
            "slot": "1",
            "type": "t_bytes32"
          }
        ],
        "numberOfBytes": "64"
      },
      "t_struct(ComputeProviderInfo)5364_storage": {
        "encoding": "inplace",
        "label": "struct WorkerManager.ComputeProviderInfo",
        "members": [
          {
            "astId": 5360,
            "contract": "contracts/deal/Deal.sol:Deal",
            "label": "computeUnitCount",
            "offset": 0,
            "slot": "0",
            "type": "t_uint256"
          },
          {
            "astId": 5363,
            "contract": "contracts/deal/Deal.sol:Deal",
            "label": "computeUnitsIds",
            "offset": 0,
            "slot": "1",
            "type": "t_struct(Bytes32List)9139_storage"
          }
        ],
        "numberOfBytes": "160"
      },
      "t_struct(ComputeUnit)6210_storage": {
        "encoding": "inplace",
        "label": "struct IWorkerManager.ComputeUnit",
        "members": [
          {
            "astId": 6199,
            "contract": "contracts/deal/Deal.sol:Deal",
            "label": "id",
            "offset": 0,
            "slot": "0",
            "type": "t_bytes32"
          },
          {
            "astId": 6201,
            "contract": "contracts/deal/Deal.sol:Deal",
            "label": "peerId",
            "offset": 0,
            "slot": "1",
            "type": "t_bytes32"
          },
          {
            "astId": 6203,
            "contract": "contracts/deal/Deal.sol:Deal",
            "label": "workerId",
            "offset": 0,
            "slot": "2",
            "type": "t_bytes32"
          },
          {
            "astId": 6205,
            "contract": "contracts/deal/Deal.sol:Deal",
            "label": "owner",
            "offset": 0,
            "slot": "3",
            "type": "t_address"
          },
          {
            "astId": 6207,
            "contract": "contracts/deal/Deal.sol:Deal",
            "label": "collateral",
            "offset": 0,
            "slot": "4",
            "type": "t_uint256"
          },
          {
            "astId": 6209,
            "contract": "contracts/deal/Deal.sol:Deal",
            "label": "created",
            "offset": 0,
            "slot": "5",
            "type": "t_uint256"
          }
        ],
        "numberOfBytes": "192"
      },
      "t_struct(ComputeUnitPaymentInfo)4017_storage": {
        "encoding": "inplace",
        "label": "struct Deal.ComputeUnitPaymentInfo",
        "members": [
          {
            "astId": 4014,
            "contract": "contracts/deal/Deal.sol:Deal",
            "label": "startedEpoch",
            "offset": 0,
            "slot": "0",
            "type": "t_uint256"
          },
          {
            "astId": 4016,
            "contract": "contracts/deal/Deal.sol:Deal",
            "label": "gapsDelta",
            "offset": 0,
            "slot": "1",
            "type": "t_uint256"
          }
        ],
        "numberOfBytes": "64"
      },
      "t_struct(ConfigStorage)3473_storage": {
        "encoding": "inplace",
        "label": "struct Config.ConfigStorage",
        "members": [
          {
            "astId": 3446,
            "contract": "contracts/deal/Deal.sol:Deal",
            "label": "creationBlock",
            "offset": 0,
            "slot": "0",
            "type": "t_uint256"
          },
          {
            "astId": 3449,
            "contract": "contracts/deal/Deal.sol:Deal",
            "label": "appCID",
            "offset": 0,
            "slot": "1",
            "type": "t_struct(CIDV1)5986_storage"
          },
          {
            "astId": 3452,
            "contract": "contracts/deal/Deal.sol:Deal",
            "label": "paymentToken",
            "offset": 0,
            "slot": "3",
            "type": "t_contract(IERC20)2321"
          },
          {
            "astId": 3454,
            "contract": "contracts/deal/Deal.sol:Deal",
            "label": "collateralPerWorker",
            "offset": 0,
            "slot": "4",
            "type": "t_uint256"
          },
          {
            "astId": 3456,
            "contract": "contracts/deal/Deal.sol:Deal",
            "label": "minWorkers",
            "offset": 0,
            "slot": "5",
            "type": "t_uint256"
          },
          {
            "astId": 3458,
            "contract": "contracts/deal/Deal.sol:Deal",
            "label": "targetWorkers",
            "offset": 0,
            "slot": "6",
            "type": "t_uint256"
          },
          {
            "astId": 3460,
            "contract": "contracts/deal/Deal.sol:Deal",
            "label": "maxWorkersPerProvider",
            "offset": 0,
            "slot": "7",
            "type": "t_uint256"
          },
          {
            "astId": 3462,
            "contract": "contracts/deal/Deal.sol:Deal",
            "label": "pricePerWorkerEpoch",
            "offset": 0,
            "slot": "8",
            "type": "t_uint256"
          },
          {
            "astId": 3466,
            "contract": "contracts/deal/Deal.sol:Deal",
            "label": "effectors",
            "offset": 0,
            "slot": "9",
            "type": "t_array(t_struct(CIDV1)5986_storage)dyn_storage"
          },
          {
            "astId": 3469,
            "contract": "contracts/deal/Deal.sol:Deal",
            "label": "accessType",
            "offset": 0,
            "slot": "10",
            "type": "t_enum(AccessType)5994"
          },
          {
            "astId": 3472,
            "contract": "contracts/deal/Deal.sol:Deal",
            "label": "accessList",
            "offset": 0,
            "slot": "11",
            "type": "t_struct(Bytes32List)9139_storage"
          }
        ],
        "numberOfBytes": "480"
      },
      "t_struct(DealStorage)4050_storage": {
        "encoding": "inplace",
        "label": "struct Deal.DealStorage",
        "members": [
          {
            "astId": 4032,
            "contract": "contracts/deal/Deal.sol:Deal",
            "label": "totalBalance",
            "offset": 0,
            "slot": "0",
            "type": "t_uint256"
          },
          {
            "astId": 4034,
            "contract": "contracts/deal/Deal.sol:Deal",
            "label": "lockedBalance",
            "offset": 0,
            "slot": "1",
            "type": "t_uint256"
          },
          {
            "astId": 4036,
            "contract": "contracts/deal/Deal.sol:Deal",
            "label": "gapsEpochCount",
            "offset": 0,
            "slot": "2",
            "type": "t_uint256"
          },
          {
            "astId": 4038,
            "contract": "contracts/deal/Deal.sol:Deal",
            "label": "maxPaidEpoch",
            "offset": 0,
            "slot": "3",
            "type": "t_uint256"
          },
          {
            "astId": 4040,
            "contract": "contracts/deal/Deal.sol:Deal",
            "label": "lastCommitedEpoch",
            "offset": 0,
            "slot": "4",
            "type": "t_uint256"
          },
          {
            "astId": 4045,
            "contract": "contracts/deal/Deal.sol:Deal",
            "label": "cUnitPaymentInfo",
            "offset": 0,
            "slot": "5",
            "type": "t_mapping(t_bytes32,t_struct(ComputeUnitPaymentInfo)4017_storage)"
          },
          {
            "astId": 4047,
            "contract": "contracts/deal/Deal.sol:Deal",
            "label": "isEnded",
            "offset": 0,
            "slot": "6",
            "type": "t_bool"
          },
          {
            "astId": 4049,
            "contract": "contracts/deal/Deal.sol:Deal",
            "label": "endedEpoch",
            "offset": 0,
            "slot": "7",
            "type": "t_uint256"
          }
        ],
        "numberOfBytes": "256"
      },
      "t_struct(Element)9127_storage": {
        "encoding": "inplace",
        "label": "struct LinkedListWithUniqueKeys.Element",
        "members": [
          {
            "astId": 9124,
            "contract": "contracts/deal/Deal.sol:Deal",
            "label": "prev",
            "offset": 0,
            "slot": "0",
            "type": "t_bytes32"
          },
          {
            "astId": 9126,
            "contract": "contracts/deal/Deal.sol:Deal",
            "label": "next",
            "offset": 0,
            "slot": "1",
            "type": "t_bytes32"
          }
        ],
        "numberOfBytes": "64"
      },
      "t_struct(OwnableStorage)9539_storage": {
        "encoding": "inplace",
        "label": "struct OwnableUpgradableDiamond.OwnableStorage",
        "members": [
          {
            "astId": 9538,
            "contract": "contracts/deal/Deal.sol:Deal",
            "label": "owner",
            "offset": 0,
            "slot": "0",
            "type": "t_address"
          }
        ],
        "numberOfBytes": "32"
      },
      "t_struct(WorkerManagerStorage)5399_storage": {
        "encoding": "inplace",
        "label": "struct WorkerManager.WorkerManagerStorage",
        "members": [
          {
            "astId": 5379,
            "contract": "contracts/deal/Deal.sol:Deal",
            "label": "computeUnitCount",
            "offset": 0,
            "slot": "0",
            "type": "t_uint256"
          },
          {
            "astId": 5381,
            "contract": "contracts/deal/Deal.sol:Deal",
            "label": "workerCount",
            "offset": 0,
            "slot": "1",
            "type": "t_uint256"
          },
          {
            "astId": 5386,
            "contract": "contracts/deal/Deal.sol:Deal",
            "label": "computeProviderInfo",
            "offset": 0,
            "slot": "2",
            "type": "t_mapping(t_address,t_struct(ComputeProviderInfo)5364_storage)"
          },
          {
            "astId": 5391,
            "contract": "contracts/deal/Deal.sol:Deal",
            "label": "computeUnitById",
            "offset": 0,
            "slot": "3",
            "type": "t_mapping(t_bytes32,t_struct(ComputeUnit)6210_storage)"
          },
          {
            "astId": 5394,
            "contract": "contracts/deal/Deal.sol:Deal",
            "label": "computeUnitsIdsList",
            "offset": 0,
            "slot": "4",
            "type": "t_struct(Bytes32List)9139_storage"
          },
          {
            "astId": 5398,
            "contract": "contracts/deal/Deal.sol:Deal",
            "label": "collateralWithdrawEpochByComputeUnitId",
            "offset": 0,
            "slot": "8",
            "type": "t_mapping(t_bytes32,t_uint256)"
          }
        ],
        "numberOfBytes": "288"
      },
      "t_uint256": {
        "encoding": "inplace",
        "label": "uint256",
        "numberOfBytes": "32"
      },
      "t_uint8": {
        "encoding": "inplace",
        "label": "uint8",
        "numberOfBytes": "1"
      }
    }
  }
}