{
  "address": "0x225221e7Fa90353b9e03dC88b7Dadc49087FD5b0",
  "abi": [
    {
      "inputs": [
        {
          "internalType": "uint256",
          "name": "epochDuration_",
          "type": "uint256"
        }
      ],
      "stateMutability": "nonpayable",
      "type": "constructor"
    },
    {
      "inputs": [],
      "name": "currentEpoch",
      "outputs": [
        {
          "internalType": "uint256",
          "name": "",
          "type": "uint256"
        }
      ],
      "stateMutability": "view",
      "type": "function"
    },
    {
      "inputs": [],
      "name": "epochDuration",
      "outputs": [
        {
          "internalType": "uint256",
          "name": "",
          "type": "uint256"
        }
      ],
      "stateMutability": "view",
      "type": "function"
    }
  ],
  "transactionHash": "0x98a593ad15c7e255b65c46c3ee533942103a79168d45927b2bc1bba923962154",
  "args": [
    60
  ],
  "numDeployments": 1,
  "solcInputHash": "9aa805292f646e79c2fd4915f738aa67",
  "bytecode": "0x60803461005157601f61018238819003918201601f19168301916001600160401b03831184841017610056578084926020946040528339810103126100515751600055604051610115908161006d8239f35b600080fd5b634e487b7160e01b600052604160045260246000fdfe6080806040526004361015601257600080fd5b600090813560e01c9081634ff0876a1460a55750637667180814603457600080fd5b3460a257807ffffffffffffffffffffffffffffffffffffffffffffffffffffffffffffffffc36011260a25780549081156075576020826040519042048152f35b807f4e487b7100000000000000000000000000000000000000000000000000000000602492526012600452fd5b80fd5b90503460db57817ffffffffffffffffffffffffffffffffffffffffffffffffffffffffffffffffc36011260db57602091548152f35b5080fdfea26469706673582212209e2363954819cd8d6d3a645e5c30daad9810491d449f860e69b6f7f9fc3a633b64736f6c63430008110033",
  "devdoc": {
    "kind": "dev",
    "methods": {},
    "version": 1
  },
  "userdoc": {
    "kind": "user",
    "methods": {},
    "version": 1
  },
  "storageLayout": {
    "storage": [
      {
        "astId": 6603,
        "contract": "contracts/global/EpochManager.sol:EpochManager",
        "label": "epochDuration",
        "offset": 0,
        "slot": "0",
        "type": "t_uint256"
      }
    ],
    "types": {
      "t_uint256": {
        "encoding": "inplace",
        "label": "uint256",
        "numberOfBytes": "32"
      }
    }
  }
}