{
  "address": "0x5EB1A9b5f9a72EF4bD723103bfC9d743bc3C09D8",
  "abi": [
    {
      "inputs": [
        {
          "internalType": "contract IGlobalConfig",
          "name": "globalConfig_",
          "type": "address"
        }
      ],
      "stateMutability": "nonpayable",
      "type": "constructor"
    },
    {
      "anonymous": false,
      "inputs": [
        {
          "indexed": false,
          "internalType": "address",
          "name": "previousAdmin",
          "type": "address"
        },
        {
          "indexed": false,
          "internalType": "address",
          "name": "newAdmin",
          "type": "address"
        }
      ],
      "name": "AdminChanged",
      "type": "event"
    },
    {
      "anonymous": false,
      "inputs": [
        {
          "indexed": true,
          "internalType": "address",
          "name": "beacon",
          "type": "address"
        }
      ],
      "name": "BeaconUpgraded",
      "type": "event"
    },
    {
      "anonymous": false,
      "inputs": [
        {
          "indexed": true,
          "internalType": "bytes32",
          "name": "peerId",
          "type": "bytes32"
        },
        {
          "indexed": false,
          "internalType": "contract ICore",
          "name": "deal",
          "type": "address"
        },
        {
          "indexed": false,
          "internalType": "bytes32[]",
          "name": "patIds",
          "type": "bytes32[]"
        },
        {
          "indexed": false,
          "internalType": "uint256",
          "name": "dealCreationBlock",
          "type": "uint256"
        },
        {
          "components": [
            {
              "internalType": "bytes4",
              "name": "prefixes",
              "type": "bytes4"
            },
            {
              "internalType": "bytes32",
              "name": "hash",
              "type": "bytes32"
            }
          ],
          "indexed": false,
          "internalType": "struct CIDV1",
          "name": "appCID",
          "type": "tuple"
        }
      ],
      "name": "ComputePeerMatched",
      "type": "event"
    },
    {
      "anonymous": false,
      "inputs": [
        {
          "indexed": true,
          "internalType": "address",
          "name": "computeProvider",
          "type": "address"
        },
        {
          "indexed": false,
          "internalType": "contract ICore",
          "name": "deal",
          "type": "address"
        },
        {
          "indexed": false,
          "internalType": "uint256",
          "name": "dealCreationBlock",
          "type": "uint256"
        },
        {
          "components": [
            {
              "internalType": "bytes4",
              "name": "prefixes",
              "type": "bytes4"
            },
            {
              "internalType": "bytes32",
              "name": "hash",
              "type": "bytes32"
            }
          ],
          "indexed": false,
          "internalType": "struct CIDV1",
          "name": "appCID",
          "type": "tuple"
        }
      ],
      "name": "ComputeProviderMatched",
      "type": "event"
    },
    {
      "anonymous": false,
      "inputs": [
        {
          "indexed": false,
          "internalType": "address",
          "name": "computeProvider",
          "type": "address"
        },
        {
          "indexed": false,
          "internalType": "uint256",
          "name": "minPricePerEpoch",
          "type": "uint256"
        },
        {
          "indexed": false,
          "internalType": "uint256",
          "name": "maxCollateral",
          "type": "uint256"
        },
        {
          "indexed": false,
          "internalType": "contract IERC20",
          "name": "paymentToken",
          "type": "address"
        },
        {
          "components": [
            {
              "internalType": "bytes4",
              "name": "prefixes",
              "type": "bytes4"
            },
            {
              "internalType": "bytes32",
              "name": "hash",
              "type": "bytes32"
            }
          ],
          "indexed": false,
          "internalType": "struct CIDV1[]",
          "name": "effectors",
          "type": "tuple[]"
        }
      ],
      "name": "ComputeProviderRegistered",
      "type": "event"
    },
    {
      "anonymous": false,
      "inputs": [
        {
          "indexed": false,
          "internalType": "address",
          "name": "computeProvider",
          "type": "address"
        }
      ],
      "name": "ComputeProviderRemoved",
      "type": "event"
    },
    {
      "anonymous": false,
      "inputs": [
        {
          "indexed": false,
          "internalType": "address",
          "name": "computeProvider",
          "type": "address"
        },
        {
          "components": [
            {
              "internalType": "bytes4",
              "name": "prefixes",
              "type": "bytes4"
            },
            {
              "internalType": "bytes32",
              "name": "hash",
              "type": "bytes32"
            }
          ],
          "indexed": false,
          "internalType": "struct CIDV1",
          "name": "effector",
          "type": "tuple"
        }
      ],
      "name": "EffectorAdded",
      "type": "event"
    },
    {
      "anonymous": false,
      "inputs": [
        {
          "indexed": false,
          "internalType": "address",
          "name": "computeProvider",
          "type": "address"
        },
        {
          "components": [
            {
              "internalType": "bytes4",
              "name": "prefixes",
              "type": "bytes4"
            },
            {
              "internalType": "bytes32",
              "name": "hash",
              "type": "bytes32"
            }
          ],
          "indexed": false,
          "internalType": "struct CIDV1",
          "name": "effector",
          "type": "tuple"
        }
      ],
      "name": "EffectorRemoved",
      "type": "event"
    },
    {
      "anonymous": false,
      "inputs": [
        {
          "indexed": false,
          "internalType": "uint8",
          "name": "version",
          "type": "uint8"
        }
      ],
      "name": "Initialized",
      "type": "event"
    },
    {
      "anonymous": false,
      "inputs": [
        {
          "indexed": false,
          "internalType": "address",
          "name": "computeProvider",
          "type": "address"
        },
        {
          "indexed": false,
          "internalType": "uint256",
          "name": "newMaxCollateral",
          "type": "uint256"
        }
      ],
      "name": "MaxCollateralChanged",
      "type": "event"
    },
    {
      "anonymous": false,
      "inputs": [
        {
          "indexed": false,
          "internalType": "address",
          "name": "computeProvider",
          "type": "address"
        },
        {
          "indexed": false,
          "internalType": "uint256",
          "name": "newMinPricePerEpoch",
          "type": "uint256"
        }
      ],
      "name": "MinPricePerEpochChanged",
      "type": "event"
    },
    {
      "anonymous": false,
      "inputs": [
        {
          "indexed": false,
          "internalType": "address",
          "name": "computeProvider",
          "type": "address"
        },
        {
          "indexed": false,
          "internalType": "contract IERC20",
          "name": "newPaymentToken",
          "type": "address"
        }
      ],
      "name": "PaymentTokenChanged",
      "type": "event"
    },
    {
      "anonymous": false,
      "inputs": [
        {
          "indexed": true,
          "internalType": "address",
          "name": "implementation",
          "type": "address"
        }
      ],
      "name": "Upgraded",
      "type": "event"
    },
    {
      "anonymous": false,
      "inputs": [
        {
          "indexed": false,
          "internalType": "bytes32",
          "name": "peerId",
          "type": "bytes32"
        },
        {
          "indexed": false,
          "internalType": "uint256",
          "name": "newWorkerSlots",
          "type": "uint256"
        }
      ],
      "name": "WorkersSlotsChanged",
      "type": "event"
    },
    {
      "inputs": [
        {
          "components": [
            {
              "internalType": "bytes4",
              "name": "prefixes",
              "type": "bytes4"
            },
            {
              "internalType": "bytes32",
              "name": "hash",
              "type": "bytes32"
            }
          ],
          "internalType": "struct CIDV1",
          "name": "effector",
          "type": "tuple"
        }
      ],
      "name": "addEffector",
      "outputs": [],
      "stateMutability": "nonpayable",
      "type": "function"
    },
    {
      "inputs": [
        {
          "internalType": "bytes32",
          "name": "peerId",
          "type": "bytes32"
        },
        {
          "internalType": "uint256",
          "name": "workerSlots",
          "type": "uint256"
        }
      ],
      "name": "addWorkersSlots",
      "outputs": [],
      "stateMutability": "nonpayable",
      "type": "function"
    },
    {
      "inputs": [
        {
          "internalType": "uint256",
          "name": "newMaxCollateral",
          "type": "uint256"
        }
      ],
      "name": "changeMaxCollateral",
      "outputs": [],
      "stateMutability": "nonpayable",
      "type": "function"
    },
    {
      "inputs": [
        {
          "internalType": "uint256",
          "name": "newMinPricePerEpoch",
          "type": "uint256"
        }
      ],
      "name": "changeMinPricePerEpoch",
      "outputs": [],
      "stateMutability": "nonpayable",
      "type": "function"
    },
    {
      "inputs": [
        {
          "internalType": "contract IERC20",
          "name": "newPaymentToken",
          "type": "address"
        },
        {
          "internalType": "uint256",
          "name": "newMaxCollateral",
          "type": "uint256"
        }
      ],
      "name": "changePaymentToken",
      "outputs": [],
      "stateMutability": "nonpayable",
      "type": "function"
    },
    {
      "inputs": [
        {
          "internalType": "bytes32",
          "name": "",
          "type": "bytes32"
        }
      ],
      "name": "computePeerByPeerId",
      "outputs": [
        {
          "internalType": "uint256",
          "name": "freeWorkerSlots",
          "type": "uint256"
        }
      ],
      "stateMutability": "view",
      "type": "function"
    },
    {
      "inputs": [
        {
          "internalType": "address",
          "name": "",
          "type": "address"
        }
      ],
      "name": "computeProviderByOwner",
      "outputs": [
        {
          "internalType": "uint256",
          "name": "minPricePerEpoch",
          "type": "uint256"
        },
        {
          "internalType": "uint256",
          "name": "maxCollateral",
          "type": "uint256"
        },
        {
          "internalType": "contract IERC20",
          "name": "paymentToken",
          "type": "address"
        },
        {
          "internalType": "uint256",
          "name": "totalFreeWorkerSlots",
          "type": "uint256"
        }
      ],
      "stateMutability": "view",
      "type": "function"
    },
    {
      "inputs": [
        {
          "internalType": "bytes32",
          "name": "peerId",
          "type": "bytes32"
        }
      ],
      "name": "getFreeWorkersSolts",
      "outputs": [
        {
          "internalType": "uint256",
          "name": "",
          "type": "uint256"
        }
      ],
      "stateMutability": "view",
      "type": "function"
    },
    {
      "inputs": [],
      "name": "globalConfig",
      "outputs": [
        {
          "internalType": "contract IGlobalConfig",
          "name": "",
          "type": "address"
        }
      ],
      "stateMutability": "view",
      "type": "function"
    },
    {
      "inputs": [
        {
          "internalType": "contract ICore",
          "name": "deal",
          "type": "address"
        }
      ],
      "name": "matchWithDeal",
      "outputs": [],
      "stateMutability": "nonpayable",
      "type": "function"
    },
    {
      "inputs": [],
      "name": "proxiableUUID",
      "outputs": [
        {
          "internalType": "bytes32",
          "name": "",
          "type": "bytes32"
        }
      ],
      "stateMutability": "view",
      "type": "function"
    },
    {
      "inputs": [
        {
          "internalType": "uint256",
          "name": "minPricePerEpoch",
          "type": "uint256"
        },
        {
          "internalType": "uint256",
          "name": "maxCollateral",
          "type": "uint256"
        },
        {
          "internalType": "contract IERC20",
          "name": "paymentToken",
          "type": "address"
        },
        {
          "components": [
            {
              "internalType": "bytes4",
              "name": "prefixes",
              "type": "bytes4"
            },
            {
              "internalType": "bytes32",
              "name": "hash",
              "type": "bytes32"
            }
          ],
          "internalType": "struct CIDV1[]",
          "name": "effectors",
          "type": "tuple[]"
        }
      ],
      "name": "registerComputeProvider",
      "outputs": [],
      "stateMutability": "nonpayable",
      "type": "function"
    },
    {
      "inputs": [],
      "name": "removeComputeProvider",
      "outputs": [],
      "stateMutability": "nonpayable",
      "type": "function"
    },
    {
      "inputs": [
        {
          "components": [
            {
              "internalType": "bytes4",
              "name": "prefixes",
              "type": "bytes4"
            },
            {
              "internalType": "bytes32",
              "name": "hash",
              "type": "bytes32"
            }
          ],
          "internalType": "struct CIDV1",
          "name": "effector",
          "type": "tuple"
        }
      ],
      "name": "removeEffector",
      "outputs": [],
      "stateMutability": "nonpayable",
      "type": "function"
    },
    {
      "inputs": [
        {
          "internalType": "address",
          "name": "owner",
          "type": "address"
        },
        {
          "internalType": "bool",
          "name": "hasAccess",
          "type": "bool"
        }
      ],
      "name": "setWhiteList",
      "outputs": [],
      "stateMutability": "nonpayable",
      "type": "function"
    },
    {
      "inputs": [
        {
          "internalType": "bytes32",
          "name": "peerId",
          "type": "bytes32"
        },
        {
          "internalType": "uint256",
          "name": "workerSlots",
          "type": "uint256"
        }
      ],
      "name": "subWorkersSlots",
      "outputs": [],
      "stateMutability": "nonpayable",
      "type": "function"
    },
    {
      "inputs": [
        {
          "internalType": "address",
          "name": "newImplementation",
          "type": "address"
        }
      ],
      "name": "upgradeTo",
      "outputs": [],
      "stateMutability": "nonpayable",
      "type": "function"
    },
    {
      "inputs": [
        {
          "internalType": "address",
          "name": "newImplementation",
          "type": "address"
        },
        {
          "internalType": "bytes",
          "name": "data",
          "type": "bytes"
        }
      ],
      "name": "upgradeToAndCall",
      "outputs": [],
      "stateMutability": "payable",
      "type": "function"
    },
    {
      "inputs": [
        {
          "internalType": "address",
          "name": "",
          "type": "address"
        }
      ],
      "name": "whitelist",
      "outputs": [
        {
          "internalType": "bool",
          "name": "",
          "type": "bool"
        }
      ],
      "stateMutability": "view",
      "type": "function"
    }
  ],
  "transactionHash": "0x3a736f0d2fcfa695ee35ac96e7843d5803e70f7759267fce64ad7e43ecbc2078",
  "args": [
    "0x79EeA23C90e7D142D903833AB6F835aC06cCbAce"
  ],
  "numDeployments": 1,
  "solcInputHash": "9aa805292f646e79c2fd4915f738aa67",
  "bytecode": "0x60c034620000b557601f620035a638819003918201601f19168301916001600160401b03831184841017620000ba57808492602094604052833981010312620000b557516001600160a01b0381168103620000b5576080523060a0526040516134d59081620000d182396080518181816102380152818161070801528181610b630152818161125a0152818161133701528181611f7201526122e4015260a051818181611da301528181611ee8015261225a0152f35b600080fd5b634e487b7160e01b600052604160045260246000fdfe610120604052600436101561001357600080fd5b60003560e01c80633659cfe6146122275780634f1ef28614611e5d57806352d1902d14611d7b57806355eb409a14611a7a578063571458481461193357806359a6bf5f146117d25780635a733e9b146117665780635c768997146115aa5780636868bda31461158e57806373e8f7e9146114575780637f178450146113f15780638d14e127146112ca5780639b19251a1461127e578063a7c1abe01461122d578063b63af4b1146110cb578063bb785b551461109f578063bd032f0d1461109f578063c6c44ed1146101c15763f6ee7139146100ee57600080fd5b346101bc577f1eaffb28f02e49aa8dce586ac73116a047f91a8116d887ed4e72496a2f10283f604061011f366125b3565b8160005260206001815261019761016861013d848760002054612cb0565b93856000526001845284876000205584156101a2575b33600052600084526001876000200154612af5565b336000526000835273ffffffffffffffffffffffffffffffffffffffff60028760002001541633903090612b08565b8351928352820152a1005b33600052600684526101b78688600020613341565b610153565b600080fd5b346101bc5760206003193601126101bc576004358060805273ffffffffffffffffffffffffffffffffffffffff8116036101bc576040517fc45a015500000000000000000000000000000000000000000000000000000000815260208160048173ffffffffffffffffffffffffffffffffffffffff7f0000000000000000000000000000000000000000000000000000000000000000165afa908115610b145760009161104f575b50602073ffffffffffffffffffffffffffffffffffffffff916024604051809481937f4db44e6400000000000000000000000000000000000000000000000000000000835281608051166004840152165afa908115610b1457600091611030575b5015610fec576040517f68f1e99a00000000000000000000000000000000000000000000000000000000815260208160048173ffffffffffffffffffffffffffffffffffffffff608051165afa908115610b1457600091610f9d575b506040517f2ed52a7700000000000000000000000000000000000000000000000000000000815260208160048173ffffffffffffffffffffffffffffffffffffffff608051165afa908115610b1457600091610f4e575b506040517f9bc6686800000000000000000000000000000000000000000000000000000000815273ffffffffffffffffffffffffffffffffffffffff831690604081600481855afa8015610b1457600060a052610f14575b506040517fb53105a3000000000000000000000000000000000000000000000000000000008152602081600481855afa8015610b1457600061010052610ee0575b50604051907f5fc8f59c000000000000000000000000000000000000000000000000000000008252602082600481845afa918215610b1457600092610eac575b506040517f8a0c725b000000000000000000000000000000000000000000000000000000008152602081600481855afa8015610b1457600060c052610e79575b506040517f17634514000000000000000000000000000000000000000000000000000000008152602081600481855afa8015610b1457600060e052610e45575b506020600491604051928380927f2943dcab0000000000000000000000000000000000000000000000000000000082525afa908115610b1457600091610e13575b50604051907f4e75f63000000000000000000000000000000000000000000000000000000000825260208260048173ffffffffffffffffffffffffffffffffffffffff88165afa908115610b1457600091610ddd575b6105779250612cb0565b92600354925b8380151580610dd4575b15610dd2578060601c8060005260006020526001604060002001549085604060002054118015610dc6575b8015610db5575b610d99578660601c600052600660205260406000208054805b61067a57505050506000526005602052600160406000200154937f75b7752ab93f69b3f56f714070d5d77bb1be0aa312e598f06a83430230705e1a60806040519273ffffffffffffffffffffffffffffffffffffffff825116845260e05160208501526106706040850160a051602080917fffffffff0000000000000000000000000000000000000000000000000000000081511684520151910152565b60601c92a261057d565b80600052600160205260406000205460c051818111600014610d935750805b8b8211610d8b575b81818103610d6e575050816000526001602052600060408120556106c58284613341565b6040517fac027f9700000000000000000000000000000000000000000000000000000000815260208160048173ffffffffffffffffffffffffffffffffffffffff7f0000000000000000000000000000000000000000000000000000000000000000165afa908115610b14576107ac91602091600091610d51575b5061074e8461010051612af5565b6040517f095ea7b300000000000000000000000000000000000000000000000000000000815273ffffffffffffffffffffffffffffffffffffffff8c8116600483015260248201929092529384929183916000919083906044820190565b0393165af18015610b1457610d32575b5060005b818110610c8857506107d56101005186612cb0565b80610b20575b506040519a7ff3b6a45d000000000000000000000000000000000000000000000000000000008c5260008c60048173ffffffffffffffffffffffffffffffffffffffff8c165afa9b8c15610b145760009c6109c5575b509082918c519c6108418e612fcc565b906040519e8f926108529084612538565b80835261085e90612fcc565b7fffffffffffffffffffffffffffffffffffffffffffffffffffffffffffffffe0013660208401378051916000905b8382106109945750505050906108a291612cb0565b9a6040519060a0820173ffffffffffffffffffffffffffffffffffffffff60805116835260a060208401528151809152602060c084019201906000905b80821061097857505060e05160408401525060a05180517fffffffff000000000000000000000000000000000000000000000000000000001660608401526020015160808301527f55e61a24ecdae954582245e5e611fb06905d6af967334fff4db72793bebc72a9919081900390a28860601c6000526006602052600260406000200190600052602052600160406000200154806105d2565b82518452869550602093840193909201916001909101906108df565b8293949596506109b3826109ab816109b996612fe4565b515192612fe4565b52612a5a565b9085949392918f61088d565b909b503d806000833e6109d88183612538565b60208282810103126101bc5781519067ffffffffffffffff82116101bc57808301601f8385010112156101bc578183015190610a1382612fcc565b93610a216040519586612538565b82855260208501828201602060e086028785010101116101bc57602085830101905b602060e0860287850101018210610a61575050505050509a8c610831565b60e08285850103126101bc576040518060e081011067ffffffffffffffff60e083011117610ae55760e0918183602093016040528451815282850151838201526040850151604082015260608501516060820152610ac16080860161289b565b608082015260a085015160a082015260c085015160c0820152815201910190610a43565b7f4e487b7100000000000000000000000000000000000000000000000000000000600052604160045260246000fd5b6040513d6000823e3d90fd5b6040517fac027f9700000000000000000000000000000000000000000000000000000000815260208160048173ffffffffffffffffffffffffffffffffffffffff7f0000000000000000000000000000000000000000000000000000000000000000165afa908115610b145773ffffffffffffffffffffffffffffffffffffffff9260209285610c1893600092610c57575b50610bbd9192612af5565b60006040519586809581947fa9059cbb0000000000000000000000000000000000000000000000000000000083528d600484016020909392919373ffffffffffffffffffffffffffffffffffffffff60408201951681520152565b0393165af18015610b1457156107db57610c499060203d602011610c50575b610c418183612538565b810190612b86565b508b6107db565b503d610c37565b610bbd9250610c7b90863d8811610c81575b610c738183612538565b810190612fa0565b91610bb2565b503d610c69565b73ffffffffffffffffffffffffffffffffffffffff88163b156101bc576040517fc44a916d00000000000000000000000000000000000000000000000000000000815260608c901c600482015260248101849052906000826044818373ffffffffffffffffffffffffffffffffffffffff8e165af18015610b1457610d17575b610d129150612a5a565b6107c0565b67ffffffffffffffff8211610ae557610d1291604052610d08565b610d4a9060203d602011610c5057610c418183612538565b508b6107bc565b610d689150823d8411610c8157610c738183612538565b8e610740565b610d7791612cb0565b8260005260016020526040600020556106c5565b8b91506106a1565b90610699565b505090935060005260056020526001604060002001549261057d565b50610dc08186612ff8565b156105b9565b506101005182106105b2565b005b50851515610587565b90506020823d602011610e0b575b81610df860209383612538565b810103126101bc5761057791519061056d565b3d9150610deb565b90506020813d602011610e3d575b81610e2e60209383612538565b810103126101bc575184610517565b3d9150610e21565b6020813d602011610e71575b81610e5e60209383612538565b810103126101bc575160e05260206104d6565b3d9150610e51565b6020813d602011610ea4575b81610e9260209383612538565b810103126101bc575160c05284610496565b3d9150610e85565b9091506020813d602011610ed8575b81610ec860209383612538565b810103126101bc57519084610456565b3d9150610ebb565b6020813d602011610f0c575b81610ef960209383612538565b810103126101bc57516101005283610416565b3d9150610eec565b60403d604011610f47575b610f298183612538565b81016040828203126101bc57610f3e91612f4e565b60a052836103d5565b503d610f1f565b90506020813d602011610f95575b81610f6960209383612538565b810103126101bc575173ffffffffffffffffffffffffffffffffffffffff811681036101bc578261037d565b3d9150610f5c565b90506020813d602011610fe4575b81610fb860209383612538565b810103126101bc575173ffffffffffffffffffffffffffffffffffffffff811681036101bc5781610326565b3d9150610fab565b606460405162461bcd60e51b815260206004820152601860248201527f4465616c206973206e6f742066726f6d20666163746f727900000000000000006044820152fd5b611049915060203d602011610c5057610c418183612538565b816102ca565b90506020813d602011611097575b8161106a60209383612538565b810103126101bc575173ffffffffffffffffffffffffffffffffffffffff811681036101bc576020610269565b3d915061105d565b346101bc5760206003193601126101bc5760043560005260016020526020604060002054604051908152f35b346101bc5760406003193601126101bc576110e4612ac6565b6040517fffffffff00000000000000000000000000000000000000000000000000000000909116602080830191825260248035908401529161115181604481015b037fffffffffffffffffffffffffffffffffffffffffffffffffffffffffffffffe08101835282612538565b519020903360005260078152604060002082600052815260ff604060002054166111e957336000526007815260406000209160005252604060002060017fffffffffffffffffffffffffffffffffffffffffffffffffffffffffffffff008254161790557f745c8d0f0a46a84d996b0f143854bf38e5c21b3a180895fca9d6c17654c35389604051806111e43382612ef2565b0390a1005b6064906040519062461bcd60e51b82526004820152601760248201527f4566666563746f7220616c7265616479206578697374730000000000000000006044820152fd5b346101bc5760006003193601126101bc57602060405173ffffffffffffffffffffffffffffffffffffffff7f0000000000000000000000000000000000000000000000000000000000000000168152f35b346101bc5760206003193601126101bc5773ffffffffffffffffffffffffffffffffffffffff6112ac6124dd565b166000526002602052602060ff604060002054166040519015158152f35b346101bc5760406003193601126101bc576112e36124dd565b602435908115158092036101bc57604051907f8da5cb5b00000000000000000000000000000000000000000000000000000000825273ffffffffffffffffffffffffffffffffffffffff91602081600481867f0000000000000000000000000000000000000000000000000000000000000000165afa8015610b145783906000906113b5575b61137692501633146128bc565b16600052600260205260406000209060ff7fffffffffffffffffffffffffffffffffffffffffffffffffffffffffffffff008354169116179055600080f35b50506020813d82116113e9575b816113cf60209383612538565b810103126101bc57826113e46113769261289b565b611369565b3d91506113c2565b346101bc5760206003193601126101bc577fa55f70960fade7ac9823693b7234ce8261649fa77567ca96b5a0bc76eea00c3c6111e460043561143481151561292d565b8061143e33612d08565b5560408051338152602081019290925290918291820190565b346101bc5760406003193601126101bc57611470612ac6565b6040517fffffffff0000000000000000000000000000000000000000000000000000000090911660208083019182526024803590840152916114b58160448101611125565b5190209033600052600781526040600020826000528152600160ff6040600020541615150361154a5733600052600781526040600020916000525260406000207fffffffffffffffffffffffffffffffffffffffffffffffffffffffffffffff0081541690557f6e9663aceecefa351da298ff43f1b4ee80da411530c55352ba1d5c787118bd21604051806111e43382612ef2565b6064906040519062461bcd60e51b82526004820152601660248201527f4566666563746f7220646f65736e2774206578697374000000000000000000006044820152fd5b346101bc5760206003193601126101bc57610dd2600435612d41565b346101bc5760006003193601126101bc5761163b6115c733612d08565b600281016000815473ffffffffffffffffffffffffffffffffffffffff8116926115f2841515612cbd565b7fffffffffffffffffffffffff00000000000000000000000000000000000000006001860192848454948161162d60038b0197885490612af5565b995555169055553390612e8b565b7fffffffffffffffffffffffffffffffffffffffff0000000000000000000000003360601b1680600052602060058152604060002060016040519161167f83612500565b805483520154828201908152611695848361341a565b15611722577f1a9d4a5597d6ea11c9f37af1e8c69914b216e3b22aa6ca6e6387f24d7657647d9360005260058352600060016040822082815501558151801515600014611717578151906000526001604060002001555b5190811561170d575190600052600582526040600020555b604051338152a1005b5160045550611704565b5080516003556116ec565b6064836040519062461bcd60e51b82526004820152601260248201527f4b657920646f6573206e6f7420657869737400000000000000000000000000006044820152fd5b346101bc5760206003193601126101bc57608073ffffffffffffffffffffffffffffffffffffffff806117976124dd565b166000526000602052604060002090815491600360018201549260028301541691015491604051938452602084015260408301526060820152f35b346101bc576117e0366125b3565b80156118c957816000526020916001835260406000205482810180911161189a577f1eaffb28f02e49aa8dce586ac73116a047f91a8116d887ed4e72496a2f10283f9361019761185660409585600052600184528487600020558085146118855733600052600084526001876000200154612af5565b336000526000835273ffffffffffffffffffffffffffffffffffffffff60028760002001541630903390612b08565b33600052600684526101b786886000206132ce565b7f4e487b7100000000000000000000000000000000000000000000000000000000600052601160045260246000fd5b608460405162461bcd60e51b815260206004820152602560248201527f576f726b657220736c6f74732073686f756c642062652067726561746572207460448201527f68616e20300000000000000000000000000000000000000000000000000000006064820152fd5b346101bc5760406003193601126101bc5761194c6124dd565b73ffffffffffffffffffffffffffffffffffffffff908181168015611a1057611a026040926119f87f2bd8c5354233e1142193df7977bd89f7ad57b724087278bad86db1e15fc3033b956119ef6119a233612d08565b9160028301805490887fffffffffffffffffffffffff000000000000000000000000000000000000000083161790556119e660036001860154950194855490612af5565b91339116612e8b565b54602435612af5565b9030903390612b08565b8151903382526020820152a1005b608460405162461bcd60e51b815260206004820152602860248201527f5061796d656e7420746f6b656e2073686f756c64206265206e6f74207a65726f60448201527f20616464726573730000000000000000000000000000000000000000000000006064820152fd5b346101bc5760806003193601126101bc5760043560243560443573ffffffffffffffffffffffffffffffffffffffff908181168091036101bc576064359367ffffffffffffffff908186116101bc57366023870112156101bc578560040135928284116101bc576024870196602436918660061b0101116101bc57611b0082151561292d565b611b0b86151561299e565b611b16811515612a0f565b3360005260209260008452611b35866002604060002001541615612a0f565b604051906080820190811182821017610ae557604096959496528281526003868201888152604083018481526060840191600083523360005260008a52604060002094518555519760019889860155600285019151167fffffffffffffffffffffffff000000000000000000000000000000000000000082541617905551910155611be47fffffffffffffffffffffffffffffffffffffffff0000000000000000000000003360601b166131d8565b60005b838110611c9b57509082916040519660a0880192338952878901526040880152606087015260a060808701525260c08401949260005b828110611c4c577f658bee377ff55ceae5c8883fc1d0ec604e9179fba1a50f0f094091cefa2eef0486880387a1005b90919293958635907fffffffff0000000000000000000000000000000000000000000000000000000082168092036101bc57908152868301358382015260409081019601939291908301611c1d565b611caa81858a98969798612a87565b35907fffffffff00000000000000000000000000000000000000000000000000000000821682036101bc57611d7291611125611d2a87611ceb858b8f612a87565b01356040519283918a8301958690917fffffffff0000000000000000000000000000000000000000000000000000000060249316825260048201520190565b519020336000526007865260406000209060005285526040600020877fffffffffffffffffffffffffffffffffffffffffffffffffffffffffffffff00825416179055612a5a565b94939294611be7565b346101bc5760006003193601126101bc5773ffffffffffffffffffffffffffffffffffffffff7f0000000000000000000000000000000000000000000000000000000000000000163003611df35760206040517f360894a13ba1a3210667c828492db98dca3e2076cc3735a920a3ca505d382bbc8152f35b608460405162461bcd60e51b815260206004820152603860248201527f555550535570677261646561626c653a206d757374206e6f742062652063616c60448201527f6c6564207468726f7567682064656c656761746563616c6c00000000000000006064820152fd5b60406003193601126101bc57611e716124dd565b6024359067ffffffffffffffff82116101bc57366023830112156101bc578160040135611e9d81612579565b92611eab6040519485612538565b8184526020918285019136602483830101116101bc5781600092602486930185378601015273ffffffffffffffffffffffffffffffffffffffff807f00000000000000000000000000000000000000000000000000000000000000001690611f15823014156125c9565b611f447f360894a13ba1a3210667c828492db98dca3e2076cc3735a920a3ca505d382bbc92828454161461263a565b6040517f8da5cb5b0000000000000000000000000000000000000000000000000000000081528481600481857f0000000000000000000000000000000000000000000000000000000000000000165afa8015610b145782906000906121ef575b611fb192501633146128bc565b7f4910fdfa16fed3260ed0e7147f7cc6da11a60208b5b9406d12a635614ffd91435460ff1615611fe95750505050610dd291506126ab565b84939416906040517f52d1902d0000000000000000000000000000000000000000000000000000000081528581600481865afa600091816121c0575b50612094576084866040519062461bcd60e51b82526004820152602e60248201527f45524331393637557067726164653a206e657720696d706c656d656e7461746960448201527f6f6e206973206e6f7420555550530000000000000000000000000000000000006064820152fd5b03612156576120a2836126ab565b7fbc7cd75a20ee27fd9adebab32041f755214dbc6bffa90cc0225b39da2e5c2d3b600080a283511580159061214e575b6120d857005b60008091610dd2957f416464726573733a206c6f772d6c6576656c2064656c65676174652063616c6c6040519661210e8861251c565b602788528701527f206661696c65640000000000000000000000000000000000000000000000000060408701525190845af461214861277d565b916127ad565b5060016120d2565b6084846040519062461bcd60e51b82526004820152602960248201527f45524331393637557067726164653a20756e737570706f727465642070726f7860448201527f6961626c655555494400000000000000000000000000000000000000000000006064820152fd5b9091508681813d83116121e8575b6121d88183612538565b810103126101bc57519088612025565b503d6121ce565b50508481813d8311612220575b6122068183612538565b810103126101bc578161221b611fb19261289b565b611fa4565b503d6121fc565b346101bc576020806003193601126101bc576122416124dd565b73ffffffffffffffffffffffffffffffffffffffff91827f00000000000000000000000000000000000000000000000000000000000000001692612287843014156125c9565b6122b67f360894a13ba1a3210667c828492db98dca3e2076cc3735a920a3ca505d382bbc94828654161461263a565b6040517f8da5cb5b0000000000000000000000000000000000000000000000000000000081528281600481857f0000000000000000000000000000000000000000000000000000000000000000165afa8015610b145782906000906124a5575b61232392501633146128bc565b604051938285019185831067ffffffffffffffff841117610ae557826040526000865260ff7f4910fdfa16fed3260ed0e7147f7cc6da11a60208b5b9406d12a635614ffd914354166000146123805750505050610dd291506126ab565b84939416906040517f52d1902d0000000000000000000000000000000000000000000000000000000081528581600481865afa60009181612476575b5061242b576084866040519062461bcd60e51b82526004820152602e60248201527f45524331393637557067726164653a206e657720696d706c656d656e7461746960448201527f6f6e206973206e6f7420555550530000000000000000000000000000000000006064820152fd5b0361215657612439836126ab565b7fbc7cd75a20ee27fd9adebab32041f755214dbc6bffa90cc0225b39da2e5c2d3b600080a283511580159061246e576120d857005b5060006120d2565b9091508681813d831161249e575b61248e8183612538565b810103126101bc575190886123bc565b503d612484565b50508281813d83116124d6575b6124bc8183612538565b810103126101bc57816124d16123239261289b565b612316565b503d6124b2565b6004359073ffffffffffffffffffffffffffffffffffffffff821682036101bc57565b6040810190811067ffffffffffffffff821117610ae557604052565b6060810190811067ffffffffffffffff821117610ae557604052565b90601f7fffffffffffffffffffffffffffffffffffffffffffffffffffffffffffffffe0910116810190811067ffffffffffffffff821117610ae557604052565b67ffffffffffffffff8111610ae557601f017fffffffffffffffffffffffffffffffffffffffffffffffffffffffffffffffe01660200190565b60031960409101126101bc576004359060243590565b156125d057565b608460405162461bcd60e51b815260206004820152602c60248201527f46756e6374696f6e206d7573742062652063616c6c6564207468726f7567682060448201527f64656c656761746563616c6c00000000000000000000000000000000000000006064820152fd5b1561264157565b608460405162461bcd60e51b815260206004820152602c60248201527f46756e6374696f6e206d7573742062652063616c6c6564207468726f7567682060448201527f6163746976652070726f787900000000000000000000000000000000000000006064820152fd5b803b156127135773ffffffffffffffffffffffffffffffffffffffff7f360894a13ba1a3210667c828492db98dca3e2076cc3735a920a3ca505d382bbc91167fffffffffffffffffffffffff0000000000000000000000000000000000000000825416179055565b608460405162461bcd60e51b815260206004820152602d60248201527f455243313936373a206e657720696d706c656d656e746174696f6e206973206e60448201527f6f74206120636f6e7472616374000000000000000000000000000000000000006064820152fd5b3d156127a8573d9061278e82612579565b9161279c6040519384612538565b82523d6000602084013e565b606090565b9192901561280e57508151156127c1575090565b3b156127ca5790565b606460405162461bcd60e51b815260206004820152601d60248201527f416464726573733a2063616c6c20746f206e6f6e2d636f6e74726163740000006044820152fd5b8251909150156128215750805190602001fd5b6040519062461bcd60e51b825281602080600483015282519283602484015260005b848110612884575050507fffffffffffffffffffffffffffffffffffffffffffffffffffffffffffffffe0601f836000604480968601015201168101030190fd5b818101830151868201604401528593508201612843565b519073ffffffffffffffffffffffffffffffffffffffff821682036101bc57565b156128c357565b608460405162461bcd60e51b815260206004820152602160248201527f4f6e6c79206f776e65722063616e2063616c6c20746869732066756e6374696f60448201527f6e000000000000000000000000000000000000000000000000000000000000006064820152fd5b1561293457565b608460405162461bcd60e51b815260206004820152602c60248201527f4d696e207072696365207065722065706f63682073686f756c6420626520677260448201527f6561746572207468616e203000000000000000000000000000000000000000006064820152fd5b156129a557565b608460405162461bcd60e51b815260206004820152602760248201527f4d617820636f6c6c61746572616c2073686f756c64206265206772656174657260448201527f207468616e2030000000000000000000000000000000000000000000000000006064820152fd5b15612a1657565b606460405162461bcd60e51b815260206004820152601860248201527f436f6d707574652070726f766964657220616c726561647900000000000000006044820152fd5b7fffffffffffffffffffffffffffffffffffffffffffffffffffffffffffffffff811461189a5760010190565b9190811015612a975760061b0190565b7f4e487b7100000000000000000000000000000000000000000000000000000000600052603260045260246000fd5b6004357fffffffff00000000000000000000000000000000000000000000000000000000811681036101bc5790565b8181029291811591840414171561189a57565b9290604051927f23b872dd00000000000000000000000000000000000000000000000000000000602085015273ffffffffffffffffffffffffffffffffffffffff809216602485015216604483015260648201526064815260a081019181831067ffffffffffffffff841117610ae557612b8492604052612b9e565b565b908160209103126101bc575180151581036101bc5790565b73ffffffffffffffffffffffffffffffffffffffff16604051604081019181831067ffffffffffffffff841117610ae557612c15926040526000806020958685527f5361666545524332303a206c6f772d6c6576656c2063616c6c206661696c656487860152868151910182855af161214861277d565b805190828215928315612c98575b50505015612c2e5750565b6084906040519062461bcd60e51b82526004820152602a60248201527f5361666545524332303a204552433230206f7065726174696f6e20646964206e60448201527f6f742073756363656564000000000000000000000000000000000000000000006064820152fd5b612ca89350820181019101612b86565b388281612c23565b9190820391821161189a57565b15612cc457565b606460405162461bcd60e51b815260206004820152601e60248201527f436f6d707574652070726f766964657220646f65736e277420657869737400006044820152fd5b73ffffffffffffffffffffffffffffffffffffffff8091166000526000602052612d3e6040600020916002830154161515612cbd565b90565b612d4c81151561299e565b612d5533612d08565b906001820190815491818314612e4757819055600383018054938415612e405782847fa8c62389b31fc6dfc3c0ec83e30a55441144e480af1c0721cf27c7c88f2995259682612dfa9711600014612dff575092612db8612dc092612de295612cb0565b905490612af5565b9073ffffffffffffffffffffffffffffffffffffffff60023392015416612e8b565b60408051338152602081019290925290918291820190565b0390a1565b612e3b9450612e2e90612e2960029373ffffffffffffffffffffffffffffffffffffffff95612cb0565b612af5565b9201541630903390612b08565b612de2565b5050505050565b606460405162461bcd60e51b815260206004820152601a60248201527f4d617820636f6c6c61746572616c206973207468652073616d650000000000006044820152fd5b6040517fa9059cbb00000000000000000000000000000000000000000000000000000000602082015273ffffffffffffffffffffffffffffffffffffffff929092166024830152604480830193909352918152612b8491612eed606483612538565b612b9e565b91909173ffffffffffffffffffffffffffffffffffffffff60608201931681526004357fffffffff0000000000000000000000000000000000000000000000000000000081168091036101bc5760208201526040602435910152565b91908260409103126101bc57604051612f6681612500565b809280517fffffffff00000000000000000000000000000000000000000000000000000000811681036101bc578252602090810151910152565b908160209103126101bc575173ffffffffffffffffffffffffffffffffffffffff811681036101bc5790565b67ffffffffffffffff8111610ae55760051b60200190565b8051821015612a975760209160051b010190565b906040918251927ffc1e5e2a000000000000000000000000000000000000000000000000000000008452600092838560048173ffffffffffffffffffffffffffffffffffffffff8097165afa9485156131ce578495613121575b50835b8551811015613116577fffffffff000000000000000000000000000000000000000000000000000000006130898288612fe4565b5151166020906111256130df836130a0868c612fe4565b5101518751928391868301958690917fffffffff0000000000000000000000000000000000000000000000000000000060249316825260048201520190565b519020908584168752600781528487209187525260ff83862054161561310d5761310890612a5a565b613055565b50505050905090565b505050505050600190565b9094503d8085833e6131338183612538565b81019060209081818403126131c65780519067ffffffffffffffff82116131ca57019082601f830112156131c657815161316c81612fcc565b9361317986519586612538565b818552828086019260061b850101938185116131c25783879101925b8584106131a9575050505050509338613052565b84906131b58486612f4e565b8152019201918690613195565b8880fd5b8580fd5b8680fd5b82513d86823e3d90fd5b600454811561328a576000908282526005602052613213836040842060016040519161320383612500565b805483520154602082015261341a565b61324657801561323b5760019160409184600455848252600560205280838320558152200155565b505080600355600455565b606460405162461bcd60e51b815260206004820152601260248201527f4b657920616c72656164792065786973747300000000000000000000000000006044820152fd5b606460405162461bcd60e51b815260206004820152601260248201527f4b65792063616e6e6f74206265205a45524f00000000000000000000000000006044820152fd5b60018101908154831561328a576002820160009285845281602052613311866040862060016040519161330083612500565b80548352015460208201528361345c565b613246578590831561333a57509060409392916001955585835260205280838320558152200155565b5550505055565b90600282016000908282528060205260409283832090600185519261336584612500565b805484520154906020830191825261337e81848961345c565b156133d75784526020839052848420848155600101849055815180156133cd578151908552600186862001555b519485156133bf5750519382526020522055565b905160019091015550505050565b50805186556133ab565b6064865162461bcd60e51b815260206004820152601260248201527f4b657920646f6573206e6f7420657869737400000000000000000000000000006044820152fd5b908151159182159261344e575b508115613442575b8115613439575090565b90506004541490565b6003548114915061342f565b602001511515915038613427565b8151158015939290613491575b508215613486575b821561347c57505090565b6001015414919050565b805482149250613471565b60200151151592503861346956fea2646970667358221220c35835af5e554210a211e13cccd8fa7d71fa1695a7b5ecf75ca1b10d58964c6564736f6c63430008110033",
  "devdoc": {
    "kind": "dev",
    "methods": {
      "proxiableUUID()": {
        "details": "Implementation of the ERC1822 {proxiableUUID} function. This returns the storage slot used by the implementation. It is used to validate the implementation's compatibility when performing an upgrade. IMPORTANT: A proxy pointing at a proxiable contract should not be considered proxiable itself, because this risks bricking a proxy that upgrades to it, by delegating to itself until out of gas. Thus it is critical that this function revert if invoked through a proxy. This is guaranteed by the `notDelegated` modifier."
      },
      "upgradeTo(address)": {
        "custom:oz-upgrades-unsafe-allow-reachable": "delegatecall",
        "details": "Upgrade the implementation of the proxy to `newImplementation`. Calls {_authorizeUpgrade}. Emits an {Upgraded} event."
      },
      "upgradeToAndCall(address,bytes)": {
        "custom:oz-upgrades-unsafe-allow-reachable": "delegatecall",
        "details": "Upgrade the implementation of the proxy to `newImplementation`, and subsequently execute the function call encoded in `data`. Calls {_authorizeUpgrade}. Emits an {Upgraded} event."
      }
    },
    "version": 1
  },
  "userdoc": {
    "kind": "user",
    "methods": {},
    "version": 1
  },
  "storageLayout": {
    "storage": [
      {
        "astId": 6895,
        "contract": "contracts/global/Matcher.sol:Matcher",
        "label": "computeProviderByOwner",
        "offset": 0,
        "slot": "0",
        "type": "t_mapping(t_address,t_struct(ComputeProvider)6799_storage)"
      },
      {
        "astId": 6900,
        "contract": "contracts/global/Matcher.sol:Matcher",
        "label": "computePeerByPeerId",
        "offset": 0,
        "slot": "1",
        "type": "t_mapping(t_bytes32,t_struct(ComputePeer)6802_storage)"
      },
      {
        "astId": 6904,
        "contract": "contracts/global/Matcher.sol:Matcher",
        "label": "whitelist",
        "offset": 0,
        "slot": "2",
        "type": "t_mapping(t_address,t_bool)"
      },
      {
        "astId": 6907,
        "contract": "contracts/global/Matcher.sol:Matcher",
        "label": "_computeProvidersList",
        "offset": 0,
        "slot": "3",
        "type": "t_struct(Bytes32List)8276_storage"
      },
      {
        "astId": 6912,
        "contract": "contracts/global/Matcher.sol:Matcher",
        "label": "_computePeersListByProvider",
        "offset": 0,
        "slot": "6",
        "type": "t_mapping(t_address,t_struct(Bytes32List)8276_storage)"
      },
      {
        "astId": 6918,
        "contract": "contracts/global/Matcher.sol:Matcher",
        "label": "_effectorsByComputePeerOwner",
        "offset": 0,
        "slot": "7",
        "type": "t_mapping(t_address,t_mapping(t_bytes32,t_bool))"
      },
      {
        "astId": 503,
        "contract": "contracts/global/Matcher.sol:Matcher",
        "label": "_initialized",
        "offset": 0,
        "slot": "8",
        "type": "t_uint8"
      },
      {
        "astId": 506,
        "contract": "contracts/global/Matcher.sol:Matcher",
        "label": "_initializing",
        "offset": 1,
        "slot": "8",
        "type": "t_bool"
      },
      {
        "astId": 485,
        "contract": "contracts/global/Matcher.sol:Matcher",
        "label": "__gap",
        "offset": 0,
        "slot": "9",
        "type": "t_array(t_uint256)50_storage"
      },
      {
        "astId": 800,
        "contract": "contracts/global/Matcher.sol:Matcher",
        "label": "__gap",
        "offset": 0,
        "slot": "59",
        "type": "t_array(t_uint256)50_storage"
      }
    ],
    "types": {
      "t_address": {
        "encoding": "inplace",
        "label": "address",
        "numberOfBytes": "20"
      },
      "t_array(t_uint256)50_storage": {
        "base": "t_uint256",
        "encoding": "inplace",
        "label": "uint256[50]",
        "numberOfBytes": "1600"
      },
      "t_bool": {
        "encoding": "inplace",
        "label": "bool",
        "numberOfBytes": "1"
      },
      "t_bytes32": {
        "encoding": "inplace",
        "label": "bytes32",
        "numberOfBytes": "32"
      },
      "t_contract(IERC20)2611": {
        "encoding": "inplace",
        "label": "contract IERC20",
        "numberOfBytes": "20"
      },
      "t_mapping(t_address,t_bool)": {
        "encoding": "mapping",
        "key": "t_address",
        "label": "mapping(address => bool)",
        "numberOfBytes": "32",
        "value": "t_bool"
      },
      "t_mapping(t_address,t_mapping(t_bytes32,t_bool))": {
        "encoding": "mapping",
        "key": "t_address",
        "label": "mapping(address => mapping(bytes32 => bool))",
        "numberOfBytes": "32",
        "value": "t_mapping(t_bytes32,t_bool)"
      },
      "t_mapping(t_address,t_struct(Bytes32List)8276_storage)": {
        "encoding": "mapping",
        "key": "t_address",
        "label": "mapping(address => struct LinkedList.Bytes32List)",
        "numberOfBytes": "32",
        "value": "t_struct(Bytes32List)8276_storage"
      },
      "t_mapping(t_address,t_struct(ComputeProvider)6799_storage)": {
        "encoding": "mapping",
        "key": "t_address",
        "label": "mapping(address => struct MatcherState.ComputeProvider)",
        "numberOfBytes": "32",
        "value": "t_struct(ComputeProvider)6799_storage"
      },
      "t_mapping(t_bytes32,t_bool)": {
        "encoding": "mapping",
        "key": "t_bytes32",
        "label": "mapping(bytes32 => bool)",
        "numberOfBytes": "32",
        "value": "t_bool"
      },
      "t_mapping(t_bytes32,t_struct(ComputePeer)6802_storage)": {
        "encoding": "mapping",
        "key": "t_bytes32",
        "label": "mapping(bytes32 => struct MatcherState.ComputePeer)",
        "numberOfBytes": "32",
        "value": "t_struct(ComputePeer)6802_storage"
      },
      "t_mapping(t_bytes32,t_struct(Element)8266_storage)": {
        "encoding": "mapping",
        "key": "t_bytes32",
        "label": "mapping(bytes32 => struct LinkedList.Element)",
        "numberOfBytes": "32",
        "value": "t_struct(Element)8266_storage"
      },
      "t_struct(Bytes32List)8276_storage": {
        "encoding": "inplace",
        "label": "struct LinkedList.Bytes32List",
        "members": [
          {
            "astId": 8268,
            "contract": "contracts/global/Matcher.sol:Matcher",
            "label": "_first",
            "offset": 0,
            "slot": "0",
            "type": "t_bytes32"
          },
          {
            "astId": 8270,
            "contract": "contracts/global/Matcher.sol:Matcher",
            "label": "_last",
            "offset": 0,
            "slot": "1",
            "type": "t_bytes32"
          },
          {
            "astId": 8275,
            "contract": "contracts/global/Matcher.sol:Matcher",
            "label": "_elements",
            "offset": 0,
            "slot": "2",
            "type": "t_mapping(t_bytes32,t_struct(Element)8266_storage)"
          }
        ],
        "numberOfBytes": "96"
      },
      "t_struct(ComputePeer)6802_storage": {
        "encoding": "inplace",
        "label": "struct MatcherState.ComputePeer",
        "members": [
          {
            "astId": 6801,
            "contract": "contracts/global/Matcher.sol:Matcher",
            "label": "freeWorkerSlots",
            "offset": 0,
            "slot": "0",
            "type": "t_uint256"
          }
        ],
        "numberOfBytes": "32"
      },
      "t_struct(ComputeProvider)6799_storage": {
        "encoding": "inplace",
        "label": "struct MatcherState.ComputeProvider",
        "members": [
          {
            "astId": 6791,
            "contract": "contracts/global/Matcher.sol:Matcher",
            "label": "minPricePerEpoch",
            "offset": 0,
            "slot": "0",
            "type": "t_uint256"
          },
          {
            "astId": 6793,
            "contract": "contracts/global/Matcher.sol:Matcher",
            "label": "maxCollateral",
            "offset": 0,
            "slot": "1",
            "type": "t_uint256"
          },
          {
            "astId": 6796,
            "contract": "contracts/global/Matcher.sol:Matcher",
            "label": "paymentToken",
            "offset": 0,
            "slot": "2",
            "type": "t_contract(IERC20)2611"
          },
          {
            "astId": 6798,
            "contract": "contracts/global/Matcher.sol:Matcher",
            "label": "totalFreeWorkerSlots",
            "offset": 0,
            "slot": "3",
            "type": "t_uint256"
          }
        ],
        "numberOfBytes": "128"
      },
      "t_struct(Element)8266_storage": {
        "encoding": "inplace",
        "label": "struct LinkedList.Element",
        "members": [
          {
            "astId": 8263,
            "contract": "contracts/global/Matcher.sol:Matcher",
            "label": "prev",
            "offset": 0,
            "slot": "0",
            "type": "t_bytes32"
          },
          {
            "astId": 8265,
            "contract": "contracts/global/Matcher.sol:Matcher",
            "label": "next",
            "offset": 0,
            "slot": "1",
            "type": "t_bytes32"
          }
        ],
        "numberOfBytes": "64"
      },
      "t_uint256": {
        "encoding": "inplace",
        "label": "uint256",
        "numberOfBytes": "32"
      },
      "t_uint8": {
        "encoding": "inplace",
        "label": "uint8",
        "numberOfBytes": "1"
      }
    }
  }
}