{
  "address": "0x7Bc9d87833E02d12d15DcDA2d19c33EeCB504D74",
  "abi": [
    {
      "inputs": [
        {
          "internalType": "contract IGlobalConfig",
          "name": "globalConfig_",
          "type": "address"
        }
      ],
      "stateMutability": "nonpayable",
      "type": "constructor"
    },
    {
      "anonymous": false,
      "inputs": [
        {
          "indexed": false,
          "internalType": "address",
          "name": "previousAdmin",
          "type": "address"
        },
        {
          "indexed": false,
          "internalType": "address",
          "name": "newAdmin",
          "type": "address"
        }
      ],
      "name": "AdminChanged",
      "type": "event"
    },
    {
      "anonymous": false,
      "inputs": [
        {
          "indexed": true,
          "internalType": "address",
          "name": "beacon",
          "type": "address"
        }
      ],
      "name": "BeaconUpgraded",
      "type": "event"
    },
    {
      "anonymous": false,
      "inputs": [
        {
          "indexed": true,
          "internalType": "bytes32",
          "name": "peerId",
          "type": "bytes32"
        },
        {
          "indexed": false,
          "internalType": "contract ICore",
          "name": "deal",
          "type": "address"
        },
        {
          "indexed": false,
          "internalType": "bytes32",
          "name": "patId",
          "type": "bytes32"
        },
        {
          "indexed": false,
          "internalType": "uint256",
          "name": "dealCreationBlock",
          "type": "uint256"
        },
        {
          "components": [
            {
              "internalType": "bytes4",
              "name": "prefixes",
              "type": "bytes4"
            },
            {
              "internalType": "bytes32",
              "name": "hash",
              "type": "bytes32"
            }
          ],
          "indexed": false,
          "internalType": "struct CIDV1",
          "name": "appCID",
          "type": "tuple"
        }
      ],
      "name": "ComputePeerMatched",
      "type": "event"
    },
    {
      "anonymous": false,
      "inputs": [
        {
          "indexed": true,
          "internalType": "address",
          "name": "computeProvider",
          "type": "address"
        },
        {
          "indexed": false,
          "internalType": "contract ICore",
          "name": "deal",
          "type": "address"
        },
        {
          "indexed": false,
          "internalType": "uint256",
          "name": "dealCreationBlock",
          "type": "uint256"
        },
        {
          "components": [
            {
              "internalType": "bytes4",
              "name": "prefixes",
              "type": "bytes4"
            },
            {
              "internalType": "bytes32",
              "name": "hash",
              "type": "bytes32"
            }
          ],
          "indexed": false,
          "internalType": "struct CIDV1",
          "name": "appCID",
          "type": "tuple"
        }
      ],
      "name": "ComputeProviderMatched",
      "type": "event"
    },
    {
      "anonymous": false,
      "inputs": [
        {
          "indexed": false,
          "internalType": "address",
          "name": "computeProvider",
          "type": "address"
        },
        {
          "indexed": false,
          "internalType": "uint256",
          "name": "minPricePerEpoch",
          "type": "uint256"
        },
        {
          "indexed": false,
          "internalType": "uint256",
          "name": "maxCollateral",
          "type": "uint256"
        },
        {
          "indexed": false,
          "internalType": "contract IERC20",
          "name": "paymentToken",
          "type": "address"
        },
        {
          "components": [
            {
              "internalType": "bytes4",
              "name": "prefixes",
              "type": "bytes4"
            },
            {
              "internalType": "bytes32",
              "name": "hash",
              "type": "bytes32"
            }
          ],
          "indexed": false,
          "internalType": "struct CIDV1[]",
          "name": "effectors",
          "type": "tuple[]"
        }
      ],
      "name": "ComputeProviderRegistered",
      "type": "event"
    },
    {
      "anonymous": false,
      "inputs": [
        {
          "indexed": false,
          "internalType": "address",
          "name": "computeProvider",
          "type": "address"
        }
      ],
      "name": "ComputeProviderRemoved",
      "type": "event"
    },
    {
      "anonymous": false,
      "inputs": [
        {
          "indexed": false,
          "internalType": "address",
          "name": "computeProvider",
          "type": "address"
        },
        {
          "components": [
            {
              "internalType": "bytes4",
              "name": "prefixes",
              "type": "bytes4"
            },
            {
              "internalType": "bytes32",
              "name": "hash",
              "type": "bytes32"
            }
          ],
          "indexed": false,
          "internalType": "struct CIDV1",
          "name": "effector",
          "type": "tuple"
        }
      ],
      "name": "EffectorAdded",
      "type": "event"
    },
    {
      "anonymous": false,
      "inputs": [
        {
          "indexed": false,
          "internalType": "address",
          "name": "computeProvider",
          "type": "address"
        },
        {
          "components": [
            {
              "internalType": "bytes4",
              "name": "prefixes",
              "type": "bytes4"
            },
            {
              "internalType": "bytes32",
              "name": "hash",
              "type": "bytes32"
            }
          ],
          "indexed": false,
          "internalType": "struct CIDV1",
          "name": "effector",
          "type": "tuple"
        }
      ],
      "name": "EffectorRemoved",
      "type": "event"
    },
    {
      "anonymous": false,
      "inputs": [
        {
          "indexed": false,
          "internalType": "uint8",
          "name": "version",
          "type": "uint8"
        }
      ],
      "name": "Initialized",
      "type": "event"
    },
    {
      "anonymous": false,
      "inputs": [
        {
          "indexed": false,
          "internalType": "address",
          "name": "computeProvider",
          "type": "address"
        },
        {
          "indexed": false,
          "internalType": "uint256",
          "name": "newMaxCollateral",
          "type": "uint256"
        }
      ],
      "name": "MaxCollateralChanged",
      "type": "event"
    },
    {
      "anonymous": false,
      "inputs": [
        {
          "indexed": false,
          "internalType": "address",
          "name": "computeProvider",
          "type": "address"
        },
        {
          "indexed": false,
          "internalType": "uint256",
          "name": "newMinPricePerEpoch",
          "type": "uint256"
        }
      ],
      "name": "MinPricePerEpochChanged",
      "type": "event"
    },
    {
      "anonymous": false,
      "inputs": [
        {
          "indexed": false,
          "internalType": "address",
          "name": "computeProvider",
          "type": "address"
        },
        {
          "indexed": false,
          "internalType": "contract IERC20",
          "name": "newPaymentToken",
          "type": "address"
        }
      ],
      "name": "PaymentTokenChanged",
      "type": "event"
    },
    {
      "anonymous": false,
      "inputs": [
        {
          "indexed": true,
          "internalType": "address",
          "name": "implementation",
          "type": "address"
        }
      ],
      "name": "Upgraded",
      "type": "event"
    },
    {
      "anonymous": false,
      "inputs": [
        {
          "indexed": false,
          "internalType": "bytes32",
          "name": "peerId",
          "type": "bytes32"
        },
        {
          "indexed": false,
          "internalType": "uint256",
          "name": "newWorkerSlots",
          "type": "uint256"
        }
      ],
      "name": "WorkersSlotsChanged",
      "type": "event"
    },
    {
      "inputs": [
        {
          "components": [
            {
              "internalType": "bytes4",
              "name": "prefixes",
              "type": "bytes4"
            },
            {
              "internalType": "bytes32",
              "name": "hash",
              "type": "bytes32"
            }
          ],
          "internalType": "struct CIDV1",
          "name": "effector",
          "type": "tuple"
        }
      ],
      "name": "addEffector",
      "outputs": [],
      "stateMutability": "nonpayable",
      "type": "function"
    },
    {
      "inputs": [
        {
          "internalType": "bytes32",
          "name": "peerId",
          "type": "bytes32"
        },
        {
          "internalType": "uint256",
          "name": "workerSlots",
          "type": "uint256"
        }
      ],
      "name": "addWorkersSlots",
      "outputs": [],
      "stateMutability": "nonpayable",
      "type": "function"
    },
    {
      "inputs": [
        {
          "internalType": "uint256",
          "name": "newMaxCollateral",
          "type": "uint256"
        }
      ],
      "name": "changeMaxCollateral",
      "outputs": [],
      "stateMutability": "nonpayable",
      "type": "function"
    },
    {
      "inputs": [
        {
          "internalType": "uint256",
          "name": "newMinPricePerEpoch",
          "type": "uint256"
        }
      ],
      "name": "changeMinPricePerEpoch",
      "outputs": [],
      "stateMutability": "nonpayable",
      "type": "function"
    },
    {
      "inputs": [
        {
          "internalType": "contract IERC20",
          "name": "newPaymentToken",
          "type": "address"
        },
        {
          "internalType": "uint256",
          "name": "newMaxCollateral",
          "type": "uint256"
        }
      ],
      "name": "changePaymentToken",
      "outputs": [],
      "stateMutability": "nonpayable",
      "type": "function"
    },
    {
      "inputs": [
        {
          "internalType": "bytes32",
          "name": "",
          "type": "bytes32"
        }
      ],
      "name": "computePeerByPeerId",
      "outputs": [
        {
          "internalType": "uint256",
          "name": "freeWorkerSlots",
          "type": "uint256"
        }
      ],
      "stateMutability": "view",
      "type": "function"
    },
    {
      "inputs": [
        {
          "internalType": "address",
          "name": "",
          "type": "address"
        }
      ],
      "name": "computeProviderByOwner",
      "outputs": [
        {
          "internalType": "uint256",
          "name": "minPricePerEpoch",
          "type": "uint256"
        },
        {
          "internalType": "uint256",
          "name": "maxCollateral",
          "type": "uint256"
        },
        {
          "internalType": "contract IERC20",
          "name": "paymentToken",
          "type": "address"
        },
        {
          "internalType": "uint256",
          "name": "totalFreeWorkerSlots",
          "type": "uint256"
        }
      ],
      "stateMutability": "view",
      "type": "function"
    },
    {
      "inputs": [
        {
          "internalType": "bytes32",
          "name": "peerId",
          "type": "bytes32"
        }
      ],
      "name": "getFreeWorkersSolts",
      "outputs": [
        {
          "internalType": "uint256",
          "name": "",
          "type": "uint256"
        }
      ],
      "stateMutability": "view",
      "type": "function"
    },
    {
      "inputs": [],
      "name": "globalConfig",
      "outputs": [
        {
          "internalType": "contract IGlobalConfig",
          "name": "",
          "type": "address"
        }
      ],
      "stateMutability": "view",
      "type": "function"
    },
    {
      "inputs": [
        {
          "internalType": "contract ICore",
          "name": "deal",
          "type": "address"
        }
      ],
      "name": "matchWithDeal",
      "outputs": [],
      "stateMutability": "nonpayable",
      "type": "function"
    },
    {
      "inputs": [],
      "name": "proxiableUUID",
      "outputs": [
        {
          "internalType": "bytes32",
          "name": "",
          "type": "bytes32"
        }
      ],
      "stateMutability": "view",
      "type": "function"
    },
    {
      "inputs": [
        {
          "internalType": "uint256",
          "name": "minPricePerEpoch",
          "type": "uint256"
        },
        {
          "internalType": "uint256",
          "name": "maxCollateral",
          "type": "uint256"
        },
        {
          "internalType": "contract IERC20",
          "name": "paymentToken",
          "type": "address"
        },
        {
          "components": [
            {
              "internalType": "bytes4",
              "name": "prefixes",
              "type": "bytes4"
            },
            {
              "internalType": "bytes32",
              "name": "hash",
              "type": "bytes32"
            }
          ],
          "internalType": "struct CIDV1[]",
          "name": "effectors",
          "type": "tuple[]"
        }
      ],
      "name": "registerComputeProvider",
      "outputs": [],
      "stateMutability": "nonpayable",
      "type": "function"
    },
    {
      "inputs": [],
      "name": "removeComputeProvider",
      "outputs": [],
      "stateMutability": "nonpayable",
      "type": "function"
    },
    {
      "inputs": [
        {
          "components": [
            {
              "internalType": "bytes4",
              "name": "prefixes",
              "type": "bytes4"
            },
            {
              "internalType": "bytes32",
              "name": "hash",
              "type": "bytes32"
            }
          ],
          "internalType": "struct CIDV1",
          "name": "effector",
          "type": "tuple"
        }
      ],
      "name": "removeEffector",
      "outputs": [],
      "stateMutability": "nonpayable",
      "type": "function"
    },
    {
      "inputs": [
        {
          "internalType": "address",
          "name": "owner",
          "type": "address"
        },
        {
          "internalType": "bool",
          "name": "hasAccess",
          "type": "bool"
        }
      ],
      "name": "setWhiteList",
      "outputs": [],
      "stateMutability": "nonpayable",
      "type": "function"
    },
    {
      "inputs": [
        {
          "internalType": "bytes32",
          "name": "peerId",
          "type": "bytes32"
        },
        {
          "internalType": "uint256",
          "name": "workerSlots",
          "type": "uint256"
        }
      ],
      "name": "subWorkersSlots",
      "outputs": [],
      "stateMutability": "nonpayable",
      "type": "function"
    },
    {
      "inputs": [
        {
          "internalType": "address",
          "name": "newImplementation",
          "type": "address"
        }
      ],
      "name": "upgradeTo",
      "outputs": [],
      "stateMutability": "nonpayable",
      "type": "function"
    },
    {
      "inputs": [
        {
          "internalType": "address",
          "name": "newImplementation",
          "type": "address"
        },
        {
          "internalType": "bytes",
          "name": "data",
          "type": "bytes"
        }
      ],
      "name": "upgradeToAndCall",
      "outputs": [],
      "stateMutability": "payable",
      "type": "function"
    },
    {
      "inputs": [
        {
          "internalType": "address",
          "name": "",
          "type": "address"
        }
      ],
      "name": "whitelist",
      "outputs": [
        {
          "internalType": "bool",
          "name": "",
          "type": "bool"
        }
      ],
      "stateMutability": "view",
      "type": "function"
    }
  ],
  "transactionHash": "0xfaaf6bf756208f475c21ff6e442a0977bb4082b72314966a241a807cf104f771",
  "args": [
    "0x536a2184E851829909056b8Aa92ABaACffCFfAe2"
  ],
  "numDeployments": 1,
  "solcInputHash": "5b822a2f01a29b551957f4b318cf4757",
  "bytecode": "0x60c0346100b157601f620032aa38819003918201601f19168301916001600160401b038311848410176100b6578084926020946040528339810103126100b157516001600160a01b03811681036100b1576080523060a0526040516131dd9081620000cd823960805181818161023401528181610697015281816108ae01528181610f240152818161100101528181611c9c0152611ff3015260a051818181611acd01528181611c120152611f690152f35b600080fd5b634e487b7160e01b600052604160045260246000fdfe6080604052600436101561001257600080fd5b60003560e01c80633659cfe614611f365780634f1ef28614611b8757806352d1902d14611aa557806355eb409a14611775578063571458481461162e57806359a6bf5f1461147f5780635a733e9b146114135780635c768997146112575780636868bda31461123b57806373e8f7e9146111045780637f1784501461109e5780638d14e12714610f945780639b19251a14610f48578063a7c1abe014610ef7578063b63af4b114610d95578063bb785b5514610d69578063bd032f0d14610d69578063c6c44ed1146101c05763f6ee7139146100ed57600080fd5b346101bb577f1eaffb28f02e49aa8dce586ac73116a047f91a8116d887ed4e72496a2f10283f604061011e366122a7565b8160005260206001815261019661016761013c84876000205461299d565b93856000526001845284876000205584156101a1575b336000526000845260018760002001546127f4565b336000526000835273ffffffffffffffffffffffffffffffffffffffff60028760002001541633903090612807565b8351928352820152a1005b33600052600684526101b68688600020613049565b610152565b600080fd5b346101bb5760206003193601126101bb5760043573ffffffffffffffffffffffffffffffffffffffff811681036101bb576040517fc45a015500000000000000000000000000000000000000000000000000000000815260208160048173ffffffffffffffffffffffffffffffffffffffff7f0000000000000000000000000000000000000000000000000000000000000000165afa9081156109d457600091610d19575b50602073ffffffffffffffffffffffffffffffffffffffff916024604051809481937f4db44e640000000000000000000000000000000000000000000000000000000083528188166004840152165afa9081156109d457600091610cfa575b5015610cb657604051907f68f1e99a00000000000000000000000000000000000000000000000000000000825260208260048173ffffffffffffffffffffffffffffffffffffffff85165afa9182156109d457600092610c65575b506040517f2ed52a7700000000000000000000000000000000000000000000000000000000815260208160048173ffffffffffffffffffffffffffffffffffffffff86165afa9081156109d457600091610c16575b50604051907f9bc6686800000000000000000000000000000000000000000000000000000000825273ffffffffffffffffffffffffffffffffffffffff841690604083600481855afa9283156109d457600093610bdb575b506040517fb53105a3000000000000000000000000000000000000000000000000000000008152602081600481865afa9081156109d457600091610ba9575b506040517f5fc8f59c000000000000000000000000000000000000000000000000000000008152602081600481875afa9081156109d457600091610b77575b50604051937f17634514000000000000000000000000000000000000000000000000000000008552602085600481845afa9485156109d457600095610b42575b506020600491604051928380927f2943dcab0000000000000000000000000000000000000000000000000000000082525afa9081156109d457600091610b10575b50604051907f4e75f63000000000000000000000000000000000000000000000000000000000825260208260048173ffffffffffffffffffffffffffffffffffffffff89165afa9081156109d457600091610ada575b61052b925061299d565b92600354935b84151580610ad1575b15610acf578460601c9485600052600060205260406000208460018201549154118015610ac6575b8015610ab5575b610a9a578660005260066020526040600020908154805b61061d575050506000526005602052600160406000200154947f75b7752ab93f69b3f56f714070d5d77bb1be0aa312e598f06a83430230705e1a608060405173ffffffffffffffffffffffffffffffffffffffff8c168152896020820152610617604082018c602080917fffffffff0000000000000000000000000000000000000000000000000000000081511684520151910152565ba2610531565b806000526001602052610634604060002054612c8d565b80610a865750806000526001602052600060408120556106548184613049565b6040517fac027f9700000000000000000000000000000000000000000000000000000000815260208160048173ffffffffffffffffffffffffffffffffffffffff7f0000000000000000000000000000000000000000000000000000000000000000165afa80156109d4578960209161072d93600091610a69575b506040517f095ea7b300000000000000000000000000000000000000000000000000000000815273ffffffffffffffffffffffffffffffffffffffff8b81166004830152602482019390935293849283916000919083906044820190565b0393165af180156109d457610a4a575b506040517fc44a916d000000000000000000000000000000000000000000000000000000008152896004820152816024820152602081604481600073ffffffffffffffffffffffffffffffffffffffff8c165af19586156109d4578b8d918f93600099610a0d575b5090849392916107b58d8861299d565b80610865575b5060a0927f1c13422d2375fe8a96ddbe3f6e2efc794f2befbfe247217479ef4b68030d42c394926107ee61084b93612c8d565b9b73ffffffffffffffffffffffffffffffffffffffff60405195168552602085015260408401526060830190602080917fffffffff0000000000000000000000000000000000000000000000000000000081511684520151910152565ba26000526002820160205260016040600020015480610580565b9350935050506040517fac027f9700000000000000000000000000000000000000000000000000000000815260208160048173ffffffffffffffffffffffffffffffffffffffff7f0000000000000000000000000000000000000000000000000000000000000000165afa9182156109d457610957926020926000916109e0575b508d600073ffffffffffffffffffffffffffffffffffffffff6040518097819682957fa9059cbb000000000000000000000000000000000000000000000000000000008452600484016020909392919373ffffffffffffffffffffffffffffffffffffffff60408201951681520152565b0393165af19182156109d4578e61084b8f8f6107ee60a0957f1c13422d2375fe8a96ddbe3f6e2efc794f2befbfe247217479ef4b68030d42c3978a996109a5575b50935050929450926107bb565b6109c69060203d6020116109cd575b6109be818361222c565b810190612885565b5038610998565b503d6109b4565b6040513d6000823e3d90fd5b610a009150833d8511610a06575b6109f8818361222c565b81019061258f565b386108e6565b503d6109ee565b9350975050506020813d602011610a42575b81610a2c6020938361222c565b810103126101bb5751948c908c908c90846107a5565b3d9150610a1f565b610a629060203d6020116109cd576109be818361222c565b508d61073d565b610a809150833d8511610a06576109f8818361222c565b386106cf565b816000526001602052604060002055610654565b50909450600052600560205260016040600020015493610531565b50610ac0878c612ccc565b15610569565b50858110610562565b005b5080151561053a565b90506020823d602011610b08575b81610af56020938361222c565b810103126101bb5761052b915190610521565b3d9150610ae8565b90506020813d602011610b3a575b81610b2b6020938361222c565b810103126101bb5751886104cb565b3d9150610b1e565b9094506020813d602011610b6f575b81610b5e6020938361222c565b810103126101bb575193602061048a565b3d9150610b51565b90506020813d602011610ba1575b81610b926020938361222c565b810103126101bb57518761044a565b3d9150610b85565b90506020813d602011610bd3575b81610bc46020938361222c565b810103126101bb57518661040b565b3d9150610bb7565b90925060403d604011610c0f575b610bf3818361222c565b81016040828203126101bb57610c0891612c3b565b91856103cc565b503d610be9565b90506020813d602011610c5d575b81610c316020938361222c565b810103126101bb575173ffffffffffffffffffffffffffffffffffffffff811681036101bb5783610374565b3d9150610c24565b9091506020813d602011610cae575b81610c816020938361222c565b810103126101bb575173ffffffffffffffffffffffffffffffffffffffff811681036101bb57908261031f565b3d9150610c74565b606460405162461bcd60e51b815260206004820152601860248201527f4465616c206973206e6f742066726f6d20666163746f727900000000000000006044820152fd5b610d13915060203d6020116109cd576109be818361222c565b826102c4565b90506020813d602011610d61575b81610d346020938361222c565b810103126101bb575173ffffffffffffffffffffffffffffffffffffffff811681036101bb576020610265565b3d9150610d27565b346101bb5760206003193601126101bb5760043560005260016020526020604060002054604051908152f35b346101bb5760406003193601126101bb57610dae6127c5565b6040517fffffffff000000000000000000000000000000000000000000000000000000009091166020808301918252602480359084015291610e1b81604481015b037fffffffffffffffffffffffffffffffffffffffffffffffffffffffffffffffe0810183528261222c565b519020903360005260078152604060002082600052815260ff60406000205416610eb357336000526007815260406000209160005252604060002060017fffffffffffffffffffffffffffffffffffffffffffffffffffffffffffffff008254161790557f745c8d0f0a46a84d996b0f143854bf38e5c21b3a180895fca9d6c17654c3538960405180610eae3382612bdf565b0390a1005b6064906040519062461bcd60e51b82526004820152601760248201527f4566666563746f7220616c7265616479206578697374730000000000000000006044820152fd5b346101bb5760006003193601126101bb57602060405173ffffffffffffffffffffffffffffffffffffffff7f0000000000000000000000000000000000000000000000000000000000000000168152f35b346101bb5760206003193601126101bb5773ffffffffffffffffffffffffffffffffffffffff610f766121d1565b166000526002602052602060ff604060002054166040519015158152f35b346101bb5760406003193601126101bb57610fad6121d1565b602435908115158092036101bb57604051907f8da5cb5b00000000000000000000000000000000000000000000000000000000825273ffffffffffffffffffffffffffffffffffffffff91602081600481867f0000000000000000000000000000000000000000000000000000000000000000165afa9081156109d457611041918491600091611080575b501633146125bb565b16600052600260205260406000209060ff7fffffffffffffffffffffffffffffffffffffffffffffffffffffffffffffff008354169116179055600080f35b611098915060203d8111610a06576109f8818361222c565b86611038565b346101bb5760206003193601126101bb577fa55f70960fade7ac9823693b7234ce8261649fa77567ca96b5a0bc76eea00c3c610eae6004356110e181151561262c565b806110eb336129f5565b5560408051338152602081019290925290918291820190565b346101bb5760406003193601126101bb5761111d6127c5565b6040517fffffffff0000000000000000000000000000000000000000000000000000000090911660208083019182526024803590840152916111628160448101610def565b5190209033600052600781526040600020826000528152600160ff604060002054161515036111f75733600052600781526040600020916000525260406000207fffffffffffffffffffffffffffffffffffffffffffffffffffffffffffffff0081541690557f6e9663aceecefa351da298ff43f1b4ee80da411530c55352ba1d5c787118bd2160405180610eae3382612bdf565b6064906040519062461bcd60e51b82526004820152601660248201527f4566666563746f7220646f65736e2774206578697374000000000000000000006044820152fd5b346101bb5760206003193601126101bb57610acf600435612a2e565b346101bb5760006003193601126101bb576112e8611274336129f5565b600281016000815473ffffffffffffffffffffffffffffffffffffffff81169261129f8415156129aa565b7fffffffffffffffffffffffff0000000000000000000000000000000000000000600186019284845494816112da60038b01978854906127f4565b995555169055553390612b78565b7fffffffffffffffffffffffffffffffffffffffff0000000000000000000000003360601b1680600052602060058152604060002060016040519161132c836121f4565b8054835201548282019081526113428483613122565b156113cf577f1a9d4a5597d6ea11c9f37af1e8c69914b216e3b22aa6ca6e6387f24d7657647d93600052600583526000600160408220828155015581518015156000146113c4578151906000526001604060002001555b519081156113ba575190600052600582526040600020555b604051338152a1005b51600455506113b1565b508051600355611399565b6064836040519062461bcd60e51b82526004820152601260248201527f4b657920646f6573206e6f7420657869737400000000000000000000000000006044820152fd5b346101bb5760206003193601126101bb57608073ffffffffffffffffffffffffffffffffffffffff806114446121d1565b166000526000602052604060002090815491600360018201549260028301541691015491604051938452602084015260408301526060820152f35b346101bb5761148d366122a7565b80156115c4578160005260016020908082526040600020549283156115a9575b80840180941161157a576114de908560005282845284604060002055336000526000845282604060002001546127f4565b336000526000835261151360029173ffffffffffffffffffffffffffffffffffffffff83604060002001541630903390612807565b33600052600690818452604060002054805b61155a577f1eaffb28f02e49aa8dce586ac73116a047f91a8116d887ed4e72496a2f10283f60408888888351928352820152a1005b336000908152838652604080822092825291830186522083015480611525565b7f4e487b7100000000000000000000000000000000000000000000000000000000600052601160045260246000fd5b33600052600683526115bf856040600020612fd5565b6114ad565b608460405162461bcd60e51b815260206004820152602560248201527f576f726b657220736c6f74732073686f756c642062652067726561746572207460448201527f68616e20300000000000000000000000000000000000000000000000000000006064820152fd5b346101bb5760406003193601126101bb576116476121d1565b73ffffffffffffffffffffffffffffffffffffffff90818116801561170b576116fd6040926116f37f2bd8c5354233e1142193df7977bd89f7ad57b724087278bad86db1e15fc3033b956116ea61169d336129f5565b9160028301805490887fffffffffffffffffffffffff000000000000000000000000000000000000000083161790556116e1600360018601549501948554906127f4565b91339116612b78565b546024356127f4565b9030903390612807565b8151903382526020820152a1005b608460405162461bcd60e51b815260206004820152602860248201527f5061796d656e7420746f6b656e2073686f756c64206265206e6f74207a65726f60448201527f20616464726573730000000000000000000000000000000000000000000000006064820152fd5b346101bb5760806003193601126101bb5760043560243560443573ffffffffffffffffffffffffffffffffffffffff908181168091036101bb576064359367ffffffffffffffff908186116101bb57366023870112156101bb578560040135928284116101bb576024870196602436918660061b0101116101bb576117fb82151561262c565b61180686151561269d565b61181181151561270e565b336000526020926000845261183086600260406000200154161561270e565b604051906080820190811182821017611a7657604096959496528281526003868201888152604083018481526060840191600083523360005260008a52604060002094518555519760019889860155600285019151167fffffffffffffffffffffffff0000000000000000000000000000000000000000825416179055519101556118df7fffffffffffffffffffffffffffffffffffffffff0000000000000000000000003360601b16612ee0565b60005b83811061199657509082916040519660a0880192338952878901526040880152606087015260a060808701525260c08401949260005b828110611947577f658bee377ff55ceae5c8883fc1d0ec604e9179fba1a50f0f094091cefa2eef0486880387a1005b90919293958635907fffffffff0000000000000000000000000000000000000000000000000000000082168092036101bb57908152868301358382015260409081019601939291908301611918565b6119a581858a98969798612786565b35907fffffffff00000000000000000000000000000000000000000000000000000000821682036101bb57611a6d91610def611a25876119e6858b8f612786565b01356040519283918a8301958690917fffffffff0000000000000000000000000000000000000000000000000000000060249316825260048201520190565b519020336000526007865260406000209060005285526040600020877fffffffffffffffffffffffffffffffffffffffffffffffffffffffffffffff00825416179055612759565b949392946118e2565b7f4e487b7100000000000000000000000000000000000000000000000000000000600052604160045260246000fd5b346101bb5760006003193601126101bb5773ffffffffffffffffffffffffffffffffffffffff7f0000000000000000000000000000000000000000000000000000000000000000163003611b1d5760206040517f360894a13ba1a3210667c828492db98dca3e2076cc3735a920a3ca505d382bbc8152f35b608460405162461bcd60e51b815260206004820152603860248201527f555550535570677261646561626c653a206d757374206e6f742062652063616c60448201527f6c6564207468726f7567682064656c656761746563616c6c00000000000000006064820152fd5b60406003193601126101bb57611b9b6121d1565b6024359067ffffffffffffffff82116101bb57366023830112156101bb578160040135611bc78161226d565b92611bd5604051948561222c565b8184526020918285019136602483830101116101bb5781600092602486930185378601015273ffffffffffffffffffffffffffffffffffffffff807f00000000000000000000000000000000000000000000000000000000000000001690611c3f823014156122bd565b611c6e7f360894a13ba1a3210667c828492db98dca3e2076cc3735a920a3ca505d382bbc92828454161461232e565b6040517f8da5cb5b0000000000000000000000000000000000000000000000000000000081528481600481857f0000000000000000000000000000000000000000000000000000000000000000165afa9081156109d457611cdb918391600091611f1957501633146125bb565b7f4910fdfa16fed3260ed0e7147f7cc6da11a60208b5b9406d12a635614ffd91435460ff1615611d135750505050610acf915061239f565b84939416906040517f52d1902d0000000000000000000000000000000000000000000000000000000081528581600481865afa60009181611eea575b50611dbe576084866040519062461bcd60e51b82526004820152602e60248201527f45524331393637557067726164653a206e657720696d706c656d656e7461746960448201527f6f6e206973206e6f7420555550530000000000000000000000000000000000006064820152fd5b03611e8057611dcc8361239f565b7fbc7cd75a20ee27fd9adebab32041f755214dbc6bffa90cc0225b39da2e5c2d3b600080a2835115801590611e78575b611e0257005b60008091610acf957f416464726573733a206c6f772d6c6576656c2064656c65676174652063616c6c60405196611e3888612210565b602788528701527f206661696c65640000000000000000000000000000000000000000000000000060408701525190845af4611e72612471565b916124a1565b506001611dfc565b6084846040519062461bcd60e51b82526004820152602960248201527f45524331393637557067726164653a20756e737570706f727465642070726f7860448201527f6961626c655555494400000000000000000000000000000000000000000000006064820152fd5b9091508681813d8311611f12575b611f02818361222c565b810103126101bb57519088611d4f565b503d611ef8565b611f309150873d8911610a06576109f8818361222c565b89611038565b346101bb576020806003193601126101bb57611f506121d1565b73ffffffffffffffffffffffffffffffffffffffff91827f00000000000000000000000000000000000000000000000000000000000000001692611f96843014156122bd565b611fc57f360894a13ba1a3210667c828492db98dca3e2076cc3735a920a3ca505d382bbc94828654161461232e565b6040517f8da5cb5b0000000000000000000000000000000000000000000000000000000081528281600481857f0000000000000000000000000000000000000000000000000000000000000000165afa9081156109d4576120329183916000916121b457501633146125bb565b604051938285019185831067ffffffffffffffff841117611a7657826040526000865260ff7f4910fdfa16fed3260ed0e7147f7cc6da11a60208b5b9406d12a635614ffd9143541660001461208f5750505050610acf915061239f565b84939416906040517f52d1902d0000000000000000000000000000000000000000000000000000000081528581600481865afa60009181612185575b5061213a576084866040519062461bcd60e51b82526004820152602e60248201527f45524331393637557067726164653a206e657720696d706c656d656e7461746960448201527f6f6e206973206e6f7420555550530000000000000000000000000000000000006064820152fd5b03611e80576121488361239f565b7fbc7cd75a20ee27fd9adebab32041f755214dbc6bffa90cc0225b39da2e5c2d3b600080a283511580159061217d57611e0257005b506000611dfc565b9091508681813d83116121ad575b61219d818361222c565b810103126101bb575190886120cb565b503d612193565b6121cb9150853d8711610a06576109f8818361222c565b87611038565b6004359073ffffffffffffffffffffffffffffffffffffffff821682036101bb57565b6040810190811067ffffffffffffffff821117611a7657604052565b6060810190811067ffffffffffffffff821117611a7657604052565b90601f7fffffffffffffffffffffffffffffffffffffffffffffffffffffffffffffffe0910116810190811067ffffffffffffffff821117611a7657604052565b67ffffffffffffffff8111611a7657601f017fffffffffffffffffffffffffffffffffffffffffffffffffffffffffffffffe01660200190565b60031960409101126101bb576004359060243590565b156122c457565b608460405162461bcd60e51b815260206004820152602c60248201527f46756e6374696f6e206d7573742062652063616c6c6564207468726f7567682060448201527f64656c656761746563616c6c00000000000000000000000000000000000000006064820152fd5b1561233557565b608460405162461bcd60e51b815260206004820152602c60248201527f46756e6374696f6e206d7573742062652063616c6c6564207468726f7567682060448201527f6163746976652070726f787900000000000000000000000000000000000000006064820152fd5b803b156124075773ffffffffffffffffffffffffffffffffffffffff7f360894a13ba1a3210667c828492db98dca3e2076cc3735a920a3ca505d382bbc91167fffffffffffffffffffffffff0000000000000000000000000000000000000000825416179055565b608460405162461bcd60e51b815260206004820152602d60248201527f455243313936373a206e657720696d706c656d656e746174696f6e206973206e60448201527f6f74206120636f6e7472616374000000000000000000000000000000000000006064820152fd5b3d1561249c573d906124828261226d565b91612490604051938461222c565b82523d6000602084013e565b606090565b9192901561250257508151156124b5575090565b3b156124be5790565b606460405162461bcd60e51b815260206004820152601d60248201527f416464726573733a2063616c6c20746f206e6f6e2d636f6e74726163740000006044820152fd5b8251909150156125155750805190602001fd5b6040519062461bcd60e51b825281602080600483015282519283602484015260005b848110612578575050507fffffffffffffffffffffffffffffffffffffffffffffffffffffffffffffffe0601f836000604480968601015201168101030190fd5b818101830151868201604401528593508201612537565b908160209103126101bb575173ffffffffffffffffffffffffffffffffffffffff811681036101bb5790565b156125c257565b608460405162461bcd60e51b815260206004820152602160248201527f4f6e6c79206f776e65722063616e2063616c6c20746869732066756e6374696f60448201527f6e000000000000000000000000000000000000000000000000000000000000006064820152fd5b1561263357565b608460405162461bcd60e51b815260206004820152602c60248201527f4d696e207072696365207065722065706f63682073686f756c6420626520677260448201527f6561746572207468616e203000000000000000000000000000000000000000006064820152fd5b156126a457565b608460405162461bcd60e51b815260206004820152602760248201527f4d617820636f6c6c61746572616c2073686f756c64206265206772656174657260448201527f207468616e2030000000000000000000000000000000000000000000000000006064820152fd5b1561271557565b606460405162461bcd60e51b815260206004820152601860248201527f436f6d707574652070726f766964657220616c726561647900000000000000006044820152fd5b7fffffffffffffffffffffffffffffffffffffffffffffffffffffffffffffffff811461157a5760010190565b91908110156127965760061b0190565b7f4e487b7100000000000000000000000000000000000000000000000000000000600052603260045260246000fd5b6004357fffffffff00000000000000000000000000000000000000000000000000000000811681036101bb5790565b8181029291811591840414171561157a57565b9290604051927f23b872dd00000000000000000000000000000000000000000000000000000000602085015273ffffffffffffffffffffffffffffffffffffffff809216602485015216604483015260648201526064815260a081019181831067ffffffffffffffff841117611a76576128839260405261289d565b565b908160209103126101bb575180151581036101bb5790565b6040516129029173ffffffffffffffffffffffffffffffffffffffff166128c3826121f4565b6000806020958685527f5361666545524332303a206c6f772d6c6576656c2063616c6c206661696c656487860152868151910182855af1611e72612471565b805190828215928315612985575b5050501561291b5750565b6084906040519062461bcd60e51b82526004820152602a60248201527f5361666545524332303a204552433230206f7065726174696f6e20646964206e60448201527f6f742073756363656564000000000000000000000000000000000000000000006064820152fd5b6129959350820181019101612885565b388281612910565b9190820391821161157a57565b156129b157565b606460405162461bcd60e51b815260206004820152601e60248201527f436f6d707574652070726f766964657220646f65736e277420657869737400006044820152fd5b73ffffffffffffffffffffffffffffffffffffffff8091166000526000602052612a2b60406000209160028301541615156129aa565b90565b612a3981151561269d565b612a42336129f5565b906001820190815491818314612b3457819055600383018054938415612b2d5782847fa8c62389b31fc6dfc3c0ec83e30a55441144e480af1c0721cf27c7c88f2995259682612ae79711600014612aec575092612aa5612aad92612acf9561299d565b9054906127f4565b9073ffffffffffffffffffffffffffffffffffffffff60023392015416612b78565b60408051338152602081019290925290918291820190565b0390a1565b612b289450612b1b90612b1660029373ffffffffffffffffffffffffffffffffffffffff9561299d565b6127f4565b9201541630903390612807565b612acf565b5050505050565b606460405162461bcd60e51b815260206004820152601a60248201527f4d617820636f6c6c61746572616c206973207468652073616d650000000000006044820152fd5b6040517fa9059cbb00000000000000000000000000000000000000000000000000000000602082015273ffffffffffffffffffffffffffffffffffffffff92909216602483015260448083019390935291815261288391612bda60648361222c565b61289d565b91909173ffffffffffffffffffffffffffffffffffffffff60608201931681526004357fffffffff0000000000000000000000000000000000000000000000000000000081168091036101bb5760208201526040602435910152565b91908260409103126101bb57604051612c53816121f4565b809280517fffffffff00000000000000000000000000000000000000000000000000000000811681036101bb578252602090810151910152565b801561157a577fffffffffffffffffffffffffffffffffffffffffffffffffffffffffffffffff0190565b80518210156127965760209160051b010190565b906040918251927ffc1e5e2a000000000000000000000000000000000000000000000000000000008452600092838560048173ffffffffffffffffffffffffffffffffffffffff8097165afa948515612ed6578495612df5575b50835b8551811015612dea577fffffffff00000000000000000000000000000000000000000000000000000000612d5d8288612cb8565b515116602090610def612db383612d74868c612cb8565b5101518751928391868301958690917fffffffff0000000000000000000000000000000000000000000000000000000060249316825260048201520190565b519020908584168752600781528487209187525260ff838620541615612de157612ddc90612759565b612d29565b50505050905090565b505050505050600190565b9094503d8085833e612e07818361222c565b81019060208082840312612ed257815167ffffffffffffffff92838211612ece57019183601f84011215612eca578251908111612e9d57845193612e50838360051b018661222c565b818552828086019260061b85010193818511612e995783879101925b858410612e80575050505050509338612d26565b8490612e8c8486612c3b565b8152019201918690612e6c565b8880fd5b6024877f4e487b710000000000000000000000000000000000000000000000000000000081526041600452fd5b8680fd5b8780fd5b8580fd5b82513d86823e3d90fd5b8015612f915760008181526005602052612f178260408320600160405191612f07836121f4565b8054835201546020820152613122565b612f4d576004548015612f425760019160409184600455848252600560205280838320558152200155565b505080600355600455565b606460405162461bcd60e51b815260206004820152601260248201527f4b657920616c72656164792065786973747300000000000000000000000000006044820152fd5b606460405162461bcd60e51b815260206004820152601260248201527f4b65792063616e6e6f74206265205a45524f00000000000000000000000000006044820152fd5b8115612f91576002810190600090838252826020526130128460408420600160405191613001836121f4565b805483520154602082015283613164565b612f4d57600181019284845492831561304257509060409392916001955585835260205280838320558152200155565b5550505055565b90600282016000908282528060205260409283832090600185519261306d846121f4565b8054845201549060208301918252613086818489613164565b156130df5784526020839052848420848155600101849055815180156130d5578151908552600186862001555b519485156130c75750519382526020522055565b905160019091015550505050565b50805186556130b3565b6064865162461bcd60e51b815260206004820152601260248201527f4b657920646f6573206e6f7420657869737400000000000000000000000000006044820152fd5b9081511591821592613156575b50811561314a575b8115613141575090565b90506004541490565b60035481149150613137565b60200151151591503861312f565b8151158015939290613199575b50821561318e575b821561318457505090565b6001015414919050565b805482149250613179565b60200151151592503861317156fea264697066735822122054aacf8a40298b6eb54149d7663239a480a1bb4616b7c6680090d6c7dba87ae064736f6c63430008130033",
  "devdoc": {
    "events": {
      "AdminChanged(address,address)": {
        "details": "Emitted when the admin account has changed."
      },
      "BeaconUpgraded(address)": {
        "details": "Emitted when the beacon is changed."
      },
      "Initialized(uint8)": {
        "details": "Triggered when the contract has been initialized or reinitialized."
      },
      "Upgraded(address)": {
        "details": "Emitted when the implementation is upgraded."
      }
    },
    "kind": "dev",
    "methods": {
      "proxiableUUID()": {
        "details": "Implementation of the ERC1822 {proxiableUUID} function. This returns the storage slot used by the implementation. It is used to validate the implementation's compatibility when performing an upgrade. IMPORTANT: A proxy pointing at a proxiable contract should not be considered proxiable itself, because this risks bricking a proxy that upgrades to it, by delegating to itself until out of gas. Thus it is critical that this function revert if invoked through a proxy. This is guaranteed by the `notDelegated` modifier."
      },
      "upgradeTo(address)": {
        "custom:oz-upgrades-unsafe-allow-reachable": "delegatecall",
        "details": "Upgrade the implementation of the proxy to `newImplementation`. Calls {_authorizeUpgrade}. Emits an {Upgraded} event."
      },
      "upgradeToAndCall(address,bytes)": {
        "custom:oz-upgrades-unsafe-allow-reachable": "delegatecall",
        "details": "Upgrade the implementation of the proxy to `newImplementation`, and subsequently execute the function call encoded in `data`. Calls {_authorizeUpgrade}. Emits an {Upgraded} event."
      }
    },
    "version": 1
  },
  "userdoc": {
    "kind": "user",
    "methods": {},
    "version": 1
  },
  "storageLayout": {
    "storage": [
      {
        "astId": 6873,
        "contract": "contracts/global/Matcher.sol:Matcher",
        "label": "computeProviderByOwner",
        "offset": 0,
        "slot": "0",
        "type": "t_mapping(t_address,t_struct(ComputeProvider)6778_storage)"
      },
      {
        "astId": 6878,
        "contract": "contracts/global/Matcher.sol:Matcher",
        "label": "computePeerByPeerId",
        "offset": 0,
        "slot": "1",
        "type": "t_mapping(t_bytes32,t_struct(ComputePeer)6781_storage)"
      },
      {
        "astId": 6882,
        "contract": "contracts/global/Matcher.sol:Matcher",
        "label": "whitelist",
        "offset": 0,
        "slot": "2",
        "type": "t_mapping(t_address,t_bool)"
      },
      {
        "astId": 6885,
        "contract": "contracts/global/Matcher.sol:Matcher",
        "label": "_computeProvidersList",
        "offset": 0,
        "slot": "3",
        "type": "t_struct(Bytes32List)8189_storage"
      },
      {
        "astId": 6890,
        "contract": "contracts/global/Matcher.sol:Matcher",
        "label": "_computePeersListByProvider",
        "offset": 0,
        "slot": "6",
        "type": "t_mapping(t_address,t_struct(Bytes32List)8189_storage)"
      },
      {
        "astId": 6896,
        "contract": "contracts/global/Matcher.sol:Matcher",
        "label": "_effectorsByComputePeerOwner",
        "offset": 0,
        "slot": "7",
        "type": "t_mapping(t_address,t_mapping(t_bytes32,t_bool))"
      },
      {
        "astId": 503,
        "contract": "contracts/global/Matcher.sol:Matcher",
        "label": "_initialized",
        "offset": 0,
        "slot": "8",
        "type": "t_uint8"
      },
      {
        "astId": 506,
        "contract": "contracts/global/Matcher.sol:Matcher",
        "label": "_initializing",
        "offset": 1,
        "slot": "8",
        "type": "t_bool"
      },
      {
        "astId": 485,
        "contract": "contracts/global/Matcher.sol:Matcher",
        "label": "__gap",
        "offset": 0,
        "slot": "9",
        "type": "t_array(t_uint256)50_storage"
      },
      {
        "astId": 800,
        "contract": "contracts/global/Matcher.sol:Matcher",
        "label": "__gap",
        "offset": 0,
        "slot": "59",
        "type": "t_array(t_uint256)50_storage"
      }
    ],
    "types": {
      "t_address": {
        "encoding": "inplace",
        "label": "address",
        "numberOfBytes": "20"
      },
      "t_array(t_uint256)50_storage": {
        "base": "t_uint256",
        "encoding": "inplace",
        "label": "uint256[50]",
        "numberOfBytes": "1600"
      },
      "t_bool": {
        "encoding": "inplace",
        "label": "bool",
        "numberOfBytes": "1"
      },
      "t_bytes32": {
        "encoding": "inplace",
        "label": "bytes32",
        "numberOfBytes": "32"
      },
      "t_contract(IERC20)2611": {
        "encoding": "inplace",
        "label": "contract IERC20",
        "numberOfBytes": "20"
      },
      "t_mapping(t_address,t_bool)": {
        "encoding": "mapping",
        "key": "t_address",
        "label": "mapping(address => bool)",
        "numberOfBytes": "32",
        "value": "t_bool"
      },
      "t_mapping(t_address,t_mapping(t_bytes32,t_bool))": {
        "encoding": "mapping",
        "key": "t_address",
        "label": "mapping(address => mapping(bytes32 => bool))",
        "numberOfBytes": "32",
        "value": "t_mapping(t_bytes32,t_bool)"
      },
      "t_mapping(t_address,t_struct(Bytes32List)8189_storage)": {
        "encoding": "mapping",
        "key": "t_address",
        "label": "mapping(address => struct LinkedList.Bytes32List)",
        "numberOfBytes": "32",
        "value": "t_struct(Bytes32List)8189_storage"
      },
      "t_mapping(t_address,t_struct(ComputeProvider)6778_storage)": {
        "encoding": "mapping",
        "key": "t_address",
        "label": "mapping(address => struct MatcherState.ComputeProvider)",
        "numberOfBytes": "32",
        "value": "t_struct(ComputeProvider)6778_storage"
      },
      "t_mapping(t_bytes32,t_bool)": {
        "encoding": "mapping",
        "key": "t_bytes32",
        "label": "mapping(bytes32 => bool)",
        "numberOfBytes": "32",
        "value": "t_bool"
      },
      "t_mapping(t_bytes32,t_struct(ComputePeer)6781_storage)": {
        "encoding": "mapping",
        "key": "t_bytes32",
        "label": "mapping(bytes32 => struct MatcherState.ComputePeer)",
        "numberOfBytes": "32",
        "value": "t_struct(ComputePeer)6781_storage"
      },
      "t_mapping(t_bytes32,t_struct(Element)8179_storage)": {
        "encoding": "mapping",
        "key": "t_bytes32",
        "label": "mapping(bytes32 => struct LinkedList.Element)",
        "numberOfBytes": "32",
        "value": "t_struct(Element)8179_storage"
      },
      "t_struct(Bytes32List)8189_storage": {
        "encoding": "inplace",
        "label": "struct LinkedList.Bytes32List",
        "members": [
          {
            "astId": 8181,
            "contract": "contracts/global/Matcher.sol:Matcher",
            "label": "_first",
            "offset": 0,
            "slot": "0",
            "type": "t_bytes32"
          },
          {
            "astId": 8183,
            "contract": "contracts/global/Matcher.sol:Matcher",
            "label": "_last",
            "offset": 0,
            "slot": "1",
            "type": "t_bytes32"
          },
          {
            "astId": 8188,
            "contract": "contracts/global/Matcher.sol:Matcher",
            "label": "_elements",
            "offset": 0,
            "slot": "2",
            "type": "t_mapping(t_bytes32,t_struct(Element)8179_storage)"
          }
        ],
        "numberOfBytes": "96"
      },
      "t_struct(ComputePeer)6781_storage": {
        "encoding": "inplace",
        "label": "struct MatcherState.ComputePeer",
        "members": [
          {
            "astId": 6780,
            "contract": "contracts/global/Matcher.sol:Matcher",
            "label": "freeWorkerSlots",
            "offset": 0,
            "slot": "0",
            "type": "t_uint256"
          }
        ],
        "numberOfBytes": "32"
      },
      "t_struct(ComputeProvider)6778_storage": {
        "encoding": "inplace",
        "label": "struct MatcherState.ComputeProvider",
        "members": [
          {
            "astId": 6770,
            "contract": "contracts/global/Matcher.sol:Matcher",
            "label": "minPricePerEpoch",
            "offset": 0,
            "slot": "0",
            "type": "t_uint256"
          },
          {
            "astId": 6772,
            "contract": "contracts/global/Matcher.sol:Matcher",
            "label": "maxCollateral",
            "offset": 0,
            "slot": "1",
            "type": "t_uint256"
          },
          {
            "astId": 6775,
            "contract": "contracts/global/Matcher.sol:Matcher",
            "label": "paymentToken",
            "offset": 0,
            "slot": "2",
            "type": "t_contract(IERC20)2611"
          },
          {
            "astId": 6777,
            "contract": "contracts/global/Matcher.sol:Matcher",
            "label": "totalFreeWorkerSlots",
            "offset": 0,
            "slot": "3",
            "type": "t_uint256"
          }
        ],
        "numberOfBytes": "128"
      },
      "t_struct(Element)8179_storage": {
        "encoding": "inplace",
        "label": "struct LinkedList.Element",
        "members": [
          {
            "astId": 8176,
            "contract": "contracts/global/Matcher.sol:Matcher",
            "label": "prev",
            "offset": 0,
            "slot": "0",
            "type": "t_bytes32"
          },
          {
            "astId": 8178,
            "contract": "contracts/global/Matcher.sol:Matcher",
            "label": "next",
            "offset": 0,
            "slot": "1",
            "type": "t_bytes32"
          }
        ],
        "numberOfBytes": "64"
      },
      "t_uint256": {
        "encoding": "inplace",
        "label": "uint256",
        "numberOfBytes": "32"
      },
      "t_uint8": {
        "encoding": "inplace",
        "label": "uint8",
        "numberOfBytes": "1"
      }
    }
  }
}