{
  "address": "0xC0081CFa604111cd57027D8D6A5aB27078670436",
  "abi": [
    {
      "inputs": [
        {
          "internalType": "contract IGlobalCore",
          "name": "globalCore_",
          "type": "address"
        }
      ],
      "stateMutability": "nonpayable",
      "type": "constructor"
    },
    {
      "anonymous": false,
      "inputs": [
        {
          "indexed": true,
          "internalType": "bytes32",
          "name": "peerId",
          "type": "bytes32"
        },
        {
          "indexed": false,
          "internalType": "contract IDeal",
          "name": "deal",
          "type": "address"
        },
        {
          "indexed": false,
          "internalType": "bytes32",
          "name": "computeUnitId",
          "type": "bytes32"
        },
        {
          "indexed": false,
          "internalType": "uint256",
          "name": "dealCreationBlock",
          "type": "uint256"
        },
        {
          "components": [
            {
              "internalType": "bytes4",
              "name": "prefixes",
              "type": "bytes4"
            },
            {
              "internalType": "bytes32",
              "name": "hash",
              "type": "bytes32"
            }
          ],
          "indexed": false,
          "internalType": "struct CIDV1",
          "name": "appCID",
          "type": "tuple"
        }
      ],
      "name": "ComputePeerMatched",
      "type": "event"
    },
    {
      "anonymous": false,
      "inputs": [
        {
          "indexed": false,
          "internalType": "address",
          "name": "computeProvider",
          "type": "address"
        },
        {
          "indexed": false,
          "internalType": "uint256",
          "name": "minPricePerEpoch",
          "type": "uint256"
        },
        {
          "indexed": false,
          "internalType": "uint256",
          "name": "maxCollateral",
          "type": "uint256"
        },
        {
          "indexed": false,
          "internalType": "contract IERC20",
          "name": "paymentToken",
          "type": "address"
        },
        {
          "components": [
            {
              "internalType": "bytes4",
              "name": "prefixes",
              "type": "bytes4"
            },
            {
              "internalType": "bytes32",
              "name": "hash",
              "type": "bytes32"
            }
          ],
          "indexed": false,
          "internalType": "struct CIDV1[]",
          "name": "effectors",
          "type": "tuple[]"
        }
      ],
      "name": "ComputeProviderRegistered",
      "type": "event"
    },
    {
      "anonymous": false,
      "inputs": [
        {
          "indexed": false,
          "internalType": "address",
          "name": "computeProvider",
          "type": "address"
        }
      ],
      "name": "ComputeProviderRemoved",
      "type": "event"
    },
    {
      "anonymous": false,
      "inputs": [
        {
          "indexed": false,
          "internalType": "address",
          "name": "computeProvider",
          "type": "address"
        },
        {
          "components": [
            {
              "internalType": "bytes4",
              "name": "prefixes",
              "type": "bytes4"
            },
            {
              "internalType": "bytes32",
              "name": "hash",
              "type": "bytes32"
            }
          ],
          "indexed": false,
          "internalType": "struct CIDV1",
          "name": "effector",
          "type": "tuple"
        }
      ],
      "name": "EffectorAdded",
      "type": "event"
    },
    {
      "anonymous": false,
      "inputs": [
        {
          "indexed": false,
          "internalType": "address",
          "name": "computeProvider",
          "type": "address"
        },
        {
          "components": [
            {
              "internalType": "bytes4",
              "name": "prefixes",
              "type": "bytes4"
            },
            {
              "internalType": "bytes32",
              "name": "hash",
              "type": "bytes32"
            }
          ],
          "indexed": false,
          "internalType": "struct CIDV1",
          "name": "effector",
          "type": "tuple"
        }
      ],
      "name": "EffectorRemoved",
      "type": "event"
    },
    {
      "anonymous": false,
      "inputs": [
        {
          "indexed": false,
          "internalType": "address",
          "name": "computeProvider",
          "type": "address"
        },
        {
          "indexed": false,
          "internalType": "uint256",
          "name": "newMaxCollateral",
          "type": "uint256"
        }
      ],
      "name": "MaxCollateralChanged",
      "type": "event"
    },
    {
      "anonymous": false,
      "inputs": [
        {
          "indexed": false,
          "internalType": "address",
          "name": "computeProvider",
          "type": "address"
        },
        {
          "indexed": false,
          "internalType": "uint256",
          "name": "newMinPricePerEpoch",
          "type": "uint256"
        }
      ],
      "name": "MinPricePerEpochChanged",
      "type": "event"
    },
    {
      "anonymous": false,
      "inputs": [
        {
          "indexed": false,
          "internalType": "address",
          "name": "computeProvider",
          "type": "address"
        },
        {
          "indexed": false,
          "internalType": "contract IERC20",
          "name": "newPaymentToken",
          "type": "address"
        }
      ],
      "name": "PaymentTokenChanged",
      "type": "event"
    },
    {
      "anonymous": false,
      "inputs": [
        {
          "indexed": false,
          "internalType": "bytes32",
          "name": "peerId",
          "type": "bytes32"
        },
        {
          "indexed": false,
          "internalType": "uint256",
          "name": "newWorkerSlots",
          "type": "uint256"
        }
      ],
      "name": "WorkersSlotsChanged",
      "type": "event"
    },
    {
      "inputs": [],
      "name": "_globalCore",
      "outputs": [
        {
          "internalType": "contract IGlobalCore",
          "name": "",
          "type": "address"
        }
      ],
      "stateMutability": "view",
      "type": "function"
    },
    {
      "inputs": [
        {
          "components": [
            {
              "internalType": "bytes4",
              "name": "prefixes",
              "type": "bytes4"
            },
            {
              "internalType": "bytes32",
              "name": "hash",
              "type": "bytes32"
            }
          ],
          "internalType": "struct CIDV1",
          "name": "effector",
          "type": "tuple"
        }
      ],
      "name": "addEffector",
      "outputs": [],
      "stateMutability": "nonpayable",
      "type": "function"
    },
    {
      "inputs": [
        {
          "internalType": "bytes32",
          "name": "peerId",
          "type": "bytes32"
        },
        {
          "internalType": "uint256",
          "name": "workerSlots",
          "type": "uint256"
        }
      ],
      "name": "addWorkersSlots",
      "outputs": [],
      "stateMutability": "nonpayable",
      "type": "function"
    },
    {
      "inputs": [
        {
          "internalType": "uint256",
          "name": "newMaxCollateral",
          "type": "uint256"
        }
      ],
      "name": "changeMaxCollateral",
      "outputs": [],
      "stateMutability": "nonpayable",
      "type": "function"
    },
    {
      "inputs": [
        {
          "internalType": "uint256",
          "name": "newMinPricePerEpoch",
          "type": "uint256"
        }
      ],
      "name": "changeMinPricePerEpoch",
      "outputs": [],
      "stateMutability": "nonpayable",
      "type": "function"
    },
    {
      "inputs": [
        {
          "internalType": "contract IERC20",
          "name": "newPaymentToken",
          "type": "address"
        },
        {
          "internalType": "uint256",
          "name": "newMaxCollateral",
          "type": "uint256"
        }
      ],
      "name": "changePaymentToken",
      "outputs": [],
      "stateMutability": "nonpayable",
      "type": "function"
    },
    {
      "inputs": [
        {
          "internalType": "contract IDeal",
          "name": "deal",
          "type": "address"
        }
      ],
      "name": "findComputePeers",
      "outputs": [
        {
          "internalType": "address[]",
          "name": "computeProviders",
          "type": "address[]"
        },
        {
          "internalType": "bytes32[][]",
          "name": "computePeers",
          "type": "bytes32[][]"
        }
      ],
      "stateMutability": "view",
      "type": "function"
    },
    {
      "inputs": [
        {
          "internalType": "bytes32",
          "name": "peerId",
          "type": "bytes32"
        }
      ],
      "name": "getComputePeerInfo",
      "outputs": [
        {
          "components": [
            {
              "internalType": "uint256",
              "name": "freeWorkerSlots",
              "type": "uint256"
            }
          ],
          "internalType": "struct IMatcherConfig.ComputePeer",
          "name": "",
          "type": "tuple"
        }
      ],
      "stateMutability": "view",
      "type": "function"
    },
    {
      "inputs": [
        {
          "internalType": "address",
          "name": "provider",
          "type": "address"
        }
      ],
      "name": "getComputeProviderInfo",
      "outputs": [
        {
          "components": [
            {
              "internalType": "uint256",
              "name": "minPricePerEpoch",
              "type": "uint256"
            },
            {
              "internalType": "uint256",
              "name": "maxCollateral",
              "type": "uint256"
            },
            {
              "internalType": "contract IERC20",
              "name": "paymentToken",
              "type": "address"
            },
            {
              "internalType": "uint256",
              "name": "totalFreeWorkerSlots",
              "type": "uint256"
            }
          ],
          "internalType": "struct IMatcherConfig.ComputeProvider",
          "name": "",
          "type": "tuple"
        }
      ],
      "stateMutability": "view",
      "type": "function"
    },
    {
      "inputs": [
        {
          "internalType": "address",
          "name": "provider",
          "type": "address"
        }
      ],
      "name": "getPeersByComputeProvider",
      "outputs": [
        {
          "internalType": "bytes32[]",
          "name": "peerIds",
          "type": "bytes32[]"
        },
        {
          "components": [
            {
              "internalType": "uint256",
              "name": "freeWorkerSlots",
              "type": "uint256"
            }
          ],
          "internalType": "struct IMatcherConfig.ComputePeer[]",
          "name": "",
          "type": "tuple[]"
        }
      ],
      "stateMutability": "view",
      "type": "function"
    },
    {
      "inputs": [
        {
          "internalType": "contract IDeal",
          "name": "deal",
          "type": "address"
        },
        {
          "internalType": "address[]",
          "name": "providers",
          "type": "address[]"
        },
        {
          "internalType": "bytes32[][]",
          "name": "peers",
          "type": "bytes32[][]"
        }
      ],
      "name": "matchDeal",
      "outputs": [],
      "stateMutability": "nonpayable",
      "type": "function"
    },
    {
      "inputs": [
        {
          "internalType": "uint256",
          "name": "minPricePerEpoch",
          "type": "uint256"
        },
        {
          "internalType": "uint256",
          "name": "maxCollateral",
          "type": "uint256"
        },
        {
          "internalType": "contract IERC20",
          "name": "paymentToken",
          "type": "address"
        },
        {
          "components": [
            {
              "internalType": "bytes4",
              "name": "prefixes",
              "type": "bytes4"
            },
            {
              "internalType": "bytes32",
              "name": "hash",
              "type": "bytes32"
            }
          ],
          "internalType": "struct CIDV1[]",
          "name": "effectors",
          "type": "tuple[]"
        }
      ],
      "name": "registerComputeProvider",
      "outputs": [],
      "stateMutability": "nonpayable",
      "type": "function"
    },
    {
      "inputs": [],
      "name": "removeComputeProvider",
      "outputs": [],
      "stateMutability": "nonpayable",
      "type": "function"
    },
    {
      "inputs": [
        {
          "components": [
            {
              "internalType": "bytes4",
              "name": "prefixes",
              "type": "bytes4"
            },
            {
              "internalType": "bytes32",
              "name": "hash",
              "type": "bytes32"
            }
          ],
          "internalType": "struct CIDV1",
          "name": "effector",
          "type": "tuple"
        }
      ],
      "name": "removeEffector",
      "outputs": [],
      "stateMutability": "nonpayable",
      "type": "function"
    },
    {
      "inputs": [
        {
          "internalType": "bytes32",
          "name": "peerId",
          "type": "bytes32"
        },
        {
          "internalType": "uint256",
          "name": "workerSlots",
          "type": "uint256"
        }
      ],
      "name": "subWorkersSlots",
      "outputs": [],
      "stateMutability": "nonpayable",
      "type": "function"
    }
  ],
  "transactionHash": "0x548a7b98c6a9018964ea1169f80eeb1f8717e4cf287418d13359e7291aab5f31",
  "args": [
    "0xea6777e8c011E7968605fd012A9Dd49401ec386C"
  ],
  "numDeployments": 1,
  "solcInputHash": "5888c99064a7bc8bd95da4c81fe2a78b",
  "bytecode": "0x60a0346200007757601f6200373e38819003918201601f19168301916001600160401b038311848410176200007c578084926020946040528339810103126200007757516001600160a01b038116810362000077576080526040516136ab90816200009382396080518181816119450152611d3a0152f35b600080fd5b634e487b7160e01b600052604160045260246000fdfe6101e080604052600436101561001457600080fd5b60003560e01c90816301b40500146119275750806309f98c701461176b57806355eb409a14611441578063571458481461130757806359a6bf5f146111665780635c76899714610f0f5780635eabe34614610e445780636868bda314610e285780636afd603114610dc557806373e8f7e914610c705780637f17845014610c0a578063b63af4b114610aa8578063be9fe6911461026c578063c27701ba146102025763f6ee7139146100c557600080fd5b346101fd577f1eaffb28f02e49aa8dce586ac73116a047f91a8116d887ed4e72496a2f10283f60406100f63661197f565b816000527f7440c3b83c734284c6dbaabc56e2aab447401ce649d182f2600464c1292f369a906101b9602091838352610133818760002054611a6c565b938560005283528386600020553360005261019b7f7440c3b83c734284c6dbaabc56e2aab447401ce649d182f2600464c1292f3698918285526003886000200161017e828254611a6c565b905585156101c4575b336000528285526001886000200154612d41565b90336000528352336001600160a01b03600288600020015416612ffe565b8351928352820152a1005b336000527f7440c3b83c734284c6dbaabc56e2aab447401ce649d182f2600464c1292f369985526101f8878960002061356e565b610187565b600080fd5b346101fd5760206003193601126101fd576000604051610221816119c6565b526004356000527f7440c3b83c734284c6dbaabc56e2aab447401ce649d182f2600464c1292f369a6020526020604060002060405190610260826119c6565b54809152604051908152f35b346101fd5760206003193601126101fd576001600160a01b0361028d611969565b16604051907f6cd13448000000000000000000000000000000000000000000000000000000008252602082600481845afa9182156106d057600092610a74575b50604051907fedd0d734000000000000000000000000000000000000000000000000000000008252602082600481845afa9182156106d057600092610a40575b506040517f2943dcab000000000000000000000000000000000000000000000000000000008152602081600481855afa9081156106d057600091610a0e575b50604051907f108d2f52000000000000000000000000000000000000000000000000000000008252602082600481865afa9081156106d0576000916109d8575b6103969250611a6c565b92604051917ffc1e5e2a000000000000000000000000000000000000000000000000000000008352600083600481845afa9283156106d0576000936109b3575b506040517fb55ec18a000000000000000000000000000000000000000000000000000000008152602081600481855afa9081156106d057600091610984575b5093929490917f7440c3b83c734284c6dbaabc56e2aab447401ce649d182f2600464c1292f36945493610446611bb3565b915b85948615158061097b575b15610775578660601c9560038910156107465760028914806106dc575b801561064a575b8015610614575b80156105db575b80156105ca575b610589576104b361049b611bb3565b976104a4611bb3565b9081528860408201528661326d565b60601c6000527f7440c3b83c734284c6dbaabc56e2aab447401ce649d182f2600464c1292f36996020526040600020978854955b86151580610580575b156105375761051d9061051860405161050881611a2d565b898152600060208201528a61326d565b611bfb565b9560005260038901602052600160406000200154956104e7565b99939792965093975093506000527f7440c3b83c734284c6dbaabc56e2aab447401ce649d182f2600464c1292f3697602052600160406000200154945b90969293959195610448565b508015156104f0565b50939791959094506000969296527f7440c3b83c734284c6dbaabc56e2aab447401ce649d182f2600464c1292f369760205260016040600020015494610574565b506105d58a88612aac565b1561048c565b50866000527f7440c3b83c734284c6dbaabc56e2aab447401ce649d182f2600464c1292f36986020526001604060002001548411610485565b50866000527f7440c3b83c734284c6dbaabc56e2aab447401ce649d182f2600464c1292f3698602052604060002054831061047e565b5060018914801561047757506040517f055236f4000000000000000000000000000000000000000000000000000000008152876004820152602081602481865afa9081156106d0576000916106a1575b5015610477565b6106c3915060203d6020116106c9575b6106bb8183611a49565b810190611be3565b8b61069a565b503d6106b1565b6040513d6000823e3d90fd5b506040517f055236f4000000000000000000000000000000000000000000000000000000008152876004820152602081602481865afa9081156106d057600091610727575b50610470565b610740915060203d6020116106c9576106bb8183611a49565b8b610721565b7f4e487b7100000000000000000000000000000000000000000000000000000000600052602160045260246000fd5b8360405161078281611a2d565b6060908181526020810190828252604084015161079e81611aa8565b946107ac6040519687611a49565b818652601f1995866107bd84611aa8565b0136602083013783526107cf82611aa8565b6107dc6040519182611a49565b828152866107e984611aa8565b0160005b81811061096b57505084525160005b8281106108d657505050519051906040519260206040850191604086528351809352850192019060005b8181106108b7575050508281036020840152815190818152602081016020808460051b8401019401956000925b8484106108605786860387f35b909192939482828203018452875190602080835192838152019201906000905b80821061089f5750505060209788019790959460010193019190610853565b90919260208060019286518152019401920190610880565b82516001600160a01b0316845260209384019390920191600101610826565b81519160206040820151910151926001600160a01b036108f7848851612a98565b9116905260408151910151906109238361091084612ba4565b89519061091d8383612a98565b52612a98565b5060005b82811061093f5750505061093a90611c26565b6107fc565b6109669060208351930151926109608261095a888d51612a98565b51612a98565b52611c26565b610927565b80886020809386010152016107ed565b50841515610453565b6109a6915060203d6020116109ac575b61099e8183611a49565b810190611b9b565b86610415565b503d610994565b6109d19193503d806000833e6109c98183611a49565b810190611b12565b91856103d6565b90506020823d602011610a06575b816109f360209383611a49565b810103126101fd5761039691519061038c565b3d91506109e6565b90506020813d602011610a38575b81610a2960209383611a49565b810103126101fd57518461034c565b3d9150610a1c565b9091506020813d602011610a6c575b81610a5c60209383611a49565b810103126101fd5751908361030d565b3d9150610a4f565b9091506020813d602011610aa0575b81610a9060209383611a49565b810103126101fd575190826102cd565b3d9150610a83565b346101fd5760406003193601126101fd57610ac1612d12565b6040517fffffffff000000000000000000000000000000000000000000000000000000009091166020808301918252602480359084015291610b1081604481015b03601f198101835282611a49565b51902090336000527f7440c3b83c734284c6dbaabc56e2aab447401ce649d182f2600464c1292f369b808252604060002083600052825260ff60406000205416610bc65733600052815260406000209160005252604060002060017fffffffffffffffffffffffffffffffffffffffffffffffffffffffffffffff008254161790557f745c8d0f0a46a84d996b0f143854bf38e5c21b3a180895fca9d6c17654c3538960405180610bc1338261321e565b0390a1005b6064826040519062461bcd60e51b82526004820152601760248201527f4566666563746f7220616c7265616479206578697374730000000000000000006044820152fd5b346101fd5760206003193601126101fd577fa55f70960fade7ac9823693b7234ce8261649fa77567ca96b5a0bc76eea00c3c610bc1600435610c4d811515612bd5565b80610c57336130a3565b5560408051338152602081019290925290918291820190565b346101fd5760406003193601126101fd57610c89612d12565b6040517fffffffff000000000000000000000000000000000000000000000000000000009091166020808301918252602480359084015291610cce8160448101610b02565b51902090336000527f7440c3b83c734284c6dbaabc56e2aab447401ce649d182f2600464c1292f369b8082526040600020836000528252600160ff60406000205416151503610d81573360005281526040600020916000525260406000207fffffffffffffffffffffffffffffffffffffffffffffffffffffffffffffff0081541690557f6e9663aceecefa351da298ff43f1b4ee80da411530c55352ba1d5c787118bd2160405180610bc1338261321e565b6064826040519062461bcd60e51b82526004820152601660248201527f4566666563746f7220646f65736e2774206578697374000000000000000000006044820152fd5b346101fd5760606003193601126101fd57610dde611969565b67ffffffffffffffff906024358281116101fd57610e00903690600401611995565b6044929192359384116101fd57610e1e610e26943690600401611995565b939092611d02565b005b346101fd5760206003193601126101fd57610e266004356130ee565b346101fd5760206003193601126101fd576004356001600160a01b038082168092036101fd5760809160006060604051610e7d81611a11565b82815282602082015282604082015201526000527f7440c3b83c734284c6dbaabc56e2aab447401ce649d182f2600464c1292f369860205260406000209060405190610ec882611a11565b825492838352600181015460208401908152606060038460028501541693604087019485520154940193845260405194855251602085015251166040830152516060820152f35b346101fd5760006003193601126101fd57610f93610f2c336130a3565b60028101600081546001600160a01b03811692610f4a841515613058565b7fffffffffffffffffffffffff000000000000000000000000000000000000000060018601928484549481610f8560038b0197885490612d41565b995555169055553390612ffe565b7fffffffffffffffffffffffffffffffffffffffff0000000000000000000000003360601b16806000527f7440c3b83c734284c6dbaabc56e2aab447401ce649d182f2600464c1292f3697602090808252604060002092600160405194610ff986611a2d565b8054865201549383810194855261101082826134ab565b15611122577f1a9d4a5597d6ea11c9f37af1e8c69914b216e3b22aa6ca6e6387f24d7657647d948151801590816110f9575b82519182156110d1575b156110bb575b50505190816110a6575b50506000528152600060016040822082815501557f7440c3b83c734284c6dbaabc56e2aab447401ce649d182f2600464c1292f369661109b8154611bfb565b9055604051338152a1005b5190600052828452604060002055848061105c565b6000528486526001604060002001558680611052565b817f7440c3b83c734284c6dbaabc56e2aab447401ce649d182f2600464c1292f36955561104c565b82517f7440c3b83c734284c6dbaabc56e2aab447401ce649d182f2600464c1292f369455611042565b6064846040519062461bcd60e51b82526004820152601260248201527f4b657920646f6573206e6f7420657869737400000000000000000000000000006044820152fd5b346101fd576111743661197f565b801561129d57816040917f1eaffb28f02e49aa8dce586ac73116a047f91a8116d887ed4e72496a2f10283f936000527f7440c3b83c734284c6dbaabc56e2aab447401ce649d182f2600464c1292f369a906101b96020918383526111e2818760002054801561126457611cf5565b93856000528352838660002055336000526112437f7440c3b83c734284c6dbaabc56e2aab447401ce649d182f2600464c1292f3698918285526003886000200161122d828254611cf5565b9055336000528285526001886000200154612d41565b903360005283526001600160a01b0360028760002001541630903390612d54565b336000527f7440c3b83c734284c6dbaabc56e2aab447401ce649d182f2600464c1292f36998652611298888a600020613427565b611cf5565b608460405162461bcd60e51b815260206004820152602560248201527f576f726b657220736c6f74732073686f756c642062652067726561746572207460448201527f68616e20300000000000000000000000000000000000000000000000000000006064820152fd5b346101fd5760406003193601126101fd57611320611969565b6001600160a01b039081811680156113d7576113c96040926113bf7f2bd8c5354233e1142193df7977bd89f7ad57b724087278bad86db1e15fc3033b956113b6611369336130a3565b9160028301805490887fffffffffffffffffffffffff000000000000000000000000000000000000000083161790556113ad60036001860154950194855490612d41565b91339116612ffe565b54602435612d41565b9030903390612d54565b8151903382526020820152a1005b608460405162461bcd60e51b815260206004820152602860248201527f5061796d656e7420746f6b656e2073686f756c64206265206e6f74207a65726f60448201527f20616464726573730000000000000000000000000000000000000000000000006064820152fd5b346101fd5760806003193601126101fd57600435602435604435916001600160a01b03908184168094036101fd576064359367ffffffffffffffff918286116101fd57366023870112156101fd5785600401359283116101fd576024860195602436918560061b0101116101fd576114be81949392941515612bd5565b6114c9851515612c46565b6114d4841515612cb7565b336000527f7440c3b83c734284c6dbaabc56e2aab447401ce649d182f2600464c1292f369893602094808652611514856002604060002001541615612cb7565b60036040519161152383611a11565b8483528783018981526040840190858252606085019260008452336000528a52604060002094518555519760019889860155600285019151167fffffffffffffffffffffffff0000000000000000000000000000000000000000825416179055519101556115b57fffffffffffffffffffffffffffffffffffffffff0000000000000000000000003360601b166132a6565b60005b83811061166c57509082916040519660a0880192338952878901526040880152606087015260a060808701525260c08401949260005b82811061161d577f658bee377ff55ceae5c8883fc1d0ec604e9179fba1a50f0f094091cefa2eef0486880387a1005b90919293958635907fffffffff0000000000000000000000000000000000000000000000000000000082168092036101fd579081528683013583820152604090810196019392919083016115ee565b61167b81858a98969798612d02565b35907fffffffff00000000000000000000000000000000000000000000000000000000821682036101fd5761176291610b026116fb876116bc858b8f612d02565b01356040519283918a8301958690917fffffffff0000000000000000000000000000000000000000000000000000000060249316825260048201520190565b519020336000527f7440c3b83c734284c6dbaabc56e2aab447401ce649d182f2600464c1292f369b865260406000209060005285526040600020877fffffffffffffffffffffffffffffffffffffffffffffffffffffffffffffff00825416179055611c26565b949392946115b8565b346101fd576020806003193601126101fd576004356001600160a01b0381168091036101fd576000527f7440c3b83c734284c6dbaabc56e2aab447401ce649d182f2600464c1292f3699815260406000206002810154906117cb82611aa8565b916117d96040519384611a49565b808352601f196117e882611aa8565b018460005b82811061190957505050611802600391612ba4565b916000815492839201925b611891575050509060405192839260408401604085528151809152826060860192019060005b81811061187a575050508381038285015281808451928381520193019160005b82811061186257505050500390f35b83515185528695509381019392810192600101611853565b825184528796509284019291840191600101611833565b6118f290826000527f7440c3b83c734284c6dbaabc56e2aab447401ce649d182f2600464c1292f369a87526040600020604051906118ce826119c6565b5481526118db8288612a98565b526118e68187612a98565b50826109608287612a98565b90600052818552600160406000200154908161180d565b604051611915816119c6565b600081528282880101520185906117ed565b346101fd5760006003193601126101fd576020906001600160a01b037f0000000000000000000000000000000000000000000000000000000000000000168152f35b600435906001600160a01b03821682036101fd57565b60031960409101126101fd576004359060243590565b9181601f840112156101fd5782359167ffffffffffffffff83116101fd576020808501948460051b0101116101fd57565b6020810190811067ffffffffffffffff8211176119e257604052565b7f4e487b7100000000000000000000000000000000000000000000000000000000600052604160045260246000fd5b6080810190811067ffffffffffffffff8211176119e257604052565b6040810190811067ffffffffffffffff8211176119e257604052565b90601f601f19910116810190811067ffffffffffffffff8211176119e257604052565b91908203918211611a7957565b7f4e487b7100000000000000000000000000000000000000000000000000000000600052601160045260246000fd5b67ffffffffffffffff81116119e25760051b60200190565b91908260409103126101fd57604051611ad881611a2d565b809280517fffffffff00000000000000000000000000000000000000000000000000000000811681036101fd578252602090810151910152565b9060209182818303126101fd5780519067ffffffffffffffff82116101fd570181601f820112156101fd57805192611b4984611aa8565b93604093611b5985519687611a49565b818652828087019260061b850101938185116101fd578301915b848310611b835750505050505090565b838691611b908486611ac0565b815201920191611b73565b908160209103126101fd575160038110156101fd5790565b604051906060820182811067ffffffffffffffff8211176119e25760405260006040838281528260208201520152565b908160209103126101fd575180151581036101fd5790565b8015611a79577fffffffffffffffffffffffffffffffffffffffffffffffffffffffffffffffff0190565b7fffffffffffffffffffffffffffffffffffffffffffffffffffffffffffffffff8114611a795760010190565b9190811015611c635760051b0190565b7f4e487b7100000000000000000000000000000000000000000000000000000000600052603260045260246000fd5b9190811015611c635760051b810135907fffffffffffffffffffffffffffffffffffffffffffffffffffffffffffffffe1813603018212156101fd57019081359167ffffffffffffffff83116101fd576020018260051b360381136101fd579190565b91908201809211611a7957565b60e05261014052610120919091526040517f7667180800000000000000000000000000000000000000000000000000000000815291907f00000000000000000000000000000000000000000000000000000000000000006001600160a01b0316602084600481845afa9384156106d057600094612a64575b506001600160a01b0360e051166000527f7440c3b83c734284c6dbaabc56e2aab447401ce649d182f2600464c1292f369c602052604060002054841115612a20576040517fc45a0155000000000000000000000000000000000000000000000000000000008152602081600481855afa9081156106d0576000916129d9575b5060206001600160a01b03916024604051809481937f210530530000000000000000000000000000000000000000000000000000000083528160e051166004840152165afa9081156106d0576000916129ba575b5015612976576020600491604051928380927fac027f970000000000000000000000000000000000000000000000000000000082525afa80156106d05760006101805261292b575b50604051917ffc1e5e2a0000000000000000000000000000000000000000000000000000000083526000836004816001600160a01b0360e051165afa9283156106d057600093612910575b506040517fedd0d7340000000000000000000000000000000000000000000000000000000081526020816004816001600160a01b0360e051165afa80156106d057600060a0526128d7575b506040517f6cd134480000000000000000000000000000000000000000000000000000000081526020816004816001600160a01b0360e051165afa9081156106d0576000916128a5575b506040517f2943dcab0000000000000000000000000000000000000000000000000000000081526020816004816001600160a01b0360e051165afa9081156106d057600091612873575b506040517f108d2f520000000000000000000000000000000000000000000000000000000081526020816004816001600160a01b0360e051165afa9081156106d05760009161283f575b5061201391611a6c565b926040517fb55ec18a0000000000000000000000000000000000000000000000000000000081526020816004816001600160a01b0360e051165afa80156106d057600060805261281e575b50604051927f9bc668680000000000000000000000000000000000000000000000000000000084526040846004816001600160a01b0360e051165afa9384156106d0576000946127dd575b50604051957f176345140000000000000000000000000000000000000000000000000000000087526020876004816001600160a01b0360e051165afa9687156106d0576000976127a6575b50600061010081905292935b8484106121605750505050505050506101005161211a5750565b60028101809111611a79576001600160a01b0360e051166000527f7440c3b83c734284c6dbaabc56e2aab447401ce649d182f2600464c1292f369c602052604060002055565b61217784866101409b9495969798999a9b51611c53565b35610160526001600160a01b03610160511661016051036101fd57608051600381101561074657600181036126db57506040517f055236f40000000000000000000000000000000000000000000000000000000081526001600160a01b03610160511660048201526020816024816001600160a01b0360e051165afa9081156106d0576000916126bc575b5015612653575b6001600160a01b0361016051166000527f7440c3b83c734284c6dbaabc56e2aab447401ce649d182f2600464c1292f36986020526040600020958160018801549754118015612648575b8015612634575b6126225761227086866101209d9c9b9d51611c92565b949050600060c0525b8460c05110156126085761229d612294888861012051611c92565b60c05191611c53565b6040517f095ea7b300000000000000000000000000000000000000000000000000000000815260a05160e0516001600160a01b0316600483015260248201529035906020818060448101038160006001600160a01b0361018051165af180156106d0576125e9575b506040516101a0527feebe998f000000000000000000000000000000000000000000000000000000006101a051526001600160a01b03610160511660046101a05101528060246101a051015260206101a05160446101a05160006001600160a01b0360e051165af16101c0526101c051156106d05760009c6101c0516125aa575b9c8b9c9d61239660a0518c611a6c565b806124eb575b507f1c13422d2375fe8a96ddbe3f6e2efc794f2befbfe247217479ef4b68030d42c3916123ca60a092611bfb565b9d846000527f7440c3b83c734284c6dbaabc56e2aab447401ce649d182f2600464c1292f369a80602052612402604060002054611bfb565b806124d8575085600052602052600060408120556001600160a01b0361016051166000527f7440c3b83c734284c6dbaabc56e2aab447401ce649d182f2600464c1292f369960205261245885604060002061356e565b604051916001600160a01b0360e051168352602083015260408201527fffffffff000000000000000000000000000000000000000000000000000000008d5116606082015260208d01516080820152a260016101005289156124cb576124bf60c051611c26565b60c0529a99989a612279565b5050505050505050505050565b9086600052602052604060002055612458565b6040517fa9059cbb000000000000000000000000000000000000000000000000000000008152610160516001600160a01b031660048201526024810191909152919c50906020818060448101038160006001600160a01b0361018051165af19c8d156106d0576123ca8f9e9360a0937f1c13422d2375fe8a96ddbe3f6e2efc794f2befbfe247217479ef4b68030d42c39561258b575b509250509161239c565b6125a39060203d6020116106c9576106bb8183611a49565b5038612581565b60203d6020116125e2575b806125c56020926101a051611a49565b6101a05190810103126125de576101a051519d50612386565b8d80fd5b503d6125b5565b6126019060203d6020116106c9576106bb8183611a49565b5038612305565b92999a9796509392509361261b90611c26565b9293612100565b93929198979695509361261b90611c26565b506126428461016051612aac565b1561225a565b5060a0518710612253565b608460405162461bcd60e51b8152602060048201526024808201527f436f6d707574652070726f7669646572206973206e6f7420696e20776869746560448201527f6c697374000000000000000000000000000000000000000000000000000000006064820152fd5b6126d5915060203d6020116106c9576106bb8183611a49565b38612202565b600203612209576040517f055236f40000000000000000000000000000000000000000000000000000000081526001600160a01b03610160511660048201526020816024816001600160a01b0360e051165afa9081156106d057600091612787575b501561220957606460405162461bcd60e51b815260206004820152602060248201527f436f6d707574652070726f766964657220697320696e20626c61636b6c6973746044820152fd5b6127a0915060203d6020116106c9576106bb8183611a49565b3861273d565b90966020823d6020116127d5575b816127c160209383611a49565b810103126127d257505195386120f4565b80fd5b3d91506127b4565b90936040903d604011612816575b6127f58284611a49565b60408383810103126127d257509061280f91810190611ac0565b92386120a9565b3d91506127eb565b6128369060203d6020116109ac5761099e8183611a49565b6080523861205e565b906020823d60201161286b575b8161285960209383611a49565b810103126127d2575051612013612009565b3d915061284c565b906020823d60201161289d575b8161288d60209383611a49565b810103126127d257505138611fbf565b3d9150612880565b906020823d6020116128cf575b816128bf60209383611a49565b810103126127d257505138611f75565b3d91506128b2565b6020813d602011612908575b816128f060209383611a49565b81010312612902575160a05238611f2b565b60a05180fd5b3d91506128e3565b61292491933d8091833e6109c98183611a49565b9138611ee0565b6020813d60201161296e575b8161294460209383611a49565b8101031261296757516001600160a01b0381168103612967576101805238611e95565b6101805180fd5b3d9150612937565b606460405162461bcd60e51b815260206004820152601860248201527f4465616c206973206e6f742066726f6d20666163746f727900000000000000006044820152fd5b6129d3915060203d6020116106c9576106bb8183611a49565b38611e4d565b6020813d602011612a18575b816129f260209383611a49565b81010312612a145751906001600160a01b03821682036127d257506020611df9565b5080fd5b3d91506129e5565b606460405162461bcd60e51b815260206004820152601e60248201527f4465616c206973206e6f7420726561647920666f72206d61746368696e6700006044820152fd5b90936020823d602011612a90575b81612a7f60209383611a49565b810103126127d25750519238611d7a565b3d9150612a72565b8051821015611c635760209160051b010190565b81519160005b838110612ac25750505050600190565b60ff7fffffffff00000000000000000000000000000000000000000000000000000000612aef8385612a98565b515116602080612aff8587612a98565b510151604080517fffffffff00000000000000000000000000000000000000000000000000000000909416838501908152600481019290925292612b468160248401610b02565b519020906001600160a01b0387166000527f7440c3b83c734284c6dbaabc56e2aab447401ce649d182f2600464c1292f369b8152826000209160005252600020541615612b9b57612b9690611c26565b612ab2565b50505050600090565b90612bae82611aa8565b612bbb6040519182611a49565b828152601f19612bcb8294611aa8565b0190602036910137565b15612bdc57565b608460405162461bcd60e51b815260206004820152602c60248201527f4d696e207072696365207065722065706f63682073686f756c6420626520677260448201527f6561746572207468616e203000000000000000000000000000000000000000006064820152fd5b15612c4d57565b608460405162461bcd60e51b815260206004820152602760248201527f4d617820636f6c6c61746572616c2073686f756c64206265206772656174657260448201527f207468616e2030000000000000000000000000000000000000000000000000006064820152fd5b15612cbe57565b606460405162461bcd60e51b815260206004820152601860248201527f436f6d707574652070726f766964657220616c726561647900000000000000006044820152fd5b9190811015611c635760061b0190565b6004357fffffffff00000000000000000000000000000000000000000000000000000000811681036101fd5790565b81810292918115918404141715611a7957565b9290604051927f23b872dd0000000000000000000000000000000000000000000000000000000060208501526001600160a01b03809216602485015216604483015260648201526064815260a081019181831067ffffffffffffffff8411176119e257612dc392604052612dc5565b565b6001600160a01b03909291921691604051612ddf81611a2d565b6020918282527f5361666545524332303a206c6f772d6c6576656c2063616c6c206661696c6564838301526000808285829451910182895af13d15612f22573d9567ffffffffffffffff8711612ef557612e5a94959660405190612e4c88601f19601f8401160183611a49565b81528093873d92013e612f2e565b805190828215928315612edd575b50505015612e735750565b6084906040519062461bcd60e51b82526004820152602a60248201527f5361666545524332303a204552433230206f7065726174696f6e20646964206e60448201527f6f742073756363656564000000000000000000000000000000000000000000006064820152fd5b612eed9350820181019101611be3565b388281612e68565b6024837f4e487b710000000000000000000000000000000000000000000000000000000081526041600452fd5b612e5a93949591506060915b91929015612f8f5750815115612f42575090565b3b15612f4b5790565b606460405162461bcd60e51b815260206004820152601d60248201527f416464726573733a2063616c6c20746f206e6f6e2d636f6e74726163740000006044820152fd5b825190915015612fa25750805190602001fd5b6040519062461bcd60e51b825281602080600483015282519283602484015260005b848110612fe757505050601f19601f836000604480968601015201168101030190fd5b818101830151868201604401528593508201612fc4565b6040517fa9059cbb0000000000000000000000000000000000000000000000000000000060208201526001600160a01b03929092166024830152604480830193909352918152612dc391613053606483611a49565b612dc5565b1561305f57565b606460405162461bcd60e51b815260206004820152601e60248201527f436f6d707574652070726f766964657220646f65736e277420657869737400006044820152fd5b6001600160a01b038091166000527f7440c3b83c734284c6dbaabc56e2aab447401ce649d182f2600464c1292f36986020526130eb6040600020916002830154161515613058565b90565b6130f9811515612c46565b613102336130a3565b9060018201908154918183146131da578190556003830180549384156131d35782847fa8c62389b31fc6dfc3c0ec83e30a55441144e480af1c0721cf27c7c88f299525968261319a971160001461319f57509261316561316d9261318295611a6c565b905490612d41565b906001600160a01b0360023392015416612ffe565b60408051338152602081019290925290918291820190565b0390a1565b6131ce94506131c1906131bc6002936001600160a01b0395611a6c565b612d41565b9201541630903390612d54565b613182565b5050505050565b606460405162461bcd60e51b815260206004820152601a60248201527f4d617820636f6c6c61746572616c206973207468652073616d650000000000006044820152fd5b9190916001600160a01b0360608201931681526004357fffffffff0000000000000000000000000000000000000000000000000000000081168091036101fd5760208201526040602435910152565b602081019060408101815190600184519486835191520190521590816001146132a057501561329a575050565b60200152565b91505052565b80156133e35760008181527f7440c3b83c734284c6dbaabc56e2aab447401ce649d182f2600464c1292f369790816020526132fe83604083206001604051916132ee83611a2d565b80548352015460208201526134ab565b61339f577f7440c3b83c734284c6dbaabc56e2aab447401ce649d182f2600464c1292f3695918254907f7440c3b83c734284c6dbaabc56e2aab447401ce649d182f2600464c1292f36966133528154611c26565b9055848215613377579060409392916001955585835260205280838320558152200155565b7f7440c3b83c734284c6dbaabc56e2aab447401ce649d182f2600464c1292f36945550505055565b606460405162461bcd60e51b815260206004820152601260248201527f4b657920616c72656164792065786973747300000000000000000000000000006044820152fd5b606460405162461bcd60e51b815260206004820152601260248201527f4b65792063616e6e6f74206265205a45524f00000000000000000000000000006044820152fd5b81156133e357600381019060009083825282602052613464846040842060016040519161345383611a2d565b80548352015460208201528361352b565b61339f576001810192848454926002810161347f8154611c26565b905583156134a457509060409392916001955585835260205280838320558152200155565b5550505055565b908151159182159261351d575b5081156134f2575b81156134ca575090565b90507f7440c3b83c734284c6dbaabc56e2aab447401ce649d182f2600464c1292f3695541490565b7f7440c3b83c734284c6dbaabc56e2aab447401ce649d182f2600464c1292f369454811491506134c0565b6020015115159150386134b8565b8151158015939290613560575b508215613555575b821561354b57505090565b6001015414919050565b805482149250613540565b602001511515925038613538565b919091600381016000908482526020818152604095868420600188519161359483611a2d565b8054835201548382019081526135ab83838961352b565b15613632579181600195936002999a95935180159081613629575b825191821561361f575b1561360d575b50505190816135fb575b505085525282208281550155016135f78154611bfb565b9055565b519087528383528487205538806135e0565b895285855287878a20015538806135d6565b818a8d01556135d0565b82518b556135c6565b6064848a519062461bcd60e51b82526004820152601260248201527f4b657920646f6573206e6f7420657869737400000000000000000000000000006044820152fdfea2646970667358221220a5bef292ceb2c87d4b8ba9a6e4bb38a101121d187a4558ec3385d855e412ac5364736f6c63430008130033",
  "devdoc": {
    "kind": "dev",
    "methods": {},
    "version": 1
  },
  "userdoc": {
    "kind": "user",
    "methods": {},
    "version": 1
  },
  "storageLayout": {
    "storage": [
      {
        "astId": 7449,
        "contract": "contracts/global/matcher/Matcher.sol:Matcher",
        "label": "_storage",
        "offset": 0,
        "slot": "0",
        "type": "t_struct(ConfigStorage)7446_storage"
      }
    ],
    "types": {
      "t_address": {
        "encoding": "inplace",
        "label": "address",
        "numberOfBytes": "20"
      },
      "t_bool": {
        "encoding": "inplace",
        "label": "bool",
        "numberOfBytes": "1"
      },
      "t_bytes32": {
        "encoding": "inplace",
        "label": "bytes32",
        "numberOfBytes": "32"
      },
      "t_contract(IDeal)6059": {
        "encoding": "inplace",
        "label": "contract IDeal",
        "numberOfBytes": "20"
      },
      "t_contract(IERC20)2321": {
        "encoding": "inplace",
        "label": "contract IERC20",
        "numberOfBytes": "20"
      },
      "t_mapping(t_address,t_mapping(t_bytes32,t_bool))": {
        "encoding": "mapping",
        "key": "t_address",
        "label": "mapping(address => mapping(bytes32 => bool))",
        "numberOfBytes": "32",
        "value": "t_mapping(t_bytes32,t_bool)"
      },
      "t_mapping(t_address,t_struct(Bytes32List)8925_storage)": {
        "encoding": "mapping",
        "key": "t_address",
        "label": "mapping(address => struct LinkedListWithUniqueKeys.Bytes32List)",
        "numberOfBytes": "32",
        "value": "t_struct(Bytes32List)8925_storage"
      },
      "t_mapping(t_address,t_struct(ComputeProvider)8521_storage)": {
        "encoding": "mapping",
        "key": "t_address",
        "label": "mapping(address => struct IMatcherConfig.ComputeProvider)",
        "numberOfBytes": "32",
        "value": "t_struct(ComputeProvider)8521_storage"
      },
      "t_mapping(t_bytes32,t_bool)": {
        "encoding": "mapping",
        "key": "t_bytes32",
        "label": "mapping(bytes32 => bool)",
        "numberOfBytes": "32",
        "value": "t_bool"
      },
      "t_mapping(t_bytes32,t_struct(ComputePeer)8524_storage)": {
        "encoding": "mapping",
        "key": "t_bytes32",
        "label": "mapping(bytes32 => struct IMatcherConfig.ComputePeer)",
        "numberOfBytes": "32",
        "value": "t_struct(ComputePeer)8524_storage"
      },
      "t_mapping(t_bytes32,t_struct(Element)8913_storage)": {
        "encoding": "mapping",
        "key": "t_bytes32",
        "label": "mapping(bytes32 => struct LinkedListWithUniqueKeys.Element)",
        "numberOfBytes": "32",
        "value": "t_struct(Element)8913_storage"
      },
      "t_mapping(t_contract(IDeal)6059,t_uint256)": {
        "encoding": "mapping",
        "key": "t_contract(IDeal)6059",
        "label": "mapping(contract IDeal => uint256)",
        "numberOfBytes": "32",
        "value": "t_uint256"
      },
      "t_struct(Bytes32List)8925_storage": {
        "encoding": "inplace",
        "label": "struct LinkedListWithUniqueKeys.Bytes32List",
        "members": [
          {
            "astId": 8915,
            "contract": "contracts/global/matcher/Matcher.sol:Matcher",
            "label": "_first",
            "offset": 0,
            "slot": "0",
            "type": "t_bytes32"
          },
          {
            "astId": 8917,
            "contract": "contracts/global/matcher/Matcher.sol:Matcher",
            "label": "_last",
            "offset": 0,
            "slot": "1",
            "type": "t_bytes32"
          },
          {
            "astId": 8919,
            "contract": "contracts/global/matcher/Matcher.sol:Matcher",
            "label": "_length",
            "offset": 0,
            "slot": "2",
            "type": "t_uint256"
          },
          {
            "astId": 8924,
            "contract": "contracts/global/matcher/Matcher.sol:Matcher",
            "label": "_elements",
            "offset": 0,
            "slot": "3",
            "type": "t_mapping(t_bytes32,t_struct(Element)8913_storage)"
          }
        ],
        "numberOfBytes": "128"
      },
      "t_struct(ComputePeer)8524_storage": {
        "encoding": "inplace",
        "label": "struct IMatcherConfig.ComputePeer",
        "members": [
          {
            "astId": 8523,
            "contract": "contracts/global/matcher/Matcher.sol:Matcher",
            "label": "freeWorkerSlots",
            "offset": 0,
            "slot": "0",
            "type": "t_uint256"
          }
        ],
        "numberOfBytes": "32"
      },
      "t_struct(ComputeProvider)8521_storage": {
        "encoding": "inplace",
        "label": "struct IMatcherConfig.ComputeProvider",
        "members": [
          {
            "astId": 8513,
            "contract": "contracts/global/matcher/Matcher.sol:Matcher",
            "label": "minPricePerEpoch",
            "offset": 0,
            "slot": "0",
            "type": "t_uint256"
          },
          {
            "astId": 8515,
            "contract": "contracts/global/matcher/Matcher.sol:Matcher",
            "label": "maxCollateral",
            "offset": 0,
            "slot": "1",
            "type": "t_uint256"
          },
          {
            "astId": 8518,
            "contract": "contracts/global/matcher/Matcher.sol:Matcher",
            "label": "paymentToken",
            "offset": 0,
            "slot": "2",
            "type": "t_contract(IERC20)2321"
          },
          {
            "astId": 8520,
            "contract": "contracts/global/matcher/Matcher.sol:Matcher",
            "label": "totalFreeWorkerSlots",
            "offset": 0,
            "slot": "3",
            "type": "t_uint256"
          }
        ],
        "numberOfBytes": "128"
      },
      "t_struct(ConfigStorage)7446_storage": {
        "encoding": "inplace",
        "label": "struct MatcherConfig.ConfigStorage",
        "members": [
          {
            "astId": 7419,
            "contract": "contracts/global/matcher/Matcher.sol:Matcher",
            "label": "computeProvidersList",
            "offset": 0,
            "slot": "0",
            "type": "t_struct(Bytes32List)8925_storage"
          },
          {
            "astId": 7424,
            "contract": "contracts/global/matcher/Matcher.sol:Matcher",
            "label": "computeProviderByOwner",
            "offset": 0,
            "slot": "4",
            "type": "t_mapping(t_address,t_struct(ComputeProvider)8521_storage)"
          },
          {
            "astId": 7429,
            "contract": "contracts/global/matcher/Matcher.sol:Matcher",
            "label": "computePeersListByProvider",
            "offset": 0,
            "slot": "5",
            "type": "t_mapping(t_address,t_struct(Bytes32List)8925_storage)"
          },
          {
            "astId": 7434,
            "contract": "contracts/global/matcher/Matcher.sol:Matcher",
            "label": "computePeerByPeerId",
            "offset": 0,
            "slot": "6",
            "type": "t_mapping(t_bytes32,t_struct(ComputePeer)8524_storage)"
          },
          {
            "astId": 7440,
            "contract": "contracts/global/matcher/Matcher.sol:Matcher",
            "label": "effectorsByComputeProvider",
            "offset": 0,
            "slot": "7",
            "type": "t_mapping(t_address,t_mapping(t_bytes32,t_bool))"
          },
          {
            "astId": 7445,
            "contract": "contracts/global/matcher/Matcher.sol:Matcher",
            "label": "minMatchingEpochByDeal",
            "offset": 0,
            "slot": "8",
            "type": "t_mapping(t_contract(IDeal)6059,t_uint256)"
          }
        ],
        "numberOfBytes": "288"
      },
      "t_struct(Element)8913_storage": {
        "encoding": "inplace",
        "label": "struct LinkedListWithUniqueKeys.Element",
        "members": [
          {
            "astId": 8910,
            "contract": "contracts/global/matcher/Matcher.sol:Matcher",
            "label": "prev",
            "offset": 0,
            "slot": "0",
            "type": "t_bytes32"
          },
          {
            "astId": 8912,
            "contract": "contracts/global/matcher/Matcher.sol:Matcher",
            "label": "next",
            "offset": 0,
            "slot": "1",
            "type": "t_bytes32"
          }
        ],
        "numberOfBytes": "64"
      },
      "t_uint256": {
        "encoding": "inplace",
        "label": "uint256",
        "numberOfBytes": "32"
      }
    }
  }
}