{
  "address": "0x0e1F3B362E22B2Dc82C9E35d6e62998C7E8e2349",
  "abi": [
    {
      "anonymous": false,
      "inputs": [
        {
          "indexed": false,
          "internalType": "address",
          "name": "previousAdmin",
          "type": "address"
        },
        {
          "indexed": false,
          "internalType": "address",
          "name": "newAdmin",
          "type": "address"
        }
      ],
      "name": "AdminChanged",
      "type": "event"
    },
    {
      "anonymous": false,
      "inputs": [
        {
          "indexed": true,
          "internalType": "address",
          "name": "beacon",
          "type": "address"
        }
      ],
      "name": "BeaconUpgraded",
      "type": "event"
    },
    {
      "anonymous": false,
      "inputs": [
        {
          "indexed": false,
          "internalType": "enum DealStatus",
          "name": "newStatus",
          "type": "uint8"
        }
      ],
      "name": "StatusChanged",
      "type": "event"
    },
    {
      "anonymous": false,
      "inputs": [
        {
          "indexed": true,
          "internalType": "address",
          "name": "implementation",
          "type": "address"
        }
      ],
      "name": "Upgraded",
      "type": "event"
    },
    {
      "inputs": [
        {
          "internalType": "enum DealStatus",
          "name": "status_",
          "type": "uint8"
        }
      ],
      "name": "changeStatus",
      "outputs": [],
      "stateMutability": "nonpayable",
      "type": "function"
    },
    {
      "inputs": [],
      "name": "proxiableUUID",
      "outputs": [
        {
          "internalType": "bytes32",
          "name": "",
          "type": "bytes32"
        }
      ],
      "stateMutability": "view",
      "type": "function"
    },
    {
      "inputs": [],
      "name": "startWorkingEpoch",
      "outputs": [
        {
          "internalType": "uint256",
          "name": "",
          "type": "uint256"
        }
      ],
      "stateMutability": "view",
      "type": "function"
    },
    {
      "inputs": [],
      "name": "status",
      "outputs": [
        {
          "internalType": "enum DealStatus",
          "name": "",
          "type": "uint8"
        }
      ],
      "stateMutability": "view",
      "type": "function"
    },
    {
      "inputs": [
        {
          "internalType": "address",
          "name": "newImplementation",
          "type": "address"
        }
      ],
      "name": "upgradeTo",
      "outputs": [],
      "stateMutability": "nonpayable",
      "type": "function"
    },
    {
      "inputs": [
        {
          "internalType": "address",
          "name": "newImplementation",
          "type": "address"
        },
        {
          "internalType": "bytes",
          "name": "data",
          "type": "bytes"
        }
      ],
      "name": "upgradeToAndCall",
      "outputs": [],
      "stateMutability": "payable",
      "type": "function"
    }
  ],
  "transactionHash": "0x9287854d42e95a349c2e0ae62a5dfe6556034070362eba477bb0b91229d09a98",
  "args": [],
  "numDeployments": 1,
  "solcInputHash": "953af638ac13880ce2b824dac348bba6",
  "bytecode": "0x60a0806040523461003157306080526110fd9081610037823960805181818161021c0152818161035f01526106e10152f35b600080fdfe608060408181526004918236101561001657600080fd5b600092833560e01c918263200d2ed2146109cc575081633659cfe6146106ab5781634f1ef286146102d657816352d1902d146101f157816395bc953814610088575063f50940491461006757600080fd5b346100845781600319360112610084576020906033549051908152f35b5080fd5b9050346101ed576020806003193601126101e95781359260028410156101e557602473ffffffffffffffffffffffffffffffffffffffff83817fe0c154d538f20c8d1aadcd299210daa7f0a434a5bf4a39795668b28b61ec6e9654168451938480927f5035096100000000000000000000000000000000000000000000000000000000825289808301525afa9182156101db57879261019f575b5033911603610138578461013585610dc4565b80f35b60849350519162461bcd60e51b8352820152602960248201527f4d6f64756c65426173653a2063616c6c6572206973206e6f742072657175697260448201527f6564206d6f64756c6500000000000000000000000000000000000000000000006064820152fd5b9091508381813d83116101d4575b6101b78183610aa7565b810103126101d0575181811681036101d0579038610122565b8680fd5b503d6101ad565b83513d89823e3d90fd5b8480fd5b8380fd5b8280fd5b905082346102d357806003193601126102d3575073ffffffffffffffffffffffffffffffffffffffff7f000000000000000000000000000000000000000000000000000000000000000016300361026b57602082517f360894a13ba1a3210667c828492db98dca3e2076cc3735a920a3ca505d382bbc8152f35b6020608492519162461bcd60e51b8352820152603860248201527f555550535570677261646561626c653a206d757374206e6f742062652063616c60448201527f6c6564207468726f7567682064656c656761746563616c6c00000000000000006064820152fd5b80fd5b918091506003193601126101ed576102ec610a34565b9060249081359067ffffffffffffffff82116106a757366023830112156106a7578185013561031a81610ae8565b61032683519182610aa7565b8181528760209485830193368882840101116101ed57808888930186378301015273ffffffffffffffffffffffffffffffffffffffff807f0000000000000000000000000000000000000000000000000000000000000000169061038c82301415610b22565b6103bb7f360894a13ba1a3210667c828492db98dca3e2076cc3735a920a3ca505d382bbc928284541614610b93565b807fe0c154d538f20c8d1aadcd299210daa7f0a434a5bf4a39795668b28b61ec6e9654163303610666577f4910fdfa16fed3260ed0e7147f7cc6da11a60208b5b9406d12a635614ffd91435460ff161561042057505050505050506101359150610c04565b87929394959697169085517f52d1902d00000000000000000000000000000000000000000000000000000000815287818b81865afa8b9181610633575b506104c95760848a602e8b8b8b519362461bcd60e51b85528401528201527f45524331393637557067726164653a206e657720696d706c656d656e7461746960448201527f6f6e206973206e6f7420555550530000000000000000000000000000000000006064820152fd5b9892949897919397036105cc5750506104e182610c04565b7fbc7cd75a20ee27fd9adebab32041f755214dbc6bffa90cc0225b39da2e5c2d3b8780a2858451158015906105c4575b61051f575b50505050505080f35b806105ae9684519661053088610a5c565b602788527f416464726573733a206c6f772d6c6576656c2064656c65676174652063616c6c878901527f206661696c656400000000000000000000000000000000000000000000000000868901525190845af4913d156105ba573d6105a061059782610ae8565b92519283610aa7565b81528681943d92013e610cd6565b50388080808085610516565b5060609250610cd6565b506001610511565b9060296084928787519362461bcd60e51b85528401528201527f45524331393637557067726164653a20756e737570706f727465642070726f7860448201527f6961626c655555494400000000000000000000000000000000000000000000006064820152fd5b9091508881813d831161065f575b61064b8183610aa7565b8101031261065b5751903861045d565b8b80fd5b503d610641565b606489601e898989519362461bcd60e51b85528401528201527f4d6f64756c65426173653a2063616c6c6572206973206e6f7420636f726500006044820152fd5b8580fd5b919050346101ed576020806003193601126101e9576106c8610a34565b9173ffffffffffffffffffffffffffffffffffffffff807f00000000000000000000000000000000000000000000000000000000000000001661070d81301415610b22565b61073c7f360894a13ba1a3210667c828492db98dca3e2076cc3735a920a3ca505d382bbc918383541614610b93565b817fe0c154d538f20c8d1aadcd299210daa7f0a434a5bf4a39795668b28b61ec6e965416330361098a578251908482019282841067ffffffffffffffff85111761095e578385528883527f4910fdfa16fed3260ed0e7147f7cc6da11a60208b5b9406d12a635614ffd91435460ff16156107c0575050505050506101359150610c04565b869293949596169085517f52d1902d00000000000000000000000000000000000000000000000000000000815287818a81865afa8a918161092b575b50610869576084898989519162461bcd60e51b8352820152602e60248201527f45524331393637557067726164653a206e657720696d706c656d656e7461746960448201527f6f6e206973206e6f7420555550530000000000000000000000000000000000006064820152fd5b9791929396959497036108c3575061088082610c04565b7fbc7cd75a20ee27fd9adebab32041f755214dbc6bffa90cc0225b39da2e5c2d3b8780a2858451158015906108bc5761051f5750505050505080f35b5080610511565b6084908585519162461bcd60e51b8352820152602960248201527f45524331393637557067726164653a20756e737570706f727465642070726f7860448201527f6961626c655555494400000000000000000000000000000000000000000000006064820152fd5b9091508881813d8311610957575b6109438183610aa7565b81010312610953575190386107fc565b8a80fd5b503d610939565b60248960418a7f4e487b7100000000000000000000000000000000000000000000000000000000835252fd5b6064868585519162461bcd60e51b8352820152601e60248201527f4d6f64756c65426173653a2063616c6c6572206973206e6f7420636f726500006044820152fd5b84346102d357806003193601126102d35750806109ee60ff60325416826109f2565b0390f35b919060208301926002821015610a055752565b7f4e487b7100000000000000000000000000000000000000000000000000000000600052602160045260246000fd5b6004359073ffffffffffffffffffffffffffffffffffffffff82168203610a5757565b600080fd5b6060810190811067ffffffffffffffff821117610a7857604052565b7f4e487b7100000000000000000000000000000000000000000000000000000000600052604160045260246000fd5b90601f7fffffffffffffffffffffffffffffffffffffffffffffffffffffffffffffffe0910116810190811067ffffffffffffffff821117610a7857604052565b67ffffffffffffffff8111610a7857601f017fffffffffffffffffffffffffffffffffffffffffffffffffffffffffffffffe01660200190565b15610b2957565b608460405162461bcd60e51b815260206004820152602c60248201527f46756e6374696f6e206d7573742062652063616c6c6564207468726f7567682060448201527f64656c656761746563616c6c00000000000000000000000000000000000000006064820152fd5b15610b9a57565b608460405162461bcd60e51b815260206004820152602c60248201527f46756e6374696f6e206d7573742062652063616c6c6564207468726f7567682060448201527f6163746976652070726f787900000000000000000000000000000000000000006064820152fd5b803b15610c6c5773ffffffffffffffffffffffffffffffffffffffff7f360894a13ba1a3210667c828492db98dca3e2076cc3735a920a3ca505d382bbc91167fffffffffffffffffffffffff0000000000000000000000000000000000000000825416179055565b608460405162461bcd60e51b815260206004820152602d60248201527f455243313936373a206e657720696d706c656d656e746174696f6e206973206e60448201527f6f74206120636f6e7472616374000000000000000000000000000000000000006064820152fd5b91929015610d375750815115610cea575090565b3b15610cf35790565b606460405162461bcd60e51b815260206004820152601d60248201527f416464726573733a2063616c6c20746f206e6f6e2d636f6e74726163740000006044820152fd5b825190915015610d4a5750805190602001fd5b6040519062461bcd60e51b825281602080600483015282519283602484015260005b848110610dad575050507fffffffffffffffffffffffffffffffffffffffffffffffffffffffffffffffe0601f836000604480968601015201168101030190fd5b818101830151868201604401528593508201610d6c565b60ff603254166002821015610a05576002811015610a055781146110c457600080600183036110b25773ffffffffffffffffffffffffffffffffffffffff807fe0c154d538f20c8d1aadcd299210daa7f0a434a5bf4a39795668b28b61ec6e96541690604091825180917f68f1e99a00000000000000000000000000000000000000000000000000000000825281600460209485935afa90811561103657839183918891611079575b5060048651809481937fa7c1abe0000000000000000000000000000000000000000000000000000000008352165afa90811561103657839183918891611040575b5060048651809481937fe2d2bfe3000000000000000000000000000000000000000000000000000000008352165afa908115611036579082918791610ffe575b5060048551809581937f76671808000000000000000000000000000000000000000000000000000000008352165afa928315610ff557508492610fc7575b50506033555b610f9a5750610f957fafa725e7f44cadb687a7043853fa1a7e7b8f0da74ce87ec546e9420f04da8c1e917fffffffffffffffffffffffffffffffffffffffffffffffffffffffffffffff006032541660ff821617603255604051918291826109f2565b0390a1565b807f4e487b7100000000000000000000000000000000000000000000000000000000602492526021600452fd5b90809250813d8311610fee575b610fde8183610aa7565b810103126101ed57513880610f2c565b503d610fd4565b513d86823e3d90fd5b82819392503d831161102f575b6110158183610aa7565b810103126106a7575182811681036106a757819038610eee565b503d61100b565b84513d88823e3d90fd5b92505081813d8311611072575b6110578183610aa7565b810103126106a7575182811681036106a75781839138610eae565b503d61104d565b92505081813d83116110ab575b6110908183610aa7565b810103126106a7575182811681036106a75781839138610e6d565b503d611086565b90508082610f32576000603355610f32565b5056fea264697066735822122046fe92c1436928bf6e310f968209f83d3668790c77e8c414c4c75e3801c09e1864736f6c63430008130033",
  "devdoc": {
    "events": {
      "AdminChanged(address,address)": {
        "details": "Emitted when the admin account has changed."
      },
      "BeaconUpgraded(address)": {
        "details": "Emitted when the beacon is changed."
      },
      "Upgraded(address)": {
        "details": "Emitted when the implementation is upgraded."
      }
    },
    "kind": "dev",
    "methods": {
      "proxiableUUID()": {
        "details": "Implementation of the ERC1822 {proxiableUUID} function. This returns the storage slot used by the implementation. It is used to validate the implementation's compatibility when performing an upgrade. IMPORTANT: A proxy pointing at a proxiable contract should not be considered proxiable itself, because this risks bricking a proxy that upgrades to it, by delegating to itself until out of gas. Thus it is critical that this function revert if invoked through a proxy. This is guaranteed by the `notDelegated` modifier."
      },
      "upgradeTo(address)": {
        "custom:oz-upgrades-unsafe-allow-reachable": "delegatecall",
        "details": "Upgrade the implementation of the proxy to `newImplementation`. Calls {_authorizeUpgrade}. Emits an {Upgraded} event."
      },
      "upgradeToAndCall(address,bytes)": {
        "custom:oz-upgrades-unsafe-allow-reachable": "delegatecall",
        "details": "Upgrade the implementation of the proxy to `newImplementation`, and subsequently execute the function call encoded in `data`. Calls {_authorizeUpgrade}. Emits an {Upgraded} event."
      }
    },
    "version": 1
  },
  "userdoc": {
    "kind": "user",
    "methods": {},
    "version": 1
  },
  "storageLayout": {
    "storage": [
      {
        "astId": 5633,
        "contract": "contracts/deal/StatusModule.sol:StatusModule",
        "label": "__gap",
        "offset": 0,
        "slot": "0",
        "type": "t_array(t_uint256)50_storage"
      },
      {
        "astId": 4786,
        "contract": "contracts/deal/StatusModule.sol:StatusModule",
        "label": "_status_",
        "offset": 0,
        "slot": "50",
        "type": "t_enum(DealStatus)5936"
      },
      {
        "astId": 4788,
        "contract": "contracts/deal/StatusModule.sol:StatusModule",
        "label": "_startWorkingEpoch_",
        "offset": 0,
        "slot": "51",
        "type": "t_uint256"
      }
    ],
    "types": {
      "t_array(t_uint256)50_storage": {
        "base": "t_uint256",
        "encoding": "inplace",
        "label": "uint256[50]",
        "numberOfBytes": "1600"
      },
      "t_enum(DealStatus)5936": {
        "encoding": "inplace",
        "label": "enum DealStatus",
        "numberOfBytes": "1"
      },
      "t_uint256": {
        "encoding": "inplace",
        "label": "uint256",
        "numberOfBytes": "32"
      }
    }
  }
}