{
  "address": "0x80c7c37933BD039bE3e4c441499E5767838D719e",
  "abi": [
    {
      "inputs": [
        {
          "internalType": "contract IGlobalConfig",
          "name": "globalConfig_",
          "type": "address"
        }
      ],
      "stateMutability": "nonpayable",
      "type": "constructor"
    },
    {
      "anonymous": false,
      "inputs": [
        {
          "indexed": false,
          "internalType": "address",
          "name": "previousAdmin",
          "type": "address"
        },
        {
          "indexed": false,
          "internalType": "address",
          "name": "newAdmin",
          "type": "address"
        }
      ],
      "name": "AdminChanged",
      "type": "event"
    },
    {
      "anonymous": false,
      "inputs": [
        {
          "indexed": true,
          "internalType": "address",
          "name": "beacon",
          "type": "address"
        }
      ],
      "name": "BeaconUpgraded",
      "type": "event"
    },
    {
      "anonymous": false,
      "inputs": [
        {
          "indexed": false,
          "internalType": "address",
          "name": "computeProvider",
          "type": "address"
        },
        {
          "indexed": false,
          "internalType": "uint256",
          "name": "minPriceByEpoch",
          "type": "uint256"
        },
        {
          "indexed": false,
          "internalType": "uint256",
          "name": "maxCollateral",
          "type": "uint256"
        },
        {
          "indexed": false,
          "internalType": "uint256",
          "name": "workersCount",
          "type": "uint256"
        },
        {
          "components": [
            {
              "internalType": "bytes4",
              "name": "prefixes",
              "type": "bytes4"
            },
            {
              "internalType": "bytes32",
              "name": "hash",
              "type": "bytes32"
            }
          ],
          "indexed": false,
          "internalType": "struct CIDV1[]",
          "name": "effectors",
          "type": "tuple[]"
        }
      ],
      "name": "ComputeProviderRegistered",
      "type": "event"
    },
    {
      "anonymous": false,
      "inputs": [
        {
          "indexed": false,
          "internalType": "uint8",
          "name": "version",
          "type": "uint8"
        }
      ],
      "name": "Initialized",
      "type": "event"
    },
    {
      "anonymous": false,
      "inputs": [
        {
          "indexed": true,
          "internalType": "address",
          "name": "computeProvider",
          "type": "address"
        },
        {
          "indexed": false,
          "internalType": "address",
          "name": "deal",
          "type": "address"
        },
        {
          "indexed": false,
          "internalType": "uint256",
          "name": "joinedWorkers",
          "type": "uint256"
        },
        {
          "indexed": false,
          "internalType": "uint256",
          "name": "dealCreationBlock",
          "type": "uint256"
        },
        {
          "components": [
            {
              "internalType": "bytes4",
              "name": "prefixes",
              "type": "bytes4"
            },
            {
              "internalType": "bytes32",
              "name": "hash",
              "type": "bytes32"
            }
          ],
          "indexed": false,
          "internalType": "struct CIDV1",
          "name": "appCID",
          "type": "tuple"
        }
      ],
      "name": "Matched",
      "type": "event"
    },
    {
      "anonymous": false,
      "inputs": [
        {
          "indexed": true,
          "internalType": "address",
          "name": "implementation",
          "type": "address"
        }
      ],
      "name": "Upgraded",
      "type": "event"
    },
    {
      "inputs": [],
      "name": "globalConfig",
      "outputs": [
        {
          "internalType": "contract IGlobalConfig",
          "name": "",
          "type": "address"
        }
      ],
      "stateMutability": "view",
      "type": "function"
    },
    {
      "inputs": [
        {
          "internalType": "contract ICore",
          "name": "deal",
          "type": "address"
        }
      ],
      "name": "matchWithDeal",
      "outputs": [],
      "stateMutability": "nonpayable",
      "type": "function"
    },
    {
      "inputs": [],
      "name": "proxiableUUID",
      "outputs": [
        {
          "internalType": "bytes32",
          "name": "",
          "type": "bytes32"
        }
      ],
      "stateMutability": "view",
      "type": "function"
    },
    {
      "inputs": [
        {
          "internalType": "uint256",
          "name": "minPriceByEpoch",
          "type": "uint256"
        },
        {
          "internalType": "uint256",
          "name": "maxCollateral",
          "type": "uint256"
        },
        {
          "internalType": "uint256",
          "name": "workersCount",
          "type": "uint256"
        },
        {
          "components": [
            {
              "internalType": "bytes4",
              "name": "prefixes",
              "type": "bytes4"
            },
            {
              "internalType": "bytes32",
              "name": "hash",
              "type": "bytes32"
            }
          ],
          "internalType": "struct CIDV1[]",
          "name": "effectors",
          "type": "tuple[]"
        }
      ],
      "name": "register",
      "outputs": [],
      "stateMutability": "nonpayable",
      "type": "function"
    },
    {
      "inputs": [],
      "name": "remove",
      "outputs": [],
      "stateMutability": "nonpayable",
      "type": "function"
    },
    {
      "inputs": [],
      "name": "resourceConfigIds",
      "outputs": [
        {
          "internalType": "bytes32",
          "name": "_first",
          "type": "bytes32"
        },
        {
          "internalType": "bytes32",
          "name": "_last",
          "type": "bytes32"
        }
      ],
      "stateMutability": "view",
      "type": "function"
    },
    {
      "inputs": [
        {
          "internalType": "address",
          "name": "",
          "type": "address"
        }
      ],
      "name": "resourceConfigs",
      "outputs": [
        {
          "internalType": "uint256",
          "name": "minPriceByEpoch",
          "type": "uint256"
        },
        {
          "internalType": "uint256",
          "name": "maxCollateral",
          "type": "uint256"
        },
        {
          "internalType": "uint256",
          "name": "workersCount",
          "type": "uint256"
        }
      ],
      "stateMutability": "view",
      "type": "function"
    },
    {
      "inputs": [
        {
          "internalType": "address",
          "name": "owner",
          "type": "address"
        },
        {
          "internalType": "bool",
          "name": "hasAccess",
          "type": "bool"
        }
      ],
      "name": "setWhiteList",
      "outputs": [],
      "stateMutability": "nonpayable",
      "type": "function"
    },
    {
      "inputs": [
        {
          "internalType": "address",
          "name": "newImplementation",
          "type": "address"
        }
      ],
      "name": "upgradeTo",
      "outputs": [],
      "stateMutability": "nonpayable",
      "type": "function"
    },
    {
      "inputs": [
        {
          "internalType": "address",
          "name": "newImplementation",
          "type": "address"
        },
        {
          "internalType": "bytes",
          "name": "data",
          "type": "bytes"
        }
      ],
      "name": "upgradeToAndCall",
      "outputs": [],
      "stateMutability": "payable",
      "type": "function"
    },
    {
      "inputs": [
        {
          "internalType": "address",
          "name": "",
          "type": "address"
        }
      ],
      "name": "whitelist",
      "outputs": [
        {
          "internalType": "bool",
          "name": "",
          "type": "bool"
        }
      ],
      "stateMutability": "view",
      "type": "function"
    }
  ],
  "transactionHash": "0x57b9cdb4608dfec4e49b941734046ab9abe5f5c020ec5cbd293be79361f87d46",
  "args": [
    "0xf4e3Db4978DDb1c5f144d072729Ff8AfCb0a6040"
  ],
  "numDeployments": 1,
  "solcInputHash": "09b042013a0e7f52f00b8304d2e32516",
  "bytecode": "0x60c0346100bd57601f61274738819003918201601f19168301916001600160401b038311848410176100c2578084926020946040528339810103126100bd57516001600160a01b03811681036100bd576080523060a05260405161266e90816100d9823960805181818161010c0152818161053d015281816106f701528181610d5d01528181610e9001528181610f6d0152818161125e015281816115e10152611919015260a051818181611090015281816111d401526115580152f35b600080fd5b634e487b7160e01b600052604160045260246000fdfe608080604052600436101561001357600080fd5b60003560e01c9081632071dce8146117c3575080633659cfe6146115255780634f1ef2861461114a57806352d1902d146110685780638ae867501461100a5780638d14e12714610f005780639b19251a14610eb4578063a7c1abe014610e63578063a7f4377914610c95578063b5ebe33d14610c705763c6c44ed11461009857600080fd5b346109095760206003193601126109095760043573ffffffffffffffffffffffffffffffffffffffff81168103610909576040517fc45a015500000000000000000000000000000000000000000000000000000000815260208160048173ffffffffffffffffffffffffffffffffffffffff7f0000000000000000000000000000000000000000000000000000000000000000165afa9081156107f857600091610c20575b50602073ffffffffffffffffffffffffffffffffffffffff916024604051809481937f4db44e640000000000000000000000000000000000000000000000000000000083528188166004840152165afa9081156107f857600091610c01575b5015610bbd57604051907f68f1e99a00000000000000000000000000000000000000000000000000000000825260208260048173ffffffffffffffffffffffffffffffffffffffff85165afa9182156107f857600092610b6c575b50604051907fb53105a300000000000000000000000000000000000000000000000000000000825273ffffffffffffffffffffffffffffffffffffffff831692602083600481875afa9283156107f857600093610b38575b50604051907f5fc8f59c000000000000000000000000000000000000000000000000000000008252602082600481885afa9182156107f857600092610b04575b50604051947f8a0c725b000000000000000000000000000000000000000000000000000000008652602086600481845afa9586156107f857600096610ad0575b50604051927f17634514000000000000000000000000000000000000000000000000000000008452602084600481855afa9384156107f857600094610a9c575b50604051957f9bc66868000000000000000000000000000000000000000000000000000000008752604087600481865afa9687156107f857600097610a5c575b50604051927f2ed52a7700000000000000000000000000000000000000000000000000000000845260208460048173ffffffffffffffffffffffffffffffffffffffff8b165afa9384156107f857600094610a0a575b506020600491604051928380927f2943dcab0000000000000000000000000000000000000000000000000000000082525afa9081156107f8576000916109d8575b50604051907fbe18cf7f00000000000000000000000000000000000000000000000000000000825260208260048173ffffffffffffffffffffffffffffffffffffffff89165afa9081156107f8576000916109a2575b6104499250949394612200565b92600054925b83151580610999575b15610997578360601c8060005260036020526040600020956001870154846002890154985411801561098e575b801561097d575b61096057878d111561095957875b82891161094f575b886104ac91612200565b61094a57826000526003602052600060026040822082815582600182015501556104fa7fffffffffffffffffffffffffffffffffffffffff0000000000000000000000008460601b16612527565b6040517fac027f9700000000000000000000000000000000000000000000000000000000815260208160048173ffffffffffffffffffffffffffffffffffffffff7f0000000000000000000000000000000000000000000000000000000000000000165afa9081156107f8576105de9160209160009161092d575b506105808b8a6120e8565b6040517f095ea7b300000000000000000000000000000000000000000000000000000000815273ffffffffffffffffffffffffffffffffffffffff898116600483015260248201929092529384929183916000919083906044820190565b0393165af180156107f85761090e575b50878660005b82811061083557506106069192612200565b91826106b2575b6106179250612200565b9460005260026020527f8a2ecab128faa476aff507c7f34da3348b5c56e4a0401825f6919b4cc7b249f160a0600160406000200154976040519073ffffffffffffffffffffffffffffffffffffffff8d16825260208201528a60408201527fffffffff000000000000000000000000000000000000000000000000000000008d5116606082015260208d01516080820152a25b93929361044f565b90506040517fac027f9700000000000000000000000000000000000000000000000000000000815260208160048173ffffffffffffffffffffffffffffffffffffffff7f0000000000000000000000000000000000000000000000000000000000000000165afa9081156107f85773ffffffffffffffffffffffffffffffffffffffff936020928b6107ac93600092610804575b5061075191926120e8565b60006040519687809581947fa9059cbb0000000000000000000000000000000000000000000000000000000083528b600484016020909392919373ffffffffffffffffffffffffffffffffffffffff60408201951681520152565b0393165af19081156107f8576106179289926107c9575b5061060d565b6107ea9060203d6020116107f1575b6107e28183611d2e565b810190612196565b50386107c3565b503d6107d8565b6040513d6000823e3d90fd5b610751925061082890863d881161082e575b6108208183611d2e565b81019061204b565b91610746565b503d610816565b91505073ffffffffffffffffffffffffffffffffffffffff85163b1561090957604051907fe5e63b310000000000000000000000000000000000000000000000000000000082528460048301526000826024818373ffffffffffffffffffffffffffffffffffffffff8b165af180156107f8576108bf575b6108b7915061212a565b8689916105f4565b67ffffffffffffffff82116108da576108b7916040526108ad565b7f4e487b7100000000000000000000000000000000000000000000000000000000600052604160045260246000fd5b600080fd5b6109269060203d6020116107f1576107e28183611d2e565b50386105ee565b6109449150823d841161082e576108208183611d2e565b38610575565b6104fa565b91975087916104a2565b8c9761049a565b5094919550506000526002602052600160406000200154936106aa565b50610988838a612221565b1561048c565b50858110610485565b005b50841515610458565b90506020823d6020116109d0575b816109bd60209383611d2e565b810103126109095761044991519061043c565b3d91506109b0565b90506020813d602011610a02575b816109f360209383611d2e565b810103126109095751386103e6565b3d91506109e6565b9093506020813d602011610a54575b81610a2660209383611d2e565b81010312610909575173ffffffffffffffffffffffffffffffffffffffff81168103610909579260206103a5565b3d9150610a19565b9096506040903d604011610a94575b610a758282611d2e565b604081838101031261090957610a8d918101906121ae565b953861034f565b3d9150610a6b565b9093506020813d602011610ac8575b81610ab860209383611d2e565b810103126109095751923861030f565b3d9150610aab565b9095506020813d602011610afc575b81610aec60209383611d2e565b81010312610909575194386102cf565b3d9150610adf565b9091506020813d602011610b30575b81610b2060209383611d2e565b810103126109095751903861028f565b3d9150610b13565b9092506020813d602011610b64575b81610b5460209383611d2e565b810103126109095751913861024f565b3d9150610b47565b9091506020813d602011610bb5575b81610b8860209383611d2e565b81010312610909575173ffffffffffffffffffffffffffffffffffffffff811681036109095790386101f7565b3d9150610b7b565b606460405162461bcd60e51b815260206004820152601860248201527f4465616c206973206e6f742066726f6d20666163746f727900000000000000006044820152fd5b610c1a915060203d6020116107f1576107e28183611d2e565b3861019c565b90506020813d602011610c68575b81610c3b60209383611d2e565b81010312610909575173ffffffffffffffffffffffffffffffffffffffff8116810361090957602061013d565b3d9150610c2e565b3461090957600060031936011261090957604060005460015482519182526020820152f35b34610909576000600319360112610909573360005260206003815260406000206002810154908115610e1f57906001610ccf9201546120e8565b336000526003825260006002604082208281558260018201550155610d187fffffffffffffffffffffffffffffffffffffffff0000000000000000000000003360601b16612527565b604051907fac027f9700000000000000000000000000000000000000000000000000000000825273ffffffffffffffffffffffffffffffffffffffff918381600481867f0000000000000000000000000000000000000000000000000000000000000000165afa80156107f8578492610dd992600092610e00575b506040517fa9059cbb0000000000000000000000000000000000000000000000000000000081523360048201526024810191909152938492839160009183906044820190565b0393165af180156107f857610dea57005b8161099792903d106107f1576107e28183611d2e565b610e18919250843d861161082e576108208183611d2e565b9086610d93565b6064836040519062461bcd60e51b82526004820152601460248201527f436f6e66696720646f65736e27742065786973740000000000000000000000006044820152fd5b3461090957600060031936011261090957602060405173ffffffffffffffffffffffffffffffffffffffff7f0000000000000000000000000000000000000000000000000000000000000000168152f35b346109095760206003193601126109095773ffffffffffffffffffffffffffffffffffffffff610ee2611cd3565b166000526004602052602060ff604060002054166040519015158152f35b3461090957604060031936011261090957610f19611cd3565b6024359081151580920361090957604051907f8da5cb5b00000000000000000000000000000000000000000000000000000000825273ffffffffffffffffffffffffffffffffffffffff91602081600481867f0000000000000000000000000000000000000000000000000000000000000000165afa9081156107f857610fad918491600091610fec575b50163314612077565b16600052600460205260406000209060ff7fffffffffffffffffffffffffffffffffffffffffffffffffffffffffffffff008354169116179055600080f35b611004915060203d811161082e576108208183611d2e565b86610fa4565b346109095760206003193601126109095773ffffffffffffffffffffffffffffffffffffffff611038611cd3565b16600052600360205260606040600020805490600260018201549101549060405192835260208301526040820152f35b346109095760006003193601126109095773ffffffffffffffffffffffffffffffffffffffff7f00000000000000000000000000000000000000000000000000000000000000001630036110e05760206040517f360894a13ba1a3210667c828492db98dca3e2076cc3735a920a3ca505d382bbc8152f35b608460405162461bcd60e51b815260206004820152603860248201527f555550535570677261646561626c653a206d757374206e6f742062652063616c60448201527f6c6564207468726f7567682064656c656761746563616c6c00000000000000006064820152fd5b60406003193601126109095761115e611cd3565b6024359067ffffffffffffffff8211610909573660238301121561090957816004013561118a81611d6f565b6111976040519182611d2e565b8181526020918282019436602483830101116109095781600092602486930188378301015273ffffffffffffffffffffffffffffffffffffffff807f0000000000000000000000000000000000000000000000000000000000000000169061120182301415611da9565b6112307f360894a13ba1a3210667c828492db98dca3e2076cc3735a920a3ca505d382bbc928284541614611e1a565b6040517f8da5cb5b0000000000000000000000000000000000000000000000000000000081528481600481857f0000000000000000000000000000000000000000000000000000000000000000165afa9081156107f85761129d9183916000916115085750163314612077565b7f4910fdfa16fed3260ed0e7147f7cc6da11a60208b5b9406d12a635614ffd91435460ff16156112d557505050506109979150611e8b565b8492939416906040517f52d1902d0000000000000000000000000000000000000000000000000000000081528581600481865afa600091816114d9575b50611381576084866040519062461bcd60e51b82526004820152602e60248201527f45524331393637557067726164653a206e657720696d706c656d656e7461746960448201527f6f6e206973206e6f7420555550530000000000000000000000000000000000006064820152fd5b9493940361146f5761139282611e8b565b7fbc7cd75a20ee27fd9adebab32041f755214dbc6bffa90cc0225b39da2e5c2d3b600080a2825115801590611467575b6113c857005b60008061099795604051956113dc87611d12565b602787527f416464726573733a206c6f772d6c6576656c2064656c65676174652063616c6c868801527f206661696c65640000000000000000000000000000000000000000000000000060408801525190845af4903d1561145e573d61144181611d6f565b9061144f6040519283611d2e565b8152600081943d92013e611f5d565b60609250611f5d565b5060016113c2565b6084836040519062461bcd60e51b82526004820152602960248201527f45524331393637557067726164653a20756e737570706f727465642070726f7860448201527f6961626c655555494400000000000000000000000000000000000000000000006064820152fd5b9091508681813d8311611501575b6114f18183611d2e565b8101031261090957519088611312565b503d6114e7565b61151f9150873d891161082e576108208183611d2e565b89610fa4565b34610909576020806003193601126109095761153f611cd3565b73ffffffffffffffffffffffffffffffffffffffff91827f00000000000000000000000000000000000000000000000000000000000000001661158481301415611da9565b6115b37f360894a13ba1a3210667c828492db98dca3e2076cc3735a920a3ca505d382bbc918583541614611e1a565b6040517f8da5cb5b0000000000000000000000000000000000000000000000000000000081528281600481887f0000000000000000000000000000000000000000000000000000000000000000165afa9081156107f8576116209186916000916117a65750163314612077565b604051908282019482861067ffffffffffffffff8711176108da57856040526000835260ff7f4910fdfa16fed3260ed0e7147f7cc6da11a60208b5b9406d12a635614ffd9143541660001461167d57505050506109979150611e8b565b8492939416906040517f52d1902d0000000000000000000000000000000000000000000000000000000081528581600481865afa60009181611777575b50611729576084866040519062461bcd60e51b82526004820152602e60248201527f45524331393637557067726164653a206e657720696d706c656d656e7461746960448201527f6f6e206973206e6f7420555550530000000000000000000000000000000000006064820152fd5b9493940361146f5761173a82611e8b565b7fbc7cd75a20ee27fd9adebab32041f755214dbc6bffa90cc0225b39da2e5c2d3b600080a282511580159061176f576113c857005b5060006113c2565b9091508681813d831161179f575b61178f8183611d2e565b81010312610909575190886116ba565b503d611785565b6117bd9150853d871161082e576108208183611d2e565b87610fa4565b346109095760806003193601126109095760643590602480359167ffffffffffffffff916044359060043584871161090957366023880112156109095786600401359385851161090957828801978336918760061b010111610909578315611c6c57508515611c02573360005260209260038452600260406000200154611bbf5761184e81886120e8565b604051966060880190811188821017611b915760405282875284870196888852604081019783895260005b888c818310611a91575050506002906118b67fffffffffffffffffffffffffffffffffffffffff0000000000000000000000003360601b16612435565b336000526003885260406000209251835551986001998a84015551910155604051907fac027f9700000000000000000000000000000000000000000000000000000000825273ffffffffffffffffffffffffffffffffffffffff948683600481897f0000000000000000000000000000000000000000000000000000000000000000165afa9586156107f8578793600097611a6a575b5090600060649260405198899586947f23b872dd00000000000000000000000000000000000000000000000000000000865233600487015230908601526044850152165af19283156107f8578593611a4d575b50604095949395519660a0880192338952878901526040880152606087015260a060808701525260c08401949260005b8281106119fe577fb1399aee0736b9c3a9b2afcb0b17b60726080132659ea48cc0d1c157cf534bf886880387a1005b90919293958635907fffffffff000000000000000000000000000000000000000000000000000000008216809203610909579081528683013583820152604090810196019392919083016119cf565b611a6390853d87116107f1576107e28183611d2e565b508861199f565b606492919750611a88600091863d881161082e576108208183611d2e565b9791925061194c565b611a9c918391612157565b35907fffffffff000000000000000000000000000000000000000000000000000000008216820361090957611b8c9189611ad88f8d8591612157565b6040517fffffffff00000000000000000000000000000000000000000000000000000000909316838d01908152910135600482015290611b4381602484015b037fffffffffffffffffffffffffffffffffffffffffffffffffffffffffffffffe08101835282611d2e565b5190203360005260058a526040600020906000528952604060002060017fffffffffffffffffffffffffffffffffffffffffffffffffffffffffffffff0082541617905561212a565b611879565b847f4e487b710000000000000000000000000000000000000000000000000000000060005260416004526000fd5b6064846015856040519262461bcd60e51b845260048401528201527f436f6e66696720616c72656164792065786973747300000000000000000000006044820152fd5b60848260276040519162461bcd60e51b8352602060048401528201527f4d617820636f6c6c61746572616c2073686f756c64206265206772656174657260448201527f207468616e2030000000000000000000000000000000000000000000000000006064820152fd5b8060268462461bcd60e51b60849452602060048401528201527f576f726b65727320636f756e742073686f756c6420626520677265617465722060448201527f7468616e203000000000000000000000000000000000000000000000000000006064820152fd5b6004359073ffffffffffffffffffffffffffffffffffffffff8216820361090957565b6040810190811067ffffffffffffffff8211176108da57604052565b6060810190811067ffffffffffffffff8211176108da57604052565b90601f7fffffffffffffffffffffffffffffffffffffffffffffffffffffffffffffffe0910116810190811067ffffffffffffffff8211176108da57604052565b67ffffffffffffffff81116108da57601f017fffffffffffffffffffffffffffffffffffffffffffffffffffffffffffffffe01660200190565b15611db057565b608460405162461bcd60e51b815260206004820152602c60248201527f46756e6374696f6e206d7573742062652063616c6c6564207468726f7567682060448201527f64656c656761746563616c6c00000000000000000000000000000000000000006064820152fd5b15611e2157565b608460405162461bcd60e51b815260206004820152602c60248201527f46756e6374696f6e206d7573742062652063616c6c6564207468726f7567682060448201527f6163746976652070726f787900000000000000000000000000000000000000006064820152fd5b803b15611ef35773ffffffffffffffffffffffffffffffffffffffff7f360894a13ba1a3210667c828492db98dca3e2076cc3735a920a3ca505d382bbc91167fffffffffffffffffffffffff0000000000000000000000000000000000000000825416179055565b608460405162461bcd60e51b815260206004820152602d60248201527f455243313936373a206e657720696d706c656d656e746174696f6e206973206e60448201527f6f74206120636f6e7472616374000000000000000000000000000000000000006064820152fd5b91929015611fbe5750815115611f71575090565b3b15611f7a5790565b606460405162461bcd60e51b815260206004820152601d60248201527f416464726573733a2063616c6c20746f206e6f6e2d636f6e74726163740000006044820152fd5b825190915015611fd15750805190602001fd5b6040519062461bcd60e51b825281602080600483015282519283602484015260005b848110612034575050507fffffffffffffffffffffffffffffffffffffffffffffffffffffffffffffffe0601f836000604480968601015201168101030190fd5b818101830151868201604401528593508201611ff3565b90816020910312610909575173ffffffffffffffffffffffffffffffffffffffff811681036109095790565b1561207e57565b608460405162461bcd60e51b815260206004820152602160248201527f4f6e6c79206f776e65722063616e2063616c6c20746869732066756e6374696f60448201527f6e000000000000000000000000000000000000000000000000000000000000006064820152fd5b818102929181159184041417156120fb57565b7f4e487b7100000000000000000000000000000000000000000000000000000000600052601160045260246000fd5b7fffffffffffffffffffffffffffffffffffffffffffffffffffffffffffffffff81146120fb5760010190565b91908110156121675760061b0190565b7f4e487b7100000000000000000000000000000000000000000000000000000000600052603260045260246000fd5b90816020910312610909575180151581036109095790565b9190826040910312610909576040516121c681611cf6565b809280517fffffffff0000000000000000000000000000000000000000000000000000000081168103610909578252602090810151910152565b919082039182116120fb57565b80518210156121675760209160051b010190565b906040918251927ffc1e5e2a000000000000000000000000000000000000000000000000000000008452600092838560048173ffffffffffffffffffffffffffffffffffffffff8097165afa94851561242b57849561234a575b50835b855181101561233f577fffffffff000000000000000000000000000000000000000000000000000000006122b2828861220d565b515116602090611b17612308836122c9868c61220d565b5101518751928391868301958690917fffffffff0000000000000000000000000000000000000000000000000000000060249316825260048201520190565b519020908584168752600581528487209187525260ff838620541615612336576123319061212a565b61227e565b50505050905090565b505050505050600190565b9094503d8085833e61235c8183611d2e565b8101906020808284031261242757815167ffffffffffffffff9283821161242357019183601f8401121561241f5782519081116123f2578451936123a5838360051b0186611d2e565b818552828086019260061b850101938185116123ee5783879101925b8584106123d557505050505050933861227b565b84906123e184866121ae565b81520192019186906123c1565b8880fd5b6024877f4e487b710000000000000000000000000000000000000000000000000000000081526041600452fd5b8680fd5b8780fd5b8580fd5b82513d86823e3d90fd5b60015481156124e3576000828152600260205261246f836040832060016040519161245f83611cf6565b80548352015460208201526125f6565b61249f5782821561249757906001926040928455848252600260205280838320558152200155565b915055600155565b606460405162461bcd60e51b815260206004820152601260248201527f4b657920616c72656164792065786973747300000000000000000000000000006044820152fd5b606460405162461bcd60e51b815260206004820152601260248201527f4b65792063616e6e6f74206265205a45524f00000000000000000000000000006044820152fd5b6000818152600260205260409081812092600183519461254686611cf6565b805486520154906020850191825261255e81866125f6565b156125b35782526002602052828220828155600101829055835180156125a9578151908352600184842001555b519283156125a0575192815260026020522055565b51600155505050565b508051825561258b565b6064845162461bcd60e51b815260206004820152601260248201527f4b657920646f6573206e6f7420657869737400000000000000000000000000006044820152fd5b908151159182159261262a575b50811561261e575b8115612615575090565b90506001541490565b6000548114915061260b565b60200151151591503861260356fea2646970667358221220908d41cc2fd659ea074ff5da81d9379d903d804603aac0d54147d2123506ebc664736f6c63430008110033",
  "devdoc": {
    "kind": "dev",
    "methods": {
      "proxiableUUID()": {
        "details": "Implementation of the ERC1822 {proxiableUUID} function. This returns the storage slot used by the implementation. It is used to validate the implementation's compatibility when performing an upgrade. IMPORTANT: A proxy pointing at a proxiable contract should not be considered proxiable itself, because this risks bricking a proxy that upgrades to it, by delegating to itself until out of gas. Thus it is critical that this function revert if invoked through a proxy. This is guaranteed by the `notDelegated` modifier."
      },
      "upgradeTo(address)": {
        "custom:oz-upgrades-unsafe-allow-reachable": "delegatecall",
        "details": "Upgrade the implementation of the proxy to `newImplementation`. Calls {_authorizeUpgrade}. Emits an {Upgraded} event."
      },
      "upgradeToAndCall(address,bytes)": {
        "custom:oz-upgrades-unsafe-allow-reachable": "delegatecall",
        "details": "Upgrade the implementation of the proxy to `newImplementation`, and subsequently execute the function call encoded in `data`. Calls {_authorizeUpgrade}. Emits an {Upgraded} event."
      }
    },
    "version": 1
  },
  "userdoc": {
    "kind": "user",
    "methods": {},
    "version": 1
  },
  "storageLayout": {
    "storage": [
      {
        "astId": 8903,
        "contract": "contracts/global/Matcher.sol:Matcher",
        "label": "resourceConfigIds",
        "offset": 0,
        "slot": "0",
        "type": "t_struct(Bytes32List)9763_storage"
      },
      {
        "astId": 8908,
        "contract": "contracts/global/Matcher.sol:Matcher",
        "label": "resourceConfigs",
        "offset": 0,
        "slot": "3",
        "type": "t_mapping(t_address,t_struct(ResourceConfig)8892_storage)"
      },
      {
        "astId": 8912,
        "contract": "contracts/global/Matcher.sol:Matcher",
        "label": "whitelist",
        "offset": 0,
        "slot": "4",
        "type": "t_mapping(t_address,t_bool)"
      },
      {
        "astId": 8917,
        "contract": "contracts/global/Matcher.sol:Matcher",
        "label": "_effectorsByOwner",
        "offset": 0,
        "slot": "5",
        "type": "t_mapping(t_address,t_struct(Effectors)8897_storage)"
      },
      {
        "astId": 503,
        "contract": "contracts/global/Matcher.sol:Matcher",
        "label": "_initialized",
        "offset": 0,
        "slot": "6",
        "type": "t_uint8"
      },
      {
        "astId": 506,
        "contract": "contracts/global/Matcher.sol:Matcher",
        "label": "_initializing",
        "offset": 1,
        "slot": "6",
        "type": "t_bool"
      },
      {
        "astId": 485,
        "contract": "contracts/global/Matcher.sol:Matcher",
        "label": "__gap",
        "offset": 0,
        "slot": "7",
        "type": "t_array(t_uint256)50_storage"
      },
      {
        "astId": 800,
        "contract": "contracts/global/Matcher.sol:Matcher",
        "label": "__gap",
        "offset": 0,
        "slot": "57",
        "type": "t_array(t_uint256)50_storage"
      }
    ],
    "types": {
      "t_address": {
        "encoding": "inplace",
        "label": "address",
        "numberOfBytes": "20"
      },
      "t_array(t_uint256)50_storage": {
        "base": "t_uint256",
        "encoding": "inplace",
        "label": "uint256[50]",
        "numberOfBytes": "1600"
      },
      "t_bool": {
        "encoding": "inplace",
        "label": "bool",
        "numberOfBytes": "1"
      },
      "t_bytes32": {
        "encoding": "inplace",
        "label": "bytes32",
        "numberOfBytes": "32"
      },
      "t_mapping(t_address,t_bool)": {
        "encoding": "mapping",
        "key": "t_address",
        "label": "mapping(address => bool)",
        "numberOfBytes": "32",
        "value": "t_bool"
      },
      "t_mapping(t_address,t_struct(Effectors)8897_storage)": {
        "encoding": "mapping",
        "key": "t_address",
        "label": "mapping(address => struct MatcherState.Effectors)",
        "numberOfBytes": "32",
        "value": "t_struct(Effectors)8897_storage"
      },
      "t_mapping(t_address,t_struct(ResourceConfig)8892_storage)": {
        "encoding": "mapping",
        "key": "t_address",
        "label": "mapping(address => struct MatcherState.ResourceConfig)",
        "numberOfBytes": "32",
        "value": "t_struct(ResourceConfig)8892_storage"
      },
      "t_mapping(t_bytes32,t_bool)": {
        "encoding": "mapping",
        "key": "t_bytes32",
        "label": "mapping(bytes32 => bool)",
        "numberOfBytes": "32",
        "value": "t_bool"
      },
      "t_mapping(t_bytes32,t_struct(Element)9753_storage)": {
        "encoding": "mapping",
        "key": "t_bytes32",
        "label": "mapping(bytes32 => struct LinkedList.Element)",
        "numberOfBytes": "32",
        "value": "t_struct(Element)9753_storage"
      },
      "t_struct(Bytes32List)9763_storage": {
        "encoding": "inplace",
        "label": "struct LinkedList.Bytes32List",
        "members": [
          {
            "astId": 9755,
            "contract": "contracts/global/Matcher.sol:Matcher",
            "label": "_first",
            "offset": 0,
            "slot": "0",
            "type": "t_bytes32"
          },
          {
            "astId": 9757,
            "contract": "contracts/global/Matcher.sol:Matcher",
            "label": "_last",
            "offset": 0,
            "slot": "1",
            "type": "t_bytes32"
          },
          {
            "astId": 9762,
            "contract": "contracts/global/Matcher.sol:Matcher",
            "label": "_elements",
            "offset": 0,
            "slot": "2",
            "type": "t_mapping(t_bytes32,t_struct(Element)9753_storage)"
          }
        ],
        "numberOfBytes": "96"
      },
      "t_struct(Effectors)8897_storage": {
        "encoding": "inplace",
        "label": "struct MatcherState.Effectors",
        "members": [
          {
            "astId": 8896,
            "contract": "contracts/global/Matcher.sol:Matcher",
            "label": "effectors",
            "offset": 0,
            "slot": "0",
            "type": "t_mapping(t_bytes32,t_bool)"
          }
        ],
        "numberOfBytes": "32"
      },
      "t_struct(Element)9753_storage": {
        "encoding": "inplace",
        "label": "struct LinkedList.Element",
        "members": [
          {
            "astId": 9750,
            "contract": "contracts/global/Matcher.sol:Matcher",
            "label": "prev",
            "offset": 0,
            "slot": "0",
            "type": "t_bytes32"
          },
          {
            "astId": 9752,
            "contract": "contracts/global/Matcher.sol:Matcher",
            "label": "next",
            "offset": 0,
            "slot": "1",
            "type": "t_bytes32"
          }
        ],
        "numberOfBytes": "64"
      },
      "t_struct(ResourceConfig)8892_storage": {
        "encoding": "inplace",
        "label": "struct MatcherState.ResourceConfig",
        "members": [
          {
            "astId": 8887,
            "contract": "contracts/global/Matcher.sol:Matcher",
            "label": "minPriceByEpoch",
            "offset": 0,
            "slot": "0",
            "type": "t_uint256"
          },
          {
            "astId": 8889,
            "contract": "contracts/global/Matcher.sol:Matcher",
            "label": "maxCollateral",
            "offset": 0,
            "slot": "1",
            "type": "t_uint256"
          },
          {
            "astId": 8891,
            "contract": "contracts/global/Matcher.sol:Matcher",
            "label": "workersCount",
            "offset": 0,
            "slot": "2",
            "type": "t_uint256"
          }
        ],
        "numberOfBytes": "96"
      },
      "t_uint256": {
        "encoding": "inplace",
        "label": "uint256",
        "numberOfBytes": "32"
      },
      "t_uint8": {
        "encoding": "inplace",
        "label": "uint8",
        "numberOfBytes": "1"
      }
    }
  }
}