{
  "address": "0x9fE46736679d2D9a65F0992F2272dE9f3c7fa6e0",
  "abi": [
    {
      "inputs": [
        {
          "internalType": "address",
          "name": "daoAddress_",
          "type": "address"
        },
        {
          "internalType": "contract AquaProxy",
          "name": "aquaProxy_",
          "type": "address"
        },
        {
          "internalType": "contract IERC20",
          "name": "fluenceToken_",
          "type": "address"
        }
      ],
      "stateMutability": "nonpayable",
      "type": "constructor"
    },
    {
      "anonymous": false,
      "inputs": [
        {
          "indexed": false,
          "internalType": "address",
          "name": "addr",
          "type": "address"
        }
      ],
      "name": "CreateDeal",
      "type": "event"
    },
    {
      "inputs": [],
      "name": "aquaProxy",
      "outputs": [
        {
          "internalType": "contract AquaProxy",
          "name": "",
          "type": "address"
        }
      ],
      "stateMutability": "view",
      "type": "function"
    },
    {
      "inputs": [
        {
          "internalType": "contract IERC20",
          "name": "paymentToken",
          "type": "address"
        },
        {
          "internalType": "bytes32",
          "name": "airScriptHash",
          "type": "bytes32"
        }
      ],
      "name": "createDeal",
      "outputs": [],
      "stateMutability": "nonpayable",
      "type": "function"
    },
    {
      "inputs": [],
      "name": "daoAddress",
      "outputs": [
        {
          "internalType": "address",
          "name": "",
          "type": "address"
        }
      ],
      "stateMutability": "view",
      "type": "function"
    },
    {
      "inputs": [],
      "name": "fluenceToken",
      "outputs": [
        {
          "internalType": "contract IERC20",
          "name": "",
          "type": "address"
        }
      ],
      "stateMutability": "view",
      "type": "function"
    }
  ],
  "transactionHash": "0x81dee12d563b4e9c4b6d774ced462f279e9b7acd013b98d94927fe0c6805a1fb",
  "args": [
    "0xf39Fd6e51aad88F6F4ce6aB8827279cffFb92266",
    "0xe7f1725E7734CE288F8367e1Bb143E90bb3F0512",
    "0xa16E02E87b7454126E5E10d957A927A7F5B5d2be"
  ],
  "numDeployments": 1,
  "solcInputHash": "caec3be7c7afbc46b38c0910b34de9a4",
  "bytecode": "0x60e060405234801561001057600080fd5b506040516126e43803806126e4833981810160405281019061003291906101b5565b8273ffffffffffffffffffffffffffffffffffffffff1660808173ffffffffffffffffffffffffffffffffffffffff16815250508173ffffffffffffffffffffffffffffffffffffffff1660a08173ffffffffffffffffffffffffffffffffffffffff16815250508073ffffffffffffffffffffffffffffffffffffffff1660c08173ffffffffffffffffffffffffffffffffffffffff1681525050505050610208565b600080fd5b600073ffffffffffffffffffffffffffffffffffffffff82169050919050565b6000610106826100db565b9050919050565b610116816100fb565b811461012157600080fd5b50565b6000815190506101338161010d565b92915050565b6000610144826100fb565b9050919050565b61015481610139565b811461015f57600080fd5b50565b6000815190506101718161014b565b92915050565b6000610182826100fb565b9050919050565b61019281610177565b811461019d57600080fd5b50565b6000815190506101af81610189565b92915050565b6000806000606084860312156101ce576101cd6100d6565b5b60006101dc86828701610124565b93505060206101ed86828701610162565b92505060406101fe868287016101a0565b9150509250925092565b60805160a05160c05161249a61024a6000396000818161013201526101ed01526000818161011101526101c901526000818160c9015260f0015261249a6000f3fe608060405234801561001057600080fd5b506004361061004c5760003560e01c80632131c68c1461005157806335064b721461006f57806385079cd71461008b578063ac027f97146100a9575b600080fd5b6100596100c7565b604051610066919061025e565b60405180910390f35b610089600480360381019061008491906102f2565b6100eb565b005b6100936101c7565b6040516100a09190610391565b60405180910390f35b6100b16101eb565b6040516100be91906103cd565b60405180910390f35b7f000000000000000000000000000000000000000000000000000000000000000081565b6000827f00000000000000000000000000000000000000000000000000000000000000007f00000000000000000000000000000000000000000000000000000000000000007f00000000000000000000000000000000000000000000000000000000000000008560405161015e9061020f565b61016c9594939291906103f7565b604051809103906000f080158015610188573d6000803e3d6000fd5b5090507f941e9b54a9a5b7a0112e23820aeeee3827703e73e627960d41b59b8e82258897816040516101ba919061025e565b60405180910390a1505050565b7f000000000000000000000000000000000000000000000000000000000000000081565b7f000000000000000000000000000000000000000000000000000000000000000081565b61201a806200044b83390190565b600073ffffffffffffffffffffffffffffffffffffffff82169050919050565b60006102488261021d565b9050919050565b6102588161023d565b82525050565b6000602082019050610273600083018461024f565b92915050565b600080fd5b60006102898261023d565b9050919050565b6102998161027e565b81146102a457600080fd5b50565b6000813590506102b681610290565b92915050565b6000819050919050565b6102cf816102bc565b81146102da57600080fd5b50565b6000813590506102ec816102c6565b92915050565b6000806040838503121561030957610308610279565b5b6000610317858286016102a7565b9250506020610328858286016102dd565b9150509250929050565b6000819050919050565b600061035761035261034d8461021d565b610332565b61021d565b9050919050565b60006103698261033c565b9050919050565b600061037b8261035e565b9050919050565b61038b81610370565b82525050565b60006020820190506103a66000830184610382565b92915050565b60006103b78261035e565b9050919050565b6103c7816103ac565b82525050565b60006020820190506103e260008301846103be565b92915050565b6103f1816102bc565b82525050565b600060a08201905061040c60008301886103be565b610419602083018761024f565b6104266040830186610382565b61043360608301856103be565b61044060808301846103e8565b969550505050505056fe6101006040523480156200001257600080fd5b506040516200201a3803806200201a833981810160405281019062000038919062000249565b8373ffffffffffffffffffffffffffffffffffffffff1660a08173ffffffffffffffffffffffffffffffffffffffff16815250508273ffffffffffffffffffffffffffffffffffffffff1660c08173ffffffffffffffffffffffffffffffffffffffff16815250508173ffffffffffffffffffffffffffffffffffffffff1660e08173ffffffffffffffffffffffffffffffffffffffff16815250508473ffffffffffffffffffffffffffffffffffffffff1660808173ffffffffffffffffffffffffffffffffffffffff1681525050806002819055505050505050620002d1565b600080fd5b600073ffffffffffffffffffffffffffffffffffffffff82169050919050565b60006200014c826200011f565b9050919050565b600062000160826200013f565b9050919050565b620001728162000153565b81146200017e57600080fd5b50565b600081519050620001928162000167565b92915050565b620001a3816200013f565b8114620001af57600080fd5b50565b600081519050620001c38162000198565b92915050565b6000620001d6826200013f565b9050919050565b620001e881620001c9565b8114620001f457600080fd5b50565b6000815190506200020881620001dd565b92915050565b6000819050919050565b62000223816200020e565b81146200022f57600080fd5b50565b600081519050620002438162000218565b92915050565b600080600080600060a086880312156200026857620002676200011a565b5b6000620002788882890162000181565b95505060206200028b88828901620001b2565b94505060406200029e88828901620001f7565b9350506060620002b18882890162000181565b9250506080620002c48882890162000232565b9150509295509295909350565b60805160a05160c05160e051611cd06200034a600039600081816107630152818161080801528181610aad0152610c8c01526000818161051f01526105e00152600081816102fe01528181610aea0152610cc9015260008181610322015281816103a80152818161044901526108a30152611cd06000f3fe608060405234801561001057600080fd5b50600436106101005760003560e01c806385079cd711610097578063cb1c2b5c11610066578063cb1c2b5c1461023f578063e4029e6f1461025d578063f890ab0414610279578063fa52c7d81461029757610100565b806385079cd7146101cb578063a694fc3a146101e9578063ac027f9714610205578063b6b55f251461022357610100565b806335769738116100d357806335769738146101695780633ccfd60b146101875780633f683b6a1461019157806384773201146101af57610100565b806306761d3e1461010557806311f25e89146101235780632131c68c1461012d5780633013ce291461014b575b600080fd5b61010d6102c8565b60405161011a919061106f565b60405180910390f35b61012b6102cd565b005b6101356102fc565b60405161014291906110cb565b60405180910390f35b610153610320565b6040516101609190611145565b60405180910390f35b610171610344565b60405161017e919061106f565b60405180910390f35b61018f61034a565b005b610199610490565b6040516101a6919061117b565b60405180910390f35b6101c960048036038101906101c491906111f0565b6104a1565b005b6101d36105de565b6040516101e0919061126d565b60405180910390f35b61020360048036038101906101fe91906112b4565b610602565b005b61020d610806565b60405161021a9190611145565b60405180910390f35b61023d600480360381019061023891906112b4565b61082a565b005b6102476108eb565b604051610254919061106f565b60405180910390f35b610277600480360381019061027291906112e1565b6108f7565b005b6102816108fa565b60405161028e9190611343565b60405180910390f35b6102b160048036038101906102ac919061135e565b610900565b6040516102bf92919061138b565b60405180910390f35b603c81565b60016000806101000a81548160ff021916908315150217905550603c426102f491906113e3565b600181905550565b7f000000000000000000000000000000000000000000000000000000000000000081565b7f000000000000000000000000000000000000000000000000000000000000000081565b60015481565b60008054906101000a900460ff168015610365575060015442115b6103a4576040517f08c379a000000000000000000000000000000000000000000000000000000000815260040161039b9061149a565b60405180910390fd5b60007f000000000000000000000000000000000000000000000000000000000000000073ffffffffffffffffffffffffffffffffffffffff166370a08231306040518263ffffffff1660e01b81526004016103ff91906110cb565b602060405180830381865afa15801561041c573d6000803e3d6000fd5b505050506040513d601f19601f8201168201806040525081019061044091906114cf565b905061048d33827f000000000000000000000000000000000000000000000000000000000000000073ffffffffffffffffffffffffffffffffffffffff166109319092919063ffffffff16565b50565b60008054906101000a900460ff1681565b6002548280600001906104b4919061150b565b6040516020016104c59291906115ad565b604051602081830303815290604052805190602001201461051b576040517f08c379a000000000000000000000000000000000000000000000000000000000815260040161051290611612565b60405180910390fd5b60007f000000000000000000000000000000000000000000000000000000000000000073ffffffffffffffffffffffffffffffffffffffff1663d5897b7a846040518263ffffffff1660e01b81526004016105769190611793565b6020604051808303816000875af1158015610595573d6000803e3d6000fd5b505050506040513d601f19601f820116820180604052508101906105b991906117e1565b905080156105cf576105ca826109b7565b6105d9565b6105d882610b71565b5b505050565b7f000000000000000000000000000000000000000000000000000000000000000081565b678ac7230489e8000081101561064d576040517f08c379a00000000000000000000000000000000000000000000000000000000081526004016106449061185a565b60405180910390fd5b6000600360003373ffffffffffffffffffffffffffffffffffffffff1673ffffffffffffffffffffffffffffffffffffffff168152602001908152602001600020604051806040016040529081600082015481526020016001820160009054906101000a900460ff161515151581525050905081816000018181516106d291906113e3565b9150818152505080602001516106f45760018160200190151590811515815250505b80600360003373ffffffffffffffffffffffffffffffffffffffff1673ffffffffffffffffffffffffffffffffffffffff1681526020019081526020016000206000820151816000015560208201518160010160006101000a81548160ff0219169083151502179055509050507f000000000000000000000000000000000000000000000000000000000000000073ffffffffffffffffffffffffffffffffffffffff166323b872dd3330856040518463ffffffff1660e01b81526004016107be9392919061187a565b6020604051808303816000875af11580156107dd573d6000803e3d6000fd5b505050506040513d601f19601f8201168201806040525081019061080191906117e1565b505050565b7f000000000000000000000000000000000000000000000000000000000000000081565b600154421161086e576040517f08c379a0000000000000000000000000000000000000000000000000000000008152600401610865906118fd565b60405180910390fd5b60008054906101000a900460ff1661089b5760016000806101000a81548160ff0219169083151502179055505b6108e83330837f000000000000000000000000000000000000000000000000000000000000000073ffffffffffffffffffffffffffffffffffffffff16610d50909392919063ffffffff16565b50565b678ac7230489e8000081565b50565b60025481565b60036020528060005260406000206000915090508060000154908060010160009054906101000a900460ff16905082565b6109b28363a9059cbb60e01b848460405160240161095092919061191d565b604051602081830303815290604052907bffffffffffffffffffffffffffffffffffffffffffffffffffffffff19166020820180517bffffffffffffffffffffffffffffffffffffffffffffffffffffffff8381831617835250505050610dd9565b505050565b6000600360008373ffffffffffffffffffffffffffffffffffffffff1673ffffffffffffffffffffffffffffffffffffffff168152602001908152602001600020604051806040016040529081600082015481526020016001820160009054906101000a900460ff1615151515815250509050600081600001519050600082600001818152505081600360008573ffffffffffffffffffffffffffffffffffffffff1673ffffffffffffffffffffffffffffffffffffffff1681526020019081526020016000206000820151816000015560208201518160010160006101000a81548160ff0219169083151502179055509050507f000000000000000000000000000000000000000000000000000000000000000073ffffffffffffffffffffffffffffffffffffffff166323b872dd307f0000000000000000000000000000000000000000000000000000000000000000846040518463ffffffff1660e01b8152600401610b289392919061187a565b6020604051808303816000875af1158015610b47573d6000803e3d6000fd5b505050506040513d601f19601f82011682018060405250810190610b6b91906117e1565b50505050565b6000600360008373ffffffffffffffffffffffffffffffffffffffff1673ffffffffffffffffffffffffffffffffffffffff168152602001908152602001600020604051806040016040529081600082015481526020016001820160009054906101000a900460ff161515151581525050905060006064808360000151610bf89190611975565b610c0291906119a6565b90508082600001818151610c1691906119e8565b9150818152505081600360008573ffffffffffffffffffffffffffffffffffffffff1673ffffffffffffffffffffffffffffffffffffffff1681526020019081526020016000206000820151816000015560208201518160010160006101000a81548160ff0219169083151502179055509050507f000000000000000000000000000000000000000000000000000000000000000073ffffffffffffffffffffffffffffffffffffffff166323b872dd307f0000000000000000000000000000000000000000000000000000000000000000846040518463ffffffff1660e01b8152600401610d079392919061187a565b6020604051808303816000875af1158015610d26573d6000803e3d6000fd5b505050506040513d601f19601f82011682018060405250810190610d4a91906117e1565b50505050565b610dd3846323b872dd60e01b858585604051602401610d719392919061187a565b604051602081830303815290604052907bffffffffffffffffffffffffffffffffffffffffffffffffffffffff19166020820180517bffffffffffffffffffffffffffffffffffffffffffffffffffffffff8381831617835250505050610dd9565b50505050565b6000610e3b826040518060400160405280602081526020017f5361666545524332303a206c6f772d6c6576656c2063616c6c206661696c65648152508573ffffffffffffffffffffffffffffffffffffffff16610ea09092919063ffffffff16565b9050600081511115610e9b5780806020019051810190610e5b91906117e1565b610e9a576040517f08c379a0000000000000000000000000000000000000000000000000000000008152600401610e9190611a8e565b60405180910390fd5b5b505050565b6060610eaf8484600085610eb8565b90509392505050565b606082471015610efd576040517f08c379a0000000000000000000000000000000000000000000000000000000008152600401610ef490611b20565b60405180910390fd5b610f0685610fcc565b610f45576040517f08c379a0000000000000000000000000000000000000000000000000000000008152600401610f3c90611b8c565b60405180910390fd5b6000808673ffffffffffffffffffffffffffffffffffffffff168587604051610f6e9190611c1d565b60006040518083038185875af1925050503d8060008114610fab576040519150601f19603f3d011682016040523d82523d6000602084013e610fb0565b606091505b5091509150610fc0828286610fef565b92505050949350505050565b6000808273ffffffffffffffffffffffffffffffffffffffff163b119050919050565b60608315610fff5782905061104f565b6000835111156110125782518084602001fd5b816040517f08c379a00000000000000000000000000000000000000000000000000000000081526004016110469190611c78565b60405180910390fd5b9392505050565b6000819050919050565b61106981611056565b82525050565b60006020820190506110846000830184611060565b92915050565b600073ffffffffffffffffffffffffffffffffffffffff82169050919050565b60006110b58261108a565b9050919050565b6110c5816110aa565b82525050565b60006020820190506110e060008301846110bc565b92915050565b6000819050919050565b600061110b6111066111018461108a565b6110e6565b61108a565b9050919050565b600061111d826110f0565b9050919050565b600061112f82611112565b9050919050565b61113f81611124565b82525050565b600060208201905061115a6000830184611136565b92915050565b60008115159050919050565b61117581611160565b82525050565b6000602082019050611190600083018461116c565b92915050565b600080fd5b600080fd5b600080fd5b6000608082840312156111bb576111ba6111a0565b5b81905092915050565b6111cd816110aa565b81146111d857600080fd5b50565b6000813590506111ea816111c4565b92915050565b6000806040838503121561120757611206611196565b5b600083013567ffffffffffffffff8111156112255761122461119b565b5b611231858286016111a5565b9250506020611242858286016111db565b9150509250929050565b600061125782611112565b9050919050565b6112678161124c565b82525050565b6000602082019050611282600083018461125e565b92915050565b61129181611056565b811461129c57600080fd5b50565b6000813590506112ae81611288565b92915050565b6000602082840312156112ca576112c9611196565b5b60006112d88482850161129f565b91505092915050565b6000602082840312156112f7576112f6611196565b5b600082013567ffffffffffffffff8111156113155761131461119b565b5b611321848285016111a5565b91505092915050565b6000819050919050565b61133d8161132a565b82525050565b60006020820190506113586000830184611334565b92915050565b60006020828403121561137457611373611196565b5b6000611382848285016111db565b91505092915050565b60006040820190506113a06000830185611060565b6113ad602083018461116c565b9392505050565b7f4e487b7100000000000000000000000000000000000000000000000000000000600052601160045260246000fd5b60006113ee82611056565b91506113f983611056565b9250828201905080821115611411576114106113b4565b5b92915050565b600082825260208201905092915050565b7f57697468647261772072657175657374206973206e6f7420637265617465642060008201527f6f72206e6f7420657870697265642064656c6179000000000000000000000000602082015250565b6000611484603483611417565b915061148f82611428565b604082019050919050565b600060208201905081810360008301526114b381611477565b9050919050565b6000815190506114c981611288565b92915050565b6000602082840312156114e5576114e4611196565b5b60006114f3848285016114ba565b91505092915050565b600080fd5b600080fd5b600080fd5b60008083356001602003843603038112611528576115276114fc565b5b80840192508235915067ffffffffffffffff82111561154a57611549611501565b5b60208301925060018202360383131561156657611565611506565b5b509250929050565b600081905092915050565b82818337600083830152505050565b6000611594838561156e565b93506115a1838584611579565b82840190509392505050565b60006115ba828486611588565b91508190509392505050565b7f496e76616c69642073637269707420696e207061727469636c65000000000000600082015250565b60006115fc601a83611417565b9150611607826115c6565b602082019050919050565b6000602082019050818103600083015261162b816115ef565b9050919050565b600080fd5b600080fd5b600080fd5b6000808335600160200384360303811261165e5761165d61163c565b5b83810192508235915060208301925067ffffffffffffffff82111561168657611685611632565b5b60018202360383131561169c5761169b611637565b5b509250929050565b600082825260208201905092915050565b6000601f19601f8301169050919050565b60006116d283856116a4565b93506116df838584611579565b6116e8836116b5565b840190509392505050565b6000608083016117066000840184611641565b85830360008701526117198382846116c6565b9250505061172a6020840184611641565b858303602087015261173d8382846116c6565b9250505061174e6040840184611641565b85830360408701526117618382846116c6565b925050506117726060840184611641565b85830360608701526117858382846116c6565b925050508091505092915050565b600060208201905081810360008301526117ad81846116f3565b905092915050565b6117be81611160565b81146117c957600080fd5b50565b6000815190506117db816117b5565b92915050565b6000602082840312156117f7576117f6611196565b5b6000611805848285016117cc565b91505092915050565b7f416d6f756e7420697320746f6f20736d616c6c00000000000000000000000000600082015250565b6000611844601383611417565b915061184f8261180e565b602082019050919050565b6000602082019050818103600083015261187381611837565b9050919050565b600060608201905061188f60008301866110bc565b61189c60208301856110bc565b6118a96040830184611060565b949350505050565b7f4465706f736974206973206c6f636b6564000000000000000000000000000000600082015250565b60006118e7601183611417565b91506118f2826118b1565b602082019050919050565b60006020820190508181036000830152611916816118da565b9050919050565b600060408201905061193260008301856110bc565b61193f6020830184611060565b9392505050565b7f4e487b7100000000000000000000000000000000000000000000000000000000600052601260045260246000fd5b600061198082611056565b915061198b83611056565b92508261199b5761199a611946565b5b828204905092915050565b60006119b182611056565b91506119bc83611056565b92508282026119ca81611056565b915082820484148315176119e1576119e06113b4565b5b5092915050565b60006119f382611056565b91506119fe83611056565b9250828203905081811115611a1657611a156113b4565b5b92915050565b7f5361666545524332303a204552433230206f7065726174696f6e20646964206e60008201527f6f74207375636365656400000000000000000000000000000000000000000000602082015250565b6000611a78602a83611417565b9150611a8382611a1c565b604082019050919050565b60006020820190508181036000830152611aa781611a6b565b9050919050565b7f416464726573733a20696e73756666696369656e742062616c616e636520666f60008201527f722063616c6c0000000000000000000000000000000000000000000000000000602082015250565b6000611b0a602683611417565b9150611b1582611aae565b604082019050919050565b60006020820190508181036000830152611b3981611afd565b9050919050565b7f416464726573733a2063616c6c20746f206e6f6e2d636f6e7472616374000000600082015250565b6000611b76601d83611417565b9150611b8182611b40565b602082019050919050565b60006020820190508181036000830152611ba581611b69565b9050919050565b600081519050919050565b600081905092915050565b60005b83811015611be0578082015181840152602081019050611bc5565b60008484015250505050565b6000611bf782611bac565b611c018185611bb7565b9350611c11818560208601611bc2565b80840191505092915050565b6000611c298284611bec565b915081905092915050565b600081519050919050565b6000611c4a82611c34565b611c548185611417565b9350611c64818560208601611bc2565b611c6d816116b5565b840191505092915050565b60006020820190508181036000830152611c928184611c3f565b90509291505056fea2646970667358221220db89383117263d68c1ab8af7cb54072a64523883edcf721e4251eb9833ff434e64736f6c63430008110033a2646970667358221220f87106252e67d18bde312d50b0c88827fcb9d9e97f0e3e259101949612a97c1664736f6c63430008110033",
  "devdoc": {
    "kind": "dev",
    "methods": {},
    "version": 1
  },
  "userdoc": {
    "kind": "user",
    "methods": {},
    "version": 1
  },
  "storageLayout": {
    "storage": [],
    "types": null
  }
}