{
  "address": "0xA0DD71fA06c616abAb45bD4ea120918395582714",
  "abi": [
    {
      "inputs": [
        {
          "internalType": "contract IGlobalCore",
          "name": "globalCore_",
          "type": "address"
        }
      ],
      "stateMutability": "nonpayable",
      "type": "constructor"
    },
    {
      "anonymous": false,
      "inputs": [
        {
          "indexed": true,
          "internalType": "bytes32",
          "name": "peerId",
          "type": "bytes32"
        },
        {
          "indexed": false,
          "internalType": "contract IDeal",
          "name": "deal",
          "type": "address"
        },
        {
          "indexed": false,
          "internalType": "bytes32",
          "name": "computeUnitId",
          "type": "bytes32"
        },
        {
          "indexed": false,
          "internalType": "uint256",
          "name": "dealCreationBlock",
          "type": "uint256"
        },
        {
          "components": [
            {
              "internalType": "bytes4",
              "name": "prefixes",
              "type": "bytes4"
            },
            {
              "internalType": "bytes32",
              "name": "hash",
              "type": "bytes32"
            }
          ],
          "indexed": false,
          "internalType": "struct CIDV1",
          "name": "appCID",
          "type": "tuple"
        }
      ],
      "name": "ComputePeerMatched",
      "type": "event"
    },
    {
      "anonymous": false,
      "inputs": [
        {
          "indexed": false,
          "internalType": "address",
          "name": "computeProvider",
          "type": "address"
        },
        {
          "indexed": false,
          "internalType": "uint256",
          "name": "minPricePerEpoch",
          "type": "uint256"
        },
        {
          "indexed": false,
          "internalType": "uint256",
          "name": "maxCollateral",
          "type": "uint256"
        },
        {
          "indexed": false,
          "internalType": "contract IERC20",
          "name": "paymentToken",
          "type": "address"
        },
        {
          "components": [
            {
              "internalType": "bytes4",
              "name": "prefixes",
              "type": "bytes4"
            },
            {
              "internalType": "bytes32",
              "name": "hash",
              "type": "bytes32"
            }
          ],
          "indexed": false,
          "internalType": "struct CIDV1[]",
          "name": "effectors",
          "type": "tuple[]"
        }
      ],
      "name": "ComputeProviderRegistered",
      "type": "event"
    },
    {
      "anonymous": false,
      "inputs": [
        {
          "indexed": false,
          "internalType": "address",
          "name": "computeProvider",
          "type": "address"
        }
      ],
      "name": "ComputeProviderRemoved",
      "type": "event"
    },
    {
      "anonymous": false,
      "inputs": [
        {
          "indexed": false,
          "internalType": "address",
          "name": "computeProvider",
          "type": "address"
        },
        {
          "components": [
            {
              "internalType": "bytes4",
              "name": "prefixes",
              "type": "bytes4"
            },
            {
              "internalType": "bytes32",
              "name": "hash",
              "type": "bytes32"
            }
          ],
          "indexed": false,
          "internalType": "struct CIDV1",
          "name": "effector",
          "type": "tuple"
        }
      ],
      "name": "EffectorAdded",
      "type": "event"
    },
    {
      "anonymous": false,
      "inputs": [
        {
          "indexed": false,
          "internalType": "address",
          "name": "computeProvider",
          "type": "address"
        },
        {
          "components": [
            {
              "internalType": "bytes4",
              "name": "prefixes",
              "type": "bytes4"
            },
            {
              "internalType": "bytes32",
              "name": "hash",
              "type": "bytes32"
            }
          ],
          "indexed": false,
          "internalType": "struct CIDV1",
          "name": "effector",
          "type": "tuple"
        }
      ],
      "name": "EffectorRemoved",
      "type": "event"
    },
    {
      "anonymous": false,
      "inputs": [
        {
          "indexed": false,
          "internalType": "address",
          "name": "computeProvider",
          "type": "address"
        },
        {
          "indexed": false,
          "internalType": "uint256",
          "name": "newMaxCollateral",
          "type": "uint256"
        }
      ],
      "name": "MaxCollateralChanged",
      "type": "event"
    },
    {
      "anonymous": false,
      "inputs": [
        {
          "indexed": false,
          "internalType": "address",
          "name": "computeProvider",
          "type": "address"
        },
        {
          "indexed": false,
          "internalType": "uint256",
          "name": "newMinPricePerEpoch",
          "type": "uint256"
        }
      ],
      "name": "MinPricePerEpochChanged",
      "type": "event"
    },
    {
      "anonymous": false,
      "inputs": [
        {
          "indexed": false,
          "internalType": "address",
          "name": "computeProvider",
          "type": "address"
        },
        {
          "indexed": false,
          "internalType": "contract IERC20",
          "name": "newPaymentToken",
          "type": "address"
        }
      ],
      "name": "PaymentTokenChanged",
      "type": "event"
    },
    {
      "anonymous": false,
      "inputs": [
        {
          "indexed": false,
          "internalType": "bytes32",
          "name": "peerId",
          "type": "bytes32"
        },
        {
          "indexed": false,
          "internalType": "uint256",
          "name": "newWorkerSlots",
          "type": "uint256"
        }
      ],
      "name": "WorkersSlotsChanged",
      "type": "event"
    },
    {
      "inputs": [],
      "name": "_globalCore",
      "outputs": [
        {
          "internalType": "contract IGlobalCore",
          "name": "",
          "type": "address"
        }
      ],
      "stateMutability": "view",
      "type": "function"
    },
    {
      "inputs": [
        {
          "components": [
            {
              "internalType": "bytes4",
              "name": "prefixes",
              "type": "bytes4"
            },
            {
              "internalType": "bytes32",
              "name": "hash",
              "type": "bytes32"
            }
          ],
          "internalType": "struct CIDV1",
          "name": "effector",
          "type": "tuple"
        }
      ],
      "name": "addEffector",
      "outputs": [],
      "stateMutability": "nonpayable",
      "type": "function"
    },
    {
      "inputs": [
        {
          "internalType": "bytes32",
          "name": "peerId",
          "type": "bytes32"
        },
        {
          "internalType": "uint256",
          "name": "workerSlots",
          "type": "uint256"
        }
      ],
      "name": "addWorkersSlots",
      "outputs": [],
      "stateMutability": "nonpayable",
      "type": "function"
    },
    {
      "inputs": [
        {
          "internalType": "uint256",
          "name": "newMaxCollateral",
          "type": "uint256"
        }
      ],
      "name": "changeMaxCollateral",
      "outputs": [],
      "stateMutability": "nonpayable",
      "type": "function"
    },
    {
      "inputs": [
        {
          "internalType": "uint256",
          "name": "newMinPricePerEpoch",
          "type": "uint256"
        }
      ],
      "name": "changeMinPricePerEpoch",
      "outputs": [],
      "stateMutability": "nonpayable",
      "type": "function"
    },
    {
      "inputs": [
        {
          "internalType": "contract IERC20",
          "name": "newPaymentToken",
          "type": "address"
        },
        {
          "internalType": "uint256",
          "name": "newMaxCollateral",
          "type": "uint256"
        }
      ],
      "name": "changePaymentToken",
      "outputs": [],
      "stateMutability": "nonpayable",
      "type": "function"
    },
    {
      "inputs": [
        {
          "internalType": "contract IDeal",
          "name": "deal",
          "type": "address"
        }
      ],
      "name": "findComputePeers",
      "outputs": [
        {
          "internalType": "address[]",
          "name": "computeProviders",
          "type": "address[]"
        },
        {
          "internalType": "bytes32[][]",
          "name": "computePeers",
          "type": "bytes32[][]"
        }
      ],
      "stateMutability": "view",
      "type": "function"
    },
    {
      "inputs": [
        {
          "internalType": "bytes32",
          "name": "peerId",
          "type": "bytes32"
        }
      ],
      "name": "getComputePeerInfo",
      "outputs": [
        {
          "components": [
            {
              "internalType": "uint256",
              "name": "freeWorkerSlots",
              "type": "uint256"
            }
          ],
          "internalType": "struct IMatcherConfig.ComputePeer",
          "name": "",
          "type": "tuple"
        }
      ],
      "stateMutability": "view",
      "type": "function"
    },
    {
      "inputs": [
        {
          "internalType": "address",
          "name": "provider",
          "type": "address"
        }
      ],
      "name": "getComputeProviderInfo",
      "outputs": [
        {
          "components": [
            {
              "internalType": "uint256",
              "name": "minPricePerEpoch",
              "type": "uint256"
            },
            {
              "internalType": "uint256",
              "name": "maxCollateral",
              "type": "uint256"
            },
            {
              "internalType": "contract IERC20",
              "name": "paymentToken",
              "type": "address"
            },
            {
              "internalType": "uint256",
              "name": "totalFreeWorkerSlots",
              "type": "uint256"
            }
          ],
          "internalType": "struct IMatcherConfig.ComputeProvider",
          "name": "",
          "type": "tuple"
        }
      ],
      "stateMutability": "view",
      "type": "function"
    },
    {
      "inputs": [
        {
          "internalType": "address",
          "name": "provider",
          "type": "address"
        }
      ],
      "name": "getPeersByComputeProvider",
      "outputs": [
        {
          "internalType": "bytes32[]",
          "name": "peerIds",
          "type": "bytes32[]"
        },
        {
          "components": [
            {
              "internalType": "uint256",
              "name": "freeWorkerSlots",
              "type": "uint256"
            }
          ],
          "internalType": "struct IMatcherConfig.ComputePeer[]",
          "name": "",
          "type": "tuple[]"
        }
      ],
      "stateMutability": "view",
      "type": "function"
    },
    {
      "inputs": [
        {
          "internalType": "contract IDeal",
          "name": "deal",
          "type": "address"
        },
        {
          "internalType": "address[]",
          "name": "providers",
          "type": "address[]"
        },
        {
          "internalType": "bytes32[][]",
          "name": "peers",
          "type": "bytes32[][]"
        }
      ],
      "name": "matchDeal",
      "outputs": [],
      "stateMutability": "nonpayable",
      "type": "function"
    },
    {
      "inputs": [
        {
          "internalType": "uint256",
          "name": "minPricePerEpoch",
          "type": "uint256"
        },
        {
          "internalType": "uint256",
          "name": "maxCollateral",
          "type": "uint256"
        },
        {
          "internalType": "contract IERC20",
          "name": "paymentToken",
          "type": "address"
        },
        {
          "components": [
            {
              "internalType": "bytes4",
              "name": "prefixes",
              "type": "bytes4"
            },
            {
              "internalType": "bytes32",
              "name": "hash",
              "type": "bytes32"
            }
          ],
          "internalType": "struct CIDV1[]",
          "name": "effectors",
          "type": "tuple[]"
        }
      ],
      "name": "registerComputeProvider",
      "outputs": [],
      "stateMutability": "nonpayable",
      "type": "function"
    },
    {
      "inputs": [],
      "name": "removeComputeProvider",
      "outputs": [],
      "stateMutability": "nonpayable",
      "type": "function"
    },
    {
      "inputs": [
        {
          "components": [
            {
              "internalType": "bytes4",
              "name": "prefixes",
              "type": "bytes4"
            },
            {
              "internalType": "bytes32",
              "name": "hash",
              "type": "bytes32"
            }
          ],
          "internalType": "struct CIDV1",
          "name": "effector",
          "type": "tuple"
        }
      ],
      "name": "removeEffector",
      "outputs": [],
      "stateMutability": "nonpayable",
      "type": "function"
    },
    {
      "inputs": [
        {
          "internalType": "bytes32",
          "name": "peerId",
          "type": "bytes32"
        },
        {
          "internalType": "uint256",
          "name": "workerSlots",
          "type": "uint256"
        }
      ],
      "name": "subWorkersSlots",
      "outputs": [],
      "stateMutability": "nonpayable",
      "type": "function"
    }
  ],
  "transactionHash": "0x3d99199083775ed7ce8111bd0e5f3bce924d2793dc9acad56950b5ec31cfdafe",
  "args": [
    "0xb142bAe7266655040911A9e5beCcbDf0bB6F688F"
  ],
  "numDeployments": 2,
  "solcInputHash": "b515736a5cbcd5173b0e1e2ce796a27d",
  "bytecode": "0x60a0346200007757601f6200388638819003918201601f19168301916001600160401b038311848410176200007c578084926020946040528339810103126200007757516001600160a01b038116810362000077576080526040516137f390816200009382396080518181816119c60152611dbc0152f35b600080fd5b634e487b7160e01b600052604160045260246000fdfe6101e080604052600436101561001457600080fd5b60003560e01c90816301b40500146119a85750806309f98c70146117ec57806355eb409a1461148357806357145848146113af57806359a6bf5f1461120e5780635c76899714610fb75780635eabe34614610eec5780636868bda314610ed05780636afd603114610e6d57806373e8f7e914610d185780637f17845014610cb2578063b63af4b114610b50578063be9fe6911461026c578063c27701ba146102025763f6ee7139146100c557600080fd5b346101fd577f1eaffb28f02e49aa8dce586ac73116a047f91a8116d887ed4e72496a2f10283f60406100f636611a00565b816000527f7440c3b83c734284c6dbaabc56e2aab447401ce649d182f2600464c1292f369a906101b9602091838352610133818760002054611aed565b938560005283528386600020553360005261019b7f7440c3b83c734284c6dbaabc56e2aab447401ce649d182f2600464c1292f3698918285526003886000200161017e828254611aed565b905585156101c4575b336000528285526001886000200154612e89565b90336000528352336001600160a01b03600288600020015416613146565b8351928352820152a1005b336000527f7440c3b83c734284c6dbaabc56e2aab447401ce649d182f2600464c1292f369985526101f887896000206136b6565b610187565b600080fd5b346101fd5760206003193601126101fd57600060405161022181611a47565b526004356000527f7440c3b83c734284c6dbaabc56e2aab447401ce649d182f2600464c1292f369a602052602060406000206040519061026082611a47565b54809152604051908152f35b346101fd5760206003193601126101fd576001600160a01b0361028d6119ea565b166040517f6cd13448000000000000000000000000000000000000000000000000000000008152602081600481855afa9081156105e157600091610b1e575b506040517fedd0d734000000000000000000000000000000000000000000000000000000008152602081600481865afa9081156105e157600091610aec575b506040517f2943dcab000000000000000000000000000000000000000000000000000000008152602081600481875afa9081156105e157600091610aba575b50604051907f108d2f52000000000000000000000000000000000000000000000000000000008252602082600481885afa9081156105e157600091610a84575b6103949250611aed565b90604051917ffc1e5e2a000000000000000000000000000000000000000000000000000000008352600083600481885afa9283156105e157600093610a5f575b50604051927fb55ec18a000000000000000000000000000000000000000000000000000000008452602084600481895afa9384156105e157600094610a2e575b50917f7440c3b83c734284c6dbaabc56e2aab447401ce649d182f2600464c1292f36949391935493610444611c34565b955b859486151580610a25575b1561081f578660601c9360038610156107f0576002861480610782575b8015610708575b80156106cf575b8015610693575b801561067f575b61063f57610496611c34565b966104b66104a2611c34565b9160601c918281528960408201528b6133b5565b6000527f7440c3b83c734284c6dbaabc56e2aab447401ce649d182f2600464c1292f36996020526040600020988954945b8b86151580610636575b156105ed576040517f67c17a0b0000000000000000000000000000000000000000000000000000000081526001600160a01b03891660048201526024810188905290602090829060449082905afa9081156105e1576000916105b2575b506105985761057b9061057660405161056681611aae565b888152600060208201528b6133b5565b611c7c565b9460005260038a01602052600160406000200154965b96946104e7565b9460005260038a0160205260016040600020015496610591565b6105d4915060203d6020116105da575b6105cc8183611aca565b810190611c64565b8d61054e565b503d6105c2565b6040513d6000823e3d90fd5b5096945094509550959096506000527f7440c3b83c734284c6dbaabc56e2aab447401ce649d182f2600464c1292f3697602052600160406000200154945b939195929092610446565b508115156104f1565b955095909692506000939193527f7440c3b83c734284c6dbaabc56e2aab447401ce649d182f2600464c1292f36976020526001604060002001549461062b565b5061068d828960601c612bce565b1561048a565b508760601c6000527f7440c3b83c734284c6dbaabc56e2aab447401ce649d182f2600464c1292f36986020526001604060002001548111610483565b508760601c6000527f7440c3b83c734284c6dbaabc56e2aab447401ce649d182f2600464c1292f3698602052604060002054831061047c565b5060018614801561047557506040517f055236f4000000000000000000000000000000000000000000000000000000008152606089901c60048201526020816024818e5afa9081156105e157600091610763575b5015610475565b61077c915060203d6020116105da576105cc8183611aca565b8b61075c565b506040517f055236f4000000000000000000000000000000000000000000000000000000008152606089901c60048201526020816024818e5afa9081156105e1576000916107d1575b5061046e565b6107ea915060203d6020116105da576105cc8183611aca565b8b6107cb565b7f4e487b7100000000000000000000000000000000000000000000000000000000600052602160045260246000fd5b8760405161082c81611aae565b6060908181526020810190828252604084015161084881611b29565b946108566040519687611aca565b818652601f19958661086784611b29565b01366020830137835261087982611b29565b6108866040519182611aca565b8281528661089384611b29565b0160005b818110610a1557505084525160005b82811061098057505050519051906040519260206040850191604086528351809352850192019060005b818110610961575050508281036020840152815190818152602081016020808460051b8401019401956000925b84841061090a5786860387f35b909192939482828203018452875190602080835192838152019201906000905b80821061094957505050602097880197909594600101930191906108fd565b9091926020806001928651815201940192019061092a565b82516001600160a01b03168452602093840193909201916001016108d0565b81519160206040820151910151926001600160a01b036109a1848851612bba565b9116905260408151910151906109cd836109ba84612cc6565b8951906109c78383612bba565b52612bba565b5060005b8281106109e9575050506109e490611ca7565b6108a6565b610a10906020835193015192610a0a82610a04888d51612bba565b51612bba565b52611ca7565b6109d1565b8088602080938601015201610897565b50821515610451565b610a5191945060203d602011610a58575b610a498183611aca565b810190611c1c565b9286610414565b503d610a3f565b610a7d9193503d806000833e610a758183611aca565b810190611b93565b91856103d4565b90506020823d602011610ab2575b81610a9f60209383611aca565b810103126101fd5761039491519061038a565b3d9150610a92565b90506020813d602011610ae4575b81610ad560209383611aca565b810103126101fd57518461034a565b3d9150610ac8565b90506020813d602011610b16575b81610b0760209383611aca565b810103126101fd57518361030b565b3d9150610afa565b90506020813d602011610b48575b81610b3960209383611aca565b810103126101fd5751826102cc565b3d9150610b2c565b346101fd5760406003193601126101fd57610b69612e5a565b6040517fffffffff000000000000000000000000000000000000000000000000000000009091166020808301918252602480359084015291610bb881604481015b03601f198101835282611aca565b51902090336000527f7440c3b83c734284c6dbaabc56e2aab447401ce649d182f2600464c1292f369b808252604060002083600052825260ff60406000205416610c6e5733600052815260406000209160005252604060002060017fffffffffffffffffffffffffffffffffffffffffffffffffffffffffffffff008254161790557f745c8d0f0a46a84d996b0f143854bf38e5c21b3a180895fca9d6c17654c3538960405180610c693382613366565b0390a1005b6064826040519062461bcd60e51b82526004820152601760248201527f4566666563746f7220616c7265616479206578697374730000000000000000006044820152fd5b346101fd5760206003193601126101fd577fa55f70960fade7ac9823693b7234ce8261649fa77567ca96b5a0bc76eea00c3c610c69600435610cf5811515612cf7565b80610cff336131eb565b5560408051338152602081019290925290918291820190565b346101fd5760406003193601126101fd57610d31612e5a565b6040517fffffffff000000000000000000000000000000000000000000000000000000009091166020808301918252602480359084015291610d768160448101610baa565b51902090336000527f7440c3b83c734284c6dbaabc56e2aab447401ce649d182f2600464c1292f369b8082526040600020836000528252600160ff60406000205416151503610e29573360005281526040600020916000525260406000207fffffffffffffffffffffffffffffffffffffffffffffffffffffffffffffff0081541690557f6e9663aceecefa351da298ff43f1b4ee80da411530c55352ba1d5c787118bd2160405180610c693382613366565b6064826040519062461bcd60e51b82526004820152601660248201527f4566666563746f7220646f65736e2774206578697374000000000000000000006044820152fd5b346101fd5760606003193601126101fd57610e866119ea565b67ffffffffffffffff906024358281116101fd57610ea8903690600401611a16565b6044929192359384116101fd57610ec6610ece943690600401611a16565b939092611d83565b005b346101fd5760206003193601126101fd57610ece600435613236565b346101fd5760206003193601126101fd576004356001600160a01b038082168092036101fd5760809160006060604051610f2581611a92565b82815282602082015282604082015201526000527f7440c3b83c734284c6dbaabc56e2aab447401ce649d182f2600464c1292f369860205260406000209060405190610f7082611a92565b825492838352600181015460208401908152606060038460028501541693604087019485520154940193845260405194855251602085015251166040830152516060820152f35b346101fd5760006003193601126101fd5761103b610fd4336131eb565b60028101600081546001600160a01b03811692610ff28415156131a0565b7fffffffffffffffffffffffff00000000000000000000000000000000000000006001860192848454948161102d60038b0197885490612e89565b995555169055553390613146565b7fffffffffffffffffffffffffffffffffffffffff0000000000000000000000003360601b16806000527f7440c3b83c734284c6dbaabc56e2aab447401ce649d182f2600464c1292f36976020908082526040600020926001604051946110a186611aae565b805486520154938381019485526110b882826135f3565b156111ca577f1a9d4a5597d6ea11c9f37af1e8c69914b216e3b22aa6ca6e6387f24d7657647d948151801590816111a1575b8251918215611179575b15611163575b505051908161114e575b50506000528152600060016040822082815501557f7440c3b83c734284c6dbaabc56e2aab447401ce649d182f2600464c1292f36966111438154611c7c565b9055604051338152a1005b51906000528284526040600020558480611104565b60005284865260016040600020015586806110fa565b817f7440c3b83c734284c6dbaabc56e2aab447401ce649d182f2600464c1292f3695556110f4565b82517f7440c3b83c734284c6dbaabc56e2aab447401ce649d182f2600464c1292f3694556110ea565b6064846040519062461bcd60e51b82526004820152601260248201527f4b657920646f6573206e6f7420657869737400000000000000000000000000006044820152fd5b346101fd5761121c36611a00565b801561134557816040917f1eaffb28f02e49aa8dce586ac73116a047f91a8116d887ed4e72496a2f10283f936000527f7440c3b83c734284c6dbaabc56e2aab447401ce649d182f2600464c1292f369a906101b960209183835261128a818760002054801561130c57611d76565b93856000528352838660002055336000526112eb7f7440c3b83c734284c6dbaabc56e2aab447401ce649d182f2600464c1292f369891828552600388600020016112d5828254611d76565b9055336000528285526001886000200154612e89565b903360005283526001600160a01b0360028760002001541630903390612e9c565b336000527f7440c3b83c734284c6dbaabc56e2aab447401ce649d182f2600464c1292f36998652611340888a60002061356f565b611d76565b608460405162461bcd60e51b815260206004820152602560248201527f576f726b657220736c6f74732073686f756c642062652067726561746572207460448201527f68616e20300000000000000000000000000000000000000000000000000000006064820152fd5b346101fd5760406003193601126101fd577f2bd8c5354233e1142193df7977bd89f7ad57b724087278bad86db1e15fc3033b60406113eb6119ea565b6114756001600160a01b039161146b83821693611409851515612dd9565b611462611415336131eb565b9160028301805490887fffffffffffffffffffffffff0000000000000000000000000000000000000000831617905561145960036001860154950194855490612e89565b91339116613146565b54602435612e89565b9030903390612e9c565b8151903382526020820152a1005b346101fd5760806003193601126101fd57600435602435604435916001600160a01b03908184168094036101fd576064359367ffffffffffffffff918286116101fd57366023870112156101fd5785600401359283116101fd576024860195602436918560061b0101116101fd576114fc811515612cf7565b611507851515612d68565b611512821515612dd9565b336000527f7440c3b83c734284c6dbaabc56e2aab447401ce649d182f2600464c1292f36989160209280845285600260406000200154166117a8576003604096959496519161156083611a92565b8483528783018981526040840190858252606085019260008452336000528a52604060002094518555519760019889860155600285019151167fffffffffffffffffffffffff0000000000000000000000000000000000000000825416179055519101556115f27fffffffffffffffffffffffffffffffffffffffff0000000000000000000000003360601b166133ee565b60005b8381106116a957509082916040519660a0880192338952878901526040880152606087015260a060808701525260c08401949260005b82811061165a577f658bee377ff55ceae5c8883fc1d0ec604e9179fba1a50f0f094091cefa2eef0486880387a1005b90919293958635907fffffffff0000000000000000000000000000000000000000000000000000000082168092036101fd5790815286830135838201526040908101960193929190830161162b565b6116b881858a98969798612e4a565b35907fffffffff00000000000000000000000000000000000000000000000000000000821682036101fd5761179f91610baa611738876116f9858b8f612e4a565b01356040519283918a8301958690917fffffffff0000000000000000000000000000000000000000000000000000000060249316825260048201520190565b519020336000527f7440c3b83c734284c6dbaabc56e2aab447401ce649d182f2600464c1292f369b865260406000209060005285526040600020877fffffffffffffffffffffffffffffffffffffffffffffffffffffffffffffff00825416179055611ca7565b949392946115f5565b6064846040519062461bcd60e51b82526004820152601f60248201527f436f6d707574652070726f766964657220616c726561647920657869737473006044820152fd5b346101fd576020806003193601126101fd576004356001600160a01b0381168091036101fd576000527f7440c3b83c734284c6dbaabc56e2aab447401ce649d182f2600464c1292f36998152604060002060028101549061184c82611b29565b9161185a6040519384611aca565b808352601f1961186982611b29565b018460005b82811061198a57505050611883600391612cc6565b916000815492839201925b611912575050509060405192839260408401604085528151809152826060860192019060005b8181106118fb575050508381038285015281808451928381520193019160005b8281106118e357505050500390f35b835151855286955093810193928101926001016118d4565b8251845287965092840192918401916001016118b4565b61197390826000527f7440c3b83c734284c6dbaabc56e2aab447401ce649d182f2600464c1292f369a875260406000206040519061194f82611a47565b54815261195c8288612bba565b526119678187612bba565b5082610a0a8287612bba565b90600052818552600160406000200154908161188e565b60405161199681611a47565b6000815282828801015201859061186e565b346101fd5760006003193601126101fd576020906001600160a01b037f0000000000000000000000000000000000000000000000000000000000000000168152f35b600435906001600160a01b03821682036101fd57565b60031960409101126101fd576004359060243590565b9181601f840112156101fd5782359167ffffffffffffffff83116101fd576020808501948460051b0101116101fd57565b6020810190811067ffffffffffffffff821117611a6357604052565b7f4e487b7100000000000000000000000000000000000000000000000000000000600052604160045260246000fd5b6080810190811067ffffffffffffffff821117611a6357604052565b6040810190811067ffffffffffffffff821117611a6357604052565b90601f601f19910116810190811067ffffffffffffffff821117611a6357604052565b91908203918211611afa57565b7f4e487b7100000000000000000000000000000000000000000000000000000000600052601160045260246000fd5b67ffffffffffffffff8111611a635760051b60200190565b91908260409103126101fd57604051611b5981611aae565b809280517fffffffff00000000000000000000000000000000000000000000000000000000811681036101fd578252602090810151910152565b9060209182818303126101fd5780519067ffffffffffffffff82116101fd570181601f820112156101fd57805192611bca84611b29565b93604093611bda85519687611aca565b818652828087019260061b850101938185116101fd578301915b848310611c045750505050505090565b838691611c118486611b41565b815201920191611bf4565b908160209103126101fd575160038110156101fd5790565b604051906060820182811067ffffffffffffffff821117611a635760405260006040838281528260208201520152565b908160209103126101fd575180151581036101fd5790565b8015611afa577fffffffffffffffffffffffffffffffffffffffffffffffffffffffffffffffff0190565b7fffffffffffffffffffffffffffffffffffffffffffffffffffffffffffffffff8114611afa5760010190565b9190811015611ce45760051b0190565b7f4e487b7100000000000000000000000000000000000000000000000000000000600052603260045260246000fd5b9190811015611ce45760051b810135907fffffffffffffffffffffffffffffffffffffffffffffffffffffffffffffffe1813603018212156101fd57019081359167ffffffffffffffff83116101fd576020018260051b360381136101fd579190565b91908201809211611afa57565b6101005261014052610120919091526040517f7667180800000000000000000000000000000000000000000000000000000000815291907f00000000000000000000000000000000000000000000000000000000000000006001600160a01b0316602084600481845afa9384156105e157600094612b86575b506001600160a01b0361010051166000527f7440c3b83c734284c6dbaabc56e2aab447401ce649d182f2600464c1292f369c602052604060002054841115612b42576040517fc45a0155000000000000000000000000000000000000000000000000000000008152602081600481855afa9081156105e157600091612afb575b5060206001600160a01b03916024604051809481937f210530530000000000000000000000000000000000000000000000000000000083528161010051166004840152165afa9081156105e157600091612adc575b5015612a98576020600491604051928380927fac027f970000000000000000000000000000000000000000000000000000000082525afa80156105e157600061018052612a4d575b50604051917ffc1e5e2a0000000000000000000000000000000000000000000000000000000083526000836004816001600160a01b0361010051165afa9283156105e157600093612a32575b506040517fedd0d7340000000000000000000000000000000000000000000000000000000081526020816004816001600160a01b0361010051165afa80156105e157600060a0526129f9575b506040517f6cd134480000000000000000000000000000000000000000000000000000000081526020816004816001600160a01b0361010051165afa9081156105e1576000916129c7575b506040517f2943dcab0000000000000000000000000000000000000000000000000000000081526020816004816001600160a01b0361010051165afa9081156105e157600091612995575b506040517f108d2f520000000000000000000000000000000000000000000000000000000081526020816004816001600160a01b0361010051165afa9081156105e157600091612961575b5061209c91611aed565b926040517fb55ec18a0000000000000000000000000000000000000000000000000000000081526020816004816001600160a01b0361010051165afa80156105e1576000608052612940575b50604051927f9bc668680000000000000000000000000000000000000000000000000000000084526040846004816001600160a01b0361010051165afa9384156105e1576000946128ff575b50604051957f176345140000000000000000000000000000000000000000000000000000000087526020876004816001600160a01b0361010051165afa9687156105e1576000976128c8575b50600060e081905292935b8484106121eb57505050505050505060e0516121a45750565b60028101809111611afa576001600160a01b0361010051166000527f7440c3b83c734284c6dbaabc56e2aab447401ce649d182f2600464c1292f369c602052604060002055565b61220284866101409b9495969798999a9b51611cd4565b35610160526001600160a01b03610160511661016051036101fd5760805160038110156107f057600181036127fc57506040517f055236f40000000000000000000000000000000000000000000000000000000081526001600160a01b03610160511660048201526020816024816001600160a01b0361010051165afa9081156105e1576000916127dd575b5015612774575b6001600160a01b0361016051166000527f7440c3b83c734284c6dbaabc56e2aab447401ce649d182f2600464c1292f36986020526040600020958160018801549754118015612769575b8015612755575b612743576122fc86866101209d9c9b9d51611d13565b949050600060c0525b8460c051101561272957612329612320888861012051611d13565b60c05191611cd4565b6040517f67c17a0b000000000000000000000000000000000000000000000000000000008152610160516001600160a01b0316600482015290356024820181905290602081806044810103816001600160a01b0361010051165afa9081156105e15760009161270a575b50612700576040517f095ea7b300000000000000000000000000000000000000000000000000000000815260a051610100516001600160a01b0316600483015260248201526020818060448101038160006001600160a01b0361018051165af180156105e1576126e1575b506040516101c08181527feebe998f0000000000000000000000000000000000000000000000000000000090915251610160516001600160a01b03166004820152602481018290526020908060448101036101c05160006001600160a01b0361010051165af16101a0526101a051156105e15760009c6101a0516126a2575b9c8b9c9d61248d60a0518c611aed565b806125e3575b507f1c13422d2375fe8a96ddbe3f6e2efc794f2befbfe247217479ef4b68030d42c3916124c160a092611c7c565b9d846000527f7440c3b83c734284c6dbaabc56e2aab447401ce649d182f2600464c1292f369a806020526124f9604060002054611c7c565b806125d0575085600052602052600060408120556001600160a01b0361016051166000527f7440c3b83c734284c6dbaabc56e2aab447401ce649d182f2600464c1292f369960205261254f8560406000206136b6565b604051916001600160a01b0361010051168352602083015260408201527fffffffff000000000000000000000000000000000000000000000000000000008d5116606082015260208d01516080820152a2600160e05289156125c3575b6125b760c051611ca7565b60c0529a99989a612305565b5050505050505050505050565b908660005260205260406000205561254f565b6040517fa9059cbb000000000000000000000000000000000000000000000000000000008152610160516001600160a01b031660048201526024810191909152919c50906020818060448101038160006001600160a01b0361018051165af19c8d156105e1576124c18f9e9360a0937f1c13422d2375fe8a96ddbe3f6e2efc794f2befbfe247217479ef4b68030d42c395612683575b5092505091612493565b61269b9060203d6020116105da576105cc8183611aca565b5038612679565b60203d6020116126da575b806126bd6020926101c051611aca565b6101c05190810103126126d6576101c051519d5061247d565b8d80fd5b503d6126ad565b6126f99060203d6020116105da576105cc8183611aca565b50386123fe565b509a98999a6125ac565b612723915060203d6020116105da576105cc8183611aca565b38612393565b92999a9796509392509361273c90611ca7565b929361218b565b93929198979695509361273c90611ca7565b506127638461016051612bce565b156122e6565b5060a05187106122df565b608460405162461bcd60e51b8152602060048201526024808201527f436f6d707574652070726f7669646572206973206e6f7420696e20776869746560448201527f6c697374000000000000000000000000000000000000000000000000000000006064820152fd5b6127f6915060203d6020116105da576105cc8183611aca565b3861228e565b600203612295576040517f055236f40000000000000000000000000000000000000000000000000000000081526001600160a01b03610160511660048201526020816024816001600160a01b0361010051165afa9081156105e1576000916128a9575b501561229557606460405162461bcd60e51b815260206004820152602060248201527f436f6d707574652070726f766964657220697320696e20626c61636b6c6973746044820152fd5b6128c2915060203d6020116105da576105cc8183611aca565b3861285f565b90966020823d6020116128f7575b816128e360209383611aca565b810103126128f45750519538612180565b80fd5b3d91506128d6565b90936040903d604011612938575b6129178284611aca565b60408383810103126128f457509061293191810190611b41565b9238612134565b3d915061290d565b6129589060203d602011610a5857610a498183611aca565b608052386120e8565b906020823d60201161298d575b8161297b60209383611aca565b810103126128f457505161209c612092565b3d915061296e565b906020823d6020116129bf575b816129af60209383611aca565b810103126128f457505138612047565b3d91506129a2565b906020823d6020116129f1575b816129e160209383611aca565b810103126128f457505138611ffc565b3d91506129d4565b6020813d602011612a2a575b81612a1260209383611aca565b81010312612a24575160a05238611fb1565b60a05180fd5b3d9150612a05565b612a4691933d8091833e610a758183611aca565b9138611f65565b6020813d602011612a90575b81612a6660209383611aca565b81010312612a8957516001600160a01b0381168103612a89576101805238611f19565b6101805180fd5b3d9150612a59565b606460405162461bcd60e51b815260206004820152601860248201527f4465616c206973206e6f742066726f6d20666163746f727900000000000000006044820152fd5b612af5915060203d6020116105da576105cc8183611aca565b38611ed1565b6020813d602011612b3a575b81612b1460209383611aca565b81010312612b365751906001600160a01b03821682036128f457506020611e7c565b5080fd5b3d9150612b07565b606460405162461bcd60e51b815260206004820152601e60248201527f4465616c206973206e6f7420726561647920666f72206d61746368696e6700006044820152fd5b90936020823d602011612bb2575b81612ba160209383611aca565b810103126128f45750519238611dfc565b3d9150612b94565b8051821015611ce45760209160051b010190565b81519160005b838110612be45750505050600190565b60ff7fffffffff00000000000000000000000000000000000000000000000000000000612c118385612bba565b515116602080612c218587612bba565b510151604080517fffffffff00000000000000000000000000000000000000000000000000000000909416838501908152600481019290925292612c688160248401610baa565b519020906001600160a01b0387166000527f7440c3b83c734284c6dbaabc56e2aab447401ce649d182f2600464c1292f369b8152826000209160005252600020541615612cbd57612cb890611ca7565b612bd4565b50505050600090565b90612cd082611b29565b612cdd6040519182611aca565b828152601f19612ced8294611b29565b0190602036910137565b15612cfe57565b608460405162461bcd60e51b815260206004820152602c60248201527f4d696e207072696365207065722065706f63682073686f756c6420626520677260448201527f6561746572207468616e203000000000000000000000000000000000000000006064820152fd5b15612d6f57565b608460405162461bcd60e51b815260206004820152602760248201527f4d617820636f6c6c61746572616c2073686f756c64206265206772656174657260448201527f207468616e2030000000000000000000000000000000000000000000000000006064820152fd5b15612de057565b608460405162461bcd60e51b815260206004820152602860248201527f5061796d656e7420746f6b656e2073686f756c64206265206e6f74207a65726f60448201527f20616464726573730000000000000000000000000000000000000000000000006064820152fd5b9190811015611ce45760061b0190565b6004357fffffffff00000000000000000000000000000000000000000000000000000000811681036101fd5790565b81810292918115918404141715611afa57565b9290604051927f23b872dd0000000000000000000000000000000000000000000000000000000060208501526001600160a01b03809216602485015216604483015260648201526064815260a081019181831067ffffffffffffffff841117611a6357612f0b92604052612f0d565b565b6001600160a01b03909291921691604051612f2781611aae565b6020918282527f5361666545524332303a206c6f772d6c6576656c2063616c6c206661696c6564838301526000808285829451910182895af13d1561306a573d9567ffffffffffffffff871161303d57612fa294959660405190612f9488601f19601f8401160183611aca565b81528093873d92013e613076565b805190828215928315613025575b50505015612fbb5750565b6084906040519062461bcd60e51b82526004820152602a60248201527f5361666545524332303a204552433230206f7065726174696f6e20646964206e60448201527f6f742073756363656564000000000000000000000000000000000000000000006064820152fd5b6130359350820181019101611c64565b388281612fb0565b6024837f4e487b710000000000000000000000000000000000000000000000000000000081526041600452fd5b612fa293949591506060915b919290156130d7575081511561308a575090565b3b156130935790565b606460405162461bcd60e51b815260206004820152601d60248201527f416464726573733a2063616c6c20746f206e6f6e2d636f6e74726163740000006044820152fd5b8251909150156130ea5750805190602001fd5b6040519062461bcd60e51b825281602080600483015282519283602484015260005b84811061312f57505050601f19601f836000604480968601015201168101030190fd5b81810183015186820160440152859350820161310c565b6040517fa9059cbb0000000000000000000000000000000000000000000000000000000060208201526001600160a01b03929092166024830152604480830193909352918152612f0b9161319b606483611aca565b612f0d565b156131a757565b606460405162461bcd60e51b815260206004820152601e60248201527f436f6d707574652070726f766964657220646f65736e277420657869737400006044820152fd5b6001600160a01b038091166000527f7440c3b83c734284c6dbaabc56e2aab447401ce649d182f2600464c1292f369860205261323360406000209160028301541615156131a0565b90565b613241811515612d68565b61324a336131eb565b9060018201908154918183146133225781905560038301805493841561331b5782847fa8c62389b31fc6dfc3c0ec83e30a55441144e480af1c0721cf27c7c88f29952596826132e297116000146132e75750926132ad6132b5926132ca95611aed565b905490612e89565b906001600160a01b0360023392015416613146565b60408051338152602081019290925290918291820190565b0390a1565b6133169450613309906133046002936001600160a01b0395611aed565b612e89565b9201541630903390612e9c565b6132ca565b5050505050565b606460405162461bcd60e51b815260206004820152601a60248201527f4d617820636f6c6c61746572616c206973207468652073616d650000000000006044820152fd5b9190916001600160a01b0360608201931681526004357fffffffff0000000000000000000000000000000000000000000000000000000081168091036101fd5760208201526040602435910152565b602081019060408101815190600184519486835191520190521590816001146133e85750156133e2575050565b60200152565b91505052565b801561352b5760008181527f7440c3b83c734284c6dbaabc56e2aab447401ce649d182f2600464c1292f36979081602052613446836040832060016040519161343683611aae565b80548352015460208201526135f3565b6134e7577f7440c3b83c734284c6dbaabc56e2aab447401ce649d182f2600464c1292f3695918254907f7440c3b83c734284c6dbaabc56e2aab447401ce649d182f2600464c1292f369661349a8154611ca7565b90558482156134bf579060409392916001955585835260205280838320558152200155565b7f7440c3b83c734284c6dbaabc56e2aab447401ce649d182f2600464c1292f36945550505055565b606460405162461bcd60e51b815260206004820152601260248201527f4b657920616c72656164792065786973747300000000000000000000000000006044820152fd5b606460405162461bcd60e51b815260206004820152601260248201527f4b65792063616e6e6f74206265205a45524f00000000000000000000000000006044820152fd5b811561352b576003810190600090838252826020526135ac846040842060016040519161359b83611aae565b805483520154602082015283613673565b6134e757600181019284845492600281016135c78154611ca7565b905583156135ec57509060409392916001955585835260205280838320558152200155565b5550505055565b9081511591821592613665575b50811561363a575b8115613612575090565b90507f7440c3b83c734284c6dbaabc56e2aab447401ce649d182f2600464c1292f3695541490565b7f7440c3b83c734284c6dbaabc56e2aab447401ce649d182f2600464c1292f36945481149150613608565b602001511515915038613600565b81511580159392906136a8575b50821561369d575b821561369357505090565b6001015414919050565b805482149250613688565b602001511515925038613680565b91909160038101600090848252602081815260409586842060018851916136dc83611aae565b8054835201548382019081526136f3838389613673565b1561377a579181600195936002999a95935180159081613771575b8251918215613767575b15613755575b5050519081613743575b5050855252822082815501550161373f8154611c7c565b9055565b51908752838352848720553880613728565b895285855287878a200155388061371e565b818a8d0155613718565b82518b5561370e565b6064848a519062461bcd60e51b82526004820152601260248201527f4b657920646f6573206e6f7420657869737400000000000000000000000000006044820152fdfea2646970667358221220dde7c2d0cf1ce21666d14d406f7cf0180214afb8983a4fa69e38ae9bac842a7f64736f6c63430008130033",
  "devdoc": {
    "kind": "dev",
    "methods": {},
    "version": 1
  },
  "userdoc": {
    "kind": "user",
    "methods": {},
    "version": 1
  },
  "storageLayout": {
    "storage": [
      {
        "astId": 7663,
        "contract": "contracts/global/matcher/Matcher.sol:Matcher",
        "label": "_storage",
        "offset": 0,
        "slot": "0",
        "type": "t_struct(ConfigStorage)7660_storage"
      }
    ],
    "types": {
      "t_address": {
        "encoding": "inplace",
        "label": "address",
        "numberOfBytes": "20"
      },
      "t_bool": {
        "encoding": "inplace",
        "label": "bool",
        "numberOfBytes": "1"
      },
      "t_bytes32": {
        "encoding": "inplace",
        "label": "bytes32",
        "numberOfBytes": "32"
      },
      "t_contract(IDeal)6194": {
        "encoding": "inplace",
        "label": "contract IDeal",
        "numberOfBytes": "20"
      },
      "t_contract(IERC20)2321": {
        "encoding": "inplace",
        "label": "contract IERC20",
        "numberOfBytes": "20"
      },
      "t_mapping(t_address,t_mapping(t_bytes32,t_bool))": {
        "encoding": "mapping",
        "key": "t_address",
        "label": "mapping(address => mapping(bytes32 => bool))",
        "numberOfBytes": "32",
        "value": "t_mapping(t_bytes32,t_bool)"
      },
      "t_mapping(t_address,t_struct(Bytes32List)9139_storage)": {
        "encoding": "mapping",
        "key": "t_address",
        "label": "mapping(address => struct LinkedListWithUniqueKeys.Bytes32List)",
        "numberOfBytes": "32",
        "value": "t_struct(Bytes32List)9139_storage"
      },
      "t_mapping(t_address,t_struct(ComputeProvider)8735_storage)": {
        "encoding": "mapping",
        "key": "t_address",
        "label": "mapping(address => struct IMatcherConfig.ComputeProvider)",
        "numberOfBytes": "32",
        "value": "t_struct(ComputeProvider)8735_storage"
      },
      "t_mapping(t_bytes32,t_bool)": {
        "encoding": "mapping",
        "key": "t_bytes32",
        "label": "mapping(bytes32 => bool)",
        "numberOfBytes": "32",
        "value": "t_bool"
      },
      "t_mapping(t_bytes32,t_struct(ComputePeer)8738_storage)": {
        "encoding": "mapping",
        "key": "t_bytes32",
        "label": "mapping(bytes32 => struct IMatcherConfig.ComputePeer)",
        "numberOfBytes": "32",
        "value": "t_struct(ComputePeer)8738_storage"
      },
      "t_mapping(t_bytes32,t_struct(Element)9127_storage)": {
        "encoding": "mapping",
        "key": "t_bytes32",
        "label": "mapping(bytes32 => struct LinkedListWithUniqueKeys.Element)",
        "numberOfBytes": "32",
        "value": "t_struct(Element)9127_storage"
      },
      "t_mapping(t_contract(IDeal)6194,t_uint256)": {
        "encoding": "mapping",
        "key": "t_contract(IDeal)6194",
        "label": "mapping(contract IDeal => uint256)",
        "numberOfBytes": "32",
        "value": "t_uint256"
      },
      "t_struct(Bytes32List)9139_storage": {
        "encoding": "inplace",
        "label": "struct LinkedListWithUniqueKeys.Bytes32List",
        "members": [
          {
            "astId": 9129,
            "contract": "contracts/global/matcher/Matcher.sol:Matcher",
            "label": "_first",
            "offset": 0,
            "slot": "0",
            "type": "t_bytes32"
          },
          {
            "astId": 9131,
            "contract": "contracts/global/matcher/Matcher.sol:Matcher",
            "label": "_last",
            "offset": 0,
            "slot": "1",
            "type": "t_bytes32"
          },
          {
            "astId": 9133,
            "contract": "contracts/global/matcher/Matcher.sol:Matcher",
            "label": "_length",
            "offset": 0,
            "slot": "2",
            "type": "t_uint256"
          },
          {
            "astId": 9138,
            "contract": "contracts/global/matcher/Matcher.sol:Matcher",
            "label": "_elements",
            "offset": 0,
            "slot": "3",
            "type": "t_mapping(t_bytes32,t_struct(Element)9127_storage)"
          }
        ],
        "numberOfBytes": "128"
      },
      "t_struct(ComputePeer)8738_storage": {
        "encoding": "inplace",
        "label": "struct IMatcherConfig.ComputePeer",
        "members": [
          {
            "astId": 8737,
            "contract": "contracts/global/matcher/Matcher.sol:Matcher",
            "label": "freeWorkerSlots",
            "offset": 0,
            "slot": "0",
            "type": "t_uint256"
          }
        ],
        "numberOfBytes": "32"
      },
      "t_struct(ComputeProvider)8735_storage": {
        "encoding": "inplace",
        "label": "struct IMatcherConfig.ComputeProvider",
        "members": [
          {
            "astId": 8727,
            "contract": "contracts/global/matcher/Matcher.sol:Matcher",
            "label": "minPricePerEpoch",
            "offset": 0,
            "slot": "0",
            "type": "t_uint256"
          },
          {
            "astId": 8729,
            "contract": "contracts/global/matcher/Matcher.sol:Matcher",
            "label": "maxCollateral",
            "offset": 0,
            "slot": "1",
            "type": "t_uint256"
          },
          {
            "astId": 8732,
            "contract": "contracts/global/matcher/Matcher.sol:Matcher",
            "label": "paymentToken",
            "offset": 0,
            "slot": "2",
            "type": "t_contract(IERC20)2321"
          },
          {
            "astId": 8734,
            "contract": "contracts/global/matcher/Matcher.sol:Matcher",
            "label": "totalFreeWorkerSlots",
            "offset": 0,
            "slot": "3",
            "type": "t_uint256"
          }
        ],
        "numberOfBytes": "128"
      },
      "t_struct(ConfigStorage)7660_storage": {
        "encoding": "inplace",
        "label": "struct MatcherConfig.ConfigStorage",
        "members": [
          {
            "astId": 7633,
            "contract": "contracts/global/matcher/Matcher.sol:Matcher",
            "label": "computeProvidersList",
            "offset": 0,
            "slot": "0",
            "type": "t_struct(Bytes32List)9139_storage"
          },
          {
            "astId": 7638,
            "contract": "contracts/global/matcher/Matcher.sol:Matcher",
            "label": "computeProviderByOwner",
            "offset": 0,
            "slot": "4",
            "type": "t_mapping(t_address,t_struct(ComputeProvider)8735_storage)"
          },
          {
            "astId": 7643,
            "contract": "contracts/global/matcher/Matcher.sol:Matcher",
            "label": "computePeersListByProvider",
            "offset": 0,
            "slot": "5",
            "type": "t_mapping(t_address,t_struct(Bytes32List)9139_storage)"
          },
          {
            "astId": 7648,
            "contract": "contracts/global/matcher/Matcher.sol:Matcher",
            "label": "computePeerByPeerId",
            "offset": 0,
            "slot": "6",
            "type": "t_mapping(t_bytes32,t_struct(ComputePeer)8738_storage)"
          },
          {
            "astId": 7654,
            "contract": "contracts/global/matcher/Matcher.sol:Matcher",
            "label": "effectorsByComputeProvider",
            "offset": 0,
            "slot": "7",
            "type": "t_mapping(t_address,t_mapping(t_bytes32,t_bool))"
          },
          {
            "astId": 7659,
            "contract": "contracts/global/matcher/Matcher.sol:Matcher",
            "label": "minMatchingEpochByDeal",
            "offset": 0,
            "slot": "8",
            "type": "t_mapping(t_contract(IDeal)6194,t_uint256)"
          }
        ],
        "numberOfBytes": "288"
      },
      "t_struct(Element)9127_storage": {
        "encoding": "inplace",
        "label": "struct LinkedListWithUniqueKeys.Element",
        "members": [
          {
            "astId": 9124,
            "contract": "contracts/global/matcher/Matcher.sol:Matcher",
            "label": "prev",
            "offset": 0,
            "slot": "0",
            "type": "t_bytes32"
          },
          {
            "astId": 9126,
            "contract": "contracts/global/matcher/Matcher.sol:Matcher",
            "label": "next",
            "offset": 0,
            "slot": "1",
            "type": "t_bytes32"
          }
        ],
        "numberOfBytes": "64"
      },
      "t_uint256": {
        "encoding": "inplace",
        "label": "uint256",
        "numberOfBytes": "32"
      }
    }
  }
}