{
  "address": "0xC0081CFa604111cd57027D8D6A5aB27078670436",
  "abi": [
    {
      "inputs": [
        {
          "internalType": "contract IGlobalConfig",
          "name": "globalConfig_",
          "type": "address"
        },
        {
          "internalType": "contract IParticleVerifyer",
          "name": "particleVerifyer_",
          "type": "address"
        }
      ],
      "stateMutability": "nonpayable",
      "type": "constructor"
    },
    {
      "anonymous": false,
      "inputs": [
        {
          "indexed": false,
          "internalType": "address",
          "name": "previousAdmin",
          "type": "address"
        },
        {
          "indexed": false,
          "internalType": "address",
          "name": "newAdmin",
          "type": "address"
        }
      ],
      "name": "AdminChanged",
      "type": "event"
    },
    {
      "anonymous": false,
      "inputs": [
        {
          "components": [
            {
              "internalType": "bytes4",
              "name": "prefixes",
              "type": "bytes4"
            },
            {
              "internalType": "bytes32",
              "name": "hash",
              "type": "bytes32"
            }
          ],
          "indexed": false,
          "internalType": "struct CIDV1",
          "name": "newAppCID",
          "type": "tuple"
        }
      ],
      "name": "AppCIDChanged",
      "type": "event"
    },
    {
      "anonymous": false,
      "inputs": [
        {
          "indexed": true,
          "internalType": "address",
          "name": "beacon",
          "type": "address"
        }
      ],
      "name": "BeaconUpgraded",
      "type": "event"
    },
    {
      "anonymous": false,
      "inputs": [
        {
          "indexed": false,
          "internalType": "uint8",
          "name": "version",
          "type": "uint8"
        }
      ],
      "name": "Initialized",
      "type": "event"
    },
    {
      "anonymous": false,
      "inputs": [
        {
          "indexed": true,
          "internalType": "address",
          "name": "implementation",
          "type": "address"
        }
      ],
      "name": "Upgraded",
      "type": "event"
    },
    {
      "inputs": [],
      "name": "appCID",
      "outputs": [
        {
          "components": [
            {
              "internalType": "bytes4",
              "name": "prefixes",
              "type": "bytes4"
            },
            {
              "internalType": "bytes32",
              "name": "hash",
              "type": "bytes32"
            }
          ],
          "internalType": "struct CIDV1",
          "name": "",
          "type": "tuple"
        }
      ],
      "stateMutability": "view",
      "type": "function"
    },
    {
      "inputs": [],
      "name": "creationBlock",
      "outputs": [
        {
          "internalType": "uint256",
          "name": "",
          "type": "uint256"
        }
      ],
      "stateMutability": "view",
      "type": "function"
    },
    {
      "inputs": [],
      "name": "effectors",
      "outputs": [
        {
          "components": [
            {
              "internalType": "bytes4",
              "name": "prefixes",
              "type": "bytes4"
            },
            {
              "internalType": "bytes32",
              "name": "hash",
              "type": "bytes32"
            }
          ],
          "internalType": "struct CIDV1[]",
          "name": "",
          "type": "tuple[]"
        }
      ],
      "stateMutability": "view",
      "type": "function"
    },
    {
      "inputs": [],
      "name": "fluenceToken",
      "outputs": [
        {
          "internalType": "contract IERC20",
          "name": "",
          "type": "address"
        }
      ],
      "stateMutability": "view",
      "type": "function"
    },
    {
      "inputs": [],
      "name": "globalConfig",
      "outputs": [
        {
          "internalType": "contract IGlobalConfig",
          "name": "",
          "type": "address"
        }
      ],
      "stateMutability": "view",
      "type": "function"
    },
    {
      "inputs": [
        {
          "internalType": "contract IERC20",
          "name": "paymentToken_",
          "type": "address"
        },
        {
          "internalType": "uint256",
          "name": "pricePerEpoch_",
          "type": "uint256"
        },
        {
          "internalType": "uint256",
          "name": "requiredCollateral_",
          "type": "uint256"
        },
        {
          "components": [
            {
              "internalType": "bytes4",
              "name": "prefixes",
              "type": "bytes4"
            },
            {
              "internalType": "bytes32",
              "name": "hash",
              "type": "bytes32"
            }
          ],
          "internalType": "struct CIDV1",
          "name": "appCID_",
          "type": "tuple"
        },
        {
          "internalType": "uint256",
          "name": "minWorkers_",
          "type": "uint256"
        },
        {
          "internalType": "uint256",
          "name": "maxWorkersPerProvider_",
          "type": "uint256"
        },
        {
          "internalType": "uint256",
          "name": "targetWorkers_",
          "type": "uint256"
        },
        {
          "components": [
            {
              "internalType": "bytes4",
              "name": "prefixes",
              "type": "bytes4"
            },
            {
              "internalType": "bytes32",
              "name": "hash",
              "type": "bytes32"
            }
          ],
          "internalType": "struct CIDV1[]",
          "name": "effectors_",
          "type": "tuple[]"
        }
      ],
      "name": "initialize",
      "outputs": [],
      "stateMutability": "nonpayable",
      "type": "function"
    },
    {
      "inputs": [],
      "name": "maxWorkersPerProvider",
      "outputs": [
        {
          "internalType": "uint256",
          "name": "",
          "type": "uint256"
        }
      ],
      "stateMutability": "view",
      "type": "function"
    },
    {
      "inputs": [],
      "name": "minWorkers",
      "outputs": [
        {
          "internalType": "uint256",
          "name": "",
          "type": "uint256"
        }
      ],
      "stateMutability": "view",
      "type": "function"
    },
    {
      "inputs": [],
      "name": "particleVerifyer",
      "outputs": [
        {
          "internalType": "contract IParticleVerifyer",
          "name": "",
          "type": "address"
        }
      ],
      "stateMutability": "view",
      "type": "function"
    },
    {
      "inputs": [],
      "name": "paymentToken",
      "outputs": [
        {
          "internalType": "contract IERC20",
          "name": "",
          "type": "address"
        }
      ],
      "stateMutability": "view",
      "type": "function"
    },
    {
      "inputs": [],
      "name": "pricePerEpoch",
      "outputs": [
        {
          "internalType": "uint256",
          "name": "",
          "type": "uint256"
        }
      ],
      "stateMutability": "view",
      "type": "function"
    },
    {
      "inputs": [],
      "name": "proxiableUUID",
      "outputs": [
        {
          "internalType": "bytes32",
          "name": "",
          "type": "bytes32"
        }
      ],
      "stateMutability": "view",
      "type": "function"
    },
    {
      "inputs": [],
      "name": "requiredCollateral",
      "outputs": [
        {
          "internalType": "uint256",
          "name": "",
          "type": "uint256"
        }
      ],
      "stateMutability": "view",
      "type": "function"
    },
    {
      "inputs": [
        {
          "components": [
            {
              "internalType": "bytes4",
              "name": "prefixes",
              "type": "bytes4"
            },
            {
              "internalType": "bytes32",
              "name": "hash",
              "type": "bytes32"
            }
          ],
          "internalType": "struct CIDV1",
          "name": "appCID_",
          "type": "tuple"
        }
      ],
      "name": "setAppCID",
      "outputs": [],
      "stateMutability": "nonpayable",
      "type": "function"
    },
    {
      "inputs": [],
      "name": "targetWorkers",
      "outputs": [
        {
          "internalType": "uint256",
          "name": "",
          "type": "uint256"
        }
      ],
      "stateMutability": "view",
      "type": "function"
    },
    {
      "inputs": [
        {
          "internalType": "address",
          "name": "newImplementation",
          "type": "address"
        }
      ],
      "name": "upgradeTo",
      "outputs": [],
      "stateMutability": "nonpayable",
      "type": "function"
    },
    {
      "inputs": [
        {
          "internalType": "address",
          "name": "newImplementation",
          "type": "address"
        },
        {
          "internalType": "bytes",
          "name": "data",
          "type": "bytes"
        }
      ],
      "name": "upgradeToAndCall",
      "outputs": [],
      "stateMutability": "payable",
      "type": "function"
    }
  ],
  "transactionHash": "0x056c553f1e79ebf73c6ddbfc340ed407e16146940b81fc93fdd76edc18260cf9",
  "args": [
    "0x79EeA23C90e7D142D903833AB6F835aC06cCbAce",
    "0x789E0BD94672c3B010b3C57C21902be39412940B"
  ],
  "numDeployments": 1,
  "solcInputHash": "09b009adaa7c41f548683d650f79aaa9",
  "bytecode": "0x610100806040523462000126576040816200186880380380916200002482856200012b565b83398101031262000126578051906001600160a01b039081831690818403620001265760200151928284168403620001265760805260405163ac027f9760e01b815290602090829060049082905afa9081156200011a57600091620000d2575b838260a05260c0523060e0526040516117029081620001668239608051816107aa015260a05181610759015260c0518161111c015260e0518181816108d601528181610a160152610d970152f35b6020813d821162000111575b81620000ed602093836200012b565b810103126200010d575191821682036200010a5750803862000084565b80fd5b5080fd5b3d9150620000de565b6040513d6000823e3d90fd5b600080fd5b601f909101601f19168101906001600160401b038211908210176200014f57604052565b634e487b7160e01b600052604160045260246000fdfe60806040908082526004908136101561001757600080fd5b60009060e0928235841c91826317634514146112ec57508163176474cf146111405781631ef7e0a1146110ef5781632943dcab146110d05781632db31193146110b15781633013ce291461107e5781633659cfe614610d615781634f1ef2861461098d57816352d1902d146108ab5781635fc8f59c1461088c5781638a0c725b146108695781639bc66868146107ce578163a7c1abe01461077d578163ac027f971461072c578163b53105a314610709578163b817045914610221575063fc1e5e2a146100e357600080fd5b3461021e578060031936011261021e5791906009549261010284611412565b61010e84519182611397565b8481526020948582018094600985527f6e1540171b6c0c960b71a7020d9f60077f6af931a8bbf590da0223dacf75c7af9085925b8484106101c4575050505050835194859481860192828752518093528086019493905b8382106101725786860387f35b9184965082866101b46001949698849851602080917fffffffff0000000000000000000000000000000000000000000000000000000081511684520151910152565b0196019201869594929391610165565b60028a6001928b9c99989a9b516101da81611330565b7fffffffff000000000000000000000000000000000000000000000000000000008754871b1681528487015483820152815201930193019291989796949598610142565b80fd5b84915083346107055761012060031936011261070557813573ffffffffffffffffffffffffffffffffffffffff811680910361070157837fffffffffffffffffffffffffffffffffffffffffffffffffffffffffffffff9c36011261070157610104359267ffffffffffffffff84116106fd57366023850112156106fd57838101356102ac81611412565b916102b987519384611397565b8183526020958684016024809460061b830101913683116106f9578401905b82821061069b57505050603c549460ff8660081c16159485809661068e575b8015610677575b156106105760019686887fffffffffffffffffffffffffffffffffffffffffffffffffffffffffffffff00831617603c556105e1575b507fffffffffffffffffffffffff00000000000000000000000000000000000000008a5416178955823586556044356002556064357fffffffff00000000000000000000000000000000000000000000000000000000811681036105dd576103c49060e01c7fffffffffffffffffffffffffffffffffffffffffffffffffffffffff000000006007541617600755565b60843560085560a43560035560c435825560059360e43585558051948a5b8681106104525750505050505050436006556103fc578380f35b7f7f26b83ff96e1f2b6a682f133852f6798a09c465da95921460cefb3847402498927fffffffffffffffffffffffffffffffffffffffffffffffffffffffffffff00ff603c5416603c5551908152a18180808380f35b82518110156105b2578981831b84010151600980549068010000000000000000821015610587578b820180825582101561055c577f6e1540171b6c0c960b71a7020d9f60077f6af931a8bbf590da0223dacf75c7b0918f918e92528c1b92837f6e1540171b6c0c960b71a7020d9f60077f6af931a8bbf590da0223dacf75c7af018151891c7fffffffffffffffffffffffffffffffffffffffffffffffffffffffff0000000082541617905501519101557fffffffffffffffffffffffffffffffffffffffffffffffffffffffffffffffff81146105315788016103e2565b858c6011877f4e487b7100000000000000000000000000000000000000000000000000000000835252fd5b888f60328a7f4e487b7100000000000000000000000000000000000000000000000000000000835252fd5b888f60418a7f4e487b7100000000000000000000000000000000000000000000000000000000835252fd5b858c6032877f4e487b7100000000000000000000000000000000000000000000000000000000835252fd5b8980fd5b7fffffffffffffffffffffffffffffffffffffffffffffffffffffffffffff00001661010117603c558a610334565b608483602e868b8d519362461bcd60e51b85528401528201527f496e697469616c697a61626c653a20636f6e747261637420697320616c72656160448201527f647920696e697469616c697a65640000000000000000000000000000000000006064820152fd5b50303b1580156102fe5750600160ff8816146102fe565b50600160ff8816106102f7565b89823603126106f9578951906106b082611330565b8235907fffffffff00000000000000000000000000000000000000000000000000000000821682036106f557828b928d945282850135838201528152019101906102d8565b8c80fd5b8a80fd5b8580fd5b8480fd5b8380fd5b8285346107285781600319360112610728576020906002549051908152f35b5080fd5b8285346107285781600319360112610728576020905173ffffffffffffffffffffffffffffffffffffffff7f0000000000000000000000000000000000000000000000000000000000000000168152f35b8285346107285781600319360112610728576020905173ffffffffffffffffffffffffffffffffffffffff7f0000000000000000000000000000000000000000000000000000000000000000168152f35b50503461021e578060031936011261021e57602083516107ed81611330565b82815201527fffffffff0000000000000000000000000000000000000000000000000000000082519161081f83611330565b600754901b168152600854602082015261086782518092602080917fffffffff0000000000000000000000000000000000000000000000000000000081511684520151910152565bf35b8491503461088857826003193601126108885760209250549051908152f35b8280fd5b8285346107285781600319360112610728576020906001549051908152f35b9250503461021e578060031936011261021e575073ffffffffffffffffffffffffffffffffffffffff7f000000000000000000000000000000000000000000000000000000000000000016300361092557602082517f360894a13ba1a3210667c828492db98dca3e2076cc3735a920a3ca505d382bbc8152f35b6020608492519162461bcd60e51b8352820152603860248201527f555550535570677261646561626c653a206d757374206e6f742062652063616c60448201527f6c6564207468726f7567682064656c656761746563616c6c00000000000000006064820152fd5b90508380600319360112610888576109a3611308565b9060249081359067ffffffffffffffff82116106fd57366023830112156106fd57818501356109d1816113d8565b6109dd83519182611397565b81815287602094858301933688828401011161088857808888930186378301015273ffffffffffffffffffffffffffffffffffffffff807f00000000000000000000000000000000000000000000000000000000000000001690610a438230141561142a565b610a727f360894a13ba1a3210667c828492db98dca3e2076cc3735a920a3ca505d382bbc92828454161461149b565b807fe0c154d538f20c8d1aadcd299210daa7f0a434a5bf4a39795668b28b61ec6e9654163303610d20577f4910fdfa16fed3260ed0e7147f7cc6da11a60208b5b9406d12a635614ffd91435460ff1615610ada5750505050505050610ad7915061150c565b80f35b87929394959697169085517f52d1902d00000000000000000000000000000000000000000000000000000000815287818b81865afa8b9181610ced575b50610b835760848a602e8b8b8b519362461bcd60e51b85528401528201527f45524331393637557067726164653a206e657720696d706c656d656e7461746960448201527f6f6e206973206e6f7420555550530000000000000000000000000000000000006064820152fd5b989294989791939703610c86575050610b9b8261150c565b7fbc7cd75a20ee27fd9adebab32041f755214dbc6bffa90cc0225b39da2e5c2d3b8780a285845115801590610c7e575b610bd9575b50505050505080f35b80610c6896845196610bea8861137b565b602788527f416464726573733a206c6f772d6c6576656c2064656c65676174652063616c6c878901527f206661696c656400000000000000000000000000000000000000000000000000868901525190845af4913d15610c74573d610c5a610c51826113d8565b92519283611397565b81528681943d92013e6115de565b50818080808085610bd0565b50606092506115de565b506001610bcb565b9060296084928787519362461bcd60e51b85528401528201527f45524331393637557067726164653a20756e737570706f727465642070726f7860448201527f6961626c655555494400000000000000000000000000000000000000000000006064820152fd5b9091508881813d8311610d19575b610d058183611397565b81010312610d155751908c610b17565b8b80fd5b503d610cfb565b606489601e898989519362461bcd60e51b85528401528201527f4d6f64756c65426173653a2063616c6c6572206973206e6f7420636f726500006044820152fd5b905083346108885760208060031936011261070557610d7e611308565b9173ffffffffffffffffffffffffffffffffffffffff807f000000000000000000000000000000000000000000000000000000000000000016610dc38130141561142a565b610df27f360894a13ba1a3210667c828492db98dca3e2076cc3735a920a3ca505d382bbc91838354161461149b565b817fe0c154d538f20c8d1aadcd299210daa7f0a434a5bf4a39795668b28b61ec6e965416330361103c578251908482019282841067ffffffffffffffff851117611010578385528883527f4910fdfa16fed3260ed0e7147f7cc6da11a60208b5b9406d12a635614ffd91435460ff1615610e7657505050505050610ad7915061150c565b869293949596169085517f52d1902d00000000000000000000000000000000000000000000000000000000815287818a81865afa8a9181610fe1575b50610f1f576084898989519162461bcd60e51b8352820152602e60248201527f45524331393637557067726164653a206e657720696d706c656d656e7461746960448201527f6f6e206973206e6f7420555550530000000000000000000000000000000000006064820152fd5b979192939695949703610f795750610f368261150c565b7fbc7cd75a20ee27fd9adebab32041f755214dbc6bffa90cc0225b39da2e5c2d3b8780a285845115801590610f7257610bd95750505050505080f35b5080610bcb565b6084908585519162461bcd60e51b8352820152602960248201527f45524331393637557067726164653a20756e737570706f727465642070726f7860448201527f6961626c655555494400000000000000000000000000000000000000000000006064820152fd5b9091508881813d8311611009575b610ff98183611397565b810103126106f95751908b610eb2565b503d610fef565b60248960418a7f4e487b7100000000000000000000000000000000000000000000000000000000835252fd5b6064868585519162461bcd60e51b8352820152601e60248201527f4d6f64756c65426173653a2063616c6c6572206973206e6f7420636f726500006044820152fd5b82853461072857816003193601126107285773ffffffffffffffffffffffffffffffffffffffff60209254169051908152f35b8285346107285781600319360112610728576020906003549051908152f35b8285346107285781600319360112610728576020906005549051908152f35b8285346107285781600319360112610728576020905173ffffffffffffffffffffffffffffffffffffffff7f0000000000000000000000000000000000000000000000000000000000000000168152f35b9050833461088857806003193601126108885773ffffffffffffffffffffffffffffffffffffffff91827fe0c154d538f20c8d1aadcd299210daa7f0a434a5bf4a39795668b28b61ec6e96541682519384917f8da5cb5b000000000000000000000000000000000000000000000000000000008352828460209788935afa9182156112e25786926112aa575b50339116036112695735917fffffffff00000000000000000000000000000000000000000000000000000000831690818403610701576112557fc820a66d3bdd50a45cf12cda6dc8ec9e94fb5123edd7da736eea18316f8523a09460e01c7fffffffffffffffffffffffffffffffffffffffffffffffffffffffff000000006007541617600755565b60243590816008558351928352820152a180f35b82606492519162461bcd60e51b8352820152601f60248201527f4d6f64756c65426173653a2063616c6c6572206973206e6f74206f776e6572006044820152fd5b9091508481813d83116112db575b6112c28183611397565b810103126106fd575181811681036106fd5790866111cc565b503d6112b8565b84513d88823e3d90fd5b8390346107285781600319360112610728576020906006548152f35b6004359073ffffffffffffffffffffffffffffffffffffffff8216820361132b57565b600080fd5b6040810190811067ffffffffffffffff82111761134c57604052565b7f4e487b7100000000000000000000000000000000000000000000000000000000600052604160045260246000fd5b6060810190811067ffffffffffffffff82111761134c57604052565b90601f7fffffffffffffffffffffffffffffffffffffffffffffffffffffffffffffffe0910116810190811067ffffffffffffffff82111761134c57604052565b67ffffffffffffffff811161134c57601f017fffffffffffffffffffffffffffffffffffffffffffffffffffffffffffffffe01660200190565b67ffffffffffffffff811161134c5760051b60200190565b1561143157565b608460405162461bcd60e51b815260206004820152602c60248201527f46756e6374696f6e206d7573742062652063616c6c6564207468726f7567682060448201527f64656c656761746563616c6c00000000000000000000000000000000000000006064820152fd5b156114a257565b608460405162461bcd60e51b815260206004820152602c60248201527f46756e6374696f6e206d7573742062652063616c6c6564207468726f7567682060448201527f6163746976652070726f787900000000000000000000000000000000000000006064820152fd5b803b156115745773ffffffffffffffffffffffffffffffffffffffff7f360894a13ba1a3210667c828492db98dca3e2076cc3735a920a3ca505d382bbc91167fffffffffffffffffffffffff0000000000000000000000000000000000000000825416179055565b608460405162461bcd60e51b815260206004820152602d60248201527f455243313936373a206e657720696d706c656d656e746174696f6e206973206e60448201527f6f74206120636f6e7472616374000000000000000000000000000000000000006064820152fd5b9192901561163f57508151156115f2575090565b3b156115fb5790565b606460405162461bcd60e51b815260206004820152601d60248201527f416464726573733a2063616c6c20746f206e6f6e2d636f6e74726163740000006044820152fd5b8251909150156116525750805190602001fd5b6040519062461bcd60e51b825281602080600483015282519283602484015260005b8481106116b5575050507fffffffffffffffffffffffffffffffffffffffffffffffffffffffffffffffe0601f836000604480968601015201168101030190fd5b81810183015186820160440152859350820161167456fea2646970667358221220d7fc3bdde47b35c78fff8b6589df17bf8e4f42e48129827b4d7421c5b5a39d9e64736f6c63430008110033",
  "devdoc": {
    "kind": "dev",
    "methods": {
      "proxiableUUID()": {
        "details": "Implementation of the ERC1822 {proxiableUUID} function. This returns the storage slot used by the implementation. It is used to validate the implementation's compatibility when performing an upgrade. IMPORTANT: A proxy pointing at a proxiable contract should not be considered proxiable itself, because this risks bricking a proxy that upgrades to it, by delegating to itself until out of gas. Thus it is critical that this function revert if invoked through a proxy. This is guaranteed by the `notDelegated` modifier."
      },
      "upgradeTo(address)": {
        "custom:oz-upgrades-unsafe-allow-reachable": "delegatecall",
        "details": "Upgrade the implementation of the proxy to `newImplementation`. Calls {_authorizeUpgrade}. Emits an {Upgraded} event."
      },
      "upgradeToAndCall(address,bytes)": {
        "custom:oz-upgrades-unsafe-allow-reachable": "delegatecall",
        "details": "Upgrade the implementation of the proxy to `newImplementation`, and subsequently execute the function call encoded in `data`. Calls {_authorizeUpgrade}. Emits an {Upgraded} event."
      }
    },
    "version": 1
  },
  "userdoc": {
    "kind": "user",
    "methods": {},
    "version": 1
  },
  "storageLayout": {
    "storage": [
      {
        "astId": 5553,
        "contract": "contracts/deal/ConfigModule.sol:ConfigModule",
        "label": "paymentToken",
        "offset": 0,
        "slot": "0",
        "type": "t_contract(IERC20)2611"
      },
      {
        "astId": 5555,
        "contract": "contracts/deal/ConfigModule.sol:ConfigModule",
        "label": "pricePerEpoch",
        "offset": 0,
        "slot": "1",
        "type": "t_uint256"
      },
      {
        "astId": 5557,
        "contract": "contracts/deal/ConfigModule.sol:ConfigModule",
        "label": "requiredCollateral",
        "offset": 0,
        "slot": "2",
        "type": "t_uint256"
      },
      {
        "astId": 5559,
        "contract": "contracts/deal/ConfigModule.sol:ConfigModule",
        "label": "minWorkers",
        "offset": 0,
        "slot": "3",
        "type": "t_uint256"
      },
      {
        "astId": 5561,
        "contract": "contracts/deal/ConfigModule.sol:ConfigModule",
        "label": "maxWorkersPerProvider",
        "offset": 0,
        "slot": "4",
        "type": "t_uint256"
      },
      {
        "astId": 5563,
        "contract": "contracts/deal/ConfigModule.sol:ConfigModule",
        "label": "targetWorkers",
        "offset": 0,
        "slot": "5",
        "type": "t_uint256"
      },
      {
        "astId": 5565,
        "contract": "contracts/deal/ConfigModule.sol:ConfigModule",
        "label": "creationBlock",
        "offset": 0,
        "slot": "6",
        "type": "t_uint256"
      },
      {
        "astId": 5568,
        "contract": "contracts/deal/ConfigModule.sol:ConfigModule",
        "label": "_appCID",
        "offset": 0,
        "slot": "7",
        "type": "t_struct(CIDV1)7468_storage"
      },
      {
        "astId": 5572,
        "contract": "contracts/deal/ConfigModule.sol:ConfigModule",
        "label": "_effectors",
        "offset": 0,
        "slot": "9",
        "type": "t_array(t_struct(CIDV1)7468_storage)dyn_storage"
      },
      {
        "astId": 7392,
        "contract": "contracts/deal/ConfigModule.sol:ConfigModule",
        "label": "__gap",
        "offset": 0,
        "slot": "10",
        "type": "t_array(t_uint256)50_storage"
      },
      {
        "astId": 503,
        "contract": "contracts/deal/ConfigModule.sol:ConfigModule",
        "label": "_initialized",
        "offset": 0,
        "slot": "60",
        "type": "t_uint8"
      },
      {
        "astId": 506,
        "contract": "contracts/deal/ConfigModule.sol:ConfigModule",
        "label": "_initializing",
        "offset": 1,
        "slot": "60",
        "type": "t_bool"
      }
    ],
    "types": {
      "t_array(t_struct(CIDV1)7468_storage)dyn_storage": {
        "base": "t_struct(CIDV1)7468_storage",
        "encoding": "dynamic_array",
        "label": "struct CIDV1[]",
        "numberOfBytes": "32"
      },
      "t_array(t_uint256)50_storage": {
        "base": "t_uint256",
        "encoding": "inplace",
        "label": "uint256[50]",
        "numberOfBytes": "1600"
      },
      "t_bool": {
        "encoding": "inplace",
        "label": "bool",
        "numberOfBytes": "1"
      },
      "t_bytes32": {
        "encoding": "inplace",
        "label": "bytes32",
        "numberOfBytes": "32"
      },
      "t_bytes4": {
        "encoding": "inplace",
        "label": "bytes4",
        "numberOfBytes": "4"
      },
      "t_contract(IERC20)2611": {
        "encoding": "inplace",
        "label": "contract IERC20",
        "numberOfBytes": "20"
      },
      "t_struct(CIDV1)7468_storage": {
        "encoding": "inplace",
        "label": "struct CIDV1",
        "members": [
          {
            "astId": 7465,
            "contract": "contracts/deal/ConfigModule.sol:ConfigModule",
            "label": "prefixes",
            "offset": 0,
            "slot": "0",
            "type": "t_bytes4"
          },
          {
            "astId": 7467,
            "contract": "contracts/deal/ConfigModule.sol:ConfigModule",
            "label": "hash",
            "offset": 0,
            "slot": "1",
            "type": "t_bytes32"
          }
        ],
        "numberOfBytes": "64"
      },
      "t_uint256": {
        "encoding": "inplace",
        "label": "uint256",
        "numberOfBytes": "32"
      },
      "t_uint8": {
        "encoding": "inplace",
        "label": "uint8",
        "numberOfBytes": "1"
      }
    }
  }
}