{
  "address": "0xea6777e8c011E7968605fd012A9Dd49401ec386C",
  "abi": [
    {
      "inputs": [],
      "stateMutability": "nonpayable",
      "type": "constructor"
    },
    {
      "anonymous": false,
      "inputs": [
        {
          "indexed": false,
          "internalType": "address",
          "name": "previousAdmin",
          "type": "address"
        },
        {
          "indexed": false,
          "internalType": "address",
          "name": "newAdmin",
          "type": "address"
        }
      ],
      "name": "AdminChanged",
      "type": "event"
    },
    {
      "anonymous": false,
      "inputs": [
        {
          "indexed": true,
          "internalType": "address",
          "name": "beacon",
          "type": "address"
        }
      ],
      "name": "BeaconUpgraded",
      "type": "event"
    },
    {
      "anonymous": false,
      "inputs": [
        {
          "indexed": false,
          "internalType": "uint8",
          "name": "version",
          "type": "uint8"
        }
      ],
      "name": "Initialized",
      "type": "event"
    },
    {
      "anonymous": false,
      "inputs": [
        {
          "indexed": true,
          "internalType": "address",
          "name": "previousOwner",
          "type": "address"
        },
        {
          "indexed": true,
          "internalType": "address",
          "name": "newOwner",
          "type": "address"
        }
      ],
      "name": "OwnershipTransferred",
      "type": "event"
    },
    {
      "anonymous": false,
      "inputs": [
        {
          "indexed": true,
          "internalType": "address",
          "name": "implementation",
          "type": "address"
        }
      ],
      "name": "Upgraded",
      "type": "event"
    },
    {
      "inputs": [],
      "name": "epochManager",
      "outputs": [
        {
          "internalType": "contract IEpochManager",
          "name": "",
          "type": "address"
        }
      ],
      "stateMutability": "view",
      "type": "function"
    },
    {
      "inputs": [],
      "name": "factory",
      "outputs": [
        {
          "internalType": "contract IFactory",
          "name": "",
          "type": "address"
        }
      ],
      "stateMutability": "view",
      "type": "function"
    },
    {
      "inputs": [],
      "name": "fluenceToken",
      "outputs": [
        {
          "internalType": "contract IERC20",
          "name": "",
          "type": "address"
        }
      ],
      "stateMutability": "view",
      "type": "function"
    },
    {
      "inputs": [
        {
          "internalType": "contract IERC20",
          "name": "fluenceToken_",
          "type": "address"
        },
        {
          "internalType": "uint256",
          "name": "withdrawTimeout_",
          "type": "uint256"
        },
        {
          "internalType": "contract IEpochManager",
          "name": "epochManager_",
          "type": "address"
        }
      ],
      "name": "initialize",
      "outputs": [],
      "stateMutability": "nonpayable",
      "type": "function"
    },
    {
      "inputs": [],
      "name": "matcher",
      "outputs": [
        {
          "internalType": "contract IMatcher",
          "name": "",
          "type": "address"
        }
      ],
      "stateMutability": "view",
      "type": "function"
    },
    {
      "inputs": [],
      "name": "owner",
      "outputs": [
        {
          "internalType": "address",
          "name": "",
          "type": "address"
        }
      ],
      "stateMutability": "view",
      "type": "function"
    },
    {
      "inputs": [],
      "name": "proxiableUUID",
      "outputs": [
        {
          "internalType": "bytes32",
          "name": "",
          "type": "bytes32"
        }
      ],
      "stateMutability": "view",
      "type": "function"
    },
    {
      "inputs": [],
      "name": "renounceOwnership",
      "outputs": [],
      "stateMutability": "nonpayable",
      "type": "function"
    },
    {
      "inputs": [
        {
          "internalType": "contract IEpochManager",
          "name": "epochManager_",
          "type": "address"
        }
      ],
      "name": "setEpochManager",
      "outputs": [],
      "stateMutability": "nonpayable",
      "type": "function"
    },
    {
      "inputs": [
        {
          "internalType": "contract IFactory",
          "name": "factory_",
          "type": "address"
        }
      ],
      "name": "setFactory",
      "outputs": [],
      "stateMutability": "nonpayable",
      "type": "function"
    },
    {
      "inputs": [
        {
          "internalType": "contract IERC20",
          "name": "fluenceToken_",
          "type": "address"
        }
      ],
      "name": "setFluenceToken",
      "outputs": [],
      "stateMutability": "nonpayable",
      "type": "function"
    },
    {
      "inputs": [
        {
          "internalType": "contract IMatcher",
          "name": "matcher_",
          "type": "address"
        }
      ],
      "name": "setMatcher",
      "outputs": [],
      "stateMutability": "nonpayable",
      "type": "function"
    },
    {
      "inputs": [
        {
          "internalType": "uint256",
          "name": "withdrawTimeout_",
          "type": "uint256"
        }
      ],
      "name": "setWithdrawTimeout",
      "outputs": [],
      "stateMutability": "nonpayable",
      "type": "function"
    },
    {
      "inputs": [
        {
          "internalType": "address",
          "name": "newOwner",
          "type": "address"
        }
      ],
      "name": "transferOwnership",
      "outputs": [],
      "stateMutability": "nonpayable",
      "type": "function"
    },
    {
      "inputs": [
        {
          "internalType": "address",
          "name": "newImplementation",
          "type": "address"
        }
      ],
      "name": "upgradeTo",
      "outputs": [],
      "stateMutability": "nonpayable",
      "type": "function"
    },
    {
      "inputs": [
        {
          "internalType": "address",
          "name": "newImplementation",
          "type": "address"
        },
        {
          "internalType": "bytes",
          "name": "data",
          "type": "bytes"
        }
      ],
      "name": "upgradeToAndCall",
      "outputs": [],
      "stateMutability": "payable",
      "type": "function"
    },
    {
      "inputs": [],
      "name": "withdrawTimeout",
      "outputs": [
        {
          "internalType": "uint256",
          "name": "",
          "type": "uint256"
        }
      ],
      "stateMutability": "view",
      "type": "function"
    }
  ],
  "transactionHash": "0x5b04050833d5010c606c27b7fc76b34dfe0085617962f1d23ef0ce73716cbd9f",
  "args": [],
  "numDeployments": 1,
  "solcInputHash": "09b009adaa7c41f548683d650f79aaa9",
  "bytecode": "0x60a080604052346100dc57306080526000549060ff8260081c1661008a575060ff8082160361004f575b6040516112a990816100e28239608051818181610725015281816108640152610b810152f35b60ff90811916176000557f7f26b83ff96e1f2b6a682f133852f6798a09c465da95921460cefb3847402498602060405160ff8152a138610029565b62461bcd60e51b815260206004820152602760248201527f496e697469616c697a61626c653a20636f6e747261637420697320696e697469604482015266616c697a696e6760c81b6064820152608490fd5b600080fdfe6040608081526004908136101561001557600080fd5b600091823560e01c80633659cfe614610b4c5780634f1ef286146107dc57806352d1902d146106fb57806353d6e100146106975780635bb4780814610631578063715018a6146105b1578063729414601461058f5780637e7e66b21461055a5780638da5cb5b14610525578063963ddbe9146104bf5780639c15d1a2146104a0578063ac027f971461046b578063c350a1b514610269578063c45a015514610234578063d4d59edb146101cd578063e2d2bfe3146101945763f2fde38b146100dc57600080fd5b34610190576020600319360112610190576100f5610da0565b916100fe610e8e565b73ffffffffffffffffffffffffffffffffffffffff831615610127578361012484610ef3565b80f35b906020608492519162461bcd60e51b8352820152602660248201527f4f776e61626c653a206e6577206f776e657220697320746865207a65726f206160448201527f64647265737300000000000000000000000000000000000000000000000000006064820152fd5b8280fd5b5050346101c957816003193601126101c95760209073ffffffffffffffffffffffffffffffffffffffff606754169051908152f35b5080fd5b83346102315760206003193601126102315773ffffffffffffffffffffffffffffffffffffffff6101fc610da0565b610204610e8e565b167fffffffffffffffffffffffff0000000000000000000000000000000000000000606754161760675580f35b80fd5b5050346101c957816003193601126101c95760209073ffffffffffffffffffffffffffffffffffffffff606954169051908152f35b503461019057606060031936011261019057610283610da0565b6044359073ffffffffffffffffffffffffffffffffffffffff80831680930361046757855460ff8160081c16159485809661045a575b8015610443575b156103da57508460017fffffffffffffffffffffffffffffffffffffffffffffffffffffffffffffff0083161788556103ac575b507fffffffffffffffffffffffff00000000000000000000000000000000000000009116816065541617606555602435606655606754161760675561034860ff845460081c1661034381611202565b611202565b61035133610ef3565b610359575080f35b60207f7f26b83ff96e1f2b6a682f133852f6798a09c465da95921460cefb3847402498917fffffffffffffffffffffffffffffffffffffffffffffffffffffffffffff00ff84541684555160018152a180f35b7fffffffffffffffffffffffffffffffffffffffffffffffffffffffffffff000016610101178655386102f4565b608490602088519162461bcd60e51b8352820152602e60248201527f496e697469616c697a61626c653a20636f6e747261637420697320616c72656160448201527f647920696e697469616c697a65640000000000000000000000000000000000006064820152fd5b50303b1580156102c05750600160ff8316146102c0565b50600160ff8316106102b9565b8580fd5b5050346101c957816003193601126101c95760209073ffffffffffffffffffffffffffffffffffffffff606554169051908152f35b5050346101c957816003193601126101c9576020906066549051908152f35b8382346101c95760206003193601126101c9573573ffffffffffffffffffffffffffffffffffffffff81168091036101c9576104f9610e8e565b7fffffffffffffffffffffffff0000000000000000000000000000000000000000606854161760685580f35b5050346101c957816003193601126101c95760209073ffffffffffffffffffffffffffffffffffffffff603354169051908152f35b5050346101c957816003193601126101c95760209073ffffffffffffffffffffffffffffffffffffffff606854169051908152f35b8382346101c95760206003193601126101c9576105aa610e8e565b3560665580f35b83346102315780600319360112610231576105ca610e8e565b8073ffffffffffffffffffffffffffffffffffffffff6033547fffffffffffffffffffffffff00000000000000000000000000000000000000008116603355167f8be0079c531659141344cd1fd0a4f28419497f9722a3daafe3b4186f6b6457e08280a380f35b8382346101c95760206003193601126101c9573573ffffffffffffffffffffffffffffffffffffffff81168091036101c95761066b610e8e565b7fffffffffffffffffffffffff0000000000000000000000000000000000000000606954161760695580f35b83346102315760206003193601126102315773ffffffffffffffffffffffffffffffffffffffff6106c6610da0565b6106ce610e8e565b167fffffffffffffffffffffffff0000000000000000000000000000000000000000606554161760655580f35b5082346102315780600319360112610231575073ffffffffffffffffffffffffffffffffffffffff7f000000000000000000000000000000000000000000000000000000000000000016300361077457602082517f360894a13ba1a3210667c828492db98dca3e2076cc3735a920a3ca505d382bbc8152f35b6020608492519162461bcd60e51b8352820152603860248201527f555550535570677261646561626c653a206d757374206e6f742062652063616c60448201527f6c6564207468726f7567682064656c656761746563616c6c00000000000000006064820152fd5b509080600319360112610190576107f1610da0565b906024359067ffffffffffffffff8211610b485736602383011215610b48578184013561081d81610e54565b61082983519182610e13565b818152866020948583019336602482840101116101905780602488930186378301015273ffffffffffffffffffffffffffffffffffffffff807f0000000000000000000000000000000000000000000000000000000000000000169061089182301415610f60565b6108c07f360894a13ba1a3210667c828492db98dca3e2076cc3735a920a3ca505d382bbc928284541614610fd1565b6108c8610e8e565b7f4910fdfa16fed3260ed0e7147f7cc6da11a60208b5b9406d12a635614ffd91435460ff1615610902575050505050506101249150611042565b869293949596169085517f52d1902d00000000000000000000000000000000000000000000000000000000815287818a81865afa8a9181610b15575b506109ab576084898989519162461bcd60e51b8352820152602e60248201527f45524331393637557067726164653a206e657720696d706c656d656e7461746960448201527f6f6e206973206e6f7420555550530000000000000000000000000000000000006064820152fd5b979192939695949703610aad57506109c282611042565b7fbc7cd75a20ee27fd9adebab32041f755214dbc6bffa90cc0225b39da2e5c2d3b8780a285845115801590610aa5575b610a00575b50505050505080f35b80610a8f96845196610a1188610dc8565b602788527f416464726573733a206c6f772d6c6576656c2064656c65676174652063616c6c878901527f206661696c656400000000000000000000000000000000000000000000000000868901525190845af4913d15610a9b573d610a81610a7882610e54565b92519283610e13565b81528681943d92013e611114565b503880808080856109f7565b5060609250611114565b5060016109f2565b6084908585519162461bcd60e51b8352820152602960248201527f45524331393637557067726164653a20756e737570706f727465642070726f7860448201527f6961626c655555494400000000000000000000000000000000000000000000006064820152fd5b9091508881813d8311610b41575b610b2d8183610e13565b81010312610b3d5751903861093e565b8a80fd5b503d610b23565b8480fd5b50903461019057602080600319360112610d9c57610b68610da0565b9173ffffffffffffffffffffffffffffffffffffffff807f000000000000000000000000000000000000000000000000000000000000000016610bad81301415610f60565b610bdc7f360894a13ba1a3210667c828492db98dca3e2076cc3735a920a3ca505d382bbc918383541614610fd1565b610be4610e8e565b8251908482019282841067ffffffffffffffff851117610d70578385528883527f4910fdfa16fed3260ed0e7147f7cc6da11a60208b5b9406d12a635614ffd91435460ff1615610c3e575050505050506101249150611042565b869293949596169085517f52d1902d00000000000000000000000000000000000000000000000000000000815287818a81865afa8a9181610d41575b50610ce7576084898989519162461bcd60e51b8352820152602e60248201527f45524331393637557067726164653a206e657720696d706c656d656e7461746960448201527f6f6e206973206e6f7420555550530000000000000000000000000000000000006064820152fd5b979192939695949703610aad5750610cfe82611042565b7fbc7cd75a20ee27fd9adebab32041f755214dbc6bffa90cc0225b39da2e5c2d3b8780a285845115801590610d3a57610a005750505050505080f35b50806109f2565b9091508881813d8311610d69575b610d598183610e13565b81010312610b3d57519038610c7a565b503d610d4f565b60248960418a7f4e487b7100000000000000000000000000000000000000000000000000000000835252fd5b8380fd5b6004359073ffffffffffffffffffffffffffffffffffffffff82168203610dc357565b600080fd5b6060810190811067ffffffffffffffff821117610de457604052565b7f4e487b7100000000000000000000000000000000000000000000000000000000600052604160045260246000fd5b90601f7fffffffffffffffffffffffffffffffffffffffffffffffffffffffffffffffe0910116810190811067ffffffffffffffff821117610de457604052565b67ffffffffffffffff8111610de457601f017fffffffffffffffffffffffffffffffffffffffffffffffffffffffffffffffe01660200190565b73ffffffffffffffffffffffffffffffffffffffff603354163303610eaf57565b606460405162461bcd60e51b815260206004820152602060248201527f4f776e61626c653a2063616c6c6572206973206e6f7420746865206f776e65726044820152fd5b6033549073ffffffffffffffffffffffffffffffffffffffff80911691827fffffffffffffffffffffffff0000000000000000000000000000000000000000821617603355167f8be0079c531659141344cd1fd0a4f28419497f9722a3daafe3b4186f6b6457e0600080a3565b15610f6757565b608460405162461bcd60e51b815260206004820152602c60248201527f46756e6374696f6e206d7573742062652063616c6c6564207468726f7567682060448201527f64656c656761746563616c6c00000000000000000000000000000000000000006064820152fd5b15610fd857565b608460405162461bcd60e51b815260206004820152602c60248201527f46756e6374696f6e206d7573742062652063616c6c6564207468726f7567682060448201527f6163746976652070726f787900000000000000000000000000000000000000006064820152fd5b803b156110aa5773ffffffffffffffffffffffffffffffffffffffff7f360894a13ba1a3210667c828492db98dca3e2076cc3735a920a3ca505d382bbc91167fffffffffffffffffffffffff0000000000000000000000000000000000000000825416179055565b608460405162461bcd60e51b815260206004820152602d60248201527f455243313936373a206e657720696d706c656d656e746174696f6e206973206e60448201527f6f74206120636f6e7472616374000000000000000000000000000000000000006064820152fd5b919290156111755750815115611128575090565b3b156111315790565b606460405162461bcd60e51b815260206004820152601d60248201527f416464726573733a2063616c6c20746f206e6f6e2d636f6e74726163740000006044820152fd5b8251909150156111885750805190602001fd5b6040519062461bcd60e51b825281602080600483015282519283602484015260005b8481106111eb575050507fffffffffffffffffffffffffffffffffffffffffffffffffffffffffffffffe0601f836000604480968601015201168101030190fd5b8181018301518682016044015285935082016111aa565b1561120957565b608460405162461bcd60e51b815260206004820152602b60248201527f496e697469616c697a61626c653a20636f6e7472616374206973206e6f74206960448201527f6e697469616c697a696e670000000000000000000000000000000000000000006064820152fdfea26469706673582212209df9b2600f4eb1e372ccd66cf117799e4f034892db0335f0c8bb5ce46cd0c6ba64736f6c63430008110033",
  "devdoc": {
    "kind": "dev",
    "methods": {
      "proxiableUUID()": {
        "details": "Implementation of the ERC1822 {proxiableUUID} function. This returns the storage slot used by the implementation. It is used to validate the implementation's compatibility when performing an upgrade. IMPORTANT: A proxy pointing at a proxiable contract should not be considered proxiable itself, because this risks bricking a proxy that upgrades to it, by delegating to itself until out of gas. Thus it is critical that this function revert if invoked through a proxy. This is guaranteed by the `notDelegated` modifier."
      },
      "renounceOwnership()": {
        "details": "Leaves the contract without owner. It will not be possible to call `onlyOwner` functions. Can only be called by the current owner. NOTE: Renouncing ownership will leave the contract without an owner, thereby disabling any functionality that is only available to the owner."
      },
      "transferOwnership(address)": {
        "details": "Transfers ownership of the contract to a new account (`newOwner`). Can only be called by the current owner."
      },
      "upgradeTo(address)": {
        "custom:oz-upgrades-unsafe-allow-reachable": "delegatecall",
        "details": "Upgrade the implementation of the proxy to `newImplementation`. Calls {_authorizeUpgrade}. Emits an {Upgraded} event."
      },
      "upgradeToAndCall(address,bytes)": {
        "custom:oz-upgrades-unsafe-allow-reachable": "delegatecall",
        "details": "Upgrade the implementation of the proxy to `newImplementation`, and subsequently execute the function call encoded in `data`. Calls {_authorizeUpgrade}. Emits an {Upgraded} event."
      }
    },
    "version": 1
  },
  "userdoc": {
    "kind": "user",
    "methods": {},
    "version": 1
  },
  "storageLayout": {
    "storage": [
      {
        "astId": 503,
        "contract": "contracts/global/GlobalConfig.sol:GlobalConfig",
        "label": "_initialized",
        "offset": 0,
        "slot": "0",
        "type": "t_uint8"
      },
      {
        "astId": 506,
        "contract": "contracts/global/GlobalConfig.sol:GlobalConfig",
        "label": "_initializing",
        "offset": 1,
        "slot": "0",
        "type": "t_bool"
      },
      {
        "astId": 1172,
        "contract": "contracts/global/GlobalConfig.sol:GlobalConfig",
        "label": "__gap",
        "offset": 0,
        "slot": "1",
        "type": "t_array(t_uint256)50_storage"
      },
      {
        "astId": 10,
        "contract": "contracts/global/GlobalConfig.sol:GlobalConfig",
        "label": "_owner",
        "offset": 0,
        "slot": "51",
        "type": "t_address"
      },
      {
        "astId": 130,
        "contract": "contracts/global/GlobalConfig.sol:GlobalConfig",
        "label": "__gap",
        "offset": 0,
        "slot": "52",
        "type": "t_array(t_uint256)49_storage"
      },
      {
        "astId": 8552,
        "contract": "contracts/global/GlobalConfig.sol:GlobalConfig",
        "label": "fluenceToken",
        "offset": 0,
        "slot": "101",
        "type": "t_contract(IERC20)2611"
      },
      {
        "astId": 8554,
        "contract": "contracts/global/GlobalConfig.sol:GlobalConfig",
        "label": "withdrawTimeout",
        "offset": 0,
        "slot": "102",
        "type": "t_uint256"
      },
      {
        "astId": 8557,
        "contract": "contracts/global/GlobalConfig.sol:GlobalConfig",
        "label": "epochManager",
        "offset": 0,
        "slot": "103",
        "type": "t_contract(IEpochManager)10043"
      },
      {
        "astId": 8560,
        "contract": "contracts/global/GlobalConfig.sol:GlobalConfig",
        "label": "matcher",
        "offset": 0,
        "slot": "104",
        "type": "t_contract(IMatcher)10131"
      },
      {
        "astId": 8563,
        "contract": "contracts/global/GlobalConfig.sol:GlobalConfig",
        "label": "factory",
        "offset": 0,
        "slot": "105",
        "type": "t_contract(IFactory)10070"
      },
      {
        "astId": 485,
        "contract": "contracts/global/GlobalConfig.sol:GlobalConfig",
        "label": "__gap",
        "offset": 0,
        "slot": "106",
        "type": "t_array(t_uint256)50_storage"
      },
      {
        "astId": 800,
        "contract": "contracts/global/GlobalConfig.sol:GlobalConfig",
        "label": "__gap",
        "offset": 0,
        "slot": "156",
        "type": "t_array(t_uint256)50_storage"
      }
    ],
    "types": {
      "t_address": {
        "encoding": "inplace",
        "label": "address",
        "numberOfBytes": "20"
      },
      "t_array(t_uint256)49_storage": {
        "base": "t_uint256",
        "encoding": "inplace",
        "label": "uint256[49]",
        "numberOfBytes": "1568"
      },
      "t_array(t_uint256)50_storage": {
        "base": "t_uint256",
        "encoding": "inplace",
        "label": "uint256[50]",
        "numberOfBytes": "1600"
      },
      "t_bool": {
        "encoding": "inplace",
        "label": "bool",
        "numberOfBytes": "1"
      },
      "t_contract(IERC20)2611": {
        "encoding": "inplace",
        "label": "contract IERC20",
        "numberOfBytes": "20"
      },
      "t_contract(IEpochManager)10043": {
        "encoding": "inplace",
        "label": "contract IEpochManager",
        "numberOfBytes": "20"
      },
      "t_contract(IFactory)10070": {
        "encoding": "inplace",
        "label": "contract IFactory",
        "numberOfBytes": "20"
      },
      "t_contract(IMatcher)10131": {
        "encoding": "inplace",
        "label": "contract IMatcher",
        "numberOfBytes": "20"
      },
      "t_uint256": {
        "encoding": "inplace",
        "label": "uint256",
        "numberOfBytes": "32"
      },
      "t_uint8": {
        "encoding": "inplace",
        "label": "uint8",
        "numberOfBytes": "1"
      }
    }
  }
}