{
  "address": "0x0f68c702dC151D07038fA40ab3Ed1f9b8BAC2981",
  "abi": [
    {
      "inputs": [
        {
          "internalType": "contract IGlobalConfig",
          "name": "globalConfig_",
          "type": "address"
        }
      ],
      "stateMutability": "nonpayable",
      "type": "constructor"
    },
    {
      "anonymous": false,
      "inputs": [
        {
          "indexed": false,
          "internalType": "address",
          "name": "previousAdmin",
          "type": "address"
        },
        {
          "indexed": false,
          "internalType": "address",
          "name": "newAdmin",
          "type": "address"
        }
      ],
      "name": "AdminChanged",
      "type": "event"
    },
    {
      "anonymous": false,
      "inputs": [
        {
          "indexed": true,
          "internalType": "address",
          "name": "beacon",
          "type": "address"
        }
      ],
      "name": "BeaconUpgraded",
      "type": "event"
    },
    {
      "anonymous": false,
      "inputs": [
        {
          "indexed": true,
          "internalType": "bytes32",
          "name": "peerId",
          "type": "bytes32"
        },
        {
          "indexed": false,
          "internalType": "address",
          "name": "deal",
          "type": "address"
        },
        {
          "indexed": false,
          "internalType": "bytes32[]",
          "name": "patIds",
          "type": "bytes32[]"
        },
        {
          "indexed": false,
          "internalType": "uint256",
          "name": "dealCreationBlock",
          "type": "uint256"
        },
        {
          "components": [
            {
              "internalType": "bytes4",
              "name": "prefixes",
              "type": "bytes4"
            },
            {
              "internalType": "bytes32",
              "name": "hash",
              "type": "bytes32"
            }
          ],
          "indexed": false,
          "internalType": "struct CIDV1",
          "name": "appCID",
          "type": "tuple"
        }
      ],
      "name": "ComputePeerMatched",
      "type": "event"
    },
    {
      "anonymous": false,
      "inputs": [
        {
          "indexed": true,
          "internalType": "address",
          "name": "computeProvider",
          "type": "address"
        },
        {
          "indexed": false,
          "internalType": "address",
          "name": "deal",
          "type": "address"
        },
        {
          "indexed": false,
          "internalType": "uint256",
          "name": "dealCreationBlock",
          "type": "uint256"
        },
        {
          "components": [
            {
              "internalType": "bytes4",
              "name": "prefixes",
              "type": "bytes4"
            },
            {
              "internalType": "bytes32",
              "name": "hash",
              "type": "bytes32"
            }
          ],
          "indexed": false,
          "internalType": "struct CIDV1",
          "name": "appCID",
          "type": "tuple"
        }
      ],
      "name": "ComputeProviderMatched",
      "type": "event"
    },
    {
      "anonymous": false,
      "inputs": [
        {
          "indexed": false,
          "internalType": "address",
          "name": "computeProvider",
          "type": "address"
        },
        {
          "indexed": false,
          "internalType": "uint256",
          "name": "minPricePerEpoch",
          "type": "uint256"
        },
        {
          "indexed": false,
          "internalType": "uint256",
          "name": "maxCollateral",
          "type": "uint256"
        },
        {
          "indexed": false,
          "internalType": "contract IERC20",
          "name": "paymentToken",
          "type": "address"
        },
        {
          "components": [
            {
              "internalType": "bytes4",
              "name": "prefixes",
              "type": "bytes4"
            },
            {
              "internalType": "bytes32",
              "name": "hash",
              "type": "bytes32"
            }
          ],
          "indexed": false,
          "internalType": "struct CIDV1[]",
          "name": "effectors",
          "type": "tuple[]"
        }
      ],
      "name": "ComputeProviderRegistered",
      "type": "event"
    },
    {
      "anonymous": false,
      "inputs": [
        {
          "indexed": false,
          "internalType": "uint8",
          "name": "version",
          "type": "uint8"
        }
      ],
      "name": "Initialized",
      "type": "event"
    },
    {
      "anonymous": false,
      "inputs": [
        {
          "indexed": true,
          "internalType": "address",
          "name": "implementation",
          "type": "address"
        }
      ],
      "name": "Upgraded",
      "type": "event"
    },
    {
      "anonymous": false,
      "inputs": [
        {
          "indexed": false,
          "internalType": "bytes32",
          "name": "peerId",
          "type": "bytes32"
        },
        {
          "indexed": false,
          "internalType": "uint256",
          "name": "newWorkerSlots",
          "type": "uint256"
        }
      ],
      "name": "WorkersSlotsChanged",
      "type": "event"
    },
    {
      "inputs": [
        {
          "components": [
            {
              "internalType": "bytes4",
              "name": "prefixes",
              "type": "bytes4"
            },
            {
              "internalType": "bytes32",
              "name": "hash",
              "type": "bytes32"
            }
          ],
          "internalType": "struct CIDV1",
          "name": "effector",
          "type": "tuple"
        }
      ],
      "name": "addEffector",
      "outputs": [],
      "stateMutability": "nonpayable",
      "type": "function"
    },
    {
      "inputs": [
        {
          "internalType": "bytes32",
          "name": "peerId",
          "type": "bytes32"
        },
        {
          "internalType": "uint256",
          "name": "workerSlots",
          "type": "uint256"
        }
      ],
      "name": "addWorkersSlots",
      "outputs": [],
      "stateMutability": "nonpayable",
      "type": "function"
    },
    {
      "inputs": [
        {
          "internalType": "uint256",
          "name": "newMaxCollateral",
          "type": "uint256"
        }
      ],
      "name": "changeMaxCollateral",
      "outputs": [],
      "stateMutability": "nonpayable",
      "type": "function"
    },
    {
      "inputs": [
        {
          "internalType": "uint256",
          "name": "newMinPricePerEpoch",
          "type": "uint256"
        }
      ],
      "name": "changeMinPricePerEpoch",
      "outputs": [],
      "stateMutability": "nonpayable",
      "type": "function"
    },
    {
      "inputs": [
        {
          "internalType": "contract IERC20",
          "name": "newPaymentToken",
          "type": "address"
        },
        {
          "internalType": "uint256",
          "name": "newMaxCollateral",
          "type": "uint256"
        }
      ],
      "name": "changePaymentToken",
      "outputs": [],
      "stateMutability": "nonpayable",
      "type": "function"
    },
    {
      "inputs": [
        {
          "internalType": "bytes32",
          "name": "",
          "type": "bytes32"
        }
      ],
      "name": "computePeerByPeerIdHash",
      "outputs": [
        {
          "internalType": "bytes32",
          "name": "peerId",
          "type": "bytes32"
        },
        {
          "internalType": "uint256",
          "name": "freeWorkerSlots",
          "type": "uint256"
        }
      ],
      "stateMutability": "view",
      "type": "function"
    },
    {
      "inputs": [
        {
          "internalType": "address",
          "name": "",
          "type": "address"
        }
      ],
      "name": "computeProviderByOwner",
      "outputs": [
        {
          "internalType": "uint256",
          "name": "minPricePerEpoch",
          "type": "uint256"
        },
        {
          "internalType": "uint256",
          "name": "maxCollateral",
          "type": "uint256"
        },
        {
          "internalType": "contract IERC20",
          "name": "paymentToken",
          "type": "address"
        },
        {
          "internalType": "uint256",
          "name": "totalFreeWorkerSlots",
          "type": "uint256"
        }
      ],
      "stateMutability": "view",
      "type": "function"
    },
    {
      "inputs": [
        {
          "internalType": "address",
          "name": "computeProvider",
          "type": "address"
        },
        {
          "internalType": "bytes32",
          "name": "peerId",
          "type": "bytes32"
        }
      ],
      "name": "getFreeWorkersSolts",
      "outputs": [
        {
          "internalType": "uint256",
          "name": "",
          "type": "uint256"
        }
      ],
      "stateMutability": "view",
      "type": "function"
    },
    {
      "inputs": [],
      "name": "globalConfig",
      "outputs": [
        {
          "internalType": "contract IGlobalConfig",
          "name": "",
          "type": "address"
        }
      ],
      "stateMutability": "view",
      "type": "function"
    },
    {
      "inputs": [
        {
          "internalType": "contract ICore",
          "name": "deal",
          "type": "address"
        }
      ],
      "name": "matchWithDeal",
      "outputs": [],
      "stateMutability": "nonpayable",
      "type": "function"
    },
    {
      "inputs": [],
      "name": "proxiableUUID",
      "outputs": [
        {
          "internalType": "bytes32",
          "name": "",
          "type": "bytes32"
        }
      ],
      "stateMutability": "view",
      "type": "function"
    },
    {
      "inputs": [
        {
          "internalType": "uint256",
          "name": "minPricePerEpoch",
          "type": "uint256"
        },
        {
          "internalType": "uint256",
          "name": "maxCollateral",
          "type": "uint256"
        },
        {
          "internalType": "contract IERC20",
          "name": "paymentToken",
          "type": "address"
        },
        {
          "components": [
            {
              "internalType": "bytes4",
              "name": "prefixes",
              "type": "bytes4"
            },
            {
              "internalType": "bytes32",
              "name": "hash",
              "type": "bytes32"
            }
          ],
          "internalType": "struct CIDV1[]",
          "name": "effectors",
          "type": "tuple[]"
        }
      ],
      "name": "registerComputeProvider",
      "outputs": [],
      "stateMutability": "nonpayable",
      "type": "function"
    },
    {
      "inputs": [],
      "name": "removeComputeProvider",
      "outputs": [],
      "stateMutability": "nonpayable",
      "type": "function"
    },
    {
      "inputs": [
        {
          "components": [
            {
              "internalType": "bytes4",
              "name": "prefixes",
              "type": "bytes4"
            },
            {
              "internalType": "bytes32",
              "name": "hash",
              "type": "bytes32"
            }
          ],
          "internalType": "struct CIDV1",
          "name": "effector",
          "type": "tuple"
        }
      ],
      "name": "removeEffector",
      "outputs": [],
      "stateMutability": "nonpayable",
      "type": "function"
    },
    {
      "inputs": [
        {
          "internalType": "address",
          "name": "owner",
          "type": "address"
        },
        {
          "internalType": "bool",
          "name": "hasAccess",
          "type": "bool"
        }
      ],
      "name": "setWhiteList",
      "outputs": [],
      "stateMutability": "nonpayable",
      "type": "function"
    },
    {
      "inputs": [
        {
          "internalType": "bytes32",
          "name": "peerId",
          "type": "bytes32"
        },
        {
          "internalType": "uint256",
          "name": "workerSlots",
          "type": "uint256"
        }
      ],
      "name": "subWorkersSlots",
      "outputs": [],
      "stateMutability": "nonpayable",
      "type": "function"
    },
    {
      "inputs": [
        {
          "internalType": "address",
          "name": "newImplementation",
          "type": "address"
        }
      ],
      "name": "upgradeTo",
      "outputs": [],
      "stateMutability": "nonpayable",
      "type": "function"
    },
    {
      "inputs": [
        {
          "internalType": "address",
          "name": "newImplementation",
          "type": "address"
        },
        {
          "internalType": "bytes",
          "name": "data",
          "type": "bytes"
        }
      ],
      "name": "upgradeToAndCall",
      "outputs": [],
      "stateMutability": "payable",
      "type": "function"
    },
    {
      "inputs": [
        {
          "internalType": "address",
          "name": "",
          "type": "address"
        }
      ],
      "name": "whitelist",
      "outputs": [
        {
          "internalType": "bool",
          "name": "",
          "type": "bool"
        }
      ],
      "stateMutability": "view",
      "type": "function"
    }
  ],
  "transactionHash": "0xc90578861e20cd7013a6411898e95faedbb0715dfa4c88135da8e6efa0abece8",
  "args": [
    "0x79EeA23C90e7D142D903833AB6F835aC06cCbAce"
  ],
  "numDeployments": 1,
  "solcInputHash": "09b009adaa7c41f548683d650f79aaa9",
  "bytecode": "0x60c034620000b557601f620034a838819003918201601f19168301916001600160401b03831184841017620000ba57808492602094604052833981010312620000b557516001600160a01b0381168103620000b5576080523060a0526040516133d79081620000d182396080518181816102740152818161076501528181610c98015281816112c00152818161139d01528181611f5801526122ca015260a051818181611d8901528181611ece01526122400152f35b600080fd5b634e487b7160e01b600052604160045260246000fdfe6101a0604052600436101561001357600080fd5b60003560e01c80633659cfe61461220d5780634f1ef28614611e4357806352d1902d14611d6157806355eb409a14611a5d578063571458481461194757806359a6bf5f146117e05780635a733e9b146117745780635c768997146115e35780636868bda3146115c75780636b50b7a71461158f57806373e8f7e9146114825780637f178450146114575780638d14e127146113305780639b19251a146112e4578063a7c1abe014611293578063b63af4b114611160578063c6c44ed1146101fc578063c94be829146101c75763f6ee7139146100ee57600080fd5b346101c2577f1eaffb28f02e49aa8dce586ac73116a047f91a8116d887ed4e72496a2f10283f604061011f36612599565b8160005260206001815261019d61016e610140846001886000200154612c96565b93856000526001845284600188600020015584156101a8575b33600052600084526001876000200154612adb565b336000526000835273ffffffffffffffffffffffffffffffffffffffff60028760002001541633903090612aee565b8351928352820152a1005b33600052600584526101bd8688600020613243565b610159565b600080fd5b346101c25760206003193601126101c25760043560005260016020526040806000206001815491015482519182526020820152f35b346101c25760206003193601126101c257600435806101605273ffffffffffffffffffffffffffffffffffffffff8116036101c2576040517fc45a015500000000000000000000000000000000000000000000000000000000815260208160048173ffffffffffffffffffffffffffffffffffffffff7f0000000000000000000000000000000000000000000000000000000000000000165afa90811561091457600091611110575b50602073ffffffffffffffffffffffffffffffffffffffff916024604051809481937f4db44e640000000000000000000000000000000000000000000000000000000083528161016051166004840152165afa908115610914576000916110f1575b50156110ad576040517f68f1e99a00000000000000000000000000000000000000000000000000000000815260208160048173ffffffffffffffffffffffffffffffffffffffff61016051165afa9081156109145760009161105e575b5073ffffffffffffffffffffffffffffffffffffffff8116604051917fb53105a3000000000000000000000000000000000000000000000000000000008352602083600481855afa9283156109145760009361102a575b506040517f5fc8f59c000000000000000000000000000000000000000000000000000000008152602081600481865afa801561091457600061010052610ff6575b506040517f8a0c725b000000000000000000000000000000000000000000000000000000008152602081600481865afa90811561091457600091610fc4575b50604051927f17634514000000000000000000000000000000000000000000000000000000008452602084600481845afa93841561091457600094610f90575b50604051927f9bc66868000000000000000000000000000000000000000000000000000000008452604084600481855afa93841561091457600094610f55575b50604051917f2ed52a7700000000000000000000000000000000000000000000000000000000835260208360048173ffffffffffffffffffffffffffffffffffffffff61016051165afa92831561091457600093610f03575b506020600491604051928380927f2943dcab0000000000000000000000000000000000000000000000000000000082525afa90811561091457600091610ed1575b50604051907f6ad0c85400000000000000000000000000000000000000000000000000000000825260208260048173ffffffffffffffffffffffffffffffffffffffff88165afa90811561091457600091610e9b575b6105b59250612c96565b600254935b84151580610e92575b15610e90578460601c948560005260006020526040600020600181015490610100519054118015610e87575b8015610e76575b610e5b57866000526005602052604060002054805b6106aa5750506000526004602052600160406000200154947f75b7752ab93f69b3f56f714070d5d77bb1be0aa312e598f06a83430230705e1a608060405173ffffffffffffffffffffffffffffffffffffffff610160511681528a60208201526106a4604082018b602080917fffffffff0000000000000000000000000000000000000000000000000000000081511684520151910152565ba26105ba565b9390989599928460009996989952600160205260406000205497600160406000200154808311600014610e515780610120525b836101205111610e47575b61012051818103610e2757505085600052600160205260006001604082208281550155896000526005602052610722866040600020613243565b6040517fac027f9700000000000000000000000000000000000000000000000000000000815260208160048173ffffffffffffffffffffffffffffffffffffffff7f0000000000000000000000000000000000000000000000000000000000000000165afa8015610914578d60209161081e93600091610e0a575b5073ffffffffffffffffffffffffffffffffffffffff6000816107c3610120518d612adb565b94604051978896879586937f095ea7b300000000000000000000000000000000000000000000000000000000855216600484016020909392919373ffffffffffffffffffffffffffffffffffffffff60408201951681520152565b0393165af1801561091457610ddb575b5060005b610120518110156109205773ffffffffffffffffffffffffffffffffffffffff8d163b156101c2578c9060008b60448e8373ffffffffffffffffffffffffffffffffffffffff60405197889586947fc44a916d00000000000000000000000000000000000000000000000000000000865260048601526024850152165af18015610914576108ca575b6108c59150612a40565b610832565b67ffffffffffffffff82116108e5576108c5916040526108bb565b7f4e487b7100000000000000000000000000000000000000000000000000000000600052604160045260246000fd5b6040513d6000823e3d90fd5b509a92939894999190959796996109378a84612c96565b80610c54575b50856000526005602052600260406000200190600052602052600160406000200154604051997ff3b6a45d000000000000000000000000000000000000000000000000000000008b5260008b60048173ffffffffffffffffffffffffffffffffffffffff89165afa9a8b156109145760009b610b3e575b508a519c6109c18e612ea2565b6040519e8f916109d1908361251e565b8082526109dd90612ea2565b7fffffffffffffffffffffffffffffffffffffffffffffffffffffffffffffffe001903690602001378b51608052600060e0525b60805160e05190811015610a4e57610a3a8f91610a2e908f612eba565b51519160e05190612eba565b52610a4660e051612a40565b60e052610a11565b5097959498909c8293979a9b50604051806101405260a08082019173ffffffffffffffffffffffffffffffffffffffff6101605116905260206101405101528151809152602060c061014051019201906000905b808210610b22575050507f55e61a24ecdae954582245e5e611fb06905d6af967334fff4db72793bebc72a9908d6040610140510152610b148d6060610140510190602080917fffffffff0000000000000000000000000000000000000000000000000000000081511684520151910152565b6101405180910390a261060b565b8251845286955060209384019390920191600190910190610aa2565b909a503d806000833e610b51818361251e565b60208282810103126101c25781519067ffffffffffffffff82116101c257808301601f8385010112156101c2578183015190610b8c82612ea2565b93610b9a604051958661251e565b82855260208501828201602060c086028785010101116101c257602085830101905b602060c0860287850101018210610bda57505050505050998d6109b4565b60c08285850103126101c2576040518060c081011067ffffffffffffffff60c0830111176108e55760c09181836020930160405284518152828501518382015260408501516040820152610c3060608601612881565b60608201526080808601519082015260a08086015190820152815201910190610bbc565b604051907fac027f9700000000000000000000000000000000000000000000000000000000825260208260048173ffffffffffffffffffffffffffffffffffffffff7f0000000000000000000000000000000000000000000000000000000000000000165afa8060c0521561091457602091610d439160009160c051610da8575b5061012051610ce391612adb565b61018090815260405160a08181527fa9059cbb0000000000000000000000000000000000000000000000000000000090915251905173ffffffffffffffffffffffffffffffffffffffff8b16600483015260248201529182906044820190565b0390600073ffffffffffffffffffffffffffffffffffffffff60a05192165af1801561091457610d74575b8c61093d565b60203d602011610da1575b80610d8f610d9b9260a05161251e565b60a05190810190612b6c565b50610d6e565b503d610d7f565b610ce3919250610dcd90853d8711610dd4575b610dc5818361251e565b8101906130ae565b9190610cd5565b503d610dbb565b610dfc9060203d602011610e03575b610df4818361251e565b810190612b6c565b508c61082e565b503d610dea565b610e219150833d8511610dd457610dc5818361251e565b3861079d565b610e3091612c96565b866000526001602052600160406000200155610722565b83610120526106e8565b82610120526106dd565b509094506000526004602052600160406000200154936105ba565b50610e818786612ece565b156105f6565b508981106105ef565b005b508115156105c3565b90506020823d602011610ec9575b81610eb66020938361251e565b810103126101c2576105b59151906105ab565b3d9150610ea9565b90506020813d602011610efb575b81610eec6020938361251e565b810103126101c2575187610555565b3d9150610edf565b9092506020813d602011610f4d575b81610f1f6020938361251e565b810103126101c2575173ffffffffffffffffffffffffffffffffffffffff811681036101c257916020610514565b3d9150610f12565b90935060403d604011610f89575b610f6d818361251e565b81016040828203126101c257610f8291612e50565b92866104bb565b503d610f63565b9093506020813d602011610fbc575b81610fac6020938361251e565b810103126101c25751928561047b565b3d9150610f9f565b90506020813d602011610fee575b81610fdf6020938361251e565b810103126101c257518461043b565b3d9150610fd2565b6020813d602011611022575b8161100f6020938361251e565b810103126101c2575161010052836103fc565b3d9150611002565b9092506020813d602011611056575b816110466020938361251e565b810103126101c2575191836103bb565b3d9150611039565b90506020813d6020116110a5575b816110796020938361251e565b810103126101c2575173ffffffffffffffffffffffffffffffffffffffff811681036101c25781610364565b3d915061106c565b606460405162461bcd60e51b815260206004820152601860248201527f4465616c206973206e6f742066726f6d20666163746f727900000000000000006044820152fd5b61110a915060203d602011610e0357610df4818361251e565b81610307565b90506020813d602011611158575b8161112b6020938361251e565b810103126101c2575173ffffffffffffffffffffffffffffffffffffffff811681036101c25760206102a5565b3d915061111e565b346101c25760406003193601126101c257611179612aac565b6040517fffffffff0000000000000000000000000000000000000000000000000000000090911660208083019182526024803590840152916111e681604481015b037fffffffffffffffffffffffffffffffffffffffffffffffffffffffffffffffe0810183528261251e565b519020903360005260068152604060002082600052815260ff6040600020541661124f57336000526006815260406000209160005252604060002060017fffffffffffffffffffffffffffffffffffffffffffffffffffffffffffffff00825416179055600080f35b6064906040519062461bcd60e51b82526004820152601760248201527f4566666563746f7220616c7265616479206578697374730000000000000000006044820152fd5b346101c25760006003193601126101c257602060405173ffffffffffffffffffffffffffffffffffffffff7f0000000000000000000000000000000000000000000000000000000000000000168152f35b346101c25760206003193601126101c25773ffffffffffffffffffffffffffffffffffffffff6113126124c3565b166000526007602052602060ff604060002054166040519015158152f35b346101c25760406003193601126101c2576113496124c3565b602435908115158092036101c257604051907f8da5cb5b00000000000000000000000000000000000000000000000000000000825273ffffffffffffffffffffffffffffffffffffffff91602081600481867f0000000000000000000000000000000000000000000000000000000000000000165afa801561091457839060009061141b575b6113dc92501633146128a2565b16600052600760205260406000209060ff7fffffffffffffffffffffffffffffffffffffffffffffffffffffffffffffff008354169116179055600080f35b50506020813d821161144f575b816114356020938361251e565b810103126101c2578261144a6113dc92612881565b6113cf565b3d9150611428565b346101c25760206003193601126101c257600435611476811515612913565b61147f33612cee565b55005b346101c25760406003193601126101c25761149b612aac565b6040517fffffffff0000000000000000000000000000000000000000000000000000000090911660208083019182526024803590840152916114e081604481016111ba565b5190209033600052600681526040600020826000528152600160ff6040600020541615150361154b5733600052600681526040600020916000525260406000207fffffffffffffffffffffffffffffffffffffffffffffffffffffffffffffff008154169055600080f35b6064906040519062461bcd60e51b82526004820152601660248201527f4566666563746f7220646f65736e2774206578697374000000000000000000006044820152fd5b346101c25760406003193601126101c2576115a86124c3565b5060243560005260016020526020600160406000200154604051908152f35b346101c25760206003193601126101c257610e90600435612d27565b346101c25760006003193601126101c25761167461160033612cee565b600281016000815473ffffffffffffffffffffffffffffffffffffffff81169261162b841515612ca3565b7fffffffffffffffffffffffff00000000000000000000000000000000000000006001860192848454948161166660038b0197885490612adb565b995555169055553390612de9565b7fffffffffffffffffffffffffffffffffffffffff0000000000000000000000003360601b168060005260046020526040600020906001604051926116b8846124e6565b80548452015490602083019182526116d0818461331c565b156117305760009081526004602052604081208181556001015581518015611725578151906000526001604060002001555b5190811561171f5751906000526004602052604060002055600080f35b51600355005b508051600255611702565b606460405162461bcd60e51b815260206004820152601260248201527f4b657920646f6573206e6f7420657869737400000000000000000000000000006044820152fd5b346101c25760206003193601126101c257608073ffffffffffffffffffffffffffffffffffffffff806117a56124c3565b166000526000602052604060002090815491600360018201549260028301541691015491604051938452602084015260408301526060820152f35b346101c2576117ee36612599565b80156118dd5781600052602091600183526001604060002001548281018091116118ae577f1eaffb28f02e49aa8dce586ac73116a047f91a8116d887ed4e72496a2f10283f9361019d61186a60409585600052600184528460018860002001558085146118995733600052600084526001876000200154612adb565b336000526000835273ffffffffffffffffffffffffffffffffffffffff60028760002001541630903390612aee565b33600052600584526101bd86886000206131d0565b7f4e487b7100000000000000000000000000000000000000000000000000000000600052601160045260246000fd5b608460405162461bcd60e51b815260206004820152602560248201527f576f726b657220736c6f74732073686f756c642062652067726561746572207460448201527f68616e20300000000000000000000000000000000000000000000000000000006064820152fd5b346101c25760406003193601126101c2576119606124c3565b73ffffffffffffffffffffffffffffffffffffffff908181169182156119f357610e90926119e06119e99261199433612cee565b92600284018054917fffffffffffffffffffffffff000000000000000000000000000000000000000083161790556119d760036001860154950194855490612adb565b91339116612de9565b54602435612adb565b9030903390612aee565b608460405162461bcd60e51b815260206004820152602860248201527f5061796d656e7420746f6b656e2073686f756c64206265206e6f74207a65726f60448201527f20616464726573730000000000000000000000000000000000000000000000006064820152fd5b346101c25760806003193601126101c25760043560243560443573ffffffffffffffffffffffffffffffffffffffff908181168091036101c2576064359367ffffffffffffffff908186116101c257366023870112156101c2578560040135928284116101c25760248701966006906024369187841b0101116101c257611ae5831515612913565b611af0871515612984565b611afb8215156129f5565b3360005260209360008552611b1a8760026040600020015416156129f5565b6040519060808201908111828210176108e557604097969597528381526003878201898152604083018581526060840191600083523360005260008b5260406000209451855551986001998a860155600285019151167fffffffffffffffffffffffff00000000000000000000000000000000000000008254161790555191015560005b848110611c81575050908291611bd87fffffffffffffffffffffffffffffffffffffffff0000000000000000000000003360601b166130da565b6040519660a0880192338952878901526040880152606087015260a060808701525260c08401949260005b828110611c32577f658bee377ff55ceae5c8883fc1d0ec604e9179fba1a50f0f094091cefa2eef0486880387a1005b90919293958635907fffffffff0000000000000000000000000000000000000000000000000000000082168092036101c257908152868301358382015260409081019601939291908301611c03565b611c9081868b99979899612a6d565b35907fffffffff00000000000000000000000000000000000000000000000000000000821682036101c257611d58916111ba611d1188611cd2858f8d90612a6d565b01356040519283918b8301958690917fffffffff0000000000000000000000000000000000000000000000000000000060249316825260048201520190565b5190203360005283875260406000209060005286526040600020887fffffffffffffffffffffffffffffffffffffffffffffffffffffffffffffff00825416179055612a40565b95949395611b9e565b346101c25760006003193601126101c25773ffffffffffffffffffffffffffffffffffffffff7f0000000000000000000000000000000000000000000000000000000000000000163003611dd95760206040517f360894a13ba1a3210667c828492db98dca3e2076cc3735a920a3ca505d382bbc8152f35b608460405162461bcd60e51b815260206004820152603860248201527f555550535570677261646561626c653a206d757374206e6f742062652063616c60448201527f6c6564207468726f7567682064656c656761746563616c6c00000000000000006064820152fd5b60406003193601126101c257611e576124c3565b6024359067ffffffffffffffff82116101c257366023830112156101c2578160040135611e838161255f565b92611e91604051948561251e565b8184526020918285019136602483830101116101c25781600092602486930185378601015273ffffffffffffffffffffffffffffffffffffffff807f00000000000000000000000000000000000000000000000000000000000000001690611efb823014156125af565b611f2a7f360894a13ba1a3210667c828492db98dca3e2076cc3735a920a3ca505d382bbc928284541614612620565b6040517f8da5cb5b0000000000000000000000000000000000000000000000000000000081528481600481857f0000000000000000000000000000000000000000000000000000000000000000165afa80156109145782906000906121d5575b611f9792501633146128a2565b7f4910fdfa16fed3260ed0e7147f7cc6da11a60208b5b9406d12a635614ffd91435460ff1615611fcf5750505050610e909150612691565b84939416906040517f52d1902d0000000000000000000000000000000000000000000000000000000081528581600481865afa600091816121a6575b5061207a576084866040519062461bcd60e51b82526004820152602e60248201527f45524331393637557067726164653a206e657720696d706c656d656e7461746960448201527f6f6e206973206e6f7420555550530000000000000000000000000000000000006064820152fd5b0361213c5761208883612691565b7fbc7cd75a20ee27fd9adebab32041f755214dbc6bffa90cc0225b39da2e5c2d3b600080a2835115801590612134575b6120be57005b60008091610e90957f416464726573733a206c6f772d6c6576656c2064656c65676174652063616c6c604051966120f488612502565b602788528701527f206661696c65640000000000000000000000000000000000000000000000000060408701525190845af461212e612763565b91612793565b5060016120b8565b6084846040519062461bcd60e51b82526004820152602960248201527f45524331393637557067726164653a20756e737570706f727465642070726f7860448201527f6961626c655555494400000000000000000000000000000000000000000000006064820152fd5b9091508681813d83116121ce575b6121be818361251e565b810103126101c25751908861200b565b503d6121b4565b50508481813d8311612206575b6121ec818361251e565b810103126101c25781612201611f9792612881565b611f8a565b503d6121e2565b346101c2576020806003193601126101c2576122276124c3565b73ffffffffffffffffffffffffffffffffffffffff91827f0000000000000000000000000000000000000000000000000000000000000000169261226d843014156125af565b61229c7f360894a13ba1a3210667c828492db98dca3e2076cc3735a920a3ca505d382bbc948286541614612620565b6040517f8da5cb5b0000000000000000000000000000000000000000000000000000000081528281600481857f0000000000000000000000000000000000000000000000000000000000000000165afa801561091457829060009061248b575b61230992501633146128a2565b604051938285019185831067ffffffffffffffff8411176108e557826040526000865260ff7f4910fdfa16fed3260ed0e7147f7cc6da11a60208b5b9406d12a635614ffd914354166000146123665750505050610e909150612691565b84939416906040517f52d1902d0000000000000000000000000000000000000000000000000000000081528581600481865afa6000918161245c575b50612411576084866040519062461bcd60e51b82526004820152602e60248201527f45524331393637557067726164653a206e657720696d706c656d656e7461746960448201527f6f6e206973206e6f7420555550530000000000000000000000000000000000006064820152fd5b0361213c5761241f83612691565b7fbc7cd75a20ee27fd9adebab32041f755214dbc6bffa90cc0225b39da2e5c2d3b600080a2835115801590612454576120be57005b5060006120b8565b9091508681813d8311612484575b612474818361251e565b810103126101c2575190886123a2565b503d61246a565b50508281813d83116124bc575b6124a2818361251e565b810103126101c257816124b761230992612881565b6122fc565b503d612498565b6004359073ffffffffffffffffffffffffffffffffffffffff821682036101c257565b6040810190811067ffffffffffffffff8211176108e557604052565b6060810190811067ffffffffffffffff8211176108e557604052565b90601f7fffffffffffffffffffffffffffffffffffffffffffffffffffffffffffffffe0910116810190811067ffffffffffffffff8211176108e557604052565b67ffffffffffffffff81116108e557601f017fffffffffffffffffffffffffffffffffffffffffffffffffffffffffffffffe01660200190565b60031960409101126101c2576004359060243590565b156125b657565b608460405162461bcd60e51b815260206004820152602c60248201527f46756e6374696f6e206d7573742062652063616c6c6564207468726f7567682060448201527f64656c656761746563616c6c00000000000000000000000000000000000000006064820152fd5b1561262757565b608460405162461bcd60e51b815260206004820152602c60248201527f46756e6374696f6e206d7573742062652063616c6c6564207468726f7567682060448201527f6163746976652070726f787900000000000000000000000000000000000000006064820152fd5b803b156126f95773ffffffffffffffffffffffffffffffffffffffff7f360894a13ba1a3210667c828492db98dca3e2076cc3735a920a3ca505d382bbc91167fffffffffffffffffffffffff0000000000000000000000000000000000000000825416179055565b608460405162461bcd60e51b815260206004820152602d60248201527f455243313936373a206e657720696d706c656d656e746174696f6e206973206e60448201527f6f74206120636f6e7472616374000000000000000000000000000000000000006064820152fd5b3d1561278e573d906127748261255f565b91612782604051938461251e565b82523d6000602084013e565b606090565b919290156127f457508151156127a7575090565b3b156127b05790565b606460405162461bcd60e51b815260206004820152601d60248201527f416464726573733a2063616c6c20746f206e6f6e2d636f6e74726163740000006044820152fd5b8251909150156128075750805190602001fd5b6040519062461bcd60e51b825281602080600483015282519283602484015260005b84811061286a575050507fffffffffffffffffffffffffffffffffffffffffffffffffffffffffffffffe0601f836000604480968601015201168101030190fd5b818101830151868201604401528593508201612829565b519073ffffffffffffffffffffffffffffffffffffffff821682036101c257565b156128a957565b608460405162461bcd60e51b815260206004820152602160248201527f4f6e6c79206f776e65722063616e2063616c6c20746869732066756e6374696f60448201527f6e000000000000000000000000000000000000000000000000000000000000006064820152fd5b1561291a57565b608460405162461bcd60e51b815260206004820152602c60248201527f4d696e207072696365207065722065706f63682073686f756c6420626520677260448201527f6561746572207468616e203000000000000000000000000000000000000000006064820152fd5b1561298b57565b608460405162461bcd60e51b815260206004820152602760248201527f4d617820636f6c6c61746572616c2073686f756c64206265206772656174657260448201527f207468616e2030000000000000000000000000000000000000000000000000006064820152fd5b156129fc57565b606460405162461bcd60e51b815260206004820152601860248201527f436f6d707574652070726f766964657220616c726561647900000000000000006044820152fd5b7fffffffffffffffffffffffffffffffffffffffffffffffffffffffffffffffff81146118ae5760010190565b9190811015612a7d5760061b0190565b7f4e487b7100000000000000000000000000000000000000000000000000000000600052603260045260246000fd5b6004357fffffffff00000000000000000000000000000000000000000000000000000000811681036101c25790565b818102929181159184041417156118ae57565b9290604051927f23b872dd00000000000000000000000000000000000000000000000000000000602085015273ffffffffffffffffffffffffffffffffffffffff809216602485015216604483015260648201526064815260a081019181831067ffffffffffffffff8411176108e557612b6a92604052612b84565b565b908160209103126101c2575180151581036101c25790565b73ffffffffffffffffffffffffffffffffffffffff16604051604081019181831067ffffffffffffffff8411176108e557612bfb926040526000806020958685527f5361666545524332303a206c6f772d6c6576656c2063616c6c206661696c656487860152868151910182855af161212e612763565b805190828215928315612c7e575b50505015612c145750565b6084906040519062461bcd60e51b82526004820152602a60248201527f5361666545524332303a204552433230206f7065726174696f6e20646964206e60448201527f6f742073756363656564000000000000000000000000000000000000000000006064820152fd5b612c8e9350820181019101612b6c565b388281612c09565b919082039182116118ae57565b15612caa57565b606460405162461bcd60e51b815260206004820152601e60248201527f436f6d707574652070726f766964657220646f65736e277420657869737400006044820152fd5b73ffffffffffffffffffffffffffffffffffffffff8091166000526000602052612d246040600020916002830154161515612ca3565b90565b612d32811515612984565b612d3b33612cee565b600181019180835493556003820192835480158015612de0575b612dd95782821115612d9d575092612d73612d7b92612b6a95612c96565b905490612adb565b9073ffffffffffffffffffffffffffffffffffffffff60023392015416612de9565b612b6a9450612dcc90612dc760029373ffffffffffffffffffffffffffffffffffffffff95612c96565b612adb565b9201541630903390612aee565b5050505050565b50828214612d55565b6040517fa9059cbb00000000000000000000000000000000000000000000000000000000602082015273ffffffffffffffffffffffffffffffffffffffff929092166024830152604480830193909352918152612b6a91612e4b60648361251e565b612b84565b91908260409103126101c257604051612e68816124e6565b809280517fffffffff00000000000000000000000000000000000000000000000000000000811681036101c2578252602090810151910152565b67ffffffffffffffff81116108e55760051b60200190565b8051821015612a7d5760209160051b010190565b906040918251927ffc1e5e2a000000000000000000000000000000000000000000000000000000008452600092838560048173ffffffffffffffffffffffffffffffffffffffff8097165afa9485156130a4578495612ff7575b50835b8551811015612fec577fffffffff00000000000000000000000000000000000000000000000000000000612f5f8288612eba565b5151166020906111ba612fb583612f76868c612eba565b5101518751928391868301958690917fffffffff0000000000000000000000000000000000000000000000000000000060249316825260048201520190565b519020908584168752600681528487209187525260ff838620541615612fe357612fde90612a40565b612f2b565b50505050905090565b505050505050600190565b9094503d8085833e613009818361251e565b810190602090818184031261309c5780519067ffffffffffffffff82116130a057019082601f8301121561309c57815161304281612ea2565b9361304f8651958661251e565b818552828086019260061b850101938185116130985783879101925b85841061307f575050505050509338612f28565b849061308b8486612e50565b815201920191869061306b565b8880fd5b8580fd5b8680fd5b82513d86823e3d90fd5b908160209103126101c2575173ffffffffffffffffffffffffffffffffffffffff811681036101c25790565b600354811561318c5760009082825260046020526131158360408420600160405191613105836124e6565b805483520154602082015261331c565b61314857801561313d5760019160409184600355848252600460205280838320558152200155565b505080600255600355565b606460405162461bcd60e51b815260206004820152601260248201527f4b657920616c72656164792065786973747300000000000000000000000000006044820152fd5b606460405162461bcd60e51b815260206004820152601260248201527f4b65792063616e6e6f74206265205a45524f00000000000000000000000000006044820152fd5b60018101908154831561318c5760028201600092858452816020526132138660408620600160405191613202836124e6565b80548352015460208201528361335e565b613148578590831561323c57509060409392916001955585835260205280838320558152200155565b5550505055565b906002820160009082825280602052604092838320906001855192613267846124e6565b805484520154906020830191825261328081848961335e565b156132d95784526020839052848420848155600101849055815180156132cf578151908552600186862001555b519485156132c15750519382526020522055565b905160019091015550505050565b50805186556132ad565b6064865162461bcd60e51b815260206004820152601260248201527f4b657920646f6573206e6f7420657869737400000000000000000000000000006044820152fd5b9081511591821592613350575b508115613344575b811561333b575090565b90506003541490565b60025481149150613331565b602001511515915038613329565b8151158015939290613393575b508215613388575b821561337e57505090565b6001015414919050565b805482149250613373565b60200151151592503861336b56fea26469706673582212207d3deafcbe03885e67d241f5449bcbfb53ec466c5726e57ca53af9c96704b6ba64736f6c63430008110033",
  "devdoc": {
    "kind": "dev",
    "methods": {
      "proxiableUUID()": {
        "details": "Implementation of the ERC1822 {proxiableUUID} function. This returns the storage slot used by the implementation. It is used to validate the implementation's compatibility when performing an upgrade. IMPORTANT: A proxy pointing at a proxiable contract should not be considered proxiable itself, because this risks bricking a proxy that upgrades to it, by delegating to itself until out of gas. Thus it is critical that this function revert if invoked through a proxy. This is guaranteed by the `notDelegated` modifier."
      },
      "upgradeTo(address)": {
        "custom:oz-upgrades-unsafe-allow-reachable": "delegatecall",
        "details": "Upgrade the implementation of the proxy to `newImplementation`. Calls {_authorizeUpgrade}. Emits an {Upgraded} event."
      },
      "upgradeToAndCall(address,bytes)": {
        "custom:oz-upgrades-unsafe-allow-reachable": "delegatecall",
        "details": "Upgrade the implementation of the proxy to `newImplementation`, and subsequently execute the function call encoded in `data`. Calls {_authorizeUpgrade}. Emits an {Upgraded} event."
      }
    },
    "version": 1
  },
  "userdoc": {
    "kind": "user",
    "methods": {},
    "version": 1
  },
  "storageLayout": {
    "storage": [
      {
        "astId": 8772,
        "contract": "contracts/global/Matcher.sol:Matcher",
        "label": "computeProviderByOwner",
        "offset": 0,
        "slot": "0",
        "type": "t_mapping(t_address,t_struct(ComputeProvider)8713_storage)"
      },
      {
        "astId": 8777,
        "contract": "contracts/global/Matcher.sol:Matcher",
        "label": "computePeerByPeerIdHash",
        "offset": 0,
        "slot": "1",
        "type": "t_mapping(t_bytes32,t_struct(ComputePeer)8718_storage)"
      },
      {
        "astId": 8780,
        "contract": "contracts/global/Matcher.sol:Matcher",
        "label": "_computeProvidersList",
        "offset": 0,
        "slot": "2",
        "type": "t_struct(Bytes32List)10237_storage"
      },
      {
        "astId": 8785,
        "contract": "contracts/global/Matcher.sol:Matcher",
        "label": "_computePeersListByProvider",
        "offset": 0,
        "slot": "5",
        "type": "t_mapping(t_address,t_struct(Bytes32List)10237_storage)"
      },
      {
        "astId": 8791,
        "contract": "contracts/global/Matcher.sol:Matcher",
        "label": "_effectorsByComputePeerOwner",
        "offset": 0,
        "slot": "6",
        "type": "t_mapping(t_address,t_mapping(t_bytes32,t_bool))"
      },
      {
        "astId": 8795,
        "contract": "contracts/global/Matcher.sol:Matcher",
        "label": "whitelist",
        "offset": 0,
        "slot": "7",
        "type": "t_mapping(t_address,t_bool)"
      },
      {
        "astId": 503,
        "contract": "contracts/global/Matcher.sol:Matcher",
        "label": "_initialized",
        "offset": 0,
        "slot": "8",
        "type": "t_uint8"
      },
      {
        "astId": 506,
        "contract": "contracts/global/Matcher.sol:Matcher",
        "label": "_initializing",
        "offset": 1,
        "slot": "8",
        "type": "t_bool"
      },
      {
        "astId": 485,
        "contract": "contracts/global/Matcher.sol:Matcher",
        "label": "__gap",
        "offset": 0,
        "slot": "9",
        "type": "t_array(t_uint256)50_storage"
      },
      {
        "astId": 800,
        "contract": "contracts/global/Matcher.sol:Matcher",
        "label": "__gap",
        "offset": 0,
        "slot": "59",
        "type": "t_array(t_uint256)50_storage"
      }
    ],
    "types": {
      "t_address": {
        "encoding": "inplace",
        "label": "address",
        "numberOfBytes": "20"
      },
      "t_array(t_uint256)50_storage": {
        "base": "t_uint256",
        "encoding": "inplace",
        "label": "uint256[50]",
        "numberOfBytes": "1600"
      },
      "t_bool": {
        "encoding": "inplace",
        "label": "bool",
        "numberOfBytes": "1"
      },
      "t_bytes32": {
        "encoding": "inplace",
        "label": "bytes32",
        "numberOfBytes": "32"
      },
      "t_contract(IERC20)2611": {
        "encoding": "inplace",
        "label": "contract IERC20",
        "numberOfBytes": "20"
      },
      "t_mapping(t_address,t_bool)": {
        "encoding": "mapping",
        "key": "t_address",
        "label": "mapping(address => bool)",
        "numberOfBytes": "32",
        "value": "t_bool"
      },
      "t_mapping(t_address,t_mapping(t_bytes32,t_bool))": {
        "encoding": "mapping",
        "key": "t_address",
        "label": "mapping(address => mapping(bytes32 => bool))",
        "numberOfBytes": "32",
        "value": "t_mapping(t_bytes32,t_bool)"
      },
      "t_mapping(t_address,t_struct(Bytes32List)10237_storage)": {
        "encoding": "mapping",
        "key": "t_address",
        "label": "mapping(address => struct LinkedList.Bytes32List)",
        "numberOfBytes": "32",
        "value": "t_struct(Bytes32List)10237_storage"
      },
      "t_mapping(t_address,t_struct(ComputeProvider)8713_storage)": {
        "encoding": "mapping",
        "key": "t_address",
        "label": "mapping(address => struct MatcherState.ComputeProvider)",
        "numberOfBytes": "32",
        "value": "t_struct(ComputeProvider)8713_storage"
      },
      "t_mapping(t_bytes32,t_bool)": {
        "encoding": "mapping",
        "key": "t_bytes32",
        "label": "mapping(bytes32 => bool)",
        "numberOfBytes": "32",
        "value": "t_bool"
      },
      "t_mapping(t_bytes32,t_struct(ComputePeer)8718_storage)": {
        "encoding": "mapping",
        "key": "t_bytes32",
        "label": "mapping(bytes32 => struct MatcherState.ComputePeer)",
        "numberOfBytes": "32",
        "value": "t_struct(ComputePeer)8718_storage"
      },
      "t_mapping(t_bytes32,t_struct(Element)10227_storage)": {
        "encoding": "mapping",
        "key": "t_bytes32",
        "label": "mapping(bytes32 => struct LinkedList.Element)",
        "numberOfBytes": "32",
        "value": "t_struct(Element)10227_storage"
      },
      "t_struct(Bytes32List)10237_storage": {
        "encoding": "inplace",
        "label": "struct LinkedList.Bytes32List",
        "members": [
          {
            "astId": 10229,
            "contract": "contracts/global/Matcher.sol:Matcher",
            "label": "_first",
            "offset": 0,
            "slot": "0",
            "type": "t_bytes32"
          },
          {
            "astId": 10231,
            "contract": "contracts/global/Matcher.sol:Matcher",
            "label": "_last",
            "offset": 0,
            "slot": "1",
            "type": "t_bytes32"
          },
          {
            "astId": 10236,
            "contract": "contracts/global/Matcher.sol:Matcher",
            "label": "_elements",
            "offset": 0,
            "slot": "2",
            "type": "t_mapping(t_bytes32,t_struct(Element)10227_storage)"
          }
        ],
        "numberOfBytes": "96"
      },
      "t_struct(ComputePeer)8718_storage": {
        "encoding": "inplace",
        "label": "struct MatcherState.ComputePeer",
        "members": [
          {
            "astId": 8715,
            "contract": "contracts/global/Matcher.sol:Matcher",
            "label": "peerId",
            "offset": 0,
            "slot": "0",
            "type": "t_bytes32"
          },
          {
            "astId": 8717,
            "contract": "contracts/global/Matcher.sol:Matcher",
            "label": "freeWorkerSlots",
            "offset": 0,
            "slot": "1",
            "type": "t_uint256"
          }
        ],
        "numberOfBytes": "64"
      },
      "t_struct(ComputeProvider)8713_storage": {
        "encoding": "inplace",
        "label": "struct MatcherState.ComputeProvider",
        "members": [
          {
            "astId": 8705,
            "contract": "contracts/global/Matcher.sol:Matcher",
            "label": "minPricePerEpoch",
            "offset": 0,
            "slot": "0",
            "type": "t_uint256"
          },
          {
            "astId": 8707,
            "contract": "contracts/global/Matcher.sol:Matcher",
            "label": "maxCollateral",
            "offset": 0,
            "slot": "1",
            "type": "t_uint256"
          },
          {
            "astId": 8710,
            "contract": "contracts/global/Matcher.sol:Matcher",
            "label": "paymentToken",
            "offset": 0,
            "slot": "2",
            "type": "t_contract(IERC20)2611"
          },
          {
            "astId": 8712,
            "contract": "contracts/global/Matcher.sol:Matcher",
            "label": "totalFreeWorkerSlots",
            "offset": 0,
            "slot": "3",
            "type": "t_uint256"
          }
        ],
        "numberOfBytes": "128"
      },
      "t_struct(Element)10227_storage": {
        "encoding": "inplace",
        "label": "struct LinkedList.Element",
        "members": [
          {
            "astId": 10224,
            "contract": "contracts/global/Matcher.sol:Matcher",
            "label": "prev",
            "offset": 0,
            "slot": "0",
            "type": "t_bytes32"
          },
          {
            "astId": 10226,
            "contract": "contracts/global/Matcher.sol:Matcher",
            "label": "next",
            "offset": 0,
            "slot": "1",
            "type": "t_bytes32"
          }
        ],
        "numberOfBytes": "64"
      },
      "t_uint256": {
        "encoding": "inplace",
        "label": "uint256",
        "numberOfBytes": "32"
      },
      "t_uint8": {
        "encoding": "inplace",
        "label": "uint8",
        "numberOfBytes": "1"
      }
    }
  }
}