{
  "address": "0x908aEBfb6051Bca6d1e684586d7760e53C4c736C",
  "abi": [
    {
      "anonymous": false,
      "inputs": [
        {
          "indexed": false,
          "internalType": "address",
          "name": "previousAdmin",
          "type": "address"
        },
        {
          "indexed": false,
          "internalType": "address",
          "name": "newAdmin",
          "type": "address"
        }
      ],
      "name": "AdminChanged",
      "type": "event"
    },
    {
      "anonymous": false,
      "inputs": [
        {
          "indexed": true,
          "internalType": "address",
          "name": "beacon",
          "type": "address"
        }
      ],
      "name": "BeaconUpgraded",
      "type": "event"
    },
    {
      "anonymous": false,
      "inputs": [
        {
          "indexed": false,
          "internalType": "address",
          "name": "owner",
          "type": "address"
        },
        {
          "indexed": false,
          "internalType": "uint256",
          "name": "amount",
          "type": "uint256"
        }
      ],
      "name": "CollateralWithdrawn",
      "type": "event"
    },
    {
      "anonymous": false,
      "inputs": [
        {
          "indexed": false,
          "internalType": "bytes32",
          "name": "id",
          "type": "bytes32"
        },
        {
          "indexed": false,
          "internalType": "address",
          "name": "owner",
          "type": "address"
        }
      ],
      "name": "PATCreated",
      "type": "event"
    },
    {
      "anonymous": false,
      "inputs": [
        {
          "indexed": false,
          "internalType": "bytes32",
          "name": "id",
          "type": "bytes32"
        }
      ],
      "name": "PATRemoved",
      "type": "event"
    },
    {
      "anonymous": false,
      "inputs": [
        {
          "indexed": true,
          "internalType": "address",
          "name": "implementation",
          "type": "address"
        }
      ],
      "name": "Upgraded",
      "type": "event"
    },
    {
      "anonymous": false,
      "inputs": [
        {
          "indexed": false,
          "internalType": "bytes32",
          "name": "patId",
          "type": "bytes32"
        },
        {
          "indexed": false,
          "internalType": "bytes32",
          "name": "workerId",
          "type": "bytes32"
        }
      ],
      "name": "WorkerRegistred",
      "type": "event"
    },
    {
      "anonymous": false,
      "inputs": [
        {
          "indexed": false,
          "internalType": "bytes32",
          "name": "patId",
          "type": "bytes32"
        }
      ],
      "name": "WorkerUnregistred",
      "type": "event"
    },
    {
      "inputs": [
        {
          "internalType": "address",
          "name": "computeProvider",
          "type": "address"
        },
        {
          "internalType": "bytes32",
          "name": "peerId",
          "type": "bytes32"
        }
      ],
      "name": "createPAT",
      "outputs": [],
      "stateMutability": "nonpayable",
      "type": "function"
    },
    {
      "inputs": [
        {
          "internalType": "bytes32",
          "name": "patId",
          "type": "bytes32"
        }
      ],
      "name": "exit",
      "outputs": [],
      "stateMutability": "nonpayable",
      "type": "function"
    },
    {
      "inputs": [
        {
          "internalType": "bytes32",
          "name": "id",
          "type": "bytes32"
        }
      ],
      "name": "getPAT",
      "outputs": [
        {
          "components": [
            {
              "internalType": "bytes32",
              "name": "id",
              "type": "bytes32"
            },
            {
              "internalType": "bytes32",
              "name": "peerId",
              "type": "bytes32"
            },
            {
              "internalType": "bytes32",
              "name": "workerId",
              "type": "bytes32"
            },
            {
              "internalType": "address",
              "name": "owner",
              "type": "address"
            },
            {
              "internalType": "uint256",
              "name": "collateral",
              "type": "uint256"
            },
            {
              "internalType": "uint256",
              "name": "created",
              "type": "uint256"
            }
          ],
          "internalType": "struct PAT",
          "name": "",
          "type": "tuple"
        }
      ],
      "stateMutability": "view",
      "type": "function"
    },
    {
      "inputs": [],
      "name": "getPATs",
      "outputs": [
        {
          "components": [
            {
              "internalType": "bytes32",
              "name": "id",
              "type": "bytes32"
            },
            {
              "internalType": "bytes32",
              "name": "peerId",
              "type": "bytes32"
            },
            {
              "internalType": "bytes32",
              "name": "workerId",
              "type": "bytes32"
            },
            {
              "internalType": "address",
              "name": "owner",
              "type": "address"
            },
            {
              "internalType": "uint256",
              "name": "collateral",
              "type": "uint256"
            },
            {
              "internalType": "uint256",
              "name": "created",
              "type": "uint256"
            }
          ],
          "internalType": "struct PAT[]",
          "name": "",
          "type": "tuple[]"
        }
      ],
      "stateMutability": "view",
      "type": "function"
    },
    {
      "inputs": [
        {
          "internalType": "address",
          "name": "owner",
          "type": "address"
        },
        {
          "internalType": "uint256",
          "name": "timestamp",
          "type": "uint256"
        }
      ],
      "name": "getUnlockedAmountBy",
      "outputs": [
        {
          "internalType": "uint256",
          "name": "",
          "type": "uint256"
        }
      ],
      "stateMutability": "view",
      "type": "function"
    },
    {
      "inputs": [],
      "name": "patCount",
      "outputs": [
        {
          "internalType": "uint256",
          "name": "",
          "type": "uint256"
        }
      ],
      "stateMutability": "view",
      "type": "function"
    },
    {
      "inputs": [],
      "name": "proxiableUUID",
      "outputs": [
        {
          "internalType": "bytes32",
          "name": "",
          "type": "bytes32"
        }
      ],
      "stateMutability": "view",
      "type": "function"
    },
    {
      "inputs": [
        {
          "internalType": "bytes32",
          "name": "patId",
          "type": "bytes32"
        },
        {
          "internalType": "bytes32",
          "name": "workerId",
          "type": "bytes32"
        }
      ],
      "name": "setWorker",
      "outputs": [],
      "stateMutability": "nonpayable",
      "type": "function"
    },
    {
      "inputs": [
        {
          "internalType": "address",
          "name": "newImplementation",
          "type": "address"
        }
      ],
      "name": "upgradeTo",
      "outputs": [],
      "stateMutability": "nonpayable",
      "type": "function"
    },
    {
      "inputs": [
        {
          "internalType": "address",
          "name": "newImplementation",
          "type": "address"
        },
        {
          "internalType": "bytes",
          "name": "data",
          "type": "bytes"
        }
      ],
      "name": "upgradeToAndCall",
      "outputs": [],
      "stateMutability": "payable",
      "type": "function"
    },
    {
      "inputs": [
        {
          "internalType": "address",
          "name": "owner",
          "type": "address"
        }
      ],
      "name": "withdrawCollateral",
      "outputs": [],
      "stateMutability": "nonpayable",
      "type": "function"
    }
  ],
  "transactionHash": "0x879da00b2f2fe2d9826b0ede8c0018d8d60461d85b1dc19a9650f6a1da9566dd",
  "args": [],
  "numDeployments": 1,
  "solcInputHash": "09b009adaa7c41f548683d650f79aaa9",
  "bytecode": "0x60a080604052346100315730608052612add90816100378239608051818181611283015281816113c401526117250152f35b600080fdfe608060408181526004918236101561001657600080fd5b600090813560e01c9081630ca3626314611a58575080633659cfe6146116ef5780634f1ef2861461133a57806352d1902d146112585780636ad0c854146112375780636b0ea62714611162578063928d300e14610e6f578063c44a916d146104b6578063cb35a195146102e4578063d5053ab0146102545763f3b6a45d1461009d57600080fd5b34610251578060031936011261025157918254907fffffffffffffffffffffffffffffffffffffffffffffffffffffffffffffffe06100f36100de8461234f565b936100eb86519586611fd0565b80855261234f565b01845b8181106102345750506003805485815b61019e575050505081519160208080850192818652845180945285019301945b8281106101335784840385f35b9091928260c08261018f6001948a5160a0809180518452602081015160208501526040810151604085015273ffffffffffffffffffffffffffffffffffffffff6060820151166060850152608081015160808501520151910152565b01960191019492919094610126565b818795975260029060208281526102218888209289516101bd81611f7c565b8454815260019586860154858301528501548b82015273ffffffffffffffffffffffffffffffffffffffff8886015416606082015288850154608082015260058095015460a0820152610210828d612367565b5261021b818c612367565b50612391565b9387525285852001549081969496610106565b60209061024296949661231d565b828289010152019492946100f6565b80fd5b509190346102e057806003193601126102e0577f8d9d99306df0b03f2391cff2ff94674c032cc09f3cf089db54a8b021125a054d913560243581855260026020528060028487200180546102b2575b5582519182526020820152a180f35b7fa2f1ead3b1f30f052d979d7f19d3d3668f00f45a0a23ae4588cc918c5b738f9760208651868152a16102a3565b8280fd5b50346102515781600319360112610251576102fd611f13565b9273ffffffffffffffffffffffffffffffffffffffff807fe0c154d538f20c8d1aadcd299210daa7f0a434a5bf4a39795668b28b61ec6e96541694845180967f68f1e99a00000000000000000000000000000000000000000000000000000000825281856020998a935afa90811561048f5783929188918791610499575b50858851809581937fa7c1abe0000000000000000000000000000000000000000000000000000000008352165afa91821561048f5787929184918793610460575b5016855260068252858520938651809481937f9c15d1a2000000000000000000000000000000000000000000000000000000008352165afa928315610455579261041f575b5061041161041792602435612400565b906128fb565b915191825250f35b91508382813d831161044e575b6104368183611fd0565b8101031261044957905190610411610401565b600080fd5b503d61042c565b8451903d90823e3d90fd5b610481919350843d8611610488575b6104798183611fd0565b8101906123d4565b91386103bc565b503d61046f565b86513d87823e3d90fd5b6104b09150823d8411610488576104798183611fd0565b3861037b565b508290346102515782600319360112610251576104d1611f13565b9260249283359073ffffffffffffffffffffffffffffffffffffffff90817fe0c154d538f20c8d1aadcd299210daa7f0a434a5bf4a39795668b28b61ec6e965416908451907f68f1e99a000000000000000000000000000000000000000000000000000000009384835260209485848481885afa938415610e65578994610e46575b50875186818581867fa7c1abe000000000000000000000000000000000000000000000000000000000998a8352165afa908115610e1f57839188918c91610e29575b50858b51809481937f7e7e66b2000000000000000000000000000000000000000000000000000000008352165afa908115610e1f578a91610de5575b508233911603610d7e57818b1696878a5260018752888a2054948a54928a51908152888187818b5afa908115610a4e579085918d91610d61575b5016908a517f2943dcab00000000000000000000000000000000000000000000000000000000815289818881865afa908115610b51578d91610d34575b50841015610cf3578a517f8a0c725b00000000000000000000000000000000000000000000000000000000815289818881865afa908115610b51578d91610cc6575b50871015610c86578a51937fb53105a300000000000000000000000000000000000000000000000000000000855289858881865afa948515610b51578d95610c57575b508b517fac027f970000000000000000000000000000000000000000000000000000000081528a818981875afa908115610bd0578f928f8f948e948c96610768956107639492610c38575b5051917f23b872dd000000000000000000000000000000000000000000000000000000008784015233908301523060448301528a60648301526064825261075e82611fb4565b612432565b612391565b998d51928380927f9e4b35540000000000000000000000000000000000000000000000000000000082525afa908115610b51579086918e91610c1b575b50168b517f200d2ed20000000000000000000000000000000000000000000000000000000081528a818981855afa908115610bd0578e91610bee575b506002811015610bdc571580610b5f575b610af6575b508460038d9e9f9c809e9d8c7fffffffffffffffffffffffffffffffffffffffff0000000000000000000000008351918201927f8bab011e0edd6a03e41f22d7bebfacfbde93a6fbd86b71db78d8af308790c295845260601b16838201528760548201528b60748201526074815261086e81611fb4565b5190209d8e815260028d5220015416610ab4578890868d518094819382525afa908115610a4e57849189918e91610a97575b50868d51809481937fe2d2bfe3000000000000000000000000000000000000000000000000000000008352165afa908115610a4e5784929189918e91610a58575b50868d51809781937f76671808000000000000000000000000000000000000000000000000000000008352165afa938415610a4e578c94928b8a95938e8d948997610a0e575b5060059798600282519a61093a8c611f7c565b858c52808c01948552838c019583875260608d0198895260808d01998a5260a08d019a8b528352522097518855516001880155516002870155600386019151167fffffffffffffffffffffffff0000000000000000000000000000000000000000825416179055518484015551910155600182018092116109fc5750869750837ff9afe7870c7ad4010cedbe87273d2282bcedb40f6734c102d53059c8da187bdf9752600183528588205586556109f083612542565b8351928352820152a180f35b8760118a92634e487b7160e01b835252fd5b96505096505093905082813d8311610a47575b610a2b8183611fd0565b8101031261044957886005938b8a968f958f9051969897610927565b503d610a21565b8b513d8e823e3d90fd5b9293505081813d8311610a90575b610a708183611fd0565b81010312610a8c57518381168103610a8c57908784928f6108e1565b8b80fd5b503d610a66565b610aae9150823d8411610488576104798183611fd0565b8f6108a0565b50606485600f8f8b8f519362461bcd60e51b85528401528201527f496420616c7265616479207573656400000000000000000000000000000000006044820152fd5b803b15610b5b578c80918f8e51809481937f95bc953800000000000000000000000000000000000000000000000000000000835260018d8401525af18015610b5157156107f757610b478d91611f36565b610a8c578e6107f7565b8c513d8f823e3d90fd5b8c80fd5b508b517f2db311930000000000000000000000000000000000000000000000000000000081528a818981875afa908115610bd0578e91610ba3575b508910156107f2565b90508a81813d8311610bc9575b610bba8183611fd0565b81010312610449575138610b9a565b503d610bb0565b8e8e51903d90823e3d90fd5b8e8e60218a634e487b7160e01b835252fd5b610c0e91508b3d8d11610c14575b610c068183611fd0565b81019061240d565b386107e1565b503d610bfc565b610c3291508b3d8d11610488576104798183611fd0565b386107a5565b610c50919250873d8911610488576104798183611fd0565b9038610718565b9094508981813d8311610c7f575b610c6f8183611fd0565b810103126104495751938f6106cd565b503d610c65565b6064868a8f818f519362461bcd60e51b85528401528201527f4d617820776f726b657273207065722070726f766964657220726561636865646044820152fd5b90508981813d8311610cec575b610cdd8183611fd0565b8101031261044957518f61068a565b503d610cd3565b60648660168f8c8f519362461bcd60e51b85528401528201527f54617267657420776f726b6572732072656163686564000000000000000000006044820152fd5b90508981813d8311610d5a575b610d4b8183611fd0565b8101031261044957518f610648565b503d610d41565b610d7891508a3d8c11610488576104798183611fd0565b8f61060b565b60848360218c898c519362461bcd60e51b85528401528201527f4f6e6c79206d6174636865722063616e2063616c6c2074686973206d6574686f60448201527f64000000000000000000000000000000000000000000000000000000000000006064820152fd5b90508681813d8311610e18575b610dfc8183611fd0565b81010312610e1457518281168103610e14578c6105d1565b8980fd5b503d610df2565b89513d8c823e3d90fd5b610e409150823d8411610488576104798183611fd0565b8e610595565b610e5e919450863d8811610488576104798183611fd0565b928b610553565b88513d8b823e3d90fd5b5091346102e05760208060031936011261115e57610e8b611f13565b9073ffffffffffffffffffffffffffffffffffffffff928082857fe0c154d538f20c8d1aadcd299210daa7f0a434a5bf4a39795668b28b61ec6e9654168751928380927f68f1e99a0000000000000000000000000000000000000000000000000000000082525afa90811561113757859184918991611141575b50838851809881937fa7c1abe0000000000000000000000000000000000000000000000000000000008352165afa948515611137578795611118575b50808416875260068352858720941685517f9c15d1a200000000000000000000000000000000000000000000000000000000815283818481855afa90811561110e5788916110df575b50610f98610f9e9142612400565b866128fb565b95600182018092116110cc5790600185939201558651928380927fac027f970000000000000000000000000000000000000000000000000000000082525afa9081156110c25761109f927fc30fcfbcaac9e0deffa719714eaa82396ff506a0d0d0eebe170830177288715d96926110729289916110a5575b5083517fa9059cbb000000000000000000000000000000000000000000000000000000009281019290925273ffffffffffffffffffffffffffffffffffffffff861660248301526044808301889052825261075e606483611fd0565b51928392836020909392919373ffffffffffffffffffffffffffffffffffffffff60408201951681520152565b0390a180f35b6110bc9150823d8411610488576104798183611fd0565b38611016565b85513d88823e3d90fd5b602489601186634e487b7160e01b835252fd5b90508381813d8311611107575b6110f68183611fd0565b810103126104495751610f98610f8a565b503d6110ec565b87513d8a823e3d90fd5b611130919550833d8511610488576104798183611fd0565b9338610f41565b86513d89823e3d90fd5b6111589150823d8411610488576104798183611fd0565b38610f05565b8380fd5b509190346102e05760206003193601126102e0578060056112359260c09561118861231d565b508535815260026020522082519461119f86611f7c565b815486526001820154602087015260028201548487015273ffffffffffffffffffffffffffffffffffffffff60038301541660608701528101546080860152015460a084015251809260a0809180518452602081015160208501526040810151604085015273ffffffffffffffffffffffffffffffffffffffff6060820151166060850152608081015160808501520151910152565bf35b509034611254578160031936011261125457602091549051908152f35b5080fd5b508290346102515780600319360112610251575073ffffffffffffffffffffffffffffffffffffffff7f00000000000000000000000000000000000000000000000000000000000000001630036112d257602082517f360894a13ba1a3210667c828492db98dca3e2076cc3735a920a3ca505d382bbc8152f35b6020608492519162461bcd60e51b8352820152603860248201527f555550535570677261646561626c653a206d757374206e6f742062652063616c60448201527f6c6564207468726f7567682064656c656761746563616c6c00000000000000006064820152fd5b5082826003193601126112545761134f611f13565b9060249384359067ffffffffffffffff82116116eb57366023830112156116eb57818301359161137e83612011565b61138a83519182611fd0565b83815260209384820192368a83830101116116e7578189928b88930186378301015273ffffffffffffffffffffffffffffffffffffffff807f000000000000000000000000000000000000000000000000000000000000000016906113f18230141561204b565b6114207f360894a13ba1a3210667c828492db98dca3e2076cc3735a920a3ca505d382bbc9282845416146120bc565b807fe0c154d538f20c8d1aadcd299210daa7f0a434a5bf4a39795668b28b61ec6e96541633036116a6577f4910fdfa16fed3260ed0e7147f7cc6da11a60208b5b9406d12a635614ffd91435460ff1615611489575050505050505061148691925061212d565b80f35b87939496989597169086517f52d1902d00000000000000000000000000000000000000000000000000000000815288818b81865afa60009181611677575b506115335760848a602e8d8c8c519362461bcd60e51b85528401528201527f45524331393637557067726164653a206e657720696d706c656d656e7461746960448201527f6f6e206973206e6f7420555550530000000000000000000000000000000000006064820152fd5b9991939694989295990361161057505061154c8461212d565b7fbc7cd75a20ee27fd9adebab32041f755214dbc6bffa90cc0225b39da2e5c2d3b600080a2815115801590611608575b611589575b505050505080f35b6115fd946000927f206661696c656400000000000000000000000000000000000000000000000000837f416464726573733a206c6f772d6c6576656c2064656c65676174652063616c6c869551986115e08a611f98565b60278a528901528701525190845af46115f76121ff565b9161222f565b508180808080611581565b50600161157c565b9060296084928886519362461bcd60e51b85528401528201527f45524331393637557067726164653a20756e737570706f727465642070726f7860448201527f6961626c655555494400000000000000000000000000000000000000000000006064820152fd5b90918a82813d831161169f575b61168e8183611fd0565b81010312610251575051908c6114c7565b503d611684565b606487601e8c8989519362461bcd60e51b85528401528201527f4d6f64756c65426173653a2063616c6c6572206973206e6f7420636f726500006044820152fd5b8880fd5b8480fd5b509190346102e05760208060031936011261115e5761170c611f13565b9173ffffffffffffffffffffffffffffffffffffffff807f0000000000000000000000000000000000000000000000000000000000000000166117518130141561204b565b6117807f360894a13ba1a3210667c828492db98dca3e2076cc3735a920a3ca505d382bbc9183835416146120bc565b817fe0c154d538f20c8d1aadcd299210daa7f0a434a5bf4a39795668b28b61ec6e9654163303611a16578251908482019282841067ffffffffffffffff851117611a01578385528883527f4910fdfa16fed3260ed0e7147f7cc6da11a60208b5b9406d12a635614ffd91435460ff161561180457505050505050611486915061212d565b8693949596169085517f52d1902d00000000000000000000000000000000000000000000000000000000815287818a81865afa600091816119d2575b506118ad576084898989519162461bcd60e51b8352820152602e60248201527f45524331393637557067726164653a206e657720696d706c656d656e7461746960448201527f6f6e206973206e6f7420555550530000000000000000000000000000000000006064820152fd5b97919294979593950361196a57506118c48461212d565b7fbc7cd75a20ee27fd9adebab32041f755214dbc6bffa90cc0225b39da2e5c2d3b600080a2815115801590611962575b61190057505050505080f35b611957946000927f206661696c656400000000000000000000000000000000000000000000000000837f416464726573733a206c6f772d6c6576656c2064656c65676174652063616c6c869551986115e08a611f98565b503880808080611581565b5060006118f4565b6084908684519162461bcd60e51b8352820152602960248201527f45524331393637557067726164653a20756e737570706f727465642070726f7860448201527f6961626c655555494400000000000000000000000000000000000000000000006064820152fd5b90918982813d83116119fa575b6119e98183611fd0565b810103126102515750519038611840565b503d6119df565b604188634e487b7160e01b6000525260246000fd5b6064868585519162461bcd60e51b8352820152601e60248201527f4d6f64756c65426173653a2063616c6c6572206973206e6f7420636f726500006044820152fd5b828486346102e0576020918260031936011261115e578135918285526002845281852073ffffffffffffffffffffffffffffffffffffffff968760038301541690338203611ed35750877fe0c154d538f20c8d1aadcd299210daa7f0a434a5bf4a39795668b28b61ec6e965416918451927f68f1e99a00000000000000000000000000000000000000000000000000000000845287848681845afa938415611db5578593929189918b96611eb4575b508751948580927f9e4b35540000000000000000000000000000000000000000000000000000000082525afa928315611db5579085918a94611e8f575b5090611b5b910154828a5260068952868a2061274b565b8754927fffffffffffffffffffffffffffffffffffffffffffffffffffffffffffffffff92838501948511611e7c578a169086519a7f200d2ed2000000000000000000000000000000000000000000000000000000008c52898c8881865afa9b8c15611e72578b9c611e53575b5060028c1015611e4057896001809d149283611dbf575b505050611d5b575b5087528786528387209081548015611d48570190558555828552600284526000600583872082815582898201558260028201558760038201558284820155015560058452818520825190611c3a82611f60565b878154918284520154868301918183521590811591611d3e575b508015611d33575b8015611d29575b15611ce75784875260058652838720600080825590890155815196977f444a3a44058938b8969bdac08b1dda569100d49a708e17765e90dafd7be0933197908115611cdb578251918a52858a2001555b51918215611cd157505190865260058452818620555b51908152a180f35b9150519055611cc9565b50508051600355611cb3565b6064838786519162461bcd60e51b8352820152601260248201527f4b657920646f6573206e6f7420657869737400000000000000000000000000006044820152fd5b5082548514611c63565b506003548514611c5c565b9050151589611c54565b602489601187634e487b7160e01b835252fd5b803b156116e75788809160248851809481937f95bc9538000000000000000000000000000000000000000000000000000000008352818b8401525af18015611db55715611be757611dae90989198611f36565b9689611be7565b86513d8b823e3d90fd5b90919250878951809481937f2db31193000000000000000000000000000000000000000000000000000000008352165afa908115611e36578a91611e09575b5084108b8981611bdf565b90508881813d8311611e2f575b611e208183611fd0565b81010312610e1457518b611dfe565b503d611e16565b87513d8c823e3d90fd5b60248b602189634e487b7160e01b835252fd5b611e6b919c508a3d8c11610c1457610c068183611fd0565b9a8c611bc8565b88513d8d823e3d90fd5b60248a601188634e487b7160e01b835252fd5b611b5b92919450611eac908a3d8c11610488576104798183611fd0565b939091611b44565b611ecc919650823d8411610488576104798183611fd0565b948c611b07565b80878562461bcd60e51b60649452820152601160248201527f50415420646f65736e27742065786973740000000000000000000000000000006044820152fd5b6004359073ffffffffffffffffffffffffffffffffffffffff8216820361044957565b67ffffffffffffffff8111611f4a57604052565b634e487b7160e01b600052604160045260246000fd5b6040810190811067ffffffffffffffff821117611f4a57604052565b60c0810190811067ffffffffffffffff821117611f4a57604052565b6060810190811067ffffffffffffffff821117611f4a57604052565b60a0810190811067ffffffffffffffff821117611f4a57604052565b90601f7fffffffffffffffffffffffffffffffffffffffffffffffffffffffffffffffe0910116810190811067ffffffffffffffff821117611f4a57604052565b67ffffffffffffffff8111611f4a57601f017fffffffffffffffffffffffffffffffffffffffffffffffffffffffffffffffe01660200190565b1561205257565b608460405162461bcd60e51b815260206004820152602c60248201527f46756e6374696f6e206d7573742062652063616c6c6564207468726f7567682060448201527f64656c656761746563616c6c00000000000000000000000000000000000000006064820152fd5b156120c357565b608460405162461bcd60e51b815260206004820152602c60248201527f46756e6374696f6e206d7573742062652063616c6c6564207468726f7567682060448201527f6163746976652070726f787900000000000000000000000000000000000000006064820152fd5b803b156121955773ffffffffffffffffffffffffffffffffffffffff7f360894a13ba1a3210667c828492db98dca3e2076cc3735a920a3ca505d382bbc91167fffffffffffffffffffffffff0000000000000000000000000000000000000000825416179055565b608460405162461bcd60e51b815260206004820152602d60248201527f455243313936373a206e657720696d706c656d656e746174696f6e206973206e60448201527f6f74206120636f6e7472616374000000000000000000000000000000000000006064820152fd5b3d1561222a573d9061221082612011565b9161221e6040519384611fd0565b82523d6000602084013e565b606090565b919290156122905750815115612243575090565b3b1561224c5790565b606460405162461bcd60e51b815260206004820152601d60248201527f416464726573733a2063616c6c20746f206e6f6e2d636f6e74726163740000006044820152fd5b8251909150156122a35750805190602001fd5b6040519062461bcd60e51b825281602080600483015282519283602484015260005b848110612306575050507fffffffffffffffffffffffffffffffffffffffffffffffffffffffffffffffe0601f836000604480968601015201168101030190fd5b8181018301518682016044015285935082016122c5565b6040519061232a82611f7c565b8160a06000918281528260208201528260408201528260608201528260808201520152565b67ffffffffffffffff8111611f4a5760051b60200190565b805182101561237b5760209160051b010190565b634e487b7160e01b600052603260045260246000fd5b7fffffffffffffffffffffffffffffffffffffffffffffffffffffffffffffffff81146123be5760010190565b634e487b7160e01b600052601160045260246000fd5b90816020910312610449575173ffffffffffffffffffffffffffffffffffffffff811681036104495790565b919082039182116123be57565b90816020910312610449575160028110156104495790565b919082018092116123be57565b73ffffffffffffffffffffffffffffffffffffffff169061249960405161245881611f60565b6020938482527f5361666545524332303a206c6f772d6c6576656c2063616c6c206661696c6564858301526000808587829751910182855af16115f76121ff565b80519182159184831561251e575b5050509050156124b45750565b6084906040519062461bcd60e51b82526004820152602a60248201527f5361666545524332303a204552433230206f7065726174696f6e20646964206e60448201527f6f742073756363656564000000000000000000000000000000000000000000006064820152fd5b919381809450010312611254578201519081151582036102515750803880846124a7565b6004805482156126435760008381526005602052604091828220835184810181811067ffffffffffffffff82111761263057906020929186526001825492838352015492839101521590811591612626575b50801561261b575b8015612612575b6125cf578481156125c65760019455848252600560205280838320558152200155565b60035550505055565b606484602085519162461bcd60e51b8352820152601260248201527f4b657920616c72656164792065786973747300000000000000000000000000006044820152fd5b508085146125a3565b50600354851461259c565b9050151538612594565b602485604189634e487b7160e01b835252fd5b60648260206040519162461bcd60e51b8352820152601260248201527f4b65792063616e6e6f74206265205a45524f00000000000000000000000000006044820152fd5b805482101561237b5760005260206000200190600090565b805468010000000000000000811015611f4a576126c191600182018155612687565b61270557815160209283015190921b7fffffffffffffffffffffffffffffffffffffffffffffffffffffffff000000001663ffffffff92909216919091179055565b565b634e487b7160e01b600052600060045260246000fd5b9190917bffffffffffffffffffffffffffffffffffffffffffffffffffffffff808094169116019182116123be57565b63ffffffff908142169083156128b7577bffffffffffffffffffffffffffffffffffffffffffffffffffffffff93848111612873578416938154612793600184015482612400565b15612851577fffffffffffffffffffffffffffffffffffffffffffffffffffffffffffffffff81019081116123be576127cc9083612687565b50805490948116840361282257505050506127ee61270392825460201c61271b565b63ffffffff7fffffffffffffffffffffffffffffffffffffffffffffffffffffffff0000000083549260201b169116179055565b6128379192939450946127039560201c61271b565b6040519361284485611f60565b845216602083015261269f565b5050909150612703926040519261286784611f60565b8352602083015261269f565b606460405162461bcd60e51b815260206004820152601160248201527f416d6f756e7420697320746f6f206269670000000000000000000000000000006044820152fd5b606460405162461bcd60e51b815260206004820152601460248201527f416d6f756e742063616e2774206265207a65726f0000000000000000000000006044820152fd5b91909180546001820154906129108282612400565b1561298e577fffffffffffffffffffffffffffffffffffffffffffffffffffffffffffffffff948582019182116123be5761294c9183856129d2565b9290925460201c9482612961575b5050509190565b82939592019283116123be576129859261297a91612687565b505460201c90612400565b9138808061295a565b606460405162461bcd60e51b815260206004820152601160248201527f526571756573747320697320656d7074790000000000000000000000000000006044820152fd5b90939290916129e18186612425565b90600191821c936129f28582612687565b50965b828103612a055750505050509190565b875463ffffffff16858103612a1e575050505050509190565b8598509592949091939510600014612a745750838101809111612a5f57925b612a478385612425565b811c93612a548584612687565b5096939192906129f5565b60246000634e487b7160e01b81526011600452fd5b9392507fffffffffffffffffffffffffffffffffffffffffffffffffffffffffffffffff8101908111612a5f5791612a3d56fea2646970667358221220d5d83166b5a0997a6272c262b84edfc6d6586f9556c0437261028c86d095a21d64736f6c63430008110033",
  "devdoc": {
    "kind": "dev",
    "methods": {
      "proxiableUUID()": {
        "details": "Implementation of the ERC1822 {proxiableUUID} function. This returns the storage slot used by the implementation. It is used to validate the implementation's compatibility when performing an upgrade. IMPORTANT: A proxy pointing at a proxiable contract should not be considered proxiable itself, because this risks bricking a proxy that upgrades to it, by delegating to itself until out of gas. Thus it is critical that this function revert if invoked through a proxy. This is guaranteed by the `notDelegated` modifier."
      },
      "upgradeTo(address)": {
        "custom:oz-upgrades-unsafe-allow-reachable": "delegatecall",
        "details": "Upgrade the implementation of the proxy to `newImplementation`. Calls {_authorizeUpgrade}. Emits an {Upgraded} event."
      },
      "upgradeToAndCall(address,bytes)": {
        "custom:oz-upgrades-unsafe-allow-reachable": "delegatecall",
        "details": "Upgrade the implementation of the proxy to `newImplementation`, and subsequently execute the function call encoded in `data`. Calls {_authorizeUpgrade}. Emits an {Upgraded} event."
      }
    },
    "version": 1
  },
  "userdoc": {
    "kind": "user",
    "methods": {},
    "version": 1
  },
  "storageLayout": {
    "storage": [
      {
        "astId": 6668,
        "contract": "contracts/deal/WorkersModule.sol:WorkersModule",
        "label": "_patCount",
        "offset": 0,
        "slot": "0",
        "type": "t_uint256"
      },
      {
        "astId": 6673,
        "contract": "contracts/deal/WorkersModule.sol:WorkersModule",
        "label": "_ownersInfo",
        "offset": 0,
        "slot": "1",
        "type": "t_mapping(t_address,t_struct(OwnerInfo)6635_storage)"
      },
      {
        "astId": 6678,
        "contract": "contracts/deal/WorkersModule.sol:WorkersModule",
        "label": "_patByPATId",
        "offset": 0,
        "slot": "2",
        "type": "t_mapping(t_bytes32,t_struct(PAT)7740_storage)"
      },
      {
        "astId": 6681,
        "contract": "contracts/deal/WorkersModule.sol:WorkersModule",
        "label": "_patsIdsList",
        "offset": 0,
        "slot": "3",
        "type": "t_struct(Bytes32List)10237_storage"
      },
      {
        "astId": 6686,
        "contract": "contracts/deal/WorkersModule.sol:WorkersModule",
        "label": "_requests",
        "offset": 0,
        "slot": "6",
        "type": "t_mapping(t_address,t_struct(Requests)10542_storage)"
      },
      {
        "astId": 7392,
        "contract": "contracts/deal/WorkersModule.sol:WorkersModule",
        "label": "__gap",
        "offset": 0,
        "slot": "7",
        "type": "t_array(t_uint256)50_storage"
      }
    ],
    "types": {
      "t_address": {
        "encoding": "inplace",
        "label": "address",
        "numberOfBytes": "20"
      },
      "t_array(t_struct(Request)10547_storage)dyn_storage": {
        "base": "t_struct(Request)10547_storage",
        "encoding": "dynamic_array",
        "label": "struct WithdrawRequests.Request[]",
        "numberOfBytes": "32"
      },
      "t_array(t_uint256)50_storage": {
        "base": "t_uint256",
        "encoding": "inplace",
        "label": "uint256[50]",
        "numberOfBytes": "1600"
      },
      "t_bytes32": {
        "encoding": "inplace",
        "label": "bytes32",
        "numberOfBytes": "32"
      },
      "t_mapping(t_address,t_struct(OwnerInfo)6635_storage)": {
        "encoding": "mapping",
        "key": "t_address",
        "label": "mapping(address => struct WorkersModuleState.OwnerInfo)",
        "numberOfBytes": "32",
        "value": "t_struct(OwnerInfo)6635_storage"
      },
      "t_mapping(t_address,t_struct(Requests)10542_storage)": {
        "encoding": "mapping",
        "key": "t_address",
        "label": "mapping(address => struct WithdrawRequests.Requests)",
        "numberOfBytes": "32",
        "value": "t_struct(Requests)10542_storage"
      },
      "t_mapping(t_bytes32,t_struct(Element)10227_storage)": {
        "encoding": "mapping",
        "key": "t_bytes32",
        "label": "mapping(bytes32 => struct LinkedList.Element)",
        "numberOfBytes": "32",
        "value": "t_struct(Element)10227_storage"
      },
      "t_mapping(t_bytes32,t_struct(PAT)7740_storage)": {
        "encoding": "mapping",
        "key": "t_bytes32",
        "label": "mapping(bytes32 => struct PAT)",
        "numberOfBytes": "32",
        "value": "t_struct(PAT)7740_storage"
      },
      "t_struct(Bytes32List)10237_storage": {
        "encoding": "inplace",
        "label": "struct LinkedList.Bytes32List",
        "members": [
          {
            "astId": 10229,
            "contract": "contracts/deal/WorkersModule.sol:WorkersModule",
            "label": "_first",
            "offset": 0,
            "slot": "0",
            "type": "t_bytes32"
          },
          {
            "astId": 10231,
            "contract": "contracts/deal/WorkersModule.sol:WorkersModule",
            "label": "_last",
            "offset": 0,
            "slot": "1",
            "type": "t_bytes32"
          },
          {
            "astId": 10236,
            "contract": "contracts/deal/WorkersModule.sol:WorkersModule",
            "label": "_elements",
            "offset": 0,
            "slot": "2",
            "type": "t_mapping(t_bytes32,t_struct(Element)10227_storage)"
          }
        ],
        "numberOfBytes": "96"
      },
      "t_struct(Element)10227_storage": {
        "encoding": "inplace",
        "label": "struct LinkedList.Element",
        "members": [
          {
            "astId": 10224,
            "contract": "contracts/deal/WorkersModule.sol:WorkersModule",
            "label": "prev",
            "offset": 0,
            "slot": "0",
            "type": "t_bytes32"
          },
          {
            "astId": 10226,
            "contract": "contracts/deal/WorkersModule.sol:WorkersModule",
            "label": "next",
            "offset": 0,
            "slot": "1",
            "type": "t_bytes32"
          }
        ],
        "numberOfBytes": "64"
      },
      "t_struct(OwnerInfo)6635_storage": {
        "encoding": "inplace",
        "label": "struct WorkersModuleState.OwnerInfo",
        "members": [
          {
            "astId": 6631,
            "contract": "contracts/deal/WorkersModule.sol:WorkersModule",
            "label": "patCount",
            "offset": 0,
            "slot": "0",
            "type": "t_uint256"
          },
          {
            "astId": 6634,
            "contract": "contracts/deal/WorkersModule.sol:WorkersModule",
            "label": "patsIds",
            "offset": 0,
            "slot": "1",
            "type": "t_struct(Bytes32List)10237_storage"
          }
        ],
        "numberOfBytes": "128"
      },
      "t_struct(PAT)7740_storage": {
        "encoding": "inplace",
        "label": "struct PAT",
        "members": [
          {
            "astId": 7729,
            "contract": "contracts/deal/WorkersModule.sol:WorkersModule",
            "label": "id",
            "offset": 0,
            "slot": "0",
            "type": "t_bytes32"
          },
          {
            "astId": 7731,
            "contract": "contracts/deal/WorkersModule.sol:WorkersModule",
            "label": "peerId",
            "offset": 0,
            "slot": "1",
            "type": "t_bytes32"
          },
          {
            "astId": 7733,
            "contract": "contracts/deal/WorkersModule.sol:WorkersModule",
            "label": "workerId",
            "offset": 0,
            "slot": "2",
            "type": "t_bytes32"
          },
          {
            "astId": 7735,
            "contract": "contracts/deal/WorkersModule.sol:WorkersModule",
            "label": "owner",
            "offset": 0,
            "slot": "3",
            "type": "t_address"
          },
          {
            "astId": 7737,
            "contract": "contracts/deal/WorkersModule.sol:WorkersModule",
            "label": "collateral",
            "offset": 0,
            "slot": "4",
            "type": "t_uint256"
          },
          {
            "astId": 7739,
            "contract": "contracts/deal/WorkersModule.sol:WorkersModule",
            "label": "created",
            "offset": 0,
            "slot": "5",
            "type": "t_uint256"
          }
        ],
        "numberOfBytes": "192"
      },
      "t_struct(Request)10547_storage": {
        "encoding": "inplace",
        "label": "struct WithdrawRequests.Request",
        "members": [
          {
            "astId": 10544,
            "contract": "contracts/deal/WorkersModule.sol:WorkersModule",
            "label": "_createTimestamp",
            "offset": 0,
            "slot": "0",
            "type": "t_uint32"
          },
          {
            "astId": 10546,
            "contract": "contracts/deal/WorkersModule.sol:WorkersModule",
            "label": "_cumulative",
            "offset": 4,
            "slot": "0",
            "type": "t_uint224"
          }
        ],
        "numberOfBytes": "32"
      },
      "t_struct(Requests)10542_storage": {
        "encoding": "inplace",
        "label": "struct WithdrawRequests.Requests",
        "members": [
          {
            "astId": 10539,
            "contract": "contracts/deal/WorkersModule.sol:WorkersModule",
            "label": "_requests",
            "offset": 0,
            "slot": "0",
            "type": "t_array(t_struct(Request)10547_storage)dyn_storage"
          },
          {
            "astId": 10541,
            "contract": "contracts/deal/WorkersModule.sol:WorkersModule",
            "label": "_indexOffset",
            "offset": 0,
            "slot": "1",
            "type": "t_uint256"
          }
        ],
        "numberOfBytes": "64"
      },
      "t_uint224": {
        "encoding": "inplace",
        "label": "uint224",
        "numberOfBytes": "28"
      },
      "t_uint256": {
        "encoding": "inplace",
        "label": "uint256",
        "numberOfBytes": "32"
      },
      "t_uint32": {
        "encoding": "inplace",
        "label": "uint32",
        "numberOfBytes": "4"
      }
    }
  }
}