{"abi":[{"type":"function","name":"DOMAIN_SEPARATOR","inputs":[],"outputs":[{"name":"","type":"bytes32","internalType":"bytes32"}],"stateMutability":"view"},{"type":"function","name":"allowance","inputs":[{"name":"","type":"address","internalType":"address"},{"name":"","type":"address","internalType":"address"}],"outputs":[{"name":"","type":"uint256","internalType":"uint256"}],"stateMutability":"view"},{"type":"function","name":"approve","inputs":[{"name":"spender","type":"address","internalType":"address"},{"name":"amount","type":"uint256","internalType":"uint256"}],"outputs":[{"name":"","type":"bool","internalType":"bool"}],"stateMutability":"nonpayable"},{"type":"function","name":"balanceOf","inputs":[{"name":"","type":"address","internalType":"address"}],"outputs":[{"name":"","type":"uint256","internalType":"uint256"}],"stateMutability":"view"},{"type":"function","name":"decimals","inputs":[],"outputs":[{"name":"","type":"uint8","internalType":"uint8"}],"stateMutability":"view"},{"type":"function","name":"initialize","inputs":[{"name":"_name","type":"string","internalType":"string"},{"name":"_symbol","type":"string","internalType":"string"},{"name":"_decimals","type":"uint8","internalType":"uint8"}],"outputs":[],"stateMutability":"nonpayable"},{"type":"function","name":"name","inputs":[],"outputs":[{"name":"","type":"string","internalType":"string"}],"stateMutability":"view"},{"type":"function","name":"nonces","inputs":[{"name":"","type":"address","internalType":"address"}],"outputs":[{"name":"","type":"uint256","internalType":"uint256"}],"stateMutability":"view"},{"type":"function","name":"permit","inputs":[{"name":"owner","type":"address","internalType":"address"},{"name":"spender","type":"address","internalType":"address"},{"name":"value","type":"uint256","internalType":"uint256"},{"name":"deadline","type":"uint256","internalType":"uint256"},{"name":"v","type":"uint8","internalType":"uint8"},{"name":"r","type":"bytes32","internalType":"bytes32"},{"name":"s","type":"bytes32","internalType":"bytes32"}],"outputs":[],"stateMutability":"nonpayable"},{"type":"function","name":"symbol","inputs":[],"outputs":[{"name":"","type":"string","internalType":"string"}],"stateMutability":"view"},{"type":"function","name":"totalSupply","inputs":[],"outputs":[{"name":"","type":"uint256","internalType":"uint256"}],"stateMutability":"view"},{"type":"function","name":"transfer","inputs":[{"name":"to","type":"address","internalType":"address"},{"name":"amount","type":"uint256","internalType":"uint256"}],"outputs":[{"name":"","type":"bool","internalType":"bool"}],"stateMutability":"nonpayable"},{"type":"function","name":"transferFrom","inputs":[{"name":"from","type":"address","internalType":"address"},{"name":"to","type":"address","internalType":"address"},{"name":"amount","type":"uint256","internalType":"uint256"}],"outputs":[{"name":"","type":"bool","internalType":"bool"}],"stateMutability":"nonpayable"},{"type":"event","name":"Approval","inputs":[{"name":"owner","type":"address","indexed":true,"internalType":"address"},{"name":"spender","type":"address","indexed":true,"internalType":"address"},{"name":"amount","type":"uint256","indexed":false,"internalType":"uint256"}],"anonymous":false},{"type":"event","name":"Transfer","inputs":[{"name":"from","type":"address","indexed":true,"internalType":"address"},{"name":"to","type":"address","indexed":true,"internalType":"address"},{"name":"amount","type":"uint256","indexed":false,"internalType":"uint256"}],"anonymous":false}],"bytecode":{"object":"0x608060405234801561001057600080fd5b50611d41806100206000396000f3fe608060405234801561001057600080fd5b50600436106100af5760003560e01c806306fdde03146100b4578063095ea7b3146100d25780631624f6c61461010257806318160ddd1461011e57806323b872dd1461013c578063313ce5671461016c5780633644e5151461018a57806370a08231146101a85780637ecebe00146101d857806395d89b4114610208578063a9059cbb14610226578063d505accf14610256578063dd62ed3e14610272575b600080fd5b6100bc6102a2565b6040516100c99190610f43565b60405180910390f35b6100ec60048036038101906100e7919061100d565b610330565b6040516100f99190611068565b60405180910390f35b61011c600480360381019061011791906111f1565b610422565b005b6101266104e9565b604051610133919061128b565b60405180910390f35b610156600480360381019061015191906112a6565b6104ef565b6040516101639190611068565b60405180910390f35b61017461078e565b6040516101819190611308565b60405180910390f35b6101926107a1565b60405161019f919061133c565b60405180910390f35b6101c260048036038101906101bd9190611357565b6107c9565b6040516101cf919061128b565b60405180910390f35b6101f260048036038101906101ed9190611357565b6107e1565b6040516101ff919061128b565b60405180910390f35b6102106107f9565b60405161021d9190610f43565b60405180910390f35b610240600480360381019061023b919061100d565b610887565b60405161024d9190611068565b60405180910390f35b610270600480360381019061026b91906113b0565b610a10565b005b61028c60048036038101906102879190611452565b610d0f565b604051610299919061128b565b60405180910390f35b600080546102af906114c1565b80601f01602080910402602001604051908101604052809291908181526020018280546102db906114c1565b80156103285780601f106102fd57610100808354040283529160200191610328565b820191906000526020600020905b81548152906001019060200180831161030b57829003601f168201915b505050505081565b600081600560003373ffffffffffffffffffffffffffffffffffffffff1673ffffffffffffffffffffffffffffffffffffffff16815260200190815260200160002060008573ffffffffffffffffffffffffffffffffffffffff1673ffffffffffffffffffffffffffffffffffffffff168152602001908152602001600020819055508273ffffffffffffffffffffffffffffffffffffffff163373ffffffffffffffffffffffffffffffffffffffff167f8c5be1e5ebec7d5bd14f71427d1e84f3dd0314c0f7b2291e5b200ac8c7c3b92584604051610410919061128b565b60405180910390a36001905092915050565b600960009054906101000a900460ff1615610472576040517f08c379a00000000000000000000000000000000000000000000000000000000081526004016104699061153e565b60405180910390fd5b8260009081610481919061170a565b508160019081610491919061170a565b5080600260006101000a81548160ff021916908360ff1602179055506104b5610d34565b6006819055506104c3610d57565b6007819055506001600960006101000a81548160ff021916908315150217905550505050565b60035481565b600080600560008673ffffffffffffffffffffffffffffffffffffffff1673ffffffffffffffffffffffffffffffffffffffff16815260200190815260200160002060003373ffffffffffffffffffffffffffffffffffffffff1673ffffffffffffffffffffffffffffffffffffffff1681526020019081526020016000205490506000198114610605576105848184610dea565b600560008773ffffffffffffffffffffffffffffffffffffffff1673ffffffffffffffffffffffffffffffffffffffff16815260200190815260200160002060003373ffffffffffffffffffffffffffffffffffffffff1673ffffffffffffffffffffffffffffffffffffffff168152602001908152602001600020819055505b61064e600460008773ffffffffffffffffffffffffffffffffffffffff1673ffffffffffffffffffffffffffffffffffffffff1681526020019081526020016000205484610dea565b600460008773ffffffffffffffffffffffffffffffffffffffff1673ffffffffffffffffffffffffffffffffffffffff168152602001908152602001600020819055506106da600460008673ffffffffffffffffffffffffffffffffffffffff1673ffffffffffffffffffffffffffffffffffffffff1681526020019081526020016000205484610e43565b600460008673ffffffffffffffffffffffffffffffffffffffff1673ffffffffffffffffffffffffffffffffffffffff168152602001908152602001600020819055508373ffffffffffffffffffffffffffffffffffffffff168573ffffffffffffffffffffffffffffffffffffffff167fddf252ad1be2c89b69c2b068fc378daa952ba7f163c4a11628f55a4df523b3ef8560405161077a919061128b565b60405180910390a360019150509392505050565b600260009054906101000a900460ff1681565b60006006546107ae610d34565b146107c0576107bb610d57565b6107c4565b6007545b905090565b60046020528060005260406000206000915090505481565b60086020528060005260406000206000915090505481565b60018054610806906114c1565b80601f0160208091040260200160405190810160405280929190818152602001828054610832906114c1565b801561087f5780601f106108545761010080835404028352916020019161087f565b820191906000526020600020905b81548152906001019060200180831161086257829003601f168201915b505050505081565b60006108d2600460003373ffffffffffffffffffffffffffffffffffffffff1673ffffffffffffffffffffffffffffffffffffffff1681526020019081526020016000205483610dea565b600460003373ffffffffffffffffffffffffffffffffffffffff1673ffffffffffffffffffffffffffffffffffffffff1681526020019081526020016000208190555061095e600460008573ffffffffffffffffffffffffffffffffffffffff1673ffffffffffffffffffffffffffffffffffffffff1681526020019081526020016000205483610e43565b600460008573ffffffffffffffffffffffffffffffffffffffff1673ffffffffffffffffffffffffffffffffffffffff168152602001908152602001600020819055508273ffffffffffffffffffffffffffffffffffffffff163373ffffffffffffffffffffffffffffffffffffffff167fddf252ad1be2c89b69c2b068fc378daa952ba7f163c4a11628f55a4df523b3ef846040516109fe919061128b565b60405180910390a36001905092915050565b42841015610a53576040517f08c379a0000000000000000000000000000000000000000000000000000000008152600401610a4a90611828565b60405180910390fd5b60006001610a5f6107a1565b7f6e71edae12b1b97f4d1f60370fef10105fa2faae0126114a169c64845d6126c98a8a8a600860008f73ffffffffffffffffffffffffffffffffffffffff1673ffffffffffffffffffffffffffffffffffffffff1681526020019081526020016000206000815480929190610ad390611877565b919050558b604051602001610aed969594939291906118ce565b60405160208183030381529060405280519060200120604051602001610b149291906119a7565b6040516020818303038152906040528051906020012085858560405160008152602001604052604051610b4a94939291906119de565b6020604051602081039080840390855afa158015610b6c573d6000803e3d6000fd5b505050602060405103519050600073ffffffffffffffffffffffffffffffffffffffff168173ffffffffffffffffffffffffffffffffffffffff1614158015610be057508773ffffffffffffffffffffffffffffffffffffffff168173ffffffffffffffffffffffffffffffffffffffff16145b610c1f576040517f08c379a0000000000000000000000000000000000000000000000000000000008152600401610c1690611a6f565b60405180910390fd5b85600560008373ffffffffffffffffffffffffffffffffffffffff1673ffffffffffffffffffffffffffffffffffffffff16815260200190815260200160002060008973ffffffffffffffffffffffffffffffffffffffff1673ffffffffffffffffffffffffffffffffffffffff168152602001908152602001600020819055508673ffffffffffffffffffffffffffffffffffffffff168873ffffffffffffffffffffffffffffffffffffffff167f8c5be1e5ebec7d5bd14f71427d1e84f3dd0314c0f7b2291e5b200ac8c7c3b92588604051610cfd919061128b565b60405180910390a35050505050505050565b6005602052816000526040600020602052806000526040600020600091509150505481565b6000610ea9610ea19050610ea9819050610d508163ffffffff16565b9250505090565b60007f8b73c3c69bb8fe3d512ecc4cf759cc79239f7b179b0ffacaa9a75d522b39400f6000604051610d899190611b32565b60405180910390207fc89efdaa54c0f20c7adf612882df0950f5a951637e0307cdcb4c672f298b8bc6610dba610d34565b30604051602001610dcf959493929190611b49565b60405160208183030381529060405280519060200120905090565b600081831015610e2f576040517f08c379a0000000000000000000000000000000000000000000000000000000008152600401610e2690611be8565b60405180910390fd5b8183610e3b9190611c08565b905092915050565b6000808284610e529190611c3c565b905083811015610e97576040517f08c379a0000000000000000000000000000000000000000000000000000000008152600401610e8e90611cbc565b60405180910390fd5b8091505092915050565b600046905090565b610eb1611cdc565b565b600081519050919050565b600082825260208201905092915050565b60005b83811015610eed578082015181840152602081019050610ed2565b60008484015250505050565b6000601f19601f8301169050919050565b6000610f1582610eb3565b610f1f8185610ebe565b9350610f2f818560208601610ecf565b610f3881610ef9565b840191505092915050565b60006020820190508181036000830152610f5d8184610f0a565b905092915050565b6000604051905090565b600080fd5b600080fd5b600073ffffffffffffffffffffffffffffffffffffffff82169050919050565b6000610fa482610f79565b9050919050565b610fb481610f99565b8114610fbf57600080fd5b50565b600081359050610fd181610fab565b92915050565b6000819050919050565b610fea81610fd7565b8114610ff557600080fd5b50565b60008135905061100781610fe1565b92915050565b6000806040838503121561102457611023610f6f565b5b600061103285828601610fc2565b925050602061104385828601610ff8565b9150509250929050565b60008115159050919050565b6110628161104d565b82525050565b600060208201905061107d6000830184611059565b92915050565b600080fd5b600080fd5b7f4e487b7100000000000000000000000000000000000000000000000000000000600052604160045260246000fd5b6110c582610ef9565b810181811067ffffffffffffffff821117156110e4576110e361108d565b5b80604052505050565b60006110f7610f65565b905061110382826110bc565b919050565b600067ffffffffffffffff8211156111235761112261108d565b5b61112c82610ef9565b9050602081019050919050565b82818337600083830152505050565b600061115b61115684611108565b6110ed565b90508281526020810184848401111561117757611176611088565b5b611182848285611139565b509392505050565b600082601f83011261119f5761119e611083565b5b81356111af848260208601611148565b91505092915050565b600060ff82169050919050565b6111ce816111b8565b81146111d957600080fd5b50565b6000813590506111eb816111c5565b92915050565b60008060006060848603121561120a57611209610f6f565b5b600084013567ffffffffffffffff81111561122857611227610f74565b5b6112348682870161118a565b935050602084013567ffffffffffffffff81111561125557611254610f74565b5b6112618682870161118a565b9250506040611272868287016111dc565b9150509250925092565b61128581610fd7565b82525050565b60006020820190506112a0600083018461127c565b92915050565b6000806000606084860312156112bf576112be610f6f565b5b60006112cd86828701610fc2565b93505060206112de86828701610fc2565b92505060406112ef86828701610ff8565b9150509250925092565b611302816111b8565b82525050565b600060208201905061131d60008301846112f9565b92915050565b6000819050919050565b61133681611323565b82525050565b6000602082019050611351600083018461132d565b92915050565b60006020828403121561136d5761136c610f6f565b5b600061137b84828501610fc2565b91505092915050565b61138d81611323565b811461139857600080fd5b50565b6000813590506113aa81611384565b92915050565b600080600080600080600060e0888a0312156113cf576113ce610f6f565b5b60006113dd8a828b01610fc2565b97505060206113ee8a828b01610fc2565b96505060406113ff8a828b01610ff8565b95505060606114108a828b01610ff8565b94505060806114218a828b016111dc565b93505060a06114328a828b0161139b565b92505060c06114438a828b0161139b565b91505092959891949750929550565b6000806040838503121561146957611468610f6f565b5b600061147785828601610fc2565b925050602061148885828601610fc2565b9150509250929050565b7f4e487b7100000000000000000000000000000000000000000000000000000000600052602260045260246000fd5b600060028204905060018216806114d957607f821691505b6020821081036114ec576114eb611492565b5b50919050565b7f414c52454144595f494e495449414c495a454400000000000000000000000000600082015250565b6000611528601383610ebe565b9150611533826114f2565b602082019050919050565b600060208201905081810360008301526115578161151b565b9050919050565b60008190508160005260206000209050919050565b60006020601f8301049050919050565b600082821b905092915050565b6000600883026115c07fffffffffffffffffffffffffffffffffffffffffffffffffffffffffffffffff82611583565b6115ca8683611583565b95508019841693508086168417925050509392505050565b6000819050919050565b60006116076116026115fd84610fd7565b6115e2565b610fd7565b9050919050565b6000819050919050565b611621836115ec565b61163561162d8261160e565b848454611590565b825550505050565b600090565b61164a61163d565b611655818484611618565b505050565b5b818110156116795761166e600082611642565b60018101905061165b565b5050565b601f8211156116be5761168f8161155e565b61169884611573565b810160208510156116a7578190505b6116bb6116b385611573565b83018261165a565b50505b505050565b600082821c905092915050565b60006116e1600019846008026116c3565b1980831691505092915050565b60006116fa83836116d0565b9150826002028217905092915050565b61171382610eb3565b67ffffffffffffffff81111561172c5761172b61108d565b5b61173682546114c1565b61174182828561167d565b600060209050601f8311600181146117745760008415611762578287015190505b61176c85826116ee565b8655506117d4565b601f1984166117828661155e565b60005b828110156117aa57848901518255600182019150602085019450602081019050611785565b868310156117c757848901516117c3601f8916826116d0565b8355505b6001600288020188555050505b505050505050565b7f5045524d49545f444541444c494e455f45585049524544000000000000000000600082015250565b6000611812601783610ebe565b915061181d826117dc565b602082019050919050565b6000602082019050818103600083015261184181611805565b9050919050565b7f4e487b7100000000000000000000000000000000000000000000000000000000600052601160045260246000fd5b600061188282610fd7565b91507fffffffffffffffffffffffffffffffffffffffffffffffffffffffffffffffff82036118b4576118b3611848565b5b600182019050919050565b6118c881610f99565b82525050565b600060c0820190506118e3600083018961132d565b6118f060208301886118bf565b6118fd60408301876118bf565b61190a606083018661127c565b611917608083018561127c565b61192460a083018461127c565b979650505050505050565b600081905092915050565b7f1901000000000000000000000000000000000000000000000000000000000000600082015250565b600061197060028361192f565b915061197b8261193a565b600282019050919050565b6000819050919050565b6119a161199c82611323565b611986565b82525050565b60006119b282611963565b91506119be8285611990565b6020820191506119ce8284611990565b6020820191508190509392505050565b60006080820190506119f3600083018761132d565b611a0060208301866112f9565b611a0d604083018561132d565b611a1a606083018461132d565b95945050505050565b7f494e56414c49445f5349474e4552000000000000000000000000000000000000600082015250565b6000611a59600e83610ebe565b9150611a6482611a23565b602082019050919050565b60006020820190508181036000830152611a8881611a4c565b9050919050565b600081905092915050565b60008190508160005260206000209050919050565b60008154611abc816114c1565b611ac68186611a8f565b94506001821660008114611ae15760018114611af657611b29565b60ff1983168652811515820286019350611b29565b611aff85611a9a565b60005b83811015611b2157815481890152600182019150602081019050611b02565b838801955050505b50505092915050565b6000611b3e8284611aaf565b915081905092915050565b600060a082019050611b5e600083018861132d565b611b6b602083018761132d565b611b78604083018661132d565b611b85606083018561127c565b611b9260808301846118bf565b9695505050505050565b7f45524332303a207375627472616374696f6e20756e646572666c6f7700000000600082015250565b6000611bd2601c83610ebe565b9150611bdd82611b9c565b602082019050919050565b60006020820190508181036000830152611c0181611bc5565b9050919050565b6000611c1382610fd7565b9150611c1e83610fd7565b9250828203905081811115611c3657611c35611848565b5b92915050565b6000611c4782610fd7565b9150611c5283610fd7565b9250828201905080821115611c6a57611c69611848565b5b92915050565b7f45524332303a206164646974696f6e206f766572666c6f770000000000000000600082015250565b6000611ca6601883610ebe565b9150611cb182611c70565b602082019050919050565b60006020820190508181036000830152611cd581611c99565b9050919050565b7f4e487b7100000000000000000000000000000000000000000000000000000000600052605160045260246000fdfea26469706673582212201894f0588236aece27f454636ac42c158932afc0247aa1069a9a65016d65300064736f6c63430008180033","linkReferences":{}},"methodIdentifiers":{"DOMAIN_SEPARATOR()":"3644e515","allowance(address,address)":"dd62ed3e","approve(address,uint256)":"095ea7b3","balanceOf(address)":"70a08231","decimals()":"313ce567","initialize(string,string,uint8)":"1624f6c6","name()":"06fdde03","nonces(address)":"7ecebe00","permit(address,address,uint256,uint256,uint8,bytes32,bytes32)":"d505accf","symbol()":"95d89b41","totalSupply()":"18160ddd","transfer(address,uint256)":"a9059cbb","transferFrom(address,address,uint256)":"23b872dd"},"devdoc":{"version":1,"kind":"dev","details":"Forked from: https://github.com/transmissions11/solmate/blob/0384dbaaa4fcb5715738a9254a7c0a4cb62cf458/src/tokens/ERC20.sol","methods":{"initialize(string,string,uint8)":{"details":"To hide constructor warnings across solc versions due to different constructor visibility requirements and syntaxes, we add an initialization function that can be called only once."}}},"id":29}