{
  "address": "0x95589Ce9145920a228f23E751AA1CAF7948790BB",
  "abi": [
    {
      "inputs": [
        {
          "internalType": "string",
          "name": "aquaVMAddress_",
          "type": "string"
        }
      ],
      "stateMutability": "nonpayable",
      "type": "constructor"
    },
    {
      "anonymous": false,
      "inputs": [
        {
          "indexed": false,
          "internalType": "bytes32",
          "name": "hash",
          "type": "bytes32"
        },
        {
          "indexed": false,
          "internalType": "string",
          "name": "air",
          "type": "string"
        },
        {
          "indexed": false,
          "internalType": "string",
          "name": "prevData",
          "type": "string"
        },
        {
          "indexed": false,
          "internalType": "string",
          "name": "params",
          "type": "string"
        },
        {
          "indexed": false,
          "internalType": "string",
          "name": "callResults",
          "type": "string"
        }
      ],
      "name": "VerifyParticle",
      "type": "event"
    },
    {
      "inputs": [],
      "name": "aquaVMAddress",
      "outputs": [
        {
          "internalType": "string",
          "name": "",
          "type": "string"
        }
      ],
      "stateMutability": "view",
      "type": "function"
    },
    {
      "inputs": [],
      "name": "aquaVMImplicitAddress",
      "outputs": [
        {
          "internalType": "address",
          "name": "",
          "type": "address"
        }
      ],
      "stateMutability": "view",
      "type": "function"
    },
    {
      "inputs": [
        {
          "internalType": "bytes32",
          "name": "particleHash",
          "type": "bytes32"
        }
      ],
      "name": "callback",
      "outputs": [],
      "stateMutability": "nonpayable",
      "type": "function"
    },
    {
      "inputs": [],
      "name": "near",
      "outputs": [
        {
          "internalType": "bool",
          "name": "initialized",
          "type": "bool"
        },
        {
          "internalType": "contract IERC20",
          "name": "wNEAR",
          "type": "address"
        }
      ],
      "stateMutability": "view",
      "type": "function"
    },
    {
      "inputs": [
        {
          "internalType": "bytes32",
          "name": "",
          "type": "bytes32"
        }
      ],
      "name": "particlesStatuses",
      "outputs": [
        {
          "internalType": "enum AquaProxy.ParticleStatus",
          "name": "",
          "type": "uint8"
        }
      ],
      "stateMutability": "view",
      "type": "function"
    },
    {
      "inputs": [],
      "name": "selfReprsentativeImplicitAddress",
      "outputs": [
        {
          "internalType": "address",
          "name": "",
          "type": "address"
        }
      ],
      "stateMutability": "view",
      "type": "function"
    },
    {
      "inputs": [
        {
          "components": [
            {
              "internalType": "string",
              "name": "air",
              "type": "string"
            },
            {
              "internalType": "string",
              "name": "prevData",
              "type": "string"
            },
            {
              "internalType": "string",
              "name": "params",
              "type": "string"
            },
            {
              "internalType": "string",
              "name": "callResults",
              "type": "string"
            }
          ],
          "internalType": "struct AquaProxy.Particle",
          "name": "particle",
          "type": "tuple"
        }
      ],
      "name": "verifyParticle",
      "outputs": [],
      "stateMutability": "nonpayable",
      "type": "function"
    }
  ],
  "transactionHash": "0xb2fcd9ced1212d63d9691f571fca4852f4d237e9cbed4273aebea3baa0c07c63",
  "args": [
    "dev-1666986633374-40574705536935"
  ],
  "numDeployments": 1,
  "solcInputHash": "9d61e53273f3e0ca6e223a4e5bfc299a",
  "bytecode": "0x60c06040523480156200001157600080fd5b50604051620028353803806200283583398181016040528101906200003791906200043f565b8060019081620000489190620006db565b5073f7478EAeB7E4b09f024cF69B71DAf9fD4a9fC7dC63cb4500e760016040518263ffffffff1660e01b815260040162000083919062000863565b602060405180830381865af4158015620000a1573d6000803e3d6000fd5b505050506040513d601f19601f82011682018060405250810190620000c79190620008ec565b73ffffffffffffffffffffffffffffffffffffffff1660a08173ffffffffffffffffffffffffffffffffffffffff168152505073f7478EAeB7E4b09f024cF69B71DAf9fD4a9fC7dC6336a80dbc734861825e75ab14553e5af711ebbe6873d369d1466040518263ffffffff1660e01b81526004016200014791906200097f565b6040805180830381865af415801562000164573d6000803e3d6000fd5b505050506040513d601f19601f820116820180604052508101906200018a919062000a7c565b6000808201518160000160006101000a81548160ff02191690831515021790555060208201518160000160016101000a81548173ffffffffffffffffffffffffffffffffffffffff021916908373ffffffffffffffffffffffffffffffffffffffff16021790555090505073f7478EAeB7E4b09f024cF69B71DAf9fD4a9fC7dC63a33598bf306040518263ffffffff1660e01b81526004016200022e919062000abf565b602060405180830381865af41580156200024c573d6000803e3d6000fd5b505050506040513d601f19601f82011682018060405250810190620002729190620008ec565b73ffffffffffffffffffffffffffffffffffffffff1660808173ffffffffffffffffffffffffffffffffffffffff16815250505062000adc565b6000604051905090565b600080fd5b600080fd5b600080fd5b600080fd5b6000601f19601f8301169050919050565b7f4e487b7100000000000000000000000000000000000000000000000000000000600052604160045260246000fd5b6200031582620002ca565b810181811067ffffffffffffffff82111715620003375762000336620002db565b5b80604052505050565b60006200034c620002ac565b90506200035a82826200030a565b919050565b600067ffffffffffffffff8211156200037d576200037c620002db565b5b6200038882620002ca565b9050602081019050919050565b60005b83811015620003b557808201518184015260208101905062000398565b60008484015250505050565b6000620003d8620003d2846200035f565b62000340565b905082815260208101848484011115620003f757620003f6620002c5565b5b6200040484828562000395565b509392505050565b600082601f830112620004245762000423620002c0565b5b815162000436848260208601620003c1565b91505092915050565b600060208284031215620004585762000457620002b6565b5b600082015167ffffffffffffffff811115620004795762000478620002bb565b5b62000487848285016200040c565b91505092915050565b600081519050919050565b7f4e487b7100000000000000000000000000000000000000000000000000000000600052602260045260246000fd5b60006002820490506001821680620004e357607f821691505b602082108103620004f957620004f86200049b565b5b50919050565b60008190508160005260206000209050919050565b60006020601f8301049050919050565b600082821b905092915050565b600060088302620005637fffffffffffffffffffffffffffffffffffffffffffffffffffffffffffffffff8262000524565b6200056f868362000524565b95508019841693508086168417925050509392505050565b6000819050919050565b6000819050919050565b6000620005bc620005b6620005b08462000587565b62000591565b62000587565b9050919050565b6000819050919050565b620005d8836200059b565b620005f0620005e782620005c3565b84845462000531565b825550505050565b600090565b62000607620005f8565b62000614818484620005cd565b505050565b5b818110156200063c5762000630600082620005fd565b6001810190506200061a565b5050565b601f8211156200068b576200065581620004ff565b620006608462000514565b8101602085101562000670578190505b620006886200067f8562000514565b83018262000619565b50505b505050565b600082821c905092915050565b6000620006b06000198460080262000690565b1980831691505092915050565b6000620006cb83836200069d565b9150826002028217905092915050565b620006e68262000490565b67ffffffffffffffff811115620007025762000701620002db565b5b6200070e8254620004ca565b6200071b82828562000640565b600060209050601f8311600181146200075357600084156200073e578287015190505b6200074a8582620006bd565b865550620007ba565b601f1984166200076386620004ff565b60005b828110156200078d5784890151825560018201915060208501945060208101905062000766565b86831015620007ad5784890151620007a9601f8916826200069d565b8355505b6001600288020188555050505b505050505050565b600082825260208201905092915050565b60008154620007e281620004ca565b620007ee8186620007c2565b945060018216600081146200080c576001811462000823576200085a565b60ff1983168652811515602002860193506200085a565b6200082e85620004ff565b60005b83811015620008525781548189015260018201915060208101905062000831565b808801955050505b50505092915050565b600060208201905081810360008301526200087f8184620007d3565b905092915050565b600073ffffffffffffffffffffffffffffffffffffffff82169050919050565b6000620008b48262000887565b9050919050565b620008c681620008a7565b8114620008d257600080fd5b50565b600081519050620008e681620008bb565b92915050565b600060208284031215620009055762000904620002b6565b5b60006200091584828501620008d5565b91505092915050565b60006200093f62000939620009338462000887565b62000591565b62000887565b9050919050565b600062000953826200091e565b9050919050565b6000620009678262000946565b9050919050565b62000979816200095a565b82525050565b60006020820190506200099660008301846200096e565b92915050565b600080fd5b60008115159050919050565b620009b881620009a1565b8114620009c457600080fd5b50565b600081519050620009d881620009ad565b92915050565b6000620009eb82620008a7565b9050919050565b620009fd81620009de565b811462000a0957600080fd5b50565b60008151905062000a1d81620009f2565b92915050565b60006040828403121562000a3c5762000a3b6200099c565b5b62000a48604062000340565b9050600062000a5a84828501620009c7565b600083015250602062000a708482850162000a0c565b60208301525092915050565b60006040828403121562000a955762000a94620002b6565b5b600062000aa58482850162000a23565b91505092915050565b62000ab981620008a7565b82525050565b600060208201905062000ad6600083018462000aae565b92915050565b60805160a051611d2c62000b0960003960006101650152600081816101a901526108ec0152611d2c6000f3fe608060405234801561001057600080fd5b506004361061007d5760003560e01c806390e796211161005b57806390e79621146100ee578063a689408c1461010c578063df13994e14610128578063e602af76146101445761007d565b80634261bab7146100825780634344767e146100a05780637b4dc7a7146100d0575b600080fd5b61008a610163565b6040516100979190610bac565b60405180910390f35b6100ba60048036038101906100b59190610c11565b610187565b6040516100c79190610cb5565b60405180910390f35b6100d86101a7565b6040516100e59190610bac565b60405180910390f35b6100f66101cb565b6040516101039190610d60565b60405180910390f35b61012660048036038101906101219190610da6565b610259565b005b610142600480360381019061013d9190610c11565b6108ea565b005b61014c610b2c565b60405161015a929190610e69565b60405180910390f35b7f000000000000000000000000000000000000000000000000000000000000000081565b60026020528060005260406000206000915054906101000a900460ff1681565b7f000000000000000000000000000000000000000000000000000000000000000081565b600180546101d890610ec1565b80601f016020809104026020016040519081016040528092919081815260200182805461020490610ec1565b80156102515780601f1061022657610100808354040283529160200191610251565b820191906000526020600020905b81548152906001019060200180831161023457829003601f168201915b505050505081565b600081806000019061026b9190610f01565b83806020019061027b9190610f01565b85806040019061028b9190610f01565b87806060019061029b9190610f01565b6040516020016102b2989796959493929190610fa3565b604051602081830303815290604052805190602001209050600060038111156102de576102dd610c3e565b5b6002600083815260200190815260200160002060009054906101000a900460ff16600381111561031157610310610c3e565b5b14610351576040517f08c379a000000000000000000000000000000000000000000000000000000000815260040161034890611035565b60405180910390fd5b60008073f7478EAeB7E4b09f024cF69B71DAf9fD4a9fC7dC63925be54d90916001736b1A854C0A2Aec23357d117BDB680184671833Cb6312496a1b88806000019061039c9190610f01565b6040518363ffffffff1660e01b81526004016103b9929190611093565b600060405180830381865af41580156103d6573d6000803e3d6000fd5b505050506040513d6000823e3d601f19601f820116820180604052508101906103ff91906111dd565b736b1A854C0A2Aec23357d117BDB680184671833Cb6312496a1b8980602001906104299190610f01565b6040518363ffffffff1660e01b8152600401610446929190611093565b600060405180830381865af4158015610463573d6000803e3d6000fd5b505050506040513d6000823e3d601f19601f8201168201806040525081019061048c91906111dd565b736b1A854C0A2Aec23357d117BDB680184671833Cb6312496a1b8a80604001906104b69190610f01565b6040518363ffffffff1660e01b81526004016104d3929190611093565b600060405180830381865af41580156104f0573d6000803e3d6000fd5b505050506040513d6000823e3d601f19601f8201168201806040525081019061051991906111dd565b736b1A854C0A2Aec23357d117BDB680184671833Cb6312496a1b8b80606001906105439190610f01565b6040518363ffffffff1660e01b8152600401610560929190611093565b600060405180830381865af415801561057d573d6000803e3d6000fd5b505050506040513d6000823e3d601f19601f820116820180604052508101906105a691906111dd565b6040516020016105b9949392919061126d565b6040516020818303038152906040526000651b48eb57e0006040518663ffffffff1660e01b81526004016105f195949392919061145b565b600060405180830381865af415801561060e573d6000803e3d6000fd5b505050506040513d6000823e3d601f19601f8201168201806040525081019061063791906116b2565b905060008073f7478EAeB7E4b09f024cF69B71DAf9fD4a9fC7dC6331b0e0e490913063df13994e60e01b87604051602401610672919061170a565b604051602081830303815290604052907bffffffffffffffffffffffffffffffffffffffffffffffffffffffff19166020820180517bffffffffffffffffffffffffffffffffffffffffffffffffffffffff83818316178352505050506000651b48eb57e0006040518663ffffffff1660e01b81526004016106f8959493929190611734565b600060405180830381865af4158015610715573d6000803e3d6000fd5b505050506040513d6000823e3d601f19601f8201168201806040525081019061073e91906116b2565b90508173f7478EAeB7E4b09f024cF69B71DAf9fD4a9fC7dC63987cbd719091836040518363ffffffff1660e01b815260040161077b9291906118c4565b600060405180830381865af4158015610798573d6000803e3d6000fd5b505050506040513d6000823e3d601f19601f820116820180604052508101906107c19190611983565b73f7478EAeB7E4b09f024cF69B71DAf9fD4a9fC7dC6372e3f69990916040518263ffffffff1660e01b81526004016107f99190611a94565b60006040518083038186803b15801561081157600080fd5b505af4158015610825573d6000803e3d6000fd5b5050505060016002600085815260200190815260200160002060006101000a81548160ff021916908360038111156108605761085f610c3e565b5b02179055507f1a0dda9a5e7155569c5ea66d5a71404b69149aae44ee8940fefea3053524d1e3838580600001906108979190610f01565b8780602001906108a79190610f01565b8980604001906108b79190610f01565b8b80606001906108c79190610f01565b6040516108dc99989796959493929190611ae3565b60405180910390a150505050565b7f000000000000000000000000000000000000000000000000000000000000000073ffffffffffffffffffffffffffffffffffffffff163373ffffffffffffffffffffffffffffffffffffffff1614610978576040517f08c379a000000000000000000000000000000000000000000000000000000000815260040161096f90611ba6565b60405180910390fd5b6001600381111561098c5761098b610c3e565b5b6002600083815260200190815260200160002060009054906101000a900460ff1660038111156109bf576109be610c3e565b5b146109ff576040517f08c379a00000000000000000000000000000000000000000000000000000000081526004016109f690611035565b60405180910390fd5b60016002811115610a1357610a12610c3e565b5b73f7478EAeB7E4b09f024cF69B71DAf9fD4a9fC7dC6310cdb49360006040518263ffffffff1660e01b8152600401610a4b9190611c01565b600060405180830381865af4158015610a68573d6000803e3d6000fd5b505050506040513d6000823e3d601f19601f82011682018060405250810190610a919190611cad565b600001516002811115610aa757610aa6610c3e565b5b14610aed5760036002600083815260200190815260200160002060006101000a81548160ff02191690836003811115610ae357610ae2610c3e565b5b0217905550610b29565b600280600083815260200190815260200160002060006101000a81548160ff02191690836003811115610b2357610b22610c3e565b5b02179055505b50565b60008060000160009054906101000a900460ff16908060000160019054906101000a900473ffffffffffffffffffffffffffffffffffffffff16905082565b600073ffffffffffffffffffffffffffffffffffffffff82169050919050565b6000610b9682610b6b565b9050919050565b610ba681610b8b565b82525050565b6000602082019050610bc16000830184610b9d565b92915050565b6000604051905090565b600080fd5b600080fd5b6000819050919050565b610bee81610bdb565b8114610bf957600080fd5b50565b600081359050610c0b81610be5565b92915050565b600060208284031215610c2757610c26610bd1565b5b6000610c3584828501610bfc565b91505092915050565b7f4e487b7100000000000000000000000000000000000000000000000000000000600052602160045260246000fd5b60048110610c7e57610c7d610c3e565b5b50565b6000819050610c8f82610c6d565b919050565b6000610c9f82610c81565b9050919050565b610caf81610c94565b82525050565b6000602082019050610cca6000830184610ca6565b92915050565b600081519050919050565b600082825260208201905092915050565b60005b83811015610d0a578082015181840152602081019050610cef565b60008484015250505050565b6000601f19601f8301169050919050565b6000610d3282610cd0565b610d3c8185610cdb565b9350610d4c818560208601610cec565b610d5581610d16565b840191505092915050565b60006020820190508181036000830152610d7a8184610d27565b905092915050565b600080fd5b600060808284031215610d9d57610d9c610d82565b5b81905092915050565b600060208284031215610dbc57610dbb610bd1565b5b600082013567ffffffffffffffff811115610dda57610dd9610bd6565b5b610de684828501610d87565b91505092915050565b60008115159050919050565b610e0481610def565b82525050565b6000819050919050565b6000610e2f610e2a610e2584610b6b565b610e0a565b610b6b565b9050919050565b6000610e4182610e14565b9050919050565b6000610e5382610e36565b9050919050565b610e6381610e48565b82525050565b6000604082019050610e7e6000830185610dfb565b610e8b6020830184610e5a565b9392505050565b7f4e487b7100000000000000000000000000000000000000000000000000000000600052602260045260246000fd5b60006002820490506001821680610ed957607f821691505b602082108103610eec57610eeb610e92565b5b50919050565b600080fd5b600080fd5b600080fd5b60008083356001602003843603038112610f1e57610f1d610ef2565b5b80840192508235915067ffffffffffffffff821115610f4057610f3f610ef7565b5b602083019250600182023603831315610f5c57610f5b610efc565b5b509250929050565b600081905092915050565b82818337600083830152505050565b6000610f8a8385610f64565b9350610f97838584610f6f565b82840190509392505050565b6000610fb0828a8c610f7e565b9150610fbd82888a610f7e565b9150610fca828688610f7e565b9150610fd7828486610f7e565b91508190509998505050505050505050565b7f5061727469636c6520616c726561647920657865637574656400000000000000600082015250565b600061101f601983610cdb565b915061102a82610fe9565b602082019050919050565b6000602082019050818103600083015261104e81611012565b9050919050565b600082825260208201905092915050565b60006110728385611055565b935061107f838584610f6f565b61108883610d16565b840190509392505050565b600060208201905081810360008301526110ae818486611066565b90509392505050565b600080fd5b600080fd5b7f4e487b7100000000000000000000000000000000000000000000000000000000600052604160045260246000fd5b6110f982610d16565b810181811067ffffffffffffffff82111715611118576111176110c1565b5b80604052505050565b600061112b610bc7565b905061113782826110f0565b919050565b600067ffffffffffffffff821115611157576111566110c1565b5b61116082610d16565b9050602081019050919050565b600061118061117b8461113c565b611121565b90508281526020810184848401111561119c5761119b6110bc565b5b6111a7848285610cec565b509392505050565b600082601f8301126111c4576111c36110b7565b5b81516111d484826020860161116d565b91505092915050565b6000602082840312156111f3576111f2610bd1565b5b600082015167ffffffffffffffff81111561121157611210610bd6565b5b61121d848285016111af565b91505092915050565b600081519050919050565b600081905092915050565b600061124782611226565b6112518185611231565b9350611261818560208601610cec565b80840191505092915050565b6000611279828761123c565b9150611285828661123c565b9150611291828561123c565b915061129d828461123c565b915081905095945050505050565b8082525050565b600082825260208201905092915050565b60008190508160005260206000209050919050565b600081546112e581610ec1565b6112ef81866112b2565b9450600182166000811461130a576001811461132057611353565b60ff198316865281151560200286019350611353565b611329856112c3565b60005b8381101561134b5781548189015260018201915060208101905061132c565b808801955050505b50505092915050565b7f7665726966795f73637269707400000000000000000000000000000000000000600082015250565b6000611392600d836112b2565b915061139d8261135c565b602082019050919050565b60006113b382611226565b6113bd8185611055565b93506113cd818560208601610cec565b6113d681610d16565b840191505092915050565b6000819050919050565b60006fffffffffffffffffffffffffffffffff82169050919050565b600061142261141d611418846113e1565b610e0a565b6113eb565b9050919050565b61143281611407565b82525050565b600067ffffffffffffffff82169050919050565b61145581611438565b82525050565b600060c08201905061147060008301886112ab565b818103602083015261148281876112d8565b9050818103604083015261149581611385565b905081810360608301526114a981866113a8565b90506114b86080830185611429565b6114c560a083018461144c565b9695505050505050565b600080fd5b600080fd5b600067ffffffffffffffff8211156114f4576114f36110c1565b5b6114fd82610d16565b9050602081019050919050565b600061151d611518846114d9565b611121565b905082815260208101848484011115611539576115386110bc565b5b611544848285610cec565b509392505050565b600082601f830112611561576115606110b7565b5b815161157184826020860161150a565b91505092915050565b611583816113eb565b811461158e57600080fd5b50565b6000815190506115a08161157a565b92915050565b6115af81611438565b81146115ba57600080fd5b50565b6000815190506115cc816115a6565b92915050565b600060a082840312156115e8576115e76114cf565b5b6115f260a0611121565b9050600082015167ffffffffffffffff811115611612576116116114d4565b5b61161e8482850161154c565b600083015250602082015167ffffffffffffffff811115611642576116416114d4565b5b61164e8482850161154c565b602083015250604082015167ffffffffffffffff811115611672576116716114d4565b5b61167e848285016111af565b604083015250606061169284828501611591565b60608301525060806116a6848285016115bd565b60808301525092915050565b6000602082840312156116c8576116c7610bd1565b5b600082015167ffffffffffffffff8111156116e6576116e5610bd6565b5b6116f2848285016115d2565b91505092915050565b61170481610bdb565b82525050565b600060208201905061171f60008301846116fb565b92915050565b61172e81610b8b565b82525050565b600060a08201905061174960008301886112ab565b6117566020830187611725565b818103604083015261176881866113a8565b90506117776060830185611429565b611784608083018461144c565b9695505050505050565b600082825260208201905092915050565b60006117aa82610cd0565b6117b4818561178e565b93506117c4818560208601610cec565b6117cd81610d16565b840191505092915050565b600082825260208201905092915050565b60006117f482611226565b6117fe81856117d8565b935061180e818560208601610cec565b61181781610d16565b840191505092915050565b61182b816113eb565b82525050565b61183a81611438565b82525050565b600060a083016000830151848203600086015261185d828261179f565b91505060208301518482036020860152611877828261179f565b9150506040830151848203604086015261189182826117e9565b91505060608301516118a66060860182611822565b5060808301516118b96080860182611831565b508091505092915050565b600060408201905081810360008301526118de8185611840565b905081810360208301526118f28184611840565b90509392505050565b600060408284031215611911576119106114cf565b5b61191b6040611121565b9050600082015167ffffffffffffffff81111561193b5761193a6114d4565b5b611947848285016115d2565b600083015250602082015167ffffffffffffffff81111561196b5761196a6114d4565b5b611977848285016115d2565b60208301525092915050565b60006020828403121561199957611998610bd1565b5b600082015167ffffffffffffffff8111156119b7576119b6610bd6565b5b6119c3848285016118fb565b91505092915050565b600060a08301600083015184820360008601526119e9828261179f565b91505060208301518482036020860152611a03828261179f565b91505060408301518482036040860152611a1d82826117e9565b9150506060830151611a326060860182611822565b506080830151611a456080860182611831565b508091505092915050565b60006040830160008301518482036000860152611a6d82826119cc565b91505060208301518482036020860152611a8782826119cc565b9150508091505092915050565b60006020820190508181036000830152611aae8184611a50565b905092915050565b6000611ac28385610cdb565b9350611acf838584610f6f565b611ad883610d16565b840190509392505050565b600060a082019050611af8600083018c6116fb565b8181036020830152611b0b818a8c611ab6565b90508181036040830152611b2081888a611ab6565b90508181036060830152611b35818688611ab6565b90508181036080830152611b4a818486611ab6565b90509a9950505050505050505050565b7f4552525f4143434553535f44454e494544000000000000000000000000000000600082015250565b6000611b90601183610cdb565b9150611b9b82611b5a565b602082019050919050565b60006020820190508181036000830152611bbf81611b83565b9050919050565b6000819050919050565b6000611beb611be6611be1846113e1565b610e0a565b611bc6565b9050919050565b611bfb81611bd0565b82525050565b6000602082019050611c166000830184611bf2565b92915050565b60038110611c2957600080fd5b50565b600081519050611c3b81611c1c565b92915050565b600060408284031215611c5757611c566114cf565b5b611c616040611121565b90506000611c7184828501611c2c565b600083015250602082015167ffffffffffffffff811115611c9557611c946114d4565b5b611ca1848285016111af565b60208301525092915050565b600060208284031215611cc357611cc2610bd1565b5b600082015167ffffffffffffffff811115611ce157611ce0610bd6565b5b611ced84828501611c41565b9150509291505056fea26469706673582212206c16fcc37226b30db72c8b5331a949b1816d38af7f6abd100140f4698f2035b764736f6c63430008110033",
  "deployedBytecode": "0x608060405234801561001057600080fd5b506004361061007d5760003560e01c806390e796211161005b57806390e79621146100ee578063a689408c1461010c578063df13994e14610128578063e602af76146101445761007d565b80634261bab7146100825780634344767e146100a05780637b4dc7a7146100d0575b600080fd5b61008a610163565b6040516100979190610bac565b60405180910390f35b6100ba60048036038101906100b59190610c11565b610187565b6040516100c79190610cb5565b60405180910390f35b6100d86101a7565b6040516100e59190610bac565b60405180910390f35b6100f66101cb565b6040516101039190610d60565b60405180910390f35b61012660048036038101906101219190610da6565b610259565b005b610142600480360381019061013d9190610c11565b6108ea565b005b61014c610b2c565b60405161015a929190610e69565b60405180910390f35b7f000000000000000000000000000000000000000000000000000000000000000081565b60026020528060005260406000206000915054906101000a900460ff1681565b7f000000000000000000000000000000000000000000000000000000000000000081565b600180546101d890610ec1565b80601f016020809104026020016040519081016040528092919081815260200182805461020490610ec1565b80156102515780601f1061022657610100808354040283529160200191610251565b820191906000526020600020905b81548152906001019060200180831161023457829003601f168201915b505050505081565b600081806000019061026b9190610f01565b83806020019061027b9190610f01565b85806040019061028b9190610f01565b87806060019061029b9190610f01565b6040516020016102b2989796959493929190610fa3565b604051602081830303815290604052805190602001209050600060038111156102de576102dd610c3e565b5b6002600083815260200190815260200160002060009054906101000a900460ff16600381111561031157610310610c3e565b5b14610351576040517f08c379a000000000000000000000000000000000000000000000000000000000815260040161034890611035565b60405180910390fd5b60008073__$4c69cf84ba89ae4679f402ef37ecaf7999$__63925be54d9091600173__$1eeb4be544c70bad97b2730d99a1a8c0f3$__6312496a1b88806000019061039c9190610f01565b6040518363ffffffff1660e01b81526004016103b9929190611093565b600060405180830381865af41580156103d6573d6000803e3d6000fd5b505050506040513d6000823e3d601f19601f820116820180604052508101906103ff91906111dd565b73__$1eeb4be544c70bad97b2730d99a1a8c0f3$__6312496a1b8980602001906104299190610f01565b6040518363ffffffff1660e01b8152600401610446929190611093565b600060405180830381865af4158015610463573d6000803e3d6000fd5b505050506040513d6000823e3d601f19601f8201168201806040525081019061048c91906111dd565b73__$1eeb4be544c70bad97b2730d99a1a8c0f3$__6312496a1b8a80604001906104b69190610f01565b6040518363ffffffff1660e01b81526004016104d3929190611093565b600060405180830381865af41580156104f0573d6000803e3d6000fd5b505050506040513d6000823e3d601f19601f8201168201806040525081019061051991906111dd565b73__$1eeb4be544c70bad97b2730d99a1a8c0f3$__6312496a1b8b80606001906105439190610f01565b6040518363ffffffff1660e01b8152600401610560929190611093565b600060405180830381865af415801561057d573d6000803e3d6000fd5b505050506040513d6000823e3d601f19601f820116820180604052508101906105a691906111dd565b6040516020016105b9949392919061126d565b6040516020818303038152906040526000651b48eb57e0006040518663ffffffff1660e01b81526004016105f195949392919061145b565b600060405180830381865af415801561060e573d6000803e3d6000fd5b505050506040513d6000823e3d601f19601f8201168201806040525081019061063791906116b2565b905060008073__$4c69cf84ba89ae4679f402ef37ecaf7999$__6331b0e0e490913063df13994e60e01b87604051602401610672919061170a565b604051602081830303815290604052907bffffffffffffffffffffffffffffffffffffffffffffffffffffffff19166020820180517bffffffffffffffffffffffffffffffffffffffffffffffffffffffff83818316178352505050506000651b48eb57e0006040518663ffffffff1660e01b81526004016106f8959493929190611734565b600060405180830381865af4158015610715573d6000803e3d6000fd5b505050506040513d6000823e3d601f19601f8201168201806040525081019061073e91906116b2565b90508173__$4c69cf84ba89ae4679f402ef37ecaf7999$__63987cbd719091836040518363ffffffff1660e01b815260040161077b9291906118c4565b600060405180830381865af4158015610798573d6000803e3d6000fd5b505050506040513d6000823e3d601f19601f820116820180604052508101906107c19190611983565b73__$4c69cf84ba89ae4679f402ef37ecaf7999$__6372e3f69990916040518263ffffffff1660e01b81526004016107f99190611a94565b60006040518083038186803b15801561081157600080fd5b505af4158015610825573d6000803e3d6000fd5b5050505060016002600085815260200190815260200160002060006101000a81548160ff021916908360038111156108605761085f610c3e565b5b02179055507f1a0dda9a5e7155569c5ea66d5a71404b69149aae44ee8940fefea3053524d1e3838580600001906108979190610f01565b8780602001906108a79190610f01565b8980604001906108b79190610f01565b8b80606001906108c79190610f01565b6040516108dc99989796959493929190611ae3565b60405180910390a150505050565b7f000000000000000000000000000000000000000000000000000000000000000073ffffffffffffffffffffffffffffffffffffffff163373ffffffffffffffffffffffffffffffffffffffff1614610978576040517f08c379a000000000000000000000000000000000000000000000000000000000815260040161096f90611ba6565b60405180910390fd5b6001600381111561098c5761098b610c3e565b5b6002600083815260200190815260200160002060009054906101000a900460ff1660038111156109bf576109be610c3e565b5b146109ff576040517f08c379a00000000000000000000000000000000000000000000000000000000081526004016109f690611035565b60405180910390fd5b60016002811115610a1357610a12610c3e565b5b73__$4c69cf84ba89ae4679f402ef37ecaf7999$__6310cdb49360006040518263ffffffff1660e01b8152600401610a4b9190611c01565b600060405180830381865af4158015610a68573d6000803e3d6000fd5b505050506040513d6000823e3d601f19601f82011682018060405250810190610a919190611cad565b600001516002811115610aa757610aa6610c3e565b5b14610aed5760036002600083815260200190815260200160002060006101000a81548160ff02191690836003811115610ae357610ae2610c3e565b5b0217905550610b29565b600280600083815260200190815260200160002060006101000a81548160ff02191690836003811115610b2357610b22610c3e565b5b02179055505b50565b60008060000160009054906101000a900460ff16908060000160019054906101000a900473ffffffffffffffffffffffffffffffffffffffff16905082565b600073ffffffffffffffffffffffffffffffffffffffff82169050919050565b6000610b9682610b6b565b9050919050565b610ba681610b8b565b82525050565b6000602082019050610bc16000830184610b9d565b92915050565b6000604051905090565b600080fd5b600080fd5b6000819050919050565b610bee81610bdb565b8114610bf957600080fd5b50565b600081359050610c0b81610be5565b92915050565b600060208284031215610c2757610c26610bd1565b5b6000610c3584828501610bfc565b91505092915050565b7f4e487b7100000000000000000000000000000000000000000000000000000000600052602160045260246000fd5b60048110610c7e57610c7d610c3e565b5b50565b6000819050610c8f82610c6d565b919050565b6000610c9f82610c81565b9050919050565b610caf81610c94565b82525050565b6000602082019050610cca6000830184610ca6565b92915050565b600081519050919050565b600082825260208201905092915050565b60005b83811015610d0a578082015181840152602081019050610cef565b60008484015250505050565b6000601f19601f8301169050919050565b6000610d3282610cd0565b610d3c8185610cdb565b9350610d4c818560208601610cec565b610d5581610d16565b840191505092915050565b60006020820190508181036000830152610d7a8184610d27565b905092915050565b600080fd5b600060808284031215610d9d57610d9c610d82565b5b81905092915050565b600060208284031215610dbc57610dbb610bd1565b5b600082013567ffffffffffffffff811115610dda57610dd9610bd6565b5b610de684828501610d87565b91505092915050565b60008115159050919050565b610e0481610def565b82525050565b6000819050919050565b6000610e2f610e2a610e2584610b6b565b610e0a565b610b6b565b9050919050565b6000610e4182610e14565b9050919050565b6000610e5382610e36565b9050919050565b610e6381610e48565b82525050565b6000604082019050610e7e6000830185610dfb565b610e8b6020830184610e5a565b9392505050565b7f4e487b7100000000000000000000000000000000000000000000000000000000600052602260045260246000fd5b60006002820490506001821680610ed957607f821691505b602082108103610eec57610eeb610e92565b5b50919050565b600080fd5b600080fd5b600080fd5b60008083356001602003843603038112610f1e57610f1d610ef2565b5b80840192508235915067ffffffffffffffff821115610f4057610f3f610ef7565b5b602083019250600182023603831315610f5c57610f5b610efc565b5b509250929050565b600081905092915050565b82818337600083830152505050565b6000610f8a8385610f64565b9350610f97838584610f6f565b82840190509392505050565b6000610fb0828a8c610f7e565b9150610fbd82888a610f7e565b9150610fca828688610f7e565b9150610fd7828486610f7e565b91508190509998505050505050505050565b7f5061727469636c6520616c726561647920657865637574656400000000000000600082015250565b600061101f601983610cdb565b915061102a82610fe9565b602082019050919050565b6000602082019050818103600083015261104e81611012565b9050919050565b600082825260208201905092915050565b60006110728385611055565b935061107f838584610f6f565b61108883610d16565b840190509392505050565b600060208201905081810360008301526110ae818486611066565b90509392505050565b600080fd5b600080fd5b7f4e487b7100000000000000000000000000000000000000000000000000000000600052604160045260246000fd5b6110f982610d16565b810181811067ffffffffffffffff82111715611118576111176110c1565b5b80604052505050565b600061112b610bc7565b905061113782826110f0565b919050565b600067ffffffffffffffff821115611157576111566110c1565b5b61116082610d16565b9050602081019050919050565b600061118061117b8461113c565b611121565b90508281526020810184848401111561119c5761119b6110bc565b5b6111a7848285610cec565b509392505050565b600082601f8301126111c4576111c36110b7565b5b81516111d484826020860161116d565b91505092915050565b6000602082840312156111f3576111f2610bd1565b5b600082015167ffffffffffffffff81111561121157611210610bd6565b5b61121d848285016111af565b91505092915050565b600081519050919050565b600081905092915050565b600061124782611226565b6112518185611231565b9350611261818560208601610cec565b80840191505092915050565b6000611279828761123c565b9150611285828661123c565b9150611291828561123c565b915061129d828461123c565b915081905095945050505050565b8082525050565b600082825260208201905092915050565b60008190508160005260206000209050919050565b600081546112e581610ec1565b6112ef81866112b2565b9450600182166000811461130a576001811461132057611353565b60ff198316865281151560200286019350611353565b611329856112c3565b60005b8381101561134b5781548189015260018201915060208101905061132c565b808801955050505b50505092915050565b7f7665726966795f73637269707400000000000000000000000000000000000000600082015250565b6000611392600d836112b2565b915061139d8261135c565b602082019050919050565b60006113b382611226565b6113bd8185611055565b93506113cd818560208601610cec565b6113d681610d16565b840191505092915050565b6000819050919050565b60006fffffffffffffffffffffffffffffffff82169050919050565b600061142261141d611418846113e1565b610e0a565b6113eb565b9050919050565b61143281611407565b82525050565b600067ffffffffffffffff82169050919050565b61145581611438565b82525050565b600060c08201905061147060008301886112ab565b818103602083015261148281876112d8565b9050818103604083015261149581611385565b905081810360608301526114a981866113a8565b90506114b86080830185611429565b6114c560a083018461144c565b9695505050505050565b600080fd5b600080fd5b600067ffffffffffffffff8211156114f4576114f36110c1565b5b6114fd82610d16565b9050602081019050919050565b600061151d611518846114d9565b611121565b905082815260208101848484011115611539576115386110bc565b5b611544848285610cec565b509392505050565b600082601f830112611561576115606110b7565b5b815161157184826020860161150a565b91505092915050565b611583816113eb565b811461158e57600080fd5b50565b6000815190506115a08161157a565b92915050565b6115af81611438565b81146115ba57600080fd5b50565b6000815190506115cc816115a6565b92915050565b600060a082840312156115e8576115e76114cf565b5b6115f260a0611121565b9050600082015167ffffffffffffffff811115611612576116116114d4565b5b61161e8482850161154c565b600083015250602082015167ffffffffffffffff811115611642576116416114d4565b5b61164e8482850161154c565b602083015250604082015167ffffffffffffffff811115611672576116716114d4565b5b61167e848285016111af565b604083015250606061169284828501611591565b60608301525060806116a6848285016115bd565b60808301525092915050565b6000602082840312156116c8576116c7610bd1565b5b600082015167ffffffffffffffff8111156116e6576116e5610bd6565b5b6116f2848285016115d2565b91505092915050565b61170481610bdb565b82525050565b600060208201905061171f60008301846116fb565b92915050565b61172e81610b8b565b82525050565b600060a08201905061174960008301886112ab565b6117566020830187611725565b818103604083015261176881866113a8565b90506117776060830185611429565b611784608083018461144c565b9695505050505050565b600082825260208201905092915050565b60006117aa82610cd0565b6117b4818561178e565b93506117c4818560208601610cec565b6117cd81610d16565b840191505092915050565b600082825260208201905092915050565b60006117f482611226565b6117fe81856117d8565b935061180e818560208601610cec565b61181781610d16565b840191505092915050565b61182b816113eb565b82525050565b61183a81611438565b82525050565b600060a083016000830151848203600086015261185d828261179f565b91505060208301518482036020860152611877828261179f565b9150506040830151848203604086015261189182826117e9565b91505060608301516118a66060860182611822565b5060808301516118b96080860182611831565b508091505092915050565b600060408201905081810360008301526118de8185611840565b905081810360208301526118f28184611840565b90509392505050565b600060408284031215611911576119106114cf565b5b61191b6040611121565b9050600082015167ffffffffffffffff81111561193b5761193a6114d4565b5b611947848285016115d2565b600083015250602082015167ffffffffffffffff81111561196b5761196a6114d4565b5b611977848285016115d2565b60208301525092915050565b60006020828403121561199957611998610bd1565b5b600082015167ffffffffffffffff8111156119b7576119b6610bd6565b5b6119c3848285016118fb565b91505092915050565b600060a08301600083015184820360008601526119e9828261179f565b91505060208301518482036020860152611a03828261179f565b91505060408301518482036040860152611a1d82826117e9565b9150506060830151611a326060860182611822565b506080830151611a456080860182611831565b508091505092915050565b60006040830160008301518482036000860152611a6d82826119cc565b91505060208301518482036020860152611a8782826119cc565b9150508091505092915050565b60006020820190508181036000830152611aae8184611a50565b905092915050565b6000611ac28385610cdb565b9350611acf838584610f6f565b611ad883610d16565b840190509392505050565b600060a082019050611af8600083018c6116fb565b8181036020830152611b0b818a8c611ab6565b90508181036040830152611b2081888a611ab6565b90508181036060830152611b35818688611ab6565b90508181036080830152611b4a818486611ab6565b90509a9950505050505050505050565b7f4552525f4143434553535f44454e494544000000000000000000000000000000600082015250565b6000611b90601183610cdb565b9150611b9b82611b5a565b602082019050919050565b60006020820190508181036000830152611bbf81611b83565b9050919050565b6000819050919050565b6000611beb611be6611be1846113e1565b610e0a565b611bc6565b9050919050565b611bfb81611bd0565b82525050565b6000602082019050611c166000830184611bf2565b92915050565b60038110611c2957600080fd5b50565b600081519050611c3b81611c1c565b92915050565b600060408284031215611c5757611c566114cf565b5b611c616040611121565b90506000611c7184828501611c2c565b600083015250602082015167ffffffffffffffff811115611c9557611c946114d4565b5b611ca1848285016111af565b60208301525092915050565b600060208284031215611cc357611cc2610bd1565b5b600082015167ffffffffffffffff811115611ce157611ce0610bd6565b5b611ced84828501611c41565b9150509291505056fea26469706673582212206c16fcc37226b30db72c8b5331a949b1816d38af7f6abd100140f4698f2035b764736f6c63430008110033",
  "libraries": {
    "AuroraSdk": "0xf7478EAeB7E4b09f024cF69B71DAf9fD4a9fC7dC",
    "Borsh": "0x5c6Be943472E6B644e0686c0B873df2E416a4119",
    "Codec": "0x6b1A854C0A2Aec23357d117BDB680184671833Cb",
    "Utils": "0x9621fa6AD3dEC2FeB5AcBf87F8DcE690506a1183"
  },
  "devdoc": {
    "kind": "dev",
    "methods": {},
    "version": 1
  },
  "userdoc": {
    "kind": "user",
    "methods": {},
    "version": 1
  },
  "storageLayout": {
    "storage": [
      {
        "astId": 1364,
        "contract": "contracts/AquaProxy.sol:AquaProxy",
        "label": "near",
        "offset": 0,
        "slot": "0",
        "type": "t_struct(NEAR)2173_storage"
      },
      {
        "astId": 1366,
        "contract": "contracts/AquaProxy.sol:AquaProxy",
        "label": "aquaVMAddress",
        "offset": 0,
        "slot": "1",
        "type": "t_string_storage"
      },
      {
        "astId": 1371,
        "contract": "contracts/AquaProxy.sol:AquaProxy",
        "label": "particlesStatuses",
        "offset": 0,
        "slot": "2",
        "type": "t_mapping(t_bytes32,t_enum(ParticleStatus)1342)"
      }
    ],
    "types": {
      "t_bool": {
        "encoding": "inplace",
        "label": "bool",
        "numberOfBytes": "1"
      },
      "t_bytes32": {
        "encoding": "inplace",
        "label": "bytes32",
        "numberOfBytes": "32"
      },
      "t_contract(IERC20)663": {
        "encoding": "inplace",
        "label": "contract IERC20",
        "numberOfBytes": "20"
      },
      "t_enum(ParticleStatus)1342": {
        "encoding": "inplace",
        "label": "enum AquaProxy.ParticleStatus",
        "numberOfBytes": "1"
      },
      "t_mapping(t_bytes32,t_enum(ParticleStatus)1342)": {
        "encoding": "mapping",
        "key": "t_bytes32",
        "label": "mapping(bytes32 => enum AquaProxy.ParticleStatus)",
        "numberOfBytes": "32",
        "value": "t_enum(ParticleStatus)1342"
      },
      "t_string_storage": {
        "encoding": "bytes",
        "label": "string",
        "numberOfBytes": "32"
      },
      "t_struct(NEAR)2173_storage": {
        "encoding": "inplace",
        "label": "struct NEAR",
        "members": [
          {
            "astId": 2168,
            "contract": "contracts/AquaProxy.sol:AquaProxy",
            "label": "initialized",
            "offset": 0,
            "slot": "0",
            "type": "t_bool"
          },
          {
            "astId": 2172,
            "contract": "contracts/AquaProxy.sol:AquaProxy",
            "label": "wNEAR",
            "offset": 1,
            "slot": "0",
            "type": "t_contract(IERC20)663"
          }
        ],
        "numberOfBytes": "32"
      }
    }
  }
}