{
  "address": "0x79EeA23C90e7D142D903833AB6F835aC06cCbAce",
  "abi": [
    {
      "inputs": [
        {
          "internalType": "contract IGlobalCore",
          "name": "globalCore_",
          "type": "address"
        }
      ],
      "stateMutability": "nonpayable",
      "type": "constructor"
    },
    {
      "inputs": [
        {
          "internalType": "address",
          "name": "owner",
          "type": "address"
        }
      ],
      "name": "OwnableInvalidOwner",
      "type": "error"
    },
    {
      "inputs": [
        {
          "internalType": "address",
          "name": "account",
          "type": "address"
        }
      ],
      "name": "OwnableUnauthorizedAccount",
      "type": "error"
    },
    {
      "anonymous": false,
      "inputs": [
        {
          "components": [
            {
              "internalType": "bytes4",
              "name": "prefixes",
              "type": "bytes4"
            },
            {
              "internalType": "bytes32",
              "name": "hash",
              "type": "bytes32"
            }
          ],
          "indexed": false,
          "internalType": "struct CIDV1",
          "name": "newAppCID",
          "type": "tuple"
        }
      ],
      "name": "AppCIDChanged",
      "type": "event"
    },
    {
      "anonymous": false,
      "inputs": [
        {
          "indexed": false,
          "internalType": "address",
          "name": "owner",
          "type": "address"
        },
        {
          "indexed": false,
          "internalType": "uint256",
          "name": "amount",
          "type": "uint256"
        }
      ],
      "name": "CollateralWithdrawn",
      "type": "event"
    },
    {
      "anonymous": false,
      "inputs": [
        {
          "indexed": false,
          "internalType": "bytes32",
          "name": "id",
          "type": "bytes32"
        },
        {
          "indexed": false,
          "internalType": "address",
          "name": "owner",
          "type": "address"
        }
      ],
      "name": "ComputeUnitCreated",
      "type": "event"
    },
    {
      "anonymous": false,
      "inputs": [
        {
          "indexed": false,
          "internalType": "bytes32",
          "name": "id",
          "type": "bytes32"
        }
      ],
      "name": "ComputeUnitRemoved",
      "type": "event"
    },
    {
      "anonymous": false,
      "inputs": [
        {
          "indexed": false,
          "internalType": "uint256",
          "name": "amount",
          "type": "uint256"
        }
      ],
      "name": "Deposited",
      "type": "event"
    },
    {
      "anonymous": false,
      "inputs": [
        {
          "indexed": false,
          "internalType": "uint8",
          "name": "version",
          "type": "uint8"
        }
      ],
      "name": "Initialized",
      "type": "event"
    },
    {
      "anonymous": false,
      "inputs": [
        {
          "indexed": true,
          "internalType": "address",
          "name": "previousOwner",
          "type": "address"
        },
        {
          "indexed": true,
          "internalType": "address",
          "name": "newOwner",
          "type": "address"
        }
      ],
      "name": "OwnershipTransferred",
      "type": "event"
    },
    {
      "anonymous": false,
      "inputs": [
        {
          "indexed": false,
          "internalType": "bytes32",
          "name": "computeUnitId",
          "type": "bytes32"
        },
        {
          "indexed": false,
          "internalType": "uint256",
          "name": "reward",
          "type": "uint256"
        }
      ],
      "name": "RewardWithdrawn",
      "type": "event"
    },
    {
      "anonymous": false,
      "inputs": [
        {
          "indexed": false,
          "internalType": "uint256",
          "name": "amount",
          "type": "uint256"
        }
      ],
      "name": "Withdrawn",
      "type": "event"
    },
    {
      "anonymous": false,
      "inputs": [
        {
          "indexed": false,
          "internalType": "bytes32",
          "name": "computeUnitId",
          "type": "bytes32"
        },
        {
          "indexed": false,
          "internalType": "bytes32",
          "name": "workerId",
          "type": "bytes32"
        }
      ],
      "name": "WorkerIdUpdated",
      "type": "event"
    },
    {
      "anonymous": false,
      "inputs": [
        {
          "indexed": false,
          "internalType": "bytes32",
          "name": "computeUnitId",
          "type": "bytes32"
        }
      ],
      "name": "WorkerRemoved",
      "type": "event"
    },
    {
      "inputs": [
        {
          "internalType": "bytes32",
          "name": "computeUnitId",
          "type": "bytes32"
        },
        {
          "internalType": "uint256",
          "name": "lastWorkedEpoch",
          "type": "uint256"
        }
      ],
      "name": "_removeComputeUnit",
      "outputs": [
        {
          "internalType": "uint256",
          "name": "computeUnitCount",
          "type": "uint256"
        }
      ],
      "stateMutability": "nonpayable",
      "type": "function"
    },
    {
      "inputs": [],
      "name": "accessType",
      "outputs": [
        {
          "internalType": "enum IConfig.AccessType",
          "name": "",
          "type": "uint8"
        }
      ],
      "stateMutability": "view",
      "type": "function"
    },
    {
      "inputs": [],
      "name": "appCID",
      "outputs": [
        {
          "components": [
            {
              "internalType": "bytes4",
              "name": "prefixes",
              "type": "bytes4"
            },
            {
              "internalType": "bytes32",
              "name": "hash",
              "type": "bytes32"
            }
          ],
          "internalType": "struct CIDV1",
          "name": "",
          "type": "tuple"
        }
      ],
      "stateMutability": "view",
      "type": "function"
    },
    {
      "inputs": [
        {
          "internalType": "enum IConfig.AccessType",
          "name": "accessType_",
          "type": "uint8"
        }
      ],
      "name": "changeAccessType",
      "outputs": [],
      "stateMutability": "nonpayable",
      "type": "function"
    },
    {
      "inputs": [],
      "name": "collateralPerWorker",
      "outputs": [
        {
          "internalType": "uint256",
          "name": "",
          "type": "uint256"
        }
      ],
      "stateMutability": "view",
      "type": "function"
    },
    {
      "inputs": [
        {
          "internalType": "address",
          "name": "computeProvider",
          "type": "address"
        },
        {
          "internalType": "bytes32",
          "name": "peerId",
          "type": "bytes32"
        }
      ],
      "name": "createComputeUnit",
      "outputs": [
        {
          "internalType": "bytes32",
          "name": "",
          "type": "bytes32"
        }
      ],
      "stateMutability": "nonpayable",
      "type": "function"
    },
    {
      "inputs": [],
      "name": "creationBlock",
      "outputs": [
        {
          "internalType": "uint256",
          "name": "",
          "type": "uint256"
        }
      ],
      "stateMutability": "view",
      "type": "function"
    },
    {
      "inputs": [
        {
          "internalType": "uint256",
          "name": "amount",
          "type": "uint256"
        }
      ],
      "name": "deposit",
      "outputs": [],
      "stateMutability": "nonpayable",
      "type": "function"
    },
    {
      "inputs": [],
      "name": "effectors",
      "outputs": [
        {
          "components": [
            {
              "internalType": "bytes4",
              "name": "prefixes",
              "type": "bytes4"
            },
            {
              "internalType": "bytes32",
              "name": "hash",
              "type": "bytes32"
            }
          ],
          "internalType": "struct CIDV1[]",
          "name": "",
          "type": "tuple[]"
        }
      ],
      "stateMutability": "view",
      "type": "function"
    },
    {
      "inputs": [],
      "name": "endedEpoch",
      "outputs": [
        {
          "internalType": "uint256",
          "name": "",
          "type": "uint256"
        }
      ],
      "stateMutability": "view",
      "type": "function"
    },
    {
      "inputs": [],
      "name": "fluenceToken",
      "outputs": [
        {
          "internalType": "contract IERC20",
          "name": "",
          "type": "address"
        }
      ],
      "stateMutability": "view",
      "type": "function"
    },
    {
      "inputs": [],
      "name": "getAccessList",
      "outputs": [
        {
          "internalType": "address[]",
          "name": "",
          "type": "address[]"
        }
      ],
      "stateMutability": "view",
      "type": "function"
    },
    {
      "inputs": [],
      "name": "getCommittedStatus",
      "outputs": [
        {
          "internalType": "enum IStatusController.Status",
          "name": "",
          "type": "uint8"
        }
      ],
      "stateMutability": "view",
      "type": "function"
    },
    {
      "inputs": [
        {
          "internalType": "bytes32",
          "name": "id",
          "type": "bytes32"
        }
      ],
      "name": "getComputeUnit",
      "outputs": [
        {
          "components": [
            {
              "internalType": "bytes32",
              "name": "id",
              "type": "bytes32"
            },
            {
              "internalType": "bytes32",
              "name": "peerId",
              "type": "bytes32"
            },
            {
              "internalType": "bytes32",
              "name": "workerId",
              "type": "bytes32"
            },
            {
              "internalType": "address",
              "name": "owner",
              "type": "address"
            },
            {
              "internalType": "uint256",
              "name": "collateral",
              "type": "uint256"
            },
            {
              "internalType": "uint256",
              "name": "created",
              "type": "uint256"
            }
          ],
          "internalType": "struct IWorkerManager.ComputeUnit",
          "name": "",
          "type": "tuple"
        }
      ],
      "stateMutability": "view",
      "type": "function"
    },
    {
      "inputs": [],
      "name": "getComputeUnitCount",
      "outputs": [
        {
          "internalType": "uint256",
          "name": "",
          "type": "uint256"
        }
      ],
      "stateMutability": "view",
      "type": "function"
    },
    {
      "inputs": [],
      "name": "getComputeUnits",
      "outputs": [
        {
          "components": [
            {
              "internalType": "bytes32",
              "name": "id",
              "type": "bytes32"
            },
            {
              "internalType": "bytes32",
              "name": "peerId",
              "type": "bytes32"
            },
            {
              "internalType": "bytes32",
              "name": "workerId",
              "type": "bytes32"
            },
            {
              "internalType": "address",
              "name": "owner",
              "type": "address"
            },
            {
              "internalType": "uint256",
              "name": "collateral",
              "type": "uint256"
            },
            {
              "internalType": "uint256",
              "name": "created",
              "type": "uint256"
            }
          ],
          "internalType": "struct IWorkerManager.ComputeUnit[]",
          "name": "",
          "type": "tuple[]"
        }
      ],
      "stateMutability": "view",
      "type": "function"
    },
    {
      "inputs": [],
      "name": "getFreeBalance",
      "outputs": [
        {
          "internalType": "uint256",
          "name": "",
          "type": "uint256"
        }
      ],
      "stateMutability": "view",
      "type": "function"
    },
    {
      "inputs": [
        {
          "internalType": "bytes32",
          "name": "computeUnitId",
          "type": "bytes32"
        }
      ],
      "name": "getRewardAmount",
      "outputs": [
        {
          "internalType": "uint256",
          "name": "",
          "type": "uint256"
        }
      ],
      "stateMutability": "view",
      "type": "function"
    },
    {
      "inputs": [],
      "name": "getStatus",
      "outputs": [
        {
          "internalType": "enum IStatusController.Status",
          "name": "",
          "type": "uint8"
        }
      ],
      "stateMutability": "view",
      "type": "function"
    },
    {
      "inputs": [
        {
          "internalType": "bytes32",
          "name": "computeUnitId",
          "type": "bytes32"
        }
      ],
      "name": "getUnlockCollateralEpoch",
      "outputs": [
        {
          "internalType": "uint256",
          "name": "",
          "type": "uint256"
        }
      ],
      "stateMutability": "view",
      "type": "function"
    },
    {
      "inputs": [
        {
          "internalType": "contract IERC20",
          "name": "paymentToken_",
          "type": "address"
        },
        {
          "internalType": "uint256",
          "name": "collateralPerWorker_",
          "type": "uint256"
        },
        {
          "internalType": "uint256",
          "name": "minWorkers_",
          "type": "uint256"
        },
        {
          "internalType": "uint256",
          "name": "targetWorkers_",
          "type": "uint256"
        },
        {
          "internalType": "uint256",
          "name": "maxWorkersPerProvider_",
          "type": "uint256"
        },
        {
          "internalType": "uint256",
          "name": "pricePerWorkerEpoch_",
          "type": "uint256"
        },
        {
          "components": [
            {
              "internalType": "bytes4",
              "name": "prefixes",
              "type": "bytes4"
            },
            {
              "internalType": "bytes32",
              "name": "hash",
              "type": "bytes32"
            }
          ],
          "internalType": "struct CIDV1[]",
          "name": "effectors_",
          "type": "tuple[]"
        },
        {
          "internalType": "enum IConfig.AccessType",
          "name": "accessType_",
          "type": "uint8"
        },
        {
          "internalType": "address[]",
          "name": "accessList_",
          "type": "address[]"
        },
        {
          "internalType": "address",
          "name": "owner_",
          "type": "address"
        }
      ],
      "name": "initialize",
      "outputs": [],
      "stateMutability": "nonpayable",
      "type": "function"
    },
    {
      "inputs": [
        {
          "internalType": "address",
          "name": "addr",
          "type": "address"
        }
      ],
      "name": "isInAccessList",
      "outputs": [
        {
          "internalType": "bool",
          "name": "",
          "type": "bool"
        }
      ],
      "stateMutability": "view",
      "type": "function"
    },
    {
      "inputs": [],
      "name": "maxWorkersPerProvider",
      "outputs": [
        {
          "internalType": "uint256",
          "name": "",
          "type": "uint256"
        }
      ],
      "stateMutability": "view",
      "type": "function"
    },
    {
      "inputs": [],
      "name": "minWorkers",
      "outputs": [
        {
          "internalType": "uint256",
          "name": "",
          "type": "uint256"
        }
      ],
      "stateMutability": "view",
      "type": "function"
    },
    {
      "inputs": [],
      "name": "owner",
      "outputs": [
        {
          "internalType": "address",
          "name": "",
          "type": "address"
        }
      ],
      "stateMutability": "view",
      "type": "function"
    },
    {
      "inputs": [],
      "name": "paymentToken",
      "outputs": [
        {
          "internalType": "contract IERC20",
          "name": "",
          "type": "address"
        }
      ],
      "stateMutability": "view",
      "type": "function"
    },
    {
      "inputs": [],
      "name": "pricePerWorkerEpoch",
      "outputs": [
        {
          "internalType": "uint256",
          "name": "",
          "type": "uint256"
        }
      ],
      "stateMutability": "view",
      "type": "function"
    },
    {
      "inputs": [
        {
          "internalType": "bytes32",
          "name": "computeUnitId",
          "type": "bytes32"
        }
      ],
      "name": "removeComputeUnit",
      "outputs": [],
      "stateMutability": "nonpayable",
      "type": "function"
    },
    {
      "inputs": [
        {
          "internalType": "address",
          "name": "addr",
          "type": "address"
        }
      ],
      "name": "removeFromAccessList",
      "outputs": [],
      "stateMutability": "nonpayable",
      "type": "function"
    },
    {
      "inputs": [],
      "name": "renounceOwnership",
      "outputs": [],
      "stateMutability": "nonpayable",
      "type": "function"
    },
    {
      "inputs": [
        {
          "components": [
            {
              "internalType": "bytes4",
              "name": "prefixes",
              "type": "bytes4"
            },
            {
              "internalType": "bytes32",
              "name": "hash",
              "type": "bytes32"
            }
          ],
          "internalType": "struct CIDV1",
          "name": "appCID_",
          "type": "tuple"
        }
      ],
      "name": "setAppCID",
      "outputs": [],
      "stateMutability": "nonpayable",
      "type": "function"
    },
    {
      "inputs": [
        {
          "internalType": "bytes32",
          "name": "computeUnitId",
          "type": "bytes32"
        },
        {
          "internalType": "bytes32",
          "name": "workerId",
          "type": "bytes32"
        }
      ],
      "name": "setWorker",
      "outputs": [],
      "stateMutability": "nonpayable",
      "type": "function"
    },
    {
      "inputs": [],
      "name": "startedEpoch",
      "outputs": [
        {
          "internalType": "uint256",
          "name": "",
          "type": "uint256"
        }
      ],
      "stateMutability": "view",
      "type": "function"
    },
    {
      "inputs": [],
      "name": "stop",
      "outputs": [],
      "stateMutability": "nonpayable",
      "type": "function"
    },
    {
      "inputs": [],
      "name": "targetWorkers",
      "outputs": [
        {
          "internalType": "uint256",
          "name": "",
          "type": "uint256"
        }
      ],
      "stateMutability": "view",
      "type": "function"
    },
    {
      "inputs": [
        {
          "internalType": "address",
          "name": "newOwner",
          "type": "address"
        }
      ],
      "name": "transferOwnership",
      "outputs": [],
      "stateMutability": "nonpayable",
      "type": "function"
    },
    {
      "inputs": [
        {
          "internalType": "uint256",
          "name": "amount",
          "type": "uint256"
        }
      ],
      "name": "withdraw",
      "outputs": [],
      "stateMutability": "nonpayable",
      "type": "function"
    },
    {
      "inputs": [
        {
          "internalType": "bytes32",
          "name": "computeUnitId",
          "type": "bytes32"
        }
      ],
      "name": "withdrawCollateral",
      "outputs": [],
      "stateMutability": "nonpayable",
      "type": "function"
    },
    {
      "inputs": [
        {
          "internalType": "bytes32",
          "name": "computeUnitId",
          "type": "bytes32"
        }
      ],
      "name": "withdrawRewards",
      "outputs": [],
      "stateMutability": "nonpayable",
      "type": "function"
    }
  ],
  "transactionHash": "0x62c28b4acbf6ddc8a08e16d858f52c699465bdc78a412f2d2ef24e70d2c7845c",
  "args": [
    "0xea6777e8c011E7968605fd012A9Dd49401ec386C"
  ],
  "numDeployments": 1,
  "solcInputHash": "a7bbee205c1829787e2ecc0342dbecf9",
  "bytecode": "0x60c060409080825234620001f65780620049be8038038091620000238285620001fb565b8339602092839181010312620001f657516001600160a01b039081811690818103620001f65760a052835163ac027f9760e01b8152908390829060049082905afa908115620001eb57600091620001a7575b5090506080526000549060ff8260081c16620001545760ff808316036200011a575b8251614788908162000236823960805181818161074101528181610e79015261177b015260a0518181816103b80152818161096b01528181610da201528181610fd401528181611bba015281816122a601528181612511015281816129bc01528181612e81015281816133820152818161346b01528181613b4d0152613c140152f35b60ff7f7f26b83ff96e1f2b6a682f133852f6798a09c465da95921460cefb38474024989281191617600055825160ff8152a1388062000097565b60849083519062461bcd60e51b82526004820152602760248201527f496e697469616c697a61626c653a20636f6e747261637420697320696e697469604482015266616c697a696e6760c81b6064820152fd5b8381813d8311620001e3575b620001bf8183620001fb565b81010312620001df57519182168203620001dc5750803862000075565b80fd5b5080fd5b503d620001b3565b84513d6000823e3d90fd5b600080fd5b601f909101601f19168101906001600160401b038211908210176200021f57604052565b634e487b7160e01b600052604160045260246000fdfe608080604052600436101561001357600080fd5b60003560e01c908163055236f4146130285750806307da68f514612e18578063108d2f5214612ddb57806314d3b76714612c145780631763451414612bd7578063176474cf14612aec5780631af57b96146129235780632943dcab146128e65780632b9f5b321461289b5780632db311931461285e5780632e1a7d4d146124995780633013ce29146124465780633591187c1461223c5780633a2fd9c8146121ff5780634b66a30914611fe55780634e69d56014611fbd5780636cd1344814611f80578063715018a614611ee0578063745e920b14611de85780637878e81b14611dba5780637dfb662614611b205780638a0c725b14611ae35780638d5ddbb31461192c5780638da5cb5b146118d95780639bc66868146118215780639f69bf69146117dc578063a01444411461179f578063ac027f971461174e578063b34afbb3146111a7578063b55ec18a1461115e578063b6b55f2514610f5b578063cffe224414610f3a578063d3cde34414610d33578063d5053ab014610c3c578063e93c4f1514610c19578063edd0d73414610bdc578063eebe998f14610345578063f2fde38b1461031a5763fc1e5e2a146101cc57600080fd5b34610315576000600319360112610315577f8953f5482bc1a621075e75537625fa3bd2025e7df7baf6ba1dbfbf2212912d0d805461020981613216565b61021660405191826131d5565b81815260209182820180946000527fcfcab6f3bf9ee9c2484fd18eeb2a9bd794cfdeb4ec98cce66c941e6633f8e0956000915b8383106102c45760408051878152865181890181905289928201908960005b8281106102755784840385f35b909192826040826102b56001948a51602080917fffffffff0000000000000000000000000000000000000000000000000000000081511684520151910152565b01960191019492919094610268565b6002866001926040516102d68161319d565b7fffffffff00000000000000000000000000000000000000000000000000000000865460e01b1681528486015483820152815201920192019190610249565b600080fd5b3461031557602060031936011261031557610343610336613134565b61033e6146e2565b61461f565b005b346103155760406003193601126103155761035e613134565b60ff7fc12f8bc89b8724a9b04a1d9fa4b599a7f3a5e5ea58da701aeb9c3fdf87e6198b54169061038c61331a565b9060405192630ecce30160e31b845260208460048173ffffffffffffffffffffffffffffffffffffffff7f0000000000000000000000000000000000000000000000000000000000000000165afa938415610a0657600094610ba8575b507fec986952a0671e4b2e5ec4461085fb880bc7a7b88668240f8d55173039155d2054927f8953f5482bc1a621075e75537625fa3bd2025e7df7baf6ba1dbfbf2212912d0a54841015610b6457604051937f0e21d2e2d5be9ded2ebc4e15f49071921d3423c94178bed2c85195b579511f7060208601527fffffffffffffffffffffffffffffffffffffffff0000000000000000000000008460601b16604086015260243560548601526054855284608081011067ffffffffffffffff608087011117610b3557608085016040528451602086012094856000527fec986952a0671e4b2e5ec4461085fb880bc7a7b88668240f8d55173039155d2260205273ffffffffffffffffffffffffffffffffffffffff60036040600020015416610aee575073ffffffffffffffffffffffffffffffffffffffff84166000527fec986952a0671e4b2e5ec4461085fb880bc7a7b88668240f8d55173039155d216020526040600020547f8953f5482bc1a621075e75537625fa3bd2025e7df7baf6ba1dbfbf2212912d0b54811015610a8457610765916105886105d19261322e565b73ffffffffffffffffffffffffffffffffffffffff87166000527fec986952a0671e4b2e5ec4461085fb880bc7a7b88668240f8d55173039155d2160205260406000205561322e565b93847fec986952a0671e4b2e5ec4461085fb880bc7a7b88668240f8d55173039155d20557f865afb485bc19debe6b3005a955507b9380643890b997437eac163d3345167ba60407f8953f5482bc1a621075e75537625fa3bd2025e7df7baf6ba1dbfbf2212912d0854928151610646816131b9565b89815260058b8b60208401602435815286850160008152606086019173ffffffffffffffffffffffffffffffffffffffff8816835260808701938b855260a088019586526000527fec986952a0671e4b2e5ec4461085fb880bc7a7b88668240f8d55173039155d22602052886000209651875551600187015551600286015573ffffffffffffffffffffffffffffffffffffffff600386019151167fffffffffffffffffffffffff00000000000000000000000000000000000000008254161790555160048401555191015561071b89614526565b73ffffffffffffffffffffffffffffffffffffffff8251918a8352166020820152a130337f0000000000000000000000000000000000000000000000000000000000000000613708565b7f8953f5482bc1a621075e75537625fa3bd2025e7df7baf6ba1dbfbf2212912d0c5491846000527fc576653ddc86d50a6e4d0122949ce4f03ce67b12fb750e4fa8bed8f88ff5f4f36020526040600020936107be613dfa565b937fc576653ddc86d50a6e4d0122949ce4f03ce67b12fb750e4fa8bed8f88ff5f4f1547fc576653ddc86d50a6e4d0122949ce4f03ce67b12fb750e4fa8bed8f88ff5f4f254837fffffffffffffffffffffffffffffffffffffffffffffffffffffffffffffffff810111610a555761085f9183917fffffffffffffffffffffffffffffffffffffffffffffffffffffffffffffffff8601918c8a8a8a61358b565b61086883613157565b821580610a2b575b6108ca575b8760a094869461089360209b956108bb95606060019b015186613a0e565b7fc576653ddc86d50a6e4d0122949ce4f03ce67b12fb750e4fa8bed8f88ff5f4f15585613a5a565b84550151910155604051908152f35b600160ff197fc12f8bc89b8724a9b04a1d9fa4b599a7f3a5e5ea58da701aeb9c3fdf87e6198b5416177fc12f8bc89b8724a9b04a1d9fa4b599a7f3a5e5ea58da701aeb9c3fdf87e6198b557fc12f8bc89b8724a9b04a1d9fa4b599a7f3a5e5ea58da701aeb9c3fdf87e6198c805415600014610a125760405190630ecce30160e31b825260208260048173ffffffffffffffffffffffffffffffffffffffff7f0000000000000000000000000000000000000000000000000000000000000000165afa918215610a06576000926109c5575b5094600196946108938b956108bb9560209d9560a09a555b955095505094965094509750610875565b96949993959091506020873d6020116109fe575b816109e6602093836131d5565b8101031261031557955192989395949290600161099c565b3d91506109d9565b6040513d6000823e3d90fd5b508760a0946001969461089360209b956108bb956109b4565b507f8953f5482bc1a621075e75537625fa3bd2025e7df7baf6ba1dbfbf2212912d09548211610870565b7f4e487b7100000000000000000000000000000000000000000000000000000000600052601160045260246000fd5b608460405162461bcd60e51b815260206004820152602860248201527f4d617820776f726b6572732070657220636f6d707574652070726f766964657260448201527f20726561636865640000000000000000000000000000000000000000000000006064820152fd5b60808162461bcd60e51b82606494015260206084820152600f60a48201527f496420616c72656164792075736564000000000000000000000000000000000060c482015201fd5b7f4e487b7100000000000000000000000000000000000000000000000000000000600052604160045260246000fd5b606460405162461bcd60e51b815260206004820152601660248201527f54617267657420776f726b6572732072656163686564000000000000000000006044820152fd5b9093506020813d602011610bd4575b81610bc4602093836131d5565b81010312610315575192846103e9565b3d9150610bb7565b346103155760006003193601126103155760207f8953f5482bc1a621075e75537625fa3bd2025e7df7baf6ba1dbfbf2212912d0854604051908152f35b34610315576000600319360112610315576020610c34613441565b604051908152f35b346103155760406003193601126103155760043560243590806000527fec986952a0671e4b2e5ec4461085fb880bc7a7b88668240f8d55173039155d226020526040600020908215610cef57827fcf79e0e27c8c35d39bd9b727f35e6f79573597f660c88baf483fc1511c49203c93600284610ce073ffffffffffffffffffffffffffffffffffffffff6003604098015416610cd9811515613e98565b3314613ee3565b015582519182526020820152a1005b606460405162461bcd60e51b815260206004820152601760248201527f576f726b657249642063616e277420626520656d7074790000000000000000006044820152fd5b346103155760208060031936011261031557600435806000527fec986952a0671e4b2e5ec4461085fb880bc7a7b88668240f8d55173039155d2780835260406000205491604051630ecce30160e31b815273ffffffffffffffffffffffffffffffffffffffff938582600481887f0000000000000000000000000000000000000000000000000000000000000000165afa918215610a0657600092610f0b575b5011610ec7576000527fec986952a0671e4b2e5ec4461085fb880bc7a7b88668240f8d55173039155d2283526040600020916003600484015493015416925260006040812055604051917fc30fcfbcaac9e0deffa719714eaa82396ff506a0d0d0eebe170830177288715d8380610e6f858585986020909392919373ffffffffffffffffffffffffffffffffffffffff60408201951681520152565b0390a1610e9d82827f0000000000000000000000000000000000000000000000000000000000000000613d61565b6040805173ffffffffffffffffffffffffffffffffffffffff9290921682526020820192909252a1005b6064846040519062461bcd60e51b82526004820152601860248201527f436f6c6c61746572616c206e6f7420617661696c61626c6500000000000000006044820152fd5b9091508581813d8311610f33575b610f2381836131d5565b8101031261031557519086610dd3565b503d610f19565b34610315576040600319360112610315576020610c34602435600435613f7f565b34610315576020806003193601126103155760043590610f796146e2565b60ff7fc12f8bc89b8724a9b04a1d9fa4b599a7f3a5e5ea58da701aeb9c3fdf87e6198b541691610fa761331a565b9260405193630ecce30160e31b855273ffffffffffffffffffffffffffffffffffffffff918486600481867f0000000000000000000000000000000000000000000000000000000000000000165afa958615610a065760009661112b575b50916110f67f2a89b2e3d580398d6dc2db5e0f336b52602bbaa51afa9bb5cdf59239cf0d2bea968593611122957fec986952a0671e4b2e5ec4461085fb880bc7a7b88668240f8d55173039155d20547f8953f5482bc1a621075e75537625fa3bd2025e7df7baf6ba1dbfbf2212912d0c546110ef611081613dfa565b927fc576653ddc86d50a6e4d0122949ce4f03ce67b12fb750e4fa8bed8f88ff5f4f1926110d7818386547fc576653ddc86d50a6e4d0122949ce4f03ce67b12fb750e4fa8bed8f88ff5f4f254908c8a8d8d61358b565b606085016110e68c825161357e565b80915288613a0e565b9055613a5a565b7f8953f5482bc1a621075e75537625fa3bd2025e7df7baf6ba1dbfbf2212912d07541630903390613708565b604051908152a1005b9550918486813d8311611157575b61114381836131d5565b8101031261031557945194916110f6611005565b503d611139565b3461031557600060031936011261031557602060ff7f8953f5482bc1a621075e75537625fa3bd2025e7df7baf6ba1dbfbf2212912d0e5416604051906111a381613157565b8152f35b34610315576101406003193601126103155760043573ffffffffffffffffffffffffffffffffffffffff811681036103155767ffffffffffffffff8060c435116103155736602360c435011215610315578060c43560040135116103155736602460c4356004013560061b60c43501011161031557600360e43510156103155780610104351161031557366023610104350112156103155761010435600401351161031557366024610104356004013560051b610104350101116103155773ffffffffffffffffffffffffffffffffffffffff61012435166101243503610315576000549060ff8260081c161591828093611741575b801561172a575b156116c05782600160ff19831617600055611691575b506112d560ff60005460081c166112d0816132a9565b6132a9565b6112e16101243561461f565b6112f260ff60005460081c166132a9565b437f8953f5482bc1a621075e75537625fa3bd2025e7df7baf6ba1dbfbf2212912d045573ffffffffffffffffffffffffffffffffffffffff7f8953f5482bc1a621075e75537625fa3bd2025e7df7baf6ba1dbfbf2212912d0791167fffffffffffffffffffffffff00000000000000000000000000000000000000008254161790556024357f8953f5482bc1a621075e75537625fa3bd2025e7df7baf6ba1dbfbf2212912d08556044357f8953f5482bc1a621075e75537625fa3bd2025e7df7baf6ba1dbfbf2212912d09556064357f8953f5482bc1a621075e75537625fa3bd2025e7df7baf6ba1dbfbf2212912d0a556084357f8953f5482bc1a621075e75537625fa3bd2025e7df7baf6ba1dbfbf2212912d0b5560a4357f8953f5482bc1a621075e75537625fa3bd2025e7df7baf6ba1dbfbf2212912d0c5560005b60c43560040135811061151c575061144960e43561326f565b60005b610104356004013581106114b6575061146157005b7fffffffffffffffffffffffffffffffffffffffffffffffffffffffffffff00ff600054166000557f7f26b83ff96e1f2b6a682f133852f6798a09c465da95921460cefb3847402498602060405160018152a1005b60248160051b610104350101359073ffffffffffffffffffffffffffffffffffffffff82168203610315576115127fffffffffffffffffffffffffffffffffffffffff0000000000000000000000006115179360601b166143a5565b61322e565b61144c565b7f8953f5482bc1a621075e75537625fa3bd2025e7df7baf6ba1dbfbf2212912d0d5468010000000000000000811015610b355760018101807f8953f5482bc1a621075e75537625fa3bd2025e7df7baf6ba1dbfbf2212912d0d55811015611662577f8953f5482bc1a621075e75537625fa3bd2025e7df7baf6ba1dbfbf2212912d0d60005260011b90817fcfcab6f3bf9ee9c2484fd18eeb2a9bd794cfdeb4ec98cce66c941e6633f8e09501918160061b60c435019260248401357fffffffff00000000000000000000000000000000000000000000000000000000811681036103155761165d947fcfcab6f3bf9ee9c2484fd18eeb2a9bd794cfdeb4ec98cce66c941e6633f8e0969260449260e01c7fffffffffffffffffffffffffffffffffffffffffffffffffffffffff00000000825416179055013591015561322e565b611430565b7f4e487b7100000000000000000000000000000000000000000000000000000000600052603260045260246000fd5b7fffffffffffffffffffffffffffffffffffffffffffffffffffffffffffff00001661010117600055826112ba565b608460405162461bcd60e51b815260206004820152602e60248201527f496e697469616c697a61626c653a20636f6e747261637420697320616c72656160448201527f647920696e697469616c697a65640000000000000000000000000000000000006064820152fd5b50303b1580156112a45750600160ff8216146112a4565b50600160ff82161061129d565b3461031557600060031936011261031557602060405173ffffffffffffffffffffffffffffffffffffffff7f0000000000000000000000000000000000000000000000000000000000000000168152f35b346103155760006003193601126103155760207fc12f8bc89b8724a9b04a1d9fa4b599a7f3a5e5ea58da701aeb9c3fdf87e6198d54604051908152f35b3461031557600060031936011261031557602060ff7fc12f8bc89b8724a9b04a1d9fa4b599a7f3a5e5ea58da701aeb9c3fdf87e6198b5416604051906111a381613157565b3461031557600060031936011261031557600060206040516118428161319d565b8281520152604080516118548161319d565b7f8953f5482bc1a621075e75537625fa3bd2025e7df7baf6ba1dbfbf2212912d055460e01b7fffffffff00000000000000000000000000000000000000000000000000000000168082527f8953f5482bc1a621075e75537625fa3bd2025e7df7baf6ba1dbfbf2212912d0654602092830190815283519182525191810191909152f35bf35b3461031557600060031936011261031557602073ffffffffffffffffffffffffffffffffffffffff7f612e56b0fc389e6dab6fa70e140af078f831069f9c4d9558e645bdefbbc811235416604051908152f35b34610315576000600319360112610315577f8953f5482bc1a621075e75537625fa3bd2025e7df7baf6ba1dbfbf2212912d115461196881613216565b9061197660405192836131d5565b8082527fffffffffffffffffffffffffffffffffffffffffffffffffffffffffffffffe090816119a582613216565b019060209136838601377f8953f5482bc1a621075e75537625fa3bd2025e7df7baf6ba1dbfbf2212912d0f546000905b828210611a9957505050825190611a046119ee83613216565b926119fc60405194856131d5565b808452613216565b828201930136843760005b8451811015611a3f5780611a26611a3a928761325b565b5160601c611a34828661325b565b5261322e565b611a0f565b50925090604051928392818401908285525180915260408401929160005b828110611a6c57505050500390f35b835173ffffffffffffffffffffffffffffffffffffffff1685528695509381019392810192600101611a5d565b80611aa4838861325b565b526000527f8953f5482bc1a621075e75537625fa3bd2025e7df7baf6ba1dbfbf2212912d128352611add6001604060002001549161322e565b906119d5565b346103155760006003193601126103155760207f8953f5482bc1a621075e75537625fa3bd2025e7df7baf6ba1dbfbf2212912d0b54604051908152f35b346103155760208060031936011261031557600435806000527fc576653ddc86d50a6e4d0122949ce4f03ce67b12fb750e4fa8bed8f88ff5f4f38252604060002060ff7fc12f8bc89b8724a9b04a1d9fa4b599a7f3a5e5ea58da701aeb9c3fdf87e6198b5416611b8e61331a565b60405190630ecce30160e31b825273ffffffffffffffffffffffffffffffffffffffff928683600481877f0000000000000000000000000000000000000000000000000000000000000000165afa928315610a0657600093611d8b575b507fec986952a0671e4b2e5ec4461085fb880bc7a7b88668240f8d55173039155d20547f8953f5482bc1a621075e75537625fa3bd2025e7df7baf6ba1dbfbf2212912d0c54611c8b81611c3c613dfa565b937fc576653ddc86d50a6e4d0122949ce4f03ce67b12fb750e4fa8bed8f88ff5f4f1547fc576653ddc86d50a6e4d0122949ce4f03ce67b12fb750e4fa8bed8f88ff5f4f2549089878a8a61358b565b60a082015190611cbd611c9f895488613190565b611cb760018b0193611cb2855487613190565b61342e565b90613190565b978815611d47578689968c96611d3c967f9b5336625f529f36cb0543297bdf5075b7f6b830bb892ff97c09fbfeae6255d59c9660409c968f9c611d1297555560808101611d0b888251613190565b9052613a5a565b7f8953f5482bc1a621075e75537625fa3bd2025e7df7baf6ba1dbfbf2212912d0754163390613d61565b8351928352820152a1005b60648b6040519062461bcd60e51b82526004820152600a60248201527f4e6f2072657761726473000000000000000000000000000000000000000000006044820152fd5b9092508681813d8311611db3575b611da381836131d5565b8101031261031557519187611beb565b503d611d99565b346103155760206003193601126103155760043560038110156103155761034390611de36146e2565b61326f565b3461031557602060031936011261031557611e01613dc8565b506004356000527fec986952a0671e4b2e5ec4461085fb880bc7a7b88668240f8d55173039155d2260205260c06040600020600560405191611e42836131b9565b80548352600181015460208401526002810154604084015273ffffffffffffffffffffffffffffffffffffffff600382015416606084015260048101546080840152015460a08201526118d7604051809260a0809180518452602081015160208501526040810151604085015273ffffffffffffffffffffffffffffffffffffffff6060820151166060850152608081015160808501520151910152565b3461031557600060031936011261031557611ef96146e2565b600073ffffffffffffffffffffffffffffffffffffffff7f612e56b0fc389e6dab6fa70e140af078f831069f9c4d9558e645bdefbbc811238054907fffffffffffffffffffffffff000000000000000000000000000000000000000082169055167f8be0079c531659141344cd1fd0a4f28419497f9722a3daafe3b4186f6b6457e08280a3005b346103155760006003193601126103155760207f8953f5482bc1a621075e75537625fa3bd2025e7df7baf6ba1dbfbf2212912d0c54604051908152f35b34610315576000600319360112610315576020611fd861331a565b604051906111a381613157565b34610315576000600319360112610315577fec986952a0671e4b2e5ec4461085fb880bc7a7b88668240f8d55173039155d20547fffffffffffffffffffffffffffffffffffffffffffffffffffffffffffffffe06120456119ee83613216565b0160005b8181106121e8578260007fec986952a0671e4b2e5ec4461085fb880bc7a7b88668240f8d55173039155d235490815b61210f5760408051602080825285518183018190528187019383019160005b8281106120a45784840385f35b9091928260c0826121006001948a5160a0809180518452602081015160208501526040810151604085015273ffffffffffffffffffffffffffffffffffffffff6060820151166060850152608081015160808501520151910152565b01960191019492919094612097565b816000527fec986952a0671e4b2e5ec4461085fb880bc7a7b88668240f8d55173039155d2660207fec986952a0671e4b2e5ec4461085fb880bc7a7b88668240f8d55173039155d2281526121d560406000209360405161216e816131b9565b85548152600560019687810154868401526002810154604084015273ffffffffffffffffffffffffffffffffffffffff600382015416606084015260048101546080840152015460a08201526121c4828961325b565b526121cf818861325b565b5061322e565b9360005252604060002001549081612078565b6020906121f3613dc8565b82828601015201612049565b346103155760006003193601126103155760207fc12f8bc89b8724a9b04a1d9fa4b599a7f3a5e5ea58da701aeb9c3fdf87e6198c54604051908152f35b34610315576020600319360112610315577fc12f8bc89b8724a9b04a1d9fa4b599a7f3a5e5ea58da701aeb9c3fdf87e6198b60ff81541661227b61331a565b60405191630ecce30160e31b835260208360048173ffffffffffffffffffffffffffffffffffffffff7f0000000000000000000000000000000000000000000000000000000000000000165afa928315610a0657600093612413575b506122e181613157565b6002810361240a576123177fc12f8bc89b8724a9b04a1d9fa4b599a7f3a5e5ea58da701aeb9c3fdf87e6198d545b600435613f7f565b937f8953f5482bc1a621075e75537625fa3bd2025e7df7baf6ba1dbfbf2212912d0c5494612343613dfa565b917fc576653ddc86d50a6e4d0122949ce4f03ce67b12fb750e4fa8bed8f88ff5f4f1918254977fc576653ddc86d50a6e4d0122949ce4f03ce67b12fb750e4fa8bed8f88ff5f4f254926001830193848411610a5557826110ef956123ae926103439d8d8b8e8e61358b565b6123b787613157565b60018714806123e0575b6123d2575b50606085015188613a0e565b60ff198154169055896123c6565b507f8953f5482bc1a621075e75537625fa3bd2025e7df7baf6ba1dbfbf2212912d095483106123c1565b6123178361230f565b9092506020813d821161243e575b8161242e602093836131d5565b81010312610315575191846122d7565b3d9150612421565b3461031557600060031936011261031557602073ffffffffffffffffffffffffffffffffffffffff7f8953f5482bc1a621075e75537625fa3bd2025e7df7baf6ba1dbfbf2212912d075416604051908152f35b346103155760208060031936011261031557600435906124b76146e2565b60ff7fc12f8bc89b8724a9b04a1d9fa4b599a7f3a5e5ea58da701aeb9c3fdf87e6198b5416916124e561331a565b60405190630ecce30160e31b825273ffffffffffffffffffffffffffffffffffffffff948483600481897f0000000000000000000000000000000000000000000000000000000000000000165afa928315610a065760009361282f575b507fec986952a0671e4b2e5ec4461085fb880bc7a7b88668240f8d55173039155d20547f8953f5482bc1a621075e75537625fa3bd2025e7df7baf6ba1dbfbf2212912d0c5461259083613157565b600283036126b857505050507fc12f8bc89b8724a9b04a1d9fa4b599a7f3a5e5ea58da701aeb9c3fdf87e6198d549060028201809211610a5557111561264e57611122817f430648de173157e069201c943adb2d4e340e7cf5b27b1b09c9cb852f03d63b56947fc576653ddc86d50a6e4d0122949ce4f03ce67b12fb750e4fa8bed8f88ff5f4ee612622838254613190565b90557f8953f5482bc1a621075e75537625fa3bd2025e7df7baf6ba1dbfbf2212912d0754163390613d61565b6084826040519062461bcd60e51b82526004820152602d60248201527f43616e2774207769746864726177206265666f726520322065706f636873206160448201527f66746572206465616c20656e64000000000000000000000000000000000000006064820152fd5b6126c0613dfa565b917fc576653ddc86d50a6e4d0122949ce4f03ce67b12fb750e4fa8bed8f88ff5f4f191612716818385547fc576653ddc86d50a6e4d0122949ce4f03ce67b12fb750e4fa8bed8f88ff5f4f254908b898c8c61358b565b60608401612725898251613190565b81527f7fffffffffffffffffffffffffffffffffffffffffffffffffffffffffffffff82168203610a555761277e7f8953f5482bc1a621075e75537625fa3bd2025e7df7baf6ba1dbfbf2212912d0a548360011b61342e565b8151106127c5579361112297936110ef8a98947f430648de173157e069201c943adb2d4e340e7cf5b27b1b09c9cb852f03d63b569d98946127c0985188613a0e565b611d12565b60848a6040519062461bcd60e51b82526004820152602c60248201527f467265652062616c616e6365206e6565647320746f20636f766572206d696e6960448201527f6d756d20322065706f63687300000000000000000000000000000000000000006064820152fd5b9092508481813d8311612857575b61284781836131d5565b8101031261031557519186612542565b503d61283d565b346103155760006003193601126103155760207f8953f5482bc1a621075e75537625fa3bd2025e7df7baf6ba1dbfbf2212912d0954604051908152f35b34610315576020600319360112610315576004356000527fec986952a0671e4b2e5ec4461085fb880bc7a7b88668240f8d55173039155d276020526020604060002054604051908152f35b346103155760006003193601126103155760207f8953f5482bc1a621075e75537625fa3bd2025e7df7baf6ba1dbfbf2212912d0a54604051908152f35b3461031557602080600319360112610315576004356000527fc576653ddc86d50a6e4d0122949ce4f03ce67b12fb750e4fa8bed8f88ff5f4f38152604060002060ff7fc12f8bc89b8724a9b04a1d9fa4b599a7f3a5e5ea58da701aeb9c3fdf87e6198b54169061299161331a565b9060405191630ecce30160e31b8352848360048173ffffffffffffffffffffffffffffffffffffffff7f0000000000000000000000000000000000000000000000000000000000000000165afa928315610a0657600093612ab5575b5092611cb2611cb792600160a0612aa987612aa1610c349a7fec986952a0671e4b2e5ec4461085fb880bc7a7b88668240f8d55173039155d20547f8953f5482bc1a621075e75537625fa3bd2025e7df7baf6ba1dbfbf2212912d0c54998a92612a54613dfa565b9d8e7fc576653ddc86d50a6e4d0122949ce4f03ce67b12fb750e4fa8bed8f88ff5f4f154927fc576653ddc86d50a6e4d0122949ce4f03ce67b12fb750e4fa8bed8f88ff5f4f2549461358b565b845490613190565b96015191015490613190565b919250928482813d8311612ae5575b612ace81836131d5565b810103126103155790519092909190611cb26129ed565b503d612ac4565b3461031557604060031936011261031557612b056146e2565b6004357fffffffff00000000000000000000000000000000000000000000000000000000811690818103610315577fc820a66d3bdd50a45cf12cda6dc8ec9e94fb5123edd7da736eea18316f8523a0916040917f8953f5482bc1a621075e75537625fa3bd2025e7df7baf6ba1dbfbf2212912d059060e01c7fffffffffffffffffffffffffffffffffffffffffffffffffffffffff00000000825416179055602435807f8953f5482bc1a621075e75537625fa3bd2025e7df7baf6ba1dbfbf2212912d065582519182526020820152a1005b346103155760006003193601126103155760207f8953f5482bc1a621075e75537625fa3bd2025e7df7baf6ba1dbfbf2212912d0454604051908152f35b3461031557602080600319360112610315577fffffffffffffffffffffffffffffffffffffffff000000000000000000000000612c4f613134565b612c576146e2565b60601b1690816000527f8953f5482bc1a621075e75537625fa3bd2025e7df7baf6ba1dbfbf2212912d12918282526040600020600160405191612c998361319d565b805483520154838201908152612caf83836142a5565b15612d9757815180159081612d6e575b8251918215612d46575b15612d30575b5050519081612d1b575b505060005252600060016040822082815501557f8953f5482bc1a621075e75537625fa3bd2025e7df7baf6ba1dbfbf2212912d11612d178154613f54565b9055005b51906000528383526040600020558380612cd9565b6000528585526001604060002001558580612ccf565b817f8953f5482bc1a621075e75537625fa3bd2025e7df7baf6ba1dbfbf2212912d1055612cc9565b82517f8953f5482bc1a621075e75537625fa3bd2025e7df7baf6ba1dbfbf2212912d0f55612cbf565b6064846040519062461bcd60e51b82526004820152601260248201527f4b657920646f6573206e6f7420657869737400000000000000000000000000006044820152fd5b346103155760006003193601126103155760207fec986952a0671e4b2e5ec4461085fb880bc7a7b88668240f8d55173039155d2054604051908152f35b3461031557600060031936011261031557612e316146e2565b7fc12f8bc89b8724a9b04a1d9fa4b599a7f3a5e5ea58da701aeb9c3fdf87e6198b60ff81541690612e6061331a565b90612e69613dfa565b9073ffffffffffffffffffffffffffffffffffffffff7f0000000000000000000000000000000000000000000000000000000000000000169160405190630ecce30160e31b948583526020968784600481895afa938415610a0657600094612ff5575b50612f709184917fc576653ddc86d50a6e4d0122949ce4f03ce67b12fb750e4fa8bed8f88ff5f4f194612f6b86547fc576653ddc86d50a6e4d0122949ce4f03ce67b12fb750e4fa8bed8f88ff5f4f2547fec986952a0671e4b2e5ec4461085fb880bc7a7b88668240f8d55173039155d2054907f8953f5482bc1a621075e75537625fa3bd2025e7df7baf6ba1dbfbf2212912d0c54928886898961358b565b613a5a565b55600260ff198254161790557fc12f8bc89b8724a9b04a1d9fa4b599a7f3a5e5ea58da701aeb9c3fdf87e6198d91825415612fa757005b839060046040518094819382525afa928315610a0657600093612fc957505055005b9080929350813d8311612fee575b612fe181836131d5565b8101031261031557519055005b503d612fd7565b9193508782813d8311613021575b61300d81836131d5565b8101031261031557612f7091519391612ecc565b503d613003565b3461031557602060031936011261031557602080917fffffffffffffffffffffffffffffffffffffffff000000000000000000000000613066613134565b60601b1690816000527f8953f5482bc1a621075e75537625fa3bd2025e7df7baf6ba1dbfbf2212912d1283526040600020906130a18161319d565b600182549283835201549384910152159182159261312a575b5081156130ff575b81156130d4575b506040519015158152f35b90507f8953f5482bc1a621075e75537625fa3bd2025e7df7baf6ba1dbfbf2212912d105414826130c9565b7f8953f5482bc1a621075e75537625fa3bd2025e7df7baf6ba1dbfbf2212912d0f54811491506130c2565b15159150836130ba565b6004359073ffffffffffffffffffffffffffffffffffffffff8216820361031557565b6003111561316157565b7f4e487b7100000000000000000000000000000000000000000000000000000000600052602160045260246000fd5b91908203918211610a5557565b6040810190811067ffffffffffffffff821117610b3557604052565b60c0810190811067ffffffffffffffff821117610b3557604052565b90601f7fffffffffffffffffffffffffffffffffffffffffffffffffffffffffffffffe0910116810190811067ffffffffffffffff821117610b3557604052565b67ffffffffffffffff8111610b355760051b60200190565b7fffffffffffffffffffffffffffffffffffffffffffffffffffffffffffffffff8114610a555760010190565b80518210156116625760209160051b010190565b61327881613157565b7f8953f5482bc1a621075e75537625fa3bd2025e7df7baf6ba1dbfbf2212912d0e9060ff60ff198354169116179055565b156132b057565b608460405162461bcd60e51b815260206004820152602b60248201527f496e697469616c697a61626c653a20636f6e7472616374206973206e6f74206960448201527f6e697469616c697a696e670000000000000000000000000000000000000000006064820152fd5b60ff7fc12f8bc89b8724a9b04a1d9fa4b599a7f3a5e5ea58da701aeb9c3fdf87e6198b541661334881613157565b60028114801561341d575b61341a5750604051630ecce30160e31b815260208160048173ffffffffffffffffffffffffffffffffffffffff7f0000000000000000000000000000000000000000000000000000000000000000165afa908115610a06576000916133e6575b507fc576653ddc86d50a6e4d0122949ce4f03ce67b12fb750e4fa8bed8f88ff5f4f15410156133e157600090565b600190565b906020823d8211613412575b816133ff602093836131d5565b8101031261340f575051386133b3565b80fd5b3d91506133f2565b90565b5061342781613157565b8015613353565b81810292918115918404141715610a5557565b604051630ecce30160e31b815260208160048173ffffffffffffffffffffffffffffffffffffffff7f0000000000000000000000000000000000000000000000000000000000000000165afa908115610a065760009161354d575b507fc576653ddc86d50a6e4d0122949ce4f03ce67b12fb750e4fa8bed8f88ff5f4f15481116135475761351f6134f761341a927fc576653ddc86d50a6e4d0122949ce4f03ce67b12fb750e4fa8bed8f88ff5f4f25490613190565b7f8953f5482bc1a621075e75537625fa3bd2025e7df7baf6ba1dbfbf2212912d0c549061342e565b7fec986952a0671e4b2e5ec4461085fb880bc7a7b88668240f8d55173039155d20549061342e565b50600090565b906020823d8211613576575b81613566602093836131d5565b8101031261340f5750513861349c565b3d9150613559565b91908201809211610a5557565b96939195949661359a82613157565b6135a381613157565b80821480806136f5575b156135ee575050505091611cb26135ce92611cb26135e99697608096613190565b92606081016135de858251613190565b90520191825161357e565b90525b565b6135fa83979597613157565b61360382613157565b806136e4575b80156136bf575b1561363357505050505061362d60a06135e9930193845192613190565b9061357e565b806136446001929894959698613157565b1490816136ad575b5061365a575b505050505050565b61367461362d93611cb26136a097611cb28a60a097613190565b60608201613683828251613190565b90526136946080830191825161357e565b90520193845192613190565b9052388080808080613652565b90506136b881613157565b153861364c565b506136c981613157565b8015801561361057506136db82613157565b60018214613610565b506136ee82613157565b8115613609565b506136ff82613157565b600182146135ad565b9290604051927f23b872dd00000000000000000000000000000000000000000000000000000000602085015273ffffffffffffffffffffffffffffffffffffffff809216602485015216604483015260648201526064815260a081019181831067ffffffffffffffff841117610b35576135ec926040525b73ffffffffffffffffffffffffffffffffffffffff16906040516137a38161319d565b6020928382527f5361666545524332303a206c6f772d6c6576656c2063616c6c206661696c6564848301526000808486829651910182855af13d15613916573d9167ffffffffffffffff83116138e9579061383c9392916040519261382f887fffffffffffffffffffffffffffffffffffffffffffffffffffffffffffffffe0601f84011601856131d5565b83523d868885013e613920565b8051918215918483156138c1575b5050509050156138575750565b6084906040519062461bcd60e51b82526004820152602a60248201527f5361666545524332303a204552433230206f7065726174696f6e20646964206e60448201527f6f742073756363656564000000000000000000000000000000000000000000006064820152fd5b9193818094500103126138e55782015190811515820361340f57508038808461384a565b5080fd5b6024857f4e487b710000000000000000000000000000000000000000000000000000000081526041600452fd5b9061383c92916060915b919290156139815750815115613934575090565b3b1561393d5790565b606460405162461bcd60e51b815260206004820152601d60248201527f416464726573733a2063616c6c20746f206e6f6e2d636f6e74726163740000006044820152fd5b8251909150156139945750805190602001fd5b6040519062461bcd60e51b825281602080600483015282519283602484015260005b8481106139f7575050507fffffffffffffffffffffffffffffffffffffffffffffffffffffffffffffffe0601f836000604480968601015201168101030190fd5b8181018301518682016044015285935082016139b6565b9192613a1a919361342e565b8015613a2b5761341a92049061357e565b7f4e487b7100000000000000000000000000000000000000000000000000000000600052601260045260246000fd5b9290829184516060860151809103613d39575b50602094858101516080820151809103613d11575b5060a06040820151910151809103613ce9575b507fc576653ddc86d50a6e4d0122949ce4f03ce67b12fb750e4fa8bed8f88ff5f4f255613ac182613157565b613aca81613157565b03613ad3575050565b613adc81613157565b7fc12f8bc89b8724a9b04a1d9fa4b599a7f3a5e5ea58da701aeb9c3fdf87e6198b60ff1981541660ff8316179055613b1381613157565b6001811480613cc0575b15613bd0575060405190630ecce30160e31b8252808260048173ffffffffffffffffffffffffffffffffffffffff7f0000000000000000000000000000000000000000000000000000000000000000165afa908115610a0657600091613ba4575b507fc12f8bc89b8724a9b04a1d9fa4b599a7f3a5e5ea58da701aeb9c3fdf87e6198c5550565b82813d8311613bc9575b613bb881836131d5565b8101031261340f5750518038613b7e565b503d613bae565b80613bdc600292613157565b1480613c97575b613bea5750565b60405190630ecce30160e31b8252808260048173ffffffffffffffffffffffffffffffffffffffff7f0000000000000000000000000000000000000000000000000000000000000000165afa908115610a0657600091613c6b575b507fc12f8bc89b8724a9b04a1d9fa4b599a7f3a5e5ea58da701aeb9c3fdf87e6198d5550565b82813d8311613c90575b613c7f81836131d5565b8101031261340f5750518038613c45565b503d613c75565b507fc12f8bc89b8724a9b04a1d9fa4b599a7f3a5e5ea58da701aeb9c3fdf87e6198d5415613be3565b507fc12f8bc89b8724a9b04a1d9fa4b599a7f3a5e5ea58da701aeb9c3fdf87e6198c5415613b1d565b7fc576653ddc86d50a6e4d0122949ce4f03ce67b12fb750e4fa8bed8f88ff5f4f05538613a95565b7fc576653ddc86d50a6e4d0122949ce4f03ce67b12fb750e4fa8bed8f88ff5f4ef5538613a82565b7fc576653ddc86d50a6e4d0122949ce4f03ce67b12fb750e4fa8bed8f88ff5f4ee5538613a6d565b6040517fa9059cbb00000000000000000000000000000000000000000000000000000000602082015273ffffffffffffffffffffffffffffffffffffffff9290921660248301526044808301939093529181526135ec91613dc36064836131d5565b613780565b60405190613dd5826131b9565b8160a06000918281528260208201528260408201528260608201528260808201520152565b613e02613dc8565b507fc576653ddc86d50a6e4d0122949ce4f03ce67b12fb750e4fa8bed8f88ff5f4ee547fc576653ddc86d50a6e4d0122949ce4f03ce67b12fb750e4fa8bed8f88ff5f4ef547fc576653ddc86d50a6e4d0122949ce4f03ce67b12fb750e4fa8bed8f88ff5f4f0549060405192613e77846131b9565b8084528160208501528260408501526060840152608083015260a082015290565b15613e9f57565b606460405162461bcd60e51b815260206004820152601560248201527f436f6d70757465556e6974206e6f7420666f756e6400000000000000000000006044820152fd5b15613eea57565b608460405162461bcd60e51b815260206004820152602d60248201527f4f6e6c792070726f7669646572206f72206465616c206f776e65722063616e2060448201527f72656d6f766520776f726b6572000000000000000000000000000000000000006064820152fd5b8015610a55577fffffffffffffffffffffffffffffffffffffffffffffffffffffffffffffffff0190565b9190916000928184527fec986952a0671e4b2e5ec4461085fb880bc7a7b88668240f8d55173039155d229160209183835273ffffffffffffffffffffffffffffffffffffffff93604091613ff2866003858b2001541696613fe1881515613e98565b338814908115614278575b50613ee3565b6140537fec986952a0671e4b2e5ec4461085fb880bc7a7b88668240f8d55173039155d20968754908a527fec986952a0671e4b2e5ec4461085fb880bc7a7b88668240f8d55173039155d218752848a2061404c8154613f54565b9055613f54565b8096556001810180911161424b578388527fec986952a0671e4b2e5ec4461085fb880bc7a7b88668240f8d55173039155d27855282882055835285600582822082815582600182015582600282015582600382015582600482015501557fec986952a0671e4b2e5ec4461085fb880bc7a7b88668240f8d55173039155d26958684528181209660018351986140e78a61319d565b80548a520154978581019889526140fe8582614325565b15614208577f319861d91651b1d776940afecf33ec848245a2b1fb1854613bbe2a367b54f7929697988151801590816141df575b82519182156141b7575b156141a4575b5050519081614192575b50508382528452600182822082815501557fec986952a0671e4b2e5ec4461085fb880bc7a7b88668240f8d55173039155d256141888154613f54565b905551908152a190565b5190835281865283832055388061414c565b8552838852600186862001553880614142565b817fec986952a0671e4b2e5ec4461085fb880bc7a7b88668240f8d55173039155d245561413c565b82517fec986952a0671e4b2e5ec4461085fb880bc7a7b88668240f8d55173039155d2355614132565b60648685519062461bcd60e51b82526004820152601260248201527f4b657920646f6573206e6f7420657869737400000000000000000000000000006044820152fd5b6024887f4e487b710000000000000000000000000000000000000000000000000000000081526011600452fd5b90507f612e56b0fc389e6dab6fa70e140af078f831069f9c4d9558e645bdefbbc811235416331438613fec565b9081511591821592614317575b5081156142ec575b81156142c4575090565b90507f8953f5482bc1a621075e75537625fa3bd2025e7df7baf6ba1dbfbf2212912d10541490565b7f8953f5482bc1a621075e75537625fa3bd2025e7df7baf6ba1dbfbf2212912d0f54811491506142ba565b6020015115159150386142b2565b9081511591821592614397575b50811561436c575b8115614344575090565b90507fec986952a0671e4b2e5ec4461085fb880bc7a7b88668240f8d55173039155d24541490565b7fec986952a0671e4b2e5ec4461085fb880bc7a7b88668240f8d55173039155d23548114915061433a565b602001511515915038614332565b80156144e25760008181527f8953f5482bc1a621075e75537625fa3bd2025e7df7baf6ba1dbfbf2212912d1290816020526143fd83604083206001604051916143ed8361319d565b80548352015460208201526142a5565b61449e577f8953f5482bc1a621075e75537625fa3bd2025e7df7baf6ba1dbfbf2212912d10918254907f8953f5482bc1a621075e75537625fa3bd2025e7df7baf6ba1dbfbf2212912d11614451815461322e565b9055848215614476579060409392916001955585835260205280838320558152200155565b7f8953f5482bc1a621075e75537625fa3bd2025e7df7baf6ba1dbfbf2212912d0f5550505055565b606460405162461bcd60e51b815260206004820152601260248201527f4b657920616c72656164792065786973747300000000000000000000000000006044820152fd5b606460405162461bcd60e51b815260206004820152601260248201527f4b65792063616e6e6f74206265205a45524f00000000000000000000000000006044820152fd5b80156144e25760008181527fec986952a0671e4b2e5ec4461085fb880bc7a7b88668240f8d55173039155d26908160205261457e836040832060016040519161456e8361319d565b8054835201546020820152614325565b61449e577fec986952a0671e4b2e5ec4461085fb880bc7a7b88668240f8d55173039155d24918254907fec986952a0671e4b2e5ec4461085fb880bc7a7b88668240f8d55173039155d256145d2815461322e565b90558482156145f7579060409392916001955585835260205280838320558152200155565b7fec986952a0671e4b2e5ec4461085fb880bc7a7b88668240f8d55173039155d235550505055565b73ffffffffffffffffffffffffffffffffffffffff8091169081156146b1577f612e56b0fc389e6dab6fa70e140af078f831069f9c4d9558e645bdefbbc81123805490837fffffffffffffffffffffffff00000000000000000000000000000000000000008316179055167f8be0079c531659141344cd1fd0a4f28419497f9722a3daafe3b4186f6b6457e0600080a3565b60246040517f1e4fbdf700000000000000000000000000000000000000000000000000000000815260006004820152fd5b73ffffffffffffffffffffffffffffffffffffffff7f612e56b0fc389e6dab6fa70e140af078f831069f9c4d9558e645bdefbbc811235416330361472257565b60246040517f118cdaa7000000000000000000000000000000000000000000000000000000008152336004820152fdfea2646970667358221220bfd18a76df145138bf37ca3e36453f4dca7e9ad0aaa008129bba6bdfbc32a0af64736f6c63430008130033",
  "devdoc": {
    "errors": {
      "OwnableInvalidOwner(address)": [
        {
          "details": "The owner is not a valid owner account. (eg. `address(0)`)"
        }
      ],
      "OwnableUnauthorizedAccount(address)": [
        {
          "details": "The caller account is not authorized to perform an operation."
        }
      ]
    },
    "events": {
      "Initialized(uint8)": {
        "details": "Triggered when the contract has been initialized or reinitialized."
      }
    },
    "kind": "dev",
    "methods": {
      "owner()": {
        "details": "Returns the address of the current owner."
      },
      "renounceOwnership()": {
        "details": "Leaves the contract without owner. It will not be possible to call `onlyOwner` functions. Can only be called by the current owner. NOTE: Renouncing ownership will leave the contract without an owner, thereby disabling any functionality that is only available to the owner."
      },
      "transferOwnership(address)": {
        "details": "Transfers ownership of the contract to a new account (`newOwner`). Can only be called by the current owner."
      }
    },
    "version": 1
  },
  "userdoc": {
    "kind": "user",
    "methods": {},
    "version": 1
  },
  "storageLayout": {
    "storage": [
      {
        "astId": 371,
        "contract": "contracts/deal/Deal.sol:Deal",
        "label": "_initialized",
        "offset": 0,
        "slot": "0",
        "type": "t_uint8"
      },
      {
        "astId": 374,
        "contract": "contracts/deal/Deal.sol:Deal",
        "label": "_initializing",
        "offset": 1,
        "slot": "0",
        "type": "t_bool"
      },
      {
        "astId": 9482,
        "contract": "contracts/deal/Deal.sol:Deal",
        "label": "_storage",
        "offset": 0,
        "slot": "1",
        "type": "t_struct(OwnableStorage)9479_storage"
      },
      {
        "astId": 3476,
        "contract": "contracts/deal/Deal.sol:Deal",
        "label": "_storage",
        "offset": 0,
        "slot": "2",
        "type": "t_struct(ConfigStorage)3473_storage"
      },
      {
        "astId": 5488,
        "contract": "contracts/deal/Deal.sol:Deal",
        "label": "_storage",
        "offset": 0,
        "slot": "17",
        "type": "t_struct(StatusControllerStorage)5485_storage"
      },
      {
        "astId": 5654,
        "contract": "contracts/deal/Deal.sol:Deal",
        "label": "_storage",
        "offset": 0,
        "slot": "20",
        "type": "t_struct(WorkerManagerStorage)5651_storage"
      },
      {
        "astId": 4021,
        "contract": "contracts/deal/Deal.sol:Deal",
        "label": "_storage",
        "offset": 0,
        "slot": "28",
        "type": "t_struct(DealStorage)4018_storage"
      }
    ],
    "types": {
      "t_address": {
        "encoding": "inplace",
        "label": "address",
        "numberOfBytes": "20"
      },
      "t_array(t_struct(CIDV1)6162_storage)dyn_storage": {
        "base": "t_struct(CIDV1)6162_storage",
        "encoding": "dynamic_array",
        "label": "struct CIDV1[]",
        "numberOfBytes": "32"
      },
      "t_bool": {
        "encoding": "inplace",
        "label": "bool",
        "numberOfBytes": "1"
      },
      "t_bytes32": {
        "encoding": "inplace",
        "label": "bytes32",
        "numberOfBytes": "32"
      },
      "t_bytes4": {
        "encoding": "inplace",
        "label": "bytes4",
        "numberOfBytes": "4"
      },
      "t_contract(IERC20)2321": {
        "encoding": "inplace",
        "label": "contract IERC20",
        "numberOfBytes": "20"
      },
      "t_enum(AccessType)6170": {
        "encoding": "inplace",
        "label": "enum IConfig.AccessType",
        "numberOfBytes": "1"
      },
      "t_enum(Status)6361": {
        "encoding": "inplace",
        "label": "enum IStatusController.Status",
        "numberOfBytes": "1"
      },
      "t_mapping(t_address,t_struct(ComputeProviderInfo)5618_storage)": {
        "encoding": "mapping",
        "key": "t_address",
        "label": "mapping(address => struct WorkerManager.ComputeProviderInfo)",
        "numberOfBytes": "32",
        "value": "t_struct(ComputeProviderInfo)5618_storage"
      },
      "t_mapping(t_bytes32,t_struct(ComputeUnit)6389_storage)": {
        "encoding": "mapping",
        "key": "t_bytes32",
        "label": "mapping(bytes32 => struct IWorkerManager.ComputeUnit)",
        "numberOfBytes": "32",
        "value": "t_struct(ComputeUnit)6389_storage"
      },
      "t_mapping(t_bytes32,t_struct(ComputeUnitPaymentInfo)3989_storage)": {
        "encoding": "mapping",
        "key": "t_bytes32",
        "label": "mapping(bytes32 => struct Deal.ComputeUnitPaymentInfo)",
        "numberOfBytes": "32",
        "value": "t_struct(ComputeUnitPaymentInfo)3989_storage"
      },
      "t_mapping(t_bytes32,t_struct(Element)9067_storage)": {
        "encoding": "mapping",
        "key": "t_bytes32",
        "label": "mapping(bytes32 => struct LinkedListWithUniqueKeys.Element)",
        "numberOfBytes": "32",
        "value": "t_struct(Element)9067_storage"
      },
      "t_mapping(t_bytes32,t_uint256)": {
        "encoding": "mapping",
        "key": "t_bytes32",
        "label": "mapping(bytes32 => uint256)",
        "numberOfBytes": "32",
        "value": "t_uint256"
      },
      "t_struct(Bytes32List)9079_storage": {
        "encoding": "inplace",
        "label": "struct LinkedListWithUniqueKeys.Bytes32List",
        "members": [
          {
            "astId": 9069,
            "contract": "contracts/deal/Deal.sol:Deal",
            "label": "_first",
            "offset": 0,
            "slot": "0",
            "type": "t_bytes32"
          },
          {
            "astId": 9071,
            "contract": "contracts/deal/Deal.sol:Deal",
            "label": "_last",
            "offset": 0,
            "slot": "1",
            "type": "t_bytes32"
          },
          {
            "astId": 9073,
            "contract": "contracts/deal/Deal.sol:Deal",
            "label": "_length",
            "offset": 0,
            "slot": "2",
            "type": "t_uint256"
          },
          {
            "astId": 9078,
            "contract": "contracts/deal/Deal.sol:Deal",
            "label": "_elements",
            "offset": 0,
            "slot": "3",
            "type": "t_mapping(t_bytes32,t_struct(Element)9067_storage)"
          }
        ],
        "numberOfBytes": "128"
      },
      "t_struct(CIDV1)6162_storage": {
        "encoding": "inplace",
        "label": "struct CIDV1",
        "members": [
          {
            "astId": 6159,
            "contract": "contracts/deal/Deal.sol:Deal",
            "label": "prefixes",
            "offset": 0,
            "slot": "0",
            "type": "t_bytes4"
          },
          {
            "astId": 6161,
            "contract": "contracts/deal/Deal.sol:Deal",
            "label": "hash",
            "offset": 0,
            "slot": "1",
            "type": "t_bytes32"
          }
        ],
        "numberOfBytes": "64"
      },
      "t_struct(ComputeProviderInfo)5618_storage": {
        "encoding": "inplace",
        "label": "struct WorkerManager.ComputeProviderInfo",
        "members": [
          {
            "astId": 5614,
            "contract": "contracts/deal/Deal.sol:Deal",
            "label": "computeUnitCount",
            "offset": 0,
            "slot": "0",
            "type": "t_uint256"
          },
          {
            "astId": 5617,
            "contract": "contracts/deal/Deal.sol:Deal",
            "label": "computeUnitsIds",
            "offset": 0,
            "slot": "1",
            "type": "t_struct(Bytes32List)9079_storage"
          }
        ],
        "numberOfBytes": "160"
      },
      "t_struct(ComputeUnit)6389_storage": {
        "encoding": "inplace",
        "label": "struct IWorkerManager.ComputeUnit",
        "members": [
          {
            "astId": 6378,
            "contract": "contracts/deal/Deal.sol:Deal",
            "label": "id",
            "offset": 0,
            "slot": "0",
            "type": "t_bytes32"
          },
          {
            "astId": 6380,
            "contract": "contracts/deal/Deal.sol:Deal",
            "label": "peerId",
            "offset": 0,
            "slot": "1",
            "type": "t_bytes32"
          },
          {
            "astId": 6382,
            "contract": "contracts/deal/Deal.sol:Deal",
            "label": "workerId",
            "offset": 0,
            "slot": "2",
            "type": "t_bytes32"
          },
          {
            "astId": 6384,
            "contract": "contracts/deal/Deal.sol:Deal",
            "label": "owner",
            "offset": 0,
            "slot": "3",
            "type": "t_address"
          },
          {
            "astId": 6386,
            "contract": "contracts/deal/Deal.sol:Deal",
            "label": "collateral",
            "offset": 0,
            "slot": "4",
            "type": "t_uint256"
          },
          {
            "astId": 6388,
            "contract": "contracts/deal/Deal.sol:Deal",
            "label": "created",
            "offset": 0,
            "slot": "5",
            "type": "t_uint256"
          }
        ],
        "numberOfBytes": "192"
      },
      "t_struct(ComputeUnitPaymentInfo)3989_storage": {
        "encoding": "inplace",
        "label": "struct Deal.ComputeUnitPaymentInfo",
        "members": [
          {
            "astId": 3986,
            "contract": "contracts/deal/Deal.sol:Deal",
            "label": "startedEpoch",
            "offset": 0,
            "slot": "0",
            "type": "t_uint256"
          },
          {
            "astId": 3988,
            "contract": "contracts/deal/Deal.sol:Deal",
            "label": "gapsDelta",
            "offset": 0,
            "slot": "1",
            "type": "t_uint256"
          }
        ],
        "numberOfBytes": "64"
      },
      "t_struct(ConfigStorage)3473_storage": {
        "encoding": "inplace",
        "label": "struct Config.ConfigStorage",
        "members": [
          {
            "astId": 3446,
            "contract": "contracts/deal/Deal.sol:Deal",
            "label": "creationBlock",
            "offset": 0,
            "slot": "0",
            "type": "t_uint256"
          },
          {
            "astId": 3449,
            "contract": "contracts/deal/Deal.sol:Deal",
            "label": "appCID",
            "offset": 0,
            "slot": "1",
            "type": "t_struct(CIDV1)6162_storage"
          },
          {
            "astId": 3452,
            "contract": "contracts/deal/Deal.sol:Deal",
            "label": "paymentToken",
            "offset": 0,
            "slot": "3",
            "type": "t_contract(IERC20)2321"
          },
          {
            "astId": 3454,
            "contract": "contracts/deal/Deal.sol:Deal",
            "label": "collateralPerWorker",
            "offset": 0,
            "slot": "4",
            "type": "t_uint256"
          },
          {
            "astId": 3456,
            "contract": "contracts/deal/Deal.sol:Deal",
            "label": "minWorkers",
            "offset": 0,
            "slot": "5",
            "type": "t_uint256"
          },
          {
            "astId": 3458,
            "contract": "contracts/deal/Deal.sol:Deal",
            "label": "targetWorkers",
            "offset": 0,
            "slot": "6",
            "type": "t_uint256"
          },
          {
            "astId": 3460,
            "contract": "contracts/deal/Deal.sol:Deal",
            "label": "maxWorkersPerProvider",
            "offset": 0,
            "slot": "7",
            "type": "t_uint256"
          },
          {
            "astId": 3462,
            "contract": "contracts/deal/Deal.sol:Deal",
            "label": "pricePerWorkerEpoch",
            "offset": 0,
            "slot": "8",
            "type": "t_uint256"
          },
          {
            "astId": 3466,
            "contract": "contracts/deal/Deal.sol:Deal",
            "label": "effectors",
            "offset": 0,
            "slot": "9",
            "type": "t_array(t_struct(CIDV1)6162_storage)dyn_storage"
          },
          {
            "astId": 3469,
            "contract": "contracts/deal/Deal.sol:Deal",
            "label": "accessType",
            "offset": 0,
            "slot": "10",
            "type": "t_enum(AccessType)6170"
          },
          {
            "astId": 3472,
            "contract": "contracts/deal/Deal.sol:Deal",
            "label": "accessList",
            "offset": 0,
            "slot": "11",
            "type": "t_struct(Bytes32List)9079_storage"
          }
        ],
        "numberOfBytes": "480"
      },
      "t_struct(DealStorage)4018_storage": {
        "encoding": "inplace",
        "label": "struct Deal.DealStorage",
        "members": [
          {
            "astId": 4004,
            "contract": "contracts/deal/Deal.sol:Deal",
            "label": "totalBalance",
            "offset": 0,
            "slot": "0",
            "type": "t_uint256"
          },
          {
            "astId": 4006,
            "contract": "contracts/deal/Deal.sol:Deal",
            "label": "lockedBalance",
            "offset": 0,
            "slot": "1",
            "type": "t_uint256"
          },
          {
            "astId": 4008,
            "contract": "contracts/deal/Deal.sol:Deal",
            "label": "gapsEpochCount",
            "offset": 0,
            "slot": "2",
            "type": "t_uint256"
          },
          {
            "astId": 4010,
            "contract": "contracts/deal/Deal.sol:Deal",
            "label": "maxPaidEpoch",
            "offset": 0,
            "slot": "3",
            "type": "t_uint256"
          },
          {
            "astId": 4012,
            "contract": "contracts/deal/Deal.sol:Deal",
            "label": "lastCommitedEpoch",
            "offset": 0,
            "slot": "4",
            "type": "t_uint256"
          },
          {
            "astId": 4017,
            "contract": "contracts/deal/Deal.sol:Deal",
            "label": "cUnitPaymentInfo",
            "offset": 0,
            "slot": "5",
            "type": "t_mapping(t_bytes32,t_struct(ComputeUnitPaymentInfo)3989_storage)"
          }
        ],
        "numberOfBytes": "192"
      },
      "t_struct(Element)9067_storage": {
        "encoding": "inplace",
        "label": "struct LinkedListWithUniqueKeys.Element",
        "members": [
          {
            "astId": 9064,
            "contract": "contracts/deal/Deal.sol:Deal",
            "label": "prev",
            "offset": 0,
            "slot": "0",
            "type": "t_bytes32"
          },
          {
            "astId": 9066,
            "contract": "contracts/deal/Deal.sol:Deal",
            "label": "next",
            "offset": 0,
            "slot": "1",
            "type": "t_bytes32"
          }
        ],
        "numberOfBytes": "64"
      },
      "t_struct(OwnableStorage)9479_storage": {
        "encoding": "inplace",
        "label": "struct Ownable.OwnableStorage",
        "members": [
          {
            "astId": 9478,
            "contract": "contracts/deal/Deal.sol:Deal",
            "label": "owner",
            "offset": 0,
            "slot": "0",
            "type": "t_address"
          }
        ],
        "numberOfBytes": "32"
      },
      "t_struct(StatusControllerStorage)5485_storage": {
        "encoding": "inplace",
        "label": "struct StatusController.StatusControllerStorage",
        "members": [
          {
            "astId": 5480,
            "contract": "contracts/deal/Deal.sol:Deal",
            "label": "status",
            "offset": 0,
            "slot": "0",
            "type": "t_enum(Status)6361"
          },
          {
            "astId": 5482,
            "contract": "contracts/deal/Deal.sol:Deal",
            "label": "startedEpoch",
            "offset": 0,
            "slot": "1",
            "type": "t_uint256"
          },
          {
            "astId": 5484,
            "contract": "contracts/deal/Deal.sol:Deal",
            "label": "endedEpoch",
            "offset": 0,
            "slot": "2",
            "type": "t_uint256"
          }
        ],
        "numberOfBytes": "96"
      },
      "t_struct(WorkerManagerStorage)5651_storage": {
        "encoding": "inplace",
        "label": "struct WorkerManager.WorkerManagerStorage",
        "members": [
          {
            "astId": 5633,
            "contract": "contracts/deal/Deal.sol:Deal",
            "label": "computeUnitCount",
            "offset": 0,
            "slot": "0",
            "type": "t_uint256"
          },
          {
            "astId": 5638,
            "contract": "contracts/deal/Deal.sol:Deal",
            "label": "computeProviderInfo",
            "offset": 0,
            "slot": "1",
            "type": "t_mapping(t_address,t_struct(ComputeProviderInfo)5618_storage)"
          },
          {
            "astId": 5643,
            "contract": "contracts/deal/Deal.sol:Deal",
            "label": "computeUnitById",
            "offset": 0,
            "slot": "2",
            "type": "t_mapping(t_bytes32,t_struct(ComputeUnit)6389_storage)"
          },
          {
            "astId": 5646,
            "contract": "contracts/deal/Deal.sol:Deal",
            "label": "computeUnitsIdsList",
            "offset": 0,
            "slot": "3",
            "type": "t_struct(Bytes32List)9079_storage"
          },
          {
            "astId": 5650,
            "contract": "contracts/deal/Deal.sol:Deal",
            "label": "collateralWithdrawEpochByComputeUnitId",
            "offset": 0,
            "slot": "7",
            "type": "t_mapping(t_bytes32,t_uint256)"
          }
        ],
        "numberOfBytes": "256"
      },
      "t_uint256": {
        "encoding": "inplace",
        "label": "uint256",
        "numberOfBytes": "32"
      },
      "t_uint8": {
        "encoding": "inplace",
        "label": "uint8",
        "numberOfBytes": "1"
      }
    }
  }
}