{
  "address": "0x225221e7Fa90353b9e03dC88b7Dadc49087FD5b0",
  "abi": [
    {
      "inputs": [],
      "stateMutability": "nonpayable",
      "type": "constructor"
    },
    {
      "inputs": [
        {
          "internalType": "address",
          "name": "owner",
          "type": "address"
        }
      ],
      "name": "OwnableInvalidOwner",
      "type": "error"
    },
    {
      "inputs": [
        {
          "internalType": "address",
          "name": "account",
          "type": "address"
        }
      ],
      "name": "OwnableUnauthorizedAccount",
      "type": "error"
    },
    {
      "anonymous": false,
      "inputs": [
        {
          "indexed": false,
          "internalType": "address",
          "name": "previousAdmin",
          "type": "address"
        },
        {
          "indexed": false,
          "internalType": "address",
          "name": "newAdmin",
          "type": "address"
        }
      ],
      "name": "AdminChanged",
      "type": "event"
    },
    {
      "anonymous": false,
      "inputs": [
        {
          "indexed": true,
          "internalType": "address",
          "name": "beacon",
          "type": "address"
        }
      ],
      "name": "BeaconUpgraded",
      "type": "event"
    },
    {
      "anonymous": false,
      "inputs": [
        {
          "indexed": false,
          "internalType": "address",
          "name": "factory",
          "type": "address"
        }
      ],
      "name": "FactorySet",
      "type": "event"
    },
    {
      "anonymous": false,
      "inputs": [
        {
          "indexed": false,
          "internalType": "uint8",
          "name": "version",
          "type": "uint8"
        }
      ],
      "name": "Initialized",
      "type": "event"
    },
    {
      "anonymous": false,
      "inputs": [
        {
          "indexed": false,
          "internalType": "address",
          "name": "matcher",
          "type": "address"
        }
      ],
      "name": "MatcherSet",
      "type": "event"
    },
    {
      "anonymous": false,
      "inputs": [
        {
          "indexed": true,
          "internalType": "address",
          "name": "previousOwner",
          "type": "address"
        },
        {
          "indexed": true,
          "internalType": "address",
          "name": "newOwner",
          "type": "address"
        }
      ],
      "name": "OwnershipTransferred",
      "type": "event"
    },
    {
      "anonymous": false,
      "inputs": [
        {
          "indexed": true,
          "internalType": "address",
          "name": "implementation",
          "type": "address"
        }
      ],
      "name": "Upgraded",
      "type": "event"
    },
    {
      "inputs": [],
      "name": "currentEpoch",
      "outputs": [
        {
          "internalType": "uint256",
          "name": "",
          "type": "uint256"
        }
      ],
      "stateMutability": "view",
      "type": "function"
    },
    {
      "inputs": [],
      "name": "epochDuration",
      "outputs": [
        {
          "internalType": "uint256",
          "name": "",
          "type": "uint256"
        }
      ],
      "stateMutability": "view",
      "type": "function"
    },
    {
      "inputs": [],
      "name": "factory",
      "outputs": [
        {
          "internalType": "contract IDealFactory",
          "name": "",
          "type": "address"
        }
      ],
      "stateMutability": "view",
      "type": "function"
    },
    {
      "inputs": [],
      "name": "fluenceToken",
      "outputs": [
        {
          "internalType": "contract IERC20",
          "name": "",
          "type": "address"
        }
      ],
      "stateMutability": "view",
      "type": "function"
    },
    {
      "inputs": [
        {
          "internalType": "contract IERC20",
          "name": "fluenceToken_",
          "type": "address"
        },
        {
          "internalType": "uint256",
          "name": "epochDuration_",
          "type": "uint256"
        }
      ],
      "name": "initialize",
      "outputs": [],
      "stateMutability": "nonpayable",
      "type": "function"
    },
    {
      "inputs": [],
      "name": "matcher",
      "outputs": [
        {
          "internalType": "contract IMatcher",
          "name": "",
          "type": "address"
        }
      ],
      "stateMutability": "view",
      "type": "function"
    },
    {
      "inputs": [],
      "name": "owner",
      "outputs": [
        {
          "internalType": "address",
          "name": "",
          "type": "address"
        }
      ],
      "stateMutability": "view",
      "type": "function"
    },
    {
      "inputs": [],
      "name": "proxiableUUID",
      "outputs": [
        {
          "internalType": "bytes32",
          "name": "",
          "type": "bytes32"
        }
      ],
      "stateMutability": "view",
      "type": "function"
    },
    {
      "inputs": [],
      "name": "renounceOwnership",
      "outputs": [],
      "stateMutability": "nonpayable",
      "type": "function"
    },
    {
      "inputs": [
        {
          "internalType": "contract IDealFactory",
          "name": "factory_",
          "type": "address"
        }
      ],
      "name": "setFactory",
      "outputs": [],
      "stateMutability": "nonpayable",
      "type": "function"
    },
    {
      "inputs": [
        {
          "internalType": "contract IMatcher",
          "name": "matcher_",
          "type": "address"
        }
      ],
      "name": "setMatcher",
      "outputs": [],
      "stateMutability": "nonpayable",
      "type": "function"
    },
    {
      "inputs": [
        {
          "internalType": "address",
          "name": "newOwner",
          "type": "address"
        }
      ],
      "name": "transferOwnership",
      "outputs": [],
      "stateMutability": "nonpayable",
      "type": "function"
    },
    {
      "inputs": [
        {
          "internalType": "address",
          "name": "newImplementation",
          "type": "address"
        }
      ],
      "name": "upgradeTo",
      "outputs": [],
      "stateMutability": "nonpayable",
      "type": "function"
    },
    {
      "inputs": [
        {
          "internalType": "address",
          "name": "newImplementation",
          "type": "address"
        },
        {
          "internalType": "bytes",
          "name": "data",
          "type": "bytes"
        }
      ],
      "name": "upgradeToAndCall",
      "outputs": [],
      "stateMutability": "payable",
      "type": "function"
    }
  ],
  "transactionHash": "0xcfaf4bb9abb7822da31a5f51f32f68c77159a7c4b7d9fe60b589cd5a68cf3fe3",
  "args": [],
  "numDeployments": 1,
  "solcInputHash": "a7bbee205c1829787e2ecc0342dbecf9",
  "bytecode": "0x60a080604052346100dc57306080526000549060ff8260081c1661008a575060ff8082160361004f575b6040516113e390816100e2823960805181818161074b015281816108e20152610c330152f35b60ff90811916176000557f7f26b83ff96e1f2b6a682f133852f6798a09c465da95921460cefb3847402498602060405160ff8152a138610029565b62461bcd60e51b815260206004820152602760248201527f496e697469616c697a61626c653a20636f6e747261637420697320696e697469604482015266616c697a696e6760c81b6064820152608490fd5b600080fdfe60406080815260048036101561001457600080fd5b600091823560e01c9182633659cfe614610bfe5782634f1ef2861461085a5782634ff0876a1461081c57826352d1902d146107225782635bb478081461069c578263715018a6146105fc57826376671808146105895782637e7e66b2146105355782638da5cb5b146104e1578263963ddbe91461045b578263ac027f9714610407578263c45a0155146103af578263cd6dc687146100ec57505063f2fde38b146100bd57600080fd5b346100e95760206003193601126100e9576100e66100d9610e68565b6100e161133d565b61127a565b80f35b80fd5b909150346103ab57816003193601126103ab5780359073ffffffffffffffffffffffffffffffffffffffff82168092036103a75783549160ff8360081c16159283809461039a575b8015610383575b15610300578360017fffffffffffffffffffffffffffffffffffffffffffffffffffffffffffffff0083161787556102d2575b507f349bb20181bc89dd74c27832cde97f0a0f3315693e59fe3e6395c7aca80b2d98907fffffffffffffffffffffffff00000000000000000000000000000000000000008254161790556024357f349bb20181bc89dd74c27832cde97f0a0f3315693e59fe3e6395c7aca80b2d995560ff845460081c161561024f57506101f43361127a565b6101fc575080f35b60207f7f26b83ff96e1f2b6a682f133852f6798a09c465da95921460cefb3847402498917fffffffffffffffffffffffffffffffffffffffffffffffffffffffffffff00ff84541684555160018152a180f35b60849060208451917f08c379a0000000000000000000000000000000000000000000000000000000008352820152602b60248201527f496e697469616c697a61626c653a20636f6e7472616374206973206e6f74206960448201527f6e697469616c697a696e670000000000000000000000000000000000000000006064820152fd5b7fffffffffffffffffffffffffffffffffffffffffffffffffffffffffffff0000166101011785553861016e565b60848360208751917f08c379a0000000000000000000000000000000000000000000000000000000008352820152602e60248201527f496e697469616c697a61626c653a20636f6e747261637420697320616c72656160448201527f647920696e697469616c697a65640000000000000000000000000000000000006064820152fd5b50303b15801561013b5750600160ff82161461013b565b50600160ff821610610134565b8380fd5b8280fd5b83823461040357816003193601126104035760209073ffffffffffffffffffffffffffffffffffffffff7f349bb20181bc89dd74c27832cde97f0a0f3315693e59fe3e6395c7aca80b2d9b54169051908152f35b5080fd5b83823461040357816003193601126104035760209073ffffffffffffffffffffffffffffffffffffffff7f349bb20181bc89dd74c27832cde97f0a0f3315693e59fe3e6395c7aca80b2d9854169051908152f35b839034610403576020600319360112610403573573ffffffffffffffffffffffffffffffffffffffff81168091036104035761049561133d565b7f349bb20181bc89dd74c27832cde97f0a0f3315693e59fe3e6395c7aca80b2d9a907fffffffffffffffffffffffff000000000000000000000000000000000000000082541617905580f35b83823461040357816003193601126104035760209073ffffffffffffffffffffffffffffffffffffffff7f612e56b0fc389e6dab6fa70e140af078f831069f9c4d9558e645bdefbbc8112354169051908152f35b83823461040357816003193601126104035760209073ffffffffffffffffffffffffffffffffffffffff7f349bb20181bc89dd74c27832cde97f0a0f3315693e59fe3e6395c7aca80b2d9a54169051908152f35b8382346104035781600319360112610403577f349bb20181bc89dd74c27832cde97f0a0f3315693e59fe3e6395c7aca80b2d99549182156105d05760208383519042048152f35b806012857f4e487b71000000000000000000000000000000000000000000000000000000006024945252fd5b83346100e957806003193601126100e95761061561133d565b8073ffffffffffffffffffffffffffffffffffffffff7f612e56b0fc389e6dab6fa70e140af078f831069f9c4d9558e645bdefbbc811238054907fffffffffffffffffffffffff000000000000000000000000000000000000000082169055167f8be0079c531659141344cd1fd0a4f28419497f9722a3daafe3b4186f6b6457e08280a380f35b839034610403576020600319360112610403573573ffffffffffffffffffffffffffffffffffffffff8116809103610403576106d661133d565b7f349bb20181bc89dd74c27832cde97f0a0f3315693e59fe3e6395c7aca80b2d9b907fffffffffffffffffffffffff000000000000000000000000000000000000000082541617905580f35b83346100e957806003193601126100e9575073ffffffffffffffffffffffffffffffffffffffff7f000000000000000000000000000000000000000000000000000000000000000016300361079a57602082517f360894a13ba1a3210667c828492db98dca3e2076cc3735a920a3ca505d382bbc8152f35b602060849251917f08c379a0000000000000000000000000000000000000000000000000000000008352820152603860248201527f555550535570677261646561626c653a206d757374206e6f742062652063616c60448201527f6c6564207468726f7567682064656c656761746563616c6c00000000000000006064820152fd5b8382346104035781600319360112610403576020907f349bb20181bc89dd74c27832cde97f0a0f3315693e59fe3e6395c7aca80b2d99549051908152f35b9150806003193601126103ab5761086f610e68565b906024359067ffffffffffffffff8211610bfa5736602383011215610bfa578184013561089b81610f1c565b6108a783519182610edb565b818152866020948583019336602482840101116103ab5780602488930186378301015273ffffffffffffffffffffffffffffffffffffffff807f0000000000000000000000000000000000000000000000000000000000000000169061090f82301415610f56565b61093e7f360894a13ba1a3210667c828492db98dca3e2076cc3735a920a3ca505d382bbc928284541614610fe1565b61094661133d565b7f4910fdfa16fed3260ed0e7147f7cc6da11a60208b5b9406d12a635614ffd91435460ff1615610980575050505050506100e6915061106c565b869293949596169085517f52d1902d00000000000000000000000000000000000000000000000000000000815287818a81865afa8a9181610bc7575b50610a4357608489898951917f08c379a0000000000000000000000000000000000000000000000000000000008352820152602e60248201527f45524331393637557067726164653a206e657720696d706c656d656e7461746960448201527f6f6e206973206e6f7420555550530000000000000000000000000000000000006064820152fd5b979192939695949703610b455750610a5a8261106c565b7fbc7cd75a20ee27fd9adebab32041f755214dbc6bffa90cc0225b39da2e5c2d3b8780a285845115801590610b3d575b610a98575b50505050505080f35b80610b2796845196610aa988610e90565b602788527f416464726573733a206c6f772d6c6576656c2064656c65676174652063616c6c878901527f206661696c656400000000000000000000000000000000000000000000000000868901525190845af4913d15610b33573d610b19610b1082610f1c565b92519283610edb565b81528681943d92013e611158565b50388080808085610a8f565b5060609250611158565b506001610a8a565b608490858551917f08c379a0000000000000000000000000000000000000000000000000000000008352820152602960248201527f45524331393637557067726164653a20756e737570706f727465642070726f7860448201527f6961626c655555494400000000000000000000000000000000000000000000006064820152fd5b9091508881813d8311610bf3575b610bdf8183610edb565b81010312610bef575190386109bc565b8a80fd5b503d610bd5565b8480fd5b9150346103ab576020806003193601126103a757610c1a610e68565b9173ffffffffffffffffffffffffffffffffffffffff807f000000000000000000000000000000000000000000000000000000000000000016610c5f81301415610f56565b610c8e7f360894a13ba1a3210667c828492db98dca3e2076cc3735a920a3ca505d382bbc918383541614610fe1565b610c9661133d565b8251908482019282841067ffffffffffffffff851117610e3c578385528883527f4910fdfa16fed3260ed0e7147f7cc6da11a60208b5b9406d12a635614ffd91435460ff1615610cf0575050505050506100e6915061106c565b869293949596169085517f52d1902d00000000000000000000000000000000000000000000000000000000815287818a81865afa8a9181610e0d575b50610db357608489898951917f08c379a0000000000000000000000000000000000000000000000000000000008352820152602e60248201527f45524331393637557067726164653a206e657720696d706c656d656e7461746960448201527f6f6e206973206e6f7420555550530000000000000000000000000000000000006064820152fd5b979192939695949703610b455750610dca8261106c565b7fbc7cd75a20ee27fd9adebab32041f755214dbc6bffa90cc0225b39da2e5c2d3b8780a285845115801590610e0657610a985750505050505080f35b5080610a8a565b9091508881813d8311610e35575b610e258183610edb565b81010312610bef57519038610d2c565b503d610e1b565b60248960418a7f4e487b7100000000000000000000000000000000000000000000000000000000835252fd5b6004359073ffffffffffffffffffffffffffffffffffffffff82168203610e8b57565b600080fd5b6060810190811067ffffffffffffffff821117610eac57604052565b7f4e487b7100000000000000000000000000000000000000000000000000000000600052604160045260246000fd5b90601f7fffffffffffffffffffffffffffffffffffffffffffffffffffffffffffffffe0910116810190811067ffffffffffffffff821117610eac57604052565b67ffffffffffffffff8111610eac57601f017fffffffffffffffffffffffffffffffffffffffffffffffffffffffffffffffe01660200190565b15610f5d57565b60846040517f08c379a000000000000000000000000000000000000000000000000000000000815260206004820152602c60248201527f46756e6374696f6e206d7573742062652063616c6c6564207468726f7567682060448201527f64656c656761746563616c6c00000000000000000000000000000000000000006064820152fd5b15610fe857565b60846040517f08c379a000000000000000000000000000000000000000000000000000000000815260206004820152602c60248201527f46756e6374696f6e206d7573742062652063616c6c6564207468726f7567682060448201527f6163746976652070726f787900000000000000000000000000000000000000006064820152fd5b803b156110d45773ffffffffffffffffffffffffffffffffffffffff7f360894a13ba1a3210667c828492db98dca3e2076cc3735a920a3ca505d382bbc91167fffffffffffffffffffffffff0000000000000000000000000000000000000000825416179055565b60846040517f08c379a000000000000000000000000000000000000000000000000000000000815260206004820152602d60248201527f455243313936373a206e657720696d706c656d656e746174696f6e206973206e60448201527f6f74206120636f6e7472616374000000000000000000000000000000000000006064820152fd5b919290156111d3575081511561116c575090565b3b156111755790565b60646040517f08c379a000000000000000000000000000000000000000000000000000000000815260206004820152601d60248201527f416464726573733a2063616c6c20746f206e6f6e2d636f6e74726163740000006044820152fd5b8251909150156111e65750805190602001fd5b604051907f08c379a000000000000000000000000000000000000000000000000000000000825281602080600483015282519283602484015260005b848110611263575050507fffffffffffffffffffffffffffffffffffffffffffffffffffffffffffffffe0601f836000604480968601015201168101030190fd5b818101830151868201604401528593508201611222565b73ffffffffffffffffffffffffffffffffffffffff80911690811561130c577f612e56b0fc389e6dab6fa70e140af078f831069f9c4d9558e645bdefbbc81123805490837fffffffffffffffffffffffff00000000000000000000000000000000000000008316179055167f8be0079c531659141344cd1fd0a4f28419497f9722a3daafe3b4186f6b6457e0600080a3565b60246040517f1e4fbdf700000000000000000000000000000000000000000000000000000000815260006004820152fd5b73ffffffffffffffffffffffffffffffffffffffff7f612e56b0fc389e6dab6fa70e140af078f831069f9c4d9558e645bdefbbc811235416330361137d57565b60246040517f118cdaa7000000000000000000000000000000000000000000000000000000008152336004820152fdfea264697066735822122084b33d39ba45d59e0ba8ce1f549ab7c815093da5e8bfe57c83d525d7bf92670a64736f6c63430008130033",
  "devdoc": {
    "errors": {
      "OwnableInvalidOwner(address)": [
        {
          "details": "The owner is not a valid owner account. (eg. `address(0)`)"
        }
      ],
      "OwnableUnauthorizedAccount(address)": [
        {
          "details": "The caller account is not authorized to perform an operation."
        }
      ]
    },
    "events": {
      "AdminChanged(address,address)": {
        "details": "Emitted when the admin account has changed."
      },
      "BeaconUpgraded(address)": {
        "details": "Emitted when the beacon is changed."
      },
      "Initialized(uint8)": {
        "details": "Triggered when the contract has been initialized or reinitialized."
      },
      "Upgraded(address)": {
        "details": "Emitted when the implementation is upgraded."
      }
    },
    "kind": "dev",
    "methods": {
      "owner()": {
        "details": "Returns the address of the current owner."
      },
      "proxiableUUID()": {
        "details": "Implementation of the ERC1822 {proxiableUUID} function. This returns the storage slot used by the implementation. It is used to validate the implementation's compatibility when performing an upgrade. IMPORTANT: A proxy pointing at a proxiable contract should not be considered proxiable itself, because this risks bricking a proxy that upgrades to it, by delegating to itself until out of gas. Thus it is critical that this function revert if invoked through a proxy. This is guaranteed by the `notDelegated` modifier."
      },
      "renounceOwnership()": {
        "details": "Leaves the contract without owner. It will not be possible to call `onlyOwner` functions. Can only be called by the current owner. NOTE: Renouncing ownership will leave the contract without an owner, thereby disabling any functionality that is only available to the owner."
      },
      "transferOwnership(address)": {
        "details": "Transfers ownership of the contract to a new account (`newOwner`). Can only be called by the current owner."
      },
      "upgradeTo(address)": {
        "custom:oz-upgrades-unsafe-allow-reachable": "delegatecall",
        "details": "Upgrade the implementation of the proxy to `newImplementation`. Calls {_authorizeUpgrade}. Emits an {Upgraded} event."
      },
      "upgradeToAndCall(address,bytes)": {
        "custom:oz-upgrades-unsafe-allow-reachable": "delegatecall",
        "details": "Upgrade the implementation of the proxy to `newImplementation`, and subsequently execute the function call encoded in `data`. Calls {_authorizeUpgrade}. Emits an {Upgraded} event."
      }
    },
    "version": 1
  },
  "userdoc": {
    "kind": "user",
    "methods": {},
    "version": 1
  },
  "storageLayout": {
    "storage": [
      {
        "astId": 371,
        "contract": "contracts/global/GlobalCore.sol:GlobalCore",
        "label": "_initialized",
        "offset": 0,
        "slot": "0",
        "type": "t_uint8"
      },
      {
        "astId": 374,
        "contract": "contracts/global/GlobalCore.sol:GlobalCore",
        "label": "_initializing",
        "offset": 1,
        "slot": "0",
        "type": "t_bool"
      },
      {
        "astId": 353,
        "contract": "contracts/global/GlobalCore.sol:GlobalCore",
        "label": "__gap",
        "offset": 0,
        "slot": "1",
        "type": "t_array(t_uint256)50_storage"
      },
      {
        "astId": 668,
        "contract": "contracts/global/GlobalCore.sol:GlobalCore",
        "label": "__gap",
        "offset": 0,
        "slot": "51",
        "type": "t_array(t_uint256)50_storage"
      },
      {
        "astId": 9482,
        "contract": "contracts/global/GlobalCore.sol:GlobalCore",
        "label": "_storage",
        "offset": 0,
        "slot": "101",
        "type": "t_struct(OwnableStorage)9479_storage"
      },
      {
        "astId": 6819,
        "contract": "contracts/global/GlobalCore.sol:GlobalCore",
        "label": "_storage",
        "offset": 0,
        "slot": "102",
        "type": "t_struct(GlobalCoreStorage)6816_storage"
      }
    ],
    "types": {
      "t_address": {
        "encoding": "inplace",
        "label": "address",
        "numberOfBytes": "20"
      },
      "t_array(t_uint256)50_storage": {
        "base": "t_uint256",
        "encoding": "inplace",
        "label": "uint256[50]",
        "numberOfBytes": "1600"
      },
      "t_bool": {
        "encoding": "inplace",
        "label": "bool",
        "numberOfBytes": "1"
      },
      "t_contract(IDealFactory)7019": {
        "encoding": "inplace",
        "label": "contract IDealFactory",
        "numberOfBytes": "20"
      },
      "t_contract(IERC20)2321": {
        "encoding": "inplace",
        "label": "contract IERC20",
        "numberOfBytes": "20"
      },
      "t_contract(IMatcher)8694": {
        "encoding": "inplace",
        "label": "contract IMatcher",
        "numberOfBytes": "20"
      },
      "t_struct(GlobalCoreStorage)6816_storage": {
        "encoding": "inplace",
        "label": "struct GlobalCore.GlobalCoreStorage",
        "members": [
          {
            "astId": 6807,
            "contract": "contracts/global/GlobalCore.sol:GlobalCore",
            "label": "fluenceToken",
            "offset": 0,
            "slot": "0",
            "type": "t_contract(IERC20)2321"
          },
          {
            "astId": 6809,
            "contract": "contracts/global/GlobalCore.sol:GlobalCore",
            "label": "epochDuration",
            "offset": 0,
            "slot": "1",
            "type": "t_uint256"
          },
          {
            "astId": 6812,
            "contract": "contracts/global/GlobalCore.sol:GlobalCore",
            "label": "matcher",
            "offset": 0,
            "slot": "2",
            "type": "t_contract(IMatcher)8694"
          },
          {
            "astId": 6815,
            "contract": "contracts/global/GlobalCore.sol:GlobalCore",
            "label": "factory",
            "offset": 0,
            "slot": "3",
            "type": "t_contract(IDealFactory)7019"
          }
        ],
        "numberOfBytes": "128"
      },
      "t_struct(OwnableStorage)9479_storage": {
        "encoding": "inplace",
        "label": "struct Ownable.OwnableStorage",
        "members": [
          {
            "astId": 9478,
            "contract": "contracts/global/GlobalCore.sol:GlobalCore",
            "label": "owner",
            "offset": 0,
            "slot": "0",
            "type": "t_address"
          }
        ],
        "numberOfBytes": "32"
      },
      "t_uint256": {
        "encoding": "inplace",
        "label": "uint256",
        "numberOfBytes": "32"
      },
      "t_uint8": {
        "encoding": "inplace",
        "label": "uint8",
        "numberOfBytes": "1"
      }
    }
  }
}