{
  "address": "0x864a74da9ef053782Ef04E29861a7889D5d43023",
  "abi": [
    {
      "anonymous": false,
      "inputs": [
        {
          "indexed": false,
          "internalType": "address",
          "name": "previousAdmin",
          "type": "address"
        },
        {
          "indexed": false,
          "internalType": "address",
          "name": "newAdmin",
          "type": "address"
        }
      ],
      "name": "AdminChanged",
      "type": "event"
    },
    {
      "anonymous": false,
      "inputs": [
        {
          "indexed": true,
          "internalType": "address",
          "name": "beacon",
          "type": "address"
        }
      ],
      "name": "BeaconUpgraded",
      "type": "event"
    },
    {
      "anonymous": false,
      "inputs": [
        {
          "indexed": true,
          "internalType": "address",
          "name": "implementation",
          "type": "address"
        }
      ],
      "name": "Upgraded",
      "type": "event"
    },
    {
      "inputs": [],
      "name": "balance",
      "outputs": [
        {
          "internalType": "uint256",
          "name": "",
          "type": "uint256"
        }
      ],
      "stateMutability": "view",
      "type": "function"
    },
    {
      "inputs": [
        {
          "components": [
            {
              "internalType": "string",
              "name": "air",
              "type": "string"
            },
            {
              "internalType": "string",
              "name": "prevData",
              "type": "string"
            },
            {
              "internalType": "string",
              "name": "params",
              "type": "string"
            },
            {
              "internalType": "string",
              "name": "callResults",
              "type": "string"
            }
          ],
          "internalType": "struct Particle",
          "name": "particle",
          "type": "tuple"
        }
      ],
      "name": "commitParticle",
      "outputs": [],
      "stateMutability": "nonpayable",
      "type": "function"
    },
    {
      "inputs": [
        {
          "internalType": "uint256",
          "name": "amount",
          "type": "uint256"
        }
      ],
      "name": "depositToPaymentBalance",
      "outputs": [],
      "stateMutability": "nonpayable",
      "type": "function"
    },
    {
      "inputs": [],
      "name": "proxiableUUID",
      "outputs": [
        {
          "internalType": "bytes32",
          "name": "",
          "type": "bytes32"
        }
      ],
      "stateMutability": "view",
      "type": "function"
    },
    {
      "inputs": [
        {
          "internalType": "bytes32",
          "name": "particleHash",
          "type": "bytes32"
        },
        {
          "internalType": "PATId",
          "name": "patId",
          "type": "bytes32"
        }
      ],
      "name": "rewardAmount",
      "outputs": [
        {
          "internalType": "uint256",
          "name": "",
          "type": "uint256"
        }
      ],
      "stateMutability": "view",
      "type": "function"
    },
    {
      "inputs": [
        {
          "internalType": "address",
          "name": "newImplementation",
          "type": "address"
        }
      ],
      "name": "upgradeTo",
      "outputs": [],
      "stateMutability": "nonpayable",
      "type": "function"
    },
    {
      "inputs": [
        {
          "internalType": "address",
          "name": "newImplementation",
          "type": "address"
        },
        {
          "internalType": "bytes",
          "name": "data",
          "type": "bytes"
        }
      ],
      "name": "upgradeToAndCall",
      "outputs": [],
      "stateMutability": "payable",
      "type": "function"
    },
    {
      "inputs": [
        {
          "internalType": "uint256",
          "name": "amount",
          "type": "uint256"
        }
      ],
      "name": "withdrawFromPaymentBalance",
      "outputs": [],
      "stateMutability": "nonpayable",
      "type": "function"
    },
    {
      "inputs": [
        {
          "internalType": "PATId",
          "name": "patId",
          "type": "bytes32"
        },
        {
          "internalType": "bytes32[]",
          "name": "particlesHashes",
          "type": "bytes32[]"
        }
      ],
      "name": "withdrawReward",
      "outputs": [],
      "stateMutability": "nonpayable",
      "type": "function"
    }
  ],
  "transactionHash": "0x4d27f03aa495231bdcbd2c3f946f2c4ebd61890edb7c6dbbb1b5a0f282df3492",
  "args": [],
  "numDeployments": 1,
  "solcInputHash": "09b042013a0e7f52f00b8304d2e32516",
  "bytecode": "0x60a0806040523461003157306080526124e3908161003782396080518181816111a6015281816112eb015261162c0152f35b600080fdfe6080604052600436101561001257600080fd5b60003560e01c80633659cfe6146115f95780634f1ef2861461126057806352d1902d1461117e57806373d6cb6314610d9a5780639ab1ea6614610bb3578063b69ef8a814610b95578063dc79f159146102ae578063ec614b2c146100ad5763ff9268ac1461007f57600080fd5b346100a85760406003193601126100a85760206100a0602435600435611ed7565b604051908152f35b600080fd5b346100a8576020806003193601126100a85760043573ffffffffffffffffffffffffffffffffffffffff807fe0c154d538f20c8d1aadcd299210daa7f0a434a5bf4a39795668b28b61ec6e965416604051907f8da5cb5b0000000000000000000000000000000000000000000000000000000082528482600481845afa9081156102685761014b8692600494600091610291575b5085163314611c9a565b604051928380927f68f1e99a0000000000000000000000000000000000000000000000000000000082525afa8015610268578491600091610274575b506004604051809481937f3013ce29000000000000000000000000000000000000000000000000000000008352165afa9081156102685760009161023b575b5060325492826101d860335486611e1c565b106101f757506101eb826101f594611e1c565b6032553390611e29565b005b6064906040519062461bcd60e51b82526004820152601760248201527f4e6f7420656e6f75676820667265652062616c616e63650000000000000000006044820152fd5b61025b9150833d8511610261575b6102538183611921565b810190611c6e565b836101c6565b503d610249565b6040513d6000823e3d90fd5b61028b9150823d8411610261576102538183611921565b85610187565b6102a89150843d8611610261576102538183611921565b88610141565b346100a8576003196020813601126100a85767ffffffffffffffff600435116100a857608090600435360301126100a8576102ed6004803501806123a0565b90610300600480356024810191016123a0565b9091610314600480356044810191016123a0565b90610327600480356064810191016123a0565b919092604051968795602087019960808b5260a0880190610347926123f1565b7fffffffffffffffffffffffffffffffffffffffffffffffffffffffffffffffe0978888830301604089015261037c926123f1565b9086868303016060870152610390926123f1565b90848483030160808501526103a4926123f1565b0390810182526103b49082611921565b519020806000526035602052604060002060010154610b515773ffffffffffffffffffffffffffffffffffffffff7fe0c154d538f20c8d1aadcd299210daa7f0a434a5bf4a39795668b28b61ec6e965416604051917f68f1e99a000000000000000000000000000000000000000000000000000000008352602083600481855afa91821561026857600493600093610b2f575b50602090604051948580927f2ed52a770000000000000000000000000000000000000000000000000000000082525afa92831561026857600093610b0e575b50604051907fa7c1abe000000000000000000000000000000000000000000000000000000000825260208260048173ffffffffffffffffffffffffffffffffffffffff87165afa9182156102685773ffffffffffffffffffffffffffffffffffffffff92602091600091610af1575b506004604051809581937fe2d2bfe3000000000000000000000000000000000000000000000000000000008352165afa9182156102685773ffffffffffffffffffffffffffffffffffffffff92602091600091610ad4575b506004604051809581937f76671808000000000000000000000000000000000000000000000000000000008352165afa91821561026857600092610aa0575b50604051907f1ef7e0a100000000000000000000000000000000000000000000000000000000825260208260048173ffffffffffffffffffffffffffffffffffffffff88165afa91821561026857600092610a4f575b50600060405180937fa689408c00000000000000000000000000000000000000000000000000000000825260206004830152818373ffffffffffffffffffffffffffffffffffffffff826106eb610657610646600435600401600435600401612430565b6080602486015260a48501916123f1565b6106c76106a3610671602460043501600435600401612430565b7fffffffffffffffffffffffffffffffffffffffffffffffffffffffffffffffdc9491858884030160448901526123f1565b6106b7604460043501600435600401612430565b90848784030160648801526123f1565b906106dc606460043501600435600401612430565b918584030160848601526123f1565b0393165af1918215610268576000926109b0575b5060005b82518110156107dc5760208160051b8401015190604051917faa5a0bcd000000000000000000000000000000000000000000000000000000008352600483015260208260248173ffffffffffffffffffffffffffffffffffffffff8b165afa8015610268576000906107a8575b6107a3925085600052603660205260406000208160081c600052602052600160ff604060002092161b8154179055612480565b610703565b506020823d6020116107d4575b816107c260209383611921565b810103126100a8576107a39151610770565b3d91506107b5565b5092909180600052603460205273ffffffffffffffffffffffffffffffffffffffff6020604060002054936004604051809481937f5fc8f59c000000000000000000000000000000000000000000000000000000008352165afa9081156102685760009161097e575b506001830180931161094f5760ff831161094f57610867906001841b90611e9e565b92519360405190608082019082821067ffffffffffffffff8311176109205761091b966003926040526001845260208401858152604085019182526060850192888452600052603560205260406000209451151560ff7fffffffffffffffffffffffffffffffffffffffffffffffffffffffffffffff00875416911617855551600185015551600284015551910155600052603460205260406000205561091081603254611e1c565b603255603354611ce5565b603355005b7f4e487b7100000000000000000000000000000000000000000000000000000000600052604160045260246000fd5b7f4e487b7100000000000000000000000000000000000000000000000000000000600052601160045260246000fd5b90506020813d6020116109a8575b8161099960209383611921565b810103126100a8575185610845565b3d915061098c565b9091503d806000833e6109c38183611921565b8101906020818303126100a85780519067ffffffffffffffff82116100a857019080601f830112156100a85781519167ffffffffffffffff8311610920578260051b9060405193610a176020840186611921565b84526020808501928201019283116100a857602001905b828210610a3f5750505090856106ff565b8151815260209182019101610a2e565b9091506020813d602011610a98575b81610a6b60209383611921565b810103126100a8575173ffffffffffffffffffffffffffffffffffffffff811681036100a85790856105e2565b3d9150610a5e565b9091506020813d602011610acc575b81610abc60209383611921565b810103126100a85751908461058c565b3d9150610aaf565b610aeb9150823d8411610261576102538183611921565b8661054d565b610b089150823d8411610261576102538183611921565b866104f5565b610b2891935060203d602011610261576102538183611921565b9183610486565b6020919350610b4a90823d8411610261576102538183611921565b9290610447565b606460405162461bcd60e51b815260206004820152601760248201527f5061727469636c6520616c7265616479206578697374730000000000000000006044820152fd5b346100a85760006003193601126100a8576020603254604051908152f35b346100a8576020806003193601126100a85760043573ffffffffffffffffffffffffffffffffffffffff91827fe0c154d538f20c8d1aadcd299210daa7f0a434a5bf4a39795668b28b61ec6e965416604051907f8da5cb5b0000000000000000000000000000000000000000000000000000000082528282600481845afa90811561026857610c528492600494600091610d7d575b5087163314611c9a565b604051928380927f68f1e99a0000000000000000000000000000000000000000000000000000000082525afa8015610268578291600091610d60575b506004604051809681937f3013ce29000000000000000000000000000000000000000000000000000000008352165afa92831561026857600093610d41575b507f23b872dd00000000000000000000000000000000000000000000000000000000604051918201523360248201523060448201528160648201526064815260a081019080821067ffffffffffffffff83111761092057610d3c93610d3492604052611cf2565b603254611ce5565b603255005b81610d599294503d8511610261576102538183611921565b9183610ccd565b610d779150823d8411610261576102538183611921565b85610c8e565b610d949150843d8611610261576102538183611921565b88610c48565b346100a85760406003193601126100a85767ffffffffffffffff80602435116100a8573660236024350112156100a85760243560040135116100a85736602480356004013560051b81350101116100a85773ffffffffffffffffffffffffffffffffffffffff7fe0c154d538f20c8d1aadcd299210daa7f0a434a5bf4a39795668b28b61ec6e965416604051907f68f1e99a000000000000000000000000000000000000000000000000000000008252602082600481845afa91821561026857600092611159575b506020600491604051928380927f2ed52a770000000000000000000000000000000000000000000000000000000082525afa9081156102685760009161113a575b50604051907faa5a0bcd000000000000000000000000000000000000000000000000000000008252600435600483015260208260248173ffffffffffffffffffffffffffffffffffffffff85165afa91821561026857600092611106575b506000916000905b60243560040135821061102a575050602073ffffffffffffffffffffffffffffffffffffffff93610f3c84603354611e1c565b6033556004604051809681937f3013ce29000000000000000000000000000000000000000000000000000000008352165afa9081156102685773ffffffffffffffffffffffffffffffffffffffff93600092611008575b506020906024604051809681937fc79d469d0000000000000000000000000000000000000000000000000000000083526004356004840152165afa908115610268576101f593600092610fe7575b50611e29565b61100191925060203d602011610261576102538183611921565b9084610fe1565b602091925061102390823d8411610261576102538183611921565b9190610f93565b909260248460051b8135010135600052603760205260406000208260081c600052602052600160ff83161b604060002054166110c2576110836110bc9161107d60043560248860051b8135010135611ed7565b90611ce5565b9360248160051b8135010135600052603760205260406000208360081c6000526020526040600020600160ff85161b8154179055612480565b90610f09565b606460405162461bcd60e51b815260206004820152600c60248201527f416c7265616479207061696400000000000000000000000000000000000000006044820152fd5b9091506020813d602011611132575b8161112260209383611921565b810103126100a857519083610f01565b3d9150611115565b611153915060203d602011610261576102538183611921565b82610ea3565b6004919250611176602091823d8411610261576102538183611921565b929150610e62565b346100a85760006003193601126100a85773ffffffffffffffffffffffffffffffffffffffff7f00000000000000000000000000000000000000000000000000000000000000001630036111f65760206040517f360894a13ba1a3210667c828492db98dca3e2076cc3735a920a3ca505d382bbc8152f35b608460405162461bcd60e51b815260206004820152603860248201527f555550535570677261646561626c653a206d757374206e6f742062652063616c60448201527f6c6564207468726f7567682064656c656761746563616c6c00000000000000006064820152fd5b60406003193601126100a8576112746118e2565b602490813567ffffffffffffffff81116100a857366023820112156100a8578060040135906112a282611962565b906112b06040519283611921565b82825260209283830191368783830101116100a857816000928887930185378401015273ffffffffffffffffffffffffffffffffffffffff807f000000000000000000000000000000000000000000000000000000000000000016906113188230141561199c565b6113477f360894a13ba1a3210667c828492db98dca3e2076cc3735a920a3ca505d382bbc928284541614611a0d565b807fe0c154d538f20c8d1aadcd299210daa7f0a434a5bf4a39795668b28b61ec6e96541633036115b6577f4910fdfa16fed3260ed0e7147f7cc6da11a60208b5b9406d12a635614ffd91435460ff16156113aa5750505050506101f59150611a7e565b8593949516906040517f52d1902d0000000000000000000000000000000000000000000000000000000081528681600481865afa60009181611587575b5061145557608487602e8a6040519262461bcd60e51b845260048401528201527f45524331393637557067726164653a206e657720696d706c656d656e7461746960448201527f6f6e206973206e6f7420555550530000000000000000000000000000000000006064820152fd5b9691929394960361151e575061146a83611a7e565b7fbc7cd75a20ee27fd9adebab32041f755214dbc6bffa90cc0225b39da2e5c2d3b600080a2835115801590611516575b6114a057005b600080916101f5957f416464726573733a206c6f772d6c6576656c2064656c65676174652063616c6c604051966114d688611905565b602788528701527f206661696c65640000000000000000000000000000000000000000000000000060408701525190845af4611510611b50565b91611b80565b50600161149a565b8460296084926040519262461bcd60e51b845260048401528201527f45524331393637557067726164653a20756e737570706f727465642070726f7860448201527f6961626c655555494400000000000000000000000000000000000000000000006064820152fd5b9091508781813d83116115af575b61159f8183611921565b810103126100a8575190896113e7565b503d611595565b606485601e896040519262461bcd60e51b845260048401528201527f4d6f64756c65426173653a2063616c6c6572206973206e6f7420636f726500006044820152fd5b346100a8576020806003193601126100a8576116136118e2565b73ffffffffffffffffffffffffffffffffffffffff91827f000000000000000000000000000000000000000000000000000000000000000016926116598430141561199c565b6116887f360894a13ba1a3210667c828492db98dca3e2076cc3735a920a3ca505d382bbc948286541614611a0d565b807fe0c154d538f20c8d1aadcd299210daa7f0a434a5bf4a39795668b28b61ec6e965416330361189e57604051938285019185831067ffffffffffffffff84111761092057826040526000865260ff7f4910fdfa16fed3260ed0e7147f7cc6da11a60208b5b9406d12a635614ffd9143541660001461170f57505050506101f59150611a7e565b84939416906040517f52d1902d0000000000000000000000000000000000000000000000000000000081528581600481865afa6000918161186f575b506117ba576084866040519062461bcd60e51b82526004820152602e60248201527f45524331393637557067726164653a206e657720696d706c656d656e7461746960448201527f6f6e206973206e6f7420555550530000000000000000000000000000000000006064820152fd5b03611805576117c883611a7e565b7fbc7cd75a20ee27fd9adebab32041f755214dbc6bffa90cc0225b39da2e5c2d3b600080a28351158015906117fd576114a057005b50600061149a565b6084846040519062461bcd60e51b82526004820152602960248201527f45524331393637557067726164653a20756e737570706f727465642070726f7860448201527f6961626c655555494400000000000000000000000000000000000000000000006064820152fd5b9091508681813d8311611897575b6118878183611921565b810103126100a85751908861174b565b503d61187d565b6064826040519062461bcd60e51b82526004820152601e60248201527f4d6f64756c65426173653a2063616c6c6572206973206e6f7420636f726500006044820152fd5b6004359073ffffffffffffffffffffffffffffffffffffffff821682036100a857565b6060810190811067ffffffffffffffff82111761092057604052565b90601f7fffffffffffffffffffffffffffffffffffffffffffffffffffffffffffffffe0910116810190811067ffffffffffffffff82111761092057604052565b67ffffffffffffffff811161092057601f017fffffffffffffffffffffffffffffffffffffffffffffffffffffffffffffffe01660200190565b156119a357565b608460405162461bcd60e51b815260206004820152602c60248201527f46756e6374696f6e206d7573742062652063616c6c6564207468726f7567682060448201527f64656c656761746563616c6c00000000000000000000000000000000000000006064820152fd5b15611a1457565b608460405162461bcd60e51b815260206004820152602c60248201527f46756e6374696f6e206d7573742062652063616c6c6564207468726f7567682060448201527f6163746976652070726f787900000000000000000000000000000000000000006064820152fd5b803b15611ae65773ffffffffffffffffffffffffffffffffffffffff7f360894a13ba1a3210667c828492db98dca3e2076cc3735a920a3ca505d382bbc91167fffffffffffffffffffffffff0000000000000000000000000000000000000000825416179055565b608460405162461bcd60e51b815260206004820152602d60248201527f455243313936373a206e657720696d706c656d656e746174696f6e206973206e60448201527f6f74206120636f6e7472616374000000000000000000000000000000000000006064820152fd5b3d15611b7b573d90611b6182611962565b91611b6f6040519384611921565b82523d6000602084013e565b606090565b91929015611be15750815115611b94575090565b3b15611b9d5790565b606460405162461bcd60e51b815260206004820152601d60248201527f416464726573733a2063616c6c20746f206e6f6e2d636f6e74726163740000006044820152fd5b825190915015611bf45750805190602001fd5b6040519062461bcd60e51b825281602080600483015282519283602484015260005b848110611c57575050507fffffffffffffffffffffffffffffffffffffffffffffffffffffffffffffffe0601f836000604480968601015201168101030190fd5b818101830151868201604401528593508201611c16565b908160209103126100a8575173ffffffffffffffffffffffffffffffffffffffff811681036100a85790565b15611ca157565b606460405162461bcd60e51b815260206004820152601f60248201527f4d6f64756c65426173653a2063616c6c6572206973206e6f74206f776e6572006044820152fd5b9190820180921161094f57565b73ffffffffffffffffffffffffffffffffffffffff1690604051604081019080821067ffffffffffffffff83111761092057611d6c916040526020938482527f5361666545524332303a206c6f772d6c6576656c2063616c6c206661696c6564858301526000808587829751910182855af1611510611b50565b805191821591848315611df1575b505050905015611d875750565b6084906040519062461bcd60e51b82526004820152602a60248201527f5361666545524332303a204552433230206f7065726174696f6e20646964206e60448201527f6f742073756363656564000000000000000000000000000000000000000000006064820152fd5b919381809450010312611e1857820151908115158203611e15575080388084611d7a565b80fd5b5080fd5b9190820391821161094f57565b9173ffffffffffffffffffffffffffffffffffffffff604051927fa9059cbb000000000000000000000000000000000000000000000000000000006020850152166024830152604482015260448152608081019181831067ffffffffffffffff84111761092057611e9c92604052611cf2565b565b8115611ea8570490565b7f4e487b7100000000000000000000000000000000000000000000000000000000600052601260045260246000fd5b9060009182526020603581526040918284209260ff845416156121f95773ffffffffffffffffffffffffffffffffffffffff9280847fe0c154d538f20c8d1aadcd299210daa7f0a434a5bf4a39795668b28b61ec6e9654168351928380927f68f1e99a00000000000000000000000000000000000000000000000000000000825260049586915afa9081156121b557869183918a916121dc575b50848651809481937fa7c1abe0000000000000000000000000000000000000000000000000000000008352165afa9081156121b557869183918a916121bf575b50848651809481937fe2d2bfe3000000000000000000000000000000000000000000000000000000008352165afa9081156121b5579082918991612198575b50838551809881937f76671808000000000000000000000000000000000000000000000000000000008352165afa94851561218e57879561215b575b506001860154927fffffffffffffffffffffffffffffffffffffffffffffffffffffffffffffffff9586810190811161212f578410156120ee575050612072838361223c565b1593841561209f575b5050505061209b5761209891506002600382015491015490611e9e565b90565b5090565b909180939450019182116120c25750906120b89161223c565b153880808061207b565b8460116024927f4e487b7100000000000000000000000000000000000000000000000000000000835252fd5b60649350519162461bcd60e51b8352820152601660248201527f5061727469636c65206e6f7420636f6e6669726d6564000000000000000000006044820152fd5b6024896011867f4e487b7100000000000000000000000000000000000000000000000000000000835252fd5b9080955081813d8311612187575b6121738183611921565b810103126121835751933861202c565b8680fd5b503d612169565b83513d89823e3d90fd5b6121af9150823d8411610261576102538183611921565b38611ff0565b84513d8a823e3d90fd5b6121d69150823d8411610261576102538183611921565b38611fb1565b6121f39150823d8411610261576102538183611921565b38611f71565b82606491519062461bcd60e51b82526004820152601260248201527f5061727469636c65206e6f742076616c696400000000000000000000000000006044820152fd5b9073ffffffffffffffffffffffffffffffffffffffff90817fe0c154d538f20c8d1aadcd299210daa7f0a434a5bf4a39795668b28b61ec6e9654169260409384519283917f2ed52a7700000000000000000000000000000000000000000000000000000000835282600460209687935afa9182156123955790849291600092612373575b50602490875196879384927faa5a0bcd0000000000000000000000000000000000000000000000000000000084526004840152165afa92831561236857600093612338575b509160ff916001936000526036815284600020908260081c60005252161b9060002054161561233357600190565b600090565b90928282813d8311612361575b61234f8183611921565b81010312611e155750519160ff612305565b503d612345565b84513d6000823e3d90fd5b602491925061238e90843d8611610261576102538183611921565b91906122c0565b86513d6000823e3d90fd5b9035907fffffffffffffffffffffffffffffffffffffffffffffffffffffffffffffffe1813603018212156100a8570180359067ffffffffffffffff82116100a8576020019181360383136100a857565b601f82602094937fffffffffffffffffffffffffffffffffffffffffffffffffffffffffffffffe0938186528686013760008582860101520116010190565b90357fffffffffffffffffffffffffffffffffffffffffffffffffffffffffffffffe1823603018112156100a857016020813591019167ffffffffffffffff82116100a85781360383136100a857565b7fffffffffffffffffffffffffffffffffffffffffffffffffffffffffffffffff811461094f576001019056fea264697066735822122043ff43b933bfea38a1616a3c7f108d8f74f7984f7cae21d84c1d4b19f8555aa964736f6c63430008110033",
  "devdoc": {
    "kind": "dev",
    "methods": {
      "proxiableUUID()": {
        "details": "Implementation of the ERC1822 {proxiableUUID} function. This returns the storage slot used by the implementation. It is used to validate the implementation's compatibility when performing an upgrade. IMPORTANT: A proxy pointing at a proxiable contract should not be considered proxiable itself, because this risks bricking a proxy that upgrades to it, by delegating to itself until out of gas. Thus it is critical that this function revert if invoked through a proxy. This is guaranteed by the `notDelegated` modifier."
      },
      "upgradeTo(address)": {
        "custom:oz-upgrades-unsafe-allow-reachable": "delegatecall",
        "details": "Upgrade the implementation of the proxy to `newImplementation`. Calls {_authorizeUpgrade}. Emits an {Upgraded} event."
      },
      "upgradeToAndCall(address,bytes)": {
        "custom:oz-upgrades-unsafe-allow-reachable": "delegatecall",
        "details": "Upgrade the implementation of the proxy to `newImplementation`, and subsequently execute the function call encoded in `data`. Calls {_authorizeUpgrade}. Emits an {Upgraded} event."
      }
    },
    "version": 1
  },
  "userdoc": {
    "kind": "user",
    "methods": {},
    "version": 1
  },
  "storageLayout": {
    "storage": [
      {
        "astId": 7547,
        "contract": "contracts/deal/PaymentModule.sol:PaymentModule",
        "label": "__gap",
        "offset": 0,
        "slot": "0",
        "type": "t_array(t_uint256)50_storage"
      },
      {
        "astId": 5970,
        "contract": "contracts/deal/PaymentModule.sol:PaymentModule",
        "label": "_balance",
        "offset": 0,
        "slot": "50",
        "type": "t_uint256"
      },
      {
        "astId": 5972,
        "contract": "contracts/deal/PaymentModule.sol:PaymentModule",
        "label": "_locked",
        "offset": 0,
        "slot": "51",
        "type": "t_uint256"
      },
      {
        "astId": 5976,
        "contract": "contracts/deal/PaymentModule.sol:PaymentModule",
        "label": "_goldenParticlesCountByEpoch",
        "offset": 0,
        "slot": "52",
        "type": "t_mapping(t_uint256,t_uint256)"
      },
      {
        "astId": 5981,
        "contract": "contracts/deal/PaymentModule.sol:PaymentModule",
        "label": "_particles",
        "offset": 0,
        "slot": "53",
        "type": "t_mapping(t_bytes32,t_struct(ParticleInfo)5968_storage)"
      },
      {
        "astId": 5987,
        "contract": "contracts/deal/PaymentModule.sol:PaymentModule",
        "label": "_workersByEpoch",
        "offset": 0,
        "slot": "54",
        "type": "t_mapping(t_uint256,t_mapping(t_uint256,t_uint256))"
      },
      {
        "astId": 5992,
        "contract": "contracts/deal/PaymentModule.sol:PaymentModule",
        "label": "_paidWorkersByParticle",
        "offset": 0,
        "slot": "55",
        "type": "t_mapping(t_bytes32,t_struct(BitMap)3573_storage)"
      }
    ],
    "types": {
      "t_array(t_uint256)50_storage": {
        "base": "t_uint256",
        "encoding": "inplace",
        "label": "uint256[50]",
        "numberOfBytes": "1600"
      },
      "t_bool": {
        "encoding": "inplace",
        "label": "bool",
        "numberOfBytes": "1"
      },
      "t_bytes32": {
        "encoding": "inplace",
        "label": "bytes32",
        "numberOfBytes": "32"
      },
      "t_mapping(t_bytes32,t_struct(BitMap)3573_storage)": {
        "encoding": "mapping",
        "key": "t_bytes32",
        "label": "mapping(bytes32 => struct BitMaps.BitMap)",
        "numberOfBytes": "32",
        "value": "t_struct(BitMap)3573_storage"
      },
      "t_mapping(t_bytes32,t_struct(ParticleInfo)5968_storage)": {
        "encoding": "mapping",
        "key": "t_bytes32",
        "label": "mapping(bytes32 => struct PaymentModuleState.ParticleInfo)",
        "numberOfBytes": "32",
        "value": "t_struct(ParticleInfo)5968_storage"
      },
      "t_mapping(t_uint256,t_mapping(t_uint256,t_uint256))": {
        "encoding": "mapping",
        "key": "t_uint256",
        "label": "mapping(uint256 => mapping(uint256 => uint256))",
        "numberOfBytes": "32",
        "value": "t_mapping(t_uint256,t_uint256)"
      },
      "t_mapping(t_uint256,t_uint256)": {
        "encoding": "mapping",
        "key": "t_uint256",
        "label": "mapping(uint256 => uint256)",
        "numberOfBytes": "32",
        "value": "t_uint256"
      },
      "t_struct(BitMap)3573_storage": {
        "encoding": "inplace",
        "label": "struct BitMaps.BitMap",
        "members": [
          {
            "astId": 3572,
            "contract": "contracts/deal/PaymentModule.sol:PaymentModule",
            "label": "_data",
            "offset": 0,
            "slot": "0",
            "type": "t_mapping(t_uint256,t_uint256)"
          }
        ],
        "numberOfBytes": "32"
      },
      "t_struct(ParticleInfo)5968_storage": {
        "encoding": "inplace",
        "label": "struct PaymentModuleState.ParticleInfo",
        "members": [
          {
            "astId": 5961,
            "contract": "contracts/deal/PaymentModule.sol:PaymentModule",
            "label": "isValid",
            "offset": 0,
            "slot": "0",
            "type": "t_bool"
          },
          {
            "astId": 5963,
            "contract": "contracts/deal/PaymentModule.sol:PaymentModule",
            "label": "epoch",
            "offset": 0,
            "slot": "1",
            "type": "t_uint256"
          },
          {
            "astId": 5965,
            "contract": "contracts/deal/PaymentModule.sol:PaymentModule",
            "label": "worketsCount",
            "offset": 0,
            "slot": "2",
            "type": "t_uint256"
          },
          {
            "astId": 5967,
            "contract": "contracts/deal/PaymentModule.sol:PaymentModule",
            "label": "reward",
            "offset": 0,
            "slot": "3",
            "type": "t_uint256"
          }
        ],
        "numberOfBytes": "128"
      },
      "t_uint256": {
        "encoding": "inplace",
        "label": "uint256",
        "numberOfBytes": "32"
      }
    }
  }
}