{
  "address": "0xc9A69177286cCAc29B00A90E4AF49771cf157698",
  "abi": [
    {
      "anonymous": false,
      "inputs": [
        {
          "indexed": false,
          "internalType": "address",
          "name": "previousAdmin",
          "type": "address"
        },
        {
          "indexed": false,
          "internalType": "address",
          "name": "newAdmin",
          "type": "address"
        }
      ],
      "name": "AdminChanged",
      "type": "event"
    },
    {
      "anonymous": false,
      "inputs": [
        {
          "indexed": true,
          "internalType": "address",
          "name": "beacon",
          "type": "address"
        }
      ],
      "name": "BeaconUpgraded",
      "type": "event"
    },
    {
      "anonymous": false,
      "inputs": [
        {
          "indexed": false,
          "internalType": "address",
          "name": "owner",
          "type": "address"
        },
        {
          "indexed": false,
          "internalType": "uint256",
          "name": "amount",
          "type": "uint256"
        }
      ],
      "name": "CollateralWithdrawn",
      "type": "event"
    },
    {
      "anonymous": false,
      "inputs": [
        {
          "indexed": false,
          "internalType": "PATId",
          "name": "id",
          "type": "bytes32"
        },
        {
          "indexed": false,
          "internalType": "address",
          "name": "owner",
          "type": "address"
        }
      ],
      "name": "PATCreated",
      "type": "event"
    },
    {
      "anonymous": false,
      "inputs": [
        {
          "indexed": false,
          "internalType": "PATId",
          "name": "id",
          "type": "bytes32"
        }
      ],
      "name": "PATRemoved",
      "type": "event"
    },
    {
      "anonymous": false,
      "inputs": [
        {
          "indexed": false,
          "internalType": "PATId",
          "name": "id",
          "type": "bytes32"
        }
      ],
      "name": "PDTRemoved",
      "type": "event"
    },
    {
      "anonymous": false,
      "inputs": [
        {
          "indexed": false,
          "internalType": "PATId",
          "name": "id",
          "type": "bytes32"
        },
        {
          "indexed": false,
          "internalType": "string",
          "name": "peerId",
          "type": "string"
        },
        {
          "indexed": false,
          "internalType": "string",
          "name": "workerId",
          "type": "string"
        }
      ],
      "name": "PDTSet",
      "type": "event"
    },
    {
      "anonymous": false,
      "inputs": [
        {
          "indexed": true,
          "internalType": "address",
          "name": "implementation",
          "type": "address"
        }
      ],
      "name": "Upgraded",
      "type": "event"
    },
    {
      "inputs": [
        {
          "internalType": "PATId",
          "name": "id",
          "type": "bytes32"
        }
      ],
      "name": "exit",
      "outputs": [],
      "stateMutability": "nonpayable",
      "type": "function"
    },
    {
      "inputs": [],
      "name": "getNextWorkerIndex",
      "outputs": [
        {
          "internalType": "uint256",
          "name": "",
          "type": "uint256"
        }
      ],
      "stateMutability": "view",
      "type": "function"
    },
    {
      "inputs": [
        {
          "internalType": "PATId",
          "name": "id",
          "type": "bytes32"
        }
      ],
      "name": "getPATIndex",
      "outputs": [
        {
          "internalType": "uint256",
          "name": "",
          "type": "uint256"
        }
      ],
      "stateMutability": "view",
      "type": "function"
    },
    {
      "inputs": [
        {
          "internalType": "PATId",
          "name": "id",
          "type": "bytes32"
        }
      ],
      "name": "getPATOwner",
      "outputs": [
        {
          "internalType": "address",
          "name": "",
          "type": "address"
        }
      ],
      "stateMutability": "view",
      "type": "function"
    },
    {
      "inputs": [
        {
          "internalType": "PATId",
          "name": "id",
          "type": "bytes32"
        }
      ],
      "name": "getPDT",
      "outputs": [
        {
          "internalType": "string",
          "name": "peerId",
          "type": "string"
        },
        {
          "internalType": "string",
          "name": "workerId",
          "type": "string"
        }
      ],
      "stateMutability": "view",
      "type": "function"
    },
    {
      "inputs": [
        {
          "internalType": "address",
          "name": "owner",
          "type": "address"
        },
        {
          "internalType": "uint256",
          "name": "timestamp",
          "type": "uint256"
        }
      ],
      "name": "getUnlockedAmountBy",
      "outputs": [
        {
          "internalType": "uint256",
          "name": "",
          "type": "uint256"
        }
      ],
      "stateMutability": "view",
      "type": "function"
    },
    {
      "inputs": [],
      "name": "join",
      "outputs": [],
      "stateMutability": "nonpayable",
      "type": "function"
    },
    {
      "inputs": [
        {
          "internalType": "address",
          "name": "owner",
          "type": "address"
        }
      ],
      "name": "joinViaMatcher",
      "outputs": [],
      "stateMutability": "nonpayable",
      "type": "function"
    },
    {
      "inputs": [],
      "name": "proxiableUUID",
      "outputs": [
        {
          "internalType": "bytes32",
          "name": "",
          "type": "bytes32"
        }
      ],
      "stateMutability": "view",
      "type": "function"
    },
    {
      "inputs": [
        {
          "internalType": "PATId",
          "name": "id",
          "type": "bytes32"
        },
        {
          "internalType": "string",
          "name": "peerId",
          "type": "string"
        },
        {
          "internalType": "string",
          "name": "workerId",
          "type": "string"
        }
      ],
      "name": "setPDT",
      "outputs": [],
      "stateMutability": "nonpayable",
      "type": "function"
    },
    {
      "inputs": [
        {
          "internalType": "address",
          "name": "newImplementation",
          "type": "address"
        }
      ],
      "name": "upgradeTo",
      "outputs": [],
      "stateMutability": "nonpayable",
      "type": "function"
    },
    {
      "inputs": [
        {
          "internalType": "address",
          "name": "newImplementation",
          "type": "address"
        },
        {
          "internalType": "bytes",
          "name": "data",
          "type": "bytes"
        }
      ],
      "name": "upgradeToAndCall",
      "outputs": [],
      "stateMutability": "payable",
      "type": "function"
    },
    {
      "inputs": [
        {
          "internalType": "address",
          "name": "owner",
          "type": "address"
        }
      ],
      "name": "withdrawCollateral",
      "outputs": [],
      "stateMutability": "nonpayable",
      "type": "function"
    },
    {
      "inputs": [],
      "name": "workersCount",
      "outputs": [
        {
          "internalType": "uint256",
          "name": "",
          "type": "uint256"
        }
      ],
      "stateMutability": "view",
      "type": "function"
    }
  ],
  "transactionHash": "0x2341fc174a123a027303474684e36fed50ec97392715f14a04c7fac90cf03085",
  "args": [],
  "numDeployments": 1,
  "solcInputHash": "09b042013a0e7f52f00b8304d2e32516",
  "bytecode": "0x60a080604052346100315730608052612c99908161003782396080518181816108870152818161099e0152610ffa0152f35b600080fdfe604060c081526004908136101561001557600080fd5b600091823560e01c80630ca36263146113a25780631268f880146113455780633659cfe614610fc55780633a75c39214610cbf5780634f1ef2861461093e57806352d1902d1461085d57806375ddd19a1461083e578063928d300e1461054b578063aa5a0bcd14610523578063b688a36314610508578063be18cf7f146104e7578063c79d469d146104a6578063cb35a195146102e05763e5e63b31146100bb57600080fd5b346102dc576020806003193601126102d8576100d5611853565b9273ffffffffffffffffffffffffffffffffffffffff8383827fe0c154d538f20c8d1aadcd299210daa7f0a434a5bf4a39795668b28b61ec6e9654168451928380927f68f1e99a0000000000000000000000000000000000000000000000000000000082525afa908115610284578291859189916102bb575b50868551809481937fa7c1abe0000000000000000000000000000000000000000000000000000000008352165afa9081156102845782918591899161028e575b50868551809581937f7e7e66b2000000000000000000000000000000000000000000000000000000008352165afa918215610284578792610248575b50339116036101e157846101de3386611e32565b80f35b60849350519162461bcd60e51b8352820152602160248201527f4f6e6c79206d6174636865722063616e2063616c6c2074686973206d6574686f60448201527f64000000000000000000000000000000000000000000000000000000000000006064820152fd5b9091508381813d831161027d575b6102608183611906565b81010312610279575181811681036102795790386101ca565b8680fd5b503d610256565b83513d89823e3d90fd5b6102ae9150823d84116102b4575b6102a68183611906565b810190611d6d565b3861018e565b503d61029c565b6102d29150823d84116102b4576102a68183611906565b3861014e565b8380fd5b8280fd5b5091346104a357816003193601126104a3576102fa611853565b9273ffffffffffffffffffffffffffffffffffffffff807fe0c154d538f20c8d1aadcd299210daa7f0a434a5bf4a39795668b28b61ec6e96541694845180967f68f1e99a00000000000000000000000000000000000000000000000000000000825281856020998a935afa90811561047c5783929188918791610486575b50858851809581937fa7c1abe0000000000000000000000000000000000000000000000000000000008352165afa91821561047c578792918491879361045d575b5016855260028252858520938651809481937f9c15d1a2000000000000000000000000000000000000000000000000000000008352165afa928315610452579261041c575b5061040e61041492602435611bfc565b90612af3565b915191825250f35b91508382813d831161044b575b6104338183611906565b810103126104465790519061040e6103fe565b600080fd5b503d610429565b8451903d90823e3d90fd5b610475919350843d86116102b4576102a68183611906565b91386103b9565b86513d87823e3d90fd5b61049d9150823d84116102b4576102a68183611906565b38610378565b80fd5b5091346104a35760206003193601126104a3575073ffffffffffffffffffffffffffffffffffffffff60016104dd60209435611c1f565b0154169051908152f35b505034610504578160031936011261050457602091549051908152f35b5080fd5b83346104a357806003193601126104a3576101de3333611e32565b5091346104a35760206003193601126104a3575061054360209235611c1f565b549051908152f35b50346102dc576020806003193601126102d857610566611853565b9073ffffffffffffffffffffffffffffffffffffffff928082857fe0c154d538f20c8d1aadcd299210daa7f0a434a5bf4a39795668b28b61ec6e9654168751928380927f68f1e99a0000000000000000000000000000000000000000000000000000000082525afa90811561081757859184918991610821575b50838851809881937fa7c1abe0000000000000000000000000000000000000000000000000000000008352165afa9485156108175787956107f8575b50808416875260028352858720941685517f9c15d1a200000000000000000000000000000000000000000000000000000000815283818481855afa9081156107ee5788916107bf575b506106736106799142611bfc565b86612af3565b95600182018092116107ac5790600185939201558651928380927fac027f970000000000000000000000000000000000000000000000000000000082525afa9081156107a25761077f927fc30fcfbcaac9e0deffa719714eaa82396ff506a0d0d0eebe170830177288715d9692610752928991610785575b5083517fa9059cbb000000000000000000000000000000000000000000000000000000009281019290925273ffffffffffffffffffffffffffffffffffffffff861660248301526044808301889052825261074d606483611906565b612723565b51928392836020909392919373ffffffffffffffffffffffffffffffffffffffff60408201951681520152565b0390a180f35b61079c9150823d84116102b4576102a68183611906565b386106f1565b85513d88823e3d90fd5b602489601186634e487b7160e01b835252fd5b90508381813d83116107e7575b6107d68183611906565b810103126104465751610673610665565b503d6107cc565b87513d8a823e3d90fd5b610810919550833d85116102b4576102a68183611906565b933861061c565b86513d89823e3d90fd5b6108389150823d84116102b4576102a68183611906565b386105e0565b5050346105045781600319360112610504576020906003549051908152f35b5082346104a357806003193601126104a3575073ffffffffffffffffffffffffffffffffffffffff7f00000000000000000000000000000000000000000000000000000000000000001630036108d657602082517f360894a13ba1a3210667c828492db98dca3e2076cc3735a920a3ca505d382bbc8152f35b6020608492519162461bcd60e51b8352820152603860248201527f555550535570677261646561626c653a206d757374206e6f742062652063616c60448201527f6c6564207468726f7567682064656c656761746563616c6c00000000000000006064820152fd5b5090806003193601126102dc57610953611853565b9060243567ffffffffffffffff8111610cbb5736602382011215610cbb576109849036906024818701359101611945565b9073ffffffffffffffffffffffffffffffffffffffff91827f000000000000000000000000000000000000000000000000000000000000000016926109cb8430141561197c565b6109fa7f360894a13ba1a3210667c828492db98dca3e2076cc3735a920a3ca505d382bbc9482865416146119ed565b807fe0c154d538f20c8d1aadcd299210daa7f0a434a5bf4a39795668b28b61ec6e9654163303610c78577f4910fdfa16fed3260ed0e7147f7cc6da11a60208b5b9406d12a635614ffd91435460ff1615610a5c57505050506101de9150611a5e565b84929394168351947f52d1902d00000000000000000000000000000000000000000000000000000000865260209586818981865afa60009181610c49575b50610b07576084888888519162461bcd60e51b8352820152602e60248201527f45524331393637557067726164653a206e657720696d706c656d656e7461746960448201527f6f6e206973206e6f7420555550530000000000000000000000000000000000006064820152fd5b9691929394959603610be15750610b1d83611a5e565b7fbc7cd75a20ee27fd9adebab32041f755214dbc6bffa90cc0225b39da2e5c2d3b600080a2805115801590610bd9575b610b59575b5050505080f35b60008091610bcf957f206661696c656400000000000000000000000000000000000000000000000000865196610b8e886118ea565b602788527f416464726573733a206c6f772d6c6576656c2064656c65676174652063616c6c8389015287015281519101845af4610bc9611b30565b91611b60565b5038808080610b52565b506001610b4d565b6084908686519162461bcd60e51b8352820152602960248201527f45524331393637557067726164653a20756e737570706f727465642070726f7860448201527f6961626c655555494400000000000000000000000000000000000000000000006064820152fd5b90918882813d8311610c71575b610c608183611906565b810103126104a35750519038610a9a565b503d610c56565b606486602085519162461bcd60e51b8352820152601e60248201527f4d6f64756c65426173653a2063616c6c6572206973206e6f7420636f726500006044820152fd5b8480fd5b509190346105045760606003193601126105045767ffffffffffffffff926024358481116102d857610cf49036908301611876565b9290604435868111610fc157610d0d9036908501611876565b91835195610d1a876118ce565b610d25368284611945565b8752610d32368585611945565b986020978881019a8b5287358a5260068952868a209051805190838211610f145790808c8c93610d628654611c6e565b601f95868211610f94575b50508d91858411600114610f325792610f27575b50506000198260011b9260031b1c19161782555b60018092019b518051938411610f14578b8b8e84610db38254611c6e565b91818311610edb575b50505050508a918411600114610e4c5792610e32949281808e9f947f799dc8187fd3f8ba56efd0df5ed4f1de4e16e69f4e0e300c315cf6a3da0603089f9761077f9d9c9b9a9893610e3f575b505060001991921b9260031b1c19161790555b60608651998a99358a528901526060880191612896565b9285840390860152612896565b0151915060001938610e08565b8c8c528a8c20909c9391601f1983168d5b818110610ec657509183917f799dc8187fd3f8ba56efd0df5ed4f1de4e16e69f4e0e300c315cf6a3da0603089e9f61077f9c9b9a999795610e3299979510610ead575b505050811b019055610e1b565b015160001960f88460031b161c19169055388080610ea0565b8f830151845592850192918d01918d01610e5d565b848491610f009652209181890160051c8301938910610f0b575b0160051c0190612833565b8b8b388f8590610dbc565b92508192610ef5565b60248c60418c634e487b7160e01b835252fd5b015190503880610d81565b8681528e812093601f1916908f5b828210610f7d575050908460019594939210610f64575b505050811b018255610d95565b015160001960f88460031b161c19169055388080610f57565b60018596829396860151815501950193018f610f40565b610fba91888552878286209181880160051c8301938810610f0b570160051c0190612833565b388e610d6d565b8580fd5b5090346102dc576020806003193601126102d857610fe1611853565b9173ffffffffffffffffffffffffffffffffffffffff807f0000000000000000000000000000000000000000000000000000000000000000166110268130141561197c565b6110557f360894a13ba1a3210667c828492db98dca3e2076cc3735a920a3ca505d382bbc9183835416146119ed565b817fe0c154d538f20c8d1aadcd299210daa7f0a434a5bf4a39795668b28b61ec6e9654163303611303578251908482019282841067ffffffffffffffff8511176112ee578385528883527f4910fdfa16fed3260ed0e7147f7cc6da11a60208b5b9406d12a635614ffd91435460ff16156110d9575050505050506101de9150611a5e565b8693949596169085517f52d1902d00000000000000000000000000000000000000000000000000000000815287818a81865afa600091816112bf575b50611182576084898989519162461bcd60e51b8352820152602e60248201527f45524331393637557067726164653a206e657720696d706c656d656e7461746960448201527f6f6e206973206e6f7420555550530000000000000000000000000000000000006064820152fd5b979192949795939503611257575061119984611a5e565b7fbc7cd75a20ee27fd9adebab32041f755214dbc6bffa90cc0225b39da2e5c2d3b600080a281511580159061124f575b6111d6575b505050505080f35b611244946000927f206661696c656400000000000000000000000000000000000000000000000000837f416464726573733a206c6f772d6c6576656c2064656c65676174652063616c6c8695519861122d8a6118ea565b60278a528901528701525190845af4610bc9611b30565b5038808080806111ce565b5060006111c9565b6084908684519162461bcd60e51b8352820152602960248201527f45524331393637557067726164653a20756e737570706f727465642070726f7860448201527f6961626c655555494400000000000000000000000000000000000000000000006064820152fd5b90918982813d83116112e7575b6112d68183611906565b810103126104a35750519038611115565b503d6112cc565b604188634e487b7160e01b6000525260246000fd5b6064868585519162461bcd60e51b8352820152601e60248201527f4d6f64756c65426173653a2063616c6c6572206973206e6f7420636f726500006044820152fd5b50346102dc5760206003193601126102dc57358252600660205261139e61137d61137760018480872096200194611ca8565b93611ca8565b6113908351948486958652850190611813565b908382036020850152611813565b0390f35b5091903461050457602090816003193601126102dc578335906113c482611c1f565b6001810173ffffffffffffffffffffffffffffffffffffffff9687825416903382036117d157887fe0c154d538f20c8d1aadcd299210daa7f0a434a5bf4a39795668b28b61ec6e965416908551907f68f1e99a00000000000000000000000000000000000000000000000000000000825288828281865afa9182156117a85789908b936117b2575b508192938851928380927f9e4b35540000000000000000000000000000000000000000000000000000000082525afa9081156117a8578a9161178b575b50600286019a6114a38c54868d5260028c52898d20612961565b8a5493600019928386019586116117785782169189517f200d2ed20000000000000000000000000000000000000000000000000000000081528c818781875afa90811561176c578e9161173f575b50600281101561172c5760018d911492836116a7575b50505061163f575b5085549382546801000000000000000081101561162c576115368160018893018655611dc0565b819291549060031b85811b9283911b169119161790558a5260018952868a2091825490811561161957509260009695928795927f444a3a44058938b8969bdac08b1dda569100d49a708e17765e90dafd7be093319c9d950190558b558a526005885289868120557fffffffffffffffffffffffff000000000000000000000000000000000000000081541690555581600382015555818552600683526115e960018287206115e38161284a565b0161284a565b7f0bbd2d73af8b098a5b3a3bfdf635f97573da5d6d686c5a1f770f013fb610348d838251848152a151908152a180f35b8b6011602492634e487b7160e01b835252fd5b60248c604186634e487b7160e01b835252fd5b803b156116a3578a809160248a51809481937f95bc953800000000000000000000000000000000000000000000000000000000835281898401525af18015611699571561150f57611692909a919a6118a4565b983861150f565b88513d8d823e3d90fd5b8a80fd5b90919250858b51809481937f2db31193000000000000000000000000000000000000000000000000000000008352165afa908115611722578c916116f1575b508410388b81611507565b90508a81813d831161171b575b6117088183611906565b810103126117175751386116e6565b8b80fd5b503d6116fe565b89513d8e823e3d90fd5b60248e602188634e487b7160e01b835252fd5b61175f91508d803d10611765575b6117578183611906565b810190611da8565b386114f1565b503d61174d565b8e8c51903d90823e3d90fd5b60248d601187634e487b7160e01b835252fd5b6117a29150893d8b116102b4576102a68183611906565b38611489565b87513d8c823e3d90fd5b8293506117cb90823d84116102b4576102a68183611906565b9261144c565b6064908786519162461bcd60e51b8352820152601160248201527f50415420646f65736e27742065786973740000000000000000000000000000006044820152fd5b919082519283825260005b84811061183f575050601f19601f8460006020809697860101520116010190565b60208183018101518483018201520161181e565b6004359073ffffffffffffffffffffffffffffffffffffffff8216820361044657565b9181601f840112156104465782359167ffffffffffffffff8311610446576020838186019501011161044657565b67ffffffffffffffff81116118b857604052565b634e487b7160e01b600052604160045260246000fd5b6040810190811067ffffffffffffffff8211176118b857604052565b6060810190811067ffffffffffffffff8211176118b857604052565b90601f601f19910116810190811067ffffffffffffffff8211176118b857604052565b67ffffffffffffffff81116118b857601f01601f191660200190565b92919261195182611929565b9161195f6040519384611906565b829481845281830111610446578281602093846000960137010152565b1561198357565b608460405162461bcd60e51b815260206004820152602c60248201527f46756e6374696f6e206d7573742062652063616c6c6564207468726f7567682060448201527f64656c656761746563616c6c00000000000000000000000000000000000000006064820152fd5b156119f457565b608460405162461bcd60e51b815260206004820152602c60248201527f46756e6374696f6e206d7573742062652063616c6c6564207468726f7567682060448201527f6163746976652070726f787900000000000000000000000000000000000000006064820152fd5b803b15611ac65773ffffffffffffffffffffffffffffffffffffffff7f360894a13ba1a3210667c828492db98dca3e2076cc3735a920a3ca505d382bbc91167fffffffffffffffffffffffff0000000000000000000000000000000000000000825416179055565b608460405162461bcd60e51b815260206004820152602d60248201527f455243313936373a206e657720696d706c656d656e746174696f6e206973206e60448201527f6f74206120636f6e7472616374000000000000000000000000000000000000006064820152fd5b3d15611b5b573d90611b4182611929565b91611b4f6040519384611906565b82523d6000602084013e565b606090565b91929015611bc15750815115611b74575090565b3b15611b7d5790565b606460405162461bcd60e51b815260206004820152601d60248201527f416464726573733a2063616c6c20746f206e6f6e2d636f6e74726163740000006044820152fd5b825190915015611bd45750805190602001fd5b611bf89060405191829162461bcd60e51b8352602060048401526024830190611813565b0390fd5b91908203918211611c0957565b634e487b7160e01b600052601160045260246000fd5b60405160208101917f4ec9908308216b4c7f2662384140ebfbfcc0766c9877c0140af195bd95ed0c818352604082015260408152611c5c816118ea565b5190206000198101908111611c095790565b90600182811c92168015611c9e575b6020831014611c8857565b634e487b7160e01b600052602260045260246000fd5b91607f1691611c7d565b9060405191826000825492611cbc84611c6e565b908184526001948581169081600014611d2b5750600114611ce8575b5050611ce692500383611906565b565b9093915060005260209081600020936000915b818310611d13575050611ce693508201013880611cd8565b85548884018501529485019487945091830191611cfb565b9050611ce69550602093507fffffffffffffffffffffffffffffffffffffffffffffffffffffffffffffff0091501682840152151560051b8201013880611cd8565b90816020910312610446575173ffffffffffffffffffffffffffffffffffffffff811681036104465790565b6000198114611c095760010190565b90816020910312610446575160028110156104465790565b600454811015611df75760046000527f8a35acfbc15ff81a39ae7d344fd709f28e8600b4aa8c65c6b64bfe7fe36bd19b0190600090565b634e487b7160e01b600052603260045260246000fd5b8054821015611df75760005260206000200190600090565b91908201809211611c0957565b91909160009273ffffffffffffffffffffffffffffffffffffffff8083168552602090600182526040938487205493875494837fe0c154d538f20c8d1aadcd299210daa7f0a434a5bf4a39795668b28b61ec6e9654169187517f68f1e99a000000000000000000000000000000000000000000000000000000008152608060a052600460a051528681600481875afa908115612719579086918c916126fc575b501688517f2943dcab000000000000000000000000000000000000000000000000000000008152878160a0515181855afa9081156124d3578c916126cf575b5088101561268a5788517f8a0c725b000000000000000000000000000000000000000000000000000000008152878160a0515181855afa9081156124d3578c9161265d575b50831015612619578851977fb53105a3000000000000000000000000000000000000000000000000000000008952878960a0515181855afa9889156124d3578c996125ea575b508951927fac027f97000000000000000000000000000000000000000000000000000000008452888460a0515181865afa93841561258e578d946125cb575b50878b51917f23b872dd000000000000000000000000000000000000000000000000000000008b8401521660248201523060448201528960648201526064815260a081019367ffffffffffffffff94828110868211176125b5578c5261204a929161204591612723565b611d99565b93878a5180927f9e4b35540000000000000000000000000000000000000000000000000000000082528160a05151915afa9081156124d3579087918d91612598575b501689517f200d2ed2000000000000000000000000000000000000000000000000000000008152888160a0515181855afa90811561258e578d91612571575b50600281101561255b57908c9115806124dd575b61246f575b505060a051515491821561245957600019928381019081116124435761210990611dc0565b90549060031b1c9260a0515154801561242d5781019061212882611dc0565b909182549160031b1b1916905560a05151555b8951888101917fc8aaee8b33ec932cbcaafea157708df26b70956d01af32ed14988794c643e4e383527fffffffffffffffffffffffffffffffffffffffff0000000000000000000000008860601b168c8301528460548301526054825260a05182019082821090821117612415578b52519020976121b889611c1f565b90600182018054938985166123d057908e9392918b8e5180927fa7c1abe00000000000000000000000000000000000000000000000000000000082528160a05151915afa9081156123a7578b8f8e9288946123b1575b5051928380927fe2d2bfe300000000000000000000000000000000000000000000000000000000825260a0515192165afa9081156123a7578b8f8e92889461236d575b5051928380927f7667180800000000000000000000000000000000000000000000000000000000825260a0515192165afa9485156123625794612332575b50600393947fffffffffffffffffffffffff00000000000000000000000000000000000000008b8b1691161790558482556002820155015589526005855285878a20556001810180911161231c57977ff9afe7870c7ad4010cedbe87273d2282bcedb40f6734c102d53059c8da187bdf9798848416825260018652878220555584519384521690820152a1565b602489634e487b7160e01b8152601160a0515152fd5b93508a84813d831161235b575b6123498183611906565b8101031261044657600393519361228f565b503d61233f565b8e51903d90823e3d90fd5b9350505081813d83116123a0575b6123858183611906565b81010312610cbb57518a81168103610cbb578b8b8f38612251565b503d61237b565b8e513d87823e3d90fd5b6123c9919450833d85116102b4576102a68183611906565b923861220e565b60648b8e519062461bcd60e51b825260a05151820152600f60248201527f496420616c7265616479207573656400000000000000000000000000000000006044820152fd5b634e487b7160e01b600052604160a051515260246000fd5b60248e634e487b7160e01b8152603160a0515152fd5b60248d634e487b7160e01b8152601160a0515152fd5b600354925061246783611d99565b60035561213b565b803b1561050457819060248c51809481937f95bc9538000000000000000000000000000000000000000000000000000000008352600160a051518401525af180156124d3576124c0575b8b906120e4565b6124cc909b919b6118a4565b99386124b9565b8a513d8e823e3d90fd5b508a517f2db31193000000000000000000000000000000000000000000000000000000008152898160a0515181875afa908115612551578391612524575b508610156120df565b90508981813d831161254a575b61253b8183611906565b810103126102dc57513861251b565b503d612531565b8c513d85823e3d90fd5b60248d634e487b7160e01b8152602160a0515152fd5b6125889150893d8b11611765576117578183611906565b386120cb565b8b513d8f823e3d90fd5b6125af9150893d8b116102b4576102a68183611906565b3861208c565b60248f634e487b7160e01b8152604160a0515152fd5b6125e3919450893d8b116102b4576102a68183611906565b9238611fdb565b9098508781813d8311612612575b6126028183611906565b8101031261171757519738611f9c565b503d6125f8565b6064878a519062461bcd60e51b82528060a0515183015260248201527f4d617820776f726b657273207065722070726f766964657220726561636865646044820152fd5b90508781813d8311612683575b6126748183611906565b81010312611717575138611f56565b503d61266a565b6064878a519062461bcd60e51b825260a05151820152601660248201527f54617267657420776f726b6572732072656163686564000000000000000000006044820152fd5b90508781813d83116126f5575b6126e68183611906565b81010312611717575138611f11565b503d6126dc565b6127139150883d8a116102b4576102a68183611906565b38611ed2565b89513d8d823e3d90fd5b73ffffffffffffffffffffffffffffffffffffffff169061278a604051612749816118ce565b6020938482527f5361666545524332303a206c6f772d6c6576656c2063616c6c206661696c6564858301526000808587829751910182855af1610bc9611b30565b80519182159184831561280f575b5050509050156127a55750565b6084906040519062461bcd60e51b82526004820152602a60248201527f5361666545524332303a204552433230206f7065726174696f6e20646964206e60448201527f6f742073756363656564000000000000000000000000000000000000000000006064820152fd5b919381809450010312610504578201519081151582036104a3575080388084612798565b81811061283e575050565b60008155600101612833565b6128548154611c6e565b908161285e575050565b81601f60009311600114612870575055565b8183526020832061288c91601f0160051c810190600101612833565b8160208120915555565b601f8260209493601f19938186528686013760008582860101520116010190565b8054680100000000000000008110156118b8576128d991600182018155611e0d565b61291b57815160209283015190921b7fffffffffffffffffffffffffffffffffffffffffffffffffffffffff000000001663ffffffff92909216919091179055565b634e487b7160e01b600052600060045260246000fd5b9190917bffffffffffffffffffffffffffffffffffffffffffffffffffffffff80809416911601918211611c0957565b63ffffffff90814216908315612aaf577bffffffffffffffffffffffffffffffffffffffffffffffffffffffff93848111612a6b5784169381546129a9600184015482611bfc565b15612a49576000198101908111611c09576129c49083611e0d565b508054909481168403612a1a57505050506129e6611ce692825460201c612931565b63ffffffff7fffffffffffffffffffffffffffffffffffffffffffffffffffffffff0000000083549260201b169116179055565b612a2f919293945094611ce69560201c612931565b60405193612a3c856118ce565b84521660208301526128b7565b5050909150611ce69260405192612a5f846118ce565b835260208301526128b7565b606460405162461bcd60e51b815260206004820152601160248201527f416d6f756e7420697320746f6f206269670000000000000000000000000000006044820152fd5b606460405162461bcd60e51b815260206004820152601460248201527f416d6f756e742063616e2774206265207a65726f0000000000000000000000006044820152fd5b9190918054600182015490612b088282611bfc565b15612b685760001994858201918211611c0957612b26918385612bac565b9290925460201c9482612b3b575b5050509190565b8293959201928311611c0957612b5f92612b5491611e0d565b505460201c90611bfc565b91388080612b34565b606460405162461bcd60e51b815260206004820152601160248201527f526571756573747320697320656d7074790000000000000000000000000000006044820152fd5b9093929091612bbb8186611e25565b90600191821c93612bcc8582611e0d565b50965b828103612bdf5750505050509190565b875463ffffffff16858103612bf8575050505050509190565b8598509592949091939510600014612c4e5750838101809111612c3957925b612c218385611e25565b811c93612c2e8584611e0d565b509693919290612bcf565b60246000634e487b7160e01b81526011600452fd5b9392506000198101908111612c395791612c1756fea26469706673582212201d17f2bac584bc93058b0ad3916c7d90ab1bb5de1e5a031fe572f8e5a3bb4e0964736f6c63430008110033",
  "devdoc": {
    "kind": "dev",
    "methods": {
      "proxiableUUID()": {
        "details": "Implementation of the ERC1822 {proxiableUUID} function. This returns the storage slot used by the implementation. It is used to validate the implementation's compatibility when performing an upgrade. IMPORTANT: A proxy pointing at a proxiable contract should not be considered proxiable itself, because this risks bricking a proxy that upgrades to it, by delegating to itself until out of gas. Thus it is critical that this function revert if invoked through a proxy. This is guaranteed by the `notDelegated` modifier."
      },
      "upgradeTo(address)": {
        "custom:oz-upgrades-unsafe-allow-reachable": "delegatecall",
        "details": "Upgrade the implementation of the proxy to `newImplementation`. Calls {_authorizeUpgrade}. Emits an {Upgraded} event."
      },
      "upgradeToAndCall(address,bytes)": {
        "custom:oz-upgrades-unsafe-allow-reachable": "delegatecall",
        "details": "Upgrade the implementation of the proxy to `newImplementation`, and subsequently execute the function call encoded in `data`. Calls {_authorizeUpgrade}. Emits an {Upgraded} event."
      }
    },
    "version": 1
  },
  "userdoc": {
    "kind": "user",
    "methods": {},
    "version": 1
  },
  "storageLayout": {
    "storage": [
      {
        "astId": 6684,
        "contract": "contracts/deal/WorkersModule.sol:WorkersModule",
        "label": "_currentWorkers",
        "offset": 0,
        "slot": "0",
        "type": "t_uint256"
      },
      {
        "astId": 6689,
        "contract": "contracts/deal/WorkersModule.sol:WorkersModule",
        "label": "_ownersInfo",
        "offset": 0,
        "slot": "1",
        "type": "t_mapping(t_address,t_struct(OwnerInfo)6640_storage)"
      },
      {
        "astId": 6694,
        "contract": "contracts/deal/WorkersModule.sol:WorkersModule",
        "label": "_requests",
        "offset": 0,
        "slot": "2",
        "type": "t_mapping(t_address,t_struct(Requests)10068_storage)"
      },
      {
        "astId": 6696,
        "contract": "contracts/deal/WorkersModule.sol:WorkersModule",
        "label": "_nextWorkerIndex",
        "offset": 0,
        "slot": "3",
        "type": "t_uint256"
      },
      {
        "astId": 6699,
        "contract": "contracts/deal/WorkersModule.sol:WorkersModule",
        "label": "_freeIndexes",
        "offset": 0,
        "slot": "4",
        "type": "t_array(t_uint256)dyn_storage"
      },
      {
        "astId": 6704,
        "contract": "contracts/deal/WorkersModule.sol:WorkersModule",
        "label": "_patIdByIndex",
        "offset": 0,
        "slot": "5",
        "type": "t_mapping(t_uint256,t_userDefinedValueType(PATId)7648)"
      },
      {
        "astId": 6710,
        "contract": "contracts/deal/WorkersModule.sol:WorkersModule",
        "label": "_pdtByPATId",
        "offset": 0,
        "slot": "6",
        "type": "t_mapping(t_userDefinedValueType(PATId)7648,t_struct(PDT)7638_storage)"
      },
      {
        "astId": 7547,
        "contract": "contracts/deal/WorkersModule.sol:WorkersModule",
        "label": "__gap",
        "offset": 0,
        "slot": "7",
        "type": "t_array(t_uint256)50_storage"
      }
    ],
    "types": {
      "t_address": {
        "encoding": "inplace",
        "label": "address",
        "numberOfBytes": "20"
      },
      "t_array(t_struct(Request)10073_storage)dyn_storage": {
        "base": "t_struct(Request)10073_storage",
        "encoding": "dynamic_array",
        "label": "struct WithdrawRequests.Request[]",
        "numberOfBytes": "32"
      },
      "t_array(t_uint256)50_storage": {
        "base": "t_uint256",
        "encoding": "inplace",
        "label": "uint256[50]",
        "numberOfBytes": "1600"
      },
      "t_array(t_uint256)dyn_storage": {
        "base": "t_uint256",
        "encoding": "dynamic_array",
        "label": "uint256[]",
        "numberOfBytes": "32"
      },
      "t_mapping(t_address,t_struct(OwnerInfo)6640_storage)": {
        "encoding": "mapping",
        "key": "t_address",
        "label": "mapping(address => struct WorkersModuleState.OwnerInfo)",
        "numberOfBytes": "32",
        "value": "t_struct(OwnerInfo)6640_storage"
      },
      "t_mapping(t_address,t_struct(Requests)10068_storage)": {
        "encoding": "mapping",
        "key": "t_address",
        "label": "mapping(address => struct WithdrawRequests.Requests)",
        "numberOfBytes": "32",
        "value": "t_struct(Requests)10068_storage"
      },
      "t_mapping(t_uint256,t_userDefinedValueType(PATId)7648)": {
        "encoding": "mapping",
        "key": "t_uint256",
        "label": "mapping(uint256 => PATId)",
        "numberOfBytes": "32",
        "value": "t_userDefinedValueType(PATId)7648"
      },
      "t_mapping(t_userDefinedValueType(PATId)7648,t_struct(PDT)7638_storage)": {
        "encoding": "mapping",
        "key": "t_userDefinedValueType(PATId)7648",
        "label": "mapping(PATId => struct PDT)",
        "numberOfBytes": "32",
        "value": "t_struct(PDT)7638_storage"
      },
      "t_string_storage": {
        "encoding": "bytes",
        "label": "string",
        "numberOfBytes": "32"
      },
      "t_struct(OwnerInfo)6640_storage": {
        "encoding": "inplace",
        "label": "struct WorkersModuleState.OwnerInfo",
        "members": [
          {
            "astId": 6639,
            "contract": "contracts/deal/WorkersModule.sol:WorkersModule",
            "label": "patsCount",
            "offset": 0,
            "slot": "0",
            "type": "t_uint256"
          }
        ],
        "numberOfBytes": "32"
      },
      "t_struct(PDT)7638_storage": {
        "encoding": "inplace",
        "label": "struct PDT",
        "members": [
          {
            "astId": 7635,
            "contract": "contracts/deal/WorkersModule.sol:WorkersModule",
            "label": "peerId",
            "offset": 0,
            "slot": "0",
            "type": "t_string_storage"
          },
          {
            "astId": 7637,
            "contract": "contracts/deal/WorkersModule.sol:WorkersModule",
            "label": "workerId",
            "offset": 0,
            "slot": "1",
            "type": "t_string_storage"
          }
        ],
        "numberOfBytes": "64"
      },
      "t_struct(Request)10073_storage": {
        "encoding": "inplace",
        "label": "struct WithdrawRequests.Request",
        "members": [
          {
            "astId": 10070,
            "contract": "contracts/deal/WorkersModule.sol:WorkersModule",
            "label": "_createTimestamp",
            "offset": 0,
            "slot": "0",
            "type": "t_uint32"
          },
          {
            "astId": 10072,
            "contract": "contracts/deal/WorkersModule.sol:WorkersModule",
            "label": "_cumulative",
            "offset": 4,
            "slot": "0",
            "type": "t_uint224"
          }
        ],
        "numberOfBytes": "32"
      },
      "t_struct(Requests)10068_storage": {
        "encoding": "inplace",
        "label": "struct WithdrawRequests.Requests",
        "members": [
          {
            "astId": 10065,
            "contract": "contracts/deal/WorkersModule.sol:WorkersModule",
            "label": "_requests",
            "offset": 0,
            "slot": "0",
            "type": "t_array(t_struct(Request)10073_storage)dyn_storage"
          },
          {
            "astId": 10067,
            "contract": "contracts/deal/WorkersModule.sol:WorkersModule",
            "label": "_indexOffset",
            "offset": 0,
            "slot": "1",
            "type": "t_uint256"
          }
        ],
        "numberOfBytes": "64"
      },
      "t_uint224": {
        "encoding": "inplace",
        "label": "uint224",
        "numberOfBytes": "28"
      },
      "t_uint256": {
        "encoding": "inplace",
        "label": "uint256",
        "numberOfBytes": "32"
      },
      "t_uint32": {
        "encoding": "inplace",
        "label": "uint32",
        "numberOfBytes": "4"
      },
      "t_userDefinedValueType(PATId)7648": {
        "encoding": "inplace",
        "label": "PATId",
        "numberOfBytes": "32"
      }
    }
  }
}